{
  "_format": "hh-sol-artifact-1",
  "contractName": "GovernorAlpha",
  "sourceName": "contracts/Governance/GovernorAlpha.sol",
  "abi": [
    {
      "inputs": [
        {
          "internalType": "address",
          "name": "timelock_",
          "type": "address"
        },
        {
          "internalType": "address",
          "name": "comp_",
          "type": "address"
        },
        {
          "internalType": "address",
          "name": "guardian_",
          "type": "address"
        }
      ],
      "stateMutability": "nonpayable",
      "type": "constructor"
    },
    {
      "anonymous": false,
      "inputs": [
        {
          "indexed": false,
          "internalType": "uint256",
          "name": "id",
          "type": "uint256"
        }
      ],
      "name": "ProposalCanceled",
      "type": "event"
    },
    {
      "anonymous": false,
      "inputs": [
        {
          "indexed": false,
          "internalType": "uint256",
          "name": "id",
          "type": "uint256"
        },
        {
          "indexed": false,
          "internalType": "address",
          "name": "proposer",
          "type": "address"
        },
        {
          "indexed": false,
          "internalType": "address[]",
          "name": "targets",
          "type": "address[]"
        },
        {
          "indexed": false,
          "internalType": "uint256[]",
          "name": "values",
          "type": "uint256[]"
        },
        {
          "indexed": false,
          "internalType": "string[]",
          "name": "signatures",
          "type": "string[]"
        },
        {
          "indexed": false,
          "internalType": "bytes[]",
          "name": "calldatas",
          "type": "bytes[]"
        },
        {
          "indexed": false,
          "internalType": "uint256",
          "name": "startBlock",
          "type": "uint256"
        },
        {
          "indexed": false,
          "internalType": "uint256",
          "name": "endBlock",
          "type": "uint256"
        },
        {
          "indexed": false,
          "internalType": "string",
          "name": "description",
          "type": "string"
        }
      ],
      "name": "ProposalCreated",
      "type": "event"
    },
    {
      "anonymous": false,
      "inputs": [
        {
          "indexed": false,
          "internalType": "uint256",
          "name": "id",
          "type": "uint256"
        }
      ],
      "name": "ProposalExecuted",
      "type": "event"
    },
    {
      "anonymous": false,
      "inputs": [
        {
          "indexed": false,
          "internalType": "uint256",
          "name": "id",
          "type": "uint256"
        },
        {
          "indexed": false,
          "internalType": "uint256",
          "name": "eta",
          "type": "uint256"
        }
      ],
      "name": "ProposalQueued",
      "type": "event"
    },
    {
      "anonymous": false,
      "inputs": [
        {
          "indexed": false,
          "internalType": "address",
          "name": "voter",
          "type": "address"
        },
        {
          "indexed": false,
          "internalType": "uint256",
          "name": "proposalId",
          "type": "uint256"
        },
        {
          "indexed": false,
          "internalType": "bool",
          "name": "support",
          "type": "bool"
        },
        {
          "indexed": false,
          "internalType": "uint256",
          "name": "votes",
          "type": "uint256"
        }
      ],
      "name": "VoteCast",
      "type": "event"
    },
    {
      "inputs": [],
      "name": "BALLOT_TYPEHASH",
      "outputs": [
        {
          "internalType": "bytes32",
          "name": "",
          "type": "bytes32"
        }
      ],
      "stateMutability": "view",
      "type": "function"
    },
    {
      "inputs": [],
      "name": "DOMAIN_TYPEHASH",
      "outputs": [
        {
          "internalType": "bytes32",
          "name": "",
          "type": "bytes32"
        }
      ],
      "stateMutability": "view",
      "type": "function"
    },
    {
      "inputs": [],
      "name": "__abdicate",
      "outputs": [],
      "stateMutability": "nonpayable",
      "type": "function"
    },
    {
      "inputs": [],
      "name": "__acceptAdmin",
      "outputs": [],
      "stateMutability": "nonpayable",
      "type": "function"
    },
    {
      "inputs": [
        {
          "internalType": "address",
          "name": "newPendingAdmin",
          "type": "address"
        },
        {
          "internalType": "uint256",
          "name": "eta",
          "type": "uint256"
        }
      ],
      "name": "__executeSetTimelockPendingAdmin",
      "outputs": [],
      "stateMutability": "nonpayable",
      "type": "function"
    },
    {
      "inputs": [
        {
          "internalType": "address",
          "name": "newPendingAdmin",
          "type": "address"
        },
        {
          "internalType": "uint256",
          "name": "eta",
          "type": "uint256"
        }
      ],
      "name": "__queueSetTimelockPendingAdmin",
      "outputs": [],
      "stateMutability": "nonpayable",
      "type": "function"
    },
    {
      "inputs": [
        {
          "internalType": "uint256",
          "name": "proposalId",
          "type": "uint256"
        }
      ],
      "name": "cancel",
      "outputs": [],
      "stateMutability": "nonpayable",
      "type": "function"
    },
    {
      "inputs": [
        {
          "internalType": "uint256",
          "name": "proposalId",
          "type": "uint256"
        },
        {
          "internalType": "bool",
          "name": "support",
          "type": "bool"
        }
      ],
      "name": "castVote",
      "outputs": [],
      "stateMutability": "nonpayable",
      "type": "function"
    },
    {
      "inputs": [
        {
          "internalType": "uint256",
          "name": "proposalId",
          "type": "uint256"
        },
        {
          "internalType": "bool",
          "name": "support",
          "type": "bool"
        },
        {
          "internalType": "uint8",
          "name": "v",
          "type": "uint8"
        },
        {
          "internalType": "bytes32",
          "name": "r",
          "type": "bytes32"
        },
        {
          "internalType": "bytes32",
          "name": "s",
          "type": "bytes32"
        }
      ],
      "name": "castVoteBySig",
      "outputs": [],
      "stateMutability": "nonpayable",
      "type": "function"
    },
    {
      "inputs": [],
      "name": "comp",
      "outputs": [
        {
          "internalType": "contract CompInterface",
          "name": "",
          "type": "address"
        }
      ],
      "stateMutability": "view",
      "type": "function"
    },
    {
      "inputs": [
        {
          "internalType": "uint256",
          "name": "proposalId",
          "type": "uint256"
        }
      ],
      "name": "execute",
      "outputs": [],
      "stateMutability": "payable",
      "type": "function"
    },
    {
      "inputs": [
        {
          "internalType": "uint256",
          "name": "proposalId",
          "type": "uint256"
        }
      ],
      "name": "getActions",
      "outputs": [
        {
          "internalType": "address[]",
          "name": "targets",
          "type": "address[]"
        },
        {
          "internalType": "uint256[]",
          "name": "values",
          "type": "uint256[]"
        },
        {
          "internalType": "string[]",
          "name": "signatures",
          "type": "string[]"
        },
        {
          "internalType": "bytes[]",
          "name": "calldatas",
          "type": "bytes[]"
        }
      ],
      "stateMutability": "view",
      "type": "function"
    },
    {
      "inputs": [
        {
          "internalType": "uint256",
          "name": "proposalId",
          "type": "uint256"
        },
        {
          "internalType": "address",
          "name": "voter",
          "type": "address"
        }
      ],
      "name": "getReceipt",
      "outputs": [
        {
          "components": [
            {
              "internalType": "bool",
              "name": "hasVoted",
              "type": "bool"
            },
            {
              "internalType": "bool",
              "name": "support",
              "type": "bool"
            },
            {
              "internalType": "uint96",
              "name": "votes",
              "type": "uint96"
            }
          ],
          "internalType": "struct GovernorAlpha.Receipt",
          "name": "",
          "type": "tuple"
        }
      ],
      "stateMutability": "view",
      "type": "function"
    },
    {
      "inputs": [],
      "name": "guardian",
      "outputs": [
        {
          "internalType": "address",
          "name": "",
          "type": "address"
        }
      ],
      "stateMutability": "view",
      "type": "function"
    },
    {
      "inputs": [
        {
          "internalType": "address",
          "name": "",
          "type": "address"
        }
      ],
      "name": "latestProposalIds",
      "outputs": [
        {
          "internalType": "uint256",
          "name": "",
          "type": "uint256"
        }
      ],
      "stateMutability": "view",
      "type": "function"
    },
    {
      "inputs": [],
      "name": "name",
      "outputs": [
        {
          "internalType": "string",
          "name": "",
          "type": "string"
        }
      ],
      "stateMutability": "view",
      "type": "function"
    },
    {
      "inputs": [],
      "name": "proposalCount",
      "outputs": [
        {
          "internalType": "uint256",
          "name": "",
          "type": "uint256"
        }
      ],
      "stateMutability": "view",
      "type": "function"
    },
    {
      "inputs": [],
      "name": "proposalMaxOperations",
      "outputs": [
        {
          "internalType": "uint256",
          "name": "",
          "type": "uint256"
        }
      ],
      "stateMutability": "pure",
      "type": "function"
    },
    {
      "inputs": [],
      "name": "proposalThreshold",
      "outputs": [
        {
          "internalType": "uint256",
          "name": "",
          "type": "uint256"
        }
      ],
      "stateMutability": "pure",
      "type": "function"
    },
    {
      "inputs": [
        {
          "internalType": "uint256",
          "name": "",
          "type": "uint256"
        }
      ],
      "name": "proposals",
      "outputs": [
        {
          "internalType": "uint256",
          "name": "id",
          "type": "uint256"
        },
        {
          "internalType": "address",
          "name": "proposer",
          "type": "address"
        },
        {
          "internalType": "uint256",
          "name": "eta",
          "type": "uint256"
        },
        {
          "internalType": "uint256",
          "name": "startBlock",
          "type": "uint256"
        },
        {
          "internalType": "uint256",
          "name": "endBlock",
          "type": "uint256"
        },
        {
          "internalType": "uint256",
          "name": "forVotes",
          "type": "uint256"
        },
        {
          "internalType": "uint256",
          "name": "againstVotes",
          "type": "uint256"
        },
        {
          "internalType": "bool",
          "name": "canceled",
          "type": "bool"
        },
        {
          "internalType": "bool",
          "name": "executed",
          "type": "bool"
        }
      ],
      "stateMutability": "view",
      "type": "function"
    },
    {
      "inputs": [
        {
          "internalType": "address[]",
          "name": "targets",
          "type": "address[]"
        },
        {
          "internalType": "uint256[]",
          "name": "values",
          "type": "uint256[]"
        },
        {
          "internalType": "string[]",
          "name": "signatures",
          "type": "string[]"
        },
        {
          "internalType": "bytes[]",
          "name": "calldatas",
          "type": "bytes[]"
        },
        {
          "internalType": "string",
          "name": "description",
          "type": "string"
        }
      ],
      "name": "propose",
      "outputs": [
        {
          "internalType": "uint256",
          "name": "",
          "type": "uint256"
        }
      ],
      "stateMutability": "nonpayable",
      "type": "function"
    },
    {
      "inputs": [
        {
          "internalType": "uint256",
          "name": "proposalId",
          "type": "uint256"
        }
      ],
      "name": "queue",
      "outputs": [],
      "stateMutability": "nonpayable",
      "type": "function"
    },
    {
      "inputs": [],
      "name": "quorumVotes",
      "outputs": [
        {
          "internalType": "uint256",
          "name": "",
          "type": "uint256"
        }
      ],
      "stateMutability": "pure",
      "type": "function"
    },
    {
      "inputs": [
        {
          "internalType": "uint256",
          "name": "proposalId",
          "type": "uint256"
        }
      ],
      "name": "state",
      "outputs": [
        {
          "internalType": "enum GovernorAlpha.ProposalState",
          "name": "",
          "type": "uint8"
        }
      ],
      "stateMutability": "view",
      "type": "function"
    },
    {
      "inputs": [],
      "name": "timelock",
      "outputs": [
        {
          "internalType": "contract TimelockInterface",
          "name": "",
          "type": "address"
        }
      ],
      "stateMutability": "view",
      "type": "function"
    },
    {
      "inputs": [],
      "name": "votingDelay",
      "outputs": [
        {
          "internalType": "uint256",
          "name": "",
          "type": "uint256"
        }
      ],
      "stateMutability": "pure",
      "type": "function"
    },
    {
      "inputs": [],
      "name": "votingPeriod",
      "outputs": [
        {
          "internalType": "uint256",
          "name": "",
          "type": "uint256"
        }
      ],
      "stateMutability": "pure",
      "type": "function"
    }
  ],
  "bytecode": "0x60806040523480156200001157600080fd5b506040516200564f3803806200564f83398181016040528101906200003791906200016c565b826000806101000a81548173ffffffffffffffffffffffffffffffffffffffff021916908373ffffffffffffffffffffffffffffffffffffffff16021790555081600160006101000a81548173ffffffffffffffffffffffffffffffffffffffff021916908373ffffffffffffffffffffffffffffffffffffffff16021790555080600260006101000a81548173ffffffffffffffffffffffffffffffffffffffff021916908373ffffffffffffffffffffffffffffffffffffffff160217905550505050620001c8565b600080fd5b600073ffffffffffffffffffffffffffffffffffffffff82169050919050565b6000620001348262000107565b9050919050565b620001468162000127565b81146200015257600080fd5b50565b60008151905062000166816200013b565b92915050565b60008060006060848603121562000188576200018762000102565b5b6000620001988682870162000155565b9350506020620001ab8682870162000155565b9250506040620001be8682870162000155565b9150509250925092565b61547780620001d86000396000f3fe60806040526004361061019c5760003560e01c8063452a9320116100ec578063d33219b41161008a578063ddf0b00911610064578063ddf0b009146105b1578063deaaa7cc146105da578063e23a9a5214610605578063fe0d94c1146106425761019c565b8063d33219b41461051e578063da35c66414610549578063da95691a146105745761019c565b80637bdbe4d0116100c65780637bdbe4d01461048857806391500671146104b3578063b58131b0146104dc578063b9a61961146105075761019c565b8063452a93201461041d5780634634c61f14610448578063760fbc13146104715761019c565b806320606b7011610159578063328dd98211610133578063328dd9821461034c5780633932abb11461038c5780633e4f49e6146103b757806340e58ee5146103f45761019c565b806320606b70146102cd57806321f43e42146102f857806324bc1a64146103215761019c565b8063013cf08b146101a157806302a251a3146101e657806306fdde0314610211578063109d0af81461023c57806315373e3d1461026757806317977c6114610290575b600080fd5b3480156101ad57600080fd5b506101c860048036038101906101c39190612ce0565b61065e565b6040516101dd99989796959493929190612d78565b60405180910390f35b3480156101f257600080fd5b506101fb6106e6565b6040516102089190612e05565b60405180910390f35b34801561021d57600080fd5b506102266106f0565b6040516102339190612eb9565b60405180910390f35b34801561024857600080fd5b50610251610729565b60405161025e9190612f3a565b60405180910390f35b34801561027357600080fd5b5061028e60048036038101906102899190612f81565b61074f565b005b34801561029c57600080fd5b506102b760048036038101906102b29190612fed565b61075e565b6040516102c49190612e05565b60405180910390f35b3480156102d957600080fd5b506102e2610776565b6040516102ef9190613033565b60405180910390f35b34801561030457600080fd5b5061031f600480360381019061031a919061304e565b61079a565b005b34801561032d57600080fd5b50610336610916565b6040516103439190612e05565b60405180910390f35b34801561035857600080fd5b50610373600480360381019061036e9190612ce0565b610928565b604051610383949392919061342d565b60405180910390f35b34801561039857600080fd5b506103a1610be5565b6040516103ae9190612e05565b60405180910390f35b3480156103c357600080fd5b506103de60048036038101906103d99190612ce0565b610bee565b6040516103eb9190613505565b60405180910390f35b34801561040057600080fd5b5061041b60048036038101906104169190612ce0565b610dc2565b005b34801561042957600080fd5b5061043261117b565b60405161043f9190613520565b60405180910390f35b34801561045457600080fd5b5061046f600480360381019061046a91906135a0565b6111a1565b005b34801561047d57600080fd5b5061048661138a565b005b34801561049457600080fd5b5061049d61145e565b6040516104aa9190612e05565b60405180910390f35b3480156104bf57600080fd5b506104da60048036038101906104d5919061304e565b611467565b005b3480156104e857600080fd5b506104f16115de565b6040516104fe9190612e05565b60405180910390f35b34801561051357600080fd5b5061051c6115f0565b005b34801561052a57600080fd5b50610533611702565b604051610540919061363c565b60405180910390f35b34801561055557600080fd5b5061055e611726565b60405161056b9190612e05565b60405180910390f35b34801561058057600080fd5b5061059b60048036038101906105969190613b7a565b61172c565b6040516105a89190612e05565b60405180910390f35b3480156105bd57600080fd5b506105d860048036038101906105d39190612ce0565b611cd2565b005b3480156105e657600080fd5b506105ef61201e565b6040516105fc9190613033565b60405180910390f35b34801561061157600080fd5b5061062c60048036038101906106279190613c81565b612042565b6040516106399190613d39565b60405180910390f35b61065c60048036038101906106579190612ce0565b612124565b005b60046020528060005260406000206000915090508060000154908060010160009054906101000a900473ffffffffffffffffffffffffffffffffffffffff169080600201549080600701549080600801549080600901549080600a01549080600b0160009054906101000a900460ff169080600b0160019054906101000a900460ff16905089565b6000614380905090565b6040518060400160405280601781526020017f436f6d706f756e6420476f7665726e6f7220416c70686100000000000000000081525081565b600160009054906101000a900473ffffffffffffffffffffffffffffffffffffffff1681565b61075a338383612395565b5050565b60056020528060005260406000206000915090505481565b7f8cad95687ba82c2ce50e74f7b754645e5117c3a5bec8151c0726d5857980a86681565b600260009054906101000a900473ffffffffffffffffffffffffffffffffffffffff1673ffffffffffffffffffffffffffffffffffffffff163373ffffffffffffffffffffffffffffffffffffffff161461082a576040517f08c379a000000000000000000000000000000000000000000000000000000000815260040161082190613dec565b60405180910390fd5b60008054906101000a900473ffffffffffffffffffffffffffffffffffffffff1673ffffffffffffffffffffffffffffffffffffffff16630825f38f60008054906101000a900473ffffffffffffffffffffffffffffffffffffffff1660008560405160200161089a9190613520565b604051602081830303815290604052856040518563ffffffff1660e01b81526004016108c99493929190613edd565b6000604051808303816000875af11580156108e8573d6000803e3d6000fd5b505050506040513d6000823e3d601f19601f820116820180604052508101906109119190613fac565b505050565b60006954b40b1f852bda000000905090565b606080606080600060046000878152602001908152602001600020905080600301816004018260050183600601838054806020026020016040519081016040528092919081815260200182805480156109d657602002820191906000526020600020905b8160009054906101000a900473ffffffffffffffffffffffffffffffffffffffff1673ffffffffffffffffffffffffffffffffffffffff168152602001906001019080831161098c575b5050505050935082805480602002602001604051908101604052809291908181526020018280548015610a2857602002820191906000526020600020905b815481526020019060010190808311610a14575b5050505050925081805480602002602001604051908101604052809291908181526020016000905b82821015610afc578382906000526020600020018054610a6f90614024565b80601f0160208091040260200160405190810160405280929190818152602001828054610a9b90614024565b8015610ae85780601f10610abd57610100808354040283529160200191610ae8565b820191906000526020600020905b815481529060010190602001808311610acb57829003601f168201915b505050505081526020019060010190610a50565b50505050915080805480602002602001604051908101604052809291908181526020016000905b82821015610bcf578382906000526020600020018054610b4290614024565b80601f0160208091040260200160405190810160405280929190818152602001828054610b6e90614024565b8015610bbb5780601f10610b9057610100808354040283529160200191610bbb565b820191906000526020600020905b815481529060010190602001808311610b9e57829003601f168201915b505050505081526020019060010190610b23565b5050505090509450945094509450509193509193565b60006001905090565b60008160035410158015610c025750600082115b610c41576040517f08c379a0000000000000000000000000000000000000000000000000000000008152600401610c38906140c8565b60405180910390fd5b600060046000848152602001908152602001600020905080600b0160009054906101000a900460ff1615610c79576002915050610dbd565b80600701544311610c8e576000915050610dbd565b80600801544311610ca3576001915050610dbd565b80600a01548160090154111580610cc45750610cbd610916565b8160090154105b15610cd3576003915050610dbd565b600081600201541415610cea576004915050610dbd565b80600b0160019054906101000a900460ff1615610d0b576007915050610dbd565b610da7816002015460008054906101000a900473ffffffffffffffffffffffffffffffffffffffff1673ffffffffffffffffffffffffffffffffffffffff1663c1a287e26040518163ffffffff1660e01b8152600401602060405180830381865afa158015610d7e573d6000803e3d6000fd5b505050506040513d601f19601f82011682018060405250810190610da291906140fd565b612663565b4210610db7576006915050610dbd565b60059150505b919050565b6000610dcd82610bee565b9050600780811115610de257610de161348e565b5b816007811115610df557610df461348e565b5b1415610e36576040517f08c379a0000000000000000000000000000000000000000000000000000000008152600401610e2d9061419c565b60405180910390fd5b6000600460008481526020019081526020016000209050600260009054906101000a900473ffffffffffffffffffffffffffffffffffffffff1673ffffffffffffffffffffffffffffffffffffffff163373ffffffffffffffffffffffffffffffffffffffff161480610f885750610eac6115de565b600160009054906101000a900473ffffffffffffffffffffffffffffffffffffffff1673ffffffffffffffffffffffffffffffffffffffff1663782d6fe18360010160009054906101000a900473ffffffffffffffffffffffffffffffffffffffff16610f1a4360016126c1565b6040518363ffffffff1660e01b8152600401610f379291906141bc565b602060405180830381865afa158015610f54573d6000803e3d6000fd5b505050506040513d601f19601f82011682018060405250810190610f789190614211565b6bffffffffffffffffffffffff16105b610fc7576040517f08c379a0000000000000000000000000000000000000000000000000000000008152600401610fbe906142b0565b60405180910390fd5b600181600b0160006101000a81548160ff02191690831515021790555060005b816003018054905081101561113e5760008054906101000a900473ffffffffffffffffffffffffffffffffffffffff1673ffffffffffffffffffffffffffffffffffffffff1663591fcdfe836003018381548110611048576110476142d0565b5b9060005260206000200160009054906101000a900473ffffffffffffffffffffffffffffffffffffffff16846004018481548110611089576110886142d0565b5b90600052602060002001548560050185815481106110aa576110a96142d0565b5b906000526020600020018660060186815481106110ca576110c96142d0565b5b9060005260206000200187600201546040518663ffffffff1660e01b81526004016110f9959493929190614429565b600060405180830381600087803b15801561111357600080fd5b505af1158015611127573d6000803e3d6000fd5b505050508080611136906144b9565b915050610fe7565b507f789cf55be980739dad1d0699b93b58e806b51c9d96619bfa8fe0a28abaa7b30c8360405161116e9190612e05565b60405180910390a1505050565b600260009054906101000a900473ffffffffffffffffffffffffffffffffffffffff1681565b60007f8cad95687ba82c2ce50e74f7b754645e5117c3a5bec8151c0726d5857980a8666040518060400160405280601781526020017f436f6d706f756e6420476f7665726e6f7220416c7068610000000000000000008152508051906020012061120961271a565b3060405160200161121d9493929190614502565b60405160208183030381529060405280519060200120905060007f8e25870c07e0b0b3884c78da52790939a455c275406c44ae8b434b692fb916ee878760405160200161126c93929190614547565b604051602081830303815290604052805190602001209050600082826040516020016112999291906145f6565b6040516020818303038152906040528051906020012090506000600182888888604051600081526020016040526040516112d6949392919061463c565b6020604051602081039080840390855afa1580156112f8573d6000803e3d6000fd5b505050602060405103519050600073ffffffffffffffffffffffffffffffffffffffff168173ffffffffffffffffffffffffffffffffffffffff161415611374576040517f08c379a000000000000000000000000000000000000000000000000000000000815260040161136b906146f3565b60405180910390fd5b61137f818a8a612395565b505050505050505050565b600260009054906101000a900473ffffffffffffffffffffffffffffffffffffffff1673ffffffffffffffffffffffffffffffffffffffff163373ffffffffffffffffffffffffffffffffffffffff161461141a576040517f08c379a000000000000000000000000000000000000000000000000000000000815260040161141190614785565b60405180910390fd5b6000600260006101000a81548173ffffffffffffffffffffffffffffffffffffffff021916908373ffffffffffffffffffffffffffffffffffffffff160217905550565b6000600a905090565b600260009054906101000a900473ffffffffffffffffffffffffffffffffffffffff1673ffffffffffffffffffffffffffffffffffffffff163373ffffffffffffffffffffffffffffffffffffffff16146114f7576040517f08c379a00000000000000000000000000000000000000000000000000000000081526004016114ee9061483d565b60405180910390fd5b60008054906101000a900473ffffffffffffffffffffffffffffffffffffffff1673ffffffffffffffffffffffffffffffffffffffff16633a66f90160008054906101000a900473ffffffffffffffffffffffffffffffffffffffff166000856040516020016115679190613520565b604051602081830303815290604052856040518563ffffffff1660e01b81526004016115969493929190613edd565b6020604051808303816000875af11580156115b5573d6000803e3d6000fd5b505050506040513d601f19601f820116820180604052508101906115d99190614872565b505050565b600069152d02c7e14af6800000905090565b600260009054906101000a900473ffffffffffffffffffffffffffffffffffffffff1673ffffffffffffffffffffffffffffffffffffffff163373ffffffffffffffffffffffffffffffffffffffff1614611680576040517f08c379a000000000000000000000000000000000000000000000000000000000815260040161167790614911565b60405180910390fd5b60008054906101000a900473ffffffffffffffffffffffffffffffffffffffff1673ffffffffffffffffffffffffffffffffffffffff16630e18b6816040518163ffffffff1660e01b8152600401600060405180830381600087803b1580156116e857600080fd5b505af11580156116fc573d6000803e3d6000fd5b50505050565b60008054906101000a900473ffffffffffffffffffffffffffffffffffffffff1681565b60035481565b60006117366115de565b600160009054906101000a900473ffffffffffffffffffffffffffffffffffffffff1673ffffffffffffffffffffffffffffffffffffffff1663782d6fe1336117804360016126c1565b6040518363ffffffff1660e01b815260040161179d9291906141bc565b602060405180830381865afa1580156117ba573d6000803e3d6000fd5b505050506040513d601f19601f820116820180604052508101906117de9190614211565b6bffffffffffffffffffffffff161161182c576040517f08c379a0000000000000000000000000000000000000000000000000000000008152600401611823906149a3565b60405180910390fd5b8451865114801561183e575083518651145b801561184b575082518651145b61188a576040517f08c379a000000000000000000000000000000000000000000000000000000000815260040161188190614a5b565b60405180910390fd5b6000865114156118cf576040517f08c379a00000000000000000000000000000000000000000000000000000000081526004016118c690614aed565b60405180910390fd5b6118d761145e565b8651111561191a576040517f08c379a000000000000000000000000000000000000000000000000000000000815260040161191190614b7f565b60405180910390fd5b6000600560003373ffffffffffffffffffffffffffffffffffffffff1673ffffffffffffffffffffffffffffffffffffffff16815260200190815260200160002054905060008114611a4557600061197182610bee565b9050600160078111156119875761198661348e565b5b81600781111561199a5761199961348e565b5b14156119db576040517f08c379a00000000000000000000000000000000000000000000000000000000081526004016119d290614c37565b60405180910390fd5b600060078111156119ef576119ee61348e565b5b816007811115611a0257611a0161348e565b5b1415611a43576040517f08c379a0000000000000000000000000000000000000000000000000000000008152600401611a3a90614cef565b60405180910390fd5b505b6000611a5843611a53610be5565b612663565b90506000611a6d82611a686106e6565b612663565b905060036000815480929190611a82906144b9565b91905055506000600354905060006004600083815260200190815260200160002090506000816000015414611aec576040517f08c379a0000000000000000000000000000000000000000000000000000000008152600401611ae390614d81565b60405180910390fd5b818160000181905550338160010160006101000a81548173ffffffffffffffffffffffffffffffffffffffff021916908373ffffffffffffffffffffffffffffffffffffffff160217905550600081600201819055508a816003019080519060200190611b5a9291906128db565b5089816004019080519060200190611b73929190612965565b5088816005019080519060200190611b8c9291906129b2565b5087816006019080519060200190611ba5929190612a12565b5083816007018190555082816008018190555060008160090181905550600081600a0181905550600081600b0160006101000a81548160ff021916908315150217905550600081600b0160016101000a81548160ff0219169083151502179055508060000154600560008360010160009054906101000a900473ffffffffffffffffffffffffffffffffffffffff1673ffffffffffffffffffffffffffffffffffffffff1673ffffffffffffffffffffffffffffffffffffffff168152602001908152602001600020819055507f7d84a6263ae0d98d3329bd7b46bb4e8d6f98cd35a7adb45c274c8b7fd5ebd5e08160000154338d8d8d8d8a8a8f604051611cb599989796959493929190614da1565b60405180910390a180600001549550505050505095945050505050565b60046007811115611ce657611ce561348e565b5b611cef82610bee565b6007811115611d0157611d0061348e565b5b14611d41576040517f08c379a0000000000000000000000000000000000000000000000000000000008152600401611d3890614ee9565b60405180910390fd5b60006004600083815260200190815260200160002090506000611df24260008054906101000a900473ffffffffffffffffffffffffffffffffffffffff1673ffffffffffffffffffffffffffffffffffffffff16636a42b8f86040518163ffffffff1660e01b8152600401602060405180830381865afa158015611dc9573d6000803e3d6000fd5b505050506040513d601f19601f82011682018060405250810190611ded91906140fd565b612663565b905060005b8260030180549050811015611fd657611fc3836003018281548110611e1f57611e1e6142d0565b5b9060005260206000200160009054906101000a900473ffffffffffffffffffffffffffffffffffffffff16846004018381548110611e6057611e5f6142d0565b5b9060005260206000200154856005018481548110611e8157611e806142d0565b5b906000526020600020018054611e9690614024565b80601f0160208091040260200160405190810160405280929190818152602001828054611ec290614024565b8015611f0f5780601f10611ee457610100808354040283529160200191611f0f565b820191906000526020600020905b815481529060010190602001808311611ef257829003601f168201915b5050505050866006018581548110611f2a57611f296142d0565b5b906000526020600020018054611f3f90614024565b80601f0160208091040260200160405190810160405280929190818152602001828054611f6b90614024565b8015611fb85780601f10611f8d57610100808354040283529160200191611fb8565b820191906000526020600020905b815481529060010190602001808311611f9b57829003601f168201915b505050505086612727565b8080611fce906144b9565b915050611df7565b508082600201819055507f9a2e42fd6722813d69113e7d0079d3d940171428df7373df9c7f7617cfda28928382604051612011929190614f09565b60405180910390a1505050565b7f8e25870c07e0b0b3884c78da52790939a455c275406c44ae8b434b692fb916ee81565b61204a612a72565b60046000848152602001908152602001600020600c0160008373ffffffffffffffffffffffffffffffffffffffff1673ffffffffffffffffffffffffffffffffffffffff1681526020019081526020016000206040518060600160405290816000820160009054906101000a900460ff161515151581526020016000820160019054906101000a900460ff161515151581526020016000820160029054906101000a90046bffffffffffffffffffffffff166bffffffffffffffffffffffff166bffffffffffffffffffffffff1681525050905092915050565b600560078111156121385761213761348e565b5b61214182610bee565b60078111156121535761215261348e565b5b14612193576040517f08c379a000000000000000000000000000000000000000000000000000000000815260040161218a90614fca565b60405180910390fd5b6000600460008381526020019081526020016000209050600181600b0160016101000a81548160ff02191690831515021790555060005b81600301805490508110156123595760008054906101000a900473ffffffffffffffffffffffffffffffffffffffff1673ffffffffffffffffffffffffffffffffffffffff16630825f38f83600401838154811061222b5761222a6142d0565b5b906000526020600020015484600301848154811061224c5761224b6142d0565b5b9060005260206000200160009054906101000a900473ffffffffffffffffffffffffffffffffffffffff1685600401858154811061228d5761228c6142d0565b5b90600052602060002001548660050186815481106122ae576122ad6142d0565b5b906000526020600020018760060187815481106122ce576122cd6142d0565b5b9060005260206000200188600201546040518763ffffffff1660e01b81526004016122fd959493929190614429565b60006040518083038185885af115801561231b573d6000803e3d6000fd5b50505050506040513d6000823e3d601f19601f820116820180604052508101906123459190613fac565b508080612351906144b9565b9150506121ca565b507f712ae1383f79ac853f8d882153778e0260ef8f03b504e2866e0593e04d2b291f826040516123899190612e05565b60405180910390a15050565b600160078111156123a9576123a861348e565b5b6123b283610bee565b60078111156123c4576123c361348e565b5b14612404576040517f08c379a00000000000000000000000000000000000000000000000000000000081526004016123fb9061505c565b60405180910390fd5b6000600460008481526020019081526020016000209050600081600c0160008673ffffffffffffffffffffffffffffffffffffffff1673ffffffffffffffffffffffffffffffffffffffff1681526020019081526020016000209050600015158160000160009054906101000a900460ff161515146124b8576040517f08c379a00000000000000000000000000000000000000000000000000000000081526004016124af906150ee565b60405180910390fd5b6000600160009054906101000a900473ffffffffffffffffffffffffffffffffffffffff1673ffffffffffffffffffffffffffffffffffffffff1663782d6fe18785600701546040518363ffffffff1660e01b815260040161251b9291906141bc565b602060405180830381865afa158015612538573d6000803e3d6000fd5b505050506040513d601f19601f8201168201806040525081019061255c9190614211565b9050831561258d576125808360090154826bffffffffffffffffffffffff16612663565b83600901819055506125b2565b6125a983600a0154826bffffffffffffffffffffffff16612663565b83600a01819055505b60018260000160006101000a81548160ff021916908315150217905550838260000160016101000a81548160ff021916908315150217905550808260000160026101000a8154816bffffffffffffffffffffffff02191690836bffffffffffffffffffffffff1602179055507f877856338e13f63d0c36822ff0ef736b80934cd90574a3a5bc9262c39d217c4686868684604051612653949392919061513f565b60405180910390a1505050505050565b60008082846126729190615184565b9050838110156126b7576040517f08c379a00000000000000000000000000000000000000000000000000000000081526004016126ae90615226565b60405180910390fd5b8091505092915050565b600082821115612706576040517f08c379a00000000000000000000000000000000000000000000000000000000081526004016126fd90615292565b60405180910390fd5b818361271291906152b2565b905092915050565b6000804690508091505090565b60008054906101000a900473ffffffffffffffffffffffffffffffffffffffff1673ffffffffffffffffffffffffffffffffffffffff1663f2b06537868686868660405160200161277c9594939291906152e6565b604051602081830303815290604052805190602001206040518263ffffffff1660e01b81526004016127ae9190613033565b602060405180830381865afa1580156127cb573d6000803e3d6000fd5b505050506040513d601f19601f820116820180604052508101906127ef919061535c565b1561282f576040517f08c379a000000000000000000000000000000000000000000000000000000000815260040161282690615421565b60405180910390fd5b60008054906101000a900473ffffffffffffffffffffffffffffffffffffffff1673ffffffffffffffffffffffffffffffffffffffff16633a66f90186868686866040518663ffffffff1660e01b81526004016128909594939291906152e6565b6020604051808303816000875af11580156128af573d6000803e3d6000fd5b505050506040513d601f19601f820116820180604052508101906128d39190614872565b505050505050565b828054828255906000526020600020908101928215612954579160200282015b828111156129535782518260006101000a81548173ffffffffffffffffffffffffffffffffffffffff021916908373ffffffffffffffffffffffffffffffffffffffff160217905550916020019190600101906128fb565b5b5090506129619190612aa5565b5090565b8280548282559060005260206000209081019282156129a1579160200282015b828111156129a0578251825591602001919060010190612985565b5b5090506129ae9190612aa5565b5090565b828054828255906000526020600020908101928215612a01579160200282015b82811115612a005782518290805190602001906129f0929190612ac2565b50916020019190600101906129d2565b5b509050612a0e9190612b48565b5090565b828054828255906000526020600020908101928215612a61579160200282015b82811115612a60578251829080519060200190612a50929190612b6c565b5091602001919060010190612a32565b5b509050612a6e9190612bf2565b5090565b604051806060016040528060001515815260200160001515815260200160006bffffffffffffffffffffffff1681525090565b5b80821115612abe576000816000905550600101612aa6565b5090565b828054612ace90614024565b90600052602060002090601f016020900481019282612af05760008555612b37565b82601f10612b0957805160ff1916838001178555612b37565b82800160010185558215612b37579182015b82811115612b36578251825591602001919060010190612b1b565b5b509050612b449190612aa5565b5090565b5b80821115612b685760008181612b5f9190612c16565b50600101612b49565b5090565b828054612b7890614024565b90600052602060002090601f016020900481019282612b9a5760008555612be1565b82601f10612bb357805160ff1916838001178555612be1565b82800160010185558215612be1579182015b82811115612be0578251825591602001919060010190612bc5565b5b509050612bee9190612aa5565b5090565b5b80821115612c125760008181612c099190612c56565b50600101612bf3565b5090565b508054612c2290614024565b6000825580601f10612c345750612c53565b601f016020900490600052602060002090810190612c529190612aa5565b5b50565b508054612c6290614024565b6000825580601f10612c745750612c93565b601f016020900490600052602060002090810190612c929190612aa5565b5b50565b6000604051905090565b600080fd5b600080fd5b6000819050919050565b612cbd81612caa565b8114612cc857600080fd5b50565b600081359050612cda81612cb4565b92915050565b600060208284031215612cf657612cf5612ca0565b5b6000612d0484828501612ccb565b91505092915050565b612d1681612caa565b82525050565b600073ffffffffffffffffffffffffffffffffffffffff82169050919050565b6000612d4782612d1c565b9050919050565b612d5781612d3c565b82525050565b60008115159050919050565b612d7281612d5d565b82525050565b600061012082019050612d8e600083018c612d0d565b612d9b602083018b612d4e565b612da8604083018a612d0d565b612db56060830189612d0d565b612dc26080830188612d0d565b612dcf60a0830187612d0d565b612ddc60c0830186612d0d565b612de960e0830185612d69565b612df7610100830184612d69565b9a9950505050505050505050565b6000602082019050612e1a6000830184612d0d565b92915050565b600081519050919050565b600082825260208201905092915050565b60005b83811015612e5a578082015181840152602081019050612e3f565b83811115612e69576000848401525b50505050565b6000601f19601f8301169050919050565b6000612e8b82612e20565b612e958185612e2b565b9350612ea5818560208601612e3c565b612eae81612e6f565b840191505092915050565b60006020820190508181036000830152612ed38184612e80565b905092915050565b6000819050919050565b6000612f00612efb612ef684612d1c565b612edb565b612d1c565b9050919050565b6000612f1282612ee5565b9050919050565b6000612f2482612f07565b9050919050565b612f3481612f19565b82525050565b6000602082019050612f4f6000830184612f2b565b92915050565b612f5e81612d5d565b8114612f6957600080fd5b50565b600081359050612f7b81612f55565b92915050565b60008060408385031215612f9857612f97612ca0565b5b6000612fa685828601612ccb565b9250506020612fb785828601612f6c565b9150509250929050565b612fca81612d3c565b8114612fd557600080fd5b50565b600081359050612fe781612fc1565b92915050565b60006020828403121561300357613002612ca0565b5b600061301184828501612fd8565b91505092915050565b6000819050919050565b61302d8161301a565b82525050565b60006020820190506130486000830184613024565b92915050565b6000806040838503121561306557613064612ca0565b5b600061307385828601612fd8565b925050602061308485828601612ccb565b9150509250929050565b600081519050919050565b600082825260208201905092915050565b6000819050602082019050919050565b6130c381612d3c565b82525050565b60006130d583836130ba565b60208301905092915050565b6000602082019050919050565b60006130f98261308e565b6131038185613099565b935061310e836130aa565b8060005b8381101561313f57815161312688826130c9565b9750613131836130e1565b925050600181019050613112565b5085935050505092915050565b600081519050919050565b600082825260208201905092915050565b6000819050602082019050919050565b61318181612caa565b82525050565b60006131938383613178565b60208301905092915050565b6000602082019050919050565b60006131b78261314c565b6131c18185613157565b93506131cc83613168565b8060005b838110156131fd5781516131e48882613187565b97506131ef8361319f565b9250506001810190506131d0565b5085935050505092915050565b600081519050919050565b600082825260208201905092915050565b6000819050602082019050919050565b600082825260208201905092915050565b600061325282612e20565b61325c8185613236565b935061326c818560208601612e3c565b61327581612e6f565b840191505092915050565b600061328c8383613247565b905092915050565b6000602082019050919050565b60006132ac8261320a565b6132b68185613215565b9350836020820285016132c885613226565b8060005b8581101561330457848403895281516132e58582613280565b94506132f083613294565b925060208a019950506001810190506132cc565b50829750879550505050505092915050565b600081519050919050565b600082825260208201905092915050565b6000819050602082019050919050565b600081519050919050565b600082825260208201905092915050565b600061336982613342565b613373818561334d565b9350613383818560208601612e3c565b61338c81612e6f565b840191505092915050565b60006133a3838361335e565b905092915050565b6000602082019050919050565b60006133c382613316565b6133cd8185613321565b9350836020820285016133df85613332565b8060005b8581101561341b57848403895281516133fc8582613397565b9450613407836133ab565b925060208a019950506001810190506133e3565b50829750879550505050505092915050565b6000608082019050818103600083015261344781876130ee565b9050818103602083015261345b81866131ac565b9050818103604083015261346f81856132a1565b9050818103606083015261348381846133b8565b905095945050505050565b7f4e487b7100000000000000000000000000000000000000000000000000000000600052602160045260246000fd5b600881106134ce576134cd61348e565b5b50565b60008190506134df826134bd565b919050565b60006134ef826134d1565b9050919050565b6134ff816134e4565b82525050565b600060208201905061351a60008301846134f6565b92915050565b60006020820190506135356000830184612d4e565b92915050565b600060ff82169050919050565b6135518161353b565b811461355c57600080fd5b50565b60008135905061356e81613548565b92915050565b61357d8161301a565b811461358857600080fd5b50565b60008135905061359a81613574565b92915050565b600080600080600060a086880312156135bc576135bb612ca0565b5b60006135ca88828901612ccb565b95505060206135db88828901612f6c565b94505060406135ec8882890161355f565b93505060606135fd8882890161358b565b925050608061360e8882890161358b565b9150509295509295909350565b600061362682612f07565b9050919050565b6136368161361b565b82525050565b6000602082019050613651600083018461362d565b92915050565b600080fd5b7f4e487b7100000000000000000000000000000000000000000000000000000000600052604160045260246000fd5b61369482612e6f565b810181811067ffffffffffffffff821117156136b3576136b261365c565b5b80604052505050565b60006136c6612c96565b90506136d2828261368b565b919050565b600067ffffffffffffffff8211156136f2576136f161365c565b5b602082029050602081019050919050565b600080fd5b600061371b613716846136d7565b6136bc565b9050808382526020820190506020840283018581111561373e5761373d613703565b5b835b8181101561376757806137538882612fd8565b845260208401935050602081019050613740565b5050509392505050565b600082601f83011261378657613785613657565b5b8135613796848260208601613708565b91505092915050565b600067ffffffffffffffff8211156137ba576137b961365c565b5b602082029050602081019050919050565b60006137de6137d98461379f565b6136bc565b9050808382526020820190506020840283018581111561380157613800613703565b5b835b8181101561382a57806138168882612ccb565b845260208401935050602081019050613803565b5050509392505050565b600082601f83011261384957613848613657565b5b81356138598482602086016137cb565b91505092915050565b600067ffffffffffffffff82111561387d5761387c61365c565b5b602082029050602081019050919050565b600080fd5b600067ffffffffffffffff8211156138ae576138ad61365c565b5b6138b782612e6f565b9050602081019050919050565b82818337600083830152505050565b60006138e66138e184613893565b6136bc565b9050828152602081018484840111156139025761390161388e565b5b61390d8482856138c4565b509392505050565b600082601f83011261392a57613929613657565b5b813561393a8482602086016138d3565b91505092915050565b600061395661395184613862565b6136bc565b9050808382526020820190506020840283018581111561397957613978613703565b5b835b818110156139c057803567ffffffffffffffff81111561399e5761399d613657565b5b8086016139ab8982613915565b8552602085019450505060208101905061397b565b5050509392505050565b600082601f8301126139df576139de613657565b5b81356139ef848260208601613943565b91505092915050565b600067ffffffffffffffff821115613a1357613a1261365c565b5b602082029050602081019050919050565b600067ffffffffffffffff821115613a3f57613a3e61365c565b5b613a4882612e6f565b9050602081019050919050565b6000613a68613a6384613a24565b6136bc565b905082815260208101848484011115613a8457613a8361388e565b5b613a8f8482856138c4565b509392505050565b600082601f830112613aac57613aab613657565b5b8135613abc848260208601613a55565b91505092915050565b6000613ad8613ad3846139f8565b6136bc565b90508083825260208201905060208402830185811115613afb57613afa613703565b5b835b81811015613b4257803567ffffffffffffffff811115613b2057613b1f613657565b5b808601613b2d8982613a97565b85526020850194505050602081019050613afd565b5050509392505050565b600082601f830112613b6157613b60613657565b5b8135613b71848260208601613ac5565b91505092915050565b600080600080600060a08688031215613b9657613b95612ca0565b5b600086013567ffffffffffffffff811115613bb457613bb3612ca5565b5b613bc088828901613771565b955050602086013567ffffffffffffffff811115613be157613be0612ca5565b5b613bed88828901613834565b945050604086013567ffffffffffffffff811115613c0e57613c0d612ca5565b5b613c1a888289016139ca565b935050606086013567ffffffffffffffff811115613c3b57613c3a612ca5565b5b613c4788828901613b4c565b925050608086013567ffffffffffffffff811115613c6857613c67612ca5565b5b613c7488828901613915565b9150509295509295909350565b60008060408385031215613c9857613c97612ca0565b5b6000613ca685828601612ccb565b9250506020613cb785828601612fd8565b9150509250929050565b613cca81612d5d565b82525050565b60006bffffffffffffffffffffffff82169050919050565b613cf181613cd0565b82525050565b606082016000820151613d0d6000850182613cc1565b506020820151613d206020850182613cc1565b506040820151613d336040850182613ce8565b50505050565b6000606082019050613d4e6000830184613cf7565b92915050565b7f476f7665726e6f72416c7068613a3a5f5f6578656375746553657454696d656c60008201527f6f636b50656e64696e6741646d696e3a2073656e646572206d7573742062652060208201527f676f7620677561726469616e0000000000000000000000000000000000000000604082015250565b6000613dd6604c83612e2b565b9150613de182613d54565b606082019050919050565b60006020820190508181036000830152613e0581613dc9565b9050919050565b6000819050919050565b6000613e31613e2c613e2784613e0c565b612edb565b612caa565b9050919050565b613e4181613e16565b82525050565b7f73657450656e64696e6741646d696e2861646472657373290000000000000000600082015250565b6000613e7d601883612e2b565b9150613e8882613e47565b602082019050919050565b600082825260208201905092915050565b6000613eaf82613342565b613eb98185613e93565b9350613ec9818560208601612e3c565b613ed281612e6f565b840191505092915050565b600060a082019050613ef26000830187612d4e565b613eff6020830186613e38565b8181036040830152613f1081613e70565b90508181036060830152613f248185613ea4565b9050613f336080830184612d0d565b95945050505050565b6000613f4f613f4a84613a24565b6136bc565b905082815260208101848484011115613f6b57613f6a61388e565b5b613f76848285612e3c565b509392505050565b600082601f830112613f9357613f92613657565b5b8151613fa3848260208601613f3c565b91505092915050565b600060208284031215613fc257613fc1612ca0565b5b600082015167ffffffffffffffff811115613fe057613fdf612ca5565b5b613fec84828501613f7e565b91505092915050565b7f4e487b7100000000000000000000000000000000000000000000000000000000600052602260045260246000fd5b6000600282049050600182168061403c57607f821691505b602082108114156140505761404f613ff5565b5b50919050565b7f476f7665726e6f72416c7068613a3a73746174653a20696e76616c696420707260008201527f6f706f73616c2069640000000000000000000000000000000000000000000000602082015250565b60006140b2602983612e2b565b91506140bd82614056565b604082019050919050565b600060208201905081810360008301526140e1816140a5565b9050919050565b6000815190506140f781612cb4565b92915050565b60006020828403121561411357614112612ca0565b5b6000614121848285016140e8565b91505092915050565b7f476f7665726e6f72416c7068613a3a63616e63656c3a2063616e6e6f7420636160008201527f6e63656c2065786563757465642070726f706f73616c00000000000000000000602082015250565b6000614186603683612e2b565b91506141918261412a565b604082019050919050565b600060208201905081810360008301526141b581614179565b9050919050565b60006040820190506141d16000830185612d4e565b6141de6020830184612d0d565b9392505050565b6141ee81613cd0565b81146141f957600080fd5b50565b60008151905061420b816141e5565b92915050565b60006020828403121561422757614226612ca0565b5b6000614235848285016141fc565b91505092915050565b7f476f7665726e6f72416c7068613a3a63616e63656c3a2070726f706f7365722060008201527f61626f7665207468726573686f6c640000000000000000000000000000000000602082015250565b600061429a602f83612e2b565b91506142a58261423e565b604082019050919050565b600060208201905081810360008301526142c98161428d565b9050919050565b7f4e487b7100000000000000000000000000000000000000000000000000000000600052603260045260246000fd5b60008190508160005260206000209050919050565b6000815461432181614024565b61432b8186612e2b565b9450600182166000811461434657600181146143585761438b565b60ff198316865260208601935061438b565b614361856142ff565b60005b8381101561438357815481890152600182019150602081019050614364565b808801955050505b50505092915050565b60008190508160005260206000209050919050565b600081546143b681614024565b6143c08186613e93565b945060018216600081146143db57600181146143ed57614420565b60ff1983168652602086019350614420565b6143f685614394565b60005b83811015614418578154818901526001820191506020810190506143f9565b808801955050505b50505092915050565b600060a08201905061443e6000830188612d4e565b61444b6020830187612d0d565b818103604083015261445d8186614314565b9050818103606083015261447181856143a9565b90506144806080830184612d0d565b9695505050505050565b7f4e487b7100000000000000000000000000000000000000000000000000000000600052601160045260246000fd5b60006144c482612caa565b91507fffffffffffffffffffffffffffffffffffffffffffffffffffffffffffffffff8214156144f7576144f661448a565b5b600182019050919050565b60006080820190506145176000830187613024565b6145246020830186613024565b6145316040830185612d0d565b61453e6060830184612d4e565b95945050505050565b600060608201905061455c6000830186613024565b6145696020830185612d0d565b6145766040830184612d69565b949350505050565b600081905092915050565b7f1901000000000000000000000000000000000000000000000000000000000000600082015250565b60006145bf60028361457e565b91506145ca82614589565b600282019050919050565b6000819050919050565b6145f06145eb8261301a565b6145d5565b82525050565b6000614601826145b2565b915061460d82856145df565b60208201915061461d82846145df565b6020820191508190509392505050565b6146368161353b565b82525050565b60006080820190506146516000830187613024565b61465e602083018661462d565b61466b6040830185613024565b6146786060830184613024565b95945050505050565b7f476f7665726e6f72416c7068613a3a63617374566f746542795369673a20696e60008201527f76616c6964207369676e61747572650000000000000000000000000000000000602082015250565b60006146dd602f83612e2b565b91506146e882614681565b604082019050919050565b6000602082019050818103600083015261470c816146d0565b9050919050565b7f476f7665726e6f72416c7068613a3a5f5f61626469636174653a2073656e646560008201527f72206d75737420626520676f7620677561726469616e00000000000000000000602082015250565b600061476f603683612e2b565b915061477a82614713565b604082019050919050565b6000602082019050818103600083015261479e81614762565b9050919050565b7f476f7665726e6f72416c7068613a3a5f5f717565756553657454696d656c6f6360008201527f6b50656e64696e6741646d696e3a2073656e646572206d75737420626520676f60208201527f7620677561726469616e00000000000000000000000000000000000000000000604082015250565b6000614827604a83612e2b565b9150614832826147a5565b606082019050919050565b600060208201905081810360008301526148568161481a565b9050919050565b60008151905061486c81613574565b92915050565b60006020828403121561488857614887612ca0565b5b60006148968482850161485d565b91505092915050565b7f476f7665726e6f72416c7068613a3a5f5f61636365707441646d696e3a20736560008201527f6e646572206d75737420626520676f7620677561726469616e00000000000000602082015250565b60006148fb603983612e2b565b91506149068261489f565b604082019050919050565b6000602082019050818103600083015261492a816148ee565b9050919050565b7f476f7665726e6f72416c7068613a3a70726f706f73653a2070726f706f73657260008201527f20766f7465732062656c6f772070726f706f73616c207468726573686f6c6400602082015250565b600061498d603f83612e2b565b915061499882614931565b604082019050919050565b600060208201905081810360008301526149bc81614980565b9050919050565b7f476f7665726e6f72416c7068613a3a70726f706f73653a2070726f706f73616c60008201527f2066756e6374696f6e20696e666f726d6174696f6e206172697479206d69736d60208201527f6174636800000000000000000000000000000000000000000000000000000000604082015250565b6000614a45604483612e2b565b9150614a50826149c3565b606082019050919050565b60006020820190508181036000830152614a7481614a38565b9050919050565b7f476f7665726e6f72416c7068613a3a70726f706f73653a206d7573742070726f60008201527f7669646520616374696f6e730000000000000000000000000000000000000000602082015250565b6000614ad7602c83612e2b565b9150614ae282614a7b565b604082019050919050565b60006020820190508181036000830152614b0681614aca565b9050919050565b7f476f7665726e6f72416c7068613a3a70726f706f73653a20746f6f206d616e7960008201527f20616374696f6e73000000000000000000000000000000000000000000000000602082015250565b6000614b69602883612e2b565b9150614b7482614b0d565b604082019050919050565b60006020820190508181036000830152614b9881614b5c565b9050919050565b7f476f7665726e6f72416c7068613a3a70726f706f73653a206f6e65206c69766560008201527f2070726f706f73616c207065722070726f706f7365722c20666f756e6420616e60208201527f20616c7265616479206163746976652070726f706f73616c0000000000000000604082015250565b6000614c21605883612e2b565b9150614c2c82614b9f565b606082019050919050565b60006020820190508181036000830152614c5081614c14565b9050919050565b7f476f7665726e6f72416c7068613a3a70726f706f73653a206f6e65206c69766560008201527f2070726f706f73616c207065722070726f706f7365722c20666f756e6420616e60208201527f20616c72656164792070656e64696e672070726f706f73616c00000000000000604082015250565b6000614cd9605983612e2b565b9150614ce482614c57565b606082019050919050565b60006020820190508181036000830152614d0881614ccc565b9050919050565b7f476f7665726e6f72416c7068613a3a70726f706f73653a2050726f706f73616c60008201527f494420636f6c6c73696f6e000000000000000000000000000000000000000000602082015250565b6000614d6b602b83612e2b565b9150614d7682614d0f565b604082019050919050565b60006020820190508181036000830152614d9a81614d5e565b9050919050565b600061012082019050614db7600083018c612d0d565b614dc4602083018b612d4e565b8181036040830152614dd6818a6130ee565b90508181036060830152614dea81896131ac565b90508181036080830152614dfe81886132a1565b905081810360a0830152614e1281876133b8565b9050614e2160c0830186612d0d565b614e2e60e0830185612d0d565b818103610100830152614e418184612e80565b90509a9950505050505050505050565b7f476f7665726e6f72416c7068613a3a71756575653a2070726f706f73616c206360008201527f616e206f6e6c792062652071756575656420696620697420697320737563636560208201527f6564656400000000000000000000000000000000000000000000000000000000604082015250565b6000614ed3604483612e2b565b9150614ede82614e51565b606082019050919050565b60006020820190508181036000830152614f0281614ec6565b9050919050565b6000604082019050614f1e6000830185612d0d565b614f2b6020830184612d0d565b9392505050565b7f476f7665726e6f72416c7068613a3a657865637574653a2070726f706f73616c60008201527f2063616e206f6e6c79206265206578656375746564206966206974206973207160208201527f7565756564000000000000000000000000000000000000000000000000000000604082015250565b6000614fb4604583612e2b565b9150614fbf82614f32565b606082019050919050565b60006020820190508181036000830152614fe381614fa7565b9050919050565b7f476f7665726e6f72416c7068613a3a5f63617374566f74653a20766f74696e6760008201527f20697320636c6f73656400000000000000000000000000000000000000000000602082015250565b6000615046602a83612e2b565b915061505182614fea565b604082019050919050565b6000602082019050818103600083015261507581615039565b9050919050565b7f476f7665726e6f72416c7068613a3a5f63617374566f74653a20766f7465722060008201527f616c726561647920766f74656400000000000000000000000000000000000000602082015250565b60006150d8602d83612e2b565b91506150e38261507c565b604082019050919050565b60006020820190508181036000830152615107816150cb565b9050919050565b600061512961512461511f84613cd0565b612edb565b612caa565b9050919050565b6151398161510e565b82525050565b60006080820190506151546000830187612d4e565b6151616020830186612d0d565b61516e6040830185612d69565b61517b6060830184615130565b95945050505050565b600061518f82612caa565b915061519a83612caa565b9250827fffffffffffffffffffffffffffffffffffffffffffffffffffffffffffffffff038211156151cf576151ce61448a565b5b828201905092915050565b7f6164646974696f6e206f766572666c6f77000000000000000000000000000000600082015250565b6000615210601183612e2b565b915061521b826151da565b602082019050919050565b6000602082019050818103600083015261523f81615203565b9050919050565b7f7375627472616374696f6e20756e646572666c6f770000000000000000000000600082015250565b600061527c601583612e2b565b915061528782615246565b602082019050919050565b600060208201905081810360008301526152ab8161526f565b9050919050565b60006152bd82612caa565b91506152c883612caa565b9250828210156152db576152da61448a565b5b828203905092915050565b600060a0820190506152fb6000830188612d4e565b6153086020830187612d0d565b818103604083015261531a8186612e80565b9050818103606083015261532e8185613ea4565b905061533d6080830184612d0d565b9695505050505050565b60008151905061535681612f55565b92915050565b60006020828403121561537257615371612ca0565b5b600061538084828501615347565b91505092915050565b7f476f7665726e6f72416c7068613a3a5f71756575654f725265766572743a207060008201527f726f706f73616c20616374696f6e20616c72656164792071756575656420617460208201527f2065746100000000000000000000000000000000000000000000000000000000604082015250565b600061540b604483612e2b565b915061541682615389565b606082019050919050565b6000602082019050818103600083015261543a816153fe565b905091905056fea26469706673582212202f35637f228d601c46be28790c87260e8ba8b6ececa1c294c29cd5cb41b7fd8464736f6c634300080a0033",
  "linkReferences": {},
  "deployedLinkReferences": {}
}