{
  "_format": "hh-sol-artifact-1",
  "contractName": "JumpRateModel",
  "sourceName": "contracts/JumpRateModel.sol",
  "abi": [
    {
      "inputs": [
        {
          "internalType": "uint256",
          "name": "baseRatePerYear",
          "type": "uint256"
        },
        {
          "internalType": "uint256",
          "name": "multiplierPerYear",
          "type": "uint256"
        },
        {
          "internalType": "uint256",
          "name": "jumpMultiplierPerYear",
          "type": "uint256"
        },
        {
          "internalType": "uint256",
          "name": "kink_",
          "type": "uint256"
        }
      ],
      "stateMutability": "nonpayable",
      "type": "constructor"
    },
    {
      "anonymous": false,
      "inputs": [
        {
          "indexed": false,
          "internalType": "uint256",
          "name": "baseRatePerBlock",
          "type": "uint256"
        },
        {
          "indexed": false,
          "internalType": "uint256",
          "name": "multiplierPerBlock",
          "type": "uint256"
        },
        {
          "indexed": false,
          "internalType": "uint256",
          "name": "jumpMultiplierPerBlock",
          "type": "uint256"
        },
        {
          "indexed": false,
          "internalType": "uint256",
          "name": "kink",
          "type": "uint256"
        }
      ],
      "name": "NewInterestParams",
      "type": "event"
    },
    {
      "inputs": [],
      "name": "baseRatePerBlock",
      "outputs": [
        {
          "internalType": "uint256",
          "name": "",
          "type": "uint256"
        }
      ],
      "stateMutability": "view",
      "type": "function"
    },
    {
      "inputs": [],
      "name": "blocksPerYear",
      "outputs": [
        {
          "internalType": "uint256",
          "name": "",
          "type": "uint256"
        }
      ],
      "stateMutability": "view",
      "type": "function"
    },
    {
      "inputs": [
        {
          "internalType": "uint256",
          "name": "cash",
          "type": "uint256"
        },
        {
          "internalType": "uint256",
          "name": "borrows",
          "type": "uint256"
        },
        {
          "internalType": "uint256",
          "name": "reserves",
          "type": "uint256"
        }
      ],
      "name": "getBorrowRate",
      "outputs": [
        {
          "internalType": "uint256",
          "name": "",
          "type": "uint256"
        }
      ],
      "stateMutability": "view",
      "type": "function"
    },
    {
      "inputs": [
        {
          "internalType": "uint256",
          "name": "cash",
          "type": "uint256"
        },
        {
          "internalType": "uint256",
          "name": "borrows",
          "type": "uint256"
        },
        {
          "internalType": "uint256",
          "name": "reserves",
          "type": "uint256"
        },
        {
          "internalType": "uint256",
          "name": "reserveFactorMantissa",
          "type": "uint256"
        }
      ],
      "name": "getSupplyRate",
      "outputs": [
        {
          "internalType": "uint256",
          "name": "",
          "type": "uint256"
        }
      ],
      "stateMutability": "view",
      "type": "function"
    },
    {
      "inputs": [],
      "name": "isInterestRateModel",
      "outputs": [
        {
          "internalType": "bool",
          "name": "",
          "type": "bool"
        }
      ],
      "stateMutability": "view",
      "type": "function"
    },
    {
      "inputs": [],
      "name": "jumpMultiplierPerBlock",
      "outputs": [
        {
          "internalType": "uint256",
          "name": "",
          "type": "uint256"
        }
      ],
      "stateMutability": "view",
      "type": "function"
    },
    {
      "inputs": [],
      "name": "kink",
      "outputs": [
        {
          "internalType": "uint256",
          "name": "",
          "type": "uint256"
        }
      ],
      "stateMutability": "view",
      "type": "function"
    },
    {
      "inputs": [],
      "name": "multiplierPerBlock",
      "outputs": [
        {
          "internalType": "uint256",
          "name": "",
          "type": "uint256"
        }
      ],
      "stateMutability": "view",
      "type": "function"
    },
    {
      "inputs": [
        {
          "internalType": "uint256",
          "name": "cash",
          "type": "uint256"
        },
        {
          "internalType": "uint256",
          "name": "borrows",
          "type": "uint256"
        },
        {
          "internalType": "uint256",
          "name": "reserves",
          "type": "uint256"
        }
      ],
      "name": "utilizationRate",
      "outputs": [
        {
          "internalType": "uint256",
          "name": "",
          "type": "uint256"
        }
      ],
      "stateMutability": "pure",
      "type": "function"
    }
  ],
  "bytecode": "0x60806040523480156200001157600080fd5b50604051620008fa380380620008fa833981810160405281019062000037919062000114565b6220148084620000489190620001b5565b60018190555062201480836200005f9190620001b5565b6000819055506220148082620000769190620001b5565b600281905550806003819055507f6960ab234c7ef4b0c9197100f5393cfcde7c453ac910a27bd2000aa1dd4c068d600154600054600254600354604051620000c29493929190620001fe565b60405180910390a1505050506200024b565b600080fd5b6000819050919050565b620000ee81620000d9565b8114620000fa57600080fd5b50565b6000815190506200010e81620000e3565b92915050565b60008060008060808587031215620001315762000130620000d4565b5b60006200014187828801620000fd565b94505060206200015487828801620000fd565b93505060406200016787828801620000fd565b92505060606200017a87828801620000fd565b91505092959194509250565b7f4e487b7100000000000000000000000000000000000000000000000000000000600052601260045260246000fd5b6000620001c282620000d9565b9150620001cf83620000d9565b925082620001e257620001e162000186565b5b828204905092915050565b620001f881620000d9565b82525050565b6000608082019050620002156000830187620001ed565b620002246020830186620001ed565b620002336040830185620001ed565b620002426060830184620001ed565b95945050505050565b61069f806200025b6000396000f3fe608060405234801561001057600080fd5b50600436106100935760003560e01c8063a385fb9611610066578063a385fb9614610134578063b816881614610152578063b9f9850a14610182578063f14039de146101a0578063fd2da339146101be57610093565b806315f24053146100985780632191f92a146100c85780636e71e2d8146100e65780638726bb8914610116575b600080fd5b6100b260048036038101906100ad91906103dc565b6101dc565b6040516100bf919061043e565b60405180910390f35b6100d06102aa565b6040516100dd9190610474565b60405180910390f35b61010060048036038101906100fb91906103dc565b6102af565b60405161010d919061043e565b60405180910390f35b61011e610301565b60405161012b919061043e565b60405180910390f35b61013c610307565b604051610149919061043e565b60405180910390f35b61016c6004803603810190610167919061048f565b61030e565b604051610179919061043e565b60405180910390f35b61018a61038f565b604051610197919061043e565b60405180910390f35b6101a8610395565b6040516101b5919061043e565b60405180910390f35b6101c661039b565b6040516101d3919061043e565b60405180910390f35b6000806101ea8585856102af565b9050600354811161022b57600154670de0b6b3a76400006000548361020f9190610525565b61021991906105ae565b61022391906105df565b9150506102a3565b6000600154670de0b6b3a76400006000546003546102499190610525565b61025391906105ae565b61025d91906105df565b905060006003548361026f9190610635565b905081670de0b6b3a7640000600254836102899190610525565b61029391906105ae565b61029d91906105df565b93505050505b9392505050565b600181565b6000808314156102c257600090506102fa565b8183856102cf91906105df565b6102d99190610635565b670de0b6b3a7640000846102ed9190610525565b6102f791906105ae565b90505b9392505050565b60005481565b6220148081565b60008082670de0b6b3a76400006103259190610635565b905060006103348787876101dc565b90506000670de0b6b3a7640000838361034d9190610525565b61035791906105ae565b9050670de0b6b3a76400008161036e8a8a8a6102af565b6103789190610525565b61038291906105ae565b9350505050949350505050565b60025481565b60015481565b60035481565b600080fd5b6000819050919050565b6103b9816103a6565b81146103c457600080fd5b50565b6000813590506103d6816103b0565b92915050565b6000806000606084860312156103f5576103f46103a1565b5b6000610403868287016103c7565b9350506020610414868287016103c7565b9250506040610425868287016103c7565b9150509250925092565b610438816103a6565b82525050565b6000602082019050610453600083018461042f565b92915050565b60008115159050919050565b61046e81610459565b82525050565b60006020820190506104896000830184610465565b92915050565b600080600080608085870312156104a9576104a86103a1565b5b60006104b7878288016103c7565b94505060206104c8878288016103c7565b93505060406104d9878288016103c7565b92505060606104ea878288016103c7565b91505092959194509250565b7f4e487b7100000000000000000000000000000000000000000000000000000000600052601160045260246000fd5b6000610530826103a6565b915061053b836103a6565b9250817fffffffffffffffffffffffffffffffffffffffffffffffffffffffffffffffff0483118215151615610574576105736104f6565b5b828202905092915050565b7f4e487b7100000000000000000000000000000000000000000000000000000000600052601260045260246000fd5b60006105b9826103a6565b91506105c4836103a6565b9250826105d4576105d361057f565b5b828204905092915050565b60006105ea826103a6565b91506105f5836103a6565b9250827fffffffffffffffffffffffffffffffffffffffffffffffffffffffffffffffff0382111561062a576106296104f6565b5b828201905092915050565b6000610640826103a6565b915061064b836103a6565b92508282101561065e5761065d6104f6565b5b82820390509291505056fea2646970667358221220f467a2c6b1b73ca1d91d549a9e1280fb42233952c6c5f73a82fa3f1d43e51e1364736f6c634300080a0033",
  "linkReferences": {},
  "deployedLinkReferences": {}
}