{
  "_format": "hh-sol-artifact-1",
  "contractName": "Maximillion",
  "sourceName": "contracts/Maximillion.sol",
  "abi": [
    {
      "inputs": [
        {
          "internalType": "contract CEther",
          "name": "cEther_",
          "type": "address"
        }
      ],
      "stateMutability": "nonpayable",
      "type": "constructor"
    },
    {
      "inputs": [],
      "name": "cEther",
      "outputs": [
        {
          "internalType": "contract CEther",
          "name": "",
          "type": "address"
        }
      ],
      "stateMutability": "view",
      "type": "function"
    },
    {
      "inputs": [
        {
          "internalType": "address",
          "name": "borrower",
          "type": "address"
        }
      ],
      "name": "repayBehalf",
      "outputs": [],
      "stateMutability": "payable",
      "type": "function"
    },
    {
      "inputs": [
        {
          "internalType": "address",
          "name": "borrower",
          "type": "address"
        },
        {
          "internalType": "contract CEther",
          "name": "cEther_",
          "type": "address"
        }
      ],
      "name": "repayBehalfExplicit",
      "outputs": [],
      "stateMutability": "payable",
      "type": "function"
    }
  ],
  "bytecode": "0x608060405234801561001057600080fd5b50604051610699380380610699833981810160405281019061003291906100ed565b806000806101000a81548173ffffffffffffffffffffffffffffffffffffffff021916908373ffffffffffffffffffffffffffffffffffffffff1602179055505061011a565b600080fd5b600073ffffffffffffffffffffffffffffffffffffffff82169050919050565b60006100a88261007d565b9050919050565b60006100ba8261009d565b9050919050565b6100ca816100af565b81146100d557600080fd5b50565b6000815190506100e7816100c1565b92915050565b60006020828403121561010357610102610078565b5b6000610111848285016100d8565b91505092915050565b610570806101296000396000f3fe6080604052600436106100345760003560e01c806319b68c0014610039578063367b7f05146100645780639f35c3d514610080575b600080fd5b34801561004557600080fd5b5061004e61009c565b60405161005b919061032f565b60405180910390f35b61007e600480360381019061007991906103dd565b6100c0565b005b61009a6004803603810190610095919061041d565b610283565b005b60008054906101000a900473ffffffffffffffffffffffffffffffffffffffff1681565b600034905060008273ffffffffffffffffffffffffffffffffffffffff166317bfdfbc856040518263ffffffff1660e01b81526004016101009190610459565b6020604051808303816000875af115801561011f573d6000803e3d6000fd5b505050506040513d601f19601f8201168201806040525081019061014391906104aa565b905080821115610210578273ffffffffffffffffffffffffffffffffffffffff1663e597461982866040518363ffffffff1660e01b81526004016101879190610459565b6000604051808303818588803b1580156101a057600080fd5b505af11580156101b4573d6000803e3d6000fd5b50505050503373ffffffffffffffffffffffffffffffffffffffff166108fc82846101df9190610506565b9081150290604051600060405180830381858888f1935050505015801561020a573d6000803e3d6000fd5b5061027d565b8273ffffffffffffffffffffffffffffffffffffffff1663e597461983866040518363ffffffff1660e01b815260040161024a9190610459565b6000604051808303818588803b15801561026357600080fd5b505af1158015610277573d6000803e3d6000fd5b50505050505b50505050565b6102ad8160008054906101000a900473ffffffffffffffffffffffffffffffffffffffff166100c0565b50565b600073ffffffffffffffffffffffffffffffffffffffff82169050919050565b6000819050919050565b60006102f56102f06102eb846102b0565b6102d0565b6102b0565b9050919050565b6000610307826102da565b9050919050565b6000610319826102fc565b9050919050565b6103298161030e565b82525050565b60006020820190506103446000830184610320565b92915050565b600080fd5b600061035a826102b0565b9050919050565b61036a8161034f565b811461037557600080fd5b50565b60008135905061038781610361565b92915050565b6000610398826102b0565b9050919050565b60006103aa8261038d565b9050919050565b6103ba8161039f565b81146103c557600080fd5b50565b6000813590506103d7816103b1565b92915050565b600080604083850312156103f4576103f361034a565b5b600061040285828601610378565b9250506020610413858286016103c8565b9150509250929050565b6000602082840312156104335761043261034a565b5b600061044184828501610378565b91505092915050565b6104538161034f565b82525050565b600060208201905061046e600083018461044a565b92915050565b6000819050919050565b61048781610474565b811461049257600080fd5b50565b6000815190506104a48161047e565b92915050565b6000602082840312156104c0576104bf61034a565b5b60006104ce84828501610495565b91505092915050565b7f4e487b7100000000000000000000000000000000000000000000000000000000600052601160045260246000fd5b600061051182610474565b915061051c83610474565b92508282101561052f5761052e6104d7565b5b82820390509291505056fea26469706673582212208a39874ae2180022b78fd4b96715e12d9e59c84a6c317485b31e04786fba143564736f6c634300080a0033",
  "linkReferences": {},
  "deployedLinkReferences": {}
}