{
  "_format": "hh-sol-artifact-1",
  "contractName": "Reservoir",
  "sourceName": "contracts/Reservoir.sol",
  "abi": [
    {
      "inputs": [
        {
          "internalType": "uint256",
          "name": "dripRate_",
          "type": "uint256"
        },
        {
          "internalType": "contract EIP20Interface",
          "name": "token_",
          "type": "address"
        },
        {
          "internalType": "address",
          "name": "target_",
          "type": "address"
        }
      ],
      "stateMutability": "nonpayable",
      "type": "constructor"
    },
    {
      "inputs": [],
      "name": "drip",
      "outputs": [
        {
          "internalType": "uint256",
          "name": "",
          "type": "uint256"
        }
      ],
      "stateMutability": "nonpayable",
      "type": "function"
    },
    {
      "inputs": [],
      "name": "dripRate",
      "outputs": [
        {
          "internalType": "uint256",
          "name": "",
          "type": "uint256"
        }
      ],
      "stateMutability": "view",
      "type": "function"
    },
    {
      "inputs": [],
      "name": "dripStart",
      "outputs": [
        {
          "internalType": "uint256",
          "name": "",
          "type": "uint256"
        }
      ],
      "stateMutability": "view",
      "type": "function"
    },
    {
      "inputs": [],
      "name": "dripped",
      "outputs": [
        {
          "internalType": "uint256",
          "name": "",
          "type": "uint256"
        }
      ],
      "stateMutability": "view",
      "type": "function"
    },
    {
      "inputs": [],
      "name": "target",
      "outputs": [
        {
          "internalType": "address",
          "name": "",
          "type": "address"
        }
      ],
      "stateMutability": "view",
      "type": "function"
    },
    {
      "inputs": [],
      "name": "token",
      "outputs": [
        {
          "internalType": "contract EIP20Interface",
          "name": "",
          "type": "address"
        }
      ],
      "stateMutability": "view",
      "type": "function"
    }
  ],
  "bytecode": "0x60806040523480156200001157600080fd5b5060405162000b0338038062000b038339818101604052810190620000379190620001c2565b436000819055508260018190555081600260006101000a81548173ffffffffffffffffffffffffffffffffffffffff021916908373ffffffffffffffffffffffffffffffffffffffff16021790555080600360006101000a81548173ffffffffffffffffffffffffffffffffffffffff021916908373ffffffffffffffffffffffffffffffffffffffff16021790555060006004819055505050506200021e565b600080fd5b6000819050919050565b620000f281620000dd565b8114620000fe57600080fd5b50565b6000815190506200011281620000e7565b92915050565b600073ffffffffffffffffffffffffffffffffffffffff82169050919050565b6000620001458262000118565b9050919050565b6000620001598262000138565b9050919050565b6200016b816200014c565b81146200017757600080fd5b50565b6000815190506200018b8162000160565b92915050565b6200019c8162000138565b8114620001a857600080fd5b50565b600081519050620001bc8162000191565b92915050565b600080600060608486031215620001de57620001dd620000d8565b5b6000620001ee8682870162000101565b935050602062000201868287016200017a565b92505060406200021486828701620001ab565b9150509250925092565b6108d5806200022e6000396000f3fe608060405234801561001057600080fd5b50600436106100625760003560e01c806388a91a8a1461006757806395f632b3146100855780639f678cca146100a3578063d3261592146100c1578063d4b83992146100df578063fc0c546a146100fd575b600080fd5b61006f61011b565b60405161007c9190610544565b60405180910390f35b61008d610121565b60405161009a9190610544565b60405180910390f35b6100ab610127565b6040516100b89190610544565b60405180910390f35b6100c9610389565b6040516100d69190610544565b60405180910390f35b6100e761038f565b6040516100f491906105a0565b60405180910390f35b6101056103b5565b604051610112919061061a565b60405180910390f35b60005481565b60045481565b600080600260009054906101000a900473ffffffffffffffffffffffffffffffffffffffff16905060008173ffffffffffffffffffffffffffffffffffffffff166370a08231306040518263ffffffff1660e01b815260040161018a91906105a0565b602060405180830381865afa1580156101a7573d6000803e3d6000fd5b505050506040513d601f19601f820116820180604052508101906101cb9190610666565b905060006001549050600080549050600060045490506000600360009054906101000a900473ffffffffffffffffffffffffffffffffffffffff1690506000439050600061025a86868461021f91906106c2565b6040518060400160405280601281526020017f64726970546f74616c206f766572666c6f7700000000000000000000000000008152506103db565b9050600061029e82866040518060400160405280601381526020017f64656c74614472697020756e646572666c6f7700000000000000000000000000815250610452565b905060006102ac89836104b6565b905060006102f087836040518060400160405280600c81526020017f746175746f6c6f676963616c00000000000000000000000000000000000000008152506104d1565b9050806004819055508a73ffffffffffffffffffffffffffffffffffffffff1663a9059cbb87846040518363ffffffff1660e01b81526004016103349291906106f6565b6020604051808303816000875af1158015610353573d6000803e3d6000fd5b505050506040513d601f19601f820116820180604052508101906103779190610757565b50819b50505050505050505050505090565b60015481565b600360009054906101000a900473ffffffffffffffffffffffffffffffffffffffff1681565b600260009054906101000a900473ffffffffffffffffffffffffffffffffffffffff1681565b6000808414156103ee576000905061044b565b6000838502905083858261040291906107b3565b148390610445576040517f08c379a000000000000000000000000000000000000000000000000000000000815260040161043c919061087d565b60405180910390fd5b50809150505b9392505050565b600083831115829061049a576040517f08c379a0000000000000000000000000000000000000000000000000000000008152600401610491919061087d565b60405180910390fd5b50600083856104a991906106c2565b9050809150509392505050565b60008183116104c7578290506104cb565b8190505b92915050565b600080838501905084811015839061051f576040517f08c379a0000000000000000000000000000000000000000000000000000000008152600401610516919061087d565b60405180910390fd5b50809150509392505050565b6000819050919050565b61053e8161052b565b82525050565b60006020820190506105596000830184610535565b92915050565b600073ffffffffffffffffffffffffffffffffffffffff82169050919050565b600061058a8261055f565b9050919050565b61059a8161057f565b82525050565b60006020820190506105b56000830184610591565b92915050565b6000819050919050565b60006105e06105db6105d68461055f565b6105bb565b61055f565b9050919050565b60006105f2826105c5565b9050919050565b6000610604826105e7565b9050919050565b610614816105f9565b82525050565b600060208201905061062f600083018461060b565b92915050565b600080fd5b6106438161052b565b811461064e57600080fd5b50565b6000815190506106608161063a565b92915050565b60006020828403121561067c5761067b610635565b5b600061068a84828501610651565b91505092915050565b7f4e487b7100000000000000000000000000000000000000000000000000000000600052601160045260246000fd5b60006106cd8261052b565b91506106d88361052b565b9250828210156106eb576106ea610693565b5b828203905092915050565b600060408201905061070b6000830185610591565b6107186020830184610535565b9392505050565b60008115159050919050565b6107348161071f565b811461073f57600080fd5b50565b6000815190506107518161072b565b92915050565b60006020828403121561076d5761076c610635565b5b600061077b84828501610742565b91505092915050565b7f4e487b7100000000000000000000000000000000000000000000000000000000600052601260045260246000fd5b60006107be8261052b565b91506107c98361052b565b9250826107d9576107d8610784565b5b828204905092915050565b600081519050919050565b600082825260208201905092915050565b60005b8381101561081e578082015181840152602081019050610803565b8381111561082d576000848401525b50505050565b6000601f19601f8301169050919050565b600061084f826107e4565b61085981856107ef565b9350610869818560208601610800565b61087281610833565b840191505092915050565b600060208201905081810360008301526108978184610844565b90509291505056fea2646970667358221220d7cbe9843b59debc4fa220c350e48ac994d325413278655b0d4c5987e8bd2c0164736f6c634300080a0033",
  "linkReferences": {},
  "deployedLinkReferences": {}
}