{
  "_format": "hh-sol-artifact-1",
  "contractName": "GovernorBravoDelegate",
  "sourceName": "contracts/Governance/GovernorBravoDelegateG1.sol",
  "abi": [
    {
      "anonymous": false,
      "inputs": [
        {
          "indexed": false,
          "internalType": "address",
          "name": "oldAdmin",
          "type": "address"
        },
        {
          "indexed": false,
          "internalType": "address",
          "name": "newAdmin",
          "type": "address"
        }
      ],
      "name": "NewAdmin",
      "type": "event"
    },
    {
      "anonymous": false,
      "inputs": [
        {
          "indexed": false,
          "internalType": "address",
          "name": "oldImplementation",
          "type": "address"
        },
        {
          "indexed": false,
          "internalType": "address",
          "name": "newImplementation",
          "type": "address"
        }
      ],
      "name": "NewImplementation",
      "type": "event"
    },
    {
      "anonymous": false,
      "inputs": [
        {
          "indexed": false,
          "internalType": "address",
          "name": "oldPendingAdmin",
          "type": "address"
        },
        {
          "indexed": false,
          "internalType": "address",
          "name": "newPendingAdmin",
          "type": "address"
        }
      ],
      "name": "NewPendingAdmin",
      "type": "event"
    },
    {
      "anonymous": false,
      "inputs": [
        {
          "indexed": false,
          "internalType": "uint256",
          "name": "id",
          "type": "uint256"
        }
      ],
      "name": "ProposalCanceled",
      "type": "event"
    },
    {
      "anonymous": false,
      "inputs": [
        {
          "indexed": false,
          "internalType": "uint256",
          "name": "id",
          "type": "uint256"
        },
        {
          "indexed": false,
          "internalType": "address",
          "name": "proposer",
          "type": "address"
        },
        {
          "indexed": false,
          "internalType": "address[]",
          "name": "targets",
          "type": "address[]"
        },
        {
          "indexed": false,
          "internalType": "uint256[]",
          "name": "values",
          "type": "uint256[]"
        },
        {
          "indexed": false,
          "internalType": "string[]",
          "name": "signatures",
          "type": "string[]"
        },
        {
          "indexed": false,
          "internalType": "bytes[]",
          "name": "calldatas",
          "type": "bytes[]"
        },
        {
          "indexed": false,
          "internalType": "uint256",
          "name": "startBlock",
          "type": "uint256"
        },
        {
          "indexed": false,
          "internalType": "uint256",
          "name": "endBlock",
          "type": "uint256"
        },
        {
          "indexed": false,
          "internalType": "string",
          "name": "description",
          "type": "string"
        }
      ],
      "name": "ProposalCreated",
      "type": "event"
    },
    {
      "anonymous": false,
      "inputs": [
        {
          "indexed": false,
          "internalType": "uint256",
          "name": "id",
          "type": "uint256"
        }
      ],
      "name": "ProposalExecuted",
      "type": "event"
    },
    {
      "anonymous": false,
      "inputs": [
        {
          "indexed": false,
          "internalType": "uint256",
          "name": "id",
          "type": "uint256"
        },
        {
          "indexed": false,
          "internalType": "uint256",
          "name": "eta",
          "type": "uint256"
        }
      ],
      "name": "ProposalQueued",
      "type": "event"
    },
    {
      "anonymous": false,
      "inputs": [
        {
          "indexed": false,
          "internalType": "uint256",
          "name": "oldProposalThreshold",
          "type": "uint256"
        },
        {
          "indexed": false,
          "internalType": "uint256",
          "name": "newProposalThreshold",
          "type": "uint256"
        }
      ],
      "name": "ProposalThresholdSet",
      "type": "event"
    },
    {
      "anonymous": false,
      "inputs": [
        {
          "indexed": true,
          "internalType": "address",
          "name": "voter",
          "type": "address"
        },
        {
          "indexed": false,
          "internalType": "uint256",
          "name": "proposalId",
          "type": "uint256"
        },
        {
          "indexed": false,
          "internalType": "uint8",
          "name": "support",
          "type": "uint8"
        },
        {
          "indexed": false,
          "internalType": "uint256",
          "name": "votes",
          "type": "uint256"
        },
        {
          "indexed": false,
          "internalType": "string",
          "name": "reason",
          "type": "string"
        }
      ],
      "name": "VoteCast",
      "type": "event"
    },
    {
      "anonymous": false,
      "inputs": [
        {
          "indexed": false,
          "internalType": "uint256",
          "name": "oldVotingDelay",
          "type": "uint256"
        },
        {
          "indexed": false,
          "internalType": "uint256",
          "name": "newVotingDelay",
          "type": "uint256"
        }
      ],
      "name": "VotingDelaySet",
      "type": "event"
    },
    {
      "anonymous": false,
      "inputs": [
        {
          "indexed": false,
          "internalType": "uint256",
          "name": "oldVotingPeriod",
          "type": "uint256"
        },
        {
          "indexed": false,
          "internalType": "uint256",
          "name": "newVotingPeriod",
          "type": "uint256"
        }
      ],
      "name": "VotingPeriodSet",
      "type": "event"
    },
    {
      "anonymous": false,
      "inputs": [
        {
          "indexed": false,
          "internalType": "address",
          "name": "account",
          "type": "address"
        },
        {
          "indexed": false,
          "internalType": "uint256",
          "name": "expiration",
          "type": "uint256"
        }
      ],
      "name": "WhitelistAccountExpirationSet",
      "type": "event"
    },
    {
      "anonymous": false,
      "inputs": [
        {
          "indexed": false,
          "internalType": "address",
          "name": "oldGuardian",
          "type": "address"
        },
        {
          "indexed": false,
          "internalType": "address",
          "name": "newGuardian",
          "type": "address"
        }
      ],
      "name": "WhitelistGuardianSet",
      "type": "event"
    },
    {
      "inputs": [],
      "name": "BALLOT_TYPEHASH",
      "outputs": [
        {
          "internalType": "bytes32",
          "name": "",
          "type": "bytes32"
        }
      ],
      "stateMutability": "view",
      "type": "function"
    },
    {
      "inputs": [],
      "name": "DOMAIN_TYPEHASH",
      "outputs": [
        {
          "internalType": "bytes32",
          "name": "",
          "type": "bytes32"
        }
      ],
      "stateMutability": "view",
      "type": "function"
    },
    {
      "inputs": [],
      "name": "MAX_PROPOSAL_THRESHOLD",
      "outputs": [
        {
          "internalType": "uint256",
          "name": "",
          "type": "uint256"
        }
      ],
      "stateMutability": "view",
      "type": "function"
    },
    {
      "inputs": [],
      "name": "MAX_VOTING_DELAY",
      "outputs": [
        {
          "internalType": "uint256",
          "name": "",
          "type": "uint256"
        }
      ],
      "stateMutability": "view",
      "type": "function"
    },
    {
      "inputs": [],
      "name": "MAX_VOTING_PERIOD",
      "outputs": [
        {
          "internalType": "uint256",
          "name": "",
          "type": "uint256"
        }
      ],
      "stateMutability": "view",
      "type": "function"
    },
    {
      "inputs": [],
      "name": "MIN_PROPOSAL_THRESHOLD",
      "outputs": [
        {
          "internalType": "uint256",
          "name": "",
          "type": "uint256"
        }
      ],
      "stateMutability": "view",
      "type": "function"
    },
    {
      "inputs": [],
      "name": "MIN_VOTING_DELAY",
      "outputs": [
        {
          "internalType": "uint256",
          "name": "",
          "type": "uint256"
        }
      ],
      "stateMutability": "view",
      "type": "function"
    },
    {
      "inputs": [],
      "name": "MIN_VOTING_PERIOD",
      "outputs": [
        {
          "internalType": "uint256",
          "name": "",
          "type": "uint256"
        }
      ],
      "stateMutability": "view",
      "type": "function"
    },
    {
      "inputs": [],
      "name": "_acceptAdmin",
      "outputs": [],
      "stateMutability": "nonpayable",
      "type": "function"
    },
    {
      "inputs": [
        {
          "internalType": "address",
          "name": "governorAlpha",
          "type": "address"
        }
      ],
      "name": "_initiate",
      "outputs": [],
      "stateMutability": "nonpayable",
      "type": "function"
    },
    {
      "inputs": [
        {
          "internalType": "address",
          "name": "newPendingAdmin",
          "type": "address"
        }
      ],
      "name": "_setPendingAdmin",
      "outputs": [],
      "stateMutability": "nonpayable",
      "type": "function"
    },
    {
      "inputs": [
        {
          "internalType": "uint256",
          "name": "newProposalThreshold",
          "type": "uint256"
        }
      ],
      "name": "_setProposalThreshold",
      "outputs": [],
      "stateMutability": "nonpayable",
      "type": "function"
    },
    {
      "inputs": [
        {
          "internalType": "uint256",
          "name": "newVotingDelay",
          "type": "uint256"
        }
      ],
      "name": "_setVotingDelay",
      "outputs": [],
      "stateMutability": "nonpayable",
      "type": "function"
    },
    {
      "inputs": [
        {
          "internalType": "uint256",
          "name": "newVotingPeriod",
          "type": "uint256"
        }
      ],
      "name": "_setVotingPeriod",
      "outputs": [],
      "stateMutability": "nonpayable",
      "type": "function"
    },
    {
      "inputs": [],
      "name": "admin",
      "outputs": [
        {
          "internalType": "address",
          "name": "",
          "type": "address"
        }
      ],
      "stateMutability": "view",
      "type": "function"
    },
    {
      "inputs": [
        {
          "internalType": "uint256",
          "name": "proposalId",
          "type": "uint256"
        }
      ],
      "name": "cancel",
      "outputs": [],
      "stateMutability": "nonpayable",
      "type": "function"
    },
    {
      "inputs": [
        {
          "internalType": "uint256",
          "name": "proposalId",
          "type": "uint256"
        },
        {
          "internalType": "uint8",
          "name": "support",
          "type": "uint8"
        }
      ],
      "name": "castVote",
      "outputs": [],
      "stateMutability": "nonpayable",
      "type": "function"
    },
    {
      "inputs": [
        {
          "internalType": "uint256",
          "name": "proposalId",
          "type": "uint256"
        },
        {
          "internalType": "uint8",
          "name": "support",
          "type": "uint8"
        },
        {
          "internalType": "uint8",
          "name": "v",
          "type": "uint8"
        },
        {
          "internalType": "bytes32",
          "name": "r",
          "type": "bytes32"
        },
        {
          "internalType": "bytes32",
          "name": "s",
          "type": "bytes32"
        }
      ],
      "name": "castVoteBySig",
      "outputs": [],
      "stateMutability": "nonpayable",
      "type": "function"
    },
    {
      "inputs": [
        {
          "internalType": "uint256",
          "name": "proposalId",
          "type": "uint256"
        },
        {
          "internalType": "uint8",
          "name": "support",
          "type": "uint8"
        },
        {
          "internalType": "string",
          "name": "reason",
          "type": "string"
        }
      ],
      "name": "castVoteWithReason",
      "outputs": [],
      "stateMutability": "nonpayable",
      "type": "function"
    },
    {
      "inputs": [],
      "name": "comp",
      "outputs": [
        {
          "internalType": "contract CompInterface",
          "name": "",
          "type": "address"
        }
      ],
      "stateMutability": "view",
      "type": "function"
    },
    {
      "inputs": [
        {
          "internalType": "uint256",
          "name": "proposalId",
          "type": "uint256"
        }
      ],
      "name": "execute",
      "outputs": [],
      "stateMutability": "payable",
      "type": "function"
    },
    {
      "inputs": [
        {
          "internalType": "uint256",
          "name": "proposalId",
          "type": "uint256"
        }
      ],
      "name": "getActions",
      "outputs": [
        {
          "internalType": "address[]",
          "name": "targets",
          "type": "address[]"
        },
        {
          "internalType": "uint256[]",
          "name": "values",
          "type": "uint256[]"
        },
        {
          "internalType": "string[]",
          "name": "signatures",
          "type": "string[]"
        },
        {
          "internalType": "bytes[]",
          "name": "calldatas",
          "type": "bytes[]"
        }
      ],
      "stateMutability": "view",
      "type": "function"
    },
    {
      "inputs": [
        {
          "internalType": "uint256",
          "name": "proposalId",
          "type": "uint256"
        },
        {
          "internalType": "address",
          "name": "voter",
          "type": "address"
        }
      ],
      "name": "getReceipt",
      "outputs": [
        {
          "components": [
            {
              "internalType": "bool",
              "name": "hasVoted",
              "type": "bool"
            },
            {
              "internalType": "uint8",
              "name": "support",
              "type": "uint8"
            },
            {
              "internalType": "uint96",
              "name": "votes",
              "type": "uint96"
            }
          ],
          "internalType": "struct GovernorBravoDelegateStorageV1.Receipt",
          "name": "",
          "type": "tuple"
        }
      ],
      "stateMutability": "view",
      "type": "function"
    },
    {
      "inputs": [],
      "name": "implementation",
      "outputs": [
        {
          "internalType": "address",
          "name": "",
          "type": "address"
        }
      ],
      "stateMutability": "view",
      "type": "function"
    },
    {
      "inputs": [],
      "name": "initialProposalId",
      "outputs": [
        {
          "internalType": "uint256",
          "name": "",
          "type": "uint256"
        }
      ],
      "stateMutability": "view",
      "type": "function"
    },
    {
      "inputs": [
        {
          "internalType": "address",
          "name": "timelock_",
          "type": "address"
        },
        {
          "internalType": "address",
          "name": "comp_",
          "type": "address"
        },
        {
          "internalType": "uint256",
          "name": "votingPeriod_",
          "type": "uint256"
        },
        {
          "internalType": "uint256",
          "name": "votingDelay_",
          "type": "uint256"
        },
        {
          "internalType": "uint256",
          "name": "proposalThreshold_",
          "type": "uint256"
        }
      ],
      "name": "initialize",
      "outputs": [],
      "stateMutability": "nonpayable",
      "type": "function"
    },
    {
      "inputs": [
        {
          "internalType": "address",
          "name": "",
          "type": "address"
        }
      ],
      "name": "latestProposalIds",
      "outputs": [
        {
          "internalType": "uint256",
          "name": "",
          "type": "uint256"
        }
      ],
      "stateMutability": "view",
      "type": "function"
    },
    {
      "inputs": [],
      "name": "name",
      "outputs": [
        {
          "internalType": "string",
          "name": "",
          "type": "string"
        }
      ],
      "stateMutability": "view",
      "type": "function"
    },
    {
      "inputs": [],
      "name": "pendingAdmin",
      "outputs": [
        {
          "internalType": "address",
          "name": "",
          "type": "address"
        }
      ],
      "stateMutability": "view",
      "type": "function"
    },
    {
      "inputs": [],
      "name": "proposalCount",
      "outputs": [
        {
          "internalType": "uint256",
          "name": "",
          "type": "uint256"
        }
      ],
      "stateMutability": "view",
      "type": "function"
    },
    {
      "inputs": [],
      "name": "proposalMaxOperations",
      "outputs": [
        {
          "internalType": "uint256",
          "name": "",
          "type": "uint256"
        }
      ],
      "stateMutability": "view",
      "type": "function"
    },
    {
      "inputs": [],
      "name": "proposalThreshold",
      "outputs": [
        {
          "internalType": "uint256",
          "name": "",
          "type": "uint256"
        }
      ],
      "stateMutability": "view",
      "type": "function"
    },
    {
      "inputs": [
        {
          "internalType": "uint256",
          "name": "",
          "type": "uint256"
        }
      ],
      "name": "proposals",
      "outputs": [
        {
          "internalType": "uint256",
          "name": "id",
          "type": "uint256"
        },
        {
          "internalType": "address",
          "name": "proposer",
          "type": "address"
        },
        {
          "internalType": "uint256",
          "name": "eta",
          "type": "uint256"
        },
        {
          "internalType": "uint256",
          "name": "startBlock",
          "type": "uint256"
        },
        {
          "internalType": "uint256",
          "name": "endBlock",
          "type": "uint256"
        },
        {
          "internalType": "uint256",
          "name": "forVotes",
          "type": "uint256"
        },
        {
          "internalType": "uint256",
          "name": "againstVotes",
          "type": "uint256"
        },
        {
          "internalType": "uint256",
          "name": "abstainVotes",
          "type": "uint256"
        },
        {
          "internalType": "bool",
          "name": "canceled",
          "type": "bool"
        },
        {
          "internalType": "bool",
          "name": "executed",
          "type": "bool"
        }
      ],
      "stateMutability": "view",
      "type": "function"
    },
    {
      "inputs": [
        {
          "internalType": "address[]",
          "name": "targets",
          "type": "address[]"
        },
        {
          "internalType": "uint256[]",
          "name": "values",
          "type": "uint256[]"
        },
        {
          "internalType": "string[]",
          "name": "signatures",
          "type": "string[]"
        },
        {
          "internalType": "bytes[]",
          "name": "calldatas",
          "type": "bytes[]"
        },
        {
          "internalType": "string",
          "name": "description",
          "type": "string"
        }
      ],
      "name": "propose",
      "outputs": [
        {
          "internalType": "uint256",
          "name": "",
          "type": "uint256"
        }
      ],
      "stateMutability": "nonpayable",
      "type": "function"
    },
    {
      "inputs": [
        {
          "internalType": "uint256",
          "name": "proposalId",
          "type": "uint256"
        }
      ],
      "name": "queue",
      "outputs": [],
      "stateMutability": "nonpayable",
      "type": "function"
    },
    {
      "inputs": [],
      "name": "quorumVotes",
      "outputs": [
        {
          "internalType": "uint256",
          "name": "",
          "type": "uint256"
        }
      ],
      "stateMutability": "view",
      "type": "function"
    },
    {
      "inputs": [
        {
          "internalType": "uint256",
          "name": "proposalId",
          "type": "uint256"
        }
      ],
      "name": "state",
      "outputs": [
        {
          "internalType": "enum GovernorBravoDelegateStorageV1.ProposalState",
          "name": "",
          "type": "uint8"
        }
      ],
      "stateMutability": "view",
      "type": "function"
    },
    {
      "inputs": [],
      "name": "timelock",
      "outputs": [
        {
          "internalType": "contract TimelockInterface",
          "name": "",
          "type": "address"
        }
      ],
      "stateMutability": "view",
      "type": "function"
    },
    {
      "inputs": [],
      "name": "votingDelay",
      "outputs": [
        {
          "internalType": "uint256",
          "name": "",
          "type": "uint256"
        }
      ],
      "stateMutability": "view",
      "type": "function"
    },
    {
      "inputs": [],
      "name": "votingPeriod",
      "outputs": [
        {
          "internalType": "uint256",
          "name": "",
          "type": "uint256"
        }
      ],
      "stateMutability": "view",
      "type": "function"
    }
  ],
  "bytecode": "0x608060405234801561001057600080fd5b50616a8680620000216000396000f3fe60806040526004361061023b5760003560e01c8063791f5d231161012e578063da95691a116100ab578063e9c714f21161006f578063e9c714f214610885578063f851a4401461089c578063f9d28b80146108c7578063fc4eee42146108f0578063fe0d94c11461091b5761023b565b8063da95691a1461078c578063ddf0b009146107c9578063deaaa7cc146107f2578063e23a9a521461081d578063e48083fe1461085a5761023b565b8063b58131b0116100f2578063b58131b0146106b9578063b71d1a0c146106e4578063d13f90b41461070d578063d33219b414610736578063da35c664146107615761023b565b8063791f5d23146105e45780637b3c71d31461060f5780637bdbe4d014610638578063a64e024a14610663578063b11262631461068e5761023b565b806324bc1a64116101bc5780633bccf4fd116101805780633bccf4fd146105015780633e4f49e61461052a57806340e58ee51461056757806356781388146105905780635c60da1b146105b95761023b565b806324bc1a641461041557806325fd935a14610440578063267822471461046b578063328dd982146104965780633932abb1146104d65761023b565b806317977c611161020357806317977c611461033057806317ba1b8b1461036d5780631dfb1b5a1461039657806320606b70146103bf578063215809ca146103ea5761023b565b8063013cf08b1461024057806302a251a31461028657806306fdde03146102b15780630ea2d98c146102dc578063109d0af814610305575b600080fd5b34801561024c57600080fd5b50610267600480360381019061026291906139b1565b610937565b60405161027d9a99989796959493929190613a49565b60405180910390f35b34801561029257600080fd5b5061029b6109c5565b6040516102a89190613ae5565b60405180910390f35b3480156102bd57600080fd5b506102c66109cb565b6040516102d39190613b99565b60405180910390f35b3480156102e857600080fd5b5061030360048036038101906102fe91906139b1565b610a04565b005b34801561031157600080fd5b5061031a610b33565b6040516103279190613c1a565b60405180910390f35b34801561033c57600080fd5b5061035760048036038101906103529190613c61565b610b59565b6040516103649190613ae5565b60405180910390f35b34801561037957600080fd5b50610394600480360381019061038f91906139b1565b610b71565b005b3480156103a257600080fd5b506103bd60048036038101906103b891906139b1565b610caf565b005b3480156103cb57600080fd5b506103d4610ddc565b6040516103e19190613ca7565b60405180910390f35b3480156103f657600080fd5b506103ff610e00565b60405161040c9190613ae5565b60405180910390f35b34801561042157600080fd5b5061042a610e06565b6040516104379190613ae5565b60405180910390f35b34801561044c57600080fd5b50610455610e14565b6040516104629190613ae5565b60405180910390f35b34801561047757600080fd5b50610480610e22565b60405161048d9190613cc2565b60405180910390f35b3480156104a257600080fd5b506104bd60048036038101906104b891906139b1565b610e48565b6040516104cd949392919061407c565b60405180910390f35b3480156104e257600080fd5b506104eb611105565b6040516104f89190613ae5565b60405180910390f35b34801561050d57600080fd5b5061052860048036038101906105239190614142565b61110b565b005b34801561053657600080fd5b50610551600480360381019061054c91906139b1565b611345565b60405161055e9190614234565b60405180910390f35b34801561057357600080fd5b5061058e600480360381019061058991906139b1565b61151f565b005b34801561059c57600080fd5b506105b760048036038101906105b2919061424f565b6118d1565b005b3480156105c557600080fd5b506105ce611931565b6040516105db9190613cc2565b60405180910390f35b3480156105f057600080fd5b506105f9611957565b6040516106069190613ae5565b60405180910390f35b34801561061b57600080fd5b50610636600480360381019061063191906142f4565b611965565b005b34801561064457600080fd5b5061064d6119cb565b60405161065a9190613ae5565b60405180910390f35b34801561066f57600080fd5b506106786119d0565b6040516106859190613ae5565b60405180910390f35b34801561069a57600080fd5b506106a36119d7565b6040516106b09190613ae5565b60405180910390f35b3480156106c557600080fd5b506106ce6119dd565b6040516106db9190613ae5565b60405180910390f35b3480156106f057600080fd5b5061070b60048036038101906107069190613c61565b6119e3565b005b34801561071957600080fd5b50610734600480360381019061072f9190614368565b611b16565b005b34801561074257600080fd5b5061074b611ebc565b6040516107589190614404565b60405180910390f35b34801561076d57600080fd5b50610776611ee2565b6040516107839190613ae5565b60405180910390f35b34801561079857600080fd5b506107b360048036038101906107ae9190614938565b611ee8565b6040516107c09190613ae5565b60405180910390f35b3480156107d557600080fd5b506107f060048036038101906107eb91906139b1565b6124c4565b005b3480156107fe57600080fd5b50610807612812565b6040516108149190613ca7565b60405180910390f35b34801561082957600080fd5b50610844600480360381019061083f9190614a3f565b612836565b6040516108519190614b06565b60405180910390f35b34801561086657600080fd5b5061086f61291a565b60405161087c9190613ae5565b60405180910390f35b34801561089157600080fd5b5061089a61291f565b005b3480156108a857600080fd5b506108b1612b91565b6040516108be9190613cc2565b60405180910390f35b3480156108d357600080fd5b506108ee60048036038101906108e99190613c61565b612bb5565b005b3480156108fc57600080fd5b50610905612d8d565b6040516109129190613ae5565b60405180910390f35b610935600480360381019061093091906139b1565b612d93565b005b600a6020528060005260406000206000915090508060000154908060010160009054906101000a900473ffffffffffffffffffffffffffffffffffffffff169080600201549080600701549080600801549080600901549080600a01549080600b01549080600c0160009054906101000a900460ff169080600c0160019054906101000a900460ff1690508a565b60045481565b6040518060400160405280601781526020017f436f6d706f756e6420476f7665726e6f7220427261766f00000000000000000081525081565b60008054906101000a900473ffffffffffffffffffffffffffffffffffffffff1673ffffffffffffffffffffffffffffffffffffffff163373ffffffffffffffffffffffffffffffffffffffff1614610a92576040517f08c379a0000000000000000000000000000000000000000000000000000000008152600401610a8990614b93565b60405180910390fd5b6116808110158015610aa7575062013b008111155b610ae6576040517f08c379a0000000000000000000000000000000000000000000000000000000008152600401610add90614c25565b60405180910390fd5b60006004549050816004819055507f7e3f7f0708a84de9203036abaa450dccc85ad5ff52f78c170f3edb55cf5e882881600454604051610b27929190614c45565b60405180910390a15050565b600960009054906101000a900473ffffffffffffffffffffffffffffffffffffffff1681565b600b6020528060005260406000206000915090505481565b60008054906101000a900473ffffffffffffffffffffffffffffffffffffffff1673ffffffffffffffffffffffffffffffffffffffff163373ffffffffffffffffffffffffffffffffffffffff1614610bff576040517f08c379a0000000000000000000000000000000000000000000000000000000008152600401610bf690614ce0565b60405180910390fd5b690a968163f0a57b4000008110158015610c23575069152d02c7e14af68000008111155b610c62576040517f08c379a0000000000000000000000000000000000000000000000000000000008152600401610c5990614d72565b60405180910390fd5b60006005549050816005819055507fccb45da8d5717e6c4544694297c4ba5cf151d455c9bb0ed4fc7a38411bc0546181600554604051610ca3929190614c45565b60405180910390a15050565b60008054906101000a900473ffffffffffffffffffffffffffffffffffffffff1673ffffffffffffffffffffffffffffffffffffffff163373ffffffffffffffffffffffffffffffffffffffff1614610d3d576040517f08c379a0000000000000000000000000000000000000000000000000000000008152600401610d3490614e04565b60405180910390fd5b60018110158015610d505750619d808111155b610d8f576040517f08c379a0000000000000000000000000000000000000000000000000000000008152600401610d8690614e96565b60405180910390fd5b60006003549050816003819055507fc565b045403dc03c2eea82b81a0465edad9e2e7fc4d97e11421c209da93d7a9381600354604051610dd0929190614c45565b60405180910390a15050565b7f8cad95687ba82c2ce50e74f7b754645e5117c3a5bec8151c0726d5857980a86681565b61168081565b6954b40b1f852bda00000081565b69152d02c7e14af680000081565b600160009054906101000a900473ffffffffffffffffffffffffffffffffffffffff1681565b6060806060806000600a600087815260200190815260200160002090508060030181600401826005018360060183805480602002602001604051908101604052809291908181526020018280548015610ef657602002820191906000526020600020905b8160009054906101000a900473ffffffffffffffffffffffffffffffffffffffff1673ffffffffffffffffffffffffffffffffffffffff1681526020019060010190808311610eac575b5050505050935082805480602002602001604051908101604052809291908181526020018280548015610f4857602002820191906000526020600020905b815481526020019060010190808311610f34575b5050505050925081805480602002602001604051908101604052809291908181526020016000905b8282101561101c578382906000526020600020018054610f8f90614ee5565b80601f0160208091040260200160405190810160405280929190818152602001828054610fbb90614ee5565b80156110085780601f10610fdd57610100808354040283529160200191611008565b820191906000526020600020905b815481529060010190602001808311610feb57829003601f168201915b505050505081526020019060010190610f70565b50505050915080805480602002602001604051908101604052809291908181526020016000905b828210156110ef57838290600052602060002001805461106290614ee5565b80601f016020809104026020016040519081016040528092919081815260200182805461108e90614ee5565b80156110db5780601f106110b0576101008083540402835291602001916110db565b820191906000526020600020905b8154815290600101906020018083116110be57829003601f168201915b505050505081526020019060010190611043565b5050505090509450945094509450509193509193565b60035481565b60007f8cad95687ba82c2ce50e74f7b754645e5117c3a5bec8151c0726d5857980a8666040518060400160405280601781526020017f436f6d706f756e6420476f7665726e6f7220427261766f00000000000000000081525080519060200120611173613006565b306040516020016111879493929190614f17565b60405160208183030381529060405280519060200120905060007f150214d74d59b7d1e90c73fc22ef3d991dd0a76b046543d4d80ab92d2a50328f87876040516020016111d693929190614f6b565b6040516020818303038152906040528051906020012090506000828260405160200161120392919061501a565b6040516020818303038152906040528051906020012090506000600182888888604051600081526020016040526040516112409493929190615051565b6020604051602081039080840390855afa158015611262573d6000803e3d6000fd5b505050602060405103519050600073ffffffffffffffffffffffffffffffffffffffff168173ffffffffffffffffffffffffffffffffffffffff1614156112de576040517f08c379a00000000000000000000000000000000000000000000000000000000081526004016112d590615108565b60405180910390fd5b8073ffffffffffffffffffffffffffffffffffffffff167fb8e138887d0aa13bab447e82de9d5c1777041ecd21ca36ba824ff1e6c07ddda48a8a611323858e8e613013565b6040516113329392919061517f565b60405180910390a2505050505050505050565b6000816007541015801561135a575060065482115b611399576040517f08c379a00000000000000000000000000000000000000000000000000000000081526004016113909061523b565b60405180910390fd5b6000600a6000848152602001908152602001600020905080600c0160009054906101000a900460ff16156113d157600291505061151a565b806007015443116113e657600091505061151a565b806008015443116113fb57600191505061151a565b80600a0154816009015411158061141f57506954b40b1f852bda0000008160090154105b1561142e57600391505061151a565b60008160020154141561144557600491505061151a565b80600c0160019054906101000a900460ff161561146657600791505061151a565b6115048160020154600860009054906101000a900473ffffffffffffffffffffffffffffffffffffffff1673ffffffffffffffffffffffffffffffffffffffff1663c1a287e26040518163ffffffff1660e01b8152600401602060405180830381865afa1580156114db573d6000803e3d6000fd5b505050506040513d601f19601f820116820180604052508101906114ff9190615270565b61333c565b421061151457600691505061151a565b60059150505b919050565b600780811115611532576115316141bd565b5b61153b82611345565b600781111561154d5761154c6141bd565b5b141561158e576040517f08c379a00000000000000000000000000000000000000000000000000000000081526004016115859061530f565b60405180910390fd5b6000600a600083815260200190815260200160002090508060010160009054906101000a900473ffffffffffffffffffffffffffffffffffffffff1673ffffffffffffffffffffffffffffffffffffffff163373ffffffffffffffffffffffffffffffffffffffff1614806116dd5750600554600960009054906101000a900473ffffffffffffffffffffffffffffffffffffffff1673ffffffffffffffffffffffffffffffffffffffff1663782d6fe18360010160009054906101000a900473ffffffffffffffffffffffffffffffffffffffff1661166f43600161339a565b6040518363ffffffff1660e01b815260040161168c92919061532f565b602060405180830381865afa1580156116a9573d6000803e3d6000fd5b505050506040513d601f19601f820116820180604052508101906116cd9190615384565b6bffffffffffffffffffffffff16105b61171c576040517f08c379a000000000000000000000000000000000000000000000000000000000815260040161171390615423565b60405180910390fd5b600181600c0160006101000a81548160ff02191690831515021790555060005b816003018054905081101561189557600860009054906101000a900473ffffffffffffffffffffffffffffffffffffffff1673ffffffffffffffffffffffffffffffffffffffff1663591fcdfe83600301838154811061179f5761179e615443565b5b9060005260206000200160009054906101000a900473ffffffffffffffffffffffffffffffffffffffff168460040184815481106117e0576117df615443565b5b906000526020600020015485600501858154811061180157611800615443565b5b9060005260206000200186600601868154811061182157611820615443565b5b9060005260206000200187600201546040518663ffffffff1660e01b81526004016118509594939291906155ad565b600060405180830381600087803b15801561186a57600080fd5b505af115801561187e573d6000803e3d6000fd5b50505050808061188d9061563d565b91505061173c565b507f789cf55be980739dad1d0699b93b58e806b51c9d96619bfa8fe0a28abaa7b30c826040516118c59190613ae5565b60405180910390a15050565b3373ffffffffffffffffffffffffffffffffffffffff167fb8e138887d0aa13bab447e82de9d5c1777041ecd21ca36ba824ff1e6c07ddda48383611916338787613013565b6040516119259392919061517f565b60405180910390a25050565b600260009054906101000a900473ffffffffffffffffffffffffffffffffffffffff1681565b690a968163f0a57b40000081565b3373ffffffffffffffffffffffffffffffffffffffff167fb8e138887d0aa13bab447e82de9d5c1777041ecd21ca36ba824ff1e6c07ddda485856119aa338989613013565b86866040516119bd9594939291906156b3565b60405180910390a250505050565b600a81565b62013b0081565b619d8081565b60055481565b60008054906101000a900473ffffffffffffffffffffffffffffffffffffffff1673ffffffffffffffffffffffffffffffffffffffff163373ffffffffffffffffffffffffffffffffffffffff1614611a71576040517f08c379a0000000000000000000000000000000000000000000000000000000008152600401611a6890615773565b60405180910390fd5b6000600160009054906101000a900473ffffffffffffffffffffffffffffffffffffffff16905081600160006101000a81548173ffffffffffffffffffffffffffffffffffffffff021916908373ffffffffffffffffffffffffffffffffffffffff1602179055507fca4f2f25d0898edd99413412fb94012f9e54ec8142f9b093e7720646a95b16a98183604051611b0a929190615793565b60405180910390a15050565b600073ffffffffffffffffffffffffffffffffffffffff16600860009054906101000a900473ffffffffffffffffffffffffffffffffffffffff1673ffffffffffffffffffffffffffffffffffffffff1614611ba7576040517f08c379a0000000000000000000000000000000000000000000000000000000008152600401611b9e9061582e565b60405180910390fd5b60008054906101000a900473ffffffffffffffffffffffffffffffffffffffff1673ffffffffffffffffffffffffffffffffffffffff163373ffffffffffffffffffffffffffffffffffffffff1614611c35576040517f08c379a0000000000000000000000000000000000000000000000000000000008152600401611c2c906158c0565b60405180910390fd5b600073ffffffffffffffffffffffffffffffffffffffff168573ffffffffffffffffffffffffffffffffffffffff161415611ca5576040517f08c379a0000000000000000000000000000000000000000000000000000000008152600401611c9c90615952565b60405180910390fd5b600073ffffffffffffffffffffffffffffffffffffffff168473ffffffffffffffffffffffffffffffffffffffff161415611d15576040517f08c379a0000000000000000000000000000000000000000000000000000000008152600401611d0c906159e4565b60405180910390fd5b6116808310158015611d2a575062013b008311155b611d69576040517f08c379a0000000000000000000000000000000000000000000000000000000008152600401611d6090615a76565b60405180910390fd5b60018210158015611d7c5750619d808211155b611dbb576040517f08c379a0000000000000000000000000000000000000000000000000000000008152600401611db290615b08565b60405180910390fd5b690a968163f0a57b4000008110158015611ddf575069152d02c7e14af68000008111155b611e1e576040517f08c379a0000000000000000000000000000000000000000000000000000000008152600401611e1590615b9a565b60405180910390fd5b84600860006101000a81548173ffffffffffffffffffffffffffffffffffffffff021916908373ffffffffffffffffffffffffffffffffffffffff16021790555083600960006101000a81548173ffffffffffffffffffffffffffffffffffffffff021916908373ffffffffffffffffffffffffffffffffffffffff1602179055508260048190555081600381905550806005819055505050505050565b600860009054906101000a900473ffffffffffffffffffffffffffffffffffffffff1681565b60075481565b6000806006541415611f2f576040517f08c379a0000000000000000000000000000000000000000000000000000000008152600401611f2690615c2c565b60405180910390fd5b600554600960009054906101000a900473ffffffffffffffffffffffffffffffffffffffff1673ffffffffffffffffffffffffffffffffffffffff1663782d6fe133611f7c43600161339a565b6040518363ffffffff1660e01b8152600401611f9992919061532f565b602060405180830381865afa158015611fb6573d6000803e3d6000fd5b505050506040513d601f19601f82011682018060405250810190611fda9190615384565b6bffffffffffffffffffffffff1611612028576040517f08c379a000000000000000000000000000000000000000000000000000000000815260040161201f90615cbe565b60405180910390fd5b8451865114801561203a575083518651145b8015612047575082518651145b612086576040517f08c379a000000000000000000000000000000000000000000000000000000000815260040161207d90615d76565b60405180910390fd5b6000865114156120cb576040517f08c379a00000000000000000000000000000000000000000000000000000000081526004016120c290615e08565b60405180910390fd5b600a86511115612110576040517f08c379a000000000000000000000000000000000000000000000000000000000815260040161210790615e9a565b60405180910390fd5b6000600b60003373ffffffffffffffffffffffffffffffffffffffff1673ffffffffffffffffffffffffffffffffffffffff1681526020019081526020016000205490506000811461223b57600061216782611345565b90506001600781111561217d5761217c6141bd565b5b8160078111156121905761218f6141bd565b5b14156121d1576040517f08c379a00000000000000000000000000000000000000000000000000000000081526004016121c890615f52565b60405180910390fd5b600060078111156121e5576121e46141bd565b5b8160078111156121f8576121f76141bd565b5b1415612239576040517f08c379a00000000000000000000000000000000000000000000000000000000081526004016122309061600a565b60405180910390fd5b505b60006122494360035461333c565b905060006122598260045461333c565b90506007600081548092919061226e9061563d565b91905055506000600a60006007548152602001908152602001600020905060008160000154146122d3576040517f08c379a00000000000000000000000000000000000000000000000000000000081526004016122ca9061609c565b60405180910390fd5b6007548160000181905550338160010160006101000a81548173ffffffffffffffffffffffffffffffffffffffff021916908373ffffffffffffffffffffffffffffffffffffffff16021790555060008160020181905550898160030190805190602001906123439291906135ab565b508881600401908051906020019061235c929190613635565b5087816005019080519060200190612375929190613682565b508681600601908051906020019061238e9291906136e2565b5082816007018190555081816008018190555060008160090181905550600081600a0181905550600081600b0181905550600081600c0160006101000a81548160ff021916908315150217905550600081600c0160016101000a81548160ff0219169083151502179055508060000154600b60008360010160009054906101000a900473ffffffffffffffffffffffffffffffffffffffff1673ffffffffffffffffffffffffffffffffffffffff1673ffffffffffffffffffffffffffffffffffffffff168152602001908152602001600020819055507f7d84a6263ae0d98d3329bd7b46bb4e8d6f98cd35a7adb45c274c8b7fd5ebd5e08160000154338c8c8c8c89898e6040516124a8999897969594939291906160bc565b60405180910390a1806000015494505050505095945050505050565b600460078111156124d8576124d76141bd565b5b6124e182611345565b60078111156124f3576124f26141bd565b5b14612533576040517f08c379a000000000000000000000000000000000000000000000000000000000815260040161252a90616204565b60405180910390fd5b6000600a6000838152602001908152602001600020905060006125e642600860009054906101000a900473ffffffffffffffffffffffffffffffffffffffff1673ffffffffffffffffffffffffffffffffffffffff16636a42b8f86040518163ffffffff1660e01b8152600401602060405180830381865afa1580156125bd573d6000803e3d6000fd5b505050506040513d601f19601f820116820180604052508101906125e19190615270565b61333c565b905060005b82600301805490508110156127ca576127b783600301828154811061261357612612615443565b5b9060005260206000200160009054906101000a900473ffffffffffffffffffffffffffffffffffffffff1684600401838154811061265457612653615443565b5b906000526020600020015485600501848154811061267557612674615443565b5b90600052602060002001805461268a90614ee5565b80601f01602080910402602001604051908101604052809291908181526020018280546126b690614ee5565b80156127035780601f106126d857610100808354040283529160200191612703565b820191906000526020600020905b8154815290600101906020018083116126e657829003601f168201915b505050505086600601858154811061271e5761271d615443565b5b90600052602060002001805461273390614ee5565b80601f016020809104026020016040519081016040528092919081815260200182805461275f90614ee5565b80156127ac5780601f10612781576101008083540402835291602001916127ac565b820191906000526020600020905b81548152906001019060200180831161278f57829003601f168201915b5050505050866133f3565b80806127c29061563d565b9150506125eb565b508082600201819055507f9a2e42fd6722813d69113e7d0079d3d940171428df7373df9c7f7617cfda28928382604051612805929190614c45565b60405180910390a1505050565b7f150214d74d59b7d1e90c73fc22ef3d991dd0a76b046543d4d80ab92d2a50328f81565b61283e613742565b600a6000848152602001908152602001600020600d0160008373ffffffffffffffffffffffffffffffffffffffff1673ffffffffffffffffffffffffffffffffffffffff1681526020019081526020016000206040518060600160405290816000820160009054906101000a900460ff161515151581526020016000820160019054906101000a900460ff1660ff1660ff1681526020016000820160029054906101000a90046bffffffffffffffffffffffff166bffffffffffffffffffffffff166bffffffffffffffffffffffff1681525050905092915050565b600181565b600160009054906101000a900473ffffffffffffffffffffffffffffffffffffffff1673ffffffffffffffffffffffffffffffffffffffff163373ffffffffffffffffffffffffffffffffffffffff161480156129a95750600073ffffffffffffffffffffffffffffffffffffffff163373ffffffffffffffffffffffffffffffffffffffff1614155b6129e8576040517f08c379a00000000000000000000000000000000000000000000000000000000081526004016129df90616296565b60405180910390fd5b60008060009054906101000a900473ffffffffffffffffffffffffffffffffffffffff1690506000600160009054906101000a900473ffffffffffffffffffffffffffffffffffffffff169050600160009054906101000a900473ffffffffffffffffffffffffffffffffffffffff166000806101000a81548173ffffffffffffffffffffffffffffffffffffffff021916908373ffffffffffffffffffffffffffffffffffffffff1602179055506000600160006101000a81548173ffffffffffffffffffffffffffffffffffffffff021916908373ffffffffffffffffffffffffffffffffffffffff1602179055507ff9ffabca9c8276e99321725bcb43fb076a6c66a54b7f21c4e8146d8519b417dc8260008054906101000a900473ffffffffffffffffffffffffffffffffffffffff16604051612b2a929190615793565b60405180910390a17fca4f2f25d0898edd99413412fb94012f9e54ec8142f9b093e7720646a95b16a981600160009054906101000a900473ffffffffffffffffffffffffffffffffffffffff16604051612b85929190615793565b60405180910390a15050565b60008054906101000a900473ffffffffffffffffffffffffffffffffffffffff1681565b60008054906101000a900473ffffffffffffffffffffffffffffffffffffffff1673ffffffffffffffffffffffffffffffffffffffff163373ffffffffffffffffffffffffffffffffffffffff1614612c43576040517f08c379a0000000000000000000000000000000000000000000000000000000008152600401612c3a90616328565b60405180910390fd5b600060065414612c88576040517f08c379a0000000000000000000000000000000000000000000000000000000008152600401612c7f906163ba565b60405180910390fd5b8073ffffffffffffffffffffffffffffffffffffffff1663da35c6646040518163ffffffff1660e01b81526004016020604051808303816000875af1158015612cd5573d6000803e3d6000fd5b505050506040513d601f19601f82011682018060405250810190612cf99190615270565b600781905550600754600681905550600860009054906101000a900473ffffffffffffffffffffffffffffffffffffffff1673ffffffffffffffffffffffffffffffffffffffff16630e18b6816040518163ffffffff1660e01b8152600401600060405180830381600087803b158015612d7257600080fd5b505af1158015612d86573d6000803e3d6000fd5b5050505050565b60065481565b60056007811115612da757612da66141bd565b5b612db082611345565b6007811115612dc257612dc16141bd565b5b14612e02576040517f08c379a0000000000000000000000000000000000000000000000000000000008152600401612df990616472565b60405180910390fd5b6000600a60008381526020019081526020016000209050600181600c0160016101000a81548160ff02191690831515021790555060005b8160030180549050811015612fca57600860009054906101000a900473ffffffffffffffffffffffffffffffffffffffff1673ffffffffffffffffffffffffffffffffffffffff16630825f38f836004018381548110612e9c57612e9b615443565b5b9060005260206000200154846003018481548110612ebd57612ebc615443565b5b9060005260206000200160009054906101000a900473ffffffffffffffffffffffffffffffffffffffff16856004018581548110612efe57612efd615443565b5b9060005260206000200154866005018681548110612f1f57612f1e615443565b5b90600052602060002001876006018781548110612f3f57612f3e615443565b5b9060005260206000200188600201546040518763ffffffff1660e01b8152600401612f6e9594939291906155ad565b60006040518083038185885af1158015612f8c573d6000803e3d6000fd5b50505050506040513d6000823e3d601f19601f82011682018060405250810190612fb69190616502565b508080612fc29061563d565b915050612e39565b507f712ae1383f79ac853f8d882153778e0260ef8f03b504e2866e0593e04d2b291f82604051612ffa9190613ae5565b60405180910390a15050565b6000804690508091505090565b600060016007811115613029576130286141bd565b5b61303284611345565b6007811115613044576130436141bd565b5b14613084576040517f08c379a000000000000000000000000000000000000000000000000000000000815260040161307b906165bd565b60405180910390fd5b60028260ff1611156130cb576040517f08c379a00000000000000000000000000000000000000000000000000000000081526004016130c29061664f565b60405180910390fd5b6000600a60008581526020019081526020016000209050600081600d0160008773ffffffffffffffffffffffffffffffffffffffff1673ffffffffffffffffffffffffffffffffffffffff1681526020019081526020016000209050600015158160000160009054906101000a900460ff1615151461317f576040517f08c379a0000000000000000000000000000000000000000000000000000000008152600401613176906166e1565b60405180910390fd5b6000600960009054906101000a900473ffffffffffffffffffffffffffffffffffffffff1673ffffffffffffffffffffffffffffffffffffffff1663782d6fe18885600701546040518363ffffffff1660e01b81526004016131e292919061532f565b602060405180830381865afa1580156131ff573d6000803e3d6000fd5b505050506040513d601f19601f820116820180604052508101906132239190615384565b905060008560ff16141561325a5761324d83600a0154826bffffffffffffffffffffffff1661333c565b83600a01819055506132c2565b60018560ff16141561328f576132828360090154826bffffffffffffffffffffffff1661333c565b83600901819055506132c1565b60028560ff1614156132c0576132b783600b0154826bffffffffffffffffffffffff1661333c565b83600b01819055505b5b5b60018260000160006101000a81548160ff021916908315150217905550848260000160016101000a81548160ff021916908360ff160217905550808260000160026101000a8154816bffffffffffffffffffffffff02191690836bffffffffffffffffffffffff1602179055508093505050509392505050565b600080828461334b9190616701565b905083811015613390576040517f08c379a0000000000000000000000000000000000000000000000000000000008152600401613387906167a3565b60405180910390fd5b8091505092915050565b6000828211156133df576040517f08c379a00000000000000000000000000000000000000000000000000000000081526004016133d69061680f565b60405180910390fd5b81836133eb919061682f565b905092915050565b600860009054906101000a900473ffffffffffffffffffffffffffffffffffffffff1673ffffffffffffffffffffffffffffffffffffffff1663f2b06537868686868660405160200161344a95949392919061689c565b604051602081830303815290604052805190602001206040518263ffffffff1660e01b815260040161347c9190613ca7565b602060405180830381865afa158015613499573d6000803e3d6000fd5b505050506040513d601f19601f820116820180604052508101906134bd9190616929565b156134fd576040517f08c379a00000000000000000000000000000000000000000000000000000000081526004016134f4906169ee565b60405180910390fd5b600860009054906101000a900473ffffffffffffffffffffffffffffffffffffffff1673ffffffffffffffffffffffffffffffffffffffff16633a66f90186868686866040518663ffffffff1660e01b815260040161356095949392919061689c565b6020604051808303816000875af115801561357f573d6000803e3d6000fd5b505050506040513d601f19601f820116820180604052508101906135a39190616a23565b505050505050565b828054828255906000526020600020908101928215613624579160200282015b828111156136235782518260006101000a81548173ffffffffffffffffffffffffffffffffffffffff021916908373ffffffffffffffffffffffffffffffffffffffff160217905550916020019190600101906135cb565b5b5090506136319190613776565b5090565b828054828255906000526020600020908101928215613671579160200282015b82811115613670578251825591602001919060010190613655565b5b50905061367e9190613776565b5090565b8280548282559060005260206000209081019282156136d1579160200282015b828111156136d05782518290805190602001906136c0929190613793565b50916020019190600101906136a2565b5b5090506136de9190613819565b5090565b828054828255906000526020600020908101928215613731579160200282015b8281111561373057825182908051906020019061372092919061383d565b5091602001919060010190613702565b5b50905061373e91906138c3565b5090565b6040518060600160405280600015158152602001600060ff16815260200160006bffffffffffffffffffffffff1681525090565b5b8082111561378f576000816000905550600101613777565b5090565b82805461379f90614ee5565b90600052602060002090601f0160209004810192826137c15760008555613808565b82601f106137da57805160ff1916838001178555613808565b82800160010185558215613808579182015b828111156138075782518255916020019190600101906137ec565b5b5090506138159190613776565b5090565b5b80821115613839576000818161383091906138e7565b5060010161381a565b5090565b82805461384990614ee5565b90600052602060002090601f01602090048101928261386b57600085556138b2565b82601f1061388457805160ff19168380011785556138b2565b828001600101855582156138b2579182015b828111156138b1578251825591602001919060010190613896565b5b5090506138bf9190613776565b5090565b5b808211156138e357600081816138da9190613927565b506001016138c4565b5090565b5080546138f390614ee5565b6000825580601f106139055750613924565b601f0160209004906000526020600020908101906139239190613776565b5b50565b50805461393390614ee5565b6000825580601f106139455750613964565b601f0160209004906000526020600020908101906139639190613776565b5b50565b6000604051905090565b600080fd5b600080fd5b6000819050919050565b61398e8161397b565b811461399957600080fd5b50565b6000813590506139ab81613985565b92915050565b6000602082840312156139c7576139c6613971565b5b60006139d58482850161399c565b91505092915050565b6139e78161397b565b82525050565b600073ffffffffffffffffffffffffffffffffffffffff82169050919050565b6000613a18826139ed565b9050919050565b613a2881613a0d565b82525050565b60008115159050919050565b613a4381613a2e565b82525050565b600061014082019050613a5f600083018d6139de565b613a6c602083018c613a1f565b613a79604083018b6139de565b613a86606083018a6139de565b613a9360808301896139de565b613aa060a08301886139de565b613aad60c08301876139de565b613aba60e08301866139de565b613ac8610100830185613a3a565b613ad6610120830184613a3a565b9b9a5050505050505050505050565b6000602082019050613afa60008301846139de565b92915050565b600081519050919050565b600082825260208201905092915050565b60005b83811015613b3a578082015181840152602081019050613b1f565b83811115613b49576000848401525b50505050565b6000601f19601f8301169050919050565b6000613b6b82613b00565b613b758185613b0b565b9350613b85818560208601613b1c565b613b8e81613b4f565b840191505092915050565b60006020820190508181036000830152613bb38184613b60565b905092915050565b6000819050919050565b6000613be0613bdb613bd6846139ed565b613bbb565b6139ed565b9050919050565b6000613bf282613bc5565b9050919050565b6000613c0482613be7565b9050919050565b613c1481613bf9565b82525050565b6000602082019050613c2f6000830184613c0b565b92915050565b613c3e81613a0d565b8114613c4957600080fd5b50565b600081359050613c5b81613c35565b92915050565b600060208284031215613c7757613c76613971565b5b6000613c8584828501613c4c565b91505092915050565b6000819050919050565b613ca181613c8e565b82525050565b6000602082019050613cbc6000830184613c98565b92915050565b6000602082019050613cd76000830184613a1f565b92915050565b600081519050919050565b600082825260208201905092915050565b6000819050602082019050919050565b613d1281613a0d565b82525050565b6000613d248383613d09565b60208301905092915050565b6000602082019050919050565b6000613d4882613cdd565b613d528185613ce8565b9350613d5d83613cf9565b8060005b83811015613d8e578151613d758882613d18565b9750613d8083613d30565b925050600181019050613d61565b5085935050505092915050565b600081519050919050565b600082825260208201905092915050565b6000819050602082019050919050565b613dd08161397b565b82525050565b6000613de28383613dc7565b60208301905092915050565b6000602082019050919050565b6000613e0682613d9b565b613e108185613da6565b9350613e1b83613db7565b8060005b83811015613e4c578151613e338882613dd6565b9750613e3e83613dee565b925050600181019050613e1f565b5085935050505092915050565b600081519050919050565b600082825260208201905092915050565b6000819050602082019050919050565b600082825260208201905092915050565b6000613ea182613b00565b613eab8185613e85565b9350613ebb818560208601613b1c565b613ec481613b4f565b840191505092915050565b6000613edb8383613e96565b905092915050565b6000602082019050919050565b6000613efb82613e59565b613f058185613e64565b935083602082028501613f1785613e75565b8060005b85811015613f535784840389528151613f348582613ecf565b9450613f3f83613ee3565b925060208a01995050600181019050613f1b565b50829750879550505050505092915050565b600081519050919050565b600082825260208201905092915050565b6000819050602082019050919050565b600081519050919050565b600082825260208201905092915050565b6000613fb882613f91565b613fc28185613f9c565b9350613fd2818560208601613b1c565b613fdb81613b4f565b840191505092915050565b6000613ff28383613fad565b905092915050565b6000602082019050919050565b600061401282613f65565b61401c8185613f70565b93508360208202850161402e85613f81565b8060005b8581101561406a578484038952815161404b8582613fe6565b945061405683613ffa565b925060208a01995050600181019050614032565b50829750879550505050505092915050565b600060808201905081810360008301526140968187613d3d565b905081810360208301526140aa8186613dfb565b905081810360408301526140be8185613ef0565b905081810360608301526140d28184614007565b905095945050505050565b600060ff82169050919050565b6140f3816140dd565b81146140fe57600080fd5b50565b600081359050614110816140ea565b92915050565b61411f81613c8e565b811461412a57600080fd5b50565b60008135905061413c81614116565b92915050565b600080600080600060a0868803121561415e5761415d613971565b5b600061416c8882890161399c565b955050602061417d88828901614101565b945050604061418e88828901614101565b935050606061419f8882890161412d565b92505060806141b08882890161412d565b9150509295509295909350565b7f4e487b7100000000000000000000000000000000000000000000000000000000600052602160045260246000fd5b600881106141fd576141fc6141bd565b5b50565b600081905061420e826141ec565b919050565b600061421e82614200565b9050919050565b61422e81614213565b82525050565b60006020820190506142496000830184614225565b92915050565b6000806040838503121561426657614265613971565b5b60006142748582860161399c565b925050602061428585828601614101565b9150509250929050565b600080fd5b600080fd5b600080fd5b60008083601f8401126142b4576142b361428f565b5b8235905067ffffffffffffffff8111156142d1576142d0614294565b5b6020830191508360018202830111156142ed576142ec614299565b5b9250929050565b6000806000806060858703121561430e5761430d613971565b5b600061431c8782880161399c565b945050602061432d87828801614101565b935050604085013567ffffffffffffffff81111561434e5761434d613976565b5b61435a8782880161429e565b925092505092959194509250565b600080600080600060a0868803121561438457614383613971565b5b600061439288828901613c4c565b95505060206143a388828901613c4c565b94505060406143b48882890161399c565b93505060606143c58882890161399c565b92505060806143d68882890161399c565b9150509295509295909350565b60006143ee82613be7565b9050919050565b6143fe816143e3565b82525050565b600060208201905061441960008301846143f5565b92915050565b7f4e487b7100000000000000000000000000000000000000000000000000000000600052604160045260246000fd5b61445782613b4f565b810181811067ffffffffffffffff821117156144765761447561441f565b5b80604052505050565b6000614489613967565b9050614495828261444e565b919050565b600067ffffffffffffffff8211156144b5576144b461441f565b5b602082029050602081019050919050565b60006144d96144d48461449a565b61447f565b905080838252602082019050602084028301858111156144fc576144fb614299565b5b835b8181101561452557806145118882613c4c565b8452602084019350506020810190506144fe565b5050509392505050565b600082601f8301126145445761454361428f565b5b81356145548482602086016144c6565b91505092915050565b600067ffffffffffffffff8211156145785761457761441f565b5b602082029050602081019050919050565b600061459c6145978461455d565b61447f565b905080838252602082019050602084028301858111156145bf576145be614299565b5b835b818110156145e857806145d4888261399c565b8452602084019350506020810190506145c1565b5050509392505050565b600082601f8301126146075761460661428f565b5b8135614617848260208601614589565b91505092915050565b600067ffffffffffffffff82111561463b5761463a61441f565b5b602082029050602081019050919050565b600080fd5b600067ffffffffffffffff82111561466c5761466b61441f565b5b61467582613b4f565b9050602081019050919050565b82818337600083830152505050565b60006146a461469f84614651565b61447f565b9050828152602081018484840111156146c0576146bf61464c565b5b6146cb848285614682565b509392505050565b600082601f8301126146e8576146e761428f565b5b81356146f8848260208601614691565b91505092915050565b600061471461470f84614620565b61447f565b9050808382526020820190506020840283018581111561473757614736614299565b5b835b8181101561477e57803567ffffffffffffffff81111561475c5761475b61428f565b5b80860161476989826146d3565b85526020850194505050602081019050614739565b5050509392505050565b600082601f83011261479d5761479c61428f565b5b81356147ad848260208601614701565b91505092915050565b600067ffffffffffffffff8211156147d1576147d061441f565b5b602082029050602081019050919050565b600067ffffffffffffffff8211156147fd576147fc61441f565b5b61480682613b4f565b9050602081019050919050565b6000614826614821846147e2565b61447f565b9050828152602081018484840111156148425761484161464c565b5b61484d848285614682565b509392505050565b600082601f83011261486a5761486961428f565b5b813561487a848260208601614813565b91505092915050565b6000614896614891846147b6565b61447f565b905080838252602082019050602084028301858111156148b9576148b8614299565b5b835b8181101561490057803567ffffffffffffffff8111156148de576148dd61428f565b5b8086016148eb8982614855565b855260208501945050506020810190506148bb565b5050509392505050565b600082601f83011261491f5761491e61428f565b5b813561492f848260208601614883565b91505092915050565b600080600080600060a0868803121561495457614953613971565b5b600086013567ffffffffffffffff81111561497257614971613976565b5b61497e8882890161452f565b955050602086013567ffffffffffffffff81111561499f5761499e613976565b5b6149ab888289016145f2565b945050604086013567ffffffffffffffff8111156149cc576149cb613976565b5b6149d888828901614788565b935050606086013567ffffffffffffffff8111156149f9576149f8613976565b5b614a058882890161490a565b925050608086013567ffffffffffffffff811115614a2657614a25613976565b5b614a32888289016146d3565b9150509295509295909350565b60008060408385031215614a5657614a55613971565b5b6000614a648582860161399c565b9250506020614a7585828601613c4c565b9150509250929050565b614a8881613a2e565b82525050565b614a97816140dd565b82525050565b60006bffffffffffffffffffffffff82169050919050565b614abe81614a9d565b82525050565b606082016000820151614ada6000850182614a7f565b506020820151614aed6020850182614a8e565b506040820151614b006040850182614ab5565b50505050565b6000606082019050614b1b6000830184614ac4565b92915050565b7f476f7665726e6f72427261766f3a3a5f736574566f74696e67506572696f643a60008201527f2061646d696e206f6e6c79000000000000000000000000000000000000000000602082015250565b6000614b7d602b83613b0b565b9150614b8882614b21565b604082019050919050565b60006020820190508181036000830152614bac81614b70565b9050919050565b7f476f7665726e6f72427261766f3a3a5f736574566f74696e67506572696f643a60008201527f20696e76616c696420766f74696e6720706572696f6400000000000000000000602082015250565b6000614c0f603683613b0b565b9150614c1a82614bb3565b604082019050919050565b60006020820190508181036000830152614c3e81614c02565b9050919050565b6000604082019050614c5a60008301856139de565b614c6760208301846139de565b9392505050565b7f476f7665726e6f72427261766f3a3a5f73657450726f706f73616c546872657360008201527f686f6c643a2061646d696e206f6e6c7900000000000000000000000000000000602082015250565b6000614cca603083613b0b565b9150614cd582614c6e565b604082019050919050565b60006020820190508181036000830152614cf981614cbd565b9050919050565b7f476f7665726e6f72427261766f3a3a5f73657450726f706f73616c546872657360008201527f686f6c643a20696e76616c69642070726f706f73616c207468726573686f6c64602082015250565b6000614d5c604083613b0b565b9150614d6782614d00565b604082019050919050565b60006020820190508181036000830152614d8b81614d4f565b9050919050565b7f476f7665726e6f72427261766f3a3a5f736574566f74696e6744656c61793a2060008201527f61646d696e206f6e6c7900000000000000000000000000000000000000000000602082015250565b6000614dee602a83613b0b565b9150614df982614d92565b604082019050919050565b60006020820190508181036000830152614e1d81614de1565b9050919050565b7f476f7665726e6f72427261766f3a3a5f736574566f74696e6744656c61793a2060008201527f696e76616c696420766f74696e672064656c6179000000000000000000000000602082015250565b6000614e80603483613b0b565b9150614e8b82614e24565b604082019050919050565b60006020820190508181036000830152614eaf81614e73565b9050919050565b7f4e487b7100000000000000000000000000000000000000000000000000000000600052602260045260246000fd5b60006002820490506001821680614efd57607f821691505b60208210811415614f1157614f10614eb6565b5b50919050565b6000608082019050614f2c6000830187613c98565b614f396020830186613c98565b614f4660408301856139de565b614f536060830184613a1f565b95945050505050565b614f65816140dd565b82525050565b6000606082019050614f806000830186613c98565b614f8d60208301856139de565b614f9a6040830184614f5c565b949350505050565b600081905092915050565b7f1901000000000000000000000000000000000000000000000000000000000000600082015250565b6000614fe3600283614fa2565b9150614fee82614fad565b600282019050919050565b6000819050919050565b61501461500f82613c8e565b614ff9565b82525050565b600061502582614fd6565b91506150318285615003565b6020820191506150418284615003565b6020820191508190509392505050565b60006080820190506150666000830187613c98565b6150736020830186614f5c565b6150806040830185613c98565b61508d6060830184613c98565b95945050505050565b7f476f7665726e6f72427261766f3a3a63617374566f746542795369673a20696e60008201527f76616c6964207369676e61747572650000000000000000000000000000000000602082015250565b60006150f2602f83613b0b565b91506150fd82615096565b604082019050919050565b60006020820190508181036000830152615121816150e5565b9050919050565b600061514361513e61513984614a9d565b613bbb565b61397b565b9050919050565b61515381615128565b82525050565b50565b6000615169600083613b0b565b915061517482615159565b600082019050919050565b600060808201905061519460008301866139de565b6151a16020830185614f5c565b6151ae604083018461514a565b81810360608301526151bf8161515c565b9050949350505050565b7f476f7665726e6f72427261766f3a3a73746174653a20696e76616c696420707260008201527f6f706f73616c2069640000000000000000000000000000000000000000000000602082015250565b6000615225602983613b0b565b9150615230826151c9565b604082019050919050565b6000602082019050818103600083015261525481615218565b9050919050565b60008151905061526a81613985565b92915050565b60006020828403121561528657615285613971565b5b60006152948482850161525b565b91505092915050565b7f476f7665726e6f72427261766f3a3a63616e63656c3a2063616e6e6f7420636160008201527f6e63656c2065786563757465642070726f706f73616c00000000000000000000602082015250565b60006152f9603683613b0b565b91506153048261529d565b604082019050919050565b60006020820190508181036000830152615328816152ec565b9050919050565b60006040820190506153446000830185613a1f565b61535160208301846139de565b9392505050565b61536181614a9d565b811461536c57600080fd5b50565b60008151905061537e81615358565b92915050565b60006020828403121561539a57615399613971565b5b60006153a88482850161536f565b91505092915050565b7f476f7665726e6f72427261766f3a3a63616e63656c3a2070726f706f7365722060008201527f61626f7665207468726573686f6c640000000000000000000000000000000000602082015250565b600061540d602f83613b0b565b9150615418826153b1565b604082019050919050565b6000602082019050818103600083015261543c81615400565b9050919050565b7f4e487b7100000000000000000000000000000000000000000000000000000000600052603260045260246000fd5b60008190508160005260206000209050919050565b6000815461549481614ee5565b61549e8186613b0b565b945060018216600081146154b957600181146154cb576154fe565b60ff19831686526020860193506154fe565b6154d485615472565b60005b838110156154f6578154818901526001820191506020810190506154d7565b808801955050505b50505092915050565b600082825260208201905092915050565b60008190508160005260206000209050919050565b6000815461553a81614ee5565b6155448186615507565b9450600182166000811461555f5760018114615571576155a4565b60ff19831686526020860193506155a4565b61557a85615518565b60005b8381101561559c5781548189015260018201915060208101905061557d565b808801955050505b50505092915050565b600060a0820190506155c26000830188613a1f565b6155cf60208301876139de565b81810360408301526155e18186615487565b905081810360608301526155f5818561552d565b905061560460808301846139de565b9695505050505050565b7f4e487b7100000000000000000000000000000000000000000000000000000000600052601160045260246000fd5b60006156488261397b565b91507fffffffffffffffffffffffffffffffffffffffffffffffffffffffffffffffff82141561567b5761567a61560e565b5b600182019050919050565b60006156928385613b0b565b935061569f838584614682565b6156a883613b4f565b840190509392505050565b60006080820190506156c860008301886139de565b6156d56020830187614f5c565b6156e2604083018661514a565b81810360608301526156f5818486615686565b90509695505050505050565b7f476f7665726e6f72427261766f3a5f73657450656e64696e6741646d696e3a2060008201527f61646d696e206f6e6c7900000000000000000000000000000000000000000000602082015250565b600061575d602a83613b0b565b915061576882615701565b604082019050919050565b6000602082019050818103600083015261578c81615750565b9050919050565b60006040820190506157a86000830185613a1f565b6157b56020830184613a1f565b9392505050565b7f476f7665726e6f72427261766f3a3a696e697469616c697a653a2063616e206f60008201527f6e6c7920696e697469616c697a65206f6e636500000000000000000000000000602082015250565b6000615818603383613b0b565b9150615823826157bc565b604082019050919050565b600060208201905081810360008301526158478161580b565b9050919050565b7f476f7665726e6f72427261766f3a3a696e697469616c697a653a2061646d696e60008201527f206f6e6c79000000000000000000000000000000000000000000000000000000602082015250565b60006158aa602583613b0b565b91506158b58261584e565b604082019050919050565b600060208201905081810360008301526158d98161589d565b9050919050565b7f476f7665726e6f72427261766f3a3a696e697469616c697a653a20696e76616c60008201527f69642074696d656c6f636b206164647265737300000000000000000000000000602082015250565b600061593c603383613b0b565b9150615947826158e0565b604082019050919050565b6000602082019050818103600083015261596b8161592f565b9050919050565b7f476f7665726e6f72427261766f3a3a696e697469616c697a653a20696e76616c60008201527f696420636f6d7020616464726573730000000000000000000000000000000000602082015250565b60006159ce602f83613b0b565b91506159d982615972565b604082019050919050565b600060208201905081810360008301526159fd816159c1565b9050919050565b7f476f7665726e6f72427261766f3a3a696e697469616c697a653a20696e76616c60008201527f696420766f74696e6720706572696f6400000000000000000000000000000000602082015250565b6000615a60603083613b0b565b9150615a6b82615a04565b604082019050919050565b60006020820190508181036000830152615a8f81615a53565b9050919050565b7f476f7665726e6f72427261766f3a3a696e697469616c697a653a20696e76616c60008201527f696420766f74696e672064656c61790000000000000000000000000000000000602082015250565b6000615af2602f83613b0b565b9150615afd82615a96565b604082019050919050565b60006020820190508181036000830152615b2181615ae5565b9050919050565b7f476f7665726e6f72427261766f3a3a696e697469616c697a653a20696e76616c60008201527f69642070726f706f73616c207468726573686f6c640000000000000000000000602082015250565b6000615b84603583613b0b565b9150615b8f82615b28565b604082019050919050565b60006020820190508181036000830152615bb381615b77565b9050919050565b7f476f7665726e6f72427261766f3a3a70726f706f73653a20476f7665726e6f7260008201527f20427261766f206e6f7420616374697665000000000000000000000000000000602082015250565b6000615c16603183613b0b565b9150615c2182615bba565b604082019050919050565b60006020820190508181036000830152615c4581615c09565b9050919050565b7f476f7665726e6f72427261766f3a3a70726f706f73653a2070726f706f73657260008201527f20766f7465732062656c6f772070726f706f73616c207468726573686f6c6400602082015250565b6000615ca8603f83613b0b565b9150615cb382615c4c565b604082019050919050565b60006020820190508181036000830152615cd781615c9b565b9050919050565b7f476f7665726e6f72427261766f3a3a70726f706f73653a2070726f706f73616c60008201527f2066756e6374696f6e20696e666f726d6174696f6e206172697479206d69736d60208201527f6174636800000000000000000000000000000000000000000000000000000000604082015250565b6000615d60604483613b0b565b9150615d6b82615cde565b606082019050919050565b60006020820190508181036000830152615d8f81615d53565b9050919050565b7f476f7665726e6f72427261766f3a3a70726f706f73653a206d7573742070726f60008201527f7669646520616374696f6e730000000000000000000000000000000000000000602082015250565b6000615df2602c83613b0b565b9150615dfd82615d96565b604082019050919050565b60006020820190508181036000830152615e2181615de5565b9050919050565b7f476f7665726e6f72427261766f3a3a70726f706f73653a20746f6f206d616e7960008201527f20616374696f6e73000000000000000000000000000000000000000000000000602082015250565b6000615e84602883613b0b565b9150615e8f82615e28565b604082019050919050565b60006020820190508181036000830152615eb381615e77565b9050919050565b7f476f7665726e6f72427261766f3a3a70726f706f73653a206f6e65206c69766560008201527f2070726f706f73616c207065722070726f706f7365722c20666f756e6420616e60208201527f20616c7265616479206163746976652070726f706f73616c0000000000000000604082015250565b6000615f3c605883613b0b565b9150615f4782615eba565b606082019050919050565b60006020820190508181036000830152615f6b81615f2f565b9050919050565b7f476f7665726e6f72427261766f3a3a70726f706f73653a206f6e65206c69766560008201527f2070726f706f73616c207065722070726f706f7365722c20666f756e6420616e60208201527f20616c72656164792070656e64696e672070726f706f73616c00000000000000604082015250565b6000615ff4605983613b0b565b9150615fff82615f72565b606082019050919050565b6000602082019050818103600083015261602381615fe7565b9050919050565b7f476f7665726e6f72427261766f3a3a70726f706f73653a2050726f706f73616c60008201527f494420636f6c6c73696f6e000000000000000000000000000000000000000000602082015250565b6000616086602b83613b0b565b91506160918261602a565b604082019050919050565b600060208201905081810360008301526160b581616079565b9050919050565b6000610120820190506160d2600083018c6139de565b6160df602083018b613a1f565b81810360408301526160f1818a613d3d565b905081810360608301526161058189613dfb565b905081810360808301526161198188613ef0565b905081810360a083015261612d8187614007565b905061613c60c08301866139de565b61614960e08301856139de565b81810361010083015261615c8184613b60565b90509a9950505050505050505050565b7f476f7665726e6f72427261766f3a3a71756575653a2070726f706f73616c206360008201527f616e206f6e6c792062652071756575656420696620697420697320737563636560208201527f6564656400000000000000000000000000000000000000000000000000000000604082015250565b60006161ee604483613b0b565b91506161f98261616c565b606082019050919050565b6000602082019050818103600083015261621d816161e1565b9050919050565b7f476f7665726e6f72427261766f3a5f61636365707441646d696e3a2070656e6460008201527f696e672061646d696e206f6e6c79000000000000000000000000000000000000602082015250565b6000616280602e83613b0b565b915061628b82616224565b604082019050919050565b600060208201905081810360008301526162af81616273565b9050919050565b7f476f7665726e6f72427261766f3a3a5f696e6974696174653a2061646d696e2060008201527f6f6e6c7900000000000000000000000000000000000000000000000000000000602082015250565b6000616312602483613b0b565b915061631d826162b6565b604082019050919050565b6000602082019050818103600083015261634181616305565b9050919050565b7f476f7665726e6f72427261766f3a3a5f696e6974696174653a2063616e206f6e60008201527f6c7920696e697469617465206f6e636500000000000000000000000000000000602082015250565b60006163a4603083613b0b565b91506163af82616348565b604082019050919050565b600060208201905081810360008301526163d381616397565b9050919050565b7f476f7665726e6f72427261766f3a3a657865637574653a2070726f706f73616c60008201527f2063616e206f6e6c79206265206578656375746564206966206974206973207160208201527f7565756564000000000000000000000000000000000000000000000000000000604082015250565b600061645c604583613b0b565b9150616467826163da565b606082019050919050565b6000602082019050818103600083015261648b8161644f565b9050919050565b60006164a56164a0846147e2565b61447f565b9050828152602081018484840111156164c1576164c061464c565b5b6164cc848285613b1c565b509392505050565b600082601f8301126164e9576164e861428f565b5b81516164f9848260208601616492565b91505092915050565b60006020828403121561651857616517613971565b5b600082015167ffffffffffffffff81111561653657616535613976565b5b616542848285016164d4565b91505092915050565b7f476f7665726e6f72427261766f3a3a63617374566f7465496e7465726e616c3a60008201527f20766f74696e6720697320636c6f736564000000000000000000000000000000602082015250565b60006165a7603183613b0b565b91506165b28261654b565b604082019050919050565b600060208201905081810360008301526165d68161659a565b9050919050565b7f476f7665726e6f72427261766f3a3a63617374566f7465496e7465726e616c3a60008201527f20696e76616c696420766f746520747970650000000000000000000000000000602082015250565b6000616639603283613b0b565b9150616644826165dd565b604082019050919050565b600060208201905081810360008301526166688161662c565b9050919050565b7f476f7665726e6f72427261766f3a3a63617374566f7465496e7465726e616c3a60008201527f20766f74657220616c726561647920766f746564000000000000000000000000602082015250565b60006166cb603483613b0b565b91506166d68261666f565b604082019050919050565b600060208201905081810360008301526166fa816166be565b9050919050565b600061670c8261397b565b91506167178361397b565b9250827fffffffffffffffffffffffffffffffffffffffffffffffffffffffffffffffff0382111561674c5761674b61560e565b5b828201905092915050565b7f6164646974696f6e206f766572666c6f77000000000000000000000000000000600082015250565b600061678d601183613b0b565b915061679882616757565b602082019050919050565b600060208201905081810360008301526167bc81616780565b9050919050565b7f7375627472616374696f6e20756e646572666c6f770000000000000000000000600082015250565b60006167f9601583613b0b565b9150616804826167c3565b602082019050919050565b60006020820190508181036000830152616828816167ec565b9050919050565b600061683a8261397b565b91506168458361397b565b9250828210156168585761685761560e565b5b828203905092915050565b600061686e82613f91565b6168788185615507565b9350616888818560208601613b1c565b61689181613b4f565b840191505092915050565b600060a0820190506168b16000830188613a1f565b6168be60208301876139de565b81810360408301526168d08186613b60565b905081810360608301526168e48185616863565b90506168f360808301846139de565b9695505050505050565b61690681613a2e565b811461691157600080fd5b50565b600081519050616923816168fd565b92915050565b60006020828403121561693f5761693e613971565b5b600061694d84828501616914565b91505092915050565b7f476f7665726e6f72427261766f3a3a71756575654f72526576657274496e746560008201527f726e616c3a206964656e746963616c2070726f706f73616c20616374696f6e2060208201527f616c726561647920717565756564206174206574610000000000000000000000604082015250565b60006169d8605583613b0b565b91506169e382616956565b606082019050919050565b60006020820190508181036000830152616a07816169cb565b9050919050565b600081519050616a1d81614116565b92915050565b600060208284031215616a3957616a38613971565b5b6000616a4784828501616a0e565b9150509291505056fea26469706673582212209cda3ec96b1a72eca37757f4a0df6b880eea705ff1f16e713ea0c5f1da9cbe1564736f6c634300080a0033",
  "linkReferences": {},
  "deployedLinkReferences": {}
}