{
  "_format": "hh-sol-artifact-1",
  "contractName": "Comptroller",
  "sourceName": "contracts/Comptroller.sol",
  "abi": [
    {
      "inputs": [],
      "stateMutability": "nonpayable",
      "type": "constructor"
    },
    {
      "anonymous": false,
      "inputs": [
        {
          "indexed": false,
          "internalType": "string",
          "name": "action",
          "type": "string"
        },
        {
          "indexed": false,
          "internalType": "bool",
          "name": "pauseState",
          "type": "bool"
        }
      ],
      "name": "ActionPaused",
      "type": "event"
    },
    {
      "anonymous": false,
      "inputs": [
        {
          "indexed": false,
          "internalType": "contract CToken",
          "name": "cToken",
          "type": "address"
        },
        {
          "indexed": false,
          "internalType": "string",
          "name": "action",
          "type": "string"
        },
        {
          "indexed": false,
          "internalType": "bool",
          "name": "pauseState",
          "type": "bool"
        }
      ],
      "name": "ActionPaused",
      "type": "event"
    },
    {
      "anonymous": false,
      "inputs": [
        {
          "indexed": true,
          "internalType": "address",
          "name": "user",
          "type": "address"
        },
        {
          "indexed": false,
          "internalType": "uint256",
          "name": "oldCompAccrued",
          "type": "uint256"
        },
        {
          "indexed": false,
          "internalType": "uint256",
          "name": "newCompAccrued",
          "type": "uint256"
        }
      ],
      "name": "CompAccruedAdjusted",
      "type": "event"
    },
    {
      "anonymous": false,
      "inputs": [
        {
          "indexed": true,
          "internalType": "contract CToken",
          "name": "cToken",
          "type": "address"
        },
        {
          "indexed": false,
          "internalType": "uint256",
          "name": "newSpeed",
          "type": "uint256"
        }
      ],
      "name": "CompBorrowSpeedUpdated",
      "type": "event"
    },
    {
      "anonymous": false,
      "inputs": [
        {
          "indexed": false,
          "internalType": "address",
          "name": "recipient",
          "type": "address"
        },
        {
          "indexed": false,
          "internalType": "uint256",
          "name": "amount",
          "type": "uint256"
        }
      ],
      "name": "CompGranted",
      "type": "event"
    },
    {
      "anonymous": false,
      "inputs": [
        {
          "indexed": true,
          "internalType": "address",
          "name": "user",
          "type": "address"
        },
        {
          "indexed": false,
          "internalType": "uint256",
          "name": "oldCompReceivable",
          "type": "uint256"
        },
        {
          "indexed": false,
          "internalType": "uint256",
          "name": "newCompReceivable",
          "type": "uint256"
        }
      ],
      "name": "CompReceivableUpdated",
      "type": "event"
    },
    {
      "anonymous": false,
      "inputs": [
        {
          "indexed": true,
          "internalType": "contract CToken",
          "name": "cToken",
          "type": "address"
        },
        {
          "indexed": false,
          "internalType": "uint256",
          "name": "newSpeed",
          "type": "uint256"
        }
      ],
      "name": "CompSupplySpeedUpdated",
      "type": "event"
    },
    {
      "anonymous": false,
      "inputs": [
        {
          "indexed": true,
          "internalType": "address",
          "name": "contributor",
          "type": "address"
        },
        {
          "indexed": false,
          "internalType": "uint256",
          "name": "newSpeed",
          "type": "uint256"
        }
      ],
      "name": "ContributorCompSpeedUpdated",
      "type": "event"
    },
    {
      "anonymous": false,
      "inputs": [
        {
          "indexed": true,
          "internalType": "contract CToken",
          "name": "cToken",
          "type": "address"
        },
        {
          "indexed": true,
          "internalType": "address",
          "name": "borrower",
          "type": "address"
        },
        {
          "indexed": false,
          "internalType": "uint256",
          "name": "compDelta",
          "type": "uint256"
        },
        {
          "indexed": false,
          "internalType": "uint256",
          "name": "compBorrowIndex",
          "type": "uint256"
        }
      ],
      "name": "DistributedBorrowerComp",
      "type": "event"
    },
    {
      "anonymous": false,
      "inputs": [
        {
          "indexed": true,
          "internalType": "contract CToken",
          "name": "cToken",
          "type": "address"
        },
        {
          "indexed": true,
          "internalType": "address",
          "name": "supplier",
          "type": "address"
        },
        {
          "indexed": false,
          "internalType": "uint256",
          "name": "compDelta",
          "type": "uint256"
        },
        {
          "indexed": false,
          "internalType": "uint256",
          "name": "compSupplyIndex",
          "type": "uint256"
        }
      ],
      "name": "DistributedSupplierComp",
      "type": "event"
    },
    {
      "anonymous": false,
      "inputs": [
        {
          "indexed": false,
          "internalType": "uint256",
          "name": "error",
          "type": "uint256"
        },
        {
          "indexed": false,
          "internalType": "uint256",
          "name": "info",
          "type": "uint256"
        },
        {
          "indexed": false,
          "internalType": "uint256",
          "name": "detail",
          "type": "uint256"
        }
      ],
      "name": "Failure",
      "type": "event"
    },
    {
      "anonymous": false,
      "inputs": [
        {
          "indexed": false,
          "internalType": "contract CToken",
          "name": "cToken",
          "type": "address"
        },
        {
          "indexed": false,
          "internalType": "address",
          "name": "account",
          "type": "address"
        }
      ],
      "name": "MarketEntered",
      "type": "event"
    },
    {
      "anonymous": false,
      "inputs": [
        {
          "indexed": false,
          "internalType": "contract CToken",
          "name": "cToken",
          "type": "address"
        },
        {
          "indexed": false,
          "internalType": "address",
          "name": "account",
          "type": "address"
        }
      ],
      "name": "MarketExited",
      "type": "event"
    },
    {
      "anonymous": false,
      "inputs": [
        {
          "indexed": false,
          "internalType": "contract CToken",
          "name": "cToken",
          "type": "address"
        }
      ],
      "name": "MarketListed",
      "type": "event"
    },
    {
      "anonymous": false,
      "inputs": [
        {
          "indexed": true,
          "internalType": "contract CToken",
          "name": "cToken",
          "type": "address"
        },
        {
          "indexed": false,
          "internalType": "uint256",
          "name": "newBorrowCap",
          "type": "uint256"
        }
      ],
      "name": "NewBorrowCap",
      "type": "event"
    },
    {
      "anonymous": false,
      "inputs": [
        {
          "indexed": false,
          "internalType": "address",
          "name": "oldBorrowCapGuardian",
          "type": "address"
        },
        {
          "indexed": false,
          "internalType": "address",
          "name": "newBorrowCapGuardian",
          "type": "address"
        }
      ],
      "name": "NewBorrowCapGuardian",
      "type": "event"
    },
    {
      "anonymous": false,
      "inputs": [
        {
          "indexed": false,
          "internalType": "uint256",
          "name": "oldCloseFactorMantissa",
          "type": "uint256"
        },
        {
          "indexed": false,
          "internalType": "uint256",
          "name": "newCloseFactorMantissa",
          "type": "uint256"
        }
      ],
      "name": "NewCloseFactor",
      "type": "event"
    },
    {
      "anonymous": false,
      "inputs": [
        {
          "indexed": false,
          "internalType": "contract CToken",
          "name": "cToken",
          "type": "address"
        },
        {
          "indexed": false,
          "internalType": "uint256",
          "name": "oldCollateralFactorMantissa",
          "type": "uint256"
        },
        {
          "indexed": false,
          "internalType": "uint256",
          "name": "newCollateralFactorMantissa",
          "type": "uint256"
        }
      ],
      "name": "NewCollateralFactor",
      "type": "event"
    },
    {
      "anonymous": false,
      "inputs": [
        {
          "indexed": false,
          "internalType": "uint256",
          "name": "oldLiquidationIncentiveMantissa",
          "type": "uint256"
        },
        {
          "indexed": false,
          "internalType": "uint256",
          "name": "newLiquidationIncentiveMantissa",
          "type": "uint256"
        }
      ],
      "name": "NewLiquidationIncentive",
      "type": "event"
    },
    {
      "anonymous": false,
      "inputs": [
        {
          "indexed": false,
          "internalType": "address",
          "name": "oldPauseGuardian",
          "type": "address"
        },
        {
          "indexed": false,
          "internalType": "address",
          "name": "newPauseGuardian",
          "type": "address"
        }
      ],
      "name": "NewPauseGuardian",
      "type": "event"
    },
    {
      "anonymous": false,
      "inputs": [
        {
          "indexed": false,
          "internalType": "contract PriceOracle",
          "name": "oldPriceOracle",
          "type": "address"
        },
        {
          "indexed": false,
          "internalType": "contract PriceOracle",
          "name": "newPriceOracle",
          "type": "address"
        }
      ],
      "name": "NewPriceOracle",
      "type": "event"
    },
    {
      "inputs": [
        {
          "internalType": "contract Unitroller",
          "name": "unitroller",
          "type": "address"
        }
      ],
      "name": "_become",
      "outputs": [],
      "stateMutability": "nonpayable",
      "type": "function"
    },
    {
      "inputs": [],
      "name": "_borrowGuardianPaused",
      "outputs": [
        {
          "internalType": "bool",
          "name": "",
          "type": "bool"
        }
      ],
      "stateMutability": "view",
      "type": "function"
    },
    {
      "inputs": [
        {
          "internalType": "address",
          "name": "recipient",
          "type": "address"
        },
        {
          "internalType": "uint256",
          "name": "amount",
          "type": "uint256"
        }
      ],
      "name": "_grantComp",
      "outputs": [],
      "stateMutability": "nonpayable",
      "type": "function"
    },
    {
      "inputs": [],
      "name": "_mintGuardianPaused",
      "outputs": [
        {
          "internalType": "bool",
          "name": "",
          "type": "bool"
        }
      ],
      "stateMutability": "view",
      "type": "function"
    },
    {
      "inputs": [
        {
          "internalType": "address",
          "name": "newBorrowCapGuardian",
          "type": "address"
        }
      ],
      "name": "_setBorrowCapGuardian",
      "outputs": [],
      "stateMutability": "nonpayable",
      "type": "function"
    },
    {
      "inputs": [
        {
          "internalType": "contract CToken",
          "name": "cToken",
          "type": "address"
        },
        {
          "internalType": "bool",
          "name": "state",
          "type": "bool"
        }
      ],
      "name": "_setBorrowPaused",
      "outputs": [
        {
          "internalType": "bool",
          "name": "",
          "type": "bool"
        }
      ],
      "stateMutability": "nonpayable",
      "type": "function"
    },
    {
      "inputs": [
        {
          "internalType": "uint256",
          "name": "newCloseFactorMantissa",
          "type": "uint256"
        }
      ],
      "name": "_setCloseFactor",
      "outputs": [
        {
          "internalType": "uint256",
          "name": "",
          "type": "uint256"
        }
      ],
      "stateMutability": "nonpayable",
      "type": "function"
    },
    {
      "inputs": [
        {
          "internalType": "contract CToken",
          "name": "cToken",
          "type": "address"
        },
        {
          "internalType": "uint256",
          "name": "newCollateralFactorMantissa",
          "type": "uint256"
        }
      ],
      "name": "_setCollateralFactor",
      "outputs": [
        {
          "internalType": "uint256",
          "name": "",
          "type": "uint256"
        }
      ],
      "stateMutability": "nonpayable",
      "type": "function"
    },
    {
      "inputs": [
        {
          "internalType": "contract CToken[]",
          "name": "cTokens",
          "type": "address[]"
        },
        {
          "internalType": "uint256[]",
          "name": "supplySpeeds",
          "type": "uint256[]"
        },
        {
          "internalType": "uint256[]",
          "name": "borrowSpeeds",
          "type": "uint256[]"
        }
      ],
      "name": "_setCompSpeeds",
      "outputs": [],
      "stateMutability": "nonpayable",
      "type": "function"
    },
    {
      "inputs": [
        {
          "internalType": "address",
          "name": "contributor",
          "type": "address"
        },
        {
          "internalType": "uint256",
          "name": "compSpeed",
          "type": "uint256"
        }
      ],
      "name": "_setContributorCompSpeed",
      "outputs": [],
      "stateMutability": "nonpayable",
      "type": "function"
    },
    {
      "inputs": [
        {
          "internalType": "uint256",
          "name": "newLiquidationIncentiveMantissa",
          "type": "uint256"
        }
      ],
      "name": "_setLiquidationIncentive",
      "outputs": [
        {
          "internalType": "uint256",
          "name": "",
          "type": "uint256"
        }
      ],
      "stateMutability": "nonpayable",
      "type": "function"
    },
    {
      "inputs": [
        {
          "internalType": "contract CToken[]",
          "name": "cTokens",
          "type": "address[]"
        },
        {
          "internalType": "uint256[]",
          "name": "newBorrowCaps",
          "type": "uint256[]"
        }
      ],
      "name": "_setMarketBorrowCaps",
      "outputs": [],
      "stateMutability": "nonpayable",
      "type": "function"
    },
    {
      "inputs": [
        {
          "internalType": "contract CToken",
          "name": "cToken",
          "type": "address"
        },
        {
          "internalType": "bool",
          "name": "state",
          "type": "bool"
        }
      ],
      "name": "_setMintPaused",
      "outputs": [
        {
          "internalType": "bool",
          "name": "",
          "type": "bool"
        }
      ],
      "stateMutability": "nonpayable",
      "type": "function"
    },
    {
      "inputs": [
        {
          "internalType": "address",
          "name": "newPauseGuardian",
          "type": "address"
        }
      ],
      "name": "_setPauseGuardian",
      "outputs": [
        {
          "internalType": "uint256",
          "name": "",
          "type": "uint256"
        }
      ],
      "stateMutability": "nonpayable",
      "type": "function"
    },
    {
      "inputs": [
        {
          "internalType": "contract PriceOracle",
          "name": "newOracle",
          "type": "address"
        }
      ],
      "name": "_setPriceOracle",
      "outputs": [
        {
          "internalType": "uint256",
          "name": "",
          "type": "uint256"
        }
      ],
      "stateMutability": "nonpayable",
      "type": "function"
    },
    {
      "inputs": [
        {
          "internalType": "bool",
          "name": "state",
          "type": "bool"
        }
      ],
      "name": "_setSeizePaused",
      "outputs": [
        {
          "internalType": "bool",
          "name": "",
          "type": "bool"
        }
      ],
      "stateMutability": "nonpayable",
      "type": "function"
    },
    {
      "inputs": [
        {
          "internalType": "bool",
          "name": "state",
          "type": "bool"
        }
      ],
      "name": "_setTransferPaused",
      "outputs": [
        {
          "internalType": "bool",
          "name": "",
          "type": "bool"
        }
      ],
      "stateMutability": "nonpayable",
      "type": "function"
    },
    {
      "inputs": [
        {
          "internalType": "contract CToken",
          "name": "cToken",
          "type": "address"
        }
      ],
      "name": "_supportMarket",
      "outputs": [
        {
          "internalType": "uint256",
          "name": "",
          "type": "uint256"
        }
      ],
      "stateMutability": "nonpayable",
      "type": "function"
    },
    {
      "inputs": [
        {
          "internalType": "address",
          "name": "",
          "type": "address"
        },
        {
          "internalType": "uint256",
          "name": "",
          "type": "uint256"
        }
      ],
      "name": "accountAssets",
      "outputs": [
        {
          "internalType": "contract CToken",
          "name": "",
          "type": "address"
        }
      ],
      "stateMutability": "view",
      "type": "function"
    },
    {
      "inputs": [],
      "name": "admin",
      "outputs": [
        {
          "internalType": "address",
          "name": "",
          "type": "address"
        }
      ],
      "stateMutability": "view",
      "type": "function"
    },
    {
      "inputs": [
        {
          "internalType": "uint256",
          "name": "",
          "type": "uint256"
        }
      ],
      "name": "allMarkets",
      "outputs": [
        {
          "internalType": "contract CToken",
          "name": "",
          "type": "address"
        }
      ],
      "stateMutability": "view",
      "type": "function"
    },
    {
      "inputs": [
        {
          "internalType": "address",
          "name": "cToken",
          "type": "address"
        },
        {
          "internalType": "address",
          "name": "borrower",
          "type": "address"
        },
        {
          "internalType": "uint256",
          "name": "borrowAmount",
          "type": "uint256"
        }
      ],
      "name": "borrowAllowed",
      "outputs": [
        {
          "internalType": "uint256",
          "name": "",
          "type": "uint256"
        }
      ],
      "stateMutability": "nonpayable",
      "type": "function"
    },
    {
      "inputs": [],
      "name": "borrowCapGuardian",
      "outputs": [
        {
          "internalType": "address",
          "name": "",
          "type": "address"
        }
      ],
      "stateMutability": "view",
      "type": "function"
    },
    {
      "inputs": [
        {
          "internalType": "address",
          "name": "",
          "type": "address"
        }
      ],
      "name": "borrowCaps",
      "outputs": [
        {
          "internalType": "uint256",
          "name": "",
          "type": "uint256"
        }
      ],
      "stateMutability": "view",
      "type": "function"
    },
    {
      "inputs": [
        {
          "internalType": "address",
          "name": "",
          "type": "address"
        }
      ],
      "name": "borrowGuardianPaused",
      "outputs": [
        {
          "internalType": "bool",
          "name": "",
          "type": "bool"
        }
      ],
      "stateMutability": "view",
      "type": "function"
    },
    {
      "inputs": [
        {
          "internalType": "address",
          "name": "cToken",
          "type": "address"
        },
        {
          "internalType": "address",
          "name": "borrower",
          "type": "address"
        },
        {
          "internalType": "uint256",
          "name": "borrowAmount",
          "type": "uint256"
        }
      ],
      "name": "borrowVerify",
      "outputs": [],
      "stateMutability": "nonpayable",
      "type": "function"
    },
    {
      "inputs": [
        {
          "internalType": "address",
          "name": "account",
          "type": "address"
        },
        {
          "internalType": "contract CToken",
          "name": "cToken",
          "type": "address"
        }
      ],
      "name": "checkMembership",
      "outputs": [
        {
          "internalType": "bool",
          "name": "",
          "type": "bool"
        }
      ],
      "stateMutability": "view",
      "type": "function"
    },
    {
      "inputs": [
        {
          "internalType": "address",
          "name": "holder",
          "type": "address"
        },
        {
          "internalType": "contract CToken[]",
          "name": "cTokens",
          "type": "address[]"
        }
      ],
      "name": "claimComp",
      "outputs": [],
      "stateMutability": "nonpayable",
      "type": "function"
    },
    {
      "inputs": [
        {
          "internalType": "address[]",
          "name": "holders",
          "type": "address[]"
        },
        {
          "internalType": "contract CToken[]",
          "name": "cTokens",
          "type": "address[]"
        },
        {
          "internalType": "bool",
          "name": "borrowers",
          "type": "bool"
        },
        {
          "internalType": "bool",
          "name": "suppliers",
          "type": "bool"
        }
      ],
      "name": "claimComp",
      "outputs": [],
      "stateMutability": "nonpayable",
      "type": "function"
    },
    {
      "inputs": [
        {
          "internalType": "address",
          "name": "holder",
          "type": "address"
        }
      ],
      "name": "claimComp",
      "outputs": [],
      "stateMutability": "nonpayable",
      "type": "function"
    },
    {
      "inputs": [],
      "name": "closeFactorMantissa",
      "outputs": [
        {
          "internalType": "uint256",
          "name": "",
          "type": "uint256"
        }
      ],
      "stateMutability": "view",
      "type": "function"
    },
    {
      "inputs": [
        {
          "internalType": "address",
          "name": "",
          "type": "address"
        }
      ],
      "name": "compAccrued",
      "outputs": [
        {
          "internalType": "uint256",
          "name": "",
          "type": "uint256"
        }
      ],
      "stateMutability": "view",
      "type": "function"
    },
    {
      "inputs": [
        {
          "internalType": "address",
          "name": "",
          "type": "address"
        }
      ],
      "name": "compBorrowSpeeds",
      "outputs": [
        {
          "internalType": "uint256",
          "name": "",
          "type": "uint256"
        }
      ],
      "stateMutability": "view",
      "type": "function"
    },
    {
      "inputs": [
        {
          "internalType": "address",
          "name": "",
          "type": "address"
        }
      ],
      "name": "compBorrowState",
      "outputs": [
        {
          "internalType": "uint224",
          "name": "index",
          "type": "uint224"
        },
        {
          "internalType": "uint32",
          "name": "block",
          "type": "uint32"
        }
      ],
      "stateMutability": "view",
      "type": "function"
    },
    {
      "inputs": [
        {
          "internalType": "address",
          "name": "",
          "type": "address"
        },
        {
          "internalType": "address",
          "name": "",
          "type": "address"
        }
      ],
      "name": "compBorrowerIndex",
      "outputs": [
        {
          "internalType": "uint256",
          "name": "",
          "type": "uint256"
        }
      ],
      "stateMutability": "view",
      "type": "function"
    },
    {
      "inputs": [
        {
          "internalType": "address",
          "name": "",
          "type": "address"
        }
      ],
      "name": "compContributorSpeeds",
      "outputs": [
        {
          "internalType": "uint256",
          "name": "",
          "type": "uint256"
        }
      ],
      "stateMutability": "view",
      "type": "function"
    },
    {
      "inputs": [],
      "name": "compInitialIndex",
      "outputs": [
        {
          "internalType": "uint224",
          "name": "",
          "type": "uint224"
        }
      ],
      "stateMutability": "view",
      "type": "function"
    },
    {
      "inputs": [],
      "name": "compRate",
      "outputs": [
        {
          "internalType": "uint256",
          "name": "",
          "type": "uint256"
        }
      ],
      "stateMutability": "view",
      "type": "function"
    },
    {
      "inputs": [
        {
          "internalType": "address",
          "name": "",
          "type": "address"
        }
      ],
      "name": "compReceivable",
      "outputs": [
        {
          "internalType": "uint256",
          "name": "",
          "type": "uint256"
        }
      ],
      "stateMutability": "view",
      "type": "function"
    },
    {
      "inputs": [
        {
          "internalType": "address",
          "name": "",
          "type": "address"
        }
      ],
      "name": "compSpeeds",
      "outputs": [
        {
          "internalType": "uint256",
          "name": "",
          "type": "uint256"
        }
      ],
      "stateMutability": "view",
      "type": "function"
    },
    {
      "inputs": [
        {
          "internalType": "address",
          "name": "",
          "type": "address"
        },
        {
          "internalType": "address",
          "name": "",
          "type": "address"
        }
      ],
      "name": "compSupplierIndex",
      "outputs": [
        {
          "internalType": "uint256",
          "name": "",
          "type": "uint256"
        }
      ],
      "stateMutability": "view",
      "type": "function"
    },
    {
      "inputs": [
        {
          "internalType": "address",
          "name": "",
          "type": "address"
        }
      ],
      "name": "compSupplySpeeds",
      "outputs": [
        {
          "internalType": "uint256",
          "name": "",
          "type": "uint256"
        }
      ],
      "stateMutability": "view",
      "type": "function"
    },
    {
      "inputs": [
        {
          "internalType": "address",
          "name": "",
          "type": "address"
        }
      ],
      "name": "compSupplyState",
      "outputs": [
        {
          "internalType": "uint224",
          "name": "index",
          "type": "uint224"
        },
        {
          "internalType": "uint32",
          "name": "block",
          "type": "uint32"
        }
      ],
      "stateMutability": "view",
      "type": "function"
    },
    {
      "inputs": [],
      "name": "comptrollerImplementation",
      "outputs": [
        {
          "internalType": "address",
          "name": "",
          "type": "address"
        }
      ],
      "stateMutability": "view",
      "type": "function"
    },
    {
      "inputs": [
        {
          "internalType": "address[]",
          "name": "cTokens",
          "type": "address[]"
        }
      ],
      "name": "enterMarkets",
      "outputs": [
        {
          "internalType": "uint256[]",
          "name": "",
          "type": "uint256[]"
        }
      ],
      "stateMutability": "nonpayable",
      "type": "function"
    },
    {
      "inputs": [
        {
          "internalType": "address",
          "name": "cTokenAddress",
          "type": "address"
        }
      ],
      "name": "exitMarket",
      "outputs": [
        {
          "internalType": "uint256",
          "name": "",
          "type": "uint256"
        }
      ],
      "stateMutability": "nonpayable",
      "type": "function"
    },
    {
      "inputs": [
        {
          "internalType": "address[]",
          "name": "affectedUsers",
          "type": "address[]"
        },
        {
          "internalType": "uint256[]",
          "name": "amounts",
          "type": "uint256[]"
        }
      ],
      "name": "fixBadAccruals",
      "outputs": [],
      "stateMutability": "nonpayable",
      "type": "function"
    },
    {
      "inputs": [
        {
          "internalType": "address",
          "name": "account",
          "type": "address"
        }
      ],
      "name": "getAccountLiquidity",
      "outputs": [
        {
          "internalType": "uint256",
          "name": "",
          "type": "uint256"
        },
        {
          "internalType": "uint256",
          "name": "",
          "type": "uint256"
        },
        {
          "internalType": "uint256",
          "name": "",
          "type": "uint256"
        }
      ],
      "stateMutability": "view",
      "type": "function"
    },
    {
      "inputs": [],
      "name": "getAllMarkets",
      "outputs": [
        {
          "internalType": "contract CToken[]",
          "name": "",
          "type": "address[]"
        }
      ],
      "stateMutability": "view",
      "type": "function"
    },
    {
      "inputs": [
        {
          "internalType": "address",
          "name": "account",
          "type": "address"
        }
      ],
      "name": "getAssetsIn",
      "outputs": [
        {
          "internalType": "contract CToken[]",
          "name": "",
          "type": "address[]"
        }
      ],
      "stateMutability": "view",
      "type": "function"
    },
    {
      "inputs": [],
      "name": "getBlockNumber",
      "outputs": [
        {
          "internalType": "uint256",
          "name": "",
          "type": "uint256"
        }
      ],
      "stateMutability": "view",
      "type": "function"
    },
    {
      "inputs": [],
      "name": "getCompAddress",
      "outputs": [
        {
          "internalType": "address",
          "name": "",
          "type": "address"
        }
      ],
      "stateMutability": "view",
      "type": "function"
    },
    {
      "inputs": [
        {
          "internalType": "address",
          "name": "account",
          "type": "address"
        },
        {
          "internalType": "address",
          "name": "cTokenModify",
          "type": "address"
        },
        {
          "internalType": "uint256",
          "name": "redeemTokens",
          "type": "uint256"
        },
        {
          "internalType": "uint256",
          "name": "borrowAmount",
          "type": "uint256"
        }
      ],
      "name": "getHypotheticalAccountLiquidity",
      "outputs": [
        {
          "internalType": "uint256",
          "name": "",
          "type": "uint256"
        },
        {
          "internalType": "uint256",
          "name": "",
          "type": "uint256"
        },
        {
          "internalType": "uint256",
          "name": "",
          "type": "uint256"
        }
      ],
      "stateMutability": "view",
      "type": "function"
    },
    {
      "inputs": [],
      "name": "isComptroller",
      "outputs": [
        {
          "internalType": "bool",
          "name": "",
          "type": "bool"
        }
      ],
      "stateMutability": "view",
      "type": "function"
    },
    {
      "inputs": [
        {
          "internalType": "contract CToken",
          "name": "cToken",
          "type": "address"
        }
      ],
      "name": "isDeprecated",
      "outputs": [
        {
          "internalType": "bool",
          "name": "",
          "type": "bool"
        }
      ],
      "stateMutability": "view",
      "type": "function"
    },
    {
      "inputs": [
        {
          "internalType": "address",
          "name": "",
          "type": "address"
        }
      ],
      "name": "lastContributorBlock",
      "outputs": [
        {
          "internalType": "uint256",
          "name": "",
          "type": "uint256"
        }
      ],
      "stateMutability": "view",
      "type": "function"
    },
    {
      "inputs": [
        {
          "internalType": "address",
          "name": "cTokenBorrowed",
          "type": "address"
        },
        {
          "internalType": "address",
          "name": "cTokenCollateral",
          "type": "address"
        },
        {
          "internalType": "address",
          "name": "liquidator",
          "type": "address"
        },
        {
          "internalType": "address",
          "name": "borrower",
          "type": "address"
        },
        {
          "internalType": "uint256",
          "name": "repayAmount",
          "type": "uint256"
        }
      ],
      "name": "liquidateBorrowAllowed",
      "outputs": [
        {
          "internalType": "uint256",
          "name": "",
          "type": "uint256"
        }
      ],
      "stateMutability": "nonpayable",
      "type": "function"
    },
    {
      "inputs": [
        {
          "internalType": "address",
          "name": "cTokenBorrowed",
          "type": "address"
        },
        {
          "internalType": "address",
          "name": "cTokenCollateral",
          "type": "address"
        },
        {
          "internalType": "address",
          "name": "liquidator",
          "type": "address"
        },
        {
          "internalType": "address",
          "name": "borrower",
          "type": "address"
        },
        {
          "internalType": "uint256",
          "name": "actualRepayAmount",
          "type": "uint256"
        },
        {
          "internalType": "uint256",
          "name": "seizeTokens",
          "type": "uint256"
        }
      ],
      "name": "liquidateBorrowVerify",
      "outputs": [],
      "stateMutability": "nonpayable",
      "type": "function"
    },
    {
      "inputs": [
        {
          "internalType": "address",
          "name": "cTokenBorrowed",
          "type": "address"
        },
        {
          "internalType": "address",
          "name": "cTokenCollateral",
          "type": "address"
        },
        {
          "internalType": "uint256",
          "name": "actualRepayAmount",
          "type": "uint256"
        }
      ],
      "name": "liquidateCalculateSeizeTokens",
      "outputs": [
        {
          "internalType": "uint256",
          "name": "",
          "type": "uint256"
        },
        {
          "internalType": "uint256",
          "name": "",
          "type": "uint256"
        }
      ],
      "stateMutability": "view",
      "type": "function"
    },
    {
      "inputs": [],
      "name": "liquidationIncentiveMantissa",
      "outputs": [
        {
          "internalType": "uint256",
          "name": "",
          "type": "uint256"
        }
      ],
      "stateMutability": "view",
      "type": "function"
    },
    {
      "inputs": [
        {
          "internalType": "address",
          "name": "",
          "type": "address"
        }
      ],
      "name": "markets",
      "outputs": [
        {
          "internalType": "bool",
          "name": "isListed",
          "type": "bool"
        },
        {
          "internalType": "uint256",
          "name": "collateralFactorMantissa",
          "type": "uint256"
        },
        {
          "internalType": "bool",
          "name": "isComped",
          "type": "bool"
        }
      ],
      "stateMutability": "view",
      "type": "function"
    },
    {
      "inputs": [],
      "name": "maxAssets",
      "outputs": [
        {
          "internalType": "uint256",
          "name": "",
          "type": "uint256"
        }
      ],
      "stateMutability": "view",
      "type": "function"
    },
    {
      "inputs": [
        {
          "internalType": "address",
          "name": "cToken",
          "type": "address"
        },
        {
          "internalType": "address",
          "name": "minter",
          "type": "address"
        },
        {
          "internalType": "uint256",
          "name": "mintAmount",
          "type": "uint256"
        }
      ],
      "name": "mintAllowed",
      "outputs": [
        {
          "internalType": "uint256",
          "name": "",
          "type": "uint256"
        }
      ],
      "stateMutability": "nonpayable",
      "type": "function"
    },
    {
      "inputs": [
        {
          "internalType": "address",
          "name": "",
          "type": "address"
        }
      ],
      "name": "mintGuardianPaused",
      "outputs": [
        {
          "internalType": "bool",
          "name": "",
          "type": "bool"
        }
      ],
      "stateMutability": "view",
      "type": "function"
    },
    {
      "inputs": [
        {
          "internalType": "address",
          "name": "cToken",
          "type": "address"
        },
        {
          "internalType": "address",
          "name": "minter",
          "type": "address"
        },
        {
          "internalType": "uint256",
          "name": "actualMintAmount",
          "type": "uint256"
        },
        {
          "internalType": "uint256",
          "name": "mintTokens",
          "type": "uint256"
        }
      ],
      "name": "mintVerify",
      "outputs": [],
      "stateMutability": "nonpayable",
      "type": "function"
    },
    {
      "inputs": [],
      "name": "oracle",
      "outputs": [
        {
          "internalType": "contract PriceOracle",
          "name": "",
          "type": "address"
        }
      ],
      "stateMutability": "view",
      "type": "function"
    },
    {
      "inputs": [],
      "name": "pauseGuardian",
      "outputs": [
        {
          "internalType": "address",
          "name": "",
          "type": "address"
        }
      ],
      "stateMutability": "view",
      "type": "function"
    },
    {
      "inputs": [],
      "name": "pendingAdmin",
      "outputs": [
        {
          "internalType": "address",
          "name": "",
          "type": "address"
        }
      ],
      "stateMutability": "view",
      "type": "function"
    },
    {
      "inputs": [],
      "name": "pendingComptrollerImplementation",
      "outputs": [
        {
          "internalType": "address",
          "name": "",
          "type": "address"
        }
      ],
      "stateMutability": "view",
      "type": "function"
    },
    {
      "inputs": [],
      "name": "proposal65FixExecuted",
      "outputs": [
        {
          "internalType": "bool",
          "name": "",
          "type": "bool"
        }
      ],
      "stateMutability": "view",
      "type": "function"
    },
    {
      "inputs": [
        {
          "internalType": "address",
          "name": "cToken",
          "type": "address"
        },
        {
          "internalType": "address",
          "name": "redeemer",
          "type": "address"
        },
        {
          "internalType": "uint256",
          "name": "redeemTokens",
          "type": "uint256"
        }
      ],
      "name": "redeemAllowed",
      "outputs": [
        {
          "internalType": "uint256",
          "name": "",
          "type": "uint256"
        }
      ],
      "stateMutability": "nonpayable",
      "type": "function"
    },
    {
      "inputs": [
        {
          "internalType": "address",
          "name": "cToken",
          "type": "address"
        },
        {
          "internalType": "address",
          "name": "redeemer",
          "type": "address"
        },
        {
          "internalType": "uint256",
          "name": "redeemAmount",
          "type": "uint256"
        },
        {
          "internalType": "uint256",
          "name": "redeemTokens",
          "type": "uint256"
        }
      ],
      "name": "redeemVerify",
      "outputs": [],
      "stateMutability": "nonpayable",
      "type": "function"
    },
    {
      "inputs": [
        {
          "internalType": "address",
          "name": "cToken",
          "type": "address"
        },
        {
          "internalType": "address",
          "name": "payer",
          "type": "address"
        },
        {
          "internalType": "address",
          "name": "borrower",
          "type": "address"
        },
        {
          "internalType": "uint256",
          "name": "repayAmount",
          "type": "uint256"
        }
      ],
      "name": "repayBorrowAllowed",
      "outputs": [
        {
          "internalType": "uint256",
          "name": "",
          "type": "uint256"
        }
      ],
      "stateMutability": "nonpayable",
      "type": "function"
    },
    {
      "inputs": [
        {
          "internalType": "address",
          "name": "cToken",
          "type": "address"
        },
        {
          "internalType": "address",
          "name": "payer",
          "type": "address"
        },
        {
          "internalType": "address",
          "name": "borrower",
          "type": "address"
        },
        {
          "internalType": "uint256",
          "name": "actualRepayAmount",
          "type": "uint256"
        },
        {
          "internalType": "uint256",
          "name": "borrowerIndex",
          "type": "uint256"
        }
      ],
      "name": "repayBorrowVerify",
      "outputs": [],
      "stateMutability": "nonpayable",
      "type": "function"
    },
    {
      "inputs": [
        {
          "internalType": "address",
          "name": "cTokenCollateral",
          "type": "address"
        },
        {
          "internalType": "address",
          "name": "cTokenBorrowed",
          "type": "address"
        },
        {
          "internalType": "address",
          "name": "liquidator",
          "type": "address"
        },
        {
          "internalType": "address",
          "name": "borrower",
          "type": "address"
        },
        {
          "internalType": "uint256",
          "name": "seizeTokens",
          "type": "uint256"
        }
      ],
      "name": "seizeAllowed",
      "outputs": [
        {
          "internalType": "uint256",
          "name": "",
          "type": "uint256"
        }
      ],
      "stateMutability": "nonpayable",
      "type": "function"
    },
    {
      "inputs": [],
      "name": "seizeGuardianPaused",
      "outputs": [
        {
          "internalType": "bool",
          "name": "",
          "type": "bool"
        }
      ],
      "stateMutability": "view",
      "type": "function"
    },
    {
      "inputs": [
        {
          "internalType": "address",
          "name": "cTokenCollateral",
          "type": "address"
        },
        {
          "internalType": "address",
          "name": "cTokenBorrowed",
          "type": "address"
        },
        {
          "internalType": "address",
          "name": "liquidator",
          "type": "address"
        },
        {
          "internalType": "address",
          "name": "borrower",
          "type": "address"
        },
        {
          "internalType": "uint256",
          "name": "seizeTokens",
          "type": "uint256"
        }
      ],
      "name": "seizeVerify",
      "outputs": [],
      "stateMutability": "nonpayable",
      "type": "function"
    },
    {
      "inputs": [
        {
          "internalType": "address",
          "name": "cToken",
          "type": "address"
        },
        {
          "internalType": "address",
          "name": "src",
          "type": "address"
        },
        {
          "internalType": "address",
          "name": "dst",
          "type": "address"
        },
        {
          "internalType": "uint256",
          "name": "transferTokens",
          "type": "uint256"
        }
      ],
      "name": "transferAllowed",
      "outputs": [
        {
          "internalType": "uint256",
          "name": "",
          "type": "uint256"
        }
      ],
      "stateMutability": "nonpayable",
      "type": "function"
    },
    {
      "inputs": [],
      "name": "transferGuardianPaused",
      "outputs": [
        {
          "internalType": "bool",
          "name": "",
          "type": "bool"
        }
      ],
      "stateMutability": "view",
      "type": "function"
    },
    {
      "inputs": [
        {
          "internalType": "address",
          "name": "cToken",
          "type": "address"
        },
        {
          "internalType": "address",
          "name": "src",
          "type": "address"
        },
        {
          "internalType": "address",
          "name": "dst",
          "type": "address"
        },
        {
          "internalType": "uint256",
          "name": "transferTokens",
          "type": "uint256"
        }
      ],
      "name": "transferVerify",
      "outputs": [],
      "stateMutability": "nonpayable",
      "type": "function"
    },
    {
      "inputs": [
        {
          "internalType": "address",
          "name": "contributor",
          "type": "address"
        }
      ],
      "name": "updateContributorRewards",
      "outputs": [],
      "stateMutability": "nonpayable",
      "type": "function"
    }
  ],
  "bytecode": "0x60806040523480156200001157600080fd5b50336000806101000a81548173ffffffffffffffffffffffffffffffffffffffff021916908373ffffffffffffffffffffffffffffffffffffffff160217905550619f5080620000626000396000f3fe608060405234801561001057600080fd5b506004361061048a5760003560e01c8063731f0c2b11610262578063b21be7fd11610151578063dce15449116100ce578063e9af029211610092578063e9af029214610ffe578063eabe7d911461101a578063ede4edd01461104a578063f00a7a921461107a578063f4a433c014611098578063f851a440146110c85761048a565b8063dce1544914610f44578063dcfbc0c714610f74578063e4028eee14610f92578063e6653f3d14610fc2578063e875544614610fe05761048a565b8063c488847b11610115578063c488847b14610e53578063ca0af04314610e84578063cc7ebdc414610eb4578063d02f735114610ee4578063da3d454c14610f145761048a565b8063b21be7fd14610d75578063bb82aa5e14610da5578063bdcdc25814610dc3578063bea6b8b814610df3578063c299823814610e235761048a565b806394b2294b116101df578063a8b43948116101a3578063a8b4394814610ccf578063aa90075414610ceb578063abfceffc14610d09578063ac0b0bb714610d39578063b0772d0b14610d575761048a565b806394b2294b14610c15578063986ab83814610c335780639d1b5a0a14610c63578063a76b3fda14610c81578063a7f0e23114610cb15761048a565b80638c57804e116102265780638c57804e14610b225780638e8f294b14610b535780638ebf636414610b85578063929fe9a114610bb557806394543c1514610be55761048a565b8063731f0c2b14610a6a578063741b252514610a9a5780637dc0d1d014610ab657806385b7beb814610ad457806387f7630314610b045761048a565b80634a5844321161037e5780635ec88c79116102fb5780636a56947e116102bf5780636a56947e146109a15780636aa875b5146109bd5780636b79c38d146109ed5780636d154ea514610a1e5780636d35bf9114610a4e5761048a565b80635ec88c79146108d75780635f5af1aa146109095780635fc7e71e14610939578063607ef6c1146109695780636810dfa6146109855761048a565b806351dff9891161034257806351dff9891461082357806352d84d1e1461083f57806355ee1fe11461086f578063598ee1cb1461089f5780635c778605146108bb5761048a565b80634a584432146107435780634ada90af146107735780634e79238f146107915780634ef4c3e1146107c35780634fd42e17146107f35761048a565b8063267822471161040c5780633bcf7ec1116103d05780633bcf7ec11461069f5780633c94786f146106cf57806341c728b9146106ed57806342cbb15c1461070957806347ef3b3b146107275761048a565b806326782247146105e957806327efe3cb146106075780632d70db7814610623578063317b0b7714610653578063391957d7146106835761048a565b80631d7b33d7116104535780631d7b33d7146105315780631ededc911461056157806321af45691461057d57806324008a621461059b57806324a3d622146105cb5761048a565b80627e3dd21461048f57806316b95e8f146104ad57806318c882a5146104c95780631c3db2e0146104f95780631d504dc614610515575b600080fd5b6104976110e6565b6040516104a49190617848565b60405180910390f35b6104c760048036038101906104c29190617932565b6110eb565b005b6104e360048036038101906104de9190617a4f565b611493565b6040516104f09190617848565b60405180910390f35b610513600480360381019061050e9190617c0a565b611740565b005b61052f600480360381019061052a9190617cb6565b6117ef565b005b61054b60048036038101906105469190617ce3565b611981565b6040516105589190617d29565b60405180910390f35b61057b60048036038101906105769190617d70565b611999565b005b6105856119b1565b6040516105929190617dfa565b60405180910390f35b6105b560048036038101906105b09190617e15565b6119d7565b6040516105c29190617d29565b60405180910390f35b6105d3611afe565b6040516105e09190617dfa565b60405180910390f35b6105f1611b24565b6040516105fe9190617dfa565b60405180910390f35b610621600480360381019061061c9190617e7c565b611b4a565b005b61063d60048036038101906106389190617ebc565b611c20565b60405161064a9190617848565b60405180910390f35b61066d60048036038101906106689190617ee9565b611dfe565b60405161067a9190617d29565b60405180910390f35b61069d60048036038101906106989190617ce3565b611ef4565b005b6106b960048036038101906106b49190617a4f565b612027565b6040516106c69190617848565b60405180910390f35b6106d76122d4565b6040516106e49190617848565b60405180910390f35b61070760048036038101906107029190617f16565b6122e7565b005b6107116122fe565b60405161071e9190617d29565b60405180910390f35b610741600480360381019061073c9190617f7d565b612306565b005b61075d60048036038101906107589190617ce3565b61231f565b60405161076a9190617d29565b60405180910390f35b61077b612337565b6040516107889190617d29565b60405180910390f35b6107ab60048036038101906107a69190617f16565b61233d565b6040516107ba9392919061800a565b60405180910390f35b6107dd60048036038101906107d89190618041565b612380565b6040516107ea9190617d29565b60405180910390f35b61080d60048036038101906108089190617ee9565b6124af565b60405161081a9190617d29565b60405180910390f35b61083d60048036038101906108389190617f16565b61257c565b005b61085960048036038101906108549190617ee9565b6125d2565b60405161086691906180f3565b60405180910390f35b6108896004803603810190610884919061814c565b612611565b6040516108969190617d29565b60405180910390f35b6108b960048036038101906108b49190617e7c565b612738565b005b6108d560048036038101906108d09190618041565b6128bb565b005b6108f160048036038101906108ec9190617ce3565b6128d1565b6040516109009392919061800a565b60405180910390f35b610923600480360381019061091e9190617ce3565b612913565b6040516109309190617d29565b60405180910390f35b610953600480360381019061094e9190618179565b612a5c565b6040516109609190617d29565b60405180910390f35b610983600480360381019061097e919061824a565b612ce5565b005b61099f600480360381019061099a919061838e565b612f63565b005b6109bb60048036038101906109b69190617e15565b61326c565b005b6109d760048036038101906109d29190617ce3565b613283565b6040516109e49190617d29565b60405180910390f35b610a076004803603810190610a029190617ce3565b61329b565b604051610a15929190618483565b60405180910390f35b610a386004803603810190610a339190617ce3565b6132f7565b604051610a459190617848565b60405180910390f35b610a686004803603810190610a639190618179565b613317565b005b610a846004803603810190610a7f9190617ce3565b61332f565b604051610a919190617848565b60405180910390f35b610ab46004803603810190610aaf9190617ce3565b61334f565b005b610abe6134ed565b604051610acb91906184cd565b60405180910390f35b610aee6004803603810190610ae99190617ce3565b613513565b604051610afb9190617d29565b60405180910390f35b610b0c61352b565b604051610b199190617848565b60405180910390f35b610b3c6004803603810190610b379190617ce3565b61353e565b604051610b4a929190618483565b60405180910390f35b610b6d6004803603810190610b689190617ce3565b61359a565b604051610b7c939291906184e8565b60405180910390f35b610b9f6004803603810190610b9a9190617ebc565b6135de565b604051610bac9190617848565b60405180910390f35b610bcf6004803603810190610bca919061851f565b6137bc565b604051610bdc9190617848565b60405180910390f35b610bff6004803603810190610bfa919061855f565b613853565b604051610c0c9190617848565b60405180910390f35b610c1d61397e565b604051610c2a9190617d29565b60405180910390f35b610c4d6004803603810190610c489190617ce3565b613984565b604051610c5a9190617d29565b60405180910390f35b610c6b61399c565b604051610c789190617dfa565b60405180910390f35b610c9b6004803603810190610c96919061855f565b6139b8565b604051610ca89190617d29565b60405180910390f35b610cb9613be6565b604051610cc6919061858c565b60405180910390f35b610ce96004803603810190610ce4919061866a565b613bf9565b005b610cf3613d11565b604051610d009190617d29565b60405180910390f35b610d236004803603810190610d1e9190617ce3565b613d17565b604051610d3091906187cf565b60405180910390f35b610d41613dea565b604051610d4e9190617848565b60405180910390f35b610d5f613dfd565b604051610d6c91906187cf565b60405180910390f35b610d8f6004803603810190610d8a91906187f1565b613e8b565b604051610d9c9190617d29565b60405180910390f35b610dad613eb0565b604051610dba9190617dfa565b60405180910390f35b610ddd6004803603810190610dd89190617e15565b613ed6565b604051610dea9190617d29565b60405180910390f35b610e0d6004803603810190610e089190617ce3565b613f97565b604051610e1a9190617d29565b60405180910390f35b610e3d6004803603810190610e389190618831565b613faf565b604051610e4a9190618938565b60405180910390f35b610e6d6004803603810190610e689190618041565b614088565b604051610e7b92919061895a565b60405180910390f35b610e9e6004803603810190610e9991906187f1565b614320565b604051610eab9190617d29565b60405180910390f35b610ece6004803603810190610ec99190617ce3565b614345565b604051610edb9190617d29565b60405180910390f35b610efe6004803603810190610ef99190618179565b61435d565b604051610f0b9190617d29565b60405180910390f35b610f2e6004803603810190610f299190618041565b6145df565b604051610f3b9190617d29565b60405180910390f35b610f5e6004803603810190610f599190617e7c565b614bdb565b604051610f6b91906180f3565b60405180910390f35b610f7c614c29565b604051610f899190617dfa565b60405180910390f35b610fac6004803603810190610fa79190618983565b614c4f565b604051610fb99190617d29565b60405180910390f35b610fca614ead565b604051610fd79190617848565b60405180910390f35b610fe8614ec0565b604051610ff59190617d29565b60405180910390f35b61101860048036038101906110139190617ce3565b614ec6565b005b611034600480360381019061102f9190618041565b614f59565b6040516110419190617d29565b60405180910390f35b611064600480360381019061105f9190617ce3565b614fbe565b6040516110719190617d29565b60405180910390f35b6110826154cd565b60405161108f9190617848565b60405180910390f35b6110b260048036038101906110ad9190617ce3565b6154e0565b6040516110bf9190617d29565b60405180910390f35b6110d06154f8565b6040516110dd9190617dfa565b60405180910390f35b600181565b60008054906101000a900473ffffffffffffffffffffffffffffffffffffffff1673ffffffffffffffffffffffffffffffffffffffff163373ffffffffffffffffffffffffffffffffffffffff1614611179576040517f08c379a000000000000000000000000000000000000000000000000000000000815260040161117090618a46565b60405180910390fd5b601b60009054906101000a900460ff16156111c9576040517f08c379a00000000000000000000000000000000000000000000000000000000081526004016111c090618ad8565b60405180910390fd5b818190508484905014611211576040517f08c379a000000000000000000000000000000000000000000000000000000000815260040161120890618b44565b60405180910390fd5b60008060008060005b8888905081101561146d5788888281811061123857611237618b64565b5b905060200201602081019061124d9190617ce3565b9450601460008673ffffffffffffffffffffffffffffffffffffffff1673ffffffffffffffffffffffffffffffffffffffff1681526020019081526020016000205493508686828181106112a4576112a3618b64565b5b905060200201359250838311156113b257600084846112c39190618bc2565b90506000601c60008873ffffffffffffffffffffffffffffffffffffffff1673ffffffffffffffffffffffffffffffffffffffff1681526020019081526020016000205490506000611315828461551c565b905080601c60008a73ffffffffffffffffffffffffffffffffffffffff1673ffffffffffffffffffffffffffffffffffffffff168152602001908152602001600020819055508773ffffffffffffffffffffffffffffffffffffffff167f17fea09d9a7ca41b2f9f9118f18f44848a62e9c70d55dd4385131eb2cf1b7e4783836040516113a392919061895a565b60405180910390a28695505050505b600083111561145c576113c58484615532565b915081601460008773ffffffffffffffffffffffffffffffffffffffff1673ffffffffffffffffffffffffffffffffffffffff168152602001908152602001600020819055508473ffffffffffffffffffffffffffffffffffffffff167f4a5c134e28b537a76546993ea37f3b60d9190476df7356d3842aa40902e20f04858460405161145392919061895a565b60405180910390a25b8061146690618bf6565b905061121a565b506001601b60006101000a81548160ff0219169083151502179055505050505050505050565b6000600960008473ffffffffffffffffffffffffffffffffffffffff1673ffffffffffffffffffffffffffffffffffffffff16815260200190815260200160002060000160009054906101000a900460ff16611524576040517f08c379a000000000000000000000000000000000000000000000000000000000815260040161151b90618cb1565b60405180910390fd5b600a60009054906101000a900473ffffffffffffffffffffffffffffffffffffffff1673ffffffffffffffffffffffffffffffffffffffff163373ffffffffffffffffffffffffffffffffffffffff1614806115cb575060008054906101000a900473ffffffffffffffffffffffffffffffffffffffff1673ffffffffffffffffffffffffffffffffffffffff163373ffffffffffffffffffffffffffffffffffffffff16145b61160a576040517f08c379a000000000000000000000000000000000000000000000000000000000815260040161160190618d43565b60405180910390fd5b60008054906101000a900473ffffffffffffffffffffffffffffffffffffffff1673ffffffffffffffffffffffffffffffffffffffff163373ffffffffffffffffffffffffffffffffffffffff161480611668575060011515821515145b6116a7576040517f08c379a000000000000000000000000000000000000000000000000000000000815260040161169e90618daf565b60405180910390fd5b81600c60008573ffffffffffffffffffffffffffffffffffffffff1673ffffffffffffffffffffffffffffffffffffffff16815260200190815260200160002060006101000a81548160ff0219169083151502179055507f71aec636243f9709bb0007ae15e9afb8150ab01716d75fd7573be5cc096e03b0838360405161172f929190618e1b565b60405180910390a181905092915050565b6000600167ffffffffffffffff81111561175d5761175c617acc565b5b60405190808252806020026020018201604052801561178b5781602001602082028036833780820191505090505b50905082816000815181106117a3576117a2618b64565b5b602002602001019073ffffffffffffffffffffffffffffffffffffffff16908173ffffffffffffffffffffffffffffffffffffffff16815250506117ea8183600180612f63565b505050565b8073ffffffffffffffffffffffffffffffffffffffff1663f851a4406040518163ffffffff1660e01b8152600401602060405180830381865afa15801561183a573d6000803e3d6000fd5b505050506040513d601f19601f8201168201806040525081019061185e9190618e6c565b73ffffffffffffffffffffffffffffffffffffffff163373ffffffffffffffffffffffffffffffffffffffff16146118cb576040517f08c379a00000000000000000000000000000000000000000000000000000000081526004016118c290618f0b565b60405180910390fd5b60008173ffffffffffffffffffffffffffffffffffffffff1663c1e803346040518163ffffffff1660e01b81526004016020604051808303816000875af115801561191a573d6000803e3d6000fd5b505050506040513d601f19601f8201168201806040525081019061193e9190618f40565b1461197e576040517f08c379a000000000000000000000000000000000000000000000000000000000815260040161197590618fb9565b60405180910390fd5b50565b600f6020528060005260406000206000915090505481565b6000156119aa576007546007819055505b5050505050565b601560009054906101000a900473ffffffffffffffffffffffffffffffffffffffff1681565b6000600960008673ffffffffffffffffffffffffffffffffffffffff1673ffffffffffffffffffffffffffffffffffffffff16815260200190815260200160002060000160009054906101000a900460ff16611a485760096011811115611a4157611a40618fd9565b5b9050611af6565b600060405180602001604052808773ffffffffffffffffffffffffffffffffffffffff1663aa5af0fd6040518163ffffffff1660e01b8152600401602060405180830381865afa158015611aa0573d6000803e3d6000fd5b505050506040513d601f19601f82011682018060405250810190611ac49190618f40565b8152509050611ad38682615548565b611ade868583615868565b60006011811115611af257611af1618fd9565b5b9150505b949350505050565b600a60009054906101000a900473ffffffffffffffffffffffffffffffffffffffff1681565b600160009054906101000a900473ffffffffffffffffffffffffffffffffffffffff1681565b611b52615c24565b611b91576040517f08c379a0000000000000000000000000000000000000000000000000000000008152600401611b8890619054565b60405180910390fd5b6000611b9d8383615cd3565b905060008114611be2576040517f08c379a0000000000000000000000000000000000000000000000000000000008152600401611bd9906190c0565b60405180910390fd5b7f98b2f82a3a07f223a0be64b3d0f47711c64dccd1feafb94aa28156b38cd9695c8383604051611c139291906190e0565b60405180910390a1505050565b6000600a60009054906101000a900473ffffffffffffffffffffffffffffffffffffffff1673ffffffffffffffffffffffffffffffffffffffff163373ffffffffffffffffffffffffffffffffffffffff161480611cc9575060008054906101000a900473ffffffffffffffffffffffffffffffffffffffff1673ffffffffffffffffffffffffffffffffffffffff163373ffffffffffffffffffffffffffffffffffffffff16145b611d08576040517f08c379a0000000000000000000000000000000000000000000000000000000008152600401611cff90618d43565b60405180910390fd5b60008054906101000a900473ffffffffffffffffffffffffffffffffffffffff1673ffffffffffffffffffffffffffffffffffffffff163373ffffffffffffffffffffffffffffffffffffffff161480611d66575060011515821515145b611da5576040517f08c379a0000000000000000000000000000000000000000000000000000000008152600401611d9c90618daf565b60405180910390fd5b81600a60176101000a81548160ff0219169083151502179055507fef159d9a32b2472e32b098f954f3ce62d232939f1c207070b584df1814de2de082604051611dee9190619155565b60405180910390a1819050919050565b60008060009054906101000a900473ffffffffffffffffffffffffffffffffffffffff1673ffffffffffffffffffffffffffffffffffffffff163373ffffffffffffffffffffffffffffffffffffffff1614611e8f576040517f08c379a0000000000000000000000000000000000000000000000000000000008152600401611e86906191cf565b60405180910390fd5b60006005549050826005819055507f3b9670cf975d26958e754b57098eaa2ac914d8d2a31b83257997b9f346110fd981600554604051611ed092919061895a565b60405180910390a160006011811115611eec57611eeb618fd9565b5b915050919050565b60008054906101000a900473ffffffffffffffffffffffffffffffffffffffff1673ffffffffffffffffffffffffffffffffffffffff163373ffffffffffffffffffffffffffffffffffffffff1614611f82576040517f08c379a0000000000000000000000000000000000000000000000000000000008152600401611f7990619261565b60405180910390fd5b6000601560009054906101000a900473ffffffffffffffffffffffffffffffffffffffff16905081601560006101000a81548173ffffffffffffffffffffffffffffffffffffffff021916908373ffffffffffffffffffffffffffffffffffffffff1602179055507feda98690e518e9a05f8ec6837663e188211b2da8f4906648b323f2c1d4434e29818360405161201b929190619281565b60405180910390a15050565b6000600960008473ffffffffffffffffffffffffffffffffffffffff1673ffffffffffffffffffffffffffffffffffffffff16815260200190815260200160002060000160009054906101000a900460ff166120b8576040517f08c379a00000000000000000000000000000000000000000000000000000000081526004016120af90618cb1565b60405180910390fd5b600a60009054906101000a900473ffffffffffffffffffffffffffffffffffffffff1673ffffffffffffffffffffffffffffffffffffffff163373ffffffffffffffffffffffffffffffffffffffff16148061215f575060008054906101000a900473ffffffffffffffffffffffffffffffffffffffff1673ffffffffffffffffffffffffffffffffffffffff163373ffffffffffffffffffffffffffffffffffffffff16145b61219e576040517f08c379a000000000000000000000000000000000000000000000000000000000815260040161219590618d43565b60405180910390fd5b60008054906101000a900473ffffffffffffffffffffffffffffffffffffffff1673ffffffffffffffffffffffffffffffffffffffff163373ffffffffffffffffffffffffffffffffffffffff1614806121fc575060011515821515145b61223b576040517f08c379a000000000000000000000000000000000000000000000000000000000815260040161223290618daf565b60405180910390fd5b81600b60008573ffffffffffffffffffffffffffffffffffffffff1673ffffffffffffffffffffffffffffffffffffffff16815260200190815260200160002060006101000a81548160ff0219169083151502179055507f71aec636243f9709bb0007ae15e9afb8150ab01716d75fd7573be5cc096e03b083836040516122c39291906192f6565b60405180910390a181905092915050565b600a60149054906101000a900460ff1681565b6000156122f8576007546007819055505b50505050565b600043905090565b600015612317576007546007819055505b505050505050565b60166020528060005260406000206000915090505481565b60065481565b6000806000806000806123528a8a8a8a615e09565b92509250925082601181111561236b5761236a618fd9565b5b82829550955095505050509450945094915050565b6000600b60008573ffffffffffffffffffffffffffffffffffffffff1673ffffffffffffffffffffffffffffffffffffffff16815260200190815260200160002060009054906101000a900460ff161561240f576040517f08c379a00000000000000000000000000000000000000000000000000000000081526004016124069061937e565b60405180910390fd5b600960008573ffffffffffffffffffffffffffffffffffffffff1673ffffffffffffffffffffffffffffffffffffffff16815260200190815260200160002060000160009054906101000a900460ff1661247e576009601181111561247757612476618fd9565b5b90506124a8565b61248784616267565b612491848461657d565b600060118111156124a5576124a4618fd9565b5b90505b9392505050565b60008060009054906101000a900473ffffffffffffffffffffffffffffffffffffffff1673ffffffffffffffffffffffffffffffffffffffff163373ffffffffffffffffffffffffffffffffffffffff1614612518576125116001600b61692f565b9050612577565b60006006549050826006819055507faeba5a6c40a8ac138134bff1aaa65debf25971188a58804bad717f82f0ec1316818460405161255792919061895a565b60405180910390a16000601181111561257357612572618fd9565b5b9150505b919050565b60008114801561258c5750600082115b156125cc576040517f08c379a00000000000000000000000000000000000000000000000000000000081526004016125c3906193ea565b60405180910390fd5b50505050565b600d81815481106125e257600080fd5b906000526020600020016000915054906101000a900473ffffffffffffffffffffffffffffffffffffffff1681565b60008060009054906101000a900473ffffffffffffffffffffffffffffffffffffffff1673ffffffffffffffffffffffffffffffffffffffff163373ffffffffffffffffffffffffffffffffffffffff161461267a576126736001601061692f565b9050612733565b6000600460009054906101000a900473ffffffffffffffffffffffffffffffffffffffff16905082600460006101000a81548173ffffffffffffffffffffffffffffffffffffffff021916908373ffffffffffffffffffffffffffffffffffffffff1602179055507fd52b2b9b7e9ee655fcb95d2e5b9e0c9f69e7ef2b8e9d2d0ea78402d576d22e22818460405161271392919061940a565b60405180910390a16000601181111561272f5761272e618fd9565b5b9150505b919050565b612740615c24565b61277f576040517f08c379a00000000000000000000000000000000000000000000000000000000081526004016127769061947f565b60405180910390fd5b6127888261334f565b60008114156127d957601860008373ffffffffffffffffffffffffffffffffffffffff1673ffffffffffffffffffffffffffffffffffffffff16815260200190815260200160002060009055612825565b6127e16122fe565b601860008473ffffffffffffffffffffffffffffffffffffffff1673ffffffffffffffffffffffffffffffffffffffff168152602001908152602001600020819055505b80601760008473ffffffffffffffffffffffffffffffffffffffff1673ffffffffffffffffffffffffffffffffffffffff168152602001908152602001600020819055508173ffffffffffffffffffffffffffffffffffffffff167f386537fa92edc3319af95f1f904dcf1900021e4f3f4e08169a577a09076e66b3826040516128af9190617d29565b60405180910390a25050565b6000156128cc576007546007819055505b505050565b6000806000806000806128e8876000806000615e09565b92509250925082601181111561290157612900618fd9565b5b82829550955095505050509193909250565b60008060009054906101000a900473ffffffffffffffffffffffffffffffffffffffff1673ffffffffffffffffffffffffffffffffffffffff163373ffffffffffffffffffffffffffffffffffffffff161461297c576129756001601361692f565b9050612a57565b6000600a60009054906101000a900473ffffffffffffffffffffffffffffffffffffffff16905082600a60006101000a81548173ffffffffffffffffffffffffffffffffffffffff021916908373ffffffffffffffffffffffffffffffffffffffff1602179055507f0613b6ee6a04f0d09f390e4d9318894b9f6ac7fd83897cd8d18896ba579c401e81600a60009054906101000a900473ffffffffffffffffffffffffffffffffffffffff16604051612a37929190619281565b60405180910390a160006011811115612a5357612a52618fd9565b5b9150505b919050565b6000600960008773ffffffffffffffffffffffffffffffffffffffff1673ffffffffffffffffffffffffffffffffffffffff16815260200190815260200160002060000160009054906101000a900460ff161580612b075750600960008673ffffffffffffffffffffffffffffffffffffffff1673ffffffffffffffffffffffffffffffffffffffff16815260200190815260200160002060000160009054906101000a900460ff16155b15612b275760096011811115612b2057612b1f618fd9565b5b9050612cdc565b60008673ffffffffffffffffffffffffffffffffffffffff166395dd9193856040518263ffffffff1660e01b8152600401612b629190617dfa565b602060405180830381865afa158015612b7f573d6000803e3d6000fd5b505050506040513d601f19601f82011682018060405250810190612ba39190618f40565b9050612bae87613853565b15612bfb5782811015612bf6576040517f08c379a0000000000000000000000000000000000000000000000000000000008152600401612bed90619511565b60405180910390fd5b612cc4565b600080612c07866169ac565b925050915060006011811115612c2057612c1f618fd9565b5b826011811115612c3357612c32618fd9565b5b14612c5557816011811115612c4b57612c4a618fd9565b5b9350505050612cdc565b6000811415612c7c5760036011811115612c7257612c71618fd9565b5b9350505050612cdc565b6000612c986040518060200160405280600554815250856169cc565b905080861115612cc057601180811115612cb557612cb4618fd9565b5b945050505050612cdc565b5050505b60006011811115612cd857612cd7618fd9565b5b9150505b95945050505050565b60008054906101000a900473ffffffffffffffffffffffffffffffffffffffff1673ffffffffffffffffffffffffffffffffffffffff163373ffffffffffffffffffffffffffffffffffffffff161480612d8c5750601560009054906101000a900473ffffffffffffffffffffffffffffffffffffffff1673ffffffffffffffffffffffffffffffffffffffff163373ffffffffffffffffffffffffffffffffffffffff16145b612dcb576040517f08c379a0000000000000000000000000000000000000000000000000000000008152600401612dc2906195a3565b60405180910390fd5b6000848490509050600083839050905060008214158015612deb57508082145b612e2a576040517f08c379a0000000000000000000000000000000000000000000000000000000008152600401612e219061960f565b60405180910390fd5b60005b82811015612f5a57848482818110612e4857612e47618b64565b5b9050602002013560166000898985818110612e6657612e65618b64565b5b9050602002016020810190612e7b919061855f565b73ffffffffffffffffffffffffffffffffffffffff1673ffffffffffffffffffffffffffffffffffffffff16815260200190815260200160002081905550868682818110612ecc57612ecb618b64565b5b9050602002016020810190612ee1919061855f565b73ffffffffffffffffffffffffffffffffffffffff167f6f1951b2aad10f3fc81b86d91105b413a5b3f847a34bbc5ce1904201b14438f6868684818110612f2b57612f2a618b64565b5b90506020020135604051612f3f9190617d29565b60405180910390a28080612f5290618bf6565b915050612e2d565b50505050505050565b60005b835181101561316b576000848281518110612f8457612f83618b64565b5b60200260200101519050600960008273ffffffffffffffffffffffffffffffffffffffff1673ffffffffffffffffffffffffffffffffffffffff16815260200190815260200160002060000160009054906101000a900460ff1661301d576040517f08c379a00000000000000000000000000000000000000000000000000000000081526004016130149061967b565b60405180910390fd5b6001151584151514156130fc57600060405180602001604052808373ffffffffffffffffffffffffffffffffffffffff1663aa5af0fd6040518163ffffffff1660e01b8152600401602060405180830381865afa158015613082573d6000803e3d6000fd5b505050506040513d601f19601f820116820180604052508101906130a69190618f40565b81525090506130b58282615548565b60005b87518110156130f9576130e6838983815181106130d8576130d7618b64565b5b602002602001015184615868565b80806130f190618bf6565b9150506130b8565b50505b6001151583151514156131575761311281616267565b60005b8651811015613155576131428288838151811061313557613134618b64565b5b602002602001015161657d565b808061314d90618bf6565b915050613115565b505b50808061316390618bf6565b915050612f66565b5060005b8451811015613265576131f585828151811061318e5761318d618b64565b5b6020026020010151601460008885815181106131ad576131ac618b64565b5b602002602001015173ffffffffffffffffffffffffffffffffffffffff1673ffffffffffffffffffffffffffffffffffffffff16815260200190815260200160002054615cd3565b6014600087848151811061320c5761320b618b64565b5b602002602001015173ffffffffffffffffffffffffffffffffffffffff1673ffffffffffffffffffffffffffffffffffffffff16815260200190815260200160002081905550808061325d90618bf6565b91505061316f565b5050505050565b60001561327d576007546007819055505b50505050565b601a6020528060005260406000206000915090505481565b60106020528060005260406000206000915090508060000160009054906101000a90047bffffffffffffffffffffffffffffffffffffffffffffffffffffffff169080600001601c9054906101000a900463ffffffff16905082565b600c6020528060005260406000206000915054906101000a900460ff1681565b600015613328576007546007819055505b5050505050565b600b6020528060005260406000206000915054906101000a900460ff1681565b6000601760008373ffffffffffffffffffffffffffffffffffffffff1673ffffffffffffffffffffffffffffffffffffffff168152602001908152602001600020549050600061339d6122fe565b905060006133ea82601860008773ffffffffffffffffffffffffffffffffffffffff1673ffffffffffffffffffffffffffffffffffffffff16815260200190815260200160002054615532565b90506000811180156133fc5750600083115b156134e757600061340d82856169ed565b9050600061345a601460008873ffffffffffffffffffffffffffffffffffffffff1673ffffffffffffffffffffffffffffffffffffffff168152602001908152602001600020548361551c565b905080601460008873ffffffffffffffffffffffffffffffffffffffff1673ffffffffffffffffffffffffffffffffffffffff1681526020019081526020016000208190555083601860008873ffffffffffffffffffffffffffffffffffffffff1673ffffffffffffffffffffffffffffffffffffffff1681526020019081526020016000208190555050505b50505050565b600460009054906101000a900473ffffffffffffffffffffffffffffffffffffffff1681565b601c6020528060005260406000206000915090505481565b600a60169054906101000a900460ff1681565b60116020528060005260406000206000915090508060000160009054906101000a90047bffffffffffffffffffffffffffffffffffffffffffffffffffffffff169080600001601c9054906101000a900463ffffffff16905082565b60096020528060005260406000206000915090508060000160009054906101000a900460ff16908060010154908060030160009054906101000a900460ff16905083565b6000600a60009054906101000a900473ffffffffffffffffffffffffffffffffffffffff1673ffffffffffffffffffffffffffffffffffffffff163373ffffffffffffffffffffffffffffffffffffffff161480613687575060008054906101000a900473ffffffffffffffffffffffffffffffffffffffff1673ffffffffffffffffffffffffffffffffffffffff163373ffffffffffffffffffffffffffffffffffffffff16145b6136c6576040517f08c379a00000000000000000000000000000000000000000000000000000000081526004016136bd90618d43565b60405180910390fd5b60008054906101000a900473ffffffffffffffffffffffffffffffffffffffff1673ffffffffffffffffffffffffffffffffffffffff163373ffffffffffffffffffffffffffffffffffffffff161480613724575060011515821515145b613763576040517f08c379a000000000000000000000000000000000000000000000000000000000815260040161375a90618daf565b60405180910390fd5b81600a60166101000a81548160ff0219169083151502179055507fef159d9a32b2472e32b098f954f3ce62d232939f1c207070b584df1814de2de0826040516137ac91906196e7565b60405180910390a1819050919050565b6000600960008373ffffffffffffffffffffffffffffffffffffffff1673ffffffffffffffffffffffffffffffffffffffff16815260200190815260200160002060020160008473ffffffffffffffffffffffffffffffffffffffff1673ffffffffffffffffffffffffffffffffffffffff16815260200190815260200160002060009054906101000a900460ff16905092915050565b600080600960008473ffffffffffffffffffffffffffffffffffffffff1673ffffffffffffffffffffffffffffffffffffffff168152602001908152602001600020600101541480156138f6575060011515600c60008473ffffffffffffffffffffffffffffffffffffffff1673ffffffffffffffffffffffffffffffffffffffff16815260200190815260200160002060009054906101000a900460ff161515145b80156139775750670de0b6b3a76400008273ffffffffffffffffffffffffffffffffffffffff1663173b99046040518163ffffffff1660e01b8152600401602060405180830381865afa158015613951573d6000803e3d6000fd5b505050506040513d601f19601f820116820180604052508101906139759190618f40565b145b9050919050565b60075481565b60176020528060005260406000206000915090505481565b600073c00e94cb662c3520282e6f5717214004a7f26888905090565b60008060009054906101000a900473ffffffffffffffffffffffffffffffffffffffff1673ffffffffffffffffffffffffffffffffffffffff163373ffffffffffffffffffffffffffffffffffffffff1614613a2157613a1a6001601261692f565b9050613be1565b600960008373ffffffffffffffffffffffffffffffffffffffff1673ffffffffffffffffffffffffffffffffffffffff16815260200190815260200160002060000160009054906101000a900460ff1615613a8957613a82600a601161692f565b9050613be1565b8173ffffffffffffffffffffffffffffffffffffffff1663fe9c44ae6040518163ffffffff1660e01b8152600401602060405180830381865afa158015613ad4573d6000803e3d6000fd5b505050506040513d601f19601f82011682018060405250810190613af8919061972a565b506000600960008473ffffffffffffffffffffffffffffffffffffffff1673ffffffffffffffffffffffffffffffffffffffff168152602001908152602001600020905060018160000160006101000a81548160ff02191690831515021790555060008160030160006101000a81548160ff02191690831515021790555060008160010181905550613b8983616a03565b613b9283616b3a565b7fcf583bb0c569eb967f806b11601c4cb93c10310485c67add5f8362c2f212321f83604051613bc191906180f3565b60405180910390a160006011811115613bdd57613bdc618fd9565b5b9150505b919050565b6ec097ce7bc90715b34b9f100000000081565b613c01615c24565b613c40576040517f08c379a0000000000000000000000000000000000000000000000000000000008152600401613c379061947f565b60405180910390fd5b600083519050825181148015613c565750815181145b613c95576040517f08c379a0000000000000000000000000000000000000000000000000000000008152600401613c8c906197c9565b60405180910390fd5b60005b81811015613d0a57613cf9858281518110613cb657613cb5618b64565b5b6020026020010151858381518110613cd157613cd0618b64565b5b6020026020010151858481518110613cec57613ceb618b64565b5b6020026020010151616dc0565b80613d0390618bf6565b9050613c98565b5050505050565b600e5481565b60606000600860008473ffffffffffffffffffffffffffffffffffffffff1673ffffffffffffffffffffffffffffffffffffffff168152602001908152602001600020805480602002602001604051908101604052809291908181526020018280548015613dda57602002820191906000526020600020905b8160009054906101000a900473ffffffffffffffffffffffffffffffffffffffff1673ffffffffffffffffffffffffffffffffffffffff1681526020019060010190808311613d90575b5050505050905080915050919050565b600a60179054906101000a900460ff1681565b6060600d805480602002602001604051908101604052809291908181526020018280548015613e8157602002820191906000526020600020905b8160009054906101000a900473ffffffffffffffffffffffffffffffffffffffff1673ffffffffffffffffffffffffffffffffffffffff1681526020019060010190808311613e37575b5050505050905090565b6012602052816000526040600020602052806000526040600020600091509150505481565b600260009054906101000a900473ffffffffffffffffffffffffffffffffffffffff1681565b6000600a60169054906101000a900460ff1615613f28576040517f08c379a0000000000000000000000000000000000000000000000000000000008152600401613f1f90619835565b60405180910390fd5b6000613f358686856170a1565b905060006011811115613f4b57613f4a618fd9565b5b8114613f5a5780915050613f8f565b613f6386616267565b613f6d868661657d565b613f77868561657d565b60006011811115613f8b57613f8a618fd9565b5b9150505b949350505050565b60186020528060005260406000206000915090505481565b606060008251905060008167ffffffffffffffff811115613fd357613fd2617acc565b5b6040519080825280602002602001820160405280156140015781602001602082028036833780820191505090505b50905060005b8281101561407d57600085828151811061402457614023618b64565b5b602002602001015190506140388133617261565b601181111561404a57614049618fd9565b5b83838151811061405d5761405c618b64565b5b60200260200101818152505050808061407590618bf6565b915050614007565b508092505050919050565b6000806000600460009054906101000a900473ffffffffffffffffffffffffffffffffffffffff1673ffffffffffffffffffffffffffffffffffffffff1663fc57d4df876040518263ffffffff1660e01b81526004016140e891906180f3565b602060405180830381865afa158015614105573d6000803e3d6000fd5b505050506040513d601f19601f820116820180604052508101906141299190618f40565b90506000600460009054906101000a900473ffffffffffffffffffffffffffffffffffffffff1673ffffffffffffffffffffffffffffffffffffffff1663fc57d4df876040518263ffffffff1660e01b815260040161418891906180f3565b602060405180830381865afa1580156141a5573d6000803e3d6000fd5b505050506040513d601f19601f820116820180604052508101906141c99190618f40565b905060008214806141da5750600081145b1561420057600d60118111156141f3576141f2618fd9565b5b6000935093505050614318565b60008673ffffffffffffffffffffffffffffffffffffffff1663182df0f56040518163ffffffff1660e01b8152600401602060405180830381865afa15801561424d573d6000803e3d6000fd5b505050506040513d601f19601f820116820180604052508101906142719190618f40565b9050600061427d61779c565b61428561779c565b61428d61779c565b6142b5604051806020016040528060065481525060405180602001604052808a815250617469565b92506142dd604051806020016040528088815250604051806020016040528088815250617469565b91506142e983836174ac565b90506142f5818b6169cc565b93506000601181111561430b5761430a618fd9565b5b8498509850505050505050505b935093915050565b6013602052816000526040600020602052806000526040600020600091509150505481565b60146020528060005260406000206000915090505481565b6000600a60179054906101000a900460ff16156143af576040517f08c379a00000000000000000000000000000000000000000000000000000000081526004016143a6906198a1565b60405180910390fd5b600960008773ffffffffffffffffffffffffffffffffffffffff1673ffffffffffffffffffffffffffffffffffffffff16815260200190815260200160002060000160009054906101000a900460ff1615806144585750600960008673ffffffffffffffffffffffffffffffffffffffff1673ffffffffffffffffffffffffffffffffffffffff16815260200190815260200160002060000160009054906101000a900460ff16155b15614478576009601181111561447157614470618fd9565b5b90506145d6565b8473ffffffffffffffffffffffffffffffffffffffff16635fe3b5676040518163ffffffff1660e01b8152600401602060405180830381865afa1580156144c3573d6000803e3d6000fd5b505050506040513d601f19601f820116820180604052508101906144e791906198ff565b73ffffffffffffffffffffffffffffffffffffffff168673ffffffffffffffffffffffffffffffffffffffff16635fe3b5676040518163ffffffff1660e01b8152600401602060405180830381865afa158015614548573d6000803e3d6000fd5b505050506040513d601f19601f8201168201806040525081019061456c91906198ff565b73ffffffffffffffffffffffffffffffffffffffff16146145a2576002601181111561459b5761459a618fd9565b5b90506145d6565b6145ab86616267565b6145b5868461657d565b6145bf868561657d565b600060118111156145d3576145d2618fd9565b5b90505b95945050505050565b6000600c60008573ffffffffffffffffffffffffffffffffffffffff1673ffffffffffffffffffffffffffffffffffffffff16815260200190815260200160002060009054906101000a900460ff161561466e576040517f08c379a000000000000000000000000000000000000000000000000000000000815260040161466590619978565b60405180910390fd5b600960008573ffffffffffffffffffffffffffffffffffffffff1673ffffffffffffffffffffffffffffffffffffffff16815260200190815260200160002060000160009054906101000a900460ff166146dd57600960118111156146d6576146d5618fd9565b5b9050614bd4565b600960008573ffffffffffffffffffffffffffffffffffffffff1673ffffffffffffffffffffffffffffffffffffffff16815260200190815260200160002060020160008473ffffffffffffffffffffffffffffffffffffffff1673ffffffffffffffffffffffffffffffffffffffff16815260200190815260200160002060009054906101000a900460ff166148cd578373ffffffffffffffffffffffffffffffffffffffff163373ffffffffffffffffffffffffffffffffffffffff16146147dc576040517f08c379a00000000000000000000000000000000000000000000000000000000081526004016147d3906199e4565b60405180910390fd5b60006147e83385617261565b9050600060118111156147fe576147fd618fd9565b5b81601181111561481157614810618fd9565b5b146148315780601181111561482957614828618fd9565b5b915050614bd4565b600960008673ffffffffffffffffffffffffffffffffffffffff1673ffffffffffffffffffffffffffffffffffffffff16815260200190815260200160002060020160008573ffffffffffffffffffffffffffffffffffffffff1673ffffffffffffffffffffffffffffffffffffffff16815260200190815260200160002060009054906101000a900460ff166148cb576148ca619a04565b5b505b6000600460009054906101000a900473ffffffffffffffffffffffffffffffffffffffff1673ffffffffffffffffffffffffffffffffffffffff1663fc57d4df866040518263ffffffff1660e01b815260040161492a91906180f3565b602060405180830381865afa158015614947573d6000803e3d6000fd5b505050506040513d601f19601f8201168201806040525081019061496b9190618f40565b141561498c57600d601181111561498557614984618fd9565b5b9050614bd4565b6000601660008673ffffffffffffffffffffffffffffffffffffffff1673ffffffffffffffffffffffffffffffffffffffff16815260200190815260200160002054905060008114614a9e5760008573ffffffffffffffffffffffffffffffffffffffff166347bd37186040518163ffffffff1660e01b8152600401602060405180830381865afa158015614a25573d6000803e3d6000fd5b505050506040513d601f19601f82011682018060405250810190614a499190618f40565b90506000614a57828661551c565b9050828110614a9b576040517f08c379a0000000000000000000000000000000000000000000000000000000008152600401614a9290619a7f565b60405180910390fd5b50505b600080614aae8688600088615e09565b925050915060006011811115614ac757614ac6618fd9565b5b826011811115614ada57614ad9618fd9565b5b14614afc57816011811115614af257614af1618fd9565b5b9350505050614bd4565b6000811115614b235760046011811115614b1957614b18618fd9565b5b9350505050614bd4565b600060405180602001604052808973ffffffffffffffffffffffffffffffffffffffff1663aa5af0fd6040518163ffffffff1660e01b8152600401602060405180830381865afa158015614b7b573d6000803e3d6000fd5b505050506040513d601f19601f82011682018060405250810190614b9f9190618f40565b8152509050614bae8882615548565b614bb9888883615868565b60006011811115614bcd57614bcc618fd9565b5b9450505050505b9392505050565b60086020528160005260406000208181548110614bf757600080fd5b906000526020600020016000915091509054906101000a900473ffffffffffffffffffffffffffffffffffffffff1681565b600360009054906101000a900473ffffffffffffffffffffffffffffffffffffffff1681565b60008060009054906101000a900473ffffffffffffffffffffffffffffffffffffffff1673ffffffffffffffffffffffffffffffffffffffff163373ffffffffffffffffffffffffffffffffffffffff1614614cb857614cb16001600661692f565b9050614ea7565b6000600960008573ffffffffffffffffffffffffffffffffffffffff1673ffffffffffffffffffffffffffffffffffffffff16815260200190815260200160002090508060000160009054906101000a900460ff16614d2557614d1d6009600761692f565b915050614ea7565b6000604051806020016040528085815250905060006040518060200160405280670c7d713b49da00008152509050614d5d81836174ed565b15614d7857614d6e6006600861692f565b9350505050614ea7565b60008514158015614e2457506000600460009054906101000a900473ffffffffffffffffffffffffffffffffffffffff1673ffffffffffffffffffffffffffffffffffffffff1663fc57d4df886040518263ffffffff1660e01b8152600401614de191906180f3565b602060405180830381865afa158015614dfe573d6000803e3d6000fd5b505050506040513d601f19601f82011682018060405250810190614e229190618f40565b145b15614e3f57614e35600d600961692f565b9350505050614ea7565b6000836001015490508584600101819055507f70483e6592cd5182d45ac970e05bc62cdcc90e9d8ef2c2dbe686cf383bcd7fc5878288604051614e8493929190619a9f565b60405180910390a160006011811115614ea057614e9f618fd9565b5b9450505050505b92915050565b600a60159054906101000a900460ff1681565b60055481565b614f5681600d805480602002602001604051908101604052809291908181526020018280548015614f4c57602002820191906000526020600020905b8160009054906101000a900473ffffffffffffffffffffffffffffffffffffffff1673ffffffffffffffffffffffffffffffffffffffff1681526020019060010190808311614f02575b5050505050611740565b50565b600080614f678585856170a1565b905060006011811115614f7d57614f7c618fd9565b5b8114614f8c5780915050614fb7565b614f9585616267565b614f9f858561657d565b60006011811115614fb357614fb2618fd9565b5b9150505b9392505050565b60008082905060008060008373ffffffffffffffffffffffffffffffffffffffff1663c37f68e2336040518263ffffffff1660e01b81526004016150029190617dfa565b608060405180830381865afa15801561501f573d6000803e3d6000fd5b505050506040513d601f19601f820116820180604052508101906150439190619ad6565b509250925092506000831461508d576040517f08c379a000000000000000000000000000000000000000000000000000000000815260040161508490619baf565b60405180910390fd5b600081146150ac576150a1600c600261692f565b9450505050506154c8565b60006150b98733856170a1565b9050600081146150dc576150d0600e600383617502565b955050505050506154c8565b6000600960008773ffffffffffffffffffffffffffffffffffffffff1673ffffffffffffffffffffffffffffffffffffffff16815260200190815260200160002090508060020160003373ffffffffffffffffffffffffffffffffffffffff1673ffffffffffffffffffffffffffffffffffffffff16815260200190815260200160002060009054906101000a900460ff16615193576000601181111561518657615185618fd9565b5b96505050505050506154c8565b8060020160003373ffffffffffffffffffffffffffffffffffffffff1673ffffffffffffffffffffffffffffffffffffffff16815260200190815260200160002060006101000a81549060ff02191690556000600860003373ffffffffffffffffffffffffffffffffffffffff1673ffffffffffffffffffffffffffffffffffffffff1681526020019081526020016000208054806020026020016040519081016040528092919081815260200182805480156152a557602002820191906000526020600020905b8160009054906101000a900473ffffffffffffffffffffffffffffffffffffffff1673ffffffffffffffffffffffffffffffffffffffff168152602001906001019080831161525b575b50505050509050600081519050600081905060005b8281101561532b578973ffffffffffffffffffffffffffffffffffffffff168482815181106152ec576152eb618b64565b5b602002602001015173ffffffffffffffffffffffffffffffffffffffff1614156153185780915061532b565b808061532390618bf6565b9150506152ba565b5081811061533c5761533b619a04565b5b6000600860003373ffffffffffffffffffffffffffffffffffffffff1673ffffffffffffffffffffffffffffffffffffffff168152602001908152602001600020905080600182805490506153919190618bc2565b815481106153a2576153a1618b64565b5b9060005260206000200160009054906101000a900473ffffffffffffffffffffffffffffffffffffffff168183815481106153e0576153df618b64565b5b9060005260206000200160006101000a81548173ffffffffffffffffffffffffffffffffffffffff021916908373ffffffffffffffffffffffffffffffffffffffff1602179055508080548061543957615438619bcf565b5b6001900381819060005260206000200160006101000a81549073ffffffffffffffffffffffffffffffffffffffff021916905590557fe699a64c18b07ac5b7301aa273f36a2287239eb9501d81950672794afba29a0d8a3360405161549f929190619bfe565b60405180910390a1600060118111156154bb576154ba618fd9565b5b9a50505050505050505050505b919050565b601b60009054906101000a900460ff1681565b60196020528060005260406000206000915090505481565b60008054906101000a900473ffffffffffffffffffffffffffffffffffffffff1681565b6000818361552a9190619c27565b905092915050565b600081836155409190618bc2565b905092915050565b6000601160008473ffffffffffffffffffffffffffffffffffffffff1673ffffffffffffffffffffffffffffffffffffffff16815260200190815260200160002090506000601960008573ffffffffffffffffffffffffffffffffffffffff1673ffffffffffffffffffffffffffffffffffffffff16815260200190815260200160002054905060006156176155dc6122fe565b6040518060400160405280601c81526020017f626c6f636b206e756d626572206578636565647320333220626974730000000081525061757f565b905060006156458263ffffffff1685600001601c9054906101000a900463ffffffff1663ffffffff16615532565b90506000811180156156575750600083115b156158325760006156d68773ffffffffffffffffffffffffffffffffffffffff166347bd37186040518163ffffffff1660e01b8152600401602060405180830381865afa1580156156ac573d6000803e3d6000fd5b505050506040513d601f19601f820116820180604052508101906156d09190618f40565b876175d5565b905060006156e483866169ed565b90506000808311615704576040518060200160405280600081525061570f565b61570e82846175fe565b5b90506157b561577660405180602001604052808a60000160009054906101000a90047bffffffffffffffffffffffffffffffffffffffffffffffffffffffff167bffffffffffffffffffffffffffffffffffffffffffffffffffffffff168152508361763e565b600001516040518060400160405280601a81526020017f6e657720696e646578206578636565647320323234206269747300000000000081525061766e565b8760000160006101000a8154817bffffffffffffffffffffffffffffffffffffffffffffffffffffffff02191690837bffffffffffffffffffffffffffffffffffffffffffffffffffffffff1602179055508487600001601c6101000a81548163ffffffff021916908363ffffffff160217905550505050615860565b600081111561585f578184600001601c6101000a81548163ffffffff021916908363ffffffff1602179055505b5b505050505050565b6000601160008573ffffffffffffffffffffffffffffffffffffffff1673ffffffffffffffffffffffffffffffffffffffff168152602001908152602001600020905060008160000160009054906101000a90047bffffffffffffffffffffffffffffffffffffffffffffffffffffffff167bffffffffffffffffffffffffffffffffffffffffffffffffffffffff1690506000601360008773ffffffffffffffffffffffffffffffffffffffff1673ffffffffffffffffffffffffffffffffffffffff16815260200190815260200160002060008673ffffffffffffffffffffffffffffffffffffffff1673ffffffffffffffffffffffffffffffffffffffff16815260200190815260200160002054905081601360008873ffffffffffffffffffffffffffffffffffffffff1673ffffffffffffffffffffffffffffffffffffffff16815260200190815260200160002060008773ffffffffffffffffffffffffffffffffffffffff1673ffffffffffffffffffffffffffffffffffffffff16815260200190815260200160002081905550600081148015615a3957506ec097ce7bc90715b34b9f10000000007bffffffffffffffffffffffffffffffffffffffffffffffffffffffff168210155b15615a6f576ec097ce7bc90715b34b9f10000000007bffffffffffffffffffffffffffffffffffffffffffffffffffffffff1690505b60006040518060200160405280615a868585615532565b81525090506000615b108873ffffffffffffffffffffffffffffffffffffffff166395dd9193896040518263ffffffff1660e01b8152600401615ac99190617dfa565b602060405180830381865afa158015615ae6573d6000803e3d6000fd5b505050506040513d601f19601f82011682018060405250810190615b0a9190618f40565b876175d5565b90506000615b1e82846176dc565b90506000615b6b601460008b73ffffffffffffffffffffffffffffffffffffffff1673ffffffffffffffffffffffffffffffffffffffff168152602001908152602001600020548361551c565b905080601460008b73ffffffffffffffffffffffffffffffffffffffff1673ffffffffffffffffffffffffffffffffffffffff168152602001908152602001600020819055508873ffffffffffffffffffffffffffffffffffffffff168a73ffffffffffffffffffffffffffffffffffffffff167f1fc3ecc087d8d2d15e23d0032af5a47059c3892d003d8e139fdcb6bb327c99a68489604051615c1092919061895a565b60405180910390a350505050505050505050565b60008060009054906101000a900473ffffffffffffffffffffffffffffffffffffffff1673ffffffffffffffffffffffffffffffffffffffff163373ffffffffffffffffffffffffffffffffffffffff161480615cce5750600260009054906101000a900473ffffffffffffffffffffffffffffffffffffffff1673ffffffffffffffffffffffffffffffffffffffff163373ffffffffffffffffffffffffffffffffffffffff16145b905090565b600080615cde61399c565b905060008173ffffffffffffffffffffffffffffffffffffffff166370a08231306040518263ffffffff1660e01b8152600401615d1b9190617dfa565b602060405180830381865afa158015615d38573d6000803e3d6000fd5b505050506040513d601f19601f82011682018060405250810190615d5c9190618f40565b9050600084118015615d6e5750808411155b15615dfd578173ffffffffffffffffffffffffffffffffffffffff1663a9059cbb86866040518363ffffffff1660e01b8152600401615dae9291906190e0565b6020604051808303816000875af1158015615dcd573d6000803e3d6000fd5b505050506040513d601f19601f82011682018060405250810190615df1919061972a565b50600092505050615e03565b83925050505b92915050565b6000806000615e166177af565b600080600860008b73ffffffffffffffffffffffffffffffffffffffff1673ffffffffffffffffffffffffffffffffffffffff168152602001908152602001600020805480602002602001604051908101604052809291908181526020018280548015615ed857602002820191906000526020600020905b8160009054906101000a900473ffffffffffffffffffffffffffffffffffffffff1673ffffffffffffffffffffffffffffffffffffffff1681526020019060010190808311615e8e575b5050505050905060005b8151811015616205576000828281518110615f0057615eff618b64565b5b602002602001015190508073ffffffffffffffffffffffffffffffffffffffff1663c37f68e28d6040518263ffffffff1660e01b8152600401615f439190617dfa565b608060405180830381865afa158015615f60573d6000803e3d6000fd5b505050506040513d601f19601f82011682018060405250810190615f849190619ad6565b88604001896060018a6080018381525083815250838152508397505050505060008414615fc057600f600080975097509750505050505061625d565b6040518060200160405280600960008473ffffffffffffffffffffffffffffffffffffffff1673ffffffffffffffffffffffffffffffffffffffff168152602001908152602001600020600101548152508560c00181905250604051806020016040528086608001518152508560e00181905250600460009054906101000a900473ffffffffffffffffffffffffffffffffffffffff1673ffffffffffffffffffffffffffffffffffffffff1663fc57d4df826040518263ffffffff1660e01b815260040161608f91906180f3565b602060405180830381865afa1580156160ac573d6000803e3d6000fd5b505050506040513d601f19601f820116820180604052508101906160d09190618f40565b8560a001818152505060008560a0015114156160fb57600d600080975097509750505050505061625d565b60405180602001604052808660a0015181525085610100018190525061613761612c8660c001518760e00151617469565b866101000151617469565b8561012001819052506161588561012001518660400151876000015161770e565b8560000181815250506161798561010001518660600151876020015161770e565b8560200181815250508a73ffffffffffffffffffffffffffffffffffffffff168173ffffffffffffffffffffffffffffffffffffffff1614156161f1576161ca8561012001518b876020015161770e565b8560200181815250506161e78561010001518a876020015161770e565b8560200181815250505b5080806161fd90618bf6565b915050615ee2565b5082602001518360000151111561623c5760008360200151846000015161622c9190618bc2565b600095509550955050505061625d565b600080846000015185602001516162539190618bc2565b9550955095505050505b9450945094915050565b6000601060008373ffffffffffffffffffffffffffffffffffffffff1673ffffffffffffffffffffffffffffffffffffffff16815260200190815260200160002090506000601a60008473ffffffffffffffffffffffffffffffffffffffff1673ffffffffffffffffffffffffffffffffffffffff16815260200190815260200160002054905060006163366162fb6122fe565b6040518060400160405280601c81526020017f626c6f636b206e756d626572206578636565647320333220626974730000000081525061757f565b905060006163648263ffffffff1685600001601c9054906101000a900463ffffffff1663ffffffff16615532565b90506000811180156163765750600083115b156165485760008573ffffffffffffffffffffffffffffffffffffffff166318160ddd6040518163ffffffff1660e01b8152600401602060405180830381865afa1580156163c8573d6000803e3d6000fd5b505050506040513d601f19601f820116820180604052508101906163ec9190618f40565b905060006163fa83866169ed565b9050600080831161641a5760405180602001604052806000815250616425565b61642482846175fe565b5b90506164cb61648c60405180602001604052808a60000160009054906101000a90047bffffffffffffffffffffffffffffffffffffffffffffffffffffffff167bffffffffffffffffffffffffffffffffffffffffffffffffffffffff168152508361763e565b600001516040518060400160405280601a81526020017f6e657720696e646578206578636565647320323234206269747300000000000081525061766e565b8760000160006101000a8154817bffffffffffffffffffffffffffffffffffffffffffffffffffffffff02191690837bffffffffffffffffffffffffffffffffffffffffffffffffffffffff1602179055508487600001601c6101000a81548163ffffffff021916908363ffffffff160217905550505050616576565b6000811115616575578184600001601c6101000a81548163ffffffff021916908363ffffffff1602179055505b5b5050505050565b6000601060008473ffffffffffffffffffffffffffffffffffffffff1673ffffffffffffffffffffffffffffffffffffffff168152602001908152602001600020905060008160000160009054906101000a90047bffffffffffffffffffffffffffffffffffffffffffffffffffffffff167bffffffffffffffffffffffffffffffffffffffffffffffffffffffff1690506000601260008673ffffffffffffffffffffffffffffffffffffffff1673ffffffffffffffffffffffffffffffffffffffff16815260200190815260200160002060008573ffffffffffffffffffffffffffffffffffffffff1673ffffffffffffffffffffffffffffffffffffffff16815260200190815260200160002054905081601260008773ffffffffffffffffffffffffffffffffffffffff1673ffffffffffffffffffffffffffffffffffffffff16815260200190815260200160002060008673ffffffffffffffffffffffffffffffffffffffff1673ffffffffffffffffffffffffffffffffffffffff1681526020019081526020016000208190555060008114801561674e57506ec097ce7bc90715b34b9f10000000007bffffffffffffffffffffffffffffffffffffffffffffffffffffffff168210155b15616784576ec097ce7bc90715b34b9f10000000007bffffffffffffffffffffffffffffffffffffffffffffffffffffffff1690505b6000604051806020016040528061679b8585615532565b815250905060008673ffffffffffffffffffffffffffffffffffffffff166370a08231876040518263ffffffff1660e01b81526004016167db9190617dfa565b602060405180830381865afa1580156167f8573d6000803e3d6000fd5b505050506040513d601f19601f8201168201806040525081019061681c9190618f40565b9050600061682a82846176dc565b90506000616877601460008a73ffffffffffffffffffffffffffffffffffffffff1673ffffffffffffffffffffffffffffffffffffffff168152602001908152602001600020548361551c565b905080601460008a73ffffffffffffffffffffffffffffffffffffffff1673ffffffffffffffffffffffffffffffffffffffff168152602001908152602001600020819055508773ffffffffffffffffffffffffffffffffffffffff168973ffffffffffffffffffffffffffffffffffffffff167f2caecd17d02f56fa897705dcc740da2d237c373f70686f4e0d9bd3bf0400ea7a848960405161691c92919061895a565b60405180910390a3505050505050505050565b60007f45b96fe442630264581b197e84bbada861235052c5a1aadfff9ea4e40a969aa083601181111561696557616964618fd9565b5b83601381111561697857616977618fd9565b5b600060405161698993929190619cb8565b60405180910390a18260118111156169a4576169a3618fd9565b5b905092915050565b60008060006169bf846000806000615e09565b9250925092509193909250565b6000806169d98484617739565b90506169e481617765565b91505092915050565b600081836169fb9190619cef565b905092915050565b60005b600d80549050811015616ad3578173ffffffffffffffffffffffffffffffffffffffff16600d8281548110616a3e57616a3d618b64565b5b9060005260206000200160009054906101000a900473ffffffffffffffffffffffffffffffffffffffff1673ffffffffffffffffffffffffffffffffffffffff161415616ac0576040517f08c379a0000000000000000000000000000000000000000000000000000000008152600401616ab790619d95565b60405180910390fd5b8080616acb90618bf6565b915050616a06565b50600d819080600181540180825580915050600190039060005260206000200160009091909190916101000a81548173ffffffffffffffffffffffffffffffffffffffff021916908373ffffffffffffffffffffffffffffffffffffffff16021790555050565b6000616b82616b476122fe565b6040518060400160405280601c81526020017f626c6f636b206e756d626572206578636565647320333220626974730000000081525061757f565b90506000601060008473ffffffffffffffffffffffffffffffffffffffff1673ffffffffffffffffffffffffffffffffffffffff16815260200190815260200160002090506000601160008573ffffffffffffffffffffffffffffffffffffffff1673ffffffffffffffffffffffffffffffffffffffff168152602001908152602001600020905060008260000160009054906101000a90047bffffffffffffffffffffffffffffffffffffffffffffffffffffffff167bffffffffffffffffffffffffffffffffffffffffffffffffffffffff161415616cc0576ec097ce7bc90715b34b9f10000000008260000160006101000a8154817bffffffffffffffffffffffffffffffffffffffffffffffffffffffff02191690837bffffffffffffffffffffffffffffffffffffffffffffffffffffffff1602179055505b60008160000160009054906101000a90047bffffffffffffffffffffffffffffffffffffffffffffffffffffffff167bffffffffffffffffffffffffffffffffffffffffffffffffffffffff161415616d76576ec097ce7bc90715b34b9f10000000008160000160006101000a8154817bffffffffffffffffffffffffffffffffffffffffffffffffffffffff02191690837bffffffffffffffffffffffffffffffffffffffffffffffffffffffff1602179055505b8281600001601c6101000a81548163ffffffff021916908363ffffffff160217905582600001601c6101000a81548163ffffffff021916908363ffffffff16021790555050505050565b6000600960008573ffffffffffffffffffffffffffffffffffffffff1673ffffffffffffffffffffffffffffffffffffffff16815260200190815260200160002090508060000160009054906101000a900460ff16616e54576040517f08c379a0000000000000000000000000000000000000000000000000000000008152600401616e4b90619e01565b60405180910390fd5b82601a60008673ffffffffffffffffffffffffffffffffffffffff1673ffffffffffffffffffffffffffffffffffffffff1681526020019081526020016000205414616f3657616ea384616267565b82601a60008673ffffffffffffffffffffffffffffffffffffffff1673ffffffffffffffffffffffffffffffffffffffff168152602001908152602001600020819055508373ffffffffffffffffffffffffffffffffffffffff167fdeafccd0c0b768b2529f7dcbbe58e155d6023059150b7490ed4535cc3744b92d84604051616f2d9190617d29565b60405180910390a25b81601960008673ffffffffffffffffffffffffffffffffffffffff1673ffffffffffffffffffffffffffffffffffffffff168152602001908152602001600020541461709b57600060405180602001604052808673ffffffffffffffffffffffffffffffffffffffff1663aa5af0fd6040518163ffffffff1660e01b8152600401602060405180830381865afa158015616fd4573d6000803e3d6000fd5b505050506040513d601f19601f82011682018060405250810190616ff89190618f40565b81525090506170078582615548565b82601960008773ffffffffffffffffffffffffffffffffffffffff1673ffffffffffffffffffffffffffffffffffffffff168152602001908152602001600020819055508473ffffffffffffffffffffffffffffffffffffffff167f20af8e791cc98f74b2d7a391c80980ca8e5aebf3d4060bf581997b6acae2e537846040516170919190617d29565b60405180910390a2505b50505050565b6000600960008573ffffffffffffffffffffffffffffffffffffffff1673ffffffffffffffffffffffffffffffffffffffff16815260200190815260200160002060000160009054906101000a900460ff16617112576009601181111561710b5761710a618fd9565b5b905061725a565b600960008573ffffffffffffffffffffffffffffffffffffffff1673ffffffffffffffffffffffffffffffffffffffff16815260200190815260200160002060020160008473ffffffffffffffffffffffffffffffffffffffff1673ffffffffffffffffffffffffffffffffffffffff16815260200190815260200160002060009054906101000a900460ff166171be57600060118111156171b7576171b6618fd9565b5b905061725a565b6000806171ce8587866000615e09565b9250509150600060118111156171e7576171e6618fd9565b5b8260118111156171fa576171f9618fd9565b5b1461721b5781601181111561721257617211618fd9565b5b9250505061725a565b6000811115617241576004601181111561723857617237618fd9565b5b9250505061725a565b6000601181111561725557617254618fd9565b5b925050505b9392505050565b600080600960008573ffffffffffffffffffffffffffffffffffffffff1673ffffffffffffffffffffffffffffffffffffffff16815260200190815260200160002090508060000160009054906101000a900460ff166172c5576009915050617463565b600115158160020160008573ffffffffffffffffffffffffffffffffffffffff1673ffffffffffffffffffffffffffffffffffffffff16815260200190815260200160002060009054906101000a900460ff161515141561732a576000915050617463565b60018160020160008573ffffffffffffffffffffffffffffffffffffffff1673ffffffffffffffffffffffffffffffffffffffff16815260200190815260200160002060006101000a81548160ff021916908315150217905550600860008473ffffffffffffffffffffffffffffffffffffffff1673ffffffffffffffffffffffffffffffffffffffff168152602001908152602001600020849080600181540180825580915050600190039060005260206000200160009091909190916101000a81548173ffffffffffffffffffffffffffffffffffffffff021916908373ffffffffffffffffffffffffffffffffffffffff1602179055507f3ab23ab0d51cccc0c3085aec51f99228625aa1a922b3a8ca89a26b0f2027a1a58484604051617455929190619bfe565b60405180910390a160009150505b92915050565b61747161779c565b6040518060200160405280670de0b6b3a7640000617497866000015186600001516169ed565b6174a19190619e50565b815250905092915050565b6174b461779c565b60405180602001604052806174e26174d88660000151670de0b6b3a76400006169ed565b8560000151617786565b815250905092915050565b60008160000151836000015110905092915050565b60007f45b96fe442630264581b197e84bbada861235052c5a1aadfff9ea4e40a969aa084601181111561753857617537618fd9565b5b84601381111561754b5761754a618fd9565b5b8460405161755b9392919061800a565b60405180910390a183601181111561757657617575618fd9565b5b90509392505050565b6000640100000000831082906175cb576040517f08c379a00000000000000000000000000000000000000000000000000000000081526004016175c29190619ef8565b60405180910390fd5b5082905092915050565b60006175f66175ec84670de0b6b3a76400006169ed565b8360000151617786565b905092915050565b61760661781a565b604051806020016040528061763361762d866ec097ce7bc90715b34b9f10000000006169ed565b85617786565b815250905092915050565b61764661781a565b60405180602001604052806176638560000151856000015161551c565b815250905092915050565b60007c0100000000000000000000000000000000000000000000000000000000831082906176d2576040517f08c379a00000000000000000000000000000000000000000000000000000000081526004016176c99190619ef8565b60405180910390fd5b5082905092915050565b60006ec097ce7bc90715b34b9f10000000006176fc8484600001516169ed565b6177069190619e50565b905092915050565b60008061771b8585617739565b905061772f61772982617765565b8461551c565b9150509392505050565b61774161779c565b604051806020016040528061775a8560000151856169ed565b815250905092915050565b6000670de0b6b3a7640000826000015161777f9190619e50565b9050919050565b600081836177949190619e50565b905092915050565b6040518060200160405280600081525090565b6040518061014001604052806000815260200160008152602001600081526020016000815260200160008152602001600081526020016177ed61779c565b81526020016177fa61779c565b815260200161780761779c565b815260200161781461779c565b81525090565b6040518060200160405280600081525090565b60008115159050919050565b6178428161782d565b82525050565b600060208201905061785d6000830184617839565b92915050565b6000604051905090565b600080fd5b600080fd5b600080fd5b600080fd5b600080fd5b60008083601f84011261789c5761789b617877565b5b8235905067ffffffffffffffff8111156178b9576178b861787c565b5b6020830191508360208202830111156178d5576178d4617881565b5b9250929050565b60008083601f8401126178f2576178f1617877565b5b8235905067ffffffffffffffff81111561790f5761790e61787c565b5b60208301915083602082028301111561792b5761792a617881565b5b9250929050565b6000806000806040858703121561794c5761794b61786d565b5b600085013567ffffffffffffffff81111561796a57617969617872565b5b61797687828801617886565b9450945050602085013567ffffffffffffffff81111561799957617998617872565b5b6179a5878288016178dc565b925092505092959194509250565b600073ffffffffffffffffffffffffffffffffffffffff82169050919050565b60006179de826179b3565b9050919050565b60006179f0826179d3565b9050919050565b617a00816179e5565b8114617a0b57600080fd5b50565b600081359050617a1d816179f7565b92915050565b617a2c8161782d565b8114617a3757600080fd5b50565b600081359050617a4981617a23565b92915050565b60008060408385031215617a6657617a6561786d565b5b6000617a7485828601617a0e565b9250506020617a8585828601617a3a565b9150509250929050565b617a98816179d3565b8114617aa357600080fd5b50565b600081359050617ab581617a8f565b92915050565b6000601f19601f8301169050919050565b7f4e487b7100000000000000000000000000000000000000000000000000000000600052604160045260246000fd5b617b0482617abb565b810181811067ffffffffffffffff82111715617b2357617b22617acc565b5b80604052505050565b6000617b36617863565b9050617b428282617afb565b919050565b600067ffffffffffffffff821115617b6257617b61617acc565b5b602082029050602081019050919050565b6000617b86617b8184617b47565b617b2c565b90508083825260208201905060208402830185811115617ba957617ba8617881565b5b835b81811015617bd25780617bbe8882617a0e565b845260208401935050602081019050617bab565b5050509392505050565b600082601f830112617bf157617bf0617877565b5b8135617c01848260208601617b73565b91505092915050565b60008060408385031215617c2157617c2061786d565b5b6000617c2f85828601617aa6565b925050602083013567ffffffffffffffff811115617c5057617c4f617872565b5b617c5c85828601617bdc565b9150509250929050565b6000617c71826179b3565b9050919050565b6000617c8382617c66565b9050919050565b617c9381617c78565b8114617c9e57600080fd5b50565b600081359050617cb081617c8a565b92915050565b600060208284031215617ccc57617ccb61786d565b5b6000617cda84828501617ca1565b91505092915050565b600060208284031215617cf957617cf861786d565b5b6000617d0784828501617aa6565b91505092915050565b6000819050919050565b617d2381617d10565b82525050565b6000602082019050617d3e6000830184617d1a565b92915050565b617d4d81617d10565b8114617d5857600080fd5b50565b600081359050617d6a81617d44565b92915050565b600080600080600060a08688031215617d8c57617d8b61786d565b5b6000617d9a88828901617aa6565b9550506020617dab88828901617aa6565b9450506040617dbc88828901617aa6565b9350506060617dcd88828901617d5b565b9250506080617dde88828901617d5b565b9150509295509295909350565b617df4816179d3565b82525050565b6000602082019050617e0f6000830184617deb565b92915050565b60008060008060808587031215617e2f57617e2e61786d565b5b6000617e3d87828801617aa6565b9450506020617e4e87828801617aa6565b9350506040617e5f87828801617aa6565b9250506060617e7087828801617d5b565b91505092959194509250565b60008060408385031215617e9357617e9261786d565b5b6000617ea185828601617aa6565b9250506020617eb285828601617d5b565b9150509250929050565b600060208284031215617ed257617ed161786d565b5b6000617ee084828501617a3a565b91505092915050565b600060208284031215617eff57617efe61786d565b5b6000617f0d84828501617d5b565b91505092915050565b60008060008060808587031215617f3057617f2f61786d565b5b6000617f3e87828801617aa6565b9450506020617f4f87828801617aa6565b9350506040617f6087828801617d5b565b9250506060617f7187828801617d5b565b91505092959194509250565b60008060008060008060c08789031215617f9a57617f9961786d565b5b6000617fa889828a01617aa6565b9650506020617fb989828a01617aa6565b9550506040617fca89828a01617aa6565b9450506060617fdb89828a01617aa6565b9350506080617fec89828a01617d5b565b92505060a0617ffd89828a01617d5b565b9150509295509295509295565b600060608201905061801f6000830186617d1a565b61802c6020830185617d1a565b6180396040830184617d1a565b949350505050565b60008060006060848603121561805a5761805961786d565b5b600061806886828701617aa6565b935050602061807986828701617aa6565b925050604061808a86828701617d5b565b9150509250925092565b6000819050919050565b60006180b96180b46180af846179b3565b618094565b6179b3565b9050919050565b60006180cb8261809e565b9050919050565b60006180dd826180c0565b9050919050565b6180ed816180d2565b82525050565b600060208201905061810860008301846180e4565b92915050565b6000618119826179d3565b9050919050565b6181298161810e565b811461813457600080fd5b50565b60008135905061814681618120565b92915050565b6000602082840312156181625761816161786d565b5b600061817084828501618137565b91505092915050565b600080600080600060a086880312156181955761819461786d565b5b60006181a388828901617aa6565b95505060206181b488828901617aa6565b94505060406181c588828901617aa6565b93505060606181d688828901617aa6565b92505060806181e788828901617d5b565b9150509295509295909350565b60008083601f84011261820a57618209617877565b5b8235905067ffffffffffffffff8111156182275761822661787c565b5b60208301915083602082028301111561824357618242617881565b5b9250929050565b600080600080604085870312156182645761826361786d565b5b600085013567ffffffffffffffff81111561828257618281617872565b5b61828e878288016181f4565b9450945050602085013567ffffffffffffffff8111156182b1576182b0617872565b5b6182bd878288016178dc565b925092505092959194509250565b600067ffffffffffffffff8211156182e6576182e5617acc565b5b602082029050602081019050919050565b600061830a618305846182cb565b617b2c565b9050808382526020820190506020840283018581111561832d5761832c617881565b5b835b8181101561835657806183428882617aa6565b84526020840193505060208101905061832f565b5050509392505050565b600082601f83011261837557618374617877565b5b81356183858482602086016182f7565b91505092915050565b600080600080608085870312156183a8576183a761786d565b5b600085013567ffffffffffffffff8111156183c6576183c5617872565b5b6183d287828801618360565b945050602085013567ffffffffffffffff8111156183f3576183f2617872565b5b6183ff87828801617bdc565b935050604061841087828801617a3a565b925050606061842187828801617a3a565b91505092959194509250565b60007bffffffffffffffffffffffffffffffffffffffffffffffffffffffff82169050919050565b61845e8161842d565b82525050565b600063ffffffff82169050919050565b61847d81618464565b82525050565b60006040820190506184986000830185618455565b6184a56020830184618474565b9392505050565b60006184b7826180c0565b9050919050565b6184c7816184ac565b82525050565b60006020820190506184e260008301846184be565b92915050565b60006060820190506184fd6000830186617839565b61850a6020830185617d1a565b6185176040830184617839565b949350505050565b600080604083850312156185365761853561786d565b5b600061854485828601617aa6565b925050602061855585828601617a0e565b9150509250929050565b6000602082840312156185755761857461786d565b5b600061858384828501617a0e565b91505092915050565b60006020820190506185a16000830184618455565b92915050565b600067ffffffffffffffff8211156185c2576185c1617acc565b5b602082029050602081019050919050565b60006185e66185e1846185a7565b617b2c565b9050808382526020820190506020840283018581111561860957618608617881565b5b835b81811015618632578061861e8882617d5b565b84526020840193505060208101905061860b565b5050509392505050565b600082601f83011261865157618650617877565b5b81356186618482602086016185d3565b91505092915050565b6000806000606084860312156186835761868261786d565b5b600084013567ffffffffffffffff8111156186a1576186a0617872565b5b6186ad86828701617bdc565b935050602084013567ffffffffffffffff8111156186ce576186cd617872565b5b6186da8682870161863c565b925050604084013567ffffffffffffffff8111156186fb576186fa617872565b5b6187078682870161863c565b9150509250925092565b600081519050919050565b600082825260208201905092915050565b6000819050602082019050919050565b618746816180d2565b82525050565b6000618758838361873d565b60208301905092915050565b6000602082019050919050565b600061877c82618711565b618786818561871c565b93506187918361872d565b8060005b838110156187c25781516187a9888261874c565b97506187b483618764565b925050600181019050618795565b5085935050505092915050565b600060208201905081810360008301526187e98184618771565b905092915050565b600080604083850312156188085761880761786d565b5b600061881685828601617aa6565b925050602061882785828601617aa6565b9150509250929050565b6000602082840312156188475761884661786d565b5b600082013567ffffffffffffffff81111561886557618864617872565b5b61887184828501618360565b91505092915050565b600081519050919050565b600082825260208201905092915050565b6000819050602082019050919050565b6188af81617d10565b82525050565b60006188c183836188a6565b60208301905092915050565b6000602082019050919050565b60006188e58261887a565b6188ef8185618885565b93506188fa83618896565b8060005b8381101561892b57815161891288826188b5565b975061891d836188cd565b9250506001810190506188fe565b5085935050505092915050565b6000602082019050818103600083015261895281846188da565b905092915050565b600060408201905061896f6000830185617d1a565b61897c6020830184617d1a565b9392505050565b6000806040838503121561899a5761899961786d565b5b60006189a885828601617a0e565b92505060206189b985828601617d5b565b9150509250929050565b600082825260208201905092915050565b7f4f6e6c792061646d696e2063616e2063616c6c20746869732066756e6374696f60008201527f6e00000000000000000000000000000000000000000000000000000000000000602082015250565b6000618a306021836189c3565b9150618a3b826189d4565b604082019050919050565b60006020820190508181036000830152618a5f81618a23565b9050919050565b7f416c72656164792065786563757465642074686973206f6e652d6f666620667560008201527f6e6374696f6e0000000000000000000000000000000000000000000000000000602082015250565b6000618ac26026836189c3565b9150618acd82618a66565b604082019050919050565b60006020820190508181036000830152618af181618ab5565b9050919050565b7f496e76616c696420696e70757400000000000000000000000000000000000000600082015250565b6000618b2e600d836189c3565b9150618b3982618af8565b602082019050919050565b60006020820190508181036000830152618b5d81618b21565b9050919050565b7f4e487b7100000000000000000000000000000000000000000000000000000000600052603260045260246000fd5b7f4e487b7100000000000000000000000000000000000000000000000000000000600052601160045260246000fd5b6000618bcd82617d10565b9150618bd883617d10565b925082821015618beb57618bea618b93565b5b828203905092915050565b6000618c0182617d10565b91507fffffffffffffffffffffffffffffffffffffffffffffffffffffffffffffffff821415618c3457618c33618b93565b5b600182019050919050565b7f63616e6e6f742070617573652061206d61726b65742074686174206973206e6f60008201527f74206c6973746564000000000000000000000000000000000000000000000000602082015250565b6000618c9b6028836189c3565b9150618ca682618c3f565b604082019050919050565b60006020820190508181036000830152618cca81618c8e565b9050919050565b7f6f6e6c7920706175736520677561726469616e20616e642061646d696e20636160008201527f6e20706175736500000000000000000000000000000000000000000000000000602082015250565b6000618d2d6027836189c3565b9150618d3882618cd1565b604082019050919050565b60006020820190508181036000830152618d5c81618d20565b9050919050565b7f6f6e6c792061646d696e2063616e20756e706175736500000000000000000000600082015250565b6000618d996016836189c3565b9150618da482618d63565b602082019050919050565b60006020820190508181036000830152618dc881618d8c565b9050919050565b7f426f72726f770000000000000000000000000000000000000000000000000000600082015250565b6000618e056006836189c3565b9150618e1082618dcf565b602082019050919050565b6000606082019050618e3060008301856180e4565b8181036020830152618e4181618df8565b9050618e506040830184617839565b9392505050565b600081519050618e6681617a8f565b92915050565b600060208284031215618e8257618e8161786d565b5b6000618e9084828501618e57565b91505092915050565b7f6f6e6c7920756e6974726f6c6c65722061646d696e2063616e206368616e676560008201527f20627261696e7300000000000000000000000000000000000000000000000000602082015250565b6000618ef56027836189c3565b9150618f0082618e99565b604082019050919050565b60006020820190508181036000830152618f2481618ee8565b9050919050565b600081519050618f3a81617d44565b92915050565b600060208284031215618f5657618f5561786d565b5b6000618f6484828501618f2b565b91505092915050565b7f6368616e6765206e6f7420617574686f72697a65640000000000000000000000600082015250565b6000618fa36015836189c3565b9150618fae82618f6d565b602082019050919050565b60006020820190508181036000830152618fd281618f96565b9050919050565b7f4e487b7100000000000000000000000000000000000000000000000000000000600052602160045260246000fd5b7f6f6e6c792061646d696e2063616e206772616e7420636f6d7000000000000000600082015250565b600061903e6019836189c3565b915061904982619008565b602082019050919050565b6000602082019050818103600083015261906d81619031565b9050919050565b7f696e73756666696369656e7420636f6d7020666f72206772616e740000000000600082015250565b60006190aa601b836189c3565b91506190b582619074565b602082019050919050565b600060208201905081810360008301526190d98161909d565b9050919050565b60006040820190506190f56000830185617deb565b6191026020830184617d1a565b9392505050565b7f5365697a65000000000000000000000000000000000000000000000000000000600082015250565b600061913f6005836189c3565b915061914a82619109565b602082019050919050565b6000604082019050818103600083015261916e81619132565b905061917d6020830184617839565b92915050565b7f6f6e6c792061646d696e2063616e2073657420636c6f736520666163746f7200600082015250565b60006191b9601f836189c3565b91506191c482619183565b602082019050919050565b600060208201905081810360008301526191e8816191ac565b9050919050565b7f6f6e6c792061646d696e2063616e2073657420626f72726f772063617020677560008201527f61726469616e0000000000000000000000000000000000000000000000000000602082015250565b600061924b6026836189c3565b9150619256826191ef565b604082019050919050565b6000602082019050818103600083015261927a8161923e565b9050919050565b60006040820190506192966000830185617deb565b6192a36020830184617deb565b9392505050565b7f4d696e7400000000000000000000000000000000000000000000000000000000600082015250565b60006192e06004836189c3565b91506192eb826192aa565b602082019050919050565b600060608201905061930b60008301856180e4565b818103602083015261931c816192d3565b905061932b6040830184617839565b9392505050565b7f6d696e7420697320706175736564000000000000000000000000000000000000600082015250565b6000619368600e836189c3565b915061937382619332565b602082019050919050565b600060208201905081810360008301526193978161935b565b9050919050565b7f72656465656d546f6b656e73207a65726f000000000000000000000000000000600082015250565b60006193d46011836189c3565b91506193df8261939e565b602082019050919050565b60006020820190508181036000830152619403816193c7565b9050919050565b600060408201905061941f60008301856184be565b61942c60208301846184be565b9392505050565b7f6f6e6c792061646d696e2063616e2073657420636f6d70207370656564000000600082015250565b6000619469601d836189c3565b915061947482619433565b602082019050919050565b600060208201905081810360008301526194988161945c565b9050919050565b7f43616e206e6f74207265706179206d6f7265207468616e2074686520746f746160008201527f6c20626f72726f77000000000000000000000000000000000000000000000000602082015250565b60006194fb6028836189c3565b91506195068261949f565b604082019050919050565b6000602082019050818103600083015261952a816194ee565b9050919050565b7f6f6e6c792061646d696e206f7220626f72726f7720636170206775617264696160008201527f6e2063616e2073657420626f72726f7720636170730000000000000000000000602082015250565b600061958d6035836189c3565b915061959882619531565b604082019050919050565b600060208201905081810360008301526195bc81619580565b9050919050565b7f696e76616c696420696e70757400000000000000000000000000000000000000600082015250565b60006195f9600d836189c3565b9150619604826195c3565b602082019050919050565b60006020820190508181036000830152619628816195ec565b9050919050565b7f6d61726b6574206d757374206265206c69737465640000000000000000000000600082015250565b60006196656015836189c3565b91506196708261962f565b602082019050919050565b6000602082019050818103600083015261969481619658565b9050919050565b7f5472616e73666572000000000000000000000000000000000000000000000000600082015250565b60006196d16008836189c3565b91506196dc8261969b565b602082019050919050565b60006040820190508181036000830152619700816196c4565b905061970f6020830184617839565b92915050565b60008151905061972481617a23565b92915050565b6000602082840312156197405761973f61786d565b5b600061974e84828501619715565b91505092915050565b7f436f6d7074726f6c6c65723a3a5f736574436f6d7053706565647320696e766160008201527f6c696420696e7075740000000000000000000000000000000000000000000000602082015250565b60006197b36029836189c3565b91506197be82619757565b604082019050919050565b600060208201905081810360008301526197e2816197a6565b9050919050565b7f7472616e73666572206973207061757365640000000000000000000000000000600082015250565b600061981f6012836189c3565b915061982a826197e9565b602082019050919050565b6000602082019050818103600083015261984e81619812565b9050919050565b7f7365697a65206973207061757365640000000000000000000000000000000000600082015250565b600061988b600f836189c3565b915061989682619855565b602082019050919050565b600060208201905081810360008301526198ba8161987e565b9050919050565b60006198cc826179d3565b9050919050565b6198dc816198c1565b81146198e757600080fd5b50565b6000815190506198f9816198d3565b92915050565b6000602082840312156199155761991461786d565b5b6000619923848285016198ea565b91505092915050565b7f626f72726f772069732070617573656400000000000000000000000000000000600082015250565b60006199626010836189c3565b915061996d8261992c565b602082019050919050565b6000602082019050818103600083015261999181619955565b9050919050565b7f73656e646572206d7573742062652063546f6b656e0000000000000000000000600082015250565b60006199ce6015836189c3565b91506199d982619998565b602082019050919050565b600060208201905081810360008301526199fd816199c1565b9050919050565b7f4e487b7100000000000000000000000000000000000000000000000000000000600052600160045260246000fd5b7f6d61726b657420626f72726f7720636170207265616368656400000000000000600082015250565b6000619a696019836189c3565b9150619a7482619a33565b602082019050919050565b60006020820190508181036000830152619a9881619a5c565b9050919050565b6000606082019050619ab460008301866180e4565b619ac16020830185617d1a565b619ace6040830184617d1a565b949350505050565b60008060008060808587031215619af057619aef61786d565b5b6000619afe87828801618f2b565b9450506020619b0f87828801618f2b565b9350506040619b2087828801618f2b565b9250506060619b3187828801618f2b565b91505092959194509250565b7f657869744d61726b65743a206765744163636f756e74536e617073686f74206660008201527f61696c6564000000000000000000000000000000000000000000000000000000602082015250565b6000619b996025836189c3565b9150619ba482619b3d565b604082019050919050565b60006020820190508181036000830152619bc881619b8c565b9050919050565b7f4e487b7100000000000000000000000000000000000000000000000000000000600052603160045260246000fd5b6000604082019050619c1360008301856180e4565b619c206020830184617deb565b9392505050565b6000619c3282617d10565b9150619c3d83617d10565b9250827fffffffffffffffffffffffffffffffffffffffffffffffffffffffffffffffff03821115619c7257619c71618b93565b5b828201905092915050565b6000819050919050565b6000619ca2619c9d619c9884619c7d565b618094565b617d10565b9050919050565b619cb281619c87565b82525050565b6000606082019050619ccd6000830186617d1a565b619cda6020830185617d1a565b619ce76040830184619ca9565b949350505050565b6000619cfa82617d10565b9150619d0583617d10565b9250817fffffffffffffffffffffffffffffffffffffffffffffffffffffffffffffffff0483118215151615619d3e57619d3d618b93565b5b828202905092915050565b7f6d61726b657420616c7265616479206164646564000000000000000000000000600082015250565b6000619d7f6014836189c3565b9150619d8a82619d49565b602082019050919050565b60006020820190508181036000830152619dae81619d72565b9050919050565b7f636f6d70206d61726b6574206973206e6f74206c697374656400000000000000600082015250565b6000619deb6019836189c3565b9150619df682619db5565b602082019050919050565b60006020820190508181036000830152619e1a81619dde565b9050919050565b7f4e487b7100000000000000000000000000000000000000000000000000000000600052601260045260246000fd5b6000619e5b82617d10565b9150619e6683617d10565b925082619e7657619e75619e21565b5b828204905092915050565b600081519050919050565b60005b83811015619eaa578082015181840152602081019050619e8f565b83811115619eb9576000848401525b50505050565b6000619eca82619e81565b619ed481856189c3565b9350619ee4818560208601619e8c565b619eed81617abb565b840191505092915050565b60006020820190508181036000830152619f128184619ebf565b90509291505056fea2646970667358221220949641e013f0816e3c99b4a1e95fdd4ddb139bf0a3ccf92bbdf574aa6d9d2dae64736f6c634300080a0033",
  "linkReferences": {},
  "deployedLinkReferences": {}
}