{
  "_format": "hh-sol-artifact-1",
  "contractName": "JumpRateModelV2",
  "sourceName": "contracts/JumpRateModelV2.sol",
  "abi": [
    {
      "inputs": [
        {
          "internalType": "uint256",
          "name": "baseRatePerYear",
          "type": "uint256"
        },
        {
          "internalType": "uint256",
          "name": "multiplierPerYear",
          "type": "uint256"
        },
        {
          "internalType": "uint256",
          "name": "jumpMultiplierPerYear",
          "type": "uint256"
        },
        {
          "internalType": "uint256",
          "name": "kink_",
          "type": "uint256"
        },
        {
          "internalType": "address",
          "name": "owner_",
          "type": "address"
        }
      ],
      "stateMutability": "nonpayable",
      "type": "constructor"
    },
    {
      "anonymous": false,
      "inputs": [
        {
          "indexed": false,
          "internalType": "uint256",
          "name": "baseRatePerBlock",
          "type": "uint256"
        },
        {
          "indexed": false,
          "internalType": "uint256",
          "name": "multiplierPerBlock",
          "type": "uint256"
        },
        {
          "indexed": false,
          "internalType": "uint256",
          "name": "jumpMultiplierPerBlock",
          "type": "uint256"
        },
        {
          "indexed": false,
          "internalType": "uint256",
          "name": "kink",
          "type": "uint256"
        }
      ],
      "name": "NewInterestParams",
      "type": "event"
    },
    {
      "inputs": [],
      "name": "baseRatePerBlock",
      "outputs": [
        {
          "internalType": "uint256",
          "name": "",
          "type": "uint256"
        }
      ],
      "stateMutability": "view",
      "type": "function"
    },
    {
      "inputs": [],
      "name": "blocksPerYear",
      "outputs": [
        {
          "internalType": "uint256",
          "name": "",
          "type": "uint256"
        }
      ],
      "stateMutability": "view",
      "type": "function"
    },
    {
      "inputs": [
        {
          "internalType": "uint256",
          "name": "cash",
          "type": "uint256"
        },
        {
          "internalType": "uint256",
          "name": "borrows",
          "type": "uint256"
        },
        {
          "internalType": "uint256",
          "name": "reserves",
          "type": "uint256"
        }
      ],
      "name": "getBorrowRate",
      "outputs": [
        {
          "internalType": "uint256",
          "name": "",
          "type": "uint256"
        }
      ],
      "stateMutability": "view",
      "type": "function"
    },
    {
      "inputs": [
        {
          "internalType": "uint256",
          "name": "cash",
          "type": "uint256"
        },
        {
          "internalType": "uint256",
          "name": "borrows",
          "type": "uint256"
        },
        {
          "internalType": "uint256",
          "name": "reserves",
          "type": "uint256"
        },
        {
          "internalType": "uint256",
          "name": "reserveFactorMantissa",
          "type": "uint256"
        }
      ],
      "name": "getSupplyRate",
      "outputs": [
        {
          "internalType": "uint256",
          "name": "",
          "type": "uint256"
        }
      ],
      "stateMutability": "view",
      "type": "function"
    },
    {
      "inputs": [],
      "name": "isInterestRateModel",
      "outputs": [
        {
          "internalType": "bool",
          "name": "",
          "type": "bool"
        }
      ],
      "stateMutability": "view",
      "type": "function"
    },
    {
      "inputs": [],
      "name": "jumpMultiplierPerBlock",
      "outputs": [
        {
          "internalType": "uint256",
          "name": "",
          "type": "uint256"
        }
      ],
      "stateMutability": "view",
      "type": "function"
    },
    {
      "inputs": [],
      "name": "kink",
      "outputs": [
        {
          "internalType": "uint256",
          "name": "",
          "type": "uint256"
        }
      ],
      "stateMutability": "view",
      "type": "function"
    },
    {
      "inputs": [],
      "name": "multiplierPerBlock",
      "outputs": [
        {
          "internalType": "uint256",
          "name": "",
          "type": "uint256"
        }
      ],
      "stateMutability": "view",
      "type": "function"
    },
    {
      "inputs": [],
      "name": "owner",
      "outputs": [
        {
          "internalType": "address",
          "name": "",
          "type": "address"
        }
      ],
      "stateMutability": "view",
      "type": "function"
    },
    {
      "inputs": [
        {
          "internalType": "uint256",
          "name": "baseRatePerYear",
          "type": "uint256"
        },
        {
          "internalType": "uint256",
          "name": "multiplierPerYear",
          "type": "uint256"
        },
        {
          "internalType": "uint256",
          "name": "jumpMultiplierPerYear",
          "type": "uint256"
        },
        {
          "internalType": "uint256",
          "name": "kink_",
          "type": "uint256"
        }
      ],
      "name": "updateJumpRateModel",
      "outputs": [],
      "stateMutability": "nonpayable",
      "type": "function"
    },
    {
      "inputs": [
        {
          "internalType": "uint256",
          "name": "cash",
          "type": "uint256"
        },
        {
          "internalType": "uint256",
          "name": "borrows",
          "type": "uint256"
        },
        {
          "internalType": "uint256",
          "name": "reserves",
          "type": "uint256"
        }
      ],
      "name": "utilizationRate",
      "outputs": [
        {
          "internalType": "uint256",
          "name": "",
          "type": "uint256"
        }
      ],
      "stateMutability": "pure",
      "type": "function"
    }
  ],
  "bytecode": "0x60806040523480156200001157600080fd5b5060405162000da938038062000da9833981810160405281019062000037919062000200565b8484848484806000806101000a81548173ffffffffffffffffffffffffffffffffffffffff021916908373ffffffffffffffffffffffffffffffffffffffff1602179055506200009085858585620000a060201b60201c565b50505050505050505050620003dd565b6220148084620000b19190620002e6565b6002819055508062201480620000c891906200031e565b670de0b6b3a764000084620000de91906200031e565b620000ea9190620002e6565b6001819055506220148082620001019190620002e6565b600381905550806004819055507f6960ab234c7ef4b0c9197100f5393cfcde7c453ac910a27bd2000aa1dd4c068d6002546001546003546004546040516200014d949392919062000390565b60405180910390a150505050565b600080fd5b6000819050919050565b620001758162000160565b81146200018157600080fd5b50565b60008151905062000195816200016a565b92915050565b600073ffffffffffffffffffffffffffffffffffffffff82169050919050565b6000620001c8826200019b565b9050919050565b620001da81620001bb565b8114620001e657600080fd5b50565b600081519050620001fa81620001cf565b92915050565b600080600080600060a086880312156200021f576200021e6200015b565b5b60006200022f8882890162000184565b9550506020620002428882890162000184565b9450506040620002558882890162000184565b9350506060620002688882890162000184565b92505060806200027b88828901620001e9565b9150509295509295909350565b7f4e487b7100000000000000000000000000000000000000000000000000000000600052601260045260246000fd5b7f4e487b7100000000000000000000000000000000000000000000000000000000600052601160045260246000fd5b6000620002f38262000160565b9150620003008362000160565b92508262000313576200031262000288565b5b828204905092915050565b60006200032b8262000160565b9150620003388362000160565b9250817fffffffffffffffffffffffffffffffffffffffffffffffffffffffffffffffff0483118215151615620003745762000373620002b7565b5b828202905092915050565b6200038a8162000160565b82525050565b6000608082019050620003a760008301876200037f565b620003b660208301866200037f565b620003c560408301856200037f565b620003d460608301846200037f565b95945050505050565b6109bc80620003ed6000396000f3fe608060405234801561001057600080fd5b50600436106100a95760003560e01c80638da5cb5b116100715780638da5cb5b14610166578063a385fb9614610184578063b8168816146101a2578063b9f9850a146101d2578063f14039de146101f0578063fd2da3391461020e576100a9565b806315f24053146100ae5780632037f3e7146100de5780632191f92a146100fa5780636e71e2d8146101185780638726bb8914610148575b600080fd5b6100c860048036038101906100c391906105b5565b61022c565b6040516100d59190610617565b60405180910390f35b6100f860048036038101906100f39190610632565b610242565b005b6101026102e2565b60405161010f91906106b4565b60405180910390f35b610132600480360381019061012d91906105b5565b6102e7565b60405161013f9190610617565b60405180910390f35b610150610339565b60405161015d9190610617565b60405180910390f35b61016e61033f565b60405161017b9190610710565b60405180910390f35b61018c610363565b6040516101999190610617565b60405180910390f35b6101bc60048036038101906101b79190610632565b61036a565b6040516101c99190610617565b60405180910390f35b6101da6103eb565b6040516101e79190610617565b60405180910390f35b6101f86103f1565b6040516102059190610617565b60405180910390f35b6102166103f7565b6040516102239190610617565b60405180910390f35b60006102398484846103fd565b90509392505050565b60008054906101000a900473ffffffffffffffffffffffffffffffffffffffff1673ffffffffffffffffffffffffffffffffffffffff163373ffffffffffffffffffffffffffffffffffffffff16146102d0576040517f08c379a00000000000000000000000000000000000000000000000000000000081526004016102c7906107ae565b60405180910390fd5b6102dc848484846104cb565b50505050565b600181565b6000808314156102fa5760009050610332565b81838561030791906107fd565b6103119190610853565b670de0b6b3a7640000846103259190610887565b61032f9190610910565b90505b9392505050565b60015481565b60008054906101000a900473ffffffffffffffffffffffffffffffffffffffff1681565b6220148081565b60008082670de0b6b3a76400006103819190610853565b905060006103908787876103fd565b90506000670de0b6b3a764000083836103a99190610887565b6103b39190610910565b9050670de0b6b3a7640000816103ca8a8a8a6102e7565b6103d49190610887565b6103de9190610910565b9350505050949350505050565b60035481565b60025481565b60045481565b60008061040b8585856102e7565b9050600454811161044c57600254670de0b6b3a7640000600154836104309190610887565b61043a9190610910565b61044491906107fd565b9150506104c4565b6000600254670de0b6b3a764000060015460045461046a9190610887565b6104749190610910565b61047e91906107fd565b90506000600454836104909190610853565b905081670de0b6b3a7640000600354836104aa9190610887565b6104b49190610910565b6104be91906107fd565b93505050505b9392505050565b62201480846104da9190610910565b60028190555080622014806104ef9190610887565b670de0b6b3a7640000846105039190610887565b61050d9190610910565b60018190555062201480826105229190610910565b600381905550806004819055507f6960ab234c7ef4b0c9197100f5393cfcde7c453ac910a27bd2000aa1dd4c068d60025460015460035460045460405161056c9493929190610941565b60405180910390a150505050565b600080fd5b6000819050919050565b6105928161057f565b811461059d57600080fd5b50565b6000813590506105af81610589565b92915050565b6000806000606084860312156105ce576105cd61057a565b5b60006105dc868287016105a0565b93505060206105ed868287016105a0565b92505060406105fe868287016105a0565b9150509250925092565b6106118161057f565b82525050565b600060208201905061062c6000830184610608565b92915050565b6000806000806080858703121561064c5761064b61057a565b5b600061065a878288016105a0565b945050602061066b878288016105a0565b935050604061067c878288016105a0565b925050606061068d878288016105a0565b91505092959194509250565b60008115159050919050565b6106ae81610699565b82525050565b60006020820190506106c960008301846106a5565b92915050565b600073ffffffffffffffffffffffffffffffffffffffff82169050919050565b60006106fa826106cf565b9050919050565b61070a816106ef565b82525050565b60006020820190506107256000830184610701565b92915050565b600082825260208201905092915050565b7f6f6e6c7920746865206f776e6572206d61792063616c6c20746869732066756e60008201527f6374696f6e2e0000000000000000000000000000000000000000000000000000602082015250565b600061079860268361072b565b91506107a38261073c565b604082019050919050565b600060208201905081810360008301526107c78161078b565b9050919050565b7f4e487b7100000000000000000000000000000000000000000000000000000000600052601160045260246000fd5b60006108088261057f565b91506108138361057f565b9250827fffffffffffffffffffffffffffffffffffffffffffffffffffffffffffffffff03821115610848576108476107ce565b5b828201905092915050565b600061085e8261057f565b91506108698361057f565b92508282101561087c5761087b6107ce565b5b828203905092915050565b60006108928261057f565b915061089d8361057f565b9250817fffffffffffffffffffffffffffffffffffffffffffffffffffffffffffffffff04831182151516156108d6576108d56107ce565b5b828202905092915050565b7f4e487b7100000000000000000000000000000000000000000000000000000000600052601260045260246000fd5b600061091b8261057f565b91506109268361057f565b925082610936576109356108e1565b5b828204905092915050565b60006080820190506109566000830187610608565b6109636020830186610608565b6109706040830185610608565b61097d6060830184610608565b9594505050505056fea26469706673582212204a659fd6089bd31be01c241c8818e3a03c8ac8fa445f3286b6ee3b585b27f2b464736f6c634300080a0033",
  "linkReferences": {},
  "deployedLinkReferences": {}
}