{
  "_format": "hh-sol-artifact-1",
  "contractName": "CErc20",
  "sourceName": "contracts/CErc20.sol",
  "abi": [
    {
      "inputs": [],
      "name": "AcceptAdminPendingAdminCheck",
      "type": "error"
    },
    {
      "inputs": [
        {
          "internalType": "uint256",
          "name": "actualAddAmount",
          "type": "uint256"
        }
      ],
      "name": "AddReservesFactorFreshCheck",
      "type": "error"
    },
    {
      "inputs": [],
      "name": "BorrowCashNotAvailable",
      "type": "error"
    },
    {
      "inputs": [
        {
          "internalType": "uint256",
          "name": "errorCode",
          "type": "uint256"
        }
      ],
      "name": "BorrowComptrollerRejection",
      "type": "error"
    },
    {
      "inputs": [],
      "name": "BorrowFreshnessCheck",
      "type": "error"
    },
    {
      "inputs": [
        {
          "internalType": "uint256",
          "name": "errorCode",
          "type": "uint256"
        }
      ],
      "name": "LiquidateAccrueBorrowInterestFailed",
      "type": "error"
    },
    {
      "inputs": [
        {
          "internalType": "uint256",
          "name": "errorCode",
          "type": "uint256"
        }
      ],
      "name": "LiquidateAccrueCollateralInterestFailed",
      "type": "error"
    },
    {
      "inputs": [],
      "name": "LiquidateCloseAmountIsUintMax",
      "type": "error"
    },
    {
      "inputs": [],
      "name": "LiquidateCloseAmountIsZero",
      "type": "error"
    },
    {
      "inputs": [],
      "name": "LiquidateCollateralFreshnessCheck",
      "type": "error"
    },
    {
      "inputs": [
        {
          "internalType": "uint256",
          "name": "errorCode",
          "type": "uint256"
        }
      ],
      "name": "LiquidateComptrollerRejection",
      "type": "error"
    },
    {
      "inputs": [],
      "name": "LiquidateFreshnessCheck",
      "type": "error"
    },
    {
      "inputs": [],
      "name": "LiquidateLiquidatorIsBorrower",
      "type": "error"
    },
    {
      "inputs": [
        {
          "internalType": "uint256",
          "name": "errorCode",
          "type": "uint256"
        }
      ],
      "name": "LiquidateRepayBorrowFreshFailed",
      "type": "error"
    },
    {
      "inputs": [
        {
          "internalType": "uint256",
          "name": "errorCode",
          "type": "uint256"
        }
      ],
      "name": "LiquidateSeizeComptrollerRejection",
      "type": "error"
    },
    {
      "inputs": [],
      "name": "LiquidateSeizeLiquidatorIsBorrower",
      "type": "error"
    },
    {
      "inputs": [
        {
          "internalType": "uint256",
          "name": "errorCode",
          "type": "uint256"
        }
      ],
      "name": "MintComptrollerRejection",
      "type": "error"
    },
    {
      "inputs": [],
      "name": "MintFreshnessCheck",
      "type": "error"
    },
    {
      "inputs": [
        {
          "internalType": "uint256",
          "name": "errorCode",
          "type": "uint256"
        }
      ],
      "name": "RedeemComptrollerRejection",
      "type": "error"
    },
    {
      "inputs": [],
      "name": "RedeemFreshnessCheck",
      "type": "error"
    },
    {
      "inputs": [],
      "name": "RedeemTransferOutNotPossible",
      "type": "error"
    },
    {
      "inputs": [],
      "name": "ReduceReservesAdminCheck",
      "type": "error"
    },
    {
      "inputs": [],
      "name": "ReduceReservesCashNotAvailable",
      "type": "error"
    },
    {
      "inputs": [],
      "name": "ReduceReservesCashValidation",
      "type": "error"
    },
    {
      "inputs": [],
      "name": "ReduceReservesFreshCheck",
      "type": "error"
    },
    {
      "inputs": [
        {
          "internalType": "uint256",
          "name": "errorCode",
          "type": "uint256"
        }
      ],
      "name": "RepayBorrowComptrollerRejection",
      "type": "error"
    },
    {
      "inputs": [],
      "name": "RepayBorrowFreshnessCheck",
      "type": "error"
    },
    {
      "inputs": [],
      "name": "SetComptrollerOwnerCheck",
      "type": "error"
    },
    {
      "inputs": [],
      "name": "SetInterestRateModelFreshCheck",
      "type": "error"
    },
    {
      "inputs": [],
      "name": "SetInterestRateModelOwnerCheck",
      "type": "error"
    },
    {
      "inputs": [],
      "name": "SetPendingAdminOwnerCheck",
      "type": "error"
    },
    {
      "inputs": [],
      "name": "SetReserveFactorAdminCheck",
      "type": "error"
    },
    {
      "inputs": [],
      "name": "SetReserveFactorBoundsCheck",
      "type": "error"
    },
    {
      "inputs": [],
      "name": "SetReserveFactorFreshCheck",
      "type": "error"
    },
    {
      "inputs": [
        {
          "internalType": "uint256",
          "name": "errorCode",
          "type": "uint256"
        }
      ],
      "name": "TransferComptrollerRejection",
      "type": "error"
    },
    {
      "inputs": [],
      "name": "TransferNotAllowed",
      "type": "error"
    },
    {
      "inputs": [],
      "name": "TransferNotEnough",
      "type": "error"
    },
    {
      "inputs": [],
      "name": "TransferTooMuch",
      "type": "error"
    },
    {
      "anonymous": false,
      "inputs": [
        {
          "indexed": false,
          "internalType": "uint256",
          "name": "interestAccumulated",
          "type": "uint256"
        },
        {
          "indexed": false,
          "internalType": "uint256",
          "name": "borrowIndex",
          "type": "uint256"
        },
        {
          "indexed": false,
          "internalType": "uint256",
          "name": "totalBorrows",
          "type": "uint256"
        }
      ],
      "name": "AccrueInterest",
      "type": "event"
    },
    {
      "anonymous": false,
      "inputs": [
        {
          "indexed": false,
          "internalType": "uint256",
          "name": "cashPrior",
          "type": "uint256"
        },
        {
          "indexed": false,
          "internalType": "uint256",
          "name": "interestAccumulated",
          "type": "uint256"
        },
        {
          "indexed": false,
          "internalType": "uint256",
          "name": "borrowIndex",
          "type": "uint256"
        },
        {
          "indexed": false,
          "internalType": "uint256",
          "name": "totalBorrows",
          "type": "uint256"
        }
      ],
      "name": "AccrueInterest",
      "type": "event"
    },
    {
      "anonymous": false,
      "inputs": [
        {
          "indexed": true,
          "internalType": "address",
          "name": "owner",
          "type": "address"
        },
        {
          "indexed": true,
          "internalType": "address",
          "name": "spender",
          "type": "address"
        },
        {
          "indexed": false,
          "internalType": "uint256",
          "name": "amount",
          "type": "uint256"
        }
      ],
      "name": "Approval",
      "type": "event"
    },
    {
      "anonymous": false,
      "inputs": [
        {
          "indexed": false,
          "internalType": "address",
          "name": "borrower",
          "type": "address"
        },
        {
          "indexed": false,
          "internalType": "uint256",
          "name": "borrowAmount",
          "type": "uint256"
        },
        {
          "indexed": false,
          "internalType": "uint256",
          "name": "accountBorrows",
          "type": "uint256"
        },
        {
          "indexed": false,
          "internalType": "uint256",
          "name": "totalBorrows",
          "type": "uint256"
        }
      ],
      "name": "Borrow",
      "type": "event"
    },
    {
      "anonymous": false,
      "inputs": [
        {
          "indexed": false,
          "internalType": "address",
          "name": "liquidator",
          "type": "address"
        },
        {
          "indexed": false,
          "internalType": "address",
          "name": "borrower",
          "type": "address"
        },
        {
          "indexed": false,
          "internalType": "uint256",
          "name": "repayAmount",
          "type": "uint256"
        },
        {
          "indexed": false,
          "internalType": "address",
          "name": "cTokenCollateral",
          "type": "address"
        },
        {
          "indexed": false,
          "internalType": "uint256",
          "name": "seizeTokens",
          "type": "uint256"
        }
      ],
      "name": "LiquidateBorrow",
      "type": "event"
    },
    {
      "anonymous": false,
      "inputs": [
        {
          "indexed": false,
          "internalType": "address",
          "name": "minter",
          "type": "address"
        },
        {
          "indexed": false,
          "internalType": "uint256",
          "name": "mintAmount",
          "type": "uint256"
        },
        {
          "indexed": false,
          "internalType": "uint256",
          "name": "mintTokens",
          "type": "uint256"
        }
      ],
      "name": "Mint",
      "type": "event"
    },
    {
      "anonymous": false,
      "inputs": [
        {
          "indexed": false,
          "internalType": "address",
          "name": "oldAdmin",
          "type": "address"
        },
        {
          "indexed": false,
          "internalType": "address",
          "name": "newAdmin",
          "type": "address"
        }
      ],
      "name": "NewAdmin",
      "type": "event"
    },
    {
      "anonymous": false,
      "inputs": [
        {
          "indexed": false,
          "internalType": "contract ComptrollerInterface",
          "name": "oldComptroller",
          "type": "address"
        },
        {
          "indexed": false,
          "internalType": "contract ComptrollerInterface",
          "name": "newComptroller",
          "type": "address"
        }
      ],
      "name": "NewComptroller",
      "type": "event"
    },
    {
      "anonymous": false,
      "inputs": [
        {
          "indexed": false,
          "internalType": "contract InterestRateModel",
          "name": "oldInterestRateModel",
          "type": "address"
        },
        {
          "indexed": false,
          "internalType": "contract InterestRateModel",
          "name": "newInterestRateModel",
          "type": "address"
        }
      ],
      "name": "NewMarketInterestRateModel",
      "type": "event"
    },
    {
      "anonymous": false,
      "inputs": [
        {
          "indexed": false,
          "internalType": "address",
          "name": "oldPendingAdmin",
          "type": "address"
        },
        {
          "indexed": false,
          "internalType": "address",
          "name": "newPendingAdmin",
          "type": "address"
        }
      ],
      "name": "NewPendingAdmin",
      "type": "event"
    },
    {
      "anonymous": false,
      "inputs": [
        {
          "indexed": false,
          "internalType": "uint256",
          "name": "oldReserveFactorMantissa",
          "type": "uint256"
        },
        {
          "indexed": false,
          "internalType": "uint256",
          "name": "newReserveFactorMantissa",
          "type": "uint256"
        }
      ],
      "name": "NewReserveFactor",
      "type": "event"
    },
    {
      "anonymous": false,
      "inputs": [
        {
          "indexed": false,
          "internalType": "address",
          "name": "redeemer",
          "type": "address"
        },
        {
          "indexed": false,
          "internalType": "uint256",
          "name": "redeemAmount",
          "type": "uint256"
        },
        {
          "indexed": false,
          "internalType": "uint256",
          "name": "redeemTokens",
          "type": "uint256"
        }
      ],
      "name": "Redeem",
      "type": "event"
    },
    {
      "anonymous": false,
      "inputs": [
        {
          "indexed": false,
          "internalType": "address",
          "name": "payer",
          "type": "address"
        },
        {
          "indexed": false,
          "internalType": "address",
          "name": "borrower",
          "type": "address"
        },
        {
          "indexed": false,
          "internalType": "uint256",
          "name": "repayAmount",
          "type": "uint256"
        },
        {
          "indexed": false,
          "internalType": "uint256",
          "name": "accountBorrows",
          "type": "uint256"
        },
        {
          "indexed": false,
          "internalType": "uint256",
          "name": "totalBorrows",
          "type": "uint256"
        }
      ],
      "name": "RepayBorrow",
      "type": "event"
    },
    {
      "anonymous": false,
      "inputs": [
        {
          "indexed": false,
          "internalType": "address",
          "name": "benefactor",
          "type": "address"
        },
        {
          "indexed": false,
          "internalType": "uint256",
          "name": "addAmount",
          "type": "uint256"
        },
        {
          "indexed": false,
          "internalType": "uint256",
          "name": "newTotalReserves",
          "type": "uint256"
        }
      ],
      "name": "ReservesAdded",
      "type": "event"
    },
    {
      "anonymous": false,
      "inputs": [
        {
          "indexed": false,
          "internalType": "address",
          "name": "admin",
          "type": "address"
        },
        {
          "indexed": false,
          "internalType": "uint256",
          "name": "reduceAmount",
          "type": "uint256"
        },
        {
          "indexed": false,
          "internalType": "uint256",
          "name": "newTotalReserves",
          "type": "uint256"
        }
      ],
      "name": "ReservesReduced",
      "type": "event"
    },
    {
      "anonymous": false,
      "inputs": [
        {
          "indexed": true,
          "internalType": "address",
          "name": "from",
          "type": "address"
        },
        {
          "indexed": true,
          "internalType": "address",
          "name": "to",
          "type": "address"
        },
        {
          "indexed": false,
          "internalType": "uint256",
          "name": "amount",
          "type": "uint256"
        }
      ],
      "name": "Transfer",
      "type": "event"
    },
    {
      "inputs": [],
      "name": "NO_ERROR",
      "outputs": [
        {
          "internalType": "uint256",
          "name": "",
          "type": "uint256"
        }
      ],
      "stateMutability": "view",
      "type": "function"
    },
    {
      "inputs": [],
      "name": "_acceptAdmin",
      "outputs": [
        {
          "internalType": "uint256",
          "name": "",
          "type": "uint256"
        }
      ],
      "stateMutability": "nonpayable",
      "type": "function"
    },
    {
      "inputs": [
        {
          "internalType": "uint256",
          "name": "addAmount",
          "type": "uint256"
        }
      ],
      "name": "_addReserves",
      "outputs": [
        {
          "internalType": "uint256",
          "name": "",
          "type": "uint256"
        }
      ],
      "stateMutability": "nonpayable",
      "type": "function"
    },
    {
      "inputs": [
        {
          "internalType": "address",
          "name": "compLikeDelegatee",
          "type": "address"
        }
      ],
      "name": "_delegateCompLikeTo",
      "outputs": [],
      "stateMutability": "nonpayable",
      "type": "function"
    },
    {
      "inputs": [
        {
          "internalType": "uint256",
          "name": "reduceAmount",
          "type": "uint256"
        }
      ],
      "name": "_reduceReserves",
      "outputs": [
        {
          "internalType": "uint256",
          "name": "",
          "type": "uint256"
        }
      ],
      "stateMutability": "nonpayable",
      "type": "function"
    },
    {
      "inputs": [
        {
          "internalType": "contract ComptrollerInterface",
          "name": "newComptroller",
          "type": "address"
        }
      ],
      "name": "_setComptroller",
      "outputs": [
        {
          "internalType": "uint256",
          "name": "",
          "type": "uint256"
        }
      ],
      "stateMutability": "nonpayable",
      "type": "function"
    },
    {
      "inputs": [
        {
          "internalType": "contract InterestRateModel",
          "name": "newInterestRateModel",
          "type": "address"
        }
      ],
      "name": "_setInterestRateModel",
      "outputs": [
        {
          "internalType": "uint256",
          "name": "",
          "type": "uint256"
        }
      ],
      "stateMutability": "nonpayable",
      "type": "function"
    },
    {
      "inputs": [
        {
          "internalType": "address payable",
          "name": "newPendingAdmin",
          "type": "address"
        }
      ],
      "name": "_setPendingAdmin",
      "outputs": [
        {
          "internalType": "uint256",
          "name": "",
          "type": "uint256"
        }
      ],
      "stateMutability": "nonpayable",
      "type": "function"
    },
    {
      "inputs": [
        {
          "internalType": "uint256",
          "name": "newReserveFactorMantissa",
          "type": "uint256"
        }
      ],
      "name": "_setReserveFactor",
      "outputs": [
        {
          "internalType": "uint256",
          "name": "",
          "type": "uint256"
        }
      ],
      "stateMutability": "nonpayable",
      "type": "function"
    },
    {
      "inputs": [],
      "name": "accrualBlockNumber",
      "outputs": [
        {
          "internalType": "uint256",
          "name": "",
          "type": "uint256"
        }
      ],
      "stateMutability": "view",
      "type": "function"
    },
    {
      "inputs": [],
      "name": "accrueInterest",
      "outputs": [
        {
          "internalType": "uint256",
          "name": "",
          "type": "uint256"
        }
      ],
      "stateMutability": "nonpayable",
      "type": "function"
    },
    {
      "inputs": [],
      "name": "admin",
      "outputs": [
        {
          "internalType": "address payable",
          "name": "",
          "type": "address"
        }
      ],
      "stateMutability": "view",
      "type": "function"
    },
    {
      "inputs": [
        {
          "internalType": "address",
          "name": "owner",
          "type": "address"
        },
        {
          "internalType": "address",
          "name": "spender",
          "type": "address"
        }
      ],
      "name": "allowance",
      "outputs": [
        {
          "internalType": "uint256",
          "name": "",
          "type": "uint256"
        }
      ],
      "stateMutability": "view",
      "type": "function"
    },
    {
      "inputs": [
        {
          "internalType": "address",
          "name": "spender",
          "type": "address"
        },
        {
          "internalType": "uint256",
          "name": "amount",
          "type": "uint256"
        }
      ],
      "name": "approve",
      "outputs": [
        {
          "internalType": "bool",
          "name": "",
          "type": "bool"
        }
      ],
      "stateMutability": "nonpayable",
      "type": "function"
    },
    {
      "inputs": [
        {
          "internalType": "address",
          "name": "owner",
          "type": "address"
        }
      ],
      "name": "balanceOf",
      "outputs": [
        {
          "internalType": "uint256",
          "name": "",
          "type": "uint256"
        }
      ],
      "stateMutability": "view",
      "type": "function"
    },
    {
      "inputs": [
        {
          "internalType": "address",
          "name": "owner",
          "type": "address"
        }
      ],
      "name": "balanceOfUnderlying",
      "outputs": [
        {
          "internalType": "uint256",
          "name": "",
          "type": "uint256"
        }
      ],
      "stateMutability": "nonpayable",
      "type": "function"
    },
    {
      "inputs": [
        {
          "internalType": "uint256",
          "name": "borrowAmount",
          "type": "uint256"
        }
      ],
      "name": "borrow",
      "outputs": [
        {
          "internalType": "uint256",
          "name": "",
          "type": "uint256"
        }
      ],
      "stateMutability": "nonpayable",
      "type": "function"
    },
    {
      "inputs": [
        {
          "internalType": "address",
          "name": "account",
          "type": "address"
        }
      ],
      "name": "borrowBalanceCurrent",
      "outputs": [
        {
          "internalType": "uint256",
          "name": "",
          "type": "uint256"
        }
      ],
      "stateMutability": "nonpayable",
      "type": "function"
    },
    {
      "inputs": [
        {
          "internalType": "address",
          "name": "account",
          "type": "address"
        }
      ],
      "name": "borrowBalanceStored",
      "outputs": [
        {
          "internalType": "uint256",
          "name": "",
          "type": "uint256"
        }
      ],
      "stateMutability": "view",
      "type": "function"
    },
    {
      "inputs": [],
      "name": "borrowIndex",
      "outputs": [
        {
          "internalType": "uint256",
          "name": "",
          "type": "uint256"
        }
      ],
      "stateMutability": "view",
      "type": "function"
    },
    {
      "inputs": [],
      "name": "borrowRatePerBlock",
      "outputs": [
        {
          "internalType": "uint256",
          "name": "",
          "type": "uint256"
        }
      ],
      "stateMutability": "view",
      "type": "function"
    },
    {
      "inputs": [],
      "name": "comptroller",
      "outputs": [
        {
          "internalType": "contract ComptrollerInterface",
          "name": "",
          "type": "address"
        }
      ],
      "stateMutability": "view",
      "type": "function"
    },
    {
      "inputs": [],
      "name": "decimals",
      "outputs": [
        {
          "internalType": "uint8",
          "name": "",
          "type": "uint8"
        }
      ],
      "stateMutability": "view",
      "type": "function"
    },
    {
      "inputs": [],
      "name": "exchangeRateCurrent",
      "outputs": [
        {
          "internalType": "uint256",
          "name": "",
          "type": "uint256"
        }
      ],
      "stateMutability": "nonpayable",
      "type": "function"
    },
    {
      "inputs": [],
      "name": "exchangeRateStored",
      "outputs": [
        {
          "internalType": "uint256",
          "name": "",
          "type": "uint256"
        }
      ],
      "stateMutability": "view",
      "type": "function"
    },
    {
      "inputs": [
        {
          "internalType": "address",
          "name": "account",
          "type": "address"
        }
      ],
      "name": "getAccountSnapshot",
      "outputs": [
        {
          "internalType": "uint256",
          "name": "",
          "type": "uint256"
        },
        {
          "internalType": "uint256",
          "name": "",
          "type": "uint256"
        },
        {
          "internalType": "uint256",
          "name": "",
          "type": "uint256"
        },
        {
          "internalType": "uint256",
          "name": "",
          "type": "uint256"
        }
      ],
      "stateMutability": "view",
      "type": "function"
    },
    {
      "inputs": [],
      "name": "getCash",
      "outputs": [
        {
          "internalType": "uint256",
          "name": "",
          "type": "uint256"
        }
      ],
      "stateMutability": "view",
      "type": "function"
    },
    {
      "inputs": [
        {
          "internalType": "address",
          "name": "underlying_",
          "type": "address"
        },
        {
          "internalType": "contract ComptrollerInterface",
          "name": "comptroller_",
          "type": "address"
        },
        {
          "internalType": "contract InterestRateModel",
          "name": "interestRateModel_",
          "type": "address"
        },
        {
          "internalType": "uint256",
          "name": "initialExchangeRateMantissa_",
          "type": "uint256"
        },
        {
          "internalType": "string",
          "name": "name_",
          "type": "string"
        },
        {
          "internalType": "string",
          "name": "symbol_",
          "type": "string"
        },
        {
          "internalType": "uint8",
          "name": "decimals_",
          "type": "uint8"
        }
      ],
      "name": "initialize",
      "outputs": [],
      "stateMutability": "nonpayable",
      "type": "function"
    },
    {
      "inputs": [
        {
          "internalType": "contract ComptrollerInterface",
          "name": "comptroller_",
          "type": "address"
        },
        {
          "internalType": "contract InterestRateModel",
          "name": "interestRateModel_",
          "type": "address"
        },
        {
          "internalType": "uint256",
          "name": "initialExchangeRateMantissa_",
          "type": "uint256"
        },
        {
          "internalType": "string",
          "name": "name_",
          "type": "string"
        },
        {
          "internalType": "string",
          "name": "symbol_",
          "type": "string"
        },
        {
          "internalType": "uint8",
          "name": "decimals_",
          "type": "uint8"
        }
      ],
      "name": "initialize",
      "outputs": [],
      "stateMutability": "nonpayable",
      "type": "function"
    },
    {
      "inputs": [],
      "name": "interestRateModel",
      "outputs": [
        {
          "internalType": "contract InterestRateModel",
          "name": "",
          "type": "address"
        }
      ],
      "stateMutability": "view",
      "type": "function"
    },
    {
      "inputs": [],
      "name": "isCToken",
      "outputs": [
        {
          "internalType": "bool",
          "name": "",
          "type": "bool"
        }
      ],
      "stateMutability": "view",
      "type": "function"
    },
    {
      "inputs": [
        {
          "internalType": "address",
          "name": "borrower",
          "type": "address"
        },
        {
          "internalType": "uint256",
          "name": "repayAmount",
          "type": "uint256"
        },
        {
          "internalType": "contract CTokenInterface",
          "name": "cTokenCollateral",
          "type": "address"
        }
      ],
      "name": "liquidateBorrow",
      "outputs": [
        {
          "internalType": "uint256",
          "name": "",
          "type": "uint256"
        }
      ],
      "stateMutability": "nonpayable",
      "type": "function"
    },
    {
      "inputs": [
        {
          "internalType": "uint256",
          "name": "mintAmount",
          "type": "uint256"
        }
      ],
      "name": "mint",
      "outputs": [
        {
          "internalType": "uint256",
          "name": "",
          "type": "uint256"
        }
      ],
      "stateMutability": "nonpayable",
      "type": "function"
    },
    {
      "inputs": [],
      "name": "name",
      "outputs": [
        {
          "internalType": "string",
          "name": "",
          "type": "string"
        }
      ],
      "stateMutability": "view",
      "type": "function"
    },
    {
      "inputs": [],
      "name": "pendingAdmin",
      "outputs": [
        {
          "internalType": "address payable",
          "name": "",
          "type": "address"
        }
      ],
      "stateMutability": "view",
      "type": "function"
    },
    {
      "inputs": [],
      "name": "protocolSeizeShareMantissa",
      "outputs": [
        {
          "internalType": "uint256",
          "name": "",
          "type": "uint256"
        }
      ],
      "stateMutability": "view",
      "type": "function"
    },
    {
      "inputs": [
        {
          "internalType": "uint256",
          "name": "redeemTokens",
          "type": "uint256"
        }
      ],
      "name": "redeem",
      "outputs": [
        {
          "internalType": "uint256",
          "name": "",
          "type": "uint256"
        }
      ],
      "stateMutability": "nonpayable",
      "type": "function"
    },
    {
      "inputs": [
        {
          "internalType": "uint256",
          "name": "redeemAmount",
          "type": "uint256"
        }
      ],
      "name": "redeemUnderlying",
      "outputs": [
        {
          "internalType": "uint256",
          "name": "",
          "type": "uint256"
        }
      ],
      "stateMutability": "nonpayable",
      "type": "function"
    },
    {
      "inputs": [
        {
          "internalType": "uint256",
          "name": "repayAmount",
          "type": "uint256"
        }
      ],
      "name": "repayBorrow",
      "outputs": [
        {
          "internalType": "uint256",
          "name": "",
          "type": "uint256"
        }
      ],
      "stateMutability": "nonpayable",
      "type": "function"
    },
    {
      "inputs": [
        {
          "internalType": "address",
          "name": "borrower",
          "type": "address"
        },
        {
          "internalType": "uint256",
          "name": "repayAmount",
          "type": "uint256"
        }
      ],
      "name": "repayBorrowBehalf",
      "outputs": [
        {
          "internalType": "uint256",
          "name": "",
          "type": "uint256"
        }
      ],
      "stateMutability": "nonpayable",
      "type": "function"
    },
    {
      "inputs": [],
      "name": "reserveFactorMantissa",
      "outputs": [
        {
          "internalType": "uint256",
          "name": "",
          "type": "uint256"
        }
      ],
      "stateMutability": "view",
      "type": "function"
    },
    {
      "inputs": [
        {
          "internalType": "address",
          "name": "liquidator",
          "type": "address"
        },
        {
          "internalType": "address",
          "name": "borrower",
          "type": "address"
        },
        {
          "internalType": "uint256",
          "name": "seizeTokens",
          "type": "uint256"
        }
      ],
      "name": "seize",
      "outputs": [
        {
          "internalType": "uint256",
          "name": "",
          "type": "uint256"
        }
      ],
      "stateMutability": "nonpayable",
      "type": "function"
    },
    {
      "inputs": [],
      "name": "supplyRatePerBlock",
      "outputs": [
        {
          "internalType": "uint256",
          "name": "",
          "type": "uint256"
        }
      ],
      "stateMutability": "view",
      "type": "function"
    },
    {
      "inputs": [
        {
          "internalType": "contract EIP20NonStandardInterface",
          "name": "token",
          "type": "address"
        }
      ],
      "name": "sweepToken",
      "outputs": [],
      "stateMutability": "nonpayable",
      "type": "function"
    },
    {
      "inputs": [],
      "name": "symbol",
      "outputs": [
        {
          "internalType": "string",
          "name": "",
          "type": "string"
        }
      ],
      "stateMutability": "view",
      "type": "function"
    },
    {
      "inputs": [],
      "name": "totalBorrows",
      "outputs": [
        {
          "internalType": "uint256",
          "name": "",
          "type": "uint256"
        }
      ],
      "stateMutability": "view",
      "type": "function"
    },
    {
      "inputs": [],
      "name": "totalBorrowsCurrent",
      "outputs": [
        {
          "internalType": "uint256",
          "name": "",
          "type": "uint256"
        }
      ],
      "stateMutability": "nonpayable",
      "type": "function"
    },
    {
      "inputs": [],
      "name": "totalReserves",
      "outputs": [
        {
          "internalType": "uint256",
          "name": "",
          "type": "uint256"
        }
      ],
      "stateMutability": "view",
      "type": "function"
    },
    {
      "inputs": [],
      "name": "totalSupply",
      "outputs": [
        {
          "internalType": "uint256",
          "name": "",
          "type": "uint256"
        }
      ],
      "stateMutability": "view",
      "type": "function"
    },
    {
      "inputs": [
        {
          "internalType": "address",
          "name": "dst",
          "type": "address"
        },
        {
          "internalType": "uint256",
          "name": "amount",
          "type": "uint256"
        }
      ],
      "name": "transfer",
      "outputs": [
        {
          "internalType": "bool",
          "name": "",
          "type": "bool"
        }
      ],
      "stateMutability": "nonpayable",
      "type": "function"
    },
    {
      "inputs": [
        {
          "internalType": "address",
          "name": "src",
          "type": "address"
        },
        {
          "internalType": "address",
          "name": "dst",
          "type": "address"
        },
        {
          "internalType": "uint256",
          "name": "amount",
          "type": "uint256"
        }
      ],
      "name": "transferFrom",
      "outputs": [
        {
          "internalType": "bool",
          "name": "",
          "type": "bool"
        }
      ],
      "stateMutability": "nonpayable",
      "type": "function"
    },
    {
      "inputs": [],
      "name": "underlying",
      "outputs": [
        {
          "internalType": "address",
          "name": "",
          "type": "address"
        }
      ],
      "stateMutability": "view",
      "type": "function"
    }
  ],
  "bytecode": "0x608060405234801561001057600080fd5b50616a5a80620000216000396000f3fe608060405234801561001057600080fd5b506004361061030c5760003560e01c80637f1e06be1161019d578063bd6d894d116100e9578063f2b3abbd116100a2578063f851a4401161007c578063f851a44014610a38578063f8f9da2814610a56578063fca7820b14610a74578063fe9c44ae14610aa45761030c565b8063f2b3abbd146109ba578063f3fdb15a146109ea578063f5e3c46214610a085761030c565b8063bd6d894d146108bb578063c37f68e2146108d9578063c5ebeaec1461090c578063db006a751461093c578063dd62ed3e1461096c578063e9c714f21461099c5761030c565b8063a0712d6811610156578063aa5af0fd11610130578063aa5af0fd1461081f578063ae9d70b01461083d578063b2a02ff11461085b578063b71d1a0c1461088b5761030c565b8063a0712d68146107a1578063a6afed95146107d1578063a9059cbb146107ef5761030c565b80637f1e06be146106cd578063852a12e3146106e95780638f840ddd1461071957806395d89b411461073757806395dd91931461075557806399d8c1b4146107855761030c565b80633af9e6691161025c578063601a0bf1116102155780636c540baf116101ef5780636c540baf146106435780636f307dc31461066157806370a082311461067f57806373acee98146106af5761030c565b8063601a0bf1146105d75780636752e7021461060757806369ab3250146106255761030c565b80633af9e669146104ed5780633b1d21a21461051d5780633e9410101461053b5780634576b5db1461056b57806347bd37181461059b5780635fe3b567146105b95761030c565b8063182df0f5116102c957806323b872dd116102a357806323b872dd146104515780632608f8181461048157806326782247146104b1578063313ce567146104cf5761030c565b8063182df0f5146103fb5780631a31d465146104195780631be19560146104355761030c565b806306fdde0314610311578063095ea7b31461032f5780630e7527021461035f578063173b99041461038f57806317bfdfbc146103ad57806318160ddd146103dd575b600080fd5b610319610ac2565b6040516103269190615210565b60405180910390f35b610349600480360381019061034491906152da565b610b50565b6040516103569190615335565b60405180910390f35b61037960048036038101906103749190615350565b610c47565b604051610386919061538c565b60405180910390f35b610397610c5b565b6040516103a4919061538c565b60405180910390f35b6103c760048036038101906103c291906153a7565b610c61565b6040516103d4919061538c565b60405180910390f35b6103e5610cfe565b6040516103f2919061538c565b60405180910390f35b610403610d04565b604051610410919061538c565b60405180910390f35b610433600480360381019061042e91906155be565b610d13565b005b61044f600480360381019061044a91906156d6565b610dfd565b005b61046b60048036038101906104669190615703565b61102f565b6040516104789190615335565b60405180910390f35b61049b600480360381019061049691906152da565b6110cb565b6040516104a8919061538c565b60405180910390f35b6104b96110e1565b6040516104c69190615777565b60405180910390f35b6104d7611107565b6040516104e491906157a1565b60405180910390f35b610507600480360381019061050291906153a7565b61111a565b604051610514919061538c565b60405180910390f35b610525611186565b604051610532919061538c565b60405180910390f35b61055560048036038101906105509190615350565b611195565b604051610562919061538c565b60405180910390f35b610585600480360381019061058091906157bc565b6111a7565b604051610592919061538c565b60405180910390f35b6105a3611388565b6040516105b0919061538c565b60405180910390f35b6105c161138e565b6040516105ce9190615848565b60405180910390f35b6105f160048036038101906105ec9190615350565b6113b4565b6040516105fe919061538c565b60405180910390f35b61060f611451565b60405161061c919061538c565b60405180910390f35b61062d61145c565b60405161063a919061538c565b60405180910390f35b61064b611461565b604051610658919061538c565b60405180910390f35b610669611467565b6040516106769190615872565b60405180910390f35b610699600480360381019061069491906153a7565b61148d565b6040516106a6919061538c565b60405180910390f35b6106b76114d6565b6040516106c4919061538c565b60405180910390f35b6106e760048036038101906106e291906153a7565b61156b565b005b61070360048036038101906106fe9190615350565b61168b565b604051610710919061538c565b60405180910390f35b61072161169f565b60405161072e919061538c565b60405180910390f35b61073f6116a5565b60405161074c9190615210565b60405180910390f35b61076f600480360381019061076a91906153a7565b611733565b60405161077c919061538c565b60405180910390f35b61079f600480360381019061079a919061588d565b611745565b005b6107bb60048036038101906107b69190615350565b61199b565b6040516107c8919061538c565b60405180910390f35b6107d96119af565b6040516107e6919061538c565b60405180910390f35b610809600480360381019061080491906152da565b611bca565b6040516108169190615335565b60405180910390f35b610827611c65565b604051610834919061538c565b60405180910390f35b610845611c6b565b604051610852919061538c565b60405180910390f35b61087560048036038101906108709190615703565b611d21565b604051610882919061538c565b60405180910390f35b6108a560048036038101906108a0919061597e565b611dbc565b6040516108b2919061538c565b60405180910390f35b6108c3611ef0565b6040516108d0919061538c565b60405180910390f35b6108f360048036038101906108ee91906153a7565b611f8a565b60405161090394939291906159ab565b60405180910390f35b61092660048036038101906109219190615350565b611ff2565b604051610933919061538c565b60405180910390f35b61095660048036038101906109519190615350565b612006565b604051610963919061538c565b60405180910390f35b610986600480360381019061098191906159f0565b61201a565b604051610993919061538c565b60405180910390f35b6109a46120a1565b6040516109b1919061538c565b60405180910390f35b6109d460048036038101906109cf9190615a30565b612315565b6040516109e1919061538c565b60405180910390f35b6109f2612330565b6040516109ff9190615a7e565b60405180910390f35b610a226004803603810190610a1d9190615ad7565b612356565b604051610a2f919061538c565b60405180910390f35b610a4061236e565b604051610a4d9190615777565b60405180910390f35b610a5e612394565b604051610a6b919061538c565b60405180910390f35b610a8e6004803603810190610a899190615350565b612446565b604051610a9b919061538c565b60405180910390f35b610aac6124e3565b604051610ab99190615335565b60405180910390f35b60018054610acf90615b59565b80601f0160208091040260200160405190810160405280929190818152602001828054610afb90615b59565b8015610b485780601f10610b1d57610100808354040283529160200191610b48565b820191906000526020600020905b815481529060010190602001808311610b2b57829003601f168201915b505050505081565b60008033905082600f60008373ffffffffffffffffffffffffffffffffffffffff1673ffffffffffffffffffffffffffffffffffffffff16815260200190815260200160002060008673ffffffffffffffffffffffffffffffffffffffff1673ffffffffffffffffffffffffffffffffffffffff168152602001908152602001600020819055508373ffffffffffffffffffffffffffffffffffffffff168173ffffffffffffffffffffffffffffffffffffffff167f8c5be1e5ebec7d5bd14f71427d1e84f3dd0314c0f7b2291e5b200ac8c7c3b92585604051610c34919061538c565b60405180910390a3600191505092915050565b6000610c52826124e8565b60009050919050565b60085481565b60008060009054906101000a900460ff16610cb1576040517f08c379a0000000000000000000000000000000000000000000000000000000008152600401610ca890615bd7565b60405180910390fd5b60008060006101000a81548160ff021916908315150217905550610cd36119af565b50610cdd82611733565b905060016000806101000a81548160ff021916908315150217905550919050565b600d5481565b6000610d0e612581565b905090565b610d21868686868686611745565b86601160006101000a81548173ffffffffffffffffffffffffffffffffffffffff021916908373ffffffffffffffffffffffffffffffffffffffff160217905550601160009054906101000a900473ffffffffffffffffffffffffffffffffffffffff1673ffffffffffffffffffffffffffffffffffffffff166318160ddd6040518163ffffffff1660e01b8152600401602060405180830381865afa158015610dcf573d6000803e3d6000fd5b505050506040513d601f19601f82011682018060405250810190610df39190615c0c565b5050505050505050565b600360019054906101000a900473ffffffffffffffffffffffffffffffffffffffff1673ffffffffffffffffffffffffffffffffffffffff163373ffffffffffffffffffffffffffffffffffffffff1614610e8d576040517f08c379a0000000000000000000000000000000000000000000000000000000008152600401610e8490615cab565b60405180910390fd5b601160009054906101000a900473ffffffffffffffffffffffffffffffffffffffff1673ffffffffffffffffffffffffffffffffffffffff168173ffffffffffffffffffffffffffffffffffffffff161415610f1e576040517f08c379a0000000000000000000000000000000000000000000000000000000008152600401610f1590615d3d565b60405180910390fd5b60008173ffffffffffffffffffffffffffffffffffffffff166370a08231306040518263ffffffff1660e01b8152600401610f599190615872565b602060405180830381865afa158015610f76573d6000803e3d6000fd5b505050506040513d601f19601f82011682018060405250810190610f9a9190615c0c565b90508173ffffffffffffffffffffffffffffffffffffffff1663a9059cbb600360019054906101000a900473ffffffffffffffffffffffffffffffffffffffff16836040518363ffffffff1660e01b8152600401610ff9929190615d7e565b600060405180830381600087803b15801561101357600080fd5b505af1158015611027573d6000803e3d6000fd5b505050505050565b60008060009054906101000a900460ff1661107f576040517f08c379a000000000000000000000000000000000000000000000000000000000815260040161107690615bd7565b60405180910390fd5b60008060006101000a81548160ff02191690831515021790555060006110a7338686866125f6565b14905060016000806101000a81548160ff0219169083151502179055509392505050565b60006110d78383612a7d565b6000905092915050565b600460009054906101000a900473ffffffffffffffffffffffffffffffffffffffff1681565b600360009054906101000a900460ff1681565b6000806040518060200160405280611130611ef0565b815250905061117e81600e60008673ffffffffffffffffffffffffffffffffffffffff1673ffffffffffffffffffffffffffffffffffffffff16815260200190815260200160002054612b17565b915050919050565b6000611190612b38565b905090565b60006111a082612be0565b9050919050565b6000600360019054906101000a900473ffffffffffffffffffffffffffffffffffffffff1673ffffffffffffffffffffffffffffffffffffffff163373ffffffffffffffffffffffffffffffffffffffff1614611230576040517fd219dc1f00000000000000000000000000000000000000000000000000000000815260040160405180910390fd5b6000600560009054906101000a900473ffffffffffffffffffffffffffffffffffffffff1690508273ffffffffffffffffffffffffffffffffffffffff16627e3dd26040518163ffffffff1660e01b8152600401602060405180830381865afa1580156112a1573d6000803e3d6000fd5b505050506040513d601f19601f820116820180604052508101906112c59190615dd3565b611304576040517f08c379a00000000000000000000000000000000000000000000000000000000081526004016112fb90615e4c565b60405180910390fd5b82600560006101000a81548173ffffffffffffffffffffffffffffffffffffffff021916908373ffffffffffffffffffffffffffffffffffffffff1602179055507f7ac369dbd14fa5ea3f473ed67cc9d598964a77501540ba6751eb0b3decf5870d8184604051611376929190615e6c565b60405180910390a16000915050919050565b600b5481565b600560009054906101000a900473ffffffffffffffffffffffffffffffffffffffff1681565b60008060009054906101000a900460ff16611404576040517f08c379a00000000000000000000000000000000000000000000000000000000081526004016113fb90615bd7565b60405180910390fd5b60008060006101000a81548160ff0219169083151502179055506114266119af565b5061143082612c81565b905060016000806101000a81548160ff021916908315150217905550919050565b666379da05b6000081565b600081565b60095481565b601160009054906101000a900473ffffffffffffffffffffffffffffffffffffffff1681565b6000600e60008373ffffffffffffffffffffffffffffffffffffffff1673ffffffffffffffffffffffffffffffffffffffff168152602001908152602001600020549050919050565b60008060009054906101000a900460ff16611526576040517f08c379a000000000000000000000000000000000000000000000000000000000815260040161151d90615bd7565b60405180910390fd5b60008060006101000a81548160ff0219169083151502179055506115486119af565b50600b54905060016000806101000a81548160ff02191690831515021790555090565b600360019054906101000a900473ffffffffffffffffffffffffffffffffffffffff1673ffffffffffffffffffffffffffffffffffffffff163373ffffffffffffffffffffffffffffffffffffffff16146115fb576040517f08c379a00000000000000000000000000000000000000000000000000000000081526004016115f290615f07565b60405180910390fd5b601160009054906101000a900473ffffffffffffffffffffffffffffffffffffffff1673ffffffffffffffffffffffffffffffffffffffff16635c19a95c826040518263ffffffff1660e01b81526004016116569190615872565b600060405180830381600087803b15801561167057600080fd5b505af1158015611684573d6000803e3d6000fd5b5050505050565b600061169682612e74565b60009050919050565b600c5481565b600280546116b290615b59565b80601f01602080910402602001604051908101604052809291908181526020018280546116de90615b59565b801561172b5780601f106117005761010080835404028352916020019161172b565b820191906000526020600020905b81548152906001019060200180831161170e57829003601f168201915b505050505081565b600061173e82612f0d565b9050919050565b600360019054906101000a900473ffffffffffffffffffffffffffffffffffffffff1673ffffffffffffffffffffffffffffffffffffffff163373ffffffffffffffffffffffffffffffffffffffff16146117d5576040517f08c379a00000000000000000000000000000000000000000000000000000000081526004016117cc90615f99565b60405180910390fd5b60006009541480156117e957506000600a54145b611828576040517f08c379a000000000000000000000000000000000000000000000000000000000815260040161181f9061602b565b60405180910390fd5b83600781905550600060075411611874576040517f08c379a000000000000000000000000000000000000000000000000000000000815260040161186b906160bd565b60405180910390fd5b600061187f876111a7565b9050600081146118c4576040517f08c379a00000000000000000000000000000000000000000000000000000000081526004016118bb90616129565b60405180910390fd5b6118cc612f98565b600981905550670de0b6b3a7640000600a819055506118ea86612fa0565b90506000811461192f576040517f08c379a0000000000000000000000000000000000000000000000000000000008152600401611926906161bb565b60405180910390fd5b83600190805190602001906119459291906150c1565b50826002908051906020019061195c9291906150c1565b5081600360006101000a81548160ff021916908360ff16021790555060016000806101000a81548160ff02191690831515021790555050505050505050565b60006119a6826131c3565b60009050919050565b6000806119ba612f98565b905060006009549050818114156119d657600092505050611bc7565b60006119e0612b38565b90506000600b5490506000600c5490506000600a5490506000600660009054906101000a900473ffffffffffffffffffffffffffffffffffffffff1673ffffffffffffffffffffffffffffffffffffffff166315f240538686866040518463ffffffff1660e01b8152600401611a58939291906161db565b602060405180830381865afa158015611a75573d6000803e3d6000fd5b505050506040513d601f19601f82011682018060405250810190611a999190615c0c565b905065048c27395000811115611ae4576040517f08c379a0000000000000000000000000000000000000000000000000000000008152600401611adb9061625e565b60405180910390fd5b60008688611af291906162ad565b90506000611b0e6040518060200160405280858152508361325a565b90506000611b1c8288612b17565b905060008782611b2c91906162e1565b90506000611b4b6040518060200160405280600854815250848a613286565b90506000611b5a85898a613286565b90508c60098190555080600a8190555082600b8190555081600c819055507f4dec04e750ca11537cabcd8a9eab06494de08da3735bc8871cd41250e190bc048b858386604051611bad94939291906159ab565b60405180910390a160009d50505050505050505050505050505b90565b60008060009054906101000a900460ff16611c1a576040517f08c379a0000000000000000000000000000000000000000000000000000000008152600401611c1190615bd7565b60405180910390fd5b60008060006101000a81548160ff0219169083151502179055506000611c42333386866125f6565b14905060016000806101000a81548160ff02191690831515021790555092915050565b600a5481565b6000600660009054906101000a900473ffffffffffffffffffffffffffffffffffffffff1673ffffffffffffffffffffffffffffffffffffffff1663b8168816611cb3612b38565b600b54600c546008546040518563ffffffff1660e01b8152600401611cdb94939291906159ab565b602060405180830381865afa158015611cf8573d6000803e3d6000fd5b505050506040513d601f19601f82011682018060405250810190611d1c9190615c0c565b905090565b60008060009054906101000a900460ff16611d71576040517f08c379a0000000000000000000000000000000000000000000000000000000008152600401611d6890615bd7565b60405180910390fd5b60008060006101000a81548160ff021916908315150217905550611d97338585856132b1565b6000905060016000806101000a81548160ff0219169083151502179055509392505050565b6000600360019054906101000a900473ffffffffffffffffffffffffffffffffffffffff1673ffffffffffffffffffffffffffffffffffffffff163373ffffffffffffffffffffffffffffffffffffffff1614611e45576040517f5cb56c2b00000000000000000000000000000000000000000000000000000000815260040160405180910390fd5b6000600460009054906101000a900473ffffffffffffffffffffffffffffffffffffffff16905082600460006101000a81548173ffffffffffffffffffffffffffffffffffffffff021916908373ffffffffffffffffffffffffffffffffffffffff1602179055507fca4f2f25d0898edd99413412fb94012f9e54ec8142f9b093e7720646a95b16a98184604051611ede929190616337565b60405180910390a16000915050919050565b60008060009054906101000a900460ff16611f40576040517f08c379a0000000000000000000000000000000000000000000000000000000008152600401611f3790615bd7565b60405180910390fd5b60008060006101000a81548160ff021916908315150217905550611f626119af565b50611f6b610d04565b905060016000806101000a81548160ff02191690831515021790555090565b6000806000806000600e60008773ffffffffffffffffffffffffffffffffffffffff1673ffffffffffffffffffffffffffffffffffffffff16815260200190815260200160002054611fdb87612f0d565b611fe3612581565b93509350935093509193509193565b6000611ffd826136bb565b60009050919050565b600061201182613752565b60009050919050565b6000600f60008473ffffffffffffffffffffffffffffffffffffffff1673ffffffffffffffffffffffffffffffffffffffff16815260200190815260200160002060008373ffffffffffffffffffffffffffffffffffffffff1673ffffffffffffffffffffffffffffffffffffffff16815260200190815260200160002054905092915050565b6000600460009054906101000a900473ffffffffffffffffffffffffffffffffffffffff1673ffffffffffffffffffffffffffffffffffffffff163373ffffffffffffffffffffffffffffffffffffffff1614158061212c5750600073ffffffffffffffffffffffffffffffffffffffff163373ffffffffffffffffffffffffffffffffffffffff16145b15612163576040517f6e893ca400000000000000000000000000000000000000000000000000000000815260040160405180910390fd5b6000600360019054906101000a900473ffffffffffffffffffffffffffffffffffffffff1690506000600460009054906101000a900473ffffffffffffffffffffffffffffffffffffffff169050600460009054906101000a900473ffffffffffffffffffffffffffffffffffffffff16600360016101000a81548173ffffffffffffffffffffffffffffffffffffffff021916908373ffffffffffffffffffffffffffffffffffffffff1602179055506000600460006101000a81548173ffffffffffffffffffffffffffffffffffffffff021916908373ffffffffffffffffffffffffffffffffffffffff1602179055507ff9ffabca9c8276e99321725bcb43fb076a6c66a54b7f21c4e8146d8519b417dc82600360019054906101000a900473ffffffffffffffffffffffffffffffffffffffff166040516122a9929190616337565b60405180910390a17fca4f2f25d0898edd99413412fb94012f9e54ec8142f9b093e7720646a95b16a981600460009054906101000a900473ffffffffffffffffffffffffffffffffffffffff16604051612304929190616337565b60405180910390a160009250505090565b600061231f6119af565b5061232982612fa0565b9050919050565b600660009054906101000a900473ffffffffffffffffffffffffffffffffffffffff1681565b60006123638484846137eb565b600090509392505050565b600360019054906101000a900473ffffffffffffffffffffffffffffffffffffffff1681565b6000600660009054906101000a900473ffffffffffffffffffffffffffffffffffffffff1673ffffffffffffffffffffffffffffffffffffffff166315f240536123dc612b38565b600b54600c546040518463ffffffff1660e01b8152600401612400939291906161db565b602060405180830381865afa15801561241d573d6000803e3d6000fd5b505050506040513d601f19601f820116820180604052508101906124419190615c0c565b905090565b60008060009054906101000a900460ff16612496576040517f08c379a000000000000000000000000000000000000000000000000000000000815260040161248d90615bd7565b60405180910390fd5b60008060006101000a81548160ff0219169083151502179055506124b86119af565b506124c282613941565b905060016000806101000a81548160ff021916908315150217905550919050565b600181565b60008054906101000a900460ff16612535576040517f08c379a000000000000000000000000000000000000000000000000000000000815260040161252c90615bd7565b60405180910390fd5b60008060006101000a81548160ff0219169083151502179055506125576119af565b50612563333383613a9f565b5060016000806101000a81548160ff02191690831515021790555050565b600080600d549050600081141561259d576007549150506125f3565b60006125a7612b38565b90506000600c54600b54836125bc91906162e1565b6125c691906162ad565b9050600083670de0b6b3a7640000836125df9190616360565b6125e991906163e9565b9050809450505050505b90565b600080600560009054906101000a900473ffffffffffffffffffffffffffffffffffffffff1673ffffffffffffffffffffffffffffffffffffffff1663bdcdc258308787876040518563ffffffff1660e01b815260040161265a949392919061641a565b6020604051808303816000875af1158015612679573d6000803e3d6000fd5b505050506040513d601f19601f8201168201806040525081019061269d9190615c0c565b9050600081146126e457806040517f113a84ee0000000000000000000000000000000000000000000000000000000081526004016126db919061538c565b60405180910390fd5b8373ffffffffffffffffffffffffffffffffffffffff168573ffffffffffffffffffffffffffffffffffffffff16141561274a576040517f8cd22d1900000000000000000000000000000000000000000000000000000000815260040160405180910390fd5b60008573ffffffffffffffffffffffffffffffffffffffff168773ffffffffffffffffffffffffffffffffffffffff1614156127a8577fffffffffffffffffffffffffffffffffffffffffffffffffffffffffffffffff9050612828565b600f60008773ffffffffffffffffffffffffffffffffffffffff1673ffffffffffffffffffffffffffffffffffffffff16815260200190815260200160002060008873ffffffffffffffffffffffffffffffffffffffff1673ffffffffffffffffffffffffffffffffffffffff1681526020019081526020016000205490505b6000848261283691906162ad565b9050600085600e60008a73ffffffffffffffffffffffffffffffffffffffff1673ffffffffffffffffffffffffffffffffffffffff1681526020019081526020016000205461288591906162ad565b9050600086600e60008a73ffffffffffffffffffffffffffffffffffffffff1673ffffffffffffffffffffffffffffffffffffffff168152602001908152602001600020546128d491906162e1565b905081600e60008b73ffffffffffffffffffffffffffffffffffffffff1673ffffffffffffffffffffffffffffffffffffffff1681526020019081526020016000208190555080600e60008a73ffffffffffffffffffffffffffffffffffffffff1673ffffffffffffffffffffffffffffffffffffffff168152602001908152602001600020819055507fffffffffffffffffffffffffffffffffffffffffffffffffffffffffffffffff8414612a075782600f60008b73ffffffffffffffffffffffffffffffffffffffff1673ffffffffffffffffffffffffffffffffffffffff16815260200190815260200160002060008c73ffffffffffffffffffffffffffffffffffffffff1673ffffffffffffffffffffffffffffffffffffffff168152602001908152602001600020819055505b8773ffffffffffffffffffffffffffffffffffffffff168973ffffffffffffffffffffffffffffffffffffffff167fddf252ad1be2c89b69c2b068fc378daa952ba7f163c4a11628f55a4df523b3ef89604051612a64919061538c565b60405180910390a3600095505050505050949350505050565b60008054906101000a900460ff16612aca576040517f08c379a0000000000000000000000000000000000000000000000000000000008152600401612ac190615bd7565b60405180910390fd5b60008060006101000a81548160ff021916908315150217905550612aec6119af565b50612af8338383613a9f565b5060016000806101000a81548160ff0219169083151502179055505050565b600080612b24848461325a565b9050612b2f81613d25565b91505092915050565b600080601160009054906101000a900473ffffffffffffffffffffffffffffffffffffffff1690508073ffffffffffffffffffffffffffffffffffffffff166370a08231306040518263ffffffff1660e01b8152600401612b999190615872565b602060405180830381865afa158015612bb6573d6000803e3d6000fd5b505050506040513d601f19601f82011682018060405250810190612bda9190615c0c565b91505090565b60008060009054906101000a900460ff16612c30576040517f08c379a0000000000000000000000000000000000000000000000000000000008152600401612c2790615bd7565b60405180910390fd5b60008060006101000a81548160ff021916908315150217905550612c526119af565b50612c5c82613d46565b50506000905060016000806101000a81548160ff021916908315150217905550919050565b600080600360019054906101000a900473ffffffffffffffffffffffffffffffffffffffff1673ffffffffffffffffffffffffffffffffffffffff163373ffffffffffffffffffffffffffffffffffffffff1614612d0b576040517ff7e5e6d000000000000000000000000000000000000000000000000000000000815260040160405180910390fd5b612d13612f98565b60095414612d4d576040517fdff50cb000000000000000000000000000000000000000000000000000000000815260040160405180910390fd5b82612d56612b38565b1015612d8e576040517f3345e99900000000000000000000000000000000000000000000000000000000815260040160405180910390fd5b600c54831115612dca576040517ff1a5300a00000000000000000000000000000000000000000000000000000000815260040160405180910390fd5b82600c54612dd891906162ad565b905080600c81905550612e0d600360019054906101000a900473ffffffffffffffffffffffffffffffffffffffff1684613e05565b7f3bad0c59cf2f06e7314077049f48a93578cd16f5ef92329f1dab1420a99c177e600360019054906101000a900473ffffffffffffffffffffffffffffffffffffffff168483604051612e629392919061645f565b60405180910390a16000915050919050565b60008054906101000a900460ff16612ec1576040517f08c379a0000000000000000000000000000000000000000000000000000000008152600401612eb890615bd7565b60405180910390fd5b60008060006101000a81548160ff021916908315150217905550612ee36119af565b50612ef033600083613f0e565b60016000806101000a81548160ff02191690831515021790555050565b600080601060008473ffffffffffffffffffffffffffffffffffffffff1673ffffffffffffffffffffffffffffffffffffffff1681526020019081526020016000209050600081600001541415612f68576000915050612f93565b6000600a548260000154612f7c9190616360565b9050816001015481612f8e91906163e9565b925050505b919050565b600043905090565b600080600360019054906101000a900473ffffffffffffffffffffffffffffffffffffffff1673ffffffffffffffffffffffffffffffffffffffff163373ffffffffffffffffffffffffffffffffffffffff161461302a576040517f407fded500000000000000000000000000000000000000000000000000000000815260040160405180910390fd5b613032612f98565b6009541461306c576040517f17c54b9600000000000000000000000000000000000000000000000000000000815260040160405180910390fd5b600660009054906101000a900473ffffffffffffffffffffffffffffffffffffffff1690508273ffffffffffffffffffffffffffffffffffffffff16632191f92a6040518163ffffffff1660e01b8152600401602060405180830381865afa1580156130dc573d6000803e3d6000fd5b505050506040513d601f19601f820116820180604052508101906131009190615dd3565b61313f576040517f08c379a000000000000000000000000000000000000000000000000000000000815260040161313690615e4c565b60405180910390fd5b82600660006101000a81548173ffffffffffffffffffffffffffffffffffffffff021916908373ffffffffffffffffffffffffffffffffffffffff1602179055507fedffc32e068c7c95dfd4bdfd5c4d939a084d6b11c4199eac8436ed234d72f92681846040516131b1929190616496565b60405180910390a16000915050919050565b60008054906101000a900460ff16613210576040517f08c379a000000000000000000000000000000000000000000000000000000000815260040161320790615bd7565b60405180910390fd5b60008060006101000a81548160ff0219169083151502179055506132326119af565b5061323d33826142fc565b60016000806101000a81548160ff02191690831515021790555050565b613262615147565b604051806020016040528061327b8560000151856145a9565b815250905092915050565b600080613293858561325a565b90506132a76132a182613d25565b846145bf565b9150509392505050565b6000600560009054906101000a900473ffffffffffffffffffffffffffffffffffffffff1673ffffffffffffffffffffffffffffffffffffffff1663d02f735130878787876040518663ffffffff1660e01b81526004016133169594939291906164bf565b6020604051808303816000875af1158015613335573d6000803e3d6000fd5b505050506040513d601f19601f820116820180604052508101906133599190615c0c565b9050600081146133a057806040517fc7c01c66000000000000000000000000000000000000000000000000000000008152600401613397919061538c565b60405180910390fd5b8373ffffffffffffffffffffffffffffffffffffffff168373ffffffffffffffffffffffffffffffffffffffff161415613406576040517f7528c4ce00000000000000000000000000000000000000000000000000000000815260040160405180910390fd5b6000613427836040518060200160405280666379da05b600008152506145d5565b90506000818461343791906162ad565b90506000604051806020016040528061344e612581565b8152509050600061345f8285612b17565b9050600081600c5461347191906162e1565b905080600c8190555084600d5461348891906162ad565b600d8190555086600e60008a73ffffffffffffffffffffffffffffffffffffffff1673ffffffffffffffffffffffffffffffffffffffff168152602001908152602001600020546134d991906162ad565b600e60008a73ffffffffffffffffffffffffffffffffffffffff1673ffffffffffffffffffffffffffffffffffffffff1681526020019081526020016000208190555083600e60008b73ffffffffffffffffffffffffffffffffffffffff1673ffffffffffffffffffffffffffffffffffffffff1681526020019081526020016000205461356791906162e1565b600e60008b73ffffffffffffffffffffffffffffffffffffffff1673ffffffffffffffffffffffffffffffffffffffff168152602001908152602001600020819055508873ffffffffffffffffffffffffffffffffffffffff168873ffffffffffffffffffffffffffffffffffffffff167fddf252ad1be2c89b69c2b068fc378daa952ba7f163c4a11628f55a4df523b3ef86604051613607919061538c565b60405180910390a33073ffffffffffffffffffffffffffffffffffffffff168873ffffffffffffffffffffffffffffffffffffffff167fddf252ad1be2c89b69c2b068fc378daa952ba7f163c4a11628f55a4df523b3ef8760405161366c919061538c565b60405180910390a37fa91e67c5ea634cd43a12c5a482724b03de01e85ca68702a53d0c2f45cb7c1dc53083836040516136a793929190616512565b60405180910390a150505050505050505050565b60008054906101000a900460ff16613708576040517f08c379a00000000000000000000000000000000000000000000000000000000081526004016136ff90615bd7565b60405180910390fd5b60008060006101000a81548160ff02191690831515021790555061372a6119af565b506137353382614600565b60016000806101000a81548160ff02191690831515021790555050565b60008054906101000a900460ff1661379f576040517f08c379a000000000000000000000000000000000000000000000000000000000815260040161379690615bd7565b60405180910390fd5b60008060006101000a81548160ff0219169083151502179055506137c16119af565b506137ce33826000613f0e565b60016000806101000a81548160ff02191690831515021790555050565b60008054906101000a900460ff16613838576040517f08c379a000000000000000000000000000000000000000000000000000000000815260040161382f90615bd7565b60405180910390fd5b60008060006101000a81548160ff02191690831515021790555061385a6119af565b5060008173ffffffffffffffffffffffffffffffffffffffff1663a6afed956040518163ffffffff1660e01b81526004016020604051808303816000875af11580156138aa573d6000803e3d6000fd5b505050506040513d601f19601f820116820180604052508101906138ce9190615c0c565b90506000811461391557806040517f7dd4936e00000000000000000000000000000000000000000000000000000000815260040161390c919061538c565b60405180910390fd5b61392133858585614883565b5060016000806101000a81548160ff021916908315150217905550505050565b6000600360019054906101000a900473ffffffffffffffffffffffffffffffffffffffff1673ffffffffffffffffffffffffffffffffffffffff163373ffffffffffffffffffffffffffffffffffffffff16146139ca576040517f240b6af600000000000000000000000000000000000000000000000000000000815260040160405180910390fd5b6139d2612f98565b60095414613a0c576040517ffbf94d6e00000000000000000000000000000000000000000000000000000000815260040160405180910390fd5b670de0b6b3a7640000821115613a4e576040517fe2e441e600000000000000000000000000000000000000000000000000000000815260040160405180910390fd5b60006008549050826008819055507faaa68312e2ea9d50e16af5068410ab56e1a1fd06037b1a35664812c30f8214608184604051613a8d929190616549565b60405180910390a16000915050919050565b600080600560009054906101000a900473ffffffffffffffffffffffffffffffffffffffff1673ffffffffffffffffffffffffffffffffffffffff166324008a62308787876040518563ffffffff1660e01b8152600401613b03949392919061641a565b6020604051808303816000875af1158015613b22573d6000803e3d6000fd5b505050506040513d601f19601f82011682018060405250810190613b469190615c0c565b905060008114613b8d57806040517f8c81362d000000000000000000000000000000000000000000000000000000008152600401613b84919061538c565b60405180910390fd5b613b95612f98565b60095414613bcf576040517fc9021e2f00000000000000000000000000000000000000000000000000000000815260040160405180910390fd5b6000613bda85612f0d565b905060007fffffffffffffffffffffffffffffffffffffffffffffffffffffffffffffffff8514613c0b5784613c0d565b815b90506000613c1b8883614e62565b905060008184613c2b91906162ad565b9050600082600b54613c3d91906162ad565b905081601060008b73ffffffffffffffffffffffffffffffffffffffff1673ffffffffffffffffffffffffffffffffffffffff16815260200190815260200160002060000181905550600a54601060008b73ffffffffffffffffffffffffffffffffffffffff1673ffffffffffffffffffffffffffffffffffffffff1681526020019081526020016000206001018190555080600b819055507f1a2a22cb034d26d1854bdc6666a5b91fe25efbbb5dcad3b0355478d6f5c362a18a8a858585604051613d0d959493929190616572565b60405180910390a18296505050505050509392505050565b6000670de0b6b3a76400008260000151613d3f91906163e9565b9050919050565b600080600080613d54612f98565b60095414613d9957806040517f38acf799000000000000000000000000000000000000000000000000000000008152600401613d90919061538c565b60405180910390fd5b613da33386614e62565b905080600c54613db391906162e1565b915081600c819055507fa91e67c5ea634cd43a12c5a482724b03de01e85ca68702a53d0c2f45cb7c1dc5338284604051613def93929190616512565b60405180910390a1600081935093505050915091565b6000601160009054906101000a900473ffffffffffffffffffffffffffffffffffffffff1690508073ffffffffffffffffffffffffffffffffffffffff1663a9059cbb84846040518363ffffffff1660e01b8152600401613e67929190615d7e565b600060405180830381600087803b158015613e8157600080fd5b505af1158015613e95573d6000803e3d6000fd5b5050505060003d60008114613eb15760208114613ebb57600080fd5b6000199150613ec7565b60206000803e60005191505b5080613f08576040517f08c379a0000000000000000000000000000000000000000000000000000000008152600401613eff90616611565b60405180910390fd5b50505050565b6000821480613f1d5750600081145b613f5c576040517f08c379a0000000000000000000000000000000000000000000000000000000008152600401613f53906166a3565b60405180910390fd5b60006040518060200160405280613f71612581565b81525090506000806000851115613f9657849150613f8f8386612b17565b9050613fa6565b613fa08484615082565b91508390505b6000600560009054906101000a900473ffffffffffffffffffffffffffffffffffffffff1673ffffffffffffffffffffffffffffffffffffffff1663eabe7d913089866040518463ffffffff1660e01b8152600401614007939291906166c3565b6020604051808303816000875af1158015614026573d6000803e3d6000fd5b505050506040513d601f19601f8201168201806040525081019061404a9190615c0c565b90506000811461409157806040517f480f4247000000000000000000000000000000000000000000000000000000008152600401614088919061538c565b60405180910390fd5b614099612f98565b600954146140d3576040517f97b5cfcd00000000000000000000000000000000000000000000000000000000815260040160405180910390fd5b816140dc612b38565b1015614114576040517f91240a1b00000000000000000000000000000000000000000000000000000000815260040160405180910390fd5b82600d5461412291906162ad565b600d8190555082600e60008973ffffffffffffffffffffffffffffffffffffffff1673ffffffffffffffffffffffffffffffffffffffff1681526020019081526020016000205461417391906162ad565b600e60008973ffffffffffffffffffffffffffffffffffffffff1673ffffffffffffffffffffffffffffffffffffffff168152602001908152602001600020819055506141c08783613e05565b3073ffffffffffffffffffffffffffffffffffffffff168773ffffffffffffffffffffffffffffffffffffffff167fddf252ad1be2c89b69c2b068fc378daa952ba7f163c4a11628f55a4df523b3ef8560405161421d919061538c565b60405180910390a37fe5b754fb1abb7f01b499791d0b820ae3b6af3424ac1c59768edb53f4ec31a9298783856040516142589392919061645f565b60405180910390a1600560009054906101000a900473ffffffffffffffffffffffffffffffffffffffff1673ffffffffffffffffffffffffffffffffffffffff166351dff989308985876040518563ffffffff1660e01b81526004016142c194939291906166fa565b600060405180830381600087803b1580156142db57600080fd5b505af11580156142ef573d6000803e3d6000fd5b5050505050505050505050565b6000600560009054906101000a900473ffffffffffffffffffffffffffffffffffffffff1673ffffffffffffffffffffffffffffffffffffffff16634ef4c3e13085856040518463ffffffff1660e01b815260040161435d9392919061673f565b6020604051808303816000875af115801561437c573d6000803e3d6000fd5b505050506040513d601f19601f820116820180604052508101906143a09190615c0c565b9050600081146143e757806040517f49abd4fd0000000000000000000000000000000000000000000000000000000081526004016143de919061538c565b60405180910390fd5b6143ef612f98565b60095414614429576040517f38d8859700000000000000000000000000000000000000000000000000000000815260040160405180910390fd5b6000604051806020016040528061443e612581565b8152509050600061444f8585614e62565b9050600061445d8284615082565b905080600d5461446d91906162e1565b600d8190555080600e60008873ffffffffffffffffffffffffffffffffffffffff1673ffffffffffffffffffffffffffffffffffffffff168152602001908152602001600020546144be91906162e1565b600e60008873ffffffffffffffffffffffffffffffffffffffff1673ffffffffffffffffffffffffffffffffffffffff168152602001908152602001600020819055507f4c209b5fc8ad50758f13e2e1088ba56a560dff690a1c6fef26394f4c03821c4f86838360405161453493929190616512565b60405180910390a18573ffffffffffffffffffffffffffffffffffffffff163073ffffffffffffffffffffffffffffffffffffffff167fddf252ad1be2c89b69c2b068fc378daa952ba7f163c4a11628f55a4df523b3ef83604051614599919061538c565b60405180910390a3505050505050565b600081836145b79190616360565b905092915050565b600081836145cd91906162e1565b905092915050565b6000670de0b6b3a76400006145ee8484600001516145a9565b6145f891906163e9565b905092915050565b6000600560009054906101000a900473ffffffffffffffffffffffffffffffffffffffff1673ffffffffffffffffffffffffffffffffffffffff1663da3d454c3085856040518463ffffffff1660e01b8152600401614661939291906166c3565b6020604051808303816000875af1158015614680573d6000803e3d6000fd5b505050506040513d601f19601f820116820180604052508101906146a49190615c0c565b9050600081146146eb57806040517f918db40f0000000000000000000000000000000000000000000000000000000081526004016146e2919061538c565b60405180910390fd5b6146f3612f98565b6009541461472d576040517f3a36318400000000000000000000000000000000000000000000000000000000815260040160405180910390fd5b81614736612b38565b101561476e576040517f48c2588100000000000000000000000000000000000000000000000000000000815260040160405180910390fd5b600061477984612f0d565b90506000838261478991906162e1565b9050600084600b5461479b91906162e1565b905081601060008873ffffffffffffffffffffffffffffffffffffffff1673ffffffffffffffffffffffffffffffffffffffff16815260200190815260200160002060000181905550600a54601060008873ffffffffffffffffffffffffffffffffffffffff1673ffffffffffffffffffffffffffffffffffffffff1681526020019081526020016000206001018190555080600b8190555061483e8686613e05565b7f13ed6866d4e1ee6da46f845c46d7e54120883d75c5ea9a2dacc1c4ca8984ab80868684846040516148739493929190616776565b60405180910390a1505050505050565b6000600560009054906101000a900473ffffffffffffffffffffffffffffffffffffffff1673ffffffffffffffffffffffffffffffffffffffff16635fc7e71e30848888886040518663ffffffff1660e01b81526004016148e89594939291906164bf565b6020604051808303816000875af1158015614907573d6000803e3d6000fd5b505050506040513d601f19601f8201168201806040525081019061492b9190615c0c565b90506000811461497257806040517f1429a2f2000000000000000000000000000000000000000000000000000000008152600401614969919061538c565b60405180910390fd5b61497a612f98565b600954146149b4576040517f80965b1b00000000000000000000000000000000000000000000000000000000815260040160405180910390fd5b6149bc612f98565b8273ffffffffffffffffffffffffffffffffffffffff16636c540baf6040518163ffffffff1660e01b8152600401602060405180830381865afa158015614a07573d6000803e3d6000fd5b505050506040513d601f19601f82011682018060405250810190614a2b9190615c0c565b14614a62576040517f82379c6800000000000000000000000000000000000000000000000000000000815260040160405180910390fd5b8473ffffffffffffffffffffffffffffffffffffffff168473ffffffffffffffffffffffffffffffffffffffff161415614ac8576040517f6f46988400000000000000000000000000000000000000000000000000000000815260040160405180910390fd5b6000831415614b03576040517fd29da7ef00000000000000000000000000000000000000000000000000000000815260040160405180910390fd5b7fffffffffffffffffffffffffffffffffffffffffffffffffffffffffffffffff831415614b5d576040517fb3058b7600000000000000000000000000000000000000000000000000000000815260040160405180910390fd5b6000614b6a868686613a9f565b9050600080600560009054906101000a900473ffffffffffffffffffffffffffffffffffffffff1673ffffffffffffffffffffffffffffffffffffffff1663c488847b3087866040518463ffffffff1660e01b8152600401614bce9392919061673f565b6040805180830381865afa158015614bea573d6000803e3d6000fd5b505050506040513d601f19601f82011682018060405250810190614c0e91906167bb565b9150915060008214614c55576040517f08c379a0000000000000000000000000000000000000000000000000000000008152600401614c4c9061686d565b60405180910390fd5b808573ffffffffffffffffffffffffffffffffffffffff166370a08231896040518263ffffffff1660e01b8152600401614c8f9190615872565b602060405180830381865afa158015614cac573d6000803e3d6000fd5b505050506040513d601f19601f82011682018060405250810190614cd09190615c0c565b1015614d11576040517f08c379a0000000000000000000000000000000000000000000000000000000008152600401614d08906168d9565b60405180910390fd5b3073ffffffffffffffffffffffffffffffffffffffff168573ffffffffffffffffffffffffffffffffffffffff161415614d5657614d51308989846132b1565b614e19565b60008573ffffffffffffffffffffffffffffffffffffffff1663b2a02ff18a8a856040518463ffffffff1660e01b8152600401614d959392919061673f565b6020604051808303816000875af1158015614db4573d6000803e3d6000fd5b505050506040513d601f19601f82011682018060405250810190614dd89190615c0c565b14614e18576040517f08c379a0000000000000000000000000000000000000000000000000000000008152600401614e0f90616945565b60405180910390fd5b5b7f298637f684da70674f26509b10f07ec2fbc77a335ab1e7d6215a4b2484d8bb528888858885604051614e50959493929190616965565b60405180910390a15050505050505050565b600080601160009054906101000a900473ffffffffffffffffffffffffffffffffffffffff169050600081905060008273ffffffffffffffffffffffffffffffffffffffff166370a08231306040518263ffffffff1660e01b8152600401614eca9190615872565b602060405180830381865afa158015614ee7573d6000803e3d6000fd5b505050506040513d601f19601f82011682018060405250810190614f0b9190615c0c565b90508173ffffffffffffffffffffffffffffffffffffffff166323b872dd8730886040518463ffffffff1660e01b8152600401614f4a9392919061673f565b600060405180830381600087803b158015614f6457600080fd5b505af1158015614f78573d6000803e3d6000fd5b5050505060003d60008114614f945760208114614f9e57600080fd5b6000199150614faa565b60206000803e60005191505b5080614feb576040517f08c379a0000000000000000000000000000000000000000000000000000000008152600401614fe290616a04565b60405180910390fd5b60008473ffffffffffffffffffffffffffffffffffffffff166370a08231306040518263ffffffff1660e01b81526004016150269190615872565b602060405180830381865afa158015615043573d6000803e3d6000fd5b505050506040513d601f19601f820116820180604052508101906150679190615c0c565b9050828161507591906162ad565b9550505050505092915050565b60006150a361509984670de0b6b3a76400006145a9565b83600001516150ab565b905092915050565b600081836150b991906163e9565b905092915050565b8280546150cd90615b59565b90600052602060002090601f0160209004810192826150ef5760008555615136565b82601f1061510857805160ff1916838001178555615136565b82800160010185558215615136579182015b8281111561513557825182559160200191906001019061511a565b5b509050615143919061515a565b5090565b6040518060200160405280600081525090565b5b8082111561517357600081600090555060010161515b565b5090565b600081519050919050565b600082825260208201905092915050565b60005b838110156151b1578082015181840152602081019050615196565b838111156151c0576000848401525b50505050565b6000601f19601f8301169050919050565b60006151e282615177565b6151ec8185615182565b93506151fc818560208601615193565b615205816151c6565b840191505092915050565b6000602082019050818103600083015261522a81846151d7565b905092915050565b6000604051905090565b600080fd5b600080fd5b600073ffffffffffffffffffffffffffffffffffffffff82169050919050565b600061527182615246565b9050919050565b61528181615266565b811461528c57600080fd5b50565b60008135905061529e81615278565b92915050565b6000819050919050565b6152b7816152a4565b81146152c257600080fd5b50565b6000813590506152d4816152ae565b92915050565b600080604083850312156152f1576152f061523c565b5b60006152ff8582860161528f565b9250506020615310858286016152c5565b9150509250929050565b60008115159050919050565b61532f8161531a565b82525050565b600060208201905061534a6000830184615326565b92915050565b6000602082840312156153665761536561523c565b5b6000615374848285016152c5565b91505092915050565b615386816152a4565b82525050565b60006020820190506153a1600083018461537d565b92915050565b6000602082840312156153bd576153bc61523c565b5b60006153cb8482850161528f565b91505092915050565b60006153df82615266565b9050919050565b6153ef816153d4565b81146153fa57600080fd5b50565b60008135905061540c816153e6565b92915050565b600061541d82615266565b9050919050565b61542d81615412565b811461543857600080fd5b50565b60008135905061544a81615424565b92915050565b600080fd5b600080fd5b7f4e487b7100000000000000000000000000000000000000000000000000000000600052604160045260246000fd5b615492826151c6565b810181811067ffffffffffffffff821117156154b1576154b061545a565b5b80604052505050565b60006154c4615232565b90506154d08282615489565b919050565b600067ffffffffffffffff8211156154f0576154ef61545a565b5b6154f9826151c6565b9050602081019050919050565b82818337600083830152505050565b6000615528615523846154d5565b6154ba565b90508281526020810184848401111561554457615543615455565b5b61554f848285615506565b509392505050565b600082601f83011261556c5761556b615450565b5b813561557c848260208601615515565b91505092915050565b600060ff82169050919050565b61559b81615585565b81146155a657600080fd5b50565b6000813590506155b881615592565b92915050565b600080600080600080600060e0888a0312156155dd576155dc61523c565b5b60006155eb8a828b0161528f565b97505060206155fc8a828b016153fd565b965050604061560d8a828b0161543b565b955050606061561e8a828b016152c5565b945050608088013567ffffffffffffffff81111561563f5761563e615241565b5b61564b8a828b01615557565b93505060a088013567ffffffffffffffff81111561566c5761566b615241565b5b6156788a828b01615557565b92505060c06156898a828b016155a9565b91505092959891949750929550565b60006156a382615266565b9050919050565b6156b381615698565b81146156be57600080fd5b50565b6000813590506156d0816156aa565b92915050565b6000602082840312156156ec576156eb61523c565b5b60006156fa848285016156c1565b91505092915050565b60008060006060848603121561571c5761571b61523c565b5b600061572a8682870161528f565b935050602061573b8682870161528f565b925050604061574c868287016152c5565b9150509250925092565b600061576182615246565b9050919050565b61577181615756565b82525050565b600060208201905061578c6000830184615768565b92915050565b61579b81615585565b82525050565b60006020820190506157b66000830184615792565b92915050565b6000602082840312156157d2576157d161523c565b5b60006157e0848285016153fd565b91505092915050565b6000819050919050565b600061580e61580961580484615246565b6157e9565b615246565b9050919050565b6000615820826157f3565b9050919050565b600061583282615815565b9050919050565b61584281615827565b82525050565b600060208201905061585d6000830184615839565b92915050565b61586c81615266565b82525050565b60006020820190506158876000830184615863565b92915050565b60008060008060008060c087890312156158aa576158a961523c565b5b60006158b889828a016153fd565b96505060206158c989828a0161543b565b95505060406158da89828a016152c5565b945050606087013567ffffffffffffffff8111156158fb576158fa615241565b5b61590789828a01615557565b935050608087013567ffffffffffffffff81111561592857615927615241565b5b61593489828a01615557565b92505060a061594589828a016155a9565b9150509295509295509295565b61595b81615756565b811461596657600080fd5b50565b60008135905061597881615952565b92915050565b6000602082840312156159945761599361523c565b5b60006159a284828501615969565b91505092915050565b60006080820190506159c0600083018761537d565b6159cd602083018661537d565b6159da604083018561537d565b6159e7606083018461537d565b95945050505050565b60008060408385031215615a0757615a0661523c565b5b6000615a158582860161528f565b9250506020615a268582860161528f565b9150509250929050565b600060208284031215615a4657615a4561523c565b5b6000615a548482850161543b565b91505092915050565b6000615a6882615815565b9050919050565b615a7881615a5d565b82525050565b6000602082019050615a936000830184615a6f565b92915050565b6000615aa482615266565b9050919050565b615ab481615a99565b8114615abf57600080fd5b50565b600081359050615ad181615aab565b92915050565b600080600060608486031215615af057615aef61523c565b5b6000615afe8682870161528f565b9350506020615b0f868287016152c5565b9250506040615b2086828701615ac2565b9150509250925092565b7f4e487b7100000000000000000000000000000000000000000000000000000000600052602260045260246000fd5b60006002820490506001821680615b7157607f821691505b60208210811415615b8557615b84615b2a565b5b50919050565b7f72652d656e746572656400000000000000000000000000000000000000000000600082015250565b6000615bc1600a83615182565b9150615bcc82615b8b565b602082019050919050565b60006020820190508181036000830152615bf081615bb4565b9050919050565b600081519050615c06816152ae565b92915050565b600060208284031215615c2257615c2161523c565b5b6000615c3084828501615bf7565b91505092915050565b7f4345726332303a3a7377656570546f6b656e3a206f6e6c792061646d696e206360008201527f616e20737765657020746f6b656e730000000000000000000000000000000000602082015250565b6000615c95602f83615182565b9150615ca082615c39565b604082019050919050565b60006020820190508181036000830152615cc481615c88565b9050919050565b7f4345726332303a3a7377656570546f6b656e3a2063616e206e6f74207377656560008201527f7020756e6465726c79696e6720746f6b656e0000000000000000000000000000602082015250565b6000615d27603283615182565b9150615d3282615ccb565b604082019050919050565b60006020820190508181036000830152615d5681615d1a565b9050919050565b6000615d6882615815565b9050919050565b615d7881615d5d565b82525050565b6000604082019050615d936000830185615d6f565b615da0602083018461537d565b9392505050565b615db08161531a565b8114615dbb57600080fd5b50565b600081519050615dcd81615da7565b92915050565b600060208284031215615de957615de861523c565b5b6000615df784828501615dbe565b91505092915050565b7f6d61726b6572206d6574686f642072657475726e65642066616c736500000000600082015250565b6000615e36601c83615182565b9150615e4182615e00565b602082019050919050565b60006020820190508181036000830152615e6581615e29565b9050919050565b6000604082019050615e816000830185615839565b615e8e6020830184615839565b9392505050565b7f6f6e6c79207468652061646d696e206d6179207365742074686520636f6d702d60008201527f6c696b652064656c656761746500000000000000000000000000000000000000602082015250565b6000615ef1602d83615182565b9150615efc82615e95565b604082019050919050565b60006020820190508181036000830152615f2081615ee4565b9050919050565b7f6f6e6c792061646d696e206d617920696e697469616c697a6520746865206d6160008201527f726b657400000000000000000000000000000000000000000000000000000000602082015250565b6000615f83602483615182565b9150615f8e82615f27565b604082019050919050565b60006020820190508181036000830152615fb281615f76565b9050919050565b7f6d61726b6574206d6179206f6e6c7920626520696e697469616c697a6564206f60008201527f6e63650000000000000000000000000000000000000000000000000000000000602082015250565b6000616015602383615182565b915061602082615fb9565b604082019050919050565b6000602082019050818103600083015261604481616008565b9050919050565b7f696e697469616c2065786368616e67652072617465206d75737420626520677260008201527f6561746572207468616e207a65726f2e00000000000000000000000000000000602082015250565b60006160a7603083615182565b91506160b28261604b565b604082019050919050565b600060208201905081810360008301526160d68161609a565b9050919050565b7f73657474696e6720636f6d7074726f6c6c6572206661696c6564000000000000600082015250565b6000616113601a83615182565b915061611e826160dd565b602082019050919050565b6000602082019050818103600083015261614281616106565b9050919050565b7f73657474696e6720696e7465726573742072617465206d6f64656c206661696c60008201527f6564000000000000000000000000000000000000000000000000000000000000602082015250565b60006161a5602283615182565b91506161b082616149565b604082019050919050565b600060208201905081810360008301526161d481616198565b9050919050565b60006060820190506161f0600083018661537d565b6161fd602083018561537d565b61620a604083018461537d565b949350505050565b7f626f72726f772072617465206973206162737572646c79206869676800000000600082015250565b6000616248601c83615182565b915061625382616212565b602082019050919050565b600060208201905081810360008301526162778161623b565b9050919050565b7f4e487b7100000000000000000000000000000000000000000000000000000000600052601160045260246000fd5b60006162b8826152a4565b91506162c3836152a4565b9250828210156162d6576162d561627e565b5b828203905092915050565b60006162ec826152a4565b91506162f7836152a4565b9250827fffffffffffffffffffffffffffffffffffffffffffffffffffffffffffffffff0382111561632c5761632b61627e565b5b828201905092915050565b600060408201905061634c6000830185615863565b6163596020830184615d6f565b9392505050565b600061636b826152a4565b9150616376836152a4565b9250817fffffffffffffffffffffffffffffffffffffffffffffffffffffffffffffffff04831182151516156163af576163ae61627e565b5b828202905092915050565b7f4e487b7100000000000000000000000000000000000000000000000000000000600052601260045260246000fd5b60006163f4826152a4565b91506163ff836152a4565b92508261640f5761640e6163ba565b5b828204905092915050565b600060808201905061642f6000830187615863565b61643c6020830186615863565b6164496040830185615863565b616456606083018461537d565b95945050505050565b60006060820190506164746000830186615d6f565b616481602083018561537d565b61648e604083018461537d565b949350505050565b60006040820190506164ab6000830185615a6f565b6164b86020830184615a6f565b9392505050565b600060a0820190506164d46000830188615863565b6164e16020830187615863565b6164ee6040830186615863565b6164fb6060830185615863565b616508608083018461537d565b9695505050505050565b60006060820190506165276000830186615863565b616534602083018561537d565b616541604083018461537d565b949350505050565b600060408201905061655e600083018561537d565b61656b602083018461537d565b9392505050565b600060a0820190506165876000830188615863565b6165946020830187615863565b6165a1604083018661537d565b6165ae606083018561537d565b6165bb608083018461537d565b9695505050505050565b7f544f4b454e5f5452414e534645525f4f55545f4641494c454400000000000000600082015250565b60006165fb601983615182565b9150616606826165c5565b602082019050919050565b6000602082019050818103600083015261662a816165ee565b9050919050565b7f6f6e65206f662072656465656d546f6b656e73496e206f722072656465656d4160008201527f6d6f756e74496e206d757374206265207a65726f000000000000000000000000602082015250565b600061668d603483615182565b915061669882616631565b604082019050919050565b600060208201905081810360008301526166bc81616680565b9050919050565b60006060820190506166d86000830186615863565b6166e56020830185615d6f565b6166f2604083018461537d565b949350505050565b600060808201905061670f6000830187615863565b61671c6020830186615d6f565b616729604083018561537d565b616736606083018461537d565b95945050505050565b60006060820190506167546000830186615863565b6167616020830185615863565b61676e604083018461537d565b949350505050565b600060808201905061678b6000830187615d6f565b616798602083018661537d565b6167a5604083018561537d565b6167b2606083018461537d565b95945050505050565b600080604083850312156167d2576167d161523c565b5b60006167e085828601615bf7565b92505060206167f185828601615bf7565b9150509250929050565b7f4c49515549444154455f434f4d5054524f4c4c45525f43414c43554c4154455f60008201527f414d4f554e545f5345495a455f4641494c454400000000000000000000000000602082015250565b6000616857603383615182565b9150616862826167fb565b604082019050919050565b600060208201905081810360008301526168868161684a565b9050919050565b7f4c49515549444154455f5345495a455f544f4f5f4d5543480000000000000000600082015250565b60006168c3601883615182565b91506168ce8261688d565b602082019050919050565b600060208201905081810360008301526168f2816168b6565b9050919050565b7f746f6b656e207365697a757265206661696c6564000000000000000000000000600082015250565b600061692f601483615182565b915061693a826168f9565b602082019050919050565b6000602082019050818103600083015261695e81616922565b9050919050565b600060a08201905061697a6000830188615863565b6169876020830187615863565b616994604083018661537d565b6169a16060830185615863565b6169ae608083018461537d565b9695505050505050565b7f544f4b454e5f5452414e534645525f494e5f4641494c45440000000000000000600082015250565b60006169ee601883615182565b91506169f9826169b8565b602082019050919050565b60006020820190508181036000830152616a1d816169e1565b905091905056fea26469706673582212204ca6d65a17d076fcff62c17a0ca3d046917b327008ac99c82974b173ca10690064736f6c634300080a0033",
  "linkReferences": {},
  "deployedLinkReferences": {}
}