{
  "_format": "hh-sol-artifact-1",
  "contractName": "SimplePriceOracle",
  "sourceName": "contracts/SimplePriceOracle.sol",
  "abi": [
    {
      "anonymous": false,
      "inputs": [
        {
          "indexed": false,
          "internalType": "address",
          "name": "asset",
          "type": "address"
        },
        {
          "indexed": false,
          "internalType": "uint256",
          "name": "previousPriceMantissa",
          "type": "uint256"
        },
        {
          "indexed": false,
          "internalType": "uint256",
          "name": "requestedPriceMantissa",
          "type": "uint256"
        },
        {
          "indexed": false,
          "internalType": "uint256",
          "name": "newPriceMantissa",
          "type": "uint256"
        }
      ],
      "name": "PricePosted",
      "type": "event"
    },
    {
      "inputs": [
        {
          "internalType": "address",
          "name": "asset",
          "type": "address"
        }
      ],
      "name": "assetPrices",
      "outputs": [
        {
          "internalType": "uint256",
          "name": "",
          "type": "uint256"
        }
      ],
      "stateMutability": "view",
      "type": "function"
    },
    {
      "inputs": [
        {
          "internalType": "contract CToken",
          "name": "cToken",
          "type": "address"
        }
      ],
      "name": "getUnderlyingPrice",
      "outputs": [
        {
          "internalType": "uint256",
          "name": "",
          "type": "uint256"
        }
      ],
      "stateMutability": "view",
      "type": "function"
    },
    {
      "inputs": [],
      "name": "isPriceOracle",
      "outputs": [
        {
          "internalType": "bool",
          "name": "",
          "type": "bool"
        }
      ],
      "stateMutability": "view",
      "type": "function"
    },
    {
      "inputs": [
        {
          "internalType": "address",
          "name": "asset",
          "type": "address"
        },
        {
          "internalType": "uint256",
          "name": "price",
          "type": "uint256"
        }
      ],
      "name": "setDirectPrice",
      "outputs": [],
      "stateMutability": "nonpayable",
      "type": "function"
    },
    {
      "inputs": [
        {
          "internalType": "contract CToken",
          "name": "cToken",
          "type": "address"
        },
        {
          "internalType": "uint256",
          "name": "underlyingPriceMantissa",
          "type": "uint256"
        }
      ],
      "name": "setUnderlyingPrice",
      "outputs": [],
      "stateMutability": "nonpayable",
      "type": "function"
    }
  ],
  "bytecode": "0x608060405234801561001057600080fd5b506109e8806100206000396000f3fe608060405234801561001057600080fd5b50600436106100575760003560e01c806309a8acb01461005c578063127ffda0146100785780635e9a523c1461009457806366331bba146100c4578063fc57d4df146100e2575b600080fd5b61007660048036038101906100719190610593565b610112565b005b610092600480360381019061008d9190610611565b6101d4565b005b6100ae60048036038101906100a99190610651565b6102a4565b6040516100bb919061068d565b60405180910390f35b6100cc6102ec565b6040516100d991906106c3565b60405180910390f35b6100fc60048036038101906100f791906106de565b6102f1565b604051610109919061068d565b60405180910390f35b7fdd71a1d19fcba687442a1d5c58578f1e409af71a79d10fd95a4d66efd8fa9ae7826000808573ffffffffffffffffffffffffffffffffffffffff1673ffffffffffffffffffffffffffffffffffffffff168152602001908152602001600020548384604051610185949392919061071a565b60405180910390a1806000808473ffffffffffffffffffffffffffffffffffffffff1673ffffffffffffffffffffffffffffffffffffffff168152602001908152602001600020819055505050565b60006101df83610341565b90507fdd71a1d19fcba687442a1d5c58578f1e409af71a79d10fd95a4d66efd8fa9ae7816000808473ffffffffffffffffffffffffffffffffffffffff1673ffffffffffffffffffffffffffffffffffffffff168152602001908152602001600020548485604051610254949392919061071a565b60405180910390a1816000808373ffffffffffffffffffffffffffffffffffffffff1673ffffffffffffffffffffffffffffffffffffffff16815260200190815260200160002081905550505050565b60008060008373ffffffffffffffffffffffffffffffffffffffff1673ffffffffffffffffffffffffffffffffffffffff168152602001908152602001600020549050919050565b600181565b60008060006102ff84610341565b73ffffffffffffffffffffffffffffffffffffffff1673ffffffffffffffffffffffffffffffffffffffff168152602001908152602001600020549050919050565b6000806103f68373ffffffffffffffffffffffffffffffffffffffff166395d89b416040518163ffffffff1660e01b8152600401600060405180830381865afa158015610392573d6000803e3d6000fd5b505050506040513d6000823e3d601f19601f820116820180604052508101906103bb91906108c9565b6040518060400160405280600481526020017f6345544800000000000000000000000000000000000000000000000000000000815250610492565b156104175773eeeeeeeeeeeeeeeeeeeeeeeeeeeeeeeeeeeeeeee9050610489565b8273ffffffffffffffffffffffffffffffffffffffff16636f307dc36040518163ffffffff1660e01b8152600401602060405180830381865afa158015610462573d6000803e3d6000fd5b505050506040513d601f19601f820116820180604052508101906104869190610927565b90505b80915050919050565b6000816040516020016104a5919061099b565b60405160208183030381529060405280519060200120836040516020016104cc919061099b565b6040516020818303038152906040528051906020012014905092915050565b6000604051905090565b600080fd5b600080fd5b600073ffffffffffffffffffffffffffffffffffffffff82169050919050565b600061052a826104ff565b9050919050565b61053a8161051f565b811461054557600080fd5b50565b60008135905061055781610531565b92915050565b6000819050919050565b6105708161055d565b811461057b57600080fd5b50565b60008135905061058d81610567565b92915050565b600080604083850312156105aa576105a96104f5565b5b60006105b885828601610548565b92505060206105c98582860161057e565b9150509250929050565b60006105de8261051f565b9050919050565b6105ee816105d3565b81146105f957600080fd5b50565b60008135905061060b816105e5565b92915050565b60008060408385031215610628576106276104f5565b5b6000610636858286016105fc565b92505060206106478582860161057e565b9150509250929050565b600060208284031215610667576106666104f5565b5b600061067584828501610548565b91505092915050565b6106878161055d565b82525050565b60006020820190506106a2600083018461067e565b92915050565b60008115159050919050565b6106bd816106a8565b82525050565b60006020820190506106d860008301846106b4565b92915050565b6000602082840312156106f4576106f36104f5565b5b6000610702848285016105fc565b91505092915050565b6107148161051f565b82525050565b600060808201905061072f600083018761070b565b61073c602083018661067e565b610749604083018561067e565b610756606083018461067e565b95945050505050565b600080fd5b600080fd5b6000601f19601f8301169050919050565b7f4e487b7100000000000000000000000000000000000000000000000000000000600052604160045260246000fd5b6107b282610769565b810181811067ffffffffffffffff821117156107d1576107d061077a565b5b80604052505050565b60006107e46104eb565b90506107f082826107a9565b919050565b600067ffffffffffffffff8211156108105761080f61077a565b5b61081982610769565b9050602081019050919050565b60005b83811015610844578082015181840152602081019050610829565b83811115610853576000848401525b50505050565b600061086c610867846107f5565b6107da565b90508281526020810184848401111561088857610887610764565b5b610893848285610826565b509392505050565b600082601f8301126108b0576108af61075f565b5b81516108c0848260208601610859565b91505092915050565b6000602082840312156108df576108de6104f5565b5b600082015167ffffffffffffffff8111156108fd576108fc6104fa565b5b6109098482850161089b565b91505092915050565b60008151905061092181610531565b92915050565b60006020828403121561093d5761093c6104f5565b5b600061094b84828501610912565b91505092915050565b600081519050919050565b600081905092915050565b600061097582610954565b61097f818561095f565b935061098f818560208601610826565b80840191505092915050565b60006109a7828461096a565b91508190509291505056fea264697066735822122080949edf211e65db414779947a1361f57be1826cd9b08961acb1818d12b5388964736f6c634300080a0033",
  "linkReferences": {},
  "deployedLinkReferences": {}
}