{
  "abi": [
    {
      "type": "constructor",
      "inputs": [
        {
          "name": "_owner1",
          "type": "address",
          "internalType": "address"
        },
        {
          "name": "_owner2",
          "type": "address",
          "internalType": "address"
        },
        {
          "name": "_offchain",
          "type": "address",
          "internalType": "address"
        },
        {
          "name": "_morpho",
          "type": "address",
          "internalType": "address"
        },
        {
          "name": "_uniV3Router",
          "type": "address",
          "internalType": "contract ISwapRouter"
        }
      ],
      "stateMutability": "nonpayable"
    },
    {
      "type": "receive",
      "stateMutability": "payable"
    },
    {
      "type": "function",
      "name": "changeOffchain",
      "inputs": [
        {
          "name": "_offchain",
          "type": "address",
          "internalType": "address"
        }
      ],
      "outputs": [],
      "stateMutability": "nonpayable"
    },
    {
      "type": "function",
      "name": "changeOwner1",
      "inputs": [
        {
          "name": "_newOwner1",
          "type": "address",
          "internalType": "address"
        }
      ],
      "outputs": [],
      "stateMutability": "nonpayable"
    },
    {
      "type": "function",
      "name": "changeOwner2",
      "inputs": [
        {
          "name": "_newOwner2",
          "type": "address",
          "internalType": "address"
        }
      ],
      "outputs": [],
      "stateMutability": "nonpayable"
    },
    {
      "type": "function",
      "name": "liquidate",
      "inputs": [
        {
          "name": "_repayTokens",
          "type": "address[]",
          "internalType": "address[]"
        },
        {
          "name": "_cMarkets",
          "type": "address[]",
          "internalType": "address[]"
        },
        {
          "name": "_borrowers",
          "type": "address[]",
          "internalType": "address[]"
        },
        {
          "name": "_repayAmounts",
          "type": "uint256[]",
          "internalType": "uint256[]"
        },
        {
          "name": "_cMarketCollaterals",
          "type": "address[]",
          "internalType": "address[]"
        },
        {
          "name": "_path",
          "type": "bytes[]",
          "internalType": "bytes[]"
        }
      ],
      "outputs": [],
      "stateMutability": "nonpayable"
    },
    {
      "type": "function",
      "name": "offchain",
      "inputs": [],
      "outputs": [
        {
          "name": "",
          "type": "address",
          "internalType": "address"
        }
      ],
      "stateMutability": "view"
    },
    {
      "type": "function",
      "name": "onMorphoFlashLoan",
      "inputs": [
        {
          "name": "_amount",
          "type": "uint256",
          "internalType": "uint256"
        },
        {
          "name": "FLdata",
          "type": "bytes",
          "internalType": "bytes"
        }
      ],
      "outputs": [],
      "stateMutability": "nonpayable"
    },
    {
      "type": "function",
      "name": "owner1",
      "inputs": [],
      "outputs": [
        {
          "name": "",
          "type": "address",
          "internalType": "address"
        }
      ],
      "stateMutability": "view"
    },
    {
      "type": "function",
      "name": "owner2",
      "inputs": [],
      "outputs": [
        {
          "name": "",
          "type": "address",
          "internalType": "address"
        }
      ],
      "stateMutability": "view"
    },
    {
      "type": "function",
      "name": "setApprove",
      "inputs": [
        {
          "name": "_tokenAddress",
          "type": "address[]",
          "internalType": "address[]"
        },
        {
          "name": "_target",
          "type": "address[]",
          "internalType": "address[]"
        },
        {
          "name": "_amount",
          "type": "uint256",
          "internalType": "uint256"
        },
        {
          "name": "_every2every",
          "type": "bool",
          "internalType": "bool"
        }
      ],
      "outputs": [],
      "stateMutability": "nonpayable"
    },
    {
      "type": "function",
      "name": "setvalidatorShare",
      "inputs": [
        {
          "name": "_share",
          "type": "uint256",
          "internalType": "uint256"
        }
      ],
      "outputs": [],
      "stateMutability": "nonpayable"
    },
    {
      "type": "function",
      "name": "sweepNative",
      "inputs": [
        {
          "name": "_to",
          "type": "address",
          "internalType": "address"
        },
        {
          "name": "_amount",
          "type": "uint256",
          "internalType": "uint256"
        }
      ],
      "outputs": [],
      "stateMutability": "nonpayable"
    },
    {
      "type": "function",
      "name": "sweepToken",
      "inputs": [
        {
          "name": "_token",
          "type": "address",
          "internalType": "address"
        },
        {
          "name": "_to",
          "type": "address",
          "internalType": "address"
        },
        {
          "name": "_amount",
          "type": "uint256",
          "internalType": "uint256"
        }
      ],
      "outputs": [],
      "stateMutability": "nonpayable"
    }
  ],
  "bytecode": {
    "object": "0x60c0604052600380546001600160a01b031990811673c02aaa39b223fe8d0a0e5c4f27ead9083c756cc21790915560048054909116734ddc2d193948926d02f9b1fe9e1daa0718270ed51790556113886005553480156200005f57600080fd5b50604051620020d8380380620020d88339810160408190526200008291620000eb565b600080546001600160a01b03199081166001600160a01b03978816179091556001805482169587169590951790945560028054909416928516929092179092559082166080521660a0526200016b565b6001600160a01b0381168114620000e857600080fd5b50565b600080600080600060a086880312156200010457600080fd5b85516200011181620000d2565b60208701519095506200012481620000d2565b60408701519094506200013781620000d2565b60608701519093506200014a81620000d2565b60808701519092506200015d81620000d2565b809150509295509295909350565b60805160a051611f40620001986000396000610dfd0152600081816102ae0152610b090152611f406000f3fe6080604052600436106100ab5760003560e01c80637672a626116100645780637672a62614610195578063840a1128146101b55780639646f3ea146101d55780639ade7279146101f5578063c16e76b214610215578063fbf783491461023557600080fd5b80630251acae146100b75780630ee7f143146100f357806331f5707214610115578063527097251461013557806364aff9ec14610155578063736889141461017557600080fd5b366100b257005b600080fd5b3480156100c357600080fd5b506002546100d7906001600160a01b031681565b6040516001600160a01b03909116815260200160405180910390f35b3480156100ff57600080fd5b5061011361010e36600461172b565b610255565b005b34801561012157600080fd5b5061011361013036600461174f565b6102a3565b34801561014157600080fd5b506001546100d7906001600160a01b031681565b34801561016157600080fd5b506101136101703660046117cb565b610853565b34801561018157600080fd5b506000546100d7906001600160a01b031681565b3480156101a157600080fd5b506101136101b036600461180c565b6108f8565b3480156101c157600080fd5b506101136101d036600461172b565b610929565b3480156101e157600080fd5b506101136101f0366004611825565b610962565b34801561020157600080fd5b5061011361021036600461189d565b6109e3565b34801561022157600080fd5b5061011361023036600461172b565b610c66565b34801561024157600080fd5b50610113610250366004611a45565b610c9f565b6000546001600160a01b031633148061027857506001546001600160a01b031633145b61028157600080fd5b600280546001600160a01b0319166001600160a01b0392909216919091179055565b336001600160a01b037f000000000000000000000000000000000000000000000000000000000000000016146102d857600080fd5b600080808080806102eb87890189611b3a565b600354959b509399509197509550935091506001600160a01b03908116908716036103d857600354604051632e1a7d4d60e01b8152600481018b90526001600160a01b0390911690632e1a7d4d90602401600060405180830381600087803b15801561035657600080fd5b505af115801561036a573d6000803e3d6000fd5b5050604051635572051560e11b81526001600160a01b03878116600483015285811660248301528816925063aae40a2a91508b906044016000604051808303818588803b1580156103ba57600080fd5b505af11580156103ce573d6000803e3d6000fd5b505050505061049a565b604051637af1e23160e11b81526001600160a01b0385811660048301526024820185905283811660448301526000919087169063f5e3c462906064016020604051808303816000875af1158015610433573d6000803e3d6000fd5b505050506040513d601f19601f820116820180604052508101906104579190611c22565b905080156104985760405162461bcd60e51b81526020600482015260096024820152680726573756c742021360bc1b60448201526064015b60405180910390fd5b505b6004546001600160a01b039081169083160361069c576040516370a0823160e01b81523060048201526001600160a01b0383169063db006a759082906370a0823190602401602060405180830381865afa1580156104fc573d6000803e3d6000fd5b505050506040513d601f19601f820116820180604052508101906105209190611c22565b6040518263ffffffff1660e01b815260040161053e91815260200190565b6020604051808303816000875af115801561055d573d6000803e3d6000fd5b505050506040513d601f19601f820116820180604052508101906105819190611c22565b50600360009054906101000a90046001600160a01b03166001600160a01b031663d0e30db0476040518263ffffffff1660e01b81526004016000604051808303818588803b1580156105d257600080fd5b505af11580156105e6573d6000803e3d6000fd5b50506003546040516370a0823160e01b81523060048201526000945061069493506001600160a01b0390911691506370a0823190602401602060405180830381865afa15801561063a573d6000803e3d6000fd5b505050506040513d601f19601f8201168201806040525081019061065e9190611c22565b600354604051610680916001600160a01b031690610bb8908c90602001611c3b565b604051602081830303815290604052610dc7565b905050610848565b6040516370a0823160e01b81523060048201526001600160a01b0383169063db006a759082906370a0823190602401602060405180830381865afa1580156106e8573d6000803e3d6000fd5b505050506040513d601f19601f8201168201806040525081019061070c9190611c22565b6040518263ffffffff1660e01b815260040161072a91815260200190565b6020604051808303816000875af1158015610749573d6000803e3d6000fd5b505050506040513d601f19601f8201168201806040525081019061076d9190611c22565b506000610845836001600160a01b0316636f307dc36040518163ffffffff1660e01b8152600401602060405180830381865afa1580156107b1573d6000803e3d6000fd5b505050506040513d601f19601f820116820180604052508101906107d59190611c76565b6040516370a0823160e01b81523060048201526001600160a01b0391909116906370a0823190602401602060405180830381865afa15801561081b573d6000803e3d6000fd5b505050506040513d601f19601f8201168201806040525081019061083f9190611c22565b83610dc7565b50505b505050505050505050565b6000546001600160a01b031633148061087657506001546001600160a01b031633145b61087f57600080fd5b60405163a9059cbb60e01b81526001600160a01b0383811660048301526024820183905284169063a9059cbb906044016020604051808303816000875af11580156108ce573d6000803e3d6000fd5b505050506040513d601f19601f820116820180604052508101906108f29190611c93565b50505050565b6000546001600160a01b031633148061091b57506001546001600160a01b031633145b61092457600080fd5b600555565b6000546001600160a01b0316331461094057600080fd5b600080546001600160a01b0319166001600160a01b0392909216919091179055565b6000546001600160a01b031633148061098557506001546001600160a01b031633145b61098e57600080fd5b6040516001600160a01b038316908290600081818185875af1925050503d80600081146109d7576040519150601f19603f3d011682016040523d82523d6000602084013e6109dc565b606091505b5050505050565b6002546001600160a01b031633146109fa57600080fd5b60005b8b811015610bdb5760008d8d83818110610a1957610a19611cb0565b9050602002016020810190610a2e919061172b565b8c8c84818110610a4057610a40611cb0565b9050602002016020810190610a55919061172b565b8b8b85818110610a6757610a67611cb0565b9050602002016020810190610a7c919061172b565b8a8a86818110610a8e57610a8e611cb0565b90506020020135898987818110610aa757610aa7611cb0565b9050602002016020810190610abc919061172b565b888888818110610ace57610ace611cb0565b9050602002810190610ae09190611cc6565b604051602001610af69796959493929190611d0d565b60405160208183030381529060405290507f00000000000000000000000000000000000000000000000000000000000000006001600160a01b031663e0232b428f8f85818110610b4857610b48611cb0565b9050602002016020810190610b5d919061172b565b8a8a86818110610b6f57610b6f611cb0565b90506020020135846040518463ffffffff1660e01b8152600401610b9593929190611dc3565b600060405180830381600087803b158015610baf57600080fd5b505af1158015610bc3573d6000803e3d6000fd5b50505050508080610bd390611e09565b9150506109fd565b5060005b8b811015610c5757610c168d8d83818110610bfc57610bfc611cb0565b9050602002016020810190610c11919061172b565b610e85565b610c458d8d83818110610c2b57610c2b611cb0565b9050602002016020810190610c40919061172b565b61119e565b80610c4f81611e09565b915050610bdf565b50505050505050505050505050565b6001546001600160a01b03163314610c7d57600080fd5b600180546001600160a01b0319166001600160a01b0392909216919091179055565b6000546001600160a01b0316331480610cc257506001546001600160a01b031633145b610ccb57600080fd5b82518490821515600003610d6f5760005b82811015610d695760005b82811015610d5657610d44878281518110610d0457610d04611cb0565b6020026020010151878b8b86818110610d1f57610d1f611cb0565b9050602002016020810190610d34919061172b565b6001600160a01b0316919061137c565b80610d4e81611e09565b915050610ce7565b5080610d6181611e09565b915050610cdc565b50610dbe565b60005b82811015610dbc57610daa868281518110610d8f57610d8f611cb0565b6020026020010151868a8a85818110610d1f57610d1f611cb0565b80610db481611e09565b915050610d72565b505b50505050505050565b6040805160a081018252828152306020820152428183015260608101849052600060808201819052915163c04b8d5960e01b81527f00000000000000000000000000000000000000000000000000000000000000006001600160a01b03169063c04b8d5990610e3a908490600401611e22565b6020604051808303816000875af1158015610e59573d6000803e3d6000fd5b505050506040513d601f19601f82011682018060405250810190610e7d9190611c22565b949350505050565b6003546001600160a01b0390811690821603610feb576040516370a0823160e01b81523060048201526000906001600160a01b038316906370a0823190602401602060405180830381865afa158015610ee2573d6000803e3d6000fd5b505050506040513d601f19601f82011682018060405250810190610f069190611c22565b9050600061271060055483610f1b9190611e7a565b610f259190611e97565b600354604051632e1a7d4d60e01b8152600481018390529192506001600160a01b031690632e1a7d4d90602401600060405180830381600087803b158015610f6c57600080fd5b505af1158015610f80573d6000803e3d6000fd5b505060408051600081526020810191829052419350849250610fa191611eb9565b60006040518083038185875af1925050503d8060008114610fde576040519150601f19603f3d011682016040523d82523d6000602084013e610fe3565b606091505b505050505050565b6040516370a0823160e01b81523060048201526000906001600160a01b038316906370a0823190602401602060405180830381865afa158015611032573d6000803e3d6000fd5b505050506040513d601f19601f820116820180604052508101906110569190611c22565b905060006127106005548361106b9190611e7a565b6110759190611e97565b6003546040519192506000916110a3918491610680918891610bb8916001600160a01b031690602001611c3b565b600354604051632e1a7d4d60e01b8152600481018390529192506001600160a01b031690632e1a7d4d90602401600060405180830381600087803b1580156110ea57600080fd5b505af11580156110fe573d6000803e3d6000fd5b50506040805160008152602081019182905241935084925061111f91611eb9565b60006040518083038185875af1925050503d806000811461115c576040519150601f19603f3d011682016040523d82523d6000602084013e611161565b606091505b5050506108f260405180604001604052806015815260200174020b6b7bab73a103a37903b30b634b230ba37b91d1605d1b815250826114b8565b50565b6000546040516370a0823160e01b81523060048201526001600160a01b038381169263a9059cbb9291169060029084906370a0823190602401602060405180830381865afa1580156111f4573d6000803e3d6000fd5b505050506040513d601f19601f820116820180604052508101906112189190611c22565b6112229190611e97565b6040516001600160e01b031960e085901b1681526001600160a01b03909216600483015260248201526044016020604051808303816000875af115801561126d573d6000803e3d6000fd5b505050506040513d601f19601f820116820180604052508101906112919190611c93565b506001546040516370a0823160e01b81523060048201526001600160a01b038381169263a9059cbb9291169083906370a0823190602401602060405180830381865afa1580156112e5573d6000803e3d6000fd5b505050506040513d601f19601f820116820180604052508101906113099190611c22565b6040516001600160e01b031960e085901b1681526001600160a01b03909216600483015260248201526044016020604051808303816000875af1158015611354573d6000803e3d6000fd5b505050506040513d601f19601f820116820180604052508101906113789190611c93565b5050565b8015806113f65750604051636eb1769f60e11b81523060048201526001600160a01b03838116602483015284169063dd62ed3e90604401602060405180830381865afa1580156113d0573d6000803e3d6000fd5b505050506040513d601f19601f820116820180604052508101906113f49190611c22565b155b6114615760405162461bcd60e51b815260206004820152603660248201527f5361666545524332303a20617070726f76652066726f6d206e6f6e2d7a65726f60448201527520746f206e6f6e2d7a65726f20616c6c6f77616e636560501b606482015260840161048f565b604080516001600160a01b038416602482015260448082018490528251808303909101815260649091019091526020810180516001600160e01b031663095ea7b360e01b1790526114b39084906114fd565b505050565b61137882826040516024016114ce929190611ed5565b60408051601f198184030181529190526020810180516001600160e01b03166309710a9d60e41b1790526115d2565b6000611552826040518060400160405280602081526020017f5361666545524332303a206c6f772d6c6576656c2063616c6c206661696c6564815250856001600160a01b03166115f39092919063ffffffff16565b90508051600014806115735750808060200190518101906115739190611c93565b6114b35760405162461bcd60e51b815260206004820152602a60248201527f5361666545524332303a204552433230206f7065726174696f6e20646964206e6044820152691bdd081cdd58d8d9595960b21b606482015260840161048f565b80516a636f6e736f6c652e6c6f67602083016000808483855afa5050505050565b6060610e7d848460008585600080866001600160a01b0316858760405161161a9190611eb9565b60006040518083038185875af1925050503d8060008114611657576040519150601f19603f3d011682016040523d82523d6000602084013e61165c565b606091505b509150915061166d87838387611678565b979650505050505050565b606083156116e75782516000036116e0576001600160a01b0385163b6116e05760405162461bcd60e51b815260206004820152601d60248201527f416464726573733a2063616c6c20746f206e6f6e2d636f6e7472616374000000604482015260640161048f565b5081610e7d565b610e7d83838151156116fc5781518083602001fd5b8060405162461bcd60e51b815260040161048f9190611ef7565b6001600160a01b038116811461119b57600080fd5b60006020828403121561173d57600080fd5b813561174881611716565b9392505050565b60008060006040848603121561176457600080fd5b83359250602084013567ffffffffffffffff8082111561178357600080fd5b818601915086601f83011261179757600080fd5b8135818111156117a657600080fd5b8760208285010111156117b857600080fd5b6020830194508093505050509250925092565b6000806000606084860312156117e057600080fd5b83356117eb81611716565b925060208401356117fb81611716565b929592945050506040919091013590565b60006020828403121561181e57600080fd5b5035919050565b6000806040838503121561183857600080fd5b823561184381611716565b946020939093013593505050565b60008083601f84011261186357600080fd5b50813567ffffffffffffffff81111561187b57600080fd5b6020830191508360208260051b850101111561189657600080fd5b9250929050565b60008060008060008060008060008060008060c08d8f0312156118bf57600080fd5b67ffffffffffffffff8d3511156118d557600080fd5b6118e28e8e358f01611851565b909c509a5067ffffffffffffffff60208e0135111561190057600080fd5b6119108e60208f01358f01611851565b909a50985067ffffffffffffffff60408e0135111561192e57600080fd5b61193e8e60408f01358f01611851565b909850965067ffffffffffffffff60608e0135111561195c57600080fd5b61196c8e60608f01358f01611851565b909650945067ffffffffffffffff60808e0135111561198a57600080fd5b61199a8e60808f01358f01611851565b909450925067ffffffffffffffff60a08e013511156119b857600080fd5b6119c88e60a08f01358f01611851565b81935080925050509295989b509295989b509295989b565b634e487b7160e01b600052604160045260246000fd5b604051601f8201601f1916810167ffffffffffffffff81118282101715611a1f57611a1f6119e0565b604052919050565b801515811461119b57600080fd5b8035611a4081611a27565b919050565b600080600080600060808688031215611a5d57600080fd5b853567ffffffffffffffff80821115611a7557600080fd5b611a8189838a01611851565b9097509550602091508782013581811115611a9b57600080fd5b8801601f81018a13611aac57600080fd5b803582811115611abe57611abe6119e0565b8060051b9250611acf8484016119f6565b818152928201840192848101908c851115611ae957600080fd5b928501925b84841015611b135783359250611b0383611716565b8282529285019290850190611aee565b975050505060408801359350611b2e91505060608701611a35565b90509295509295909350565b60008060008060008060c08789031215611b5357600080fd5b8635611b5e81611716565b9550602087810135611b6f81611716565b95506040880135611b7f81611716565b9450606088013593506080880135611b9681611716565b925060a088013567ffffffffffffffff80821115611bb357600080fd5b818a0191508a601f830112611bc757600080fd5b813581811115611bd957611bd96119e0565b611beb601f8201601f191685016119f6565b91508082528b84828501011115611c0157600080fd5b80848401858401376000848284010152508093505050509295509295509295565b600060208284031215611c3457600080fd5b5051919050565b606093841b6bffffffffffffffffffffffff19908116825260e89390931b6001600160e81b0319166014820152921b166017820152602b0190565b600060208284031215611c8857600080fd5b815161174881611716565b600060208284031215611ca557600080fd5b815161174881611a27565b634e487b7160e01b600052603260045260246000fd5b6000808335601e19843603018112611cdd57600080fd5b83018035915067ffffffffffffffff821115611cf857600080fd5b60200191503681900382131561189657600080fd5b6001600160a01b03888116825287811660208301528681166040830152606082018690528416608082015260c060a0820181905281018290526000828460e0840137600060e0848401015260e0601f19601f850116830101905098975050505050505050565b60005b83811015611d8e578181015183820152602001611d76565b50506000910152565b60008151808452611daf816020860160208601611d73565b601f01601f19169290920160200192915050565b60018060a01b0384168152826020820152606060408201526000611dea6060830184611d97565b95945050505050565b634e487b7160e01b600052601160045260246000fd5b600060018201611e1b57611e1b611df3565b5060010190565b602081526000825160a06020840152611e3e60c0840182611d97565b905060018060a01b0360208501511660408401526040840151606084015260608401516080840152608084015160a08401528091505092915050565b8082028115828204841417611e9157611e91611df3565b92915050565b600082611eb457634e487b7160e01b600052601260045260246000fd5b500490565b60008251611ecb818460208701611d73565b9190910192915050565b604081526000611ee86040830185611d97565b90508260208301529392505050565b6020815260006117486020830184611d9756fea2646970667358221220494051380816a47a091b7889a4483134ba3cce6309c18fa50ce33c108aad65a764736f6c63430008140033",
    "linkReferences": {}
  },
  "methodIdentifiers": {
    "changeOffchain(address)": "0ee7f143",
    "changeOwner1(address)": "840a1128",
    "changeOwner2(address)": "c16e76b2",
    "liquidate(address[],address[],address[],uint256[],address[],bytes[])": "9ade7279",
    "offchain()": "0251acae",
    "onMorphoFlashLoan(uint256,bytes)": "31f57072",
    "owner1()": "73688914",
    "owner2()": "52709725",
    "setApprove(address[],address[],uint256,bool)": "fbf78349",
    "setvalidatorShare(uint256)": "7672a626",
    "sweepNative(address,uint256)": "9646f3ea",
    "sweepToken(address,address,uint256)": "64aff9ec"
  },
  "id": 70
}