{
  "_format": "hh-sol-artifact-1",
  "contractName": "CErc20Delegator",
  "sourceName": "contracts/CErc20Delegator.sol",
  "abi": [
    {
      "inputs": [
        {
          "internalType": "address",
          "name": "underlying_",
          "type": "address"
        },
        {
          "internalType": "contract ComptrollerInterface",
          "name": "comptroller_",
          "type": "address"
        },
        {
          "internalType": "contract InterestRateModel",
          "name": "interestRateModel_",
          "type": "address"
        },
        {
          "internalType": "uint256",
          "name": "initialExchangeRateMantissa_",
          "type": "uint256"
        },
        {
          "internalType": "string",
          "name": "name_",
          "type": "string"
        },
        {
          "internalType": "string",
          "name": "symbol_",
          "type": "string"
        },
        {
          "internalType": "uint8",
          "name": "decimals_",
          "type": "uint8"
        },
        {
          "internalType": "address payable",
          "name": "admin_",
          "type": "address"
        },
        {
          "internalType": "address",
          "name": "implementation_",
          "type": "address"
        },
        {
          "internalType": "bytes",
          "name": "becomeImplementationData",
          "type": "bytes"
        }
      ],
      "stateMutability": "nonpayable",
      "type": "constructor"
    },
    {
      "anonymous": false,
      "inputs": [
        {
          "indexed": false,
          "internalType": "uint256",
          "name": "cashPrior",
          "type": "uint256"
        },
        {
          "indexed": false,
          "internalType": "uint256",
          "name": "interestAccumulated",
          "type": "uint256"
        },
        {
          "indexed": false,
          "internalType": "uint256",
          "name": "borrowIndex",
          "type": "uint256"
        },
        {
          "indexed": false,
          "internalType": "uint256",
          "name": "totalBorrows",
          "type": "uint256"
        }
      ],
      "name": "AccrueInterest",
      "type": "event"
    },
    {
      "anonymous": false,
      "inputs": [
        {
          "indexed": true,
          "internalType": "address",
          "name": "owner",
          "type": "address"
        },
        {
          "indexed": true,
          "internalType": "address",
          "name": "spender",
          "type": "address"
        },
        {
          "indexed": false,
          "internalType": "uint256",
          "name": "amount",
          "type": "uint256"
        }
      ],
      "name": "Approval",
      "type": "event"
    },
    {
      "anonymous": false,
      "inputs": [
        {
          "indexed": false,
          "internalType": "address",
          "name": "borrower",
          "type": "address"
        },
        {
          "indexed": false,
          "internalType": "uint256",
          "name": "borrowAmount",
          "type": "uint256"
        },
        {
          "indexed": false,
          "internalType": "uint256",
          "name": "accountBorrows",
          "type": "uint256"
        },
        {
          "indexed": false,
          "internalType": "uint256",
          "name": "totalBorrows",
          "type": "uint256"
        }
      ],
      "name": "Borrow",
      "type": "event"
    },
    {
      "anonymous": false,
      "inputs": [
        {
          "indexed": false,
          "internalType": "address",
          "name": "liquidator",
          "type": "address"
        },
        {
          "indexed": false,
          "internalType": "address",
          "name": "borrower",
          "type": "address"
        },
        {
          "indexed": false,
          "internalType": "uint256",
          "name": "repayAmount",
          "type": "uint256"
        },
        {
          "indexed": false,
          "internalType": "address",
          "name": "cTokenCollateral",
          "type": "address"
        },
        {
          "indexed": false,
          "internalType": "uint256",
          "name": "seizeTokens",
          "type": "uint256"
        }
      ],
      "name": "LiquidateBorrow",
      "type": "event"
    },
    {
      "anonymous": false,
      "inputs": [
        {
          "indexed": false,
          "internalType": "address",
          "name": "minter",
          "type": "address"
        },
        {
          "indexed": false,
          "internalType": "uint256",
          "name": "mintAmount",
          "type": "uint256"
        },
        {
          "indexed": false,
          "internalType": "uint256",
          "name": "mintTokens",
          "type": "uint256"
        }
      ],
      "name": "Mint",
      "type": "event"
    },
    {
      "anonymous": false,
      "inputs": [
        {
          "indexed": false,
          "internalType": "address",
          "name": "oldAdmin",
          "type": "address"
        },
        {
          "indexed": false,
          "internalType": "address",
          "name": "newAdmin",
          "type": "address"
        }
      ],
      "name": "NewAdmin",
      "type": "event"
    },
    {
      "anonymous": false,
      "inputs": [
        {
          "indexed": false,
          "internalType": "contract ComptrollerInterface",
          "name": "oldComptroller",
          "type": "address"
        },
        {
          "indexed": false,
          "internalType": "contract ComptrollerInterface",
          "name": "newComptroller",
          "type": "address"
        }
      ],
      "name": "NewComptroller",
      "type": "event"
    },
    {
      "anonymous": false,
      "inputs": [
        {
          "indexed": false,
          "internalType": "address",
          "name": "oldImplementation",
          "type": "address"
        },
        {
          "indexed": false,
          "internalType": "address",
          "name": "newImplementation",
          "type": "address"
        }
      ],
      "name": "NewImplementation",
      "type": "event"
    },
    {
      "anonymous": false,
      "inputs": [
        {
          "indexed": false,
          "internalType": "contract InterestRateModel",
          "name": "oldInterestRateModel",
          "type": "address"
        },
        {
          "indexed": false,
          "internalType": "contract InterestRateModel",
          "name": "newInterestRateModel",
          "type": "address"
        }
      ],
      "name": "NewMarketInterestRateModel",
      "type": "event"
    },
    {
      "anonymous": false,
      "inputs": [
        {
          "indexed": false,
          "internalType": "address",
          "name": "oldPendingAdmin",
          "type": "address"
        },
        {
          "indexed": false,
          "internalType": "address",
          "name": "newPendingAdmin",
          "type": "address"
        }
      ],
      "name": "NewPendingAdmin",
      "type": "event"
    },
    {
      "anonymous": false,
      "inputs": [
        {
          "indexed": false,
          "internalType": "uint256",
          "name": "oldReserveFactorMantissa",
          "type": "uint256"
        },
        {
          "indexed": false,
          "internalType": "uint256",
          "name": "newReserveFactorMantissa",
          "type": "uint256"
        }
      ],
      "name": "NewReserveFactor",
      "type": "event"
    },
    {
      "anonymous": false,
      "inputs": [
        {
          "indexed": false,
          "internalType": "address",
          "name": "redeemer",
          "type": "address"
        },
        {
          "indexed": false,
          "internalType": "uint256",
          "name": "redeemAmount",
          "type": "uint256"
        },
        {
          "indexed": false,
          "internalType": "uint256",
          "name": "redeemTokens",
          "type": "uint256"
        }
      ],
      "name": "Redeem",
      "type": "event"
    },
    {
      "anonymous": false,
      "inputs": [
        {
          "indexed": false,
          "internalType": "address",
          "name": "payer",
          "type": "address"
        },
        {
          "indexed": false,
          "internalType": "address",
          "name": "borrower",
          "type": "address"
        },
        {
          "indexed": false,
          "internalType": "uint256",
          "name": "repayAmount",
          "type": "uint256"
        },
        {
          "indexed": false,
          "internalType": "uint256",
          "name": "accountBorrows",
          "type": "uint256"
        },
        {
          "indexed": false,
          "internalType": "uint256",
          "name": "totalBorrows",
          "type": "uint256"
        }
      ],
      "name": "RepayBorrow",
      "type": "event"
    },
    {
      "anonymous": false,
      "inputs": [
        {
          "indexed": false,
          "internalType": "address",
          "name": "benefactor",
          "type": "address"
        },
        {
          "indexed": false,
          "internalType": "uint256",
          "name": "addAmount",
          "type": "uint256"
        },
        {
          "indexed": false,
          "internalType": "uint256",
          "name": "newTotalReserves",
          "type": "uint256"
        }
      ],
      "name": "ReservesAdded",
      "type": "event"
    },
    {
      "anonymous": false,
      "inputs": [
        {
          "indexed": false,
          "internalType": "address",
          "name": "admin",
          "type": "address"
        },
        {
          "indexed": false,
          "internalType": "uint256",
          "name": "reduceAmount",
          "type": "uint256"
        },
        {
          "indexed": false,
          "internalType": "uint256",
          "name": "newTotalReserves",
          "type": "uint256"
        }
      ],
      "name": "ReservesReduced",
      "type": "event"
    },
    {
      "anonymous": false,
      "inputs": [
        {
          "indexed": true,
          "internalType": "address",
          "name": "from",
          "type": "address"
        },
        {
          "indexed": true,
          "internalType": "address",
          "name": "to",
          "type": "address"
        },
        {
          "indexed": false,
          "internalType": "uint256",
          "name": "amount",
          "type": "uint256"
        }
      ],
      "name": "Transfer",
      "type": "event"
    },
    {
      "stateMutability": "payable",
      "type": "fallback"
    },
    {
      "inputs": [],
      "name": "_acceptAdmin",
      "outputs": [
        {
          "internalType": "uint256",
          "name": "",
          "type": "uint256"
        }
      ],
      "stateMutability": "nonpayable",
      "type": "function"
    },
    {
      "inputs": [
        {
          "internalType": "uint256",
          "name": "addAmount",
          "type": "uint256"
        }
      ],
      "name": "_addReserves",
      "outputs": [
        {
          "internalType": "uint256",
          "name": "",
          "type": "uint256"
        }
      ],
      "stateMutability": "nonpayable",
      "type": "function"
    },
    {
      "inputs": [
        {
          "internalType": "uint256",
          "name": "reduceAmount",
          "type": "uint256"
        }
      ],
      "name": "_reduceReserves",
      "outputs": [
        {
          "internalType": "uint256",
          "name": "",
          "type": "uint256"
        }
      ],
      "stateMutability": "nonpayable",
      "type": "function"
    },
    {
      "inputs": [
        {
          "internalType": "contract ComptrollerInterface",
          "name": "newComptroller",
          "type": "address"
        }
      ],
      "name": "_setComptroller",
      "outputs": [
        {
          "internalType": "uint256",
          "name": "",
          "type": "uint256"
        }
      ],
      "stateMutability": "nonpayable",
      "type": "function"
    },
    {
      "inputs": [
        {
          "internalType": "address",
          "name": "implementation_",
          "type": "address"
        },
        {
          "internalType": "bool",
          "name": "allowResign",
          "type": "bool"
        },
        {
          "internalType": "bytes",
          "name": "becomeImplementationData",
          "type": "bytes"
        }
      ],
      "name": "_setImplementation",
      "outputs": [],
      "stateMutability": "nonpayable",
      "type": "function"
    },
    {
      "inputs": [
        {
          "internalType": "contract InterestRateModel",
          "name": "newInterestRateModel",
          "type": "address"
        }
      ],
      "name": "_setInterestRateModel",
      "outputs": [
        {
          "internalType": "uint256",
          "name": "",
          "type": "uint256"
        }
      ],
      "stateMutability": "nonpayable",
      "type": "function"
    },
    {
      "inputs": [
        {
          "internalType": "address payable",
          "name": "newPendingAdmin",
          "type": "address"
        }
      ],
      "name": "_setPendingAdmin",
      "outputs": [
        {
          "internalType": "uint256",
          "name": "",
          "type": "uint256"
        }
      ],
      "stateMutability": "nonpayable",
      "type": "function"
    },
    {
      "inputs": [
        {
          "internalType": "uint256",
          "name": "newReserveFactorMantissa",
          "type": "uint256"
        }
      ],
      "name": "_setReserveFactor",
      "outputs": [
        {
          "internalType": "uint256",
          "name": "",
          "type": "uint256"
        }
      ],
      "stateMutability": "nonpayable",
      "type": "function"
    },
    {
      "inputs": [],
      "name": "accrualBlockNumber",
      "outputs": [
        {
          "internalType": "uint256",
          "name": "",
          "type": "uint256"
        }
      ],
      "stateMutability": "view",
      "type": "function"
    },
    {
      "inputs": [],
      "name": "accrueInterest",
      "outputs": [
        {
          "internalType": "uint256",
          "name": "",
          "type": "uint256"
        }
      ],
      "stateMutability": "nonpayable",
      "type": "function"
    },
    {
      "inputs": [],
      "name": "admin",
      "outputs": [
        {
          "internalType": "address payable",
          "name": "",
          "type": "address"
        }
      ],
      "stateMutability": "view",
      "type": "function"
    },
    {
      "inputs": [
        {
          "internalType": "address",
          "name": "owner",
          "type": "address"
        },
        {
          "internalType": "address",
          "name": "spender",
          "type": "address"
        }
      ],
      "name": "allowance",
      "outputs": [
        {
          "internalType": "uint256",
          "name": "",
          "type": "uint256"
        }
      ],
      "stateMutability": "view",
      "type": "function"
    },
    {
      "inputs": [
        {
          "internalType": "address",
          "name": "spender",
          "type": "address"
        },
        {
          "internalType": "uint256",
          "name": "amount",
          "type": "uint256"
        }
      ],
      "name": "approve",
      "outputs": [
        {
          "internalType": "bool",
          "name": "",
          "type": "bool"
        }
      ],
      "stateMutability": "nonpayable",
      "type": "function"
    },
    {
      "inputs": [
        {
          "internalType": "address",
          "name": "owner",
          "type": "address"
        }
      ],
      "name": "balanceOf",
      "outputs": [
        {
          "internalType": "uint256",
          "name": "",
          "type": "uint256"
        }
      ],
      "stateMutability": "view",
      "type": "function"
    },
    {
      "inputs": [
        {
          "internalType": "address",
          "name": "owner",
          "type": "address"
        }
      ],
      "name": "balanceOfUnderlying",
      "outputs": [
        {
          "internalType": "uint256",
          "name": "",
          "type": "uint256"
        }
      ],
      "stateMutability": "nonpayable",
      "type": "function"
    },
    {
      "inputs": [
        {
          "internalType": "uint256",
          "name": "borrowAmount",
          "type": "uint256"
        }
      ],
      "name": "borrow",
      "outputs": [
        {
          "internalType": "uint256",
          "name": "",
          "type": "uint256"
        }
      ],
      "stateMutability": "nonpayable",
      "type": "function"
    },
    {
      "inputs": [
        {
          "internalType": "address",
          "name": "account",
          "type": "address"
        }
      ],
      "name": "borrowBalanceCurrent",
      "outputs": [
        {
          "internalType": "uint256",
          "name": "",
          "type": "uint256"
        }
      ],
      "stateMutability": "nonpayable",
      "type": "function"
    },
    {
      "inputs": [
        {
          "internalType": "address",
          "name": "account",
          "type": "address"
        }
      ],
      "name": "borrowBalanceStored",
      "outputs": [
        {
          "internalType": "uint256",
          "name": "",
          "type": "uint256"
        }
      ],
      "stateMutability": "view",
      "type": "function"
    },
    {
      "inputs": [],
      "name": "borrowIndex",
      "outputs": [
        {
          "internalType": "uint256",
          "name": "",
          "type": "uint256"
        }
      ],
      "stateMutability": "view",
      "type": "function"
    },
    {
      "inputs": [],
      "name": "borrowRatePerBlock",
      "outputs": [
        {
          "internalType": "uint256",
          "name": "",
          "type": "uint256"
        }
      ],
      "stateMutability": "view",
      "type": "function"
    },
    {
      "inputs": [],
      "name": "comptroller",
      "outputs": [
        {
          "internalType": "contract ComptrollerInterface",
          "name": "",
          "type": "address"
        }
      ],
      "stateMutability": "view",
      "type": "function"
    },
    {
      "inputs": [],
      "name": "decimals",
      "outputs": [
        {
          "internalType": "uint8",
          "name": "",
          "type": "uint8"
        }
      ],
      "stateMutability": "view",
      "type": "function"
    },
    {
      "inputs": [
        {
          "internalType": "bytes",
          "name": "data",
          "type": "bytes"
        }
      ],
      "name": "delegateToImplementation",
      "outputs": [
        {
          "internalType": "bytes",
          "name": "",
          "type": "bytes"
        }
      ],
      "stateMutability": "nonpayable",
      "type": "function"
    },
    {
      "inputs": [
        {
          "internalType": "bytes",
          "name": "data",
          "type": "bytes"
        }
      ],
      "name": "delegateToViewImplementation",
      "outputs": [
        {
          "internalType": "bytes",
          "name": "",
          "type": "bytes"
        }
      ],
      "stateMutability": "view",
      "type": "function"
    },
    {
      "inputs": [],
      "name": "exchangeRateCurrent",
      "outputs": [
        {
          "internalType": "uint256",
          "name": "",
          "type": "uint256"
        }
      ],
      "stateMutability": "nonpayable",
      "type": "function"
    },
    {
      "inputs": [],
      "name": "exchangeRateStored",
      "outputs": [
        {
          "internalType": "uint256",
          "name": "",
          "type": "uint256"
        }
      ],
      "stateMutability": "view",
      "type": "function"
    },
    {
      "inputs": [
        {
          "internalType": "address",
          "name": "account",
          "type": "address"
        }
      ],
      "name": "getAccountSnapshot",
      "outputs": [
        {
          "internalType": "uint256",
          "name": "",
          "type": "uint256"
        },
        {
          "internalType": "uint256",
          "name": "",
          "type": "uint256"
        },
        {
          "internalType": "uint256",
          "name": "",
          "type": "uint256"
        },
        {
          "internalType": "uint256",
          "name": "",
          "type": "uint256"
        }
      ],
      "stateMutability": "view",
      "type": "function"
    },
    {
      "inputs": [],
      "name": "getCash",
      "outputs": [
        {
          "internalType": "uint256",
          "name": "",
          "type": "uint256"
        }
      ],
      "stateMutability": "view",
      "type": "function"
    },
    {
      "inputs": [],
      "name": "implementation",
      "outputs": [
        {
          "internalType": "address",
          "name": "",
          "type": "address"
        }
      ],
      "stateMutability": "view",
      "type": "function"
    },
    {
      "inputs": [],
      "name": "interestRateModel",
      "outputs": [
        {
          "internalType": "contract InterestRateModel",
          "name": "",
          "type": "address"
        }
      ],
      "stateMutability": "view",
      "type": "function"
    },
    {
      "inputs": [],
      "name": "isCToken",
      "outputs": [
        {
          "internalType": "bool",
          "name": "",
          "type": "bool"
        }
      ],
      "stateMutability": "view",
      "type": "function"
    },
    {
      "inputs": [
        {
          "internalType": "address",
          "name": "borrower",
          "type": "address"
        },
        {
          "internalType": "uint256",
          "name": "repayAmount",
          "type": "uint256"
        },
        {
          "internalType": "contract CTokenInterface",
          "name": "cTokenCollateral",
          "type": "address"
        }
      ],
      "name": "liquidateBorrow",
      "outputs": [
        {
          "internalType": "uint256",
          "name": "",
          "type": "uint256"
        }
      ],
      "stateMutability": "nonpayable",
      "type": "function"
    },
    {
      "inputs": [
        {
          "internalType": "uint256",
          "name": "mintAmount",
          "type": "uint256"
        }
      ],
      "name": "mint",
      "outputs": [
        {
          "internalType": "uint256",
          "name": "",
          "type": "uint256"
        }
      ],
      "stateMutability": "nonpayable",
      "type": "function"
    },
    {
      "inputs": [],
      "name": "name",
      "outputs": [
        {
          "internalType": "string",
          "name": "",
          "type": "string"
        }
      ],
      "stateMutability": "view",
      "type": "function"
    },
    {
      "inputs": [],
      "name": "pendingAdmin",
      "outputs": [
        {
          "internalType": "address payable",
          "name": "",
          "type": "address"
        }
      ],
      "stateMutability": "view",
      "type": "function"
    },
    {
      "inputs": [],
      "name": "protocolSeizeShareMantissa",
      "outputs": [
        {
          "internalType": "uint256",
          "name": "",
          "type": "uint256"
        }
      ],
      "stateMutability": "view",
      "type": "function"
    },
    {
      "inputs": [
        {
          "internalType": "uint256",
          "name": "redeemTokens",
          "type": "uint256"
        }
      ],
      "name": "redeem",
      "outputs": [
        {
          "internalType": "uint256",
          "name": "",
          "type": "uint256"
        }
      ],
      "stateMutability": "nonpayable",
      "type": "function"
    },
    {
      "inputs": [
        {
          "internalType": "uint256",
          "name": "redeemAmount",
          "type": "uint256"
        }
      ],
      "name": "redeemUnderlying",
      "outputs": [
        {
          "internalType": "uint256",
          "name": "",
          "type": "uint256"
        }
      ],
      "stateMutability": "nonpayable",
      "type": "function"
    },
    {
      "inputs": [
        {
          "internalType": "uint256",
          "name": "repayAmount",
          "type": "uint256"
        }
      ],
      "name": "repayBorrow",
      "outputs": [
        {
          "internalType": "uint256",
          "name": "",
          "type": "uint256"
        }
      ],
      "stateMutability": "nonpayable",
      "type": "function"
    },
    {
      "inputs": [
        {
          "internalType": "address",
          "name": "borrower",
          "type": "address"
        },
        {
          "internalType": "uint256",
          "name": "repayAmount",
          "type": "uint256"
        }
      ],
      "name": "repayBorrowBehalf",
      "outputs": [
        {
          "internalType": "uint256",
          "name": "",
          "type": "uint256"
        }
      ],
      "stateMutability": "nonpayable",
      "type": "function"
    },
    {
      "inputs": [],
      "name": "reserveFactorMantissa",
      "outputs": [
        {
          "internalType": "uint256",
          "name": "",
          "type": "uint256"
        }
      ],
      "stateMutability": "view",
      "type": "function"
    },
    {
      "inputs": [
        {
          "internalType": "address",
          "name": "liquidator",
          "type": "address"
        },
        {
          "internalType": "address",
          "name": "borrower",
          "type": "address"
        },
        {
          "internalType": "uint256",
          "name": "seizeTokens",
          "type": "uint256"
        }
      ],
      "name": "seize",
      "outputs": [
        {
          "internalType": "uint256",
          "name": "",
          "type": "uint256"
        }
      ],
      "stateMutability": "nonpayable",
      "type": "function"
    },
    {
      "inputs": [],
      "name": "supplyRatePerBlock",
      "outputs": [
        {
          "internalType": "uint256",
          "name": "",
          "type": "uint256"
        }
      ],
      "stateMutability": "view",
      "type": "function"
    },
    {
      "inputs": [
        {
          "internalType": "contract EIP20NonStandardInterface",
          "name": "token",
          "type": "address"
        }
      ],
      "name": "sweepToken",
      "outputs": [],
      "stateMutability": "nonpayable",
      "type": "function"
    },
    {
      "inputs": [],
      "name": "symbol",
      "outputs": [
        {
          "internalType": "string",
          "name": "",
          "type": "string"
        }
      ],
      "stateMutability": "view",
      "type": "function"
    },
    {
      "inputs": [],
      "name": "totalBorrows",
      "outputs": [
        {
          "internalType": "uint256",
          "name": "",
          "type": "uint256"
        }
      ],
      "stateMutability": "view",
      "type": "function"
    },
    {
      "inputs": [],
      "name": "totalBorrowsCurrent",
      "outputs": [
        {
          "internalType": "uint256",
          "name": "",
          "type": "uint256"
        }
      ],
      "stateMutability": "nonpayable",
      "type": "function"
    },
    {
      "inputs": [],
      "name": "totalReserves",
      "outputs": [
        {
          "internalType": "uint256",
          "name": "",
          "type": "uint256"
        }
      ],
      "stateMutability": "view",
      "type": "function"
    },
    {
      "inputs": [],
      "name": "totalSupply",
      "outputs": [
        {
          "internalType": "uint256",
          "name": "",
          "type": "uint256"
        }
      ],
      "stateMutability": "view",
      "type": "function"
    },
    {
      "inputs": [
        {
          "internalType": "address",
          "name": "dst",
          "type": "address"
        },
        {
          "internalType": "uint256",
          "name": "amount",
          "type": "uint256"
        }
      ],
      "name": "transfer",
      "outputs": [
        {
          "internalType": "bool",
          "name": "",
          "type": "bool"
        }
      ],
      "stateMutability": "nonpayable",
      "type": "function"
    },
    {
      "inputs": [
        {
          "internalType": "address",
          "name": "src",
          "type": "address"
        },
        {
          "internalType": "address",
          "name": "dst",
          "type": "address"
        },
        {
          "internalType": "uint256",
          "name": "amount",
          "type": "uint256"
        }
      ],
      "name": "transferFrom",
      "outputs": [
        {
          "internalType": "bool",
          "name": "",
          "type": "bool"
        }
      ],
      "stateMutability": "nonpayable",
      "type": "function"
    },
    {
      "inputs": [],
      "name": "underlying",
      "outputs": [
        {
          "internalType": "address",
          "name": "",
          "type": "address"
        }
      ],
      "stateMutability": "view",
      "type": "function"
    }
  ],
  "bytecode": "0x60806040523480156200001157600080fd5b5060405162004794380380620047948339818101604052810190620000379190620008f0565b33600360016101000a81548173ffffffffffffffffffffffffffffffffffffffff021916908373ffffffffffffffffffffffffffffffffffffffff16021790555062000125828b8b8b8b8b8b8b6040516024016200009c979695949392919062000b63565b6040516020818303038152906040527f1a31d465000000000000000000000000000000000000000000000000000000007bffffffffffffffffffffffffffffffffffffffffffffffffffffffff19166020820180517bffffffffffffffffffffffffffffffffffffffffffffffffffffffff83818316178352505050506200018b60201b60201c565b506200013a826000836200021a60201b60201c565b82600360016101000a81548173ffffffffffffffffffffffffffffffffffffffff021916908373ffffffffffffffffffffffffffffffffffffffff1602179055505050505050505050505062000d8f565b60606000808473ffffffffffffffffffffffffffffffffffffffff1684604051620001b7919062000c3b565b600060405180830381855af49150503d8060008114620001f4576040519150601f19603f3d011682016040523d82523d6000602084013e620001f9565b606091505b509150915060008214156200020f573d60208201fd5b809250505092915050565b600360019054906101000a900473ffffffffffffffffffffffffffffffffffffffff1673ffffffffffffffffffffffffffffffffffffffff163373ffffffffffffffffffffffffffffffffffffffff1614620002ad576040517f08c379a0000000000000000000000000000000000000000000000000000000008152600401620002a49062000cca565b60405180910390fd5b81156200034957620003476040516024016040516020818303038152906040527f153ab505000000000000000000000000000000000000000000000000000000007bffffffffffffffffffffffffffffffffffffffffffffffffffffffff19166020820180517bffffffffffffffffffffffffffffffffffffffffffffffffffffffff8381831617835250505050620004b560201b60201c565b505b6000601260009054906101000a900473ffffffffffffffffffffffffffffffffffffffff16905083601260006101000a81548173ffffffffffffffffffffffffffffffffffffffff021916908373ffffffffffffffffffffffffffffffffffffffff1602179055506200045182604051602401620003c8919062000d3e565b6040516020818303038152906040527f56e67728000000000000000000000000000000000000000000000000000000007bffffffffffffffffffffffffffffffffffffffffffffffffffffffff19166020820180517bffffffffffffffffffffffffffffffffffffffffffffffffffffffff8381831617835250505050620004b560201b60201c565b507fd604de94d45953f9138079ec1b82d533cb2160c906d1076d1f7ed54befbca97a81601260009054906101000a900473ffffffffffffffffffffffffffffffffffffffff16604051620004a792919062000d62565b60405180910390a150505050565b6060620004eb601260009054906101000a900473ffffffffffffffffffffffffffffffffffffffff16836200018b60201b60201c565b9050919050565b6000604051905090565b600080fd5b600080fd5b600073ffffffffffffffffffffffffffffffffffffffff82169050919050565b6000620005338262000506565b9050919050565b620005458162000526565b81146200055157600080fd5b50565b60008151905062000565816200053a565b92915050565b6000620005788262000526565b9050919050565b6200058a816200056b565b81146200059657600080fd5b50565b600081519050620005aa816200057f565b92915050565b6000620005bd8262000526565b9050919050565b620005cf81620005b0565b8114620005db57600080fd5b50565b600081519050620005ef81620005c4565b92915050565b6000819050919050565b6200060a81620005f5565b81146200061657600080fd5b50565b6000815190506200062a81620005ff565b92915050565b600080fd5b600080fd5b6000601f19601f8301169050919050565b7f4e487b7100000000000000000000000000000000000000000000000000000000600052604160045260246000fd5b62000685826200063a565b810181811067ffffffffffffffff82111715620006a757620006a66200064b565b5b80604052505050565b6000620006bc620004f2565b9050620006ca82826200067a565b919050565b600067ffffffffffffffff821115620006ed57620006ec6200064b565b5b620006f8826200063a565b9050602081019050919050565b60005b838110156200072557808201518184015260208101905062000708565b8381111562000735576000848401525b50505050565b6000620007526200074c84620006cf565b620006b0565b90508281526020810184848401111562000771576200077062000635565b5b6200077e84828562000705565b509392505050565b600082601f8301126200079e576200079d62000630565b5b8151620007b08482602086016200073b565b91505092915050565b600060ff82169050919050565b620007d181620007b9565b8114620007dd57600080fd5b50565b600081519050620007f181620007c6565b92915050565b6000620008048262000506565b9050919050565b6200081681620007f7565b81146200082257600080fd5b50565b60008151905062000836816200080b565b92915050565b600067ffffffffffffffff8211156200085a57620008596200064b565b5b62000865826200063a565b9050602081019050919050565b60006200088962000883846200083c565b620006b0565b905082815260208101848484011115620008a857620008a762000635565b5b620008b584828562000705565b509392505050565b600082601f830112620008d557620008d462000630565b5b8151620008e784826020860162000872565b91505092915050565b6000806000806000806000806000806101408b8d031215620009175762000916620004fc565b5b6000620009278d828e0162000554565b9a505060206200093a8d828e0162000599565b99505060406200094d8d828e01620005de565b9850506060620009608d828e0162000619565b97505060808b015167ffffffffffffffff81111562000984576200098362000501565b5b620009928d828e0162000786565b96505060a08b015167ffffffffffffffff811115620009b657620009b562000501565b5b620009c48d828e0162000786565b95505060c0620009d78d828e01620007e0565b94505060e0620009ea8d828e0162000825565b935050610100620009fe8d828e0162000554565b9250506101208b015167ffffffffffffffff81111562000a235762000a2262000501565b5b62000a318d828e01620008bd565b9150509295989b9194979a5092959850565b62000a4e8162000526565b82525050565b6000819050919050565b600062000a7f62000a7962000a738462000506565b62000a54565b62000506565b9050919050565b600062000a938262000a5e565b9050919050565b600062000aa78262000a86565b9050919050565b62000ab98162000a9a565b82525050565b600062000acc8262000a86565b9050919050565b62000ade8162000abf565b82525050565b62000aef81620005f5565b82525050565b600081519050919050565b600082825260208201905092915050565b600062000b1e8262000af5565b62000b2a818562000b00565b935062000b3c81856020860162000705565b62000b47816200063a565b840191505092915050565b62000b5d81620007b9565b82525050565b600060e08201905062000b7a600083018a62000a43565b62000b89602083018962000aae565b62000b98604083018862000ad3565b62000ba7606083018762000ae4565b818103608083015262000bbb818662000b11565b905081810360a083015262000bd1818562000b11565b905062000be260c083018462000b52565b98975050505050505050565b600081519050919050565b600081905092915050565b600062000c118262000bee565b62000c1d818562000bf9565b935062000c2f81856020860162000705565b80840191505092915050565b600062000c49828462000c04565b915081905092915050565b7f43457263323044656c656761746f723a3a5f736574496d706c656d656e74617460008201527f696f6e3a2043616c6c6572206d7573742062652061646d696e00000000000000602082015250565b600062000cb260398362000b00565b915062000cbf8262000c54565b604082019050919050565b6000602082019050818103600083015262000ce58162000ca3565b9050919050565b600082825260208201905092915050565b600062000d0a8262000bee565b62000d16818562000cec565b935062000d2881856020860162000705565b62000d33816200063a565b840191505092915050565b6000602082019050818103600083015262000d5a818462000cfd565b905092915050565b600060408201905062000d79600083018562000a43565b62000d88602083018462000a43565b9392505050565b6139f58062000d9f6000396000f3fe6080604052600436106103035760003560e01c806370a0823111610190578063bd6d894d116100dc578063f2b3abbd11610095578063f851a4401161006f578063f851a44014610daf578063f8f9da2814610dda578063fca7820b14610e05578063fe9c44ae14610e4257610304565b8063f2b3abbd14610d0a578063f3fdb15a14610d47578063f5e3c46214610d7257610304565b8063bd6d894d14610bbd578063c37f68e214610be8578063c5ebeaec14610c28578063db006a7514610c65578063dd62ed3e14610ca2578063e9c714f214610cdf57610304565b8063a0712d6811610149578063aa5af0fd11610123578063aa5af0fd14610aed578063ae9d70b014610b18578063b2a02ff114610b43578063b71d1a0c14610b8057610304565b8063a0712d6814610a48578063a6afed9514610a85578063a9059cbb14610ab057610304565b806370a082311461091057806373acee981461094d578063852a12e3146109785780638f840ddd146109b557806395d89b41146109e057806395dd919314610a0b57610304565b80633af9e6691161024f578063555bcc4011610208578063601a0bf1116101e2578063601a0bf1146108525780636752e7021461088f5780636c540baf146108ba5780636f307dc3146108e557610304565b8063555bcc40146107d35780635c60da1b146107fc5780635fe3b5671461082757610304565b80633af9e669146106895780633b1d21a2146106c65780633e941010146106f15780634487152f1461072e5780634576b5db1461076b57806347bd3718146107a857610304565b806318160ddd116102bc57806323b872dd1161029657806323b872dd146105b95780632608f818146105f65780632678224714610633578063313ce5671461065e57610304565b806318160ddd1461053a578063182df0f5146105655780631be195601461059057610304565b806306fdde03146103f05780630933c1ed1461041b578063095ea7b3146104585780630e75270214610495578063173b9904146104d257806317bfdfbc146104fd57610304565b5b60003414610347576040517f08c379a000000000000000000000000000000000000000000000000000000000815260040161033e90612c28565b60405180910390fd5b6000601260009054906101000a900473ffffffffffffffffffffffffffffffffffffffff1673ffffffffffffffffffffffffffffffffffffffff16600036604051610393929190612c87565b600060405180830381855af49150503d80600081146103ce576040519150601f19603f3d011682016040523d82523d6000602084013e6103d3565b606091505b505090506040513d6000823e81600081146103ec573d82f35b3d82fd5b3480156103fc57600080fd5b50610405610e6d565b6040516104129190612d28565b60405180910390f35b34801561042757600080fd5b50610442600480360381019061043d9190612e84565b610efb565b60405161044f9190612f22565b60405180910390f35b34801561046457600080fd5b5061047f600480360381019061047a9190612fd8565b610f30565b60405161048c9190613033565b60405180910390f35b3480156104a157600080fd5b506104bc60048036038101906104b7919061304e565b610fea565b6040516104c9919061308a565b60405180910390f35b3480156104de57600080fd5b506104e76110a1565b6040516104f4919061308a565b60405180910390f35b34801561050957600080fd5b50610524600480360381019061051f91906130a5565b6110a7565b604051610531919061308a565b60405180910390f35b34801561054657600080fd5b5061054f61115e565b60405161055c919061308a565b60405180910390f35b34801561057157600080fd5b5061057a611164565b604051610587919061308a565b60405180910390f35b34801561059c57600080fd5b506105b760048036038101906105b29190613110565b61120e565b005b3480156105c557600080fd5b506105e060048036038101906105db919061313d565b6112a8565b6040516105ed9190613033565b60405180910390f35b34801561060257600080fd5b5061061d60048036038101906106189190612fd8565b611365565b60405161062a919061308a565b60405180910390f35b34801561063f57600080fd5b5061064861141f565b60405161065591906131b1565b60405180910390f35b34801561066a57600080fd5b50610673611445565b60405161068091906131e8565b60405180910390f35b34801561069557600080fd5b506106b060048036038101906106ab91906130a5565b611458565b6040516106bd919061308a565b60405180910390f35b3480156106d257600080fd5b506106db61150f565b6040516106e8919061308a565b60405180910390f35b3480156106fd57600080fd5b506107186004803603810190610713919061304e565b6115b9565b604051610725919061308a565b60405180910390f35b34801561073a57600080fd5b5061075560048036038101906107509190612e84565b611670565b6040516107629190612f22565b60405180910390f35b34801561077757600080fd5b50610792600480360381019061078d9190613241565b611799565b60405161079f919061308a565b60405180910390f35b3480156107b457600080fd5b506107bd611850565b6040516107ca919061308a565b60405180910390f35b3480156107df57600080fd5b506107fa60048036038101906107f5919061329a565b611856565b005b34801561080857600080fd5b50610811611ad9565b60405161081e9190613318565b60405180910390f35b34801561083357600080fd5b5061083c611aff565b6040516108499190613392565b60405180910390f35b34801561085e57600080fd5b506108796004803603810190610874919061304e565b611b25565b604051610886919061308a565b60405180910390f35b34801561089b57600080fd5b506108a4611bdc565b6040516108b1919061308a565b60405180910390f35b3480156108c657600080fd5b506108cf611be7565b6040516108dc919061308a565b60405180910390f35b3480156108f157600080fd5b506108fa611bed565b6040516109079190613318565b60405180910390f35b34801561091c57600080fd5b50610937600480360381019061093291906130a5565b611c13565b604051610944919061308a565b60405180910390f35b34801561095957600080fd5b50610962611cca565b60405161096f919061308a565b60405180910390f35b34801561098457600080fd5b5061099f600480360381019061099a919061304e565b611d74565b6040516109ac919061308a565b60405180910390f35b3480156109c157600080fd5b506109ca611e2b565b6040516109d7919061308a565b60405180910390f35b3480156109ec57600080fd5b506109f5611e31565b604051610a029190612d28565b60405180910390f35b348015610a1757600080fd5b50610a326004803603810190610a2d91906130a5565b611ebf565b604051610a3f919061308a565b60405180910390f35b348015610a5457600080fd5b50610a6f6004803603810190610a6a919061304e565b611f76565b604051610a7c919061308a565b60405180910390f35b348015610a9157600080fd5b50610a9a61202d565b604051610aa7919061308a565b60405180910390f35b348015610abc57600080fd5b50610ad76004803603810190610ad29190612fd8565b6120d7565b604051610ae49190613033565b60405180910390f35b348015610af957600080fd5b50610b02612191565b604051610b0f919061308a565b60405180910390f35b348015610b2457600080fd5b50610b2d612197565b604051610b3a919061308a565b60405180910390f35b348015610b4f57600080fd5b50610b6a6004803603810190610b65919061313d565b612241565b604051610b77919061308a565b60405180910390f35b348015610b8c57600080fd5b50610ba76004803603810190610ba291906133d9565b6122fe565b604051610bb4919061308a565b60405180910390f35b348015610bc957600080fd5b50610bd26123b5565b604051610bdf919061308a565b60405180910390f35b348015610bf457600080fd5b50610c0f6004803603810190610c0a91906130a5565b61245f565b604051610c1f9493929190613406565b60405180910390f35b348015610c3457600080fd5b50610c4f6004803603810190610c4a919061304e565b612523565b604051610c5c919061308a565b60405180910390f35b348015610c7157600080fd5b50610c8c6004803603810190610c87919061304e565b6125da565b604051610c99919061308a565b60405180910390f35b348015610cae57600080fd5b50610cc96004803603810190610cc4919061344b565b612691565b604051610cd6919061308a565b60405180910390f35b348015610ceb57600080fd5b50610cf461274b565b604051610d01919061308a565b60405180910390f35b348015610d1657600080fd5b50610d316004803603810190610d2c91906134c9565b6127f5565b604051610d3e919061308a565b60405180910390f35b348015610d5357600080fd5b50610d5c6128ac565b604051610d699190613517565b60405180910390f35b348015610d7e57600080fd5b50610d996004803603810190610d949190613570565b6128d2565b604051610da6919061308a565b60405180910390f35b348015610dbb57600080fd5b50610dc461298f565b604051610dd191906131b1565b60405180910390f35b348015610de657600080fd5b50610def6129b5565b604051610dfc919061308a565b60405180910390f35b348015610e1157600080fd5b50610e2c6004803603810190610e27919061304e565b612a5f565b604051610e39919061308a565b60405180910390f35b348015610e4e57600080fd5b50610e57612b16565b604051610e649190613033565b60405180910390f35b60018054610e7a906135f2565b80601f0160208091040260200160405190810160405280929190818152602001828054610ea6906135f2565b8015610ef35780601f10610ec857610100808354040283529160200191610ef3565b820191906000526020600020905b815481529060010190602001808311610ed657829003601f168201915b505050505081565b6060610f29601260009054906101000a900473ffffffffffffffffffffffffffffffffffffffff1683612b1b565b9050919050565b600080610fcb8484604051602401610f49929190613624565b6040516020818303038152906040527f095ea7b3000000000000000000000000000000000000000000000000000000007bffffffffffffffffffffffffffffffffffffffffffffffffffffffff19166020820180517bffffffffffffffffffffffffffffffffffffffffffffffffffffffff8381831617835250505050610efb565b905080806020019051810190610fe19190613662565b91505092915050565b60008061108383604051602401611001919061308a565b6040516020818303038152906040527f0e752702000000000000000000000000000000000000000000000000000000007bffffffffffffffffffffffffffffffffffffffffffffffffffffffff19166020820180517bffffffffffffffffffffffffffffffffffffffffffffffffffffffff8381831617835250505050610efb565b90508080602001905181019061109991906136a4565b915050919050565b60085481565b600080611140836040516024016110be9190613318565b6040516020818303038152906040527f17bfdfbc000000000000000000000000000000000000000000000000000000007bffffffffffffffffffffffffffffffffffffffffffffffffffffffff19166020820180517bffffffffffffffffffffffffffffffffffffffffffffffffffffffff8381831617835250505050610efb565b90508080602001905181019061115691906136a4565b915050919050565b600d5481565b6000806111f26040516024016040516020818303038152906040527f182df0f5000000000000000000000000000000000000000000000000000000007bffffffffffffffffffffffffffffffffffffffffffffffffffffffff19166020820180517bffffffffffffffffffffffffffffffffffffffffffffffffffffffff8381831617835250505050611670565b90508080602001905181019061120891906136a4565b91505090565b6112a48160405160240161122291906136f2565b6040516020818303038152906040527f1be19560000000000000000000000000000000000000000000000000000000007bffffffffffffffffffffffffffffffffffffffffffffffffffffffff19166020820180517bffffffffffffffffffffffffffffffffffffffffffffffffffffffff8381831617835250505050610efb565b5050565b6000806113458585856040516024016112c39392919061370d565b6040516020818303038152906040527f23b872dd000000000000000000000000000000000000000000000000000000007bffffffffffffffffffffffffffffffffffffffffffffffffffffffff19166020820180517bffffffffffffffffffffffffffffffffffffffffffffffffffffffff8381831617835250505050610efb565b90508080602001905181019061135b9190613662565b9150509392505050565b600080611400848460405160240161137e929190613624565b6040516020818303038152906040527f2608f818000000000000000000000000000000000000000000000000000000007bffffffffffffffffffffffffffffffffffffffffffffffffffffffff19166020820180517bffffffffffffffffffffffffffffffffffffffffffffffffffffffff8381831617835250505050610efb565b90508080602001905181019061141691906136a4565b91505092915050565b600460009054906101000a900473ffffffffffffffffffffffffffffffffffffffff1681565b600360009054906101000a900460ff1681565b6000806114f18360405160240161146f9190613318565b6040516020818303038152906040527f3af9e669000000000000000000000000000000000000000000000000000000007bffffffffffffffffffffffffffffffffffffffffffffffffffffffff19166020820180517bffffffffffffffffffffffffffffffffffffffffffffffffffffffff8381831617835250505050610efb565b90508080602001905181019061150791906136a4565b915050919050565b60008061159d6040516024016040516020818303038152906040527f3b1d21a2000000000000000000000000000000000000000000000000000000007bffffffffffffffffffffffffffffffffffffffffffffffffffffffff19166020820180517bffffffffffffffffffffffffffffffffffffffffffffffffffffffff8381831617835250505050611670565b9050808060200190518101906115b391906136a4565b91505090565b600080611652836040516024016115d0919061308a565b6040516020818303038152906040527f3e941010000000000000000000000000000000000000000000000000000000007bffffffffffffffffffffffffffffffffffffffffffffffffffffffff19166020820180517bffffffffffffffffffffffffffffffffffffffffffffffffffffffff8381831617835250505050610efb565b90508080602001905181019061166891906136a4565b915050919050565b60606000803073ffffffffffffffffffffffffffffffffffffffff168460405160240161169d9190612f22565b6040516020818303038152906040527f0933c1ed000000000000000000000000000000000000000000000000000000007bffffffffffffffffffffffffffffffffffffffffffffffffffffffff19166020820180517bffffffffffffffffffffffffffffffffffffffffffffffffffffffff83818316178352505050506040516117279190613775565b600060405180830381855afa9150503d8060008114611762576040519150601f19603f3d011682016040523d82523d6000602084013e611767565b606091505b5091509150600082141561177c573d60208201fd5b8080602001905181019061179091906137fc565b92505050919050565b600080611832836040516024016117b09190613392565b6040516020818303038152906040527f4576b5db000000000000000000000000000000000000000000000000000000007bffffffffffffffffffffffffffffffffffffffffffffffffffffffff19166020820180517bffffffffffffffffffffffffffffffffffffffffffffffffffffffff8381831617835250505050610efb565b90508080602001905181019061184891906136a4565b915050919050565b600b5481565b600360019054906101000a900473ffffffffffffffffffffffffffffffffffffffff1673ffffffffffffffffffffffffffffffffffffffff163373ffffffffffffffffffffffffffffffffffffffff16146118e6576040517f08c379a00000000000000000000000000000000000000000000000000000000081526004016118dd906138b7565b60405180910390fd5b8115611979576119776040516024016040516020818303038152906040527f153ab505000000000000000000000000000000000000000000000000000000007bffffffffffffffffffffffffffffffffffffffffffffffffffffffff19166020820180517bffffffffffffffffffffffffffffffffffffffffffffffffffffffff8381831617835250505050610efb565b505b6000601260009054906101000a900473ffffffffffffffffffffffffffffffffffffffff16905083601260006101000a81548173ffffffffffffffffffffffffffffffffffffffff021916908373ffffffffffffffffffffffffffffffffffffffff160217905550611a77826040516024016119f59190612f22565b6040516020818303038152906040527f56e67728000000000000000000000000000000000000000000000000000000007bffffffffffffffffffffffffffffffffffffffffffffffffffffffff19166020820180517bffffffffffffffffffffffffffffffffffffffffffffffffffffffff8381831617835250505050610efb565b507fd604de94d45953f9138079ec1b82d533cb2160c906d1076d1f7ed54befbca97a81601260009054906101000a900473ffffffffffffffffffffffffffffffffffffffff16604051611acb9291906138d7565b60405180910390a150505050565b601260009054906101000a900473ffffffffffffffffffffffffffffffffffffffff1681565b600560009054906101000a900473ffffffffffffffffffffffffffffffffffffffff1681565b600080611bbe83604051602401611b3c919061308a565b6040516020818303038152906040527f601a0bf1000000000000000000000000000000000000000000000000000000007bffffffffffffffffffffffffffffffffffffffffffffffffffffffff19166020820180517bffffffffffffffffffffffffffffffffffffffffffffffffffffffff8381831617835250505050610efb565b905080806020019051810190611bd491906136a4565b915050919050565b666379da05b6000081565b60095481565b601160009054906101000a900473ffffffffffffffffffffffffffffffffffffffff1681565b600080611cac83604051602401611c2a9190613318565b6040516020818303038152906040527f70a08231000000000000000000000000000000000000000000000000000000007bffffffffffffffffffffffffffffffffffffffffffffffffffffffff19166020820180517bffffffffffffffffffffffffffffffffffffffffffffffffffffffff8381831617835250505050611670565b905080806020019051810190611cc291906136a4565b915050919050565b600080611d586040516024016040516020818303038152906040527f73acee98000000000000000000000000000000000000000000000000000000007bffffffffffffffffffffffffffffffffffffffffffffffffffffffff19166020820180517bffffffffffffffffffffffffffffffffffffffffffffffffffffffff8381831617835250505050610efb565b905080806020019051810190611d6e91906136a4565b91505090565b600080611e0d83604051602401611d8b919061308a565b6040516020818303038152906040527f852a12e3000000000000000000000000000000000000000000000000000000007bffffffffffffffffffffffffffffffffffffffffffffffffffffffff19166020820180517bffffffffffffffffffffffffffffffffffffffffffffffffffffffff8381831617835250505050610efb565b905080806020019051810190611e2391906136a4565b915050919050565b600c5481565b60028054611e3e906135f2565b80601f0160208091040260200160405190810160405280929190818152602001828054611e6a906135f2565b8015611eb75780601f10611e8c57610100808354040283529160200191611eb7565b820191906000526020600020905b815481529060010190602001808311611e9a57829003601f168201915b505050505081565b600080611f5883604051602401611ed69190613318565b6040516020818303038152906040527f95dd9193000000000000000000000000000000000000000000000000000000007bffffffffffffffffffffffffffffffffffffffffffffffffffffffff19166020820180517bffffffffffffffffffffffffffffffffffffffffffffffffffffffff8381831617835250505050611670565b905080806020019051810190611f6e91906136a4565b915050919050565b60008061200f83604051602401611f8d919061308a565b6040516020818303038152906040527fa0712d68000000000000000000000000000000000000000000000000000000007bffffffffffffffffffffffffffffffffffffffffffffffffffffffff19166020820180517bffffffffffffffffffffffffffffffffffffffffffffffffffffffff8381831617835250505050610efb565b90508080602001905181019061202591906136a4565b915050919050565b6000806120bb6040516024016040516020818303038152906040527fa6afed95000000000000000000000000000000000000000000000000000000007bffffffffffffffffffffffffffffffffffffffffffffffffffffffff19166020820180517bffffffffffffffffffffffffffffffffffffffffffffffffffffffff8381831617835250505050610efb565b9050808060200190518101906120d191906136a4565b91505090565b60008061217284846040516024016120f0929190613624565b6040516020818303038152906040527fa9059cbb000000000000000000000000000000000000000000000000000000007bffffffffffffffffffffffffffffffffffffffffffffffffffffffff19166020820180517bffffffffffffffffffffffffffffffffffffffffffffffffffffffff8381831617835250505050610efb565b9050808060200190518101906121889190613662565b91505092915050565b600a5481565b6000806122256040516024016040516020818303038152906040527fae9d70b0000000000000000000000000000000000000000000000000000000007bffffffffffffffffffffffffffffffffffffffffffffffffffffffff19166020820180517bffffffffffffffffffffffffffffffffffffffffffffffffffffffff8381831617835250505050611670565b90508080602001905181019061223b91906136a4565b91505090565b6000806122de85858560405160240161225c9392919061370d565b6040516020818303038152906040527fb2a02ff1000000000000000000000000000000000000000000000000000000007bffffffffffffffffffffffffffffffffffffffffffffffffffffffff19166020820180517bffffffffffffffffffffffffffffffffffffffffffffffffffffffff8381831617835250505050610efb565b9050808060200190518101906122f491906136a4565b9150509392505050565b6000806123978360405160240161231591906131b1565b6040516020818303038152906040527fb71d1a0c000000000000000000000000000000000000000000000000000000007bffffffffffffffffffffffffffffffffffffffffffffffffffffffff19166020820180517bffffffffffffffffffffffffffffffffffffffffffffffffffffffff8381831617835250505050610efb565b9050808060200190518101906123ad91906136a4565b915050919050565b6000806124436040516024016040516020818303038152906040527fbd6d894d000000000000000000000000000000000000000000000000000000007bffffffffffffffffffffffffffffffffffffffffffffffffffffffff19166020820180517bffffffffffffffffffffffffffffffffffffffffffffffffffffffff8381831617835250505050610efb565b90508080602001905181019061245991906136a4565b91505090565b60008060008060006124fd8660405160240161247b9190613318565b6040516020818303038152906040527fc37f68e2000000000000000000000000000000000000000000000000000000007bffffffffffffffffffffffffffffffffffffffffffffffffffffffff19166020820180517bffffffffffffffffffffffffffffffffffffffffffffffffffffffff8381831617835250505050611670565b9050808060200190518101906125139190613900565b9450945094509450509193509193565b6000806125bc8360405160240161253a919061308a565b6040516020818303038152906040527fc5ebeaec000000000000000000000000000000000000000000000000000000007bffffffffffffffffffffffffffffffffffffffffffffffffffffffff19166020820180517bffffffffffffffffffffffffffffffffffffffffffffffffffffffff8381831617835250505050610efb565b9050808060200190518101906125d291906136a4565b915050919050565b600080612673836040516024016125f1919061308a565b6040516020818303038152906040527fdb006a75000000000000000000000000000000000000000000000000000000007bffffffffffffffffffffffffffffffffffffffffffffffffffffffff19166020820180517bffffffffffffffffffffffffffffffffffffffffffffffffffffffff8381831617835250505050610efb565b90508080602001905181019061268991906136a4565b915050919050565b60008061272c84846040516024016126aa9291906138d7565b6040516020818303038152906040527fdd62ed3e000000000000000000000000000000000000000000000000000000007bffffffffffffffffffffffffffffffffffffffffffffffffffffffff19166020820180517bffffffffffffffffffffffffffffffffffffffffffffffffffffffff8381831617835250505050611670565b90508080602001905181019061274291906136a4565b91505092915050565b6000806127d96040516024016040516020818303038152906040527fe9c714f2000000000000000000000000000000000000000000000000000000007bffffffffffffffffffffffffffffffffffffffffffffffffffffffff19166020820180517bffffffffffffffffffffffffffffffffffffffffffffffffffffffff8381831617835250505050610efb565b9050808060200190518101906127ef91906136a4565b91505090565b60008061288e8360405160240161280c9190613517565b6040516020818303038152906040527ff2b3abbd000000000000000000000000000000000000000000000000000000007bffffffffffffffffffffffffffffffffffffffffffffffffffffffff19166020820180517bffffffffffffffffffffffffffffffffffffffffffffffffffffffff8381831617835250505050610efb565b9050808060200190518101906128a491906136a4565b915050919050565b600660009054906101000a900473ffffffffffffffffffffffffffffffffffffffff1681565b60008061296f8585856040516024016128ed93929190613988565b6040516020818303038152906040527ff5e3c462000000000000000000000000000000000000000000000000000000007bffffffffffffffffffffffffffffffffffffffffffffffffffffffff19166020820180517bffffffffffffffffffffffffffffffffffffffffffffffffffffffff8381831617835250505050610efb565b90508080602001905181019061298591906136a4565b9150509392505050565b600360019054906101000a900473ffffffffffffffffffffffffffffffffffffffff1681565b600080612a436040516024016040516020818303038152906040527ff8f9da28000000000000000000000000000000000000000000000000000000007bffffffffffffffffffffffffffffffffffffffffffffffffffffffff19166020820180517bffffffffffffffffffffffffffffffffffffffffffffffffffffffff8381831617835250505050611670565b905080806020019051810190612a5991906136a4565b91505090565b600080612af883604051602401612a76919061308a565b6040516020818303038152906040527ffca7820b000000000000000000000000000000000000000000000000000000007bffffffffffffffffffffffffffffffffffffffffffffffffffffffff19166020820180517bffffffffffffffffffffffffffffffffffffffffffffffffffffffff8381831617835250505050610efb565b905080806020019051810190612b0e91906136a4565b915050919050565b600181565b60606000808473ffffffffffffffffffffffffffffffffffffffff1684604051612b459190613775565b600060405180830381855af49150503d8060008114612b80576040519150601f19603f3d011682016040523d82523d6000602084013e612b85565b606091505b50915091506000821415612b9a573d60208201fd5b809250505092915050565b600082825260208201905092915050565b7f43457263323044656c656761746f723a66616c6c6261636b3a2063616e6e6f7460008201527f2073656e642076616c756520746f2066616c6c6261636b000000000000000000602082015250565b6000612c12603783612ba5565b9150612c1d82612bb6565b604082019050919050565b60006020820190508181036000830152612c4181612c05565b9050919050565b600081905092915050565b82818337600083830152505050565b6000612c6e8385612c48565b9350612c7b838584612c53565b82840190509392505050565b6000612c94828486612c62565b91508190509392505050565b600081519050919050565b60005b83811015612cc9578082015181840152602081019050612cae565b83811115612cd8576000848401525b50505050565b6000601f19601f8301169050919050565b6000612cfa82612ca0565b612d048185612ba5565b9350612d14818560208601612cab565b612d1d81612cde565b840191505092915050565b60006020820190508181036000830152612d428184612cef565b905092915050565b6000604051905090565b600080fd5b600080fd5b600080fd5b600080fd5b7f4e487b7100000000000000000000000000000000000000000000000000000000600052604160045260246000fd5b612da082612cde565b810181811067ffffffffffffffff82111715612dbf57612dbe612d68565b5b80604052505050565b6000612dd2612d4a565b9050612dde8282612d97565b919050565b600067ffffffffffffffff821115612dfe57612dfd612d68565b5b612e0782612cde565b9050602081019050919050565b6000612e27612e2284612de3565b612dc8565b905082815260208101848484011115612e4357612e42612d63565b5b612e4e848285612c53565b509392505050565b600082601f830112612e6b57612e6a612d5e565b5b8135612e7b848260208601612e14565b91505092915050565b600060208284031215612e9a57612e99612d54565b5b600082013567ffffffffffffffff811115612eb857612eb7612d59565b5b612ec484828501612e56565b91505092915050565b600081519050919050565b600082825260208201905092915050565b6000612ef482612ecd565b612efe8185612ed8565b9350612f0e818560208601612cab565b612f1781612cde565b840191505092915050565b60006020820190508181036000830152612f3c8184612ee9565b905092915050565b600073ffffffffffffffffffffffffffffffffffffffff82169050919050565b6000612f6f82612f44565b9050919050565b612f7f81612f64565b8114612f8a57600080fd5b50565b600081359050612f9c81612f76565b92915050565b6000819050919050565b612fb581612fa2565b8114612fc057600080fd5b50565b600081359050612fd281612fac565b92915050565b60008060408385031215612fef57612fee612d54565b5b6000612ffd85828601612f8d565b925050602061300e85828601612fc3565b9150509250929050565b60008115159050919050565b61302d81613018565b82525050565b60006020820190506130486000830184613024565b92915050565b60006020828403121561306457613063612d54565b5b600061307284828501612fc3565b91505092915050565b61308481612fa2565b82525050565b600060208201905061309f600083018461307b565b92915050565b6000602082840312156130bb576130ba612d54565b5b60006130c984828501612f8d565b91505092915050565b60006130dd82612f64565b9050919050565b6130ed816130d2565b81146130f857600080fd5b50565b60008135905061310a816130e4565b92915050565b60006020828403121561312657613125612d54565b5b6000613134848285016130fb565b91505092915050565b60008060006060848603121561315657613155612d54565b5b600061316486828701612f8d565b935050602061317586828701612f8d565b925050604061318686828701612fc3565b9150509250925092565b600061319b82612f44565b9050919050565b6131ab81613190565b82525050565b60006020820190506131c660008301846131a2565b92915050565b600060ff82169050919050565b6131e2816131cc565b82525050565b60006020820190506131fd60008301846131d9565b92915050565b600061320e82612f64565b9050919050565b61321e81613203565b811461322957600080fd5b50565b60008135905061323b81613215565b92915050565b60006020828403121561325757613256612d54565b5b60006132658482850161322c565b91505092915050565b61327781613018565b811461328257600080fd5b50565b6000813590506132948161326e565b92915050565b6000806000606084860312156132b3576132b2612d54565b5b60006132c186828701612f8d565b93505060206132d286828701613285565b925050604084013567ffffffffffffffff8111156132f3576132f2612d59565b5b6132ff86828701612e56565b9150509250925092565b61331281612f64565b82525050565b600060208201905061332d6000830184613309565b92915050565b6000819050919050565b600061335861335361334e84612f44565b613333565b612f44565b9050919050565b600061336a8261333d565b9050919050565b600061337c8261335f565b9050919050565b61338c81613371565b82525050565b60006020820190506133a76000830184613383565b92915050565b6133b681613190565b81146133c157600080fd5b50565b6000813590506133d3816133ad565b92915050565b6000602082840312156133ef576133ee612d54565b5b60006133fd848285016133c4565b91505092915050565b600060808201905061341b600083018761307b565b613428602083018661307b565b613435604083018561307b565b613442606083018461307b565b95945050505050565b6000806040838503121561346257613461612d54565b5b600061347085828601612f8d565b925050602061348185828601612f8d565b9150509250929050565b600061349682612f64565b9050919050565b6134a68161348b565b81146134b157600080fd5b50565b6000813590506134c38161349d565b92915050565b6000602082840312156134df576134de612d54565b5b60006134ed848285016134b4565b91505092915050565b60006135018261335f565b9050919050565b613511816134f6565b82525050565b600060208201905061352c6000830184613508565b92915050565b600061353d82612f64565b9050919050565b61354d81613532565b811461355857600080fd5b50565b60008135905061356a81613544565b92915050565b60008060006060848603121561358957613588612d54565b5b600061359786828701612f8d565b93505060206135a886828701612fc3565b92505060406135b98682870161355b565b9150509250925092565b7f4e487b7100000000000000000000000000000000000000000000000000000000600052602260045260246000fd5b6000600282049050600182168061360a57607f821691505b6020821081141561361e5761361d6135c3565b5b50919050565b60006040820190506136396000830185613309565b613646602083018461307b565b9392505050565b60008151905061365c8161326e565b92915050565b60006020828403121561367857613677612d54565b5b60006136868482850161364d565b91505092915050565b60008151905061369e81612fac565b92915050565b6000602082840312156136ba576136b9612d54565b5b60006136c88482850161368f565b91505092915050565b60006136dc8261335f565b9050919050565b6136ec816136d1565b82525050565b600060208201905061370760008301846136e3565b92915050565b60006060820190506137226000830186613309565b61372f6020830185613309565b61373c604083018461307b565b949350505050565b600061374f82612ecd565b6137598185612c48565b9350613769818560208601612cab565b80840191505092915050565b60006137818284613744565b915081905092915050565b600061379f61379a84612de3565b612dc8565b9050828152602081018484840111156137bb576137ba612d63565b5b6137c6848285612cab565b509392505050565b600082601f8301126137e3576137e2612d5e565b5b81516137f384826020860161378c565b91505092915050565b60006020828403121561381257613811612d54565b5b600082015167ffffffffffffffff8111156138305761382f612d59565b5b61383c848285016137ce565b91505092915050565b7f43457263323044656c656761746f723a3a5f736574496d706c656d656e74617460008201527f696f6e3a2043616c6c6572206d7573742062652061646d696e00000000000000602082015250565b60006138a1603983612ba5565b91506138ac82613845565b604082019050919050565b600060208201905081810360008301526138d081613894565b9050919050565b60006040820190506138ec6000830185613309565b6138f96020830184613309565b9392505050565b6000806000806080858703121561391a57613919612d54565b5b60006139288782880161368f565b94505060206139398782880161368f565b935050604061394a8782880161368f565b925050606061395b8782880161368f565b91505092959194509250565b60006139728261335f565b9050919050565b61398281613967565b82525050565b600060608201905061399d6000830186613309565b6139aa602083018561307b565b6139b76040830184613979565b94935050505056fea26469706673582212204902790cc3d44d36d8636756b3deffd097d0437dfb9bef93f458a9497b3d052564736f6c634300080a0033",
  "linkReferences": {},
  "deployedLinkReferences": {}
}