{
  "_format": "hh-sol-artifact-1",
  "contractName": "ComptrollerG7",
  "sourceName": "contracts/ComptrollerG7.sol",
  "abi": [
    {
      "inputs": [],
      "stateMutability": "nonpayable",
      "type": "constructor"
    },
    {
      "anonymous": false,
      "inputs": [
        {
          "indexed": false,
          "internalType": "string",
          "name": "action",
          "type": "string"
        },
        {
          "indexed": false,
          "internalType": "bool",
          "name": "pauseState",
          "type": "bool"
        }
      ],
      "name": "ActionPaused",
      "type": "event"
    },
    {
      "anonymous": false,
      "inputs": [
        {
          "indexed": false,
          "internalType": "contract CToken",
          "name": "cToken",
          "type": "address"
        },
        {
          "indexed": false,
          "internalType": "string",
          "name": "action",
          "type": "string"
        },
        {
          "indexed": false,
          "internalType": "bool",
          "name": "pauseState",
          "type": "bool"
        }
      ],
      "name": "ActionPaused",
      "type": "event"
    },
    {
      "anonymous": false,
      "inputs": [
        {
          "indexed": false,
          "internalType": "address",
          "name": "recipient",
          "type": "address"
        },
        {
          "indexed": false,
          "internalType": "uint256",
          "name": "amount",
          "type": "uint256"
        }
      ],
      "name": "CompGranted",
      "type": "event"
    },
    {
      "anonymous": false,
      "inputs": [
        {
          "indexed": true,
          "internalType": "contract CToken",
          "name": "cToken",
          "type": "address"
        },
        {
          "indexed": false,
          "internalType": "uint256",
          "name": "newSpeed",
          "type": "uint256"
        }
      ],
      "name": "CompSpeedUpdated",
      "type": "event"
    },
    {
      "anonymous": false,
      "inputs": [
        {
          "indexed": true,
          "internalType": "address",
          "name": "contributor",
          "type": "address"
        },
        {
          "indexed": false,
          "internalType": "uint256",
          "name": "newSpeed",
          "type": "uint256"
        }
      ],
      "name": "ContributorCompSpeedUpdated",
      "type": "event"
    },
    {
      "anonymous": false,
      "inputs": [
        {
          "indexed": true,
          "internalType": "contract CToken",
          "name": "cToken",
          "type": "address"
        },
        {
          "indexed": true,
          "internalType": "address",
          "name": "borrower",
          "type": "address"
        },
        {
          "indexed": false,
          "internalType": "uint256",
          "name": "compDelta",
          "type": "uint256"
        },
        {
          "indexed": false,
          "internalType": "uint256",
          "name": "compBorrowIndex",
          "type": "uint256"
        }
      ],
      "name": "DistributedBorrowerComp",
      "type": "event"
    },
    {
      "anonymous": false,
      "inputs": [
        {
          "indexed": true,
          "internalType": "contract CToken",
          "name": "cToken",
          "type": "address"
        },
        {
          "indexed": true,
          "internalType": "address",
          "name": "supplier",
          "type": "address"
        },
        {
          "indexed": false,
          "internalType": "uint256",
          "name": "compDelta",
          "type": "uint256"
        },
        {
          "indexed": false,
          "internalType": "uint256",
          "name": "compSupplyIndex",
          "type": "uint256"
        }
      ],
      "name": "DistributedSupplierComp",
      "type": "event"
    },
    {
      "anonymous": false,
      "inputs": [
        {
          "indexed": false,
          "internalType": "uint256",
          "name": "error",
          "type": "uint256"
        },
        {
          "indexed": false,
          "internalType": "uint256",
          "name": "info",
          "type": "uint256"
        },
        {
          "indexed": false,
          "internalType": "uint256",
          "name": "detail",
          "type": "uint256"
        }
      ],
      "name": "Failure",
      "type": "event"
    },
    {
      "anonymous": false,
      "inputs": [
        {
          "indexed": false,
          "internalType": "contract CToken",
          "name": "cToken",
          "type": "address"
        },
        {
          "indexed": false,
          "internalType": "address",
          "name": "account",
          "type": "address"
        }
      ],
      "name": "MarketEntered",
      "type": "event"
    },
    {
      "anonymous": false,
      "inputs": [
        {
          "indexed": false,
          "internalType": "contract CToken",
          "name": "cToken",
          "type": "address"
        },
        {
          "indexed": false,
          "internalType": "address",
          "name": "account",
          "type": "address"
        }
      ],
      "name": "MarketExited",
      "type": "event"
    },
    {
      "anonymous": false,
      "inputs": [
        {
          "indexed": false,
          "internalType": "contract CToken",
          "name": "cToken",
          "type": "address"
        }
      ],
      "name": "MarketListed",
      "type": "event"
    },
    {
      "anonymous": false,
      "inputs": [
        {
          "indexed": true,
          "internalType": "contract CToken",
          "name": "cToken",
          "type": "address"
        },
        {
          "indexed": false,
          "internalType": "uint256",
          "name": "newBorrowCap",
          "type": "uint256"
        }
      ],
      "name": "NewBorrowCap",
      "type": "event"
    },
    {
      "anonymous": false,
      "inputs": [
        {
          "indexed": false,
          "internalType": "address",
          "name": "oldBorrowCapGuardian",
          "type": "address"
        },
        {
          "indexed": false,
          "internalType": "address",
          "name": "newBorrowCapGuardian",
          "type": "address"
        }
      ],
      "name": "NewBorrowCapGuardian",
      "type": "event"
    },
    {
      "anonymous": false,
      "inputs": [
        {
          "indexed": false,
          "internalType": "uint256",
          "name": "oldCloseFactorMantissa",
          "type": "uint256"
        },
        {
          "indexed": false,
          "internalType": "uint256",
          "name": "newCloseFactorMantissa",
          "type": "uint256"
        }
      ],
      "name": "NewCloseFactor",
      "type": "event"
    },
    {
      "anonymous": false,
      "inputs": [
        {
          "indexed": false,
          "internalType": "contract CToken",
          "name": "cToken",
          "type": "address"
        },
        {
          "indexed": false,
          "internalType": "uint256",
          "name": "oldCollateralFactorMantissa",
          "type": "uint256"
        },
        {
          "indexed": false,
          "internalType": "uint256",
          "name": "newCollateralFactorMantissa",
          "type": "uint256"
        }
      ],
      "name": "NewCollateralFactor",
      "type": "event"
    },
    {
      "anonymous": false,
      "inputs": [
        {
          "indexed": false,
          "internalType": "uint256",
          "name": "oldLiquidationIncentiveMantissa",
          "type": "uint256"
        },
        {
          "indexed": false,
          "internalType": "uint256",
          "name": "newLiquidationIncentiveMantissa",
          "type": "uint256"
        }
      ],
      "name": "NewLiquidationIncentive",
      "type": "event"
    },
    {
      "anonymous": false,
      "inputs": [
        {
          "indexed": false,
          "internalType": "address",
          "name": "oldPauseGuardian",
          "type": "address"
        },
        {
          "indexed": false,
          "internalType": "address",
          "name": "newPauseGuardian",
          "type": "address"
        }
      ],
      "name": "NewPauseGuardian",
      "type": "event"
    },
    {
      "anonymous": false,
      "inputs": [
        {
          "indexed": false,
          "internalType": "contract PriceOracle",
          "name": "oldPriceOracle",
          "type": "address"
        },
        {
          "indexed": false,
          "internalType": "contract PriceOracle",
          "name": "newPriceOracle",
          "type": "address"
        }
      ],
      "name": "NewPriceOracle",
      "type": "event"
    },
    {
      "inputs": [
        {
          "internalType": "contract Unitroller",
          "name": "unitroller",
          "type": "address"
        }
      ],
      "name": "_become",
      "outputs": [],
      "stateMutability": "nonpayable",
      "type": "function"
    },
    {
      "inputs": [],
      "name": "_borrowGuardianPaused",
      "outputs": [
        {
          "internalType": "bool",
          "name": "",
          "type": "bool"
        }
      ],
      "stateMutability": "view",
      "type": "function"
    },
    {
      "inputs": [
        {
          "internalType": "address",
          "name": "recipient",
          "type": "address"
        },
        {
          "internalType": "uint256",
          "name": "amount",
          "type": "uint256"
        }
      ],
      "name": "_grantComp",
      "outputs": [],
      "stateMutability": "nonpayable",
      "type": "function"
    },
    {
      "inputs": [],
      "name": "_mintGuardianPaused",
      "outputs": [
        {
          "internalType": "bool",
          "name": "",
          "type": "bool"
        }
      ],
      "stateMutability": "view",
      "type": "function"
    },
    {
      "inputs": [
        {
          "internalType": "address",
          "name": "newBorrowCapGuardian",
          "type": "address"
        }
      ],
      "name": "_setBorrowCapGuardian",
      "outputs": [],
      "stateMutability": "nonpayable",
      "type": "function"
    },
    {
      "inputs": [
        {
          "internalType": "contract CToken",
          "name": "cToken",
          "type": "address"
        },
        {
          "internalType": "bool",
          "name": "state",
          "type": "bool"
        }
      ],
      "name": "_setBorrowPaused",
      "outputs": [
        {
          "internalType": "bool",
          "name": "",
          "type": "bool"
        }
      ],
      "stateMutability": "nonpayable",
      "type": "function"
    },
    {
      "inputs": [
        {
          "internalType": "uint256",
          "name": "newCloseFactorMantissa",
          "type": "uint256"
        }
      ],
      "name": "_setCloseFactor",
      "outputs": [
        {
          "internalType": "uint256",
          "name": "",
          "type": "uint256"
        }
      ],
      "stateMutability": "nonpayable",
      "type": "function"
    },
    {
      "inputs": [
        {
          "internalType": "contract CToken",
          "name": "cToken",
          "type": "address"
        },
        {
          "internalType": "uint256",
          "name": "newCollateralFactorMantissa",
          "type": "uint256"
        }
      ],
      "name": "_setCollateralFactor",
      "outputs": [
        {
          "internalType": "uint256",
          "name": "",
          "type": "uint256"
        }
      ],
      "stateMutability": "nonpayable",
      "type": "function"
    },
    {
      "inputs": [
        {
          "internalType": "contract CToken",
          "name": "cToken",
          "type": "address"
        },
        {
          "internalType": "uint256",
          "name": "compSpeed",
          "type": "uint256"
        }
      ],
      "name": "_setCompSpeed",
      "outputs": [],
      "stateMutability": "nonpayable",
      "type": "function"
    },
    {
      "inputs": [
        {
          "internalType": "address",
          "name": "contributor",
          "type": "address"
        },
        {
          "internalType": "uint256",
          "name": "compSpeed",
          "type": "uint256"
        }
      ],
      "name": "_setContributorCompSpeed",
      "outputs": [],
      "stateMutability": "nonpayable",
      "type": "function"
    },
    {
      "inputs": [
        {
          "internalType": "uint256",
          "name": "newLiquidationIncentiveMantissa",
          "type": "uint256"
        }
      ],
      "name": "_setLiquidationIncentive",
      "outputs": [
        {
          "internalType": "uint256",
          "name": "",
          "type": "uint256"
        }
      ],
      "stateMutability": "nonpayable",
      "type": "function"
    },
    {
      "inputs": [
        {
          "internalType": "contract CToken[]",
          "name": "cTokens",
          "type": "address[]"
        },
        {
          "internalType": "uint256[]",
          "name": "newBorrowCaps",
          "type": "uint256[]"
        }
      ],
      "name": "_setMarketBorrowCaps",
      "outputs": [],
      "stateMutability": "nonpayable",
      "type": "function"
    },
    {
      "inputs": [
        {
          "internalType": "contract CToken",
          "name": "cToken",
          "type": "address"
        },
        {
          "internalType": "bool",
          "name": "state",
          "type": "bool"
        }
      ],
      "name": "_setMintPaused",
      "outputs": [
        {
          "internalType": "bool",
          "name": "",
          "type": "bool"
        }
      ],
      "stateMutability": "nonpayable",
      "type": "function"
    },
    {
      "inputs": [
        {
          "internalType": "address",
          "name": "newPauseGuardian",
          "type": "address"
        }
      ],
      "name": "_setPauseGuardian",
      "outputs": [
        {
          "internalType": "uint256",
          "name": "",
          "type": "uint256"
        }
      ],
      "stateMutability": "nonpayable",
      "type": "function"
    },
    {
      "inputs": [
        {
          "internalType": "contract PriceOracle",
          "name": "newOracle",
          "type": "address"
        }
      ],
      "name": "_setPriceOracle",
      "outputs": [
        {
          "internalType": "uint256",
          "name": "",
          "type": "uint256"
        }
      ],
      "stateMutability": "nonpayable",
      "type": "function"
    },
    {
      "inputs": [
        {
          "internalType": "bool",
          "name": "state",
          "type": "bool"
        }
      ],
      "name": "_setSeizePaused",
      "outputs": [
        {
          "internalType": "bool",
          "name": "",
          "type": "bool"
        }
      ],
      "stateMutability": "nonpayable",
      "type": "function"
    },
    {
      "inputs": [
        {
          "internalType": "bool",
          "name": "state",
          "type": "bool"
        }
      ],
      "name": "_setTransferPaused",
      "outputs": [
        {
          "internalType": "bool",
          "name": "",
          "type": "bool"
        }
      ],
      "stateMutability": "nonpayable",
      "type": "function"
    },
    {
      "inputs": [
        {
          "internalType": "contract CToken",
          "name": "cToken",
          "type": "address"
        }
      ],
      "name": "_supportMarket",
      "outputs": [
        {
          "internalType": "uint256",
          "name": "",
          "type": "uint256"
        }
      ],
      "stateMutability": "nonpayable",
      "type": "function"
    },
    {
      "inputs": [
        {
          "internalType": "address",
          "name": "",
          "type": "address"
        },
        {
          "internalType": "uint256",
          "name": "",
          "type": "uint256"
        }
      ],
      "name": "accountAssets",
      "outputs": [
        {
          "internalType": "contract CToken",
          "name": "",
          "type": "address"
        }
      ],
      "stateMutability": "view",
      "type": "function"
    },
    {
      "inputs": [],
      "name": "admin",
      "outputs": [
        {
          "internalType": "address",
          "name": "",
          "type": "address"
        }
      ],
      "stateMutability": "view",
      "type": "function"
    },
    {
      "inputs": [
        {
          "internalType": "uint256",
          "name": "",
          "type": "uint256"
        }
      ],
      "name": "allMarkets",
      "outputs": [
        {
          "internalType": "contract CToken",
          "name": "",
          "type": "address"
        }
      ],
      "stateMutability": "view",
      "type": "function"
    },
    {
      "inputs": [
        {
          "internalType": "address",
          "name": "cToken",
          "type": "address"
        },
        {
          "internalType": "address",
          "name": "borrower",
          "type": "address"
        },
        {
          "internalType": "uint256",
          "name": "borrowAmount",
          "type": "uint256"
        }
      ],
      "name": "borrowAllowed",
      "outputs": [
        {
          "internalType": "uint256",
          "name": "",
          "type": "uint256"
        }
      ],
      "stateMutability": "nonpayable",
      "type": "function"
    },
    {
      "inputs": [],
      "name": "borrowCapGuardian",
      "outputs": [
        {
          "internalType": "address",
          "name": "",
          "type": "address"
        }
      ],
      "stateMutability": "view",
      "type": "function"
    },
    {
      "inputs": [
        {
          "internalType": "address",
          "name": "",
          "type": "address"
        }
      ],
      "name": "borrowCaps",
      "outputs": [
        {
          "internalType": "uint256",
          "name": "",
          "type": "uint256"
        }
      ],
      "stateMutability": "view",
      "type": "function"
    },
    {
      "inputs": [
        {
          "internalType": "address",
          "name": "",
          "type": "address"
        }
      ],
      "name": "borrowGuardianPaused",
      "outputs": [
        {
          "internalType": "bool",
          "name": "",
          "type": "bool"
        }
      ],
      "stateMutability": "view",
      "type": "function"
    },
    {
      "inputs": [
        {
          "internalType": "address",
          "name": "cToken",
          "type": "address"
        },
        {
          "internalType": "address",
          "name": "borrower",
          "type": "address"
        },
        {
          "internalType": "uint256",
          "name": "borrowAmount",
          "type": "uint256"
        }
      ],
      "name": "borrowVerify",
      "outputs": [],
      "stateMutability": "nonpayable",
      "type": "function"
    },
    {
      "inputs": [
        {
          "internalType": "address",
          "name": "account",
          "type": "address"
        },
        {
          "internalType": "contract CToken",
          "name": "cToken",
          "type": "address"
        }
      ],
      "name": "checkMembership",
      "outputs": [
        {
          "internalType": "bool",
          "name": "",
          "type": "bool"
        }
      ],
      "stateMutability": "view",
      "type": "function"
    },
    {
      "inputs": [
        {
          "internalType": "address",
          "name": "holder",
          "type": "address"
        },
        {
          "internalType": "contract CToken[]",
          "name": "cTokens",
          "type": "address[]"
        }
      ],
      "name": "claimComp",
      "outputs": [],
      "stateMutability": "nonpayable",
      "type": "function"
    },
    {
      "inputs": [
        {
          "internalType": "address[]",
          "name": "holders",
          "type": "address[]"
        },
        {
          "internalType": "contract CToken[]",
          "name": "cTokens",
          "type": "address[]"
        },
        {
          "internalType": "bool",
          "name": "borrowers",
          "type": "bool"
        },
        {
          "internalType": "bool",
          "name": "suppliers",
          "type": "bool"
        }
      ],
      "name": "claimComp",
      "outputs": [],
      "stateMutability": "nonpayable",
      "type": "function"
    },
    {
      "inputs": [
        {
          "internalType": "address",
          "name": "holder",
          "type": "address"
        }
      ],
      "name": "claimComp",
      "outputs": [],
      "stateMutability": "nonpayable",
      "type": "function"
    },
    {
      "inputs": [],
      "name": "closeFactorMantissa",
      "outputs": [
        {
          "internalType": "uint256",
          "name": "",
          "type": "uint256"
        }
      ],
      "stateMutability": "view",
      "type": "function"
    },
    {
      "inputs": [
        {
          "internalType": "address",
          "name": "",
          "type": "address"
        }
      ],
      "name": "compAccrued",
      "outputs": [
        {
          "internalType": "uint256",
          "name": "",
          "type": "uint256"
        }
      ],
      "stateMutability": "view",
      "type": "function"
    },
    {
      "inputs": [
        {
          "internalType": "address",
          "name": "",
          "type": "address"
        }
      ],
      "name": "compBorrowState",
      "outputs": [
        {
          "internalType": "uint224",
          "name": "index",
          "type": "uint224"
        },
        {
          "internalType": "uint32",
          "name": "block",
          "type": "uint32"
        }
      ],
      "stateMutability": "view",
      "type": "function"
    },
    {
      "inputs": [
        {
          "internalType": "address",
          "name": "",
          "type": "address"
        },
        {
          "internalType": "address",
          "name": "",
          "type": "address"
        }
      ],
      "name": "compBorrowerIndex",
      "outputs": [
        {
          "internalType": "uint256",
          "name": "",
          "type": "uint256"
        }
      ],
      "stateMutability": "view",
      "type": "function"
    },
    {
      "inputs": [
        {
          "internalType": "address",
          "name": "",
          "type": "address"
        }
      ],
      "name": "compContributorSpeeds",
      "outputs": [
        {
          "internalType": "uint256",
          "name": "",
          "type": "uint256"
        }
      ],
      "stateMutability": "view",
      "type": "function"
    },
    {
      "inputs": [],
      "name": "compInitialIndex",
      "outputs": [
        {
          "internalType": "uint224",
          "name": "",
          "type": "uint224"
        }
      ],
      "stateMutability": "view",
      "type": "function"
    },
    {
      "inputs": [],
      "name": "compRate",
      "outputs": [
        {
          "internalType": "uint256",
          "name": "",
          "type": "uint256"
        }
      ],
      "stateMutability": "view",
      "type": "function"
    },
    {
      "inputs": [
        {
          "internalType": "address",
          "name": "",
          "type": "address"
        }
      ],
      "name": "compSpeeds",
      "outputs": [
        {
          "internalType": "uint256",
          "name": "",
          "type": "uint256"
        }
      ],
      "stateMutability": "view",
      "type": "function"
    },
    {
      "inputs": [
        {
          "internalType": "address",
          "name": "",
          "type": "address"
        },
        {
          "internalType": "address",
          "name": "",
          "type": "address"
        }
      ],
      "name": "compSupplierIndex",
      "outputs": [
        {
          "internalType": "uint256",
          "name": "",
          "type": "uint256"
        }
      ],
      "stateMutability": "view",
      "type": "function"
    },
    {
      "inputs": [
        {
          "internalType": "address",
          "name": "",
          "type": "address"
        }
      ],
      "name": "compSupplyState",
      "outputs": [
        {
          "internalType": "uint224",
          "name": "index",
          "type": "uint224"
        },
        {
          "internalType": "uint32",
          "name": "block",
          "type": "uint32"
        }
      ],
      "stateMutability": "view",
      "type": "function"
    },
    {
      "inputs": [],
      "name": "comptrollerImplementation",
      "outputs": [
        {
          "internalType": "address",
          "name": "",
          "type": "address"
        }
      ],
      "stateMutability": "view",
      "type": "function"
    },
    {
      "inputs": [
        {
          "internalType": "address[]",
          "name": "cTokens",
          "type": "address[]"
        }
      ],
      "name": "enterMarkets",
      "outputs": [
        {
          "internalType": "uint256[]",
          "name": "",
          "type": "uint256[]"
        }
      ],
      "stateMutability": "nonpayable",
      "type": "function"
    },
    {
      "inputs": [
        {
          "internalType": "address",
          "name": "cTokenAddress",
          "type": "address"
        }
      ],
      "name": "exitMarket",
      "outputs": [
        {
          "internalType": "uint256",
          "name": "",
          "type": "uint256"
        }
      ],
      "stateMutability": "nonpayable",
      "type": "function"
    },
    {
      "inputs": [
        {
          "internalType": "address",
          "name": "account",
          "type": "address"
        }
      ],
      "name": "getAccountLiquidity",
      "outputs": [
        {
          "internalType": "uint256",
          "name": "",
          "type": "uint256"
        },
        {
          "internalType": "uint256",
          "name": "",
          "type": "uint256"
        },
        {
          "internalType": "uint256",
          "name": "",
          "type": "uint256"
        }
      ],
      "stateMutability": "view",
      "type": "function"
    },
    {
      "inputs": [],
      "name": "getAllMarkets",
      "outputs": [
        {
          "internalType": "contract CToken[]",
          "name": "",
          "type": "address[]"
        }
      ],
      "stateMutability": "view",
      "type": "function"
    },
    {
      "inputs": [
        {
          "internalType": "address",
          "name": "account",
          "type": "address"
        }
      ],
      "name": "getAssetsIn",
      "outputs": [
        {
          "internalType": "contract CToken[]",
          "name": "",
          "type": "address[]"
        }
      ],
      "stateMutability": "view",
      "type": "function"
    },
    {
      "inputs": [],
      "name": "getBlockNumber",
      "outputs": [
        {
          "internalType": "uint256",
          "name": "",
          "type": "uint256"
        }
      ],
      "stateMutability": "view",
      "type": "function"
    },
    {
      "inputs": [],
      "name": "getCompAddress",
      "outputs": [
        {
          "internalType": "address",
          "name": "",
          "type": "address"
        }
      ],
      "stateMutability": "view",
      "type": "function"
    },
    {
      "inputs": [
        {
          "internalType": "address",
          "name": "account",
          "type": "address"
        },
        {
          "internalType": "address",
          "name": "cTokenModify",
          "type": "address"
        },
        {
          "internalType": "uint256",
          "name": "redeemTokens",
          "type": "uint256"
        },
        {
          "internalType": "uint256",
          "name": "borrowAmount",
          "type": "uint256"
        }
      ],
      "name": "getHypotheticalAccountLiquidity",
      "outputs": [
        {
          "internalType": "uint256",
          "name": "",
          "type": "uint256"
        },
        {
          "internalType": "uint256",
          "name": "",
          "type": "uint256"
        },
        {
          "internalType": "uint256",
          "name": "",
          "type": "uint256"
        }
      ],
      "stateMutability": "view",
      "type": "function"
    },
    {
      "inputs": [],
      "name": "isComptroller",
      "outputs": [
        {
          "internalType": "bool",
          "name": "",
          "type": "bool"
        }
      ],
      "stateMutability": "view",
      "type": "function"
    },
    {
      "inputs": [
        {
          "internalType": "address",
          "name": "",
          "type": "address"
        }
      ],
      "name": "lastContributorBlock",
      "outputs": [
        {
          "internalType": "uint256",
          "name": "",
          "type": "uint256"
        }
      ],
      "stateMutability": "view",
      "type": "function"
    },
    {
      "inputs": [
        {
          "internalType": "address",
          "name": "cTokenBorrowed",
          "type": "address"
        },
        {
          "internalType": "address",
          "name": "cTokenCollateral",
          "type": "address"
        },
        {
          "internalType": "address",
          "name": "liquidator",
          "type": "address"
        },
        {
          "internalType": "address",
          "name": "borrower",
          "type": "address"
        },
        {
          "internalType": "uint256",
          "name": "repayAmount",
          "type": "uint256"
        }
      ],
      "name": "liquidateBorrowAllowed",
      "outputs": [
        {
          "internalType": "uint256",
          "name": "",
          "type": "uint256"
        }
      ],
      "stateMutability": "nonpayable",
      "type": "function"
    },
    {
      "inputs": [
        {
          "internalType": "address",
          "name": "cTokenBorrowed",
          "type": "address"
        },
        {
          "internalType": "address",
          "name": "cTokenCollateral",
          "type": "address"
        },
        {
          "internalType": "address",
          "name": "liquidator",
          "type": "address"
        },
        {
          "internalType": "address",
          "name": "borrower",
          "type": "address"
        },
        {
          "internalType": "uint256",
          "name": "actualRepayAmount",
          "type": "uint256"
        },
        {
          "internalType": "uint256",
          "name": "seizeTokens",
          "type": "uint256"
        }
      ],
      "name": "liquidateBorrowVerify",
      "outputs": [],
      "stateMutability": "nonpayable",
      "type": "function"
    },
    {
      "inputs": [
        {
          "internalType": "address",
          "name": "cTokenBorrowed",
          "type": "address"
        },
        {
          "internalType": "address",
          "name": "cTokenCollateral",
          "type": "address"
        },
        {
          "internalType": "uint256",
          "name": "actualRepayAmount",
          "type": "uint256"
        }
      ],
      "name": "liquidateCalculateSeizeTokens",
      "outputs": [
        {
          "internalType": "uint256",
          "name": "",
          "type": "uint256"
        },
        {
          "internalType": "uint256",
          "name": "",
          "type": "uint256"
        }
      ],
      "stateMutability": "view",
      "type": "function"
    },
    {
      "inputs": [],
      "name": "liquidationIncentiveMantissa",
      "outputs": [
        {
          "internalType": "uint256",
          "name": "",
          "type": "uint256"
        }
      ],
      "stateMutability": "view",
      "type": "function"
    },
    {
      "inputs": [
        {
          "internalType": "address",
          "name": "",
          "type": "address"
        }
      ],
      "name": "markets",
      "outputs": [
        {
          "internalType": "bool",
          "name": "isListed",
          "type": "bool"
        },
        {
          "internalType": "uint256",
          "name": "collateralFactorMantissa",
          "type": "uint256"
        },
        {
          "internalType": "bool",
          "name": "isComped",
          "type": "bool"
        }
      ],
      "stateMutability": "view",
      "type": "function"
    },
    {
      "inputs": [],
      "name": "maxAssets",
      "outputs": [
        {
          "internalType": "uint256",
          "name": "",
          "type": "uint256"
        }
      ],
      "stateMutability": "view",
      "type": "function"
    },
    {
      "inputs": [
        {
          "internalType": "address",
          "name": "cToken",
          "type": "address"
        },
        {
          "internalType": "address",
          "name": "minter",
          "type": "address"
        },
        {
          "internalType": "uint256",
          "name": "mintAmount",
          "type": "uint256"
        }
      ],
      "name": "mintAllowed",
      "outputs": [
        {
          "internalType": "uint256",
          "name": "",
          "type": "uint256"
        }
      ],
      "stateMutability": "nonpayable",
      "type": "function"
    },
    {
      "inputs": [
        {
          "internalType": "address",
          "name": "",
          "type": "address"
        }
      ],
      "name": "mintGuardianPaused",
      "outputs": [
        {
          "internalType": "bool",
          "name": "",
          "type": "bool"
        }
      ],
      "stateMutability": "view",
      "type": "function"
    },
    {
      "inputs": [
        {
          "internalType": "address",
          "name": "cToken",
          "type": "address"
        },
        {
          "internalType": "address",
          "name": "minter",
          "type": "address"
        },
        {
          "internalType": "uint256",
          "name": "actualMintAmount",
          "type": "uint256"
        },
        {
          "internalType": "uint256",
          "name": "mintTokens",
          "type": "uint256"
        }
      ],
      "name": "mintVerify",
      "outputs": [],
      "stateMutability": "nonpayable",
      "type": "function"
    },
    {
      "inputs": [],
      "name": "oracle",
      "outputs": [
        {
          "internalType": "contract PriceOracle",
          "name": "",
          "type": "address"
        }
      ],
      "stateMutability": "view",
      "type": "function"
    },
    {
      "inputs": [],
      "name": "pauseGuardian",
      "outputs": [
        {
          "internalType": "address",
          "name": "",
          "type": "address"
        }
      ],
      "stateMutability": "view",
      "type": "function"
    },
    {
      "inputs": [],
      "name": "pendingAdmin",
      "outputs": [
        {
          "internalType": "address",
          "name": "",
          "type": "address"
        }
      ],
      "stateMutability": "view",
      "type": "function"
    },
    {
      "inputs": [],
      "name": "pendingComptrollerImplementation",
      "outputs": [
        {
          "internalType": "address",
          "name": "",
          "type": "address"
        }
      ],
      "stateMutability": "view",
      "type": "function"
    },
    {
      "inputs": [
        {
          "internalType": "address",
          "name": "cToken",
          "type": "address"
        },
        {
          "internalType": "address",
          "name": "redeemer",
          "type": "address"
        },
        {
          "internalType": "uint256",
          "name": "redeemTokens",
          "type": "uint256"
        }
      ],
      "name": "redeemAllowed",
      "outputs": [
        {
          "internalType": "uint256",
          "name": "",
          "type": "uint256"
        }
      ],
      "stateMutability": "nonpayable",
      "type": "function"
    },
    {
      "inputs": [
        {
          "internalType": "address",
          "name": "cToken",
          "type": "address"
        },
        {
          "internalType": "address",
          "name": "redeemer",
          "type": "address"
        },
        {
          "internalType": "uint256",
          "name": "redeemAmount",
          "type": "uint256"
        },
        {
          "internalType": "uint256",
          "name": "redeemTokens",
          "type": "uint256"
        }
      ],
      "name": "redeemVerify",
      "outputs": [],
      "stateMutability": "nonpayable",
      "type": "function"
    },
    {
      "inputs": [
        {
          "internalType": "address",
          "name": "cToken",
          "type": "address"
        },
        {
          "internalType": "address",
          "name": "payer",
          "type": "address"
        },
        {
          "internalType": "address",
          "name": "borrower",
          "type": "address"
        },
        {
          "internalType": "uint256",
          "name": "repayAmount",
          "type": "uint256"
        }
      ],
      "name": "repayBorrowAllowed",
      "outputs": [
        {
          "internalType": "uint256",
          "name": "",
          "type": "uint256"
        }
      ],
      "stateMutability": "nonpayable",
      "type": "function"
    },
    {
      "inputs": [
        {
          "internalType": "address",
          "name": "cToken",
          "type": "address"
        },
        {
          "internalType": "address",
          "name": "payer",
          "type": "address"
        },
        {
          "internalType": "address",
          "name": "borrower",
          "type": "address"
        },
        {
          "internalType": "uint256",
          "name": "actualRepayAmount",
          "type": "uint256"
        },
        {
          "internalType": "uint256",
          "name": "borrowerIndex",
          "type": "uint256"
        }
      ],
      "name": "repayBorrowVerify",
      "outputs": [],
      "stateMutability": "nonpayable",
      "type": "function"
    },
    {
      "inputs": [
        {
          "internalType": "address",
          "name": "cTokenCollateral",
          "type": "address"
        },
        {
          "internalType": "address",
          "name": "cTokenBorrowed",
          "type": "address"
        },
        {
          "internalType": "address",
          "name": "liquidator",
          "type": "address"
        },
        {
          "internalType": "address",
          "name": "borrower",
          "type": "address"
        },
        {
          "internalType": "uint256",
          "name": "seizeTokens",
          "type": "uint256"
        }
      ],
      "name": "seizeAllowed",
      "outputs": [
        {
          "internalType": "uint256",
          "name": "",
          "type": "uint256"
        }
      ],
      "stateMutability": "nonpayable",
      "type": "function"
    },
    {
      "inputs": [],
      "name": "seizeGuardianPaused",
      "outputs": [
        {
          "internalType": "bool",
          "name": "",
          "type": "bool"
        }
      ],
      "stateMutability": "view",
      "type": "function"
    },
    {
      "inputs": [
        {
          "internalType": "address",
          "name": "cTokenCollateral",
          "type": "address"
        },
        {
          "internalType": "address",
          "name": "cTokenBorrowed",
          "type": "address"
        },
        {
          "internalType": "address",
          "name": "liquidator",
          "type": "address"
        },
        {
          "internalType": "address",
          "name": "borrower",
          "type": "address"
        },
        {
          "internalType": "uint256",
          "name": "seizeTokens",
          "type": "uint256"
        }
      ],
      "name": "seizeVerify",
      "outputs": [],
      "stateMutability": "nonpayable",
      "type": "function"
    },
    {
      "inputs": [
        {
          "internalType": "address",
          "name": "cToken",
          "type": "address"
        },
        {
          "internalType": "address",
          "name": "src",
          "type": "address"
        },
        {
          "internalType": "address",
          "name": "dst",
          "type": "address"
        },
        {
          "internalType": "uint256",
          "name": "transferTokens",
          "type": "uint256"
        }
      ],
      "name": "transferAllowed",
      "outputs": [
        {
          "internalType": "uint256",
          "name": "",
          "type": "uint256"
        }
      ],
      "stateMutability": "nonpayable",
      "type": "function"
    },
    {
      "inputs": [],
      "name": "transferGuardianPaused",
      "outputs": [
        {
          "internalType": "bool",
          "name": "",
          "type": "bool"
        }
      ],
      "stateMutability": "view",
      "type": "function"
    },
    {
      "inputs": [
        {
          "internalType": "address",
          "name": "cToken",
          "type": "address"
        },
        {
          "internalType": "address",
          "name": "src",
          "type": "address"
        },
        {
          "internalType": "address",
          "name": "dst",
          "type": "address"
        },
        {
          "internalType": "uint256",
          "name": "transferTokens",
          "type": "uint256"
        }
      ],
      "name": "transferVerify",
      "outputs": [],
      "stateMutability": "nonpayable",
      "type": "function"
    },
    {
      "inputs": [
        {
          "internalType": "address",
          "name": "contributor",
          "type": "address"
        }
      ],
      "name": "updateContributorRewards",
      "outputs": [],
      "stateMutability": "nonpayable",
      "type": "function"
    }
  ],
  "bytecode": "0x60806040523480156200001157600080fd5b50336000806101000a81548173ffffffffffffffffffffffffffffffffffffffff021916908373ffffffffffffffffffffffffffffffffffffffff16021790555061962b80620000626000396000f3fe608060405234801561001057600080fd5b50600436106104485760003560e01c80636d154ea511610241578063b21be7fd1161013b578063da3d454c116100c3578063e875544611610087578063e875544614610ef2578063e9af029214610f10578063eabe7d9114610f2c578063ede4edd014610f5c578063f851a44014610f8c57610448565b8063da3d454c14610e26578063dce1544914610e56578063dcfbc0c714610e86578063e4028eee14610ea4578063e6653f3d14610ed457610448565b8063c29982381161010a578063c299823814610d35578063c488847b14610d65578063ca0af04314610d96578063cc7ebdc414610dc6578063d02f735114610df657610448565b8063b21be7fd14610c87578063bb82aa5e14610cb7578063bdcdc25814610cd5578063bea6b8b814610d0557610448565b8063929fe9a1116101c9578063a7f0e2311161018d578063a7f0e23114610bdf578063aa90075414610bfd578063abfceffc14610c1b578063ac0b0bb714610c4b578063b0772d0b14610c6957610448565b8063929fe9a114610b1357806394b2294b14610b43578063986ab83814610b615780639d1b5a0a14610b91578063a76b3fda14610baf57610448565b80637dc0d1d0116102105780637dc0d1d014610a4457806387f7630314610a625780638c57804e14610a805780638e8f294b14610ab15780638ebf636414610ae357610448565b80636d154ea5146109ac5780636d35bf91146109dc578063731f0c2b146109f8578063741b252514610a2857610448565b8063434caf251161035257806355ee1fe1116102da5780635fc7e71e1161029e5780635fc7e71e146108f7578063607ef6c1146109275780636810dfa6146109435780636a56947e1461095f5780636b79c38d1461097b57610448565b806355ee1fe11461082d578063598ee1cb1461085d5780635c778605146108795780635ec88c79146108955780635f5af1aa146108c757610448565b80634e79238f116103215780634e79238f1461074f5780634ef4c3e1146107815780634fd42e17146107b157806351dff989146107e157806352d84d1e146107fd57610448565b8063434caf25146106c957806347ef3b3b146106e55780634a584432146107015780634ada90af1461073157610448565b806326782247116103d5578063391957d7116103a4578063391957d7146106255780633bcf7ec1146106415780633c94786f1461067157806341c728b91461068f57806342cbb15c146106ab57610448565b8063267822471461058b57806327efe3cb146105a95780632d70db78146105c5578063317b0b77146105f557610448565b80631d7b33d71161041c5780631d7b33d7146104d35780631ededc911461050357806321af45691461051f57806324008a621461053d57806324a3d6221461056d57610448565b80627e3dd21461044d57806318c882a51461046b5780631c3db2e01461049b5780631d504dc6146104b7575b600080fd5b610455610faa565b6040516104629190617418565b60405180910390f35b610485600480360381019061048091906174e3565b610faf565b6040516104929190617418565b60405180910390f35b6104b560048036038101906104b091906176a8565b61125c565b005b6104d160048036038101906104cc9190617754565b61130b565b005b6104ed60048036038101906104e89190617781565b61149d565b6040516104fa91906177c7565b60405180910390f35b61051d6004803603810190610518919061780e565b6114b5565b005b6105276114cd565b6040516105349190617898565b60405180910390f35b610557600480360381019061055291906178b3565b6114f3565b60405161056491906177c7565b60405180910390f35b61057561161a565b6040516105829190617898565b60405180910390f35b610593611640565b6040516105a09190617898565b60405180910390f35b6105c360048036038101906105be919061791a565b611666565b005b6105df60048036038101906105da919061795a565b61173c565b6040516105ec9190617418565b60405180910390f35b61060f600480360381019061060a9190617987565b61191a565b60405161061c91906177c7565b60405180910390f35b61063f600480360381019061063a9190617781565b611a10565b005b61065b600480360381019061065691906174e3565b611b43565b6040516106689190617418565b60405180910390f35b610679611df0565b6040516106869190617418565b60405180910390f35b6106a960048036038101906106a491906179b4565b611e03565b005b6106b3611e1a565b6040516106c091906177c7565b60405180910390f35b6106e360048036038101906106de9190617a1b565b611e22565b005b6106ff60048036038101906106fa9190617a5b565b611e77565b005b61071b60048036038101906107169190617781565b611e90565b60405161072891906177c7565b60405180910390f35b610739611ea8565b60405161074691906177c7565b60405180910390f35b610769600480360381019061076491906179b4565b611eae565b60405161077893929190617ae8565b60405180910390f35b61079b60048036038101906107969190617b1f565b611ef1565b6040516107a891906177c7565b60405180910390f35b6107cb60048036038101906107c69190617987565b612020565b6040516107d891906177c7565b60405180910390f35b6107fb60048036038101906107f691906179b4565b6120ed565b005b61081760048036038101906108129190617987565b612143565b6040516108249190617bd1565b60405180910390f35b61084760048036038101906108429190617c2a565b612182565b60405161085491906177c7565b60405180910390f35b6108776004803603810190610872919061791a565b6122a9565b005b610893600480360381019061088e9190617b1f565b61242c565b005b6108af60048036038101906108aa9190617781565b612442565b6040516108be93929190617ae8565b60405180910390f35b6108e160048036038101906108dc9190617781565b612484565b6040516108ee91906177c7565b60405180910390f35b610911600480360381019061090c9190617c57565b6125cd565b60405161091e91906177c7565b60405180910390f35b610941600480360381019061093c9190617d83565b6127fd565b005b61095d60048036038101906109589190617ec7565b612a7b565b005b610979600480360381019061097491906178b3565b612e3e565b005b61099560048036038101906109909190617781565b612e55565b6040516109a3929190617fbc565b60405180910390f35b6109c660048036038101906109c19190617781565b612eb1565b6040516109d39190617418565b60405180910390f35b6109f660048036038101906109f19190617c57565b612ed1565b005b610a126004803603810190610a0d9190617781565b612ee9565b604051610a1f9190617418565b60405180910390f35b610a426004803603810190610a3d9190617781565b612f09565b005b610a4c6130a7565b604051610a599190618006565b60405180910390f35b610a6a6130cd565b604051610a779190617418565b60405180910390f35b610a9a6004803603810190610a959190617781565b6130e0565b604051610aa8929190617fbc565b60405180910390f35b610acb6004803603810190610ac69190617781565b61313c565b604051610ada93929190618021565b60405180910390f35b610afd6004803603810190610af8919061795a565b613180565b604051610b0a9190617418565b60405180910390f35b610b2d6004803603810190610b289190618058565b61335e565b604051610b3a9190617418565b60405180910390f35b610b4b6133f5565b604051610b5891906177c7565b60405180910390f35b610b7b6004803603810190610b769190617781565b6133fb565b604051610b8891906177c7565b60405180910390f35b610b99613413565b604051610ba69190617898565b60405180910390f35b610bc96004803603810190610bc49190618098565b61342f565b604051610bd691906177c7565b60405180910390f35b610be7613654565b604051610bf491906180c5565b60405180910390f35b610c05613667565b604051610c1291906177c7565b60405180910390f35b610c356004803603810190610c309190617781565b61366d565b604051610c42919061819e565b60405180910390f35b610c53613740565b604051610c609190617418565b60405180910390f35b610c71613753565b604051610c7e919061819e565b60405180910390f35b610ca16004803603810190610c9c91906181c0565b6137e1565b604051610cae91906177c7565b60405180910390f35b610cbf613806565b604051610ccc9190617898565b60405180910390f35b610cef6004803603810190610cea91906178b3565b61382c565b604051610cfc91906177c7565b60405180910390f35b610d1f6004803603810190610d1a9190617781565b6138ed565b604051610d2c91906177c7565b60405180910390f35b610d4f6004803603810190610d4a9190618200565b613905565b604051610d5c9190618307565b60405180910390f35b610d7f6004803603810190610d7a9190617b1f565b6139de565b604051610d8d929190618329565b60405180910390f35b610db06004803603810190610dab91906181c0565b613c76565b604051610dbd91906177c7565b60405180910390f35b610de06004803603810190610ddb9190617781565b613c9b565b604051610ded91906177c7565b60405180910390f35b610e106004803603810190610e0b9190617c57565b613cb3565b604051610e1d91906177c7565b60405180910390f35b610e406004803603810190610e3b9190617b1f565b613f35565b604051610e4d91906177c7565b60405180910390f35b610e706004803603810190610e6b919061791a565b614531565b604051610e7d9190617bd1565b60405180910390f35b610e8e61457f565b604051610e9b9190617898565b60405180910390f35b610ebe6004803603810190610eb99190617a1b565b6145a5565b604051610ecb91906177c7565b60405180910390f35b610edc614803565b604051610ee99190617418565b60405180910390f35b610efa614816565b604051610f0791906177c7565b60405180910390f35b610f2a6004803603810190610f259190617781565b61481c565b005b610f466004803603810190610f419190617b1f565b6148af565b604051610f5391906177c7565b60405180910390f35b610f766004803603810190610f719190617781565b614914565b604051610f8391906177c7565b60405180910390f35b610f94614e23565b604051610fa19190617898565b60405180910390f35b600181565b6000600960008473ffffffffffffffffffffffffffffffffffffffff1673ffffffffffffffffffffffffffffffffffffffff16815260200190815260200160002060000160009054906101000a900460ff16611040576040517f08c379a0000000000000000000000000000000000000000000000000000000008152600401611037906183d5565b60405180910390fd5b600a60009054906101000a900473ffffffffffffffffffffffffffffffffffffffff1673ffffffffffffffffffffffffffffffffffffffff163373ffffffffffffffffffffffffffffffffffffffff1614806110e7575060008054906101000a900473ffffffffffffffffffffffffffffffffffffffff1673ffffffffffffffffffffffffffffffffffffffff163373ffffffffffffffffffffffffffffffffffffffff16145b611126576040517f08c379a000000000000000000000000000000000000000000000000000000000815260040161111d90618467565b60405180910390fd5b60008054906101000a900473ffffffffffffffffffffffffffffffffffffffff1673ffffffffffffffffffffffffffffffffffffffff163373ffffffffffffffffffffffffffffffffffffffff161480611184575060011515821515145b6111c3576040517f08c379a00000000000000000000000000000000000000000000000000000000081526004016111ba906184d3565b60405180910390fd5b81600c60008573ffffffffffffffffffffffffffffffffffffffff1673ffffffffffffffffffffffffffffffffffffffff16815260200190815260200160002060006101000a81548160ff0219169083151502179055507f71aec636243f9709bb0007ae15e9afb8150ab01716d75fd7573be5cc096e03b0838360405161124b92919061853f565b60405180910390a181905092915050565b6000600167ffffffffffffffff81111561127957611278617565565b5b6040519080825280602002602001820160405280156112a75781602001602082028036833780820191505090505b50905082816000815181106112bf576112be61857b565b5b602002602001019073ffffffffffffffffffffffffffffffffffffffff16908173ffffffffffffffffffffffffffffffffffffffff16815250506113068183600180612a7b565b505050565b8073ffffffffffffffffffffffffffffffffffffffff1663f851a4406040518163ffffffff1660e01b8152600401602060405180830381865afa158015611356573d6000803e3d6000fd5b505050506040513d601f19601f8201168201806040525081019061137a91906185bf565b73ffffffffffffffffffffffffffffffffffffffff163373ffffffffffffffffffffffffffffffffffffffff16146113e7576040517f08c379a00000000000000000000000000000000000000000000000000000000081526004016113de9061865e565b60405180910390fd5b60008173ffffffffffffffffffffffffffffffffffffffff1663c1e803346040518163ffffffff1660e01b81526004016020604051808303816000875af1158015611436573d6000803e3d6000fd5b505050506040513d601f19601f8201168201806040525081019061145a9190618693565b1461149a576040517f08c379a00000000000000000000000000000000000000000000000000000000081526004016114919061870c565b60405180910390fd5b50565b600f6020528060005260406000206000915090505481565b6000156114c6576007546007819055505b5050505050565b601560009054906101000a900473ffffffffffffffffffffffffffffffffffffffff1681565b6000600960008673ffffffffffffffffffffffffffffffffffffffff1673ffffffffffffffffffffffffffffffffffffffff16815260200190815260200160002060000160009054906101000a900460ff16611564576009601181111561155d5761155c61872c565b5b9050611612565b600060405180602001604052808773ffffffffffffffffffffffffffffffffffffffff1663aa5af0fd6040518163ffffffff1660e01b8152600401602060405180830381865afa1580156115bc573d6000803e3d6000fd5b505050506040513d601f19601f820116820180604052508101906115e09190618693565b81525090506115ef8682614e47565b6115fa868583615228565b6000601181111561160e5761160d61872c565b5b9150505b949350505050565b600a60009054906101000a900473ffffffffffffffffffffffffffffffffffffffff1681565b600160009054906101000a900473ffffffffffffffffffffffffffffffffffffffff1681565b61166e615595565b6116ad576040517f08c379a00000000000000000000000000000000000000000000000000000000081526004016116a4906187a7565b60405180910390fd5b60006116b98383615644565b9050600081146116fe576040517f08c379a00000000000000000000000000000000000000000000000000000000081526004016116f590618813565b60405180910390fd5b7f98b2f82a3a07f223a0be64b3d0f47711c64dccd1feafb94aa28156b38cd9695c838360405161172f929190618833565b60405180910390a1505050565b6000600a60009054906101000a900473ffffffffffffffffffffffffffffffffffffffff1673ffffffffffffffffffffffffffffffffffffffff163373ffffffffffffffffffffffffffffffffffffffff1614806117e5575060008054906101000a900473ffffffffffffffffffffffffffffffffffffffff1673ffffffffffffffffffffffffffffffffffffffff163373ffffffffffffffffffffffffffffffffffffffff16145b611824576040517f08c379a000000000000000000000000000000000000000000000000000000000815260040161181b90618467565b60405180910390fd5b60008054906101000a900473ffffffffffffffffffffffffffffffffffffffff1673ffffffffffffffffffffffffffffffffffffffff163373ffffffffffffffffffffffffffffffffffffffff161480611882575060011515821515145b6118c1576040517f08c379a00000000000000000000000000000000000000000000000000000000081526004016118b8906184d3565b60405180910390fd5b81600a60176101000a81548160ff0219169083151502179055507fef159d9a32b2472e32b098f954f3ce62d232939f1c207070b584df1814de2de08260405161190a91906188a8565b60405180910390a1819050919050565b60008060009054906101000a900473ffffffffffffffffffffffffffffffffffffffff1673ffffffffffffffffffffffffffffffffffffffff163373ffffffffffffffffffffffffffffffffffffffff16146119ab576040517f08c379a00000000000000000000000000000000000000000000000000000000081526004016119a290618922565b60405180910390fd5b60006005549050826005819055507f3b9670cf975d26958e754b57098eaa2ac914d8d2a31b83257997b9f346110fd9816005546040516119ec929190618329565b60405180910390a160006011811115611a0857611a0761872c565b5b915050919050565b60008054906101000a900473ffffffffffffffffffffffffffffffffffffffff1673ffffffffffffffffffffffffffffffffffffffff163373ffffffffffffffffffffffffffffffffffffffff1614611a9e576040517f08c379a0000000000000000000000000000000000000000000000000000000008152600401611a95906189b4565b60405180910390fd5b6000601560009054906101000a900473ffffffffffffffffffffffffffffffffffffffff16905081601560006101000a81548173ffffffffffffffffffffffffffffffffffffffff021916908373ffffffffffffffffffffffffffffffffffffffff1602179055507feda98690e518e9a05f8ec6837663e188211b2da8f4906648b323f2c1d4434e298183604051611b379291906189d4565b60405180910390a15050565b6000600960008473ffffffffffffffffffffffffffffffffffffffff1673ffffffffffffffffffffffffffffffffffffffff16815260200190815260200160002060000160009054906101000a900460ff16611bd4576040517f08c379a0000000000000000000000000000000000000000000000000000000008152600401611bcb906183d5565b60405180910390fd5b600a60009054906101000a900473ffffffffffffffffffffffffffffffffffffffff1673ffffffffffffffffffffffffffffffffffffffff163373ffffffffffffffffffffffffffffffffffffffff161480611c7b575060008054906101000a900473ffffffffffffffffffffffffffffffffffffffff1673ffffffffffffffffffffffffffffffffffffffff163373ffffffffffffffffffffffffffffffffffffffff16145b611cba576040517f08c379a0000000000000000000000000000000000000000000000000000000008152600401611cb190618467565b60405180910390fd5b60008054906101000a900473ffffffffffffffffffffffffffffffffffffffff1673ffffffffffffffffffffffffffffffffffffffff163373ffffffffffffffffffffffffffffffffffffffff161480611d18575060011515821515145b611d57576040517f08c379a0000000000000000000000000000000000000000000000000000000008152600401611d4e906184d3565b60405180910390fd5b81600b60008573ffffffffffffffffffffffffffffffffffffffff1673ffffffffffffffffffffffffffffffffffffffff16815260200190815260200160002060006101000a81548160ff0219169083151502179055507f71aec636243f9709bb0007ae15e9afb8150ab01716d75fd7573be5cc096e03b08383604051611ddf929190618a49565b60405180910390a181905092915050565b600a60149054906101000a900460ff1681565b600015611e14576007546007819055505b50505050565b600043905090565b611e2a615595565b611e69576040517f08c379a0000000000000000000000000000000000000000000000000000000008152600401611e6090618ad1565b60405180910390fd5b611e73828261577a565b5050565b600015611e88576007546007819055505b505050505050565b60166020528060005260406000206000915090505481565b60065481565b600080600080600080611ec38a8a8a8a615e2b565b925092509250826011811115611edc57611edb61872c565b5b82829550955095505050509450945094915050565b6000600b60008573ffffffffffffffffffffffffffffffffffffffff1673ffffffffffffffffffffffffffffffffffffffff16815260200190815260200160002060009054906101000a900460ff1615611f80576040517f08c379a0000000000000000000000000000000000000000000000000000000008152600401611f7790618b3d565b60405180910390fd5b600960008573ffffffffffffffffffffffffffffffffffffffff1673ffffffffffffffffffffffffffffffffffffffff16815260200190815260200160002060000160009054906101000a900460ff16611fef5760096011811115611fe857611fe761872c565b5b9050612019565b611ff884616289565b6120028484616660565b600060118111156120165761201561872c565b5b90505b9392505050565b60008060009054906101000a900473ffffffffffffffffffffffffffffffffffffffff1673ffffffffffffffffffffffffffffffffffffffff163373ffffffffffffffffffffffffffffffffffffffff1614612089576120826001600b616a0a565b90506120e8565b60006006549050826006819055507faeba5a6c40a8ac138134bff1aaa65debf25971188a58804bad717f82f0ec131681846040516120c8929190618329565b60405180910390a1600060118111156120e4576120e361872c565b5b9150505b919050565b6000811480156120fd5750600082115b1561213d576040517f08c379a000000000000000000000000000000000000000000000000000000000815260040161213490618ba9565b60405180910390fd5b50505050565b600d818154811061215357600080fd5b906000526020600020016000915054906101000a900473ffffffffffffffffffffffffffffffffffffffff1681565b60008060009054906101000a900473ffffffffffffffffffffffffffffffffffffffff1673ffffffffffffffffffffffffffffffffffffffff163373ffffffffffffffffffffffffffffffffffffffff16146121eb576121e460016010616a0a565b90506122a4565b6000600460009054906101000a900473ffffffffffffffffffffffffffffffffffffffff16905082600460006101000a81548173ffffffffffffffffffffffffffffffffffffffff021916908373ffffffffffffffffffffffffffffffffffffffff1602179055507fd52b2b9b7e9ee655fcb95d2e5b9e0c9f69e7ef2b8e9d2d0ea78402d576d22e228184604051612284929190618bc9565b60405180910390a1600060118111156122a05761229f61872c565b5b9150505b919050565b6122b1615595565b6122f0576040517f08c379a00000000000000000000000000000000000000000000000000000000081526004016122e790618ad1565b60405180910390fd5b6122f982612f09565b600081141561234a57601860008373ffffffffffffffffffffffffffffffffffffffff1673ffffffffffffffffffffffffffffffffffffffff16815260200190815260200160002060009055612396565b612352611e1a565b601860008473ffffffffffffffffffffffffffffffffffffffff1673ffffffffffffffffffffffffffffffffffffffff168152602001908152602001600020819055505b80601760008473ffffffffffffffffffffffffffffffffffffffff1673ffffffffffffffffffffffffffffffffffffffff168152602001908152602001600020819055508173ffffffffffffffffffffffffffffffffffffffff167f386537fa92edc3319af95f1f904dcf1900021e4f3f4e08169a577a09076e66b38260405161242091906177c7565b60405180910390a25050565b60001561243d576007546007819055505b505050565b600080600080600080612459876000806000615e2b565b9250925092508260118111156124725761247161872c565b5b82829550955095505050509193909250565b60008060009054906101000a900473ffffffffffffffffffffffffffffffffffffffff1673ffffffffffffffffffffffffffffffffffffffff163373ffffffffffffffffffffffffffffffffffffffff16146124ed576124e660016013616a0a565b90506125c8565b6000600a60009054906101000a900473ffffffffffffffffffffffffffffffffffffffff16905082600a60006101000a81548173ffffffffffffffffffffffffffffffffffffffff021916908373ffffffffffffffffffffffffffffffffffffffff1602179055507f0613b6ee6a04f0d09f390e4d9318894b9f6ac7fd83897cd8d18896ba579c401e81600a60009054906101000a900473ffffffffffffffffffffffffffffffffffffffff166040516125a89291906189d4565b60405180910390a1600060118111156125c4576125c361872c565b5b9150505b919050565b6000600960008773ffffffffffffffffffffffffffffffffffffffff1673ffffffffffffffffffffffffffffffffffffffff16815260200190815260200160002060000160009054906101000a900460ff1615806126785750600960008673ffffffffffffffffffffffffffffffffffffffff1673ffffffffffffffffffffffffffffffffffffffff16815260200190815260200160002060000160009054906101000a900460ff16155b1561269857600960118111156126915761269061872c565b5b90506127f4565b6000806126a485616a87565b9250509150600060118111156126bd576126bc61872c565b5b8260118111156126d0576126cf61872c565b5b146126f1578160118111156126e8576126e761872c565b5b925050506127f4565b6000811415612717576003601181111561270e5761270d61872c565b5b925050506127f4565b60008873ffffffffffffffffffffffffffffffffffffffff166395dd9193876040518263ffffffff1660e01b81526004016127529190617898565b602060405180830381865afa15801561276f573d6000803e3d6000fd5b505050506040513d601f19601f820116820180604052508101906127939190618693565b905060006127b1604051806020016040528060055481525083616aa7565b9050808611156127d9576011808111156127ce576127cd61872c565b5b9450505050506127f4565b600060118111156127ed576127ec61872c565b5b9450505050505b95945050505050565b60008054906101000a900473ffffffffffffffffffffffffffffffffffffffff1673ffffffffffffffffffffffffffffffffffffffff163373ffffffffffffffffffffffffffffffffffffffff1614806128a45750601560009054906101000a900473ffffffffffffffffffffffffffffffffffffffff1673ffffffffffffffffffffffffffffffffffffffff163373ffffffffffffffffffffffffffffffffffffffff16145b6128e3576040517f08c379a00000000000000000000000000000000000000000000000000000000081526004016128da90618c64565b60405180910390fd5b600084849050905060008383905090506000821415801561290357508082145b612942576040517f08c379a000000000000000000000000000000000000000000000000000000000815260040161293990618cd0565b60405180910390fd5b60005b82811015612a72578484828181106129605761295f61857b565b5b905060200201356016600089898581811061297e5761297d61857b565b5b90506020020160208101906129939190618098565b73ffffffffffffffffffffffffffffffffffffffff1673ffffffffffffffffffffffffffffffffffffffff168152602001908152602001600020819055508686828181106129e4576129e361857b565b5b90506020020160208101906129f99190618098565b73ffffffffffffffffffffffffffffffffffffffff167f6f1951b2aad10f3fc81b86d91105b413a5b3f847a34bbc5ce1904201b14438f6868684818110612a4357612a4261857b565b5b90506020020135604051612a5791906177c7565b60405180910390a28080612a6a90618d1f565b915050612945565b50505050505050565b60005b8351811015612e37576000848281518110612a9c57612a9b61857b565b5b60200260200101519050600960008273ffffffffffffffffffffffffffffffffffffffff1673ffffffffffffffffffffffffffffffffffffffff16815260200190815260200160002060000160009054906101000a900460ff16612b35576040517f08c379a0000000000000000000000000000000000000000000000000000000008152600401612b2c90618db4565b60405180910390fd5b600115158415151415612cee57600060405180602001604052808373ffffffffffffffffffffffffffffffffffffffff1663aa5af0fd6040518163ffffffff1660e01b8152600401602060405180830381865afa158015612b9a573d6000803e3d6000fd5b505050506040513d601f19601f82011682018060405250810190612bbe9190618693565b8152509050612bcd8282614e47565b60005b8751811015612ceb57612bfe83898381518110612bf057612bef61857b565b5b602002602001015184615228565b612c7b888281518110612c1457612c1361857b565b5b6020026020010151601460008b8581518110612c3357612c3261857b565b5b602002602001015173ffffffffffffffffffffffffffffffffffffffff1673ffffffffffffffffffffffffffffffffffffffff16815260200190815260200160002054615644565b601460008a8481518110612c9257612c9161857b565b5b602002602001015173ffffffffffffffffffffffffffffffffffffffff1673ffffffffffffffffffffffffffffffffffffffff168152602001908152602001600020819055508080612ce390618d1f565b915050612bd0565b50505b600115158315151415612e2357612d0481616289565b60005b8651811015612e2157612d3482888381518110612d2757612d2661857b565b5b6020026020010151616660565b612db1878281518110612d4a57612d4961857b565b5b6020026020010151601460008a8581518110612d6957612d6861857b565b5b602002602001015173ffffffffffffffffffffffffffffffffffffffff1673ffffffffffffffffffffffffffffffffffffffff16815260200190815260200160002054615644565b60146000898481518110612dc857612dc761857b565b5b602002602001015173ffffffffffffffffffffffffffffffffffffffff1673ffffffffffffffffffffffffffffffffffffffff168152602001908152602001600020819055508080612e1990618d1f565b915050612d07565b505b508080612e2f90618d1f565b915050612a7e565b5050505050565b600015612e4f576007546007819055505b50505050565b60106020528060005260406000206000915090508060000160009054906101000a90047bffffffffffffffffffffffffffffffffffffffffffffffffffffffff169080600001601c9054906101000a900463ffffffff16905082565b600c6020528060005260406000206000915054906101000a900460ff1681565b600015612ee2576007546007819055505b5050505050565b600b6020528060005260406000206000915054906101000a900460ff1681565b6000601760008373ffffffffffffffffffffffffffffffffffffffff1673ffffffffffffffffffffffffffffffffffffffff1681526020019081526020016000205490506000612f57611e1a565b90506000612fa482601860008773ffffffffffffffffffffffffffffffffffffffff1673ffffffffffffffffffffffffffffffffffffffff16815260200190815260200160002054616ac8565b9050600081118015612fb65750600083115b156130a1576000612fc78285616ade565b90506000613014601460008873ffffffffffffffffffffffffffffffffffffffff1673ffffffffffffffffffffffffffffffffffffffff1681526020019081526020016000205483616af4565b905080601460008873ffffffffffffffffffffffffffffffffffffffff1673ffffffffffffffffffffffffffffffffffffffff1681526020019081526020016000208190555083601860008873ffffffffffffffffffffffffffffffffffffffff1673ffffffffffffffffffffffffffffffffffffffff1681526020019081526020016000208190555050505b50505050565b600460009054906101000a900473ffffffffffffffffffffffffffffffffffffffff1681565b600a60169054906101000a900460ff1681565b60116020528060005260406000206000915090508060000160009054906101000a90047bffffffffffffffffffffffffffffffffffffffffffffffffffffffff169080600001601c9054906101000a900463ffffffff16905082565b60096020528060005260406000206000915090508060000160009054906101000a900460ff16908060010154908060030160009054906101000a900460ff16905083565b6000600a60009054906101000a900473ffffffffffffffffffffffffffffffffffffffff1673ffffffffffffffffffffffffffffffffffffffff163373ffffffffffffffffffffffffffffffffffffffff161480613229575060008054906101000a900473ffffffffffffffffffffffffffffffffffffffff1673ffffffffffffffffffffffffffffffffffffffff163373ffffffffffffffffffffffffffffffffffffffff16145b613268576040517f08c379a000000000000000000000000000000000000000000000000000000000815260040161325f90618467565b60405180910390fd5b60008054906101000a900473ffffffffffffffffffffffffffffffffffffffff1673ffffffffffffffffffffffffffffffffffffffff163373ffffffffffffffffffffffffffffffffffffffff1614806132c6575060011515821515145b613305576040517f08c379a00000000000000000000000000000000000000000000000000000000081526004016132fc906184d3565b60405180910390fd5b81600a60166101000a81548160ff0219169083151502179055507fef159d9a32b2472e32b098f954f3ce62d232939f1c207070b584df1814de2de08260405161334e9190618e20565b60405180910390a1819050919050565b6000600960008373ffffffffffffffffffffffffffffffffffffffff1673ffffffffffffffffffffffffffffffffffffffff16815260200190815260200160002060020160008473ffffffffffffffffffffffffffffffffffffffff1673ffffffffffffffffffffffffffffffffffffffff16815260200190815260200160002060009054906101000a900460ff16905092915050565b60075481565b60176020528060005260406000206000915090505481565b600073c00e94cb662c3520282e6f5717214004a7f26888905090565b60008060009054906101000a900473ffffffffffffffffffffffffffffffffffffffff1673ffffffffffffffffffffffffffffffffffffffff163373ffffffffffffffffffffffffffffffffffffffff16146134985761349160016012616a0a565b905061364f565b600960008373ffffffffffffffffffffffffffffffffffffffff1673ffffffffffffffffffffffffffffffffffffffff16815260200190815260200160002060000160009054906101000a900460ff1615613500576134f9600a6011616a0a565b905061364f565b8173ffffffffffffffffffffffffffffffffffffffff1663fe9c44ae6040518163ffffffff1660e01b8152600401602060405180830381865afa15801561354b573d6000803e3d6000fd5b505050506040513d601f19601f8201168201806040525081019061356f9190618e63565b506000600960008473ffffffffffffffffffffffffffffffffffffffff1673ffffffffffffffffffffffffffffffffffffffff168152602001908152602001600020905060018160000160006101000a81548160ff02191690831515021790555060008160030160006101000a81548160ff0219169083151502179055506000816001018190555061360083616b0a565b7fcf583bb0c569eb967f806b11601c4cb93c10310485c67add5f8362c2f212321f8360405161362f9190617bd1565b60405180910390a16000601181111561364b5761364a61872c565b5b9150505b919050565b6ec097ce7bc90715b34b9f100000000081565b600e5481565b60606000600860008473ffffffffffffffffffffffffffffffffffffffff1673ffffffffffffffffffffffffffffffffffffffff16815260200190815260200160002080548060200260200160405190810160405280929190818152602001828054801561373057602002820191906000526020600020905b8160009054906101000a900473ffffffffffffffffffffffffffffffffffffffff1673ffffffffffffffffffffffffffffffffffffffff16815260200190600101908083116136e6575b5050505050905080915050919050565b600a60179054906101000a900460ff1681565b6060600d8054806020026020016040519081016040528092919081815260200182805480156137d757602002820191906000526020600020905b8160009054906101000a900473ffffffffffffffffffffffffffffffffffffffff1673ffffffffffffffffffffffffffffffffffffffff168152602001906001019080831161378d575b5050505050905090565b6012602052816000526040600020602052806000526040600020600091509150505481565b600260009054906101000a900473ffffffffffffffffffffffffffffffffffffffff1681565b6000600a60169054906101000a900460ff161561387e576040517f08c379a000000000000000000000000000000000000000000000000000000000815260040161387590618edc565b60405180910390fd5b600061388b868685616c41565b9050600060118111156138a1576138a061872c565b5b81146138b057809150506138e5565b6138b986616289565b6138c38686616660565b6138cd8685616660565b600060118111156138e1576138e061872c565b5b9150505b949350505050565b60186020528060005260406000206000915090505481565b606060008251905060008167ffffffffffffffff81111561392957613928617565565b5b6040519080825280602002602001820160405280156139575781602001602082028036833780820191505090505b50905060005b828110156139d357600085828151811061397a5761397961857b565b5b6020026020010151905061398e8133616e01565b60118111156139a05761399f61872c565b5b8383815181106139b3576139b261857b565b5b6020026020010181815250505080806139cb90618d1f565b91505061395d565b508092505050919050565b6000806000600460009054906101000a900473ffffffffffffffffffffffffffffffffffffffff1673ffffffffffffffffffffffffffffffffffffffff1663fc57d4df876040518263ffffffff1660e01b8152600401613a3e9190617bd1565b602060405180830381865afa158015613a5b573d6000803e3d6000fd5b505050506040513d601f19601f82011682018060405250810190613a7f9190618693565b90506000600460009054906101000a900473ffffffffffffffffffffffffffffffffffffffff1673ffffffffffffffffffffffffffffffffffffffff1663fc57d4df876040518263ffffffff1660e01b8152600401613ade9190617bd1565b602060405180830381865afa158015613afb573d6000803e3d6000fd5b505050506040513d601f19601f82011682018060405250810190613b1f9190618693565b90506000821480613b305750600081145b15613b5657600d6011811115613b4957613b4861872c565b5b6000935093505050613c6e565b60008673ffffffffffffffffffffffffffffffffffffffff1663182df0f56040518163ffffffff1660e01b8152600401602060405180830381865afa158015613ba3573d6000803e3d6000fd5b505050506040513d601f19601f82011682018060405250810190613bc79190618693565b90506000613bd361736c565b613bdb61736c565b613be361736c565b613c0b604051806020016040528060065481525060405180602001604052808a815250617009565b9250613c33604051806020016040528088815250604051806020016040528088815250617009565b9150613c3f838361704c565b9050613c4b818b616aa7565b935060006011811115613c6157613c6061872c565b5b8498509850505050505050505b935093915050565b6013602052816000526040600020602052806000526040600020600091509150505481565b60146020528060005260406000206000915090505481565b6000600a60179054906101000a900460ff1615613d05576040517f08c379a0000000000000000000000000000000000000000000000000000000008152600401613cfc90618f48565b60405180910390fd5b600960008773ffffffffffffffffffffffffffffffffffffffff1673ffffffffffffffffffffffffffffffffffffffff16815260200190815260200160002060000160009054906101000a900460ff161580613dae5750600960008673ffffffffffffffffffffffffffffffffffffffff1673ffffffffffffffffffffffffffffffffffffffff16815260200190815260200160002060000160009054906101000a900460ff16155b15613dce5760096011811115613dc757613dc661872c565b5b9050613f2c565b8473ffffffffffffffffffffffffffffffffffffffff16635fe3b5676040518163ffffffff1660e01b8152600401602060405180830381865afa158015613e19573d6000803e3d6000fd5b505050506040513d601f19601f82011682018060405250810190613e3d9190618fa6565b73ffffffffffffffffffffffffffffffffffffffff168673ffffffffffffffffffffffffffffffffffffffff16635fe3b5676040518163ffffffff1660e01b8152600401602060405180830381865afa158015613e9e573d6000803e3d6000fd5b505050506040513d601f19601f82011682018060405250810190613ec29190618fa6565b73ffffffffffffffffffffffffffffffffffffffff1614613ef85760026011811115613ef157613ef061872c565b5b9050613f2c565b613f0186616289565b613f0b8684616660565b613f158685616660565b60006011811115613f2957613f2861872c565b5b90505b95945050505050565b6000600c60008573ffffffffffffffffffffffffffffffffffffffff1673ffffffffffffffffffffffffffffffffffffffff16815260200190815260200160002060009054906101000a900460ff1615613fc4576040517f08c379a0000000000000000000000000000000000000000000000000000000008152600401613fbb9061901f565b60405180910390fd5b600960008573ffffffffffffffffffffffffffffffffffffffff1673ffffffffffffffffffffffffffffffffffffffff16815260200190815260200160002060000160009054906101000a900460ff16614033576009601181111561402c5761402b61872c565b5b905061452a565b600960008573ffffffffffffffffffffffffffffffffffffffff1673ffffffffffffffffffffffffffffffffffffffff16815260200190815260200160002060020160008473ffffffffffffffffffffffffffffffffffffffff1673ffffffffffffffffffffffffffffffffffffffff16815260200190815260200160002060009054906101000a900460ff16614223578373ffffffffffffffffffffffffffffffffffffffff163373ffffffffffffffffffffffffffffffffffffffff1614614132576040517f08c379a00000000000000000000000000000000000000000000000000000000081526004016141299061908b565b60405180910390fd5b600061413e3385616e01565b9050600060118111156141545761415361872c565b5b8160118111156141675761416661872c565b5b146141875780601181111561417f5761417e61872c565b5b91505061452a565b600960008673ffffffffffffffffffffffffffffffffffffffff1673ffffffffffffffffffffffffffffffffffffffff16815260200190815260200160002060020160008573ffffffffffffffffffffffffffffffffffffffff1673ffffffffffffffffffffffffffffffffffffffff16815260200190815260200160002060009054906101000a900460ff16614221576142206190ab565b5b505b6000600460009054906101000a900473ffffffffffffffffffffffffffffffffffffffff1673ffffffffffffffffffffffffffffffffffffffff1663fc57d4df866040518263ffffffff1660e01b81526004016142809190617bd1565b602060405180830381865afa15801561429d573d6000803e3d6000fd5b505050506040513d601f19601f820116820180604052508101906142c19190618693565b14156142e257600d60118111156142db576142da61872c565b5b905061452a565b6000601660008673ffffffffffffffffffffffffffffffffffffffff1673ffffffffffffffffffffffffffffffffffffffff168152602001908152602001600020549050600081146143f45760008573ffffffffffffffffffffffffffffffffffffffff166347bd37186040518163ffffffff1660e01b8152600401602060405180830381865afa15801561437b573d6000803e3d6000fd5b505050506040513d601f19601f8201168201806040525081019061439f9190618693565b905060006143ad8286616af4565b90508281106143f1576040517f08c379a00000000000000000000000000000000000000000000000000000000081526004016143e890619126565b60405180910390fd5b50505b6000806144048688600088615e2b565b92505091506000601181111561441d5761441c61872c565b5b8260118111156144305761442f61872c565b5b14614452578160118111156144485761444761872c565b5b935050505061452a565b6000811115614479576004601181111561446f5761446e61872c565b5b935050505061452a565b600060405180602001604052808973ffffffffffffffffffffffffffffffffffffffff1663aa5af0fd6040518163ffffffff1660e01b8152600401602060405180830381865afa1580156144d1573d6000803e3d6000fd5b505050506040513d601f19601f820116820180604052508101906144f59190618693565b81525090506145048882614e47565b61450f888883615228565b600060118111156145235761452261872c565b5b9450505050505b9392505050565b6008602052816000526040600020818154811061454d57600080fd5b906000526020600020016000915091509054906101000a900473ffffffffffffffffffffffffffffffffffffffff1681565b600360009054906101000a900473ffffffffffffffffffffffffffffffffffffffff1681565b60008060009054906101000a900473ffffffffffffffffffffffffffffffffffffffff1673ffffffffffffffffffffffffffffffffffffffff163373ffffffffffffffffffffffffffffffffffffffff161461460e5761460760016006616a0a565b90506147fd565b6000600960008573ffffffffffffffffffffffffffffffffffffffff1673ffffffffffffffffffffffffffffffffffffffff16815260200190815260200160002090508060000160009054906101000a900460ff1661467b5761467360096007616a0a565b9150506147fd565b6000604051806020016040528085815250905060006040518060200160405280670c7d713b49da000081525090506146b3818361708d565b156146ce576146c460066008616a0a565b93505050506147fd565b6000851415801561477a57506000600460009054906101000a900473ffffffffffffffffffffffffffffffffffffffff1673ffffffffffffffffffffffffffffffffffffffff1663fc57d4df886040518263ffffffff1660e01b81526004016147379190617bd1565b602060405180830381865afa158015614754573d6000803e3d6000fd5b505050506040513d601f19601f820116820180604052508101906147789190618693565b145b156147955761478b600d6009616a0a565b93505050506147fd565b6000836001015490508584600101819055507f70483e6592cd5182d45ac970e05bc62cdcc90e9d8ef2c2dbe686cf383bcd7fc58782886040516147da93929190619146565b60405180910390a1600060118111156147f6576147f561872c565b5b9450505050505b92915050565b600a60159054906101000a900460ff1681565b60055481565b6148ac81600d8054806020026020016040519081016040528092919081815260200182805480156148a257602002820191906000526020600020905b8160009054906101000a900473ffffffffffffffffffffffffffffffffffffffff1673ffffffffffffffffffffffffffffffffffffffff1681526020019060010190808311614858575b505050505061125c565b50565b6000806148bd858585616c41565b9050600060118111156148d3576148d261872c565b5b81146148e2578091505061490d565b6148eb85616289565b6148f58585616660565b600060118111156149095761490861872c565b5b9150505b9392505050565b60008082905060008060008373ffffffffffffffffffffffffffffffffffffffff1663c37f68e2336040518263ffffffff1660e01b81526004016149589190617898565b608060405180830381865afa158015614975573d6000803e3d6000fd5b505050506040513d601f19601f82011682018060405250810190614999919061917d565b50925092509250600083146149e3576040517f08c379a00000000000000000000000000000000000000000000000000000000081526004016149da90619256565b60405180910390fd5b60008114614a02576149f7600c6002616a0a565b945050505050614e1e565b6000614a0f873385616c41565b905060008114614a3257614a26600e6003836170a2565b95505050505050614e1e565b6000600960008773ffffffffffffffffffffffffffffffffffffffff1673ffffffffffffffffffffffffffffffffffffffff16815260200190815260200160002090508060020160003373ffffffffffffffffffffffffffffffffffffffff1673ffffffffffffffffffffffffffffffffffffffff16815260200190815260200160002060009054906101000a900460ff16614ae95760006011811115614adc57614adb61872c565b5b9650505050505050614e1e565b8060020160003373ffffffffffffffffffffffffffffffffffffffff1673ffffffffffffffffffffffffffffffffffffffff16815260200190815260200160002060006101000a81549060ff02191690556000600860003373ffffffffffffffffffffffffffffffffffffffff1673ffffffffffffffffffffffffffffffffffffffff168152602001908152602001600020805480602002602001604051908101604052809291908181526020018280548015614bfb57602002820191906000526020600020905b8160009054906101000a900473ffffffffffffffffffffffffffffffffffffffff1673ffffffffffffffffffffffffffffffffffffffff1681526020019060010190808311614bb1575b50505050509050600081519050600081905060005b82811015614c81578973ffffffffffffffffffffffffffffffffffffffff16848281518110614c4257614c4161857b565b5b602002602001015173ffffffffffffffffffffffffffffffffffffffff161415614c6e57809150614c81565b8080614c7990618d1f565b915050614c10565b50818110614c9257614c916190ab565b5b6000600860003373ffffffffffffffffffffffffffffffffffffffff1673ffffffffffffffffffffffffffffffffffffffff16815260200190815260200160002090508060018280549050614ce79190619276565b81548110614cf857614cf761857b565b5b9060005260206000200160009054906101000a900473ffffffffffffffffffffffffffffffffffffffff16818381548110614d3657614d3561857b565b5b9060005260206000200160006101000a81548173ffffffffffffffffffffffffffffffffffffffff021916908373ffffffffffffffffffffffffffffffffffffffff16021790555080805480614d8f57614d8e6192aa565b5b6001900381819060005260206000200160006101000a81549073ffffffffffffffffffffffffffffffffffffffff021916905590557fe699a64c18b07ac5b7301aa273f36a2287239eb9501d81950672794afba29a0d8a33604051614df59291906192d9565b60405180910390a160006011811115614e1157614e1061872c565b5b9a50505050505050505050505b919050565b60008054906101000a900473ffffffffffffffffffffffffffffffffffffffff1681565b6000601160008473ffffffffffffffffffffffffffffffffffffffff1673ffffffffffffffffffffffffffffffffffffffff16815260200190815260200160002090506000600f60008573ffffffffffffffffffffffffffffffffffffffff1673ffffffffffffffffffffffffffffffffffffffff1681526020019081526020016000205490506000614ed8611e1a565b90506000614f008285600001601c9054906101000a900463ffffffff1663ffffffff16616ac8565b9050600081118015614f125750600083115b156151b4576000614f918773ffffffffffffffffffffffffffffffffffffffff166347bd37186040518163ffffffff1660e01b8152600401602060405180830381865afa158015614f67573d6000803e3d6000fd5b505050506040513d601f19601f82011682018060405250810190614f8b9190618693565b8761711f565b90506000614f9f8386616ade565b90506000808311614fbf5760405180602001604052806000815250614fca565b614fc98284617148565b5b9050600061503060405180602001604052808a60000160009054906101000a90047bffffffffffffffffffffffffffffffffffffffffffffffffffffffff167bffffffffffffffffffffffffffffffffffffffffffffffffffffffff1681525083617188565b9050604051806040016040528061508083600001516040518060400160405280601a81526020017f6e657720696e64657820657863656564732032323420626974730000000000008152506171b8565b7bffffffffffffffffffffffffffffffffffffffffffffffffffffffff1681526020016150e2886040518060400160405280601c81526020017f626c6f636b206e756d6265722065786365656473203332206269747300000000815250617226565b63ffffffff16815250601160008c73ffffffffffffffffffffffffffffffffffffffff1673ffffffffffffffffffffffffffffffffffffffff16815260200190815260200160002060008201518160000160006101000a8154817bffffffffffffffffffffffffffffffffffffffffffffffffffffffff02191690837bffffffffffffffffffffffffffffffffffffffffffffffffffffffff160217905550602082015181600001601c6101000a81548163ffffffff021916908363ffffffff16021790555090505050505050615220565b600081111561521f576151fc826040518060400160405280601c81526020017f626c6f636b206e756d6265722065786365656473203332206269747300000000815250617226565b84600001601c6101000a81548163ffffffff021916908363ffffffff1602179055505b5b505050505050565b6000601160008573ffffffffffffffffffffffffffffffffffffffff1673ffffffffffffffffffffffffffffffffffffffff1681526020019081526020016000209050600060405180602001604052808360000160009054906101000a90047bffffffffffffffffffffffffffffffffffffffffffffffffffffffff167bffffffffffffffffffffffffffffffffffffffffffffffffffffffff16815250905060006040518060200160405280601360008973ffffffffffffffffffffffffffffffffffffffff1673ffffffffffffffffffffffffffffffffffffffff16815260200190815260200160002060008873ffffffffffffffffffffffffffffffffffffffff1673ffffffffffffffffffffffffffffffffffffffff1681526020019081526020016000205481525090508160000151601360008873ffffffffffffffffffffffffffffffffffffffff1673ffffffffffffffffffffffffffffffffffffffff16815260200190815260200160002060008773ffffffffffffffffffffffffffffffffffffffff1673ffffffffffffffffffffffffffffffffffffffff1681526020019081526020016000208190555060008160000151111561558d5760006153f5838361727c565b9050600061547c8873ffffffffffffffffffffffffffffffffffffffff166395dd9193896040518263ffffffff1660e01b81526004016154359190617898565b602060405180830381865afa158015615452573d6000803e3d6000fd5b505050506040513d601f19601f820116820180604052508101906154769190618693565b8761711f565b9050600061548a82846172ac565b905060006154d7601460008b73ffffffffffffffffffffffffffffffffffffffff1673ffffffffffffffffffffffffffffffffffffffff1681526020019081526020016000205483616af4565b905080601460008b73ffffffffffffffffffffffffffffffffffffffff1673ffffffffffffffffffffffffffffffffffffffff168152602001908152602001600020819055508873ffffffffffffffffffffffffffffffffffffffff168a73ffffffffffffffffffffffffffffffffffffffff167f1fc3ecc087d8d2d15e23d0032af5a47059c3892d003d8e139fdcb6bb327c99a6848960000151604051615580929190618329565b60405180910390a3505050505b505050505050565b60008060009054906101000a900473ffffffffffffffffffffffffffffffffffffffff1673ffffffffffffffffffffffffffffffffffffffff163373ffffffffffffffffffffffffffffffffffffffff16148061563f5750600260009054906101000a900473ffffffffffffffffffffffffffffffffffffffff1673ffffffffffffffffffffffffffffffffffffffff163373ffffffffffffffffffffffffffffffffffffffff16145b905090565b60008061564f613413565b905060008173ffffffffffffffffffffffffffffffffffffffff166370a08231306040518263ffffffff1660e01b815260040161568c9190617898565b602060405180830381865afa1580156156a9573d6000803e3d6000fd5b505050506040513d601f19601f820116820180604052508101906156cd9190618693565b90506000841180156156df5750808411155b1561576e578173ffffffffffffffffffffffffffffffffffffffff1663a9059cbb86866040518363ffffffff1660e01b815260040161571f929190618833565b6020604051808303816000875af115801561573e573d6000803e3d6000fd5b505050506040513d601f19601f820116820180604052508101906157629190618e63565b50600092505050615774565b83925050505b92915050565b6000600f60008473ffffffffffffffffffffffffffffffffffffffff1673ffffffffffffffffffffffffffffffffffffffff1681526020019081526020016000205490506000811461586057600060405180602001604052808573ffffffffffffffffffffffffffffffffffffffff1663aa5af0fd6040518163ffffffff1660e01b8152600401602060405180830381865afa15801561581e573d6000803e3d6000fd5b505050506040513d601f19601f820116820180604052508101906158429190618693565b815250905061585084616289565b61585a8482614e47565b50615d8c565b60008214615d8b576000600960008573ffffffffffffffffffffffffffffffffffffffff1673ffffffffffffffffffffffffffffffffffffffff1681526020019081526020016000209050600115158160000160009054906101000a900460ff16151514615903576040517f08c379a00000000000000000000000000000000000000000000000000000000081526004016158fa9061934e565b60405180910390fd5b6000601060008673ffffffffffffffffffffffffffffffffffffffff1673ffffffffffffffffffffffffffffffffffffffff16815260200190815260200160002060000160009054906101000a90047bffffffffffffffffffffffffffffffffffffffffffffffffffffffff167bffffffffffffffffffffffffffffffffffffffffffffffffffffffff161480156159f357506000601060008673ffffffffffffffffffffffffffffffffffffffff1673ffffffffffffffffffffffffffffffffffffffff168152602001908152602001600020600001601c9054906101000a900463ffffffff1663ffffffff16145b15615b465760405180604001604052806ec097ce7bc90715b34b9f10000000007bffffffffffffffffffffffffffffffffffffffffffffffffffffffff168152602001615a7c615a41611e1a565b6040518060400160405280601c81526020017f626c6f636b206e756d6265722065786365656473203332206269747300000000815250617226565b63ffffffff16815250601060008673ffffffffffffffffffffffffffffffffffffffff1673ffffffffffffffffffffffffffffffffffffffff16815260200190815260200160002060008201518160000160006101000a8154817bffffffffffffffffffffffffffffffffffffffffffffffffffffffff02191690837bffffffffffffffffffffffffffffffffffffffffffffffffffffffff160217905550602082015181600001601c6101000a81548163ffffffff021916908363ffffffff1602179055509050505b6000601160008673ffffffffffffffffffffffffffffffffffffffff1673ffffffffffffffffffffffffffffffffffffffff16815260200190815260200160002060000160009054906101000a90047bffffffffffffffffffffffffffffffffffffffffffffffffffffffff167bffffffffffffffffffffffffffffffffffffffffffffffffffffffff16148015615c3657506000601160008673ffffffffffffffffffffffffffffffffffffffff1673ffffffffffffffffffffffffffffffffffffffff168152602001908152602001600020600001601c9054906101000a900463ffffffff1663ffffffff16145b15615d895760405180604001604052806ec097ce7bc90715b34b9f10000000007bffffffffffffffffffffffffffffffffffffffffffffffffffffffff168152602001615cbf615c84611e1a565b6040518060400160405280601c81526020017f626c6f636b206e756d6265722065786365656473203332206269747300000000815250617226565b63ffffffff16815250601160008673ffffffffffffffffffffffffffffffffffffffff1673ffffffffffffffffffffffffffffffffffffffff16815260200190815260200160002060008201518160000160006101000a8154817bffffffffffffffffffffffffffffffffffffffffffffffffffffffff02191690837bffffffffffffffffffffffffffffffffffffffffffffffffffffffff160217905550602082015181600001601c6101000a81548163ffffffff021916908363ffffffff1602179055509050505b505b5b818114615e265781600f60008573ffffffffffffffffffffffffffffffffffffffff1673ffffffffffffffffffffffffffffffffffffffff168152602001908152602001600020819055508273ffffffffffffffffffffffffffffffffffffffff167f2ab93f65628379309f36cb125e90d7c902454a545c4f8b8cb0794af75c24b80783604051615e1d91906177c7565b60405180910390a25b505050565b6000806000615e3861737f565b600080600860008b73ffffffffffffffffffffffffffffffffffffffff1673ffffffffffffffffffffffffffffffffffffffff168152602001908152602001600020805480602002602001604051908101604052809291908181526020018280548015615efa57602002820191906000526020600020905b8160009054906101000a900473ffffffffffffffffffffffffffffffffffffffff1673ffffffffffffffffffffffffffffffffffffffff1681526020019060010190808311615eb0575b5050505050905060005b8151811015616227576000828281518110615f2257615f2161857b565b5b602002602001015190508073ffffffffffffffffffffffffffffffffffffffff1663c37f68e28d6040518263ffffffff1660e01b8152600401615f659190617898565b608060405180830381865afa158015615f82573d6000803e3d6000fd5b505050506040513d601f19601f82011682018060405250810190615fa6919061917d565b88604001896060018a6080018381525083815250838152508397505050505060008414615fe257600f600080975097509750505050505061627f565b6040518060200160405280600960008473ffffffffffffffffffffffffffffffffffffffff1673ffffffffffffffffffffffffffffffffffffffff168152602001908152602001600020600101548152508560c00181905250604051806020016040528086608001518152508560e00181905250600460009054906101000a900473ffffffffffffffffffffffffffffffffffffffff1673ffffffffffffffffffffffffffffffffffffffff1663fc57d4df826040518263ffffffff1660e01b81526004016160b19190617bd1565b602060405180830381865afa1580156160ce573d6000803e3d6000fd5b505050506040513d601f19601f820116820180604052508101906160f29190618693565b8560a001818152505060008560a00151141561611d57600d600080975097509750505050505061627f565b60405180602001604052808660a0015181525085610100018190525061615961614e8660c001518760e00151617009565b866101000151617009565b85610120018190525061617a856101200151866040015187600001516172de565b85600001818152505061619b856101000151866060015187602001516172de565b8560200181815250508a73ffffffffffffffffffffffffffffffffffffffff168173ffffffffffffffffffffffffffffffffffffffff161415616213576161ec8561012001518b87602001516172de565b8560200181815250506162098561010001518a87602001516172de565b8560200181815250505b50808061621f90618d1f565b915050615f04565b5082602001518360000151111561625e5760008360200151846000015161624e9190619276565b600095509550955050505061627f565b600080846000015185602001516162759190619276565b9550955095505050505b9450945094915050565b6000601060008373ffffffffffffffffffffffffffffffffffffffff1673ffffffffffffffffffffffffffffffffffffffff16815260200190815260200160002090506000600f60008473ffffffffffffffffffffffffffffffffffffffff1673ffffffffffffffffffffffffffffffffffffffff168152602001908152602001600020549050600061631a611e1a565b905060006163428285600001601c9054906101000a900463ffffffff1663ffffffff16616ac8565b90506000811180156163545750600083115b156165ed5760008573ffffffffffffffffffffffffffffffffffffffff166318160ddd6040518163ffffffff1660e01b8152600401602060405180830381865afa1580156163a6573d6000803e3d6000fd5b505050506040513d601f19601f820116820180604052508101906163ca9190618693565b905060006163d88386616ade565b905060008083116163f85760405180602001604052806000815250616403565b6164028284617148565b5b9050600061646960405180602001604052808a60000160009054906101000a90047bffffffffffffffffffffffffffffffffffffffffffffffffffffffff167bffffffffffffffffffffffffffffffffffffffffffffffffffffffff1681525083617188565b905060405180604001604052806164b983600001516040518060400160405280601a81526020017f6e657720696e64657820657863656564732032323420626974730000000000008152506171b8565b7bffffffffffffffffffffffffffffffffffffffffffffffffffffffff16815260200161651b886040518060400160405280601c81526020017f626c6f636b206e756d6265722065786365656473203332206269747300000000815250617226565b63ffffffff16815250601060008b73ffffffffffffffffffffffffffffffffffffffff1673ffffffffffffffffffffffffffffffffffffffff16815260200190815260200160002060008201518160000160006101000a8154817bffffffffffffffffffffffffffffffffffffffffffffffffffffffff02191690837bffffffffffffffffffffffffffffffffffffffffffffffffffffffff160217905550602082015181600001601c6101000a81548163ffffffff021916908363ffffffff16021790555090505050505050616659565b600081111561665857616635826040518060400160405280601c81526020017f626c6f636b206e756d6265722065786365656473203332206269747300000000815250617226565b84600001601c6101000a81548163ffffffff021916908363ffffffff1602179055505b5b5050505050565b6000601060008473ffffffffffffffffffffffffffffffffffffffff1673ffffffffffffffffffffffffffffffffffffffff1681526020019081526020016000209050600060405180602001604052808360000160009054906101000a90047bffffffffffffffffffffffffffffffffffffffffffffffffffffffff167bffffffffffffffffffffffffffffffffffffffffffffffffffffffff16815250905060006040518060200160405280601260008873ffffffffffffffffffffffffffffffffffffffff1673ffffffffffffffffffffffffffffffffffffffff16815260200190815260200160002060008773ffffffffffffffffffffffffffffffffffffffff1673ffffffffffffffffffffffffffffffffffffffff1681526020019081526020016000205481525090508160000151601260008773ffffffffffffffffffffffffffffffffffffffff1673ffffffffffffffffffffffffffffffffffffffff16815260200190815260200160002060008673ffffffffffffffffffffffffffffffffffffffff1673ffffffffffffffffffffffffffffffffffffffff168152602001908152602001600020819055506000816000015114801561682c575060008260000151115b15616869576ec097ce7bc90715b34b9f10000000007bffffffffffffffffffffffffffffffffffffffffffffffffffffffff168160000181815250505b6000616875838361727c565b905060008673ffffffffffffffffffffffffffffffffffffffff166370a08231876040518263ffffffff1660e01b81526004016168b29190617898565b602060405180830381865afa1580156168cf573d6000803e3d6000fd5b505050506040513d601f19601f820116820180604052508101906168f39190618693565b9050600061690182846172ac565b9050600061694e601460008a73ffffffffffffffffffffffffffffffffffffffff1673ffffffffffffffffffffffffffffffffffffffff1681526020019081526020016000205483616af4565b905080601460008a73ffffffffffffffffffffffffffffffffffffffff1673ffffffffffffffffffffffffffffffffffffffff168152602001908152602001600020819055508773ffffffffffffffffffffffffffffffffffffffff168973ffffffffffffffffffffffffffffffffffffffff167f2caecd17d02f56fa897705dcc740da2d237c373f70686f4e0d9bd3bf0400ea7a8489600001516040516169f7929190618329565b60405180910390a3505050505050505050565b60007f45b96fe442630264581b197e84bbada861235052c5a1aadfff9ea4e40a969aa0836011811115616a4057616a3f61872c565b5b836013811115616a5357616a5261872c565b5b6000604051616a64939291906193a9565b60405180910390a1826011811115616a7f57616a7e61872c565b5b905092915050565b6000806000616a9a846000806000615e2b565b9250925092509193909250565b600080616ab48484617309565b9050616abf81617335565b91505092915050565b60008183616ad69190619276565b905092915050565b60008183616aec91906193e0565b905092915050565b60008183616b02919061943a565b905092915050565b60005b600d80549050811015616bda578173ffffffffffffffffffffffffffffffffffffffff16600d8281548110616b4557616b4461857b565b5b9060005260206000200160009054906101000a900473ffffffffffffffffffffffffffffffffffffffff1673ffffffffffffffffffffffffffffffffffffffff161415616bc7576040517f08c379a0000000000000000000000000000000000000000000000000000000008152600401616bbe906194dc565b60405180910390fd5b8080616bd290618d1f565b915050616b0d565b50600d819080600181540180825580915050600190039060005260206000200160009091909190916101000a81548173ffffffffffffffffffffffffffffffffffffffff021916908373ffffffffffffffffffffffffffffffffffffffff16021790555050565b6000600960008573ffffffffffffffffffffffffffffffffffffffff1673ffffffffffffffffffffffffffffffffffffffff16815260200190815260200160002060000160009054906101000a900460ff16616cb25760096011811115616cab57616caa61872c565b5b9050616dfa565b600960008573ffffffffffffffffffffffffffffffffffffffff1673ffffffffffffffffffffffffffffffffffffffff16815260200190815260200160002060020160008473ffffffffffffffffffffffffffffffffffffffff1673ffffffffffffffffffffffffffffffffffffffff16815260200190815260200160002060009054906101000a900460ff16616d5e5760006011811115616d5757616d5661872c565b5b9050616dfa565b600080616d6e8587866000615e2b565b925050915060006011811115616d8757616d8661872c565b5b826011811115616d9a57616d9961872c565b5b14616dbb57816011811115616db257616db161872c565b5b92505050616dfa565b6000811115616de15760046011811115616dd857616dd761872c565b5b92505050616dfa565b60006011811115616df557616df461872c565b5b925050505b9392505050565b600080600960008573ffffffffffffffffffffffffffffffffffffffff1673ffffffffffffffffffffffffffffffffffffffff16815260200190815260200160002090508060000160009054906101000a900460ff16616e65576009915050617003565b600115158160020160008573ffffffffffffffffffffffffffffffffffffffff1673ffffffffffffffffffffffffffffffffffffffff16815260200190815260200160002060009054906101000a900460ff1615151415616eca576000915050617003565b60018160020160008573ffffffffffffffffffffffffffffffffffffffff1673ffffffffffffffffffffffffffffffffffffffff16815260200190815260200160002060006101000a81548160ff021916908315150217905550600860008473ffffffffffffffffffffffffffffffffffffffff1673ffffffffffffffffffffffffffffffffffffffff168152602001908152602001600020849080600181540180825580915050600190039060005260206000200160009091909190916101000a81548173ffffffffffffffffffffffffffffffffffffffff021916908373ffffffffffffffffffffffffffffffffffffffff1602179055507f3ab23ab0d51cccc0c3085aec51f99228625aa1a922b3a8ca89a26b0f2027a1a58484604051616ff59291906192d9565b60405180910390a160009150505b92915050565b61701161736c565b6040518060200160405280670de0b6b3a764000061703786600001518660000151616ade565b617041919061952b565b815250905092915050565b61705461736c565b60405180602001604052806170826170788660000151670de0b6b3a7640000616ade565b8560000151617356565b815250905092915050565b60008160000151836000015110905092915050565b60007f45b96fe442630264581b197e84bbada861235052c5a1aadfff9ea4e40a969aa08460118111156170d8576170d761872c565b5b8460138111156170eb576170ea61872c565b5b846040516170fb93929190617ae8565b60405180910390a18360118111156171165761711561872c565b5b90509392505050565b600061714061713684670de0b6b3a7640000616ade565b8360000151617356565b905092915050565b6171506173ea565b604051806020016040528061717d617177866ec097ce7bc90715b34b9f1000000000616ade565b85617356565b815250905092915050565b6171906173ea565b60405180602001604052806171ad85600001518560000151616af4565b815250905092915050565b60007c01000000000000000000000000000000000000000000000000000000008310829061721c576040517f08c379a000000000000000000000000000000000000000000000000000000000815260040161721391906195d3565b60405180910390fd5b5082905092915050565b600064010000000083108290617272576040517f08c379a000000000000000000000000000000000000000000000000000000000815260040161726991906195d3565b60405180910390fd5b5082905092915050565b6172846173ea565b60405180602001604052806172a185600001518560000151616ac8565b815250905092915050565b60006ec097ce7bc90715b34b9f10000000006172cc848460000151616ade565b6172d6919061952b565b905092915050565b6000806172eb8585617309565b90506172ff6172f982617335565b84616af4565b9150509392505050565b61731161736c565b604051806020016040528061732a856000015185616ade565b815250905092915050565b6000670de0b6b3a7640000826000015161734f919061952b565b9050919050565b60008183617364919061952b565b905092915050565b6040518060200160405280600081525090565b6040518061014001604052806000815260200160008152602001600081526020016000815260200160008152602001600081526020016173bd61736c565b81526020016173ca61736c565b81526020016173d761736c565b81526020016173e461736c565b81525090565b6040518060200160405280600081525090565b60008115159050919050565b617412816173fd565b82525050565b600060208201905061742d6000830184617409565b92915050565b6000604051905090565b600080fd5b600080fd5b600073ffffffffffffffffffffffffffffffffffffffff82169050919050565b600061747282617447565b9050919050565b600061748482617467565b9050919050565b61749481617479565b811461749f57600080fd5b50565b6000813590506174b18161748b565b92915050565b6174c0816173fd565b81146174cb57600080fd5b50565b6000813590506174dd816174b7565b92915050565b600080604083850312156174fa576174f961743d565b5b6000617508858286016174a2565b9250506020617519858286016174ce565b9150509250929050565b61752c81617467565b811461753757600080fd5b50565b60008135905061754981617523565b92915050565b600080fd5b6000601f19601f8301169050919050565b7f4e487b7100000000000000000000000000000000000000000000000000000000600052604160045260246000fd5b61759d82617554565b810181811067ffffffffffffffff821117156175bc576175bb617565565b5b80604052505050565b60006175cf617433565b90506175db8282617594565b919050565b600067ffffffffffffffff8211156175fb576175fa617565565b5b602082029050602081019050919050565b600080fd5b600061762461761f846175e0565b6175c5565b905080838252602082019050602084028301858111156176475761764661760c565b5b835b81811015617670578061765c88826174a2565b845260208401935050602081019050617649565b5050509392505050565b600082601f83011261768f5761768e61754f565b5b813561769f848260208601617611565b91505092915050565b600080604083850312156176bf576176be61743d565b5b60006176cd8582860161753a565b925050602083013567ffffffffffffffff8111156176ee576176ed617442565b5b6176fa8582860161767a565b9150509250929050565b600061770f82617447565b9050919050565b600061772182617704565b9050919050565b61773181617716565b811461773c57600080fd5b50565b60008135905061774e81617728565b92915050565b60006020828403121561776a5761776961743d565b5b60006177788482850161773f565b91505092915050565b6000602082840312156177975761779661743d565b5b60006177a58482850161753a565b91505092915050565b6000819050919050565b6177c1816177ae565b82525050565b60006020820190506177dc60008301846177b8565b92915050565b6177eb816177ae565b81146177f657600080fd5b50565b600081359050617808816177e2565b92915050565b600080600080600060a0868803121561782a5761782961743d565b5b60006178388882890161753a565b95505060206178498882890161753a565b945050604061785a8882890161753a565b935050606061786b888289016177f9565b925050608061787c888289016177f9565b9150509295509295909350565b61789281617467565b82525050565b60006020820190506178ad6000830184617889565b92915050565b600080600080608085870312156178cd576178cc61743d565b5b60006178db8782880161753a565b94505060206178ec8782880161753a565b93505060406178fd8782880161753a565b925050606061790e878288016177f9565b91505092959194509250565b600080604083850312156179315761793061743d565b5b600061793f8582860161753a565b9250506020617950858286016177f9565b9150509250929050565b6000602082840312156179705761796f61743d565b5b600061797e848285016174ce565b91505092915050565b60006020828403121561799d5761799c61743d565b5b60006179ab848285016177f9565b91505092915050565b600080600080608085870312156179ce576179cd61743d565b5b60006179dc8782880161753a565b94505060206179ed8782880161753a565b93505060406179fe878288016177f9565b9250506060617a0f878288016177f9565b91505092959194509250565b60008060408385031215617a3257617a3161743d565b5b6000617a40858286016174a2565b9250506020617a51858286016177f9565b9150509250929050565b60008060008060008060c08789031215617a7857617a7761743d565b5b6000617a8689828a0161753a565b9650506020617a9789828a0161753a565b9550506040617aa889828a0161753a565b9450506060617ab989828a0161753a565b9350506080617aca89828a016177f9565b92505060a0617adb89828a016177f9565b9150509295509295509295565b6000606082019050617afd60008301866177b8565b617b0a60208301856177b8565b617b1760408301846177b8565b949350505050565b600080600060608486031215617b3857617b3761743d565b5b6000617b468682870161753a565b9350506020617b578682870161753a565b9250506040617b68868287016177f9565b9150509250925092565b6000819050919050565b6000617b97617b92617b8d84617447565b617b72565b617447565b9050919050565b6000617ba982617b7c565b9050919050565b6000617bbb82617b9e565b9050919050565b617bcb81617bb0565b82525050565b6000602082019050617be66000830184617bc2565b92915050565b6000617bf782617467565b9050919050565b617c0781617bec565b8114617c1257600080fd5b50565b600081359050617c2481617bfe565b92915050565b600060208284031215617c4057617c3f61743d565b5b6000617c4e84828501617c15565b91505092915050565b600080600080600060a08688031215617c7357617c7261743d565b5b6000617c818882890161753a565b9550506020617c928882890161753a565b9450506040617ca38882890161753a565b9350506060617cb48882890161753a565b9250506080617cc5888289016177f9565b9150509295509295909350565b600080fd5b60008083601f840112617ced57617cec61754f565b5b8235905067ffffffffffffffff811115617d0a57617d09617cd2565b5b602083019150836020820283011115617d2657617d2561760c565b5b9250929050565b60008083601f840112617d4357617d4261754f565b5b8235905067ffffffffffffffff811115617d6057617d5f617cd2565b5b602083019150836020820283011115617d7c57617d7b61760c565b5b9250929050565b60008060008060408587031215617d9d57617d9c61743d565b5b600085013567ffffffffffffffff811115617dbb57617dba617442565b5b617dc787828801617cd7565b9450945050602085013567ffffffffffffffff811115617dea57617de9617442565b5b617df687828801617d2d565b925092505092959194509250565b600067ffffffffffffffff821115617e1f57617e1e617565565b5b602082029050602081019050919050565b6000617e43617e3e84617e04565b6175c5565b90508083825260208201905060208402830185811115617e6657617e6561760c565b5b835b81811015617e8f5780617e7b888261753a565b845260208401935050602081019050617e68565b5050509392505050565b600082601f830112617eae57617ead61754f565b5b8135617ebe848260208601617e30565b91505092915050565b60008060008060808587031215617ee157617ee061743d565b5b600085013567ffffffffffffffff811115617eff57617efe617442565b5b617f0b87828801617e99565b945050602085013567ffffffffffffffff811115617f2c57617f2b617442565b5b617f388782880161767a565b9350506040617f49878288016174ce565b9250506060617f5a878288016174ce565b91505092959194509250565b60007bffffffffffffffffffffffffffffffffffffffffffffffffffffffff82169050919050565b617f9781617f66565b82525050565b600063ffffffff82169050919050565b617fb681617f9d565b82525050565b6000604082019050617fd16000830185617f8e565b617fde6020830184617fad565b9392505050565b6000617ff082617b9e565b9050919050565b61800081617fe5565b82525050565b600060208201905061801b6000830184617ff7565b92915050565b60006060820190506180366000830186617409565b61804360208301856177b8565b6180506040830184617409565b949350505050565b6000806040838503121561806f5761806e61743d565b5b600061807d8582860161753a565b925050602061808e858286016174a2565b9150509250929050565b6000602082840312156180ae576180ad61743d565b5b60006180bc848285016174a2565b91505092915050565b60006020820190506180da6000830184617f8e565b92915050565b600081519050919050565b600082825260208201905092915050565b6000819050602082019050919050565b61811581617bb0565b82525050565b6000618127838361810c565b60208301905092915050565b6000602082019050919050565b600061814b826180e0565b61815581856180eb565b9350618160836180fc565b8060005b83811015618191578151618178888261811b565b975061818383618133565b925050600181019050618164565b5085935050505092915050565b600060208201905081810360008301526181b88184618140565b905092915050565b600080604083850312156181d7576181d661743d565b5b60006181e58582860161753a565b92505060206181f68582860161753a565b9150509250929050565b6000602082840312156182165761821561743d565b5b600082013567ffffffffffffffff81111561823457618233617442565b5b61824084828501617e99565b91505092915050565b600081519050919050565b600082825260208201905092915050565b6000819050602082019050919050565b61827e816177ae565b82525050565b60006182908383618275565b60208301905092915050565b6000602082019050919050565b60006182b482618249565b6182be8185618254565b93506182c983618265565b8060005b838110156182fa5781516182e18882618284565b97506182ec8361829c565b9250506001810190506182cd565b5085935050505092915050565b6000602082019050818103600083015261832181846182a9565b905092915050565b600060408201905061833e60008301856177b8565b61834b60208301846177b8565b9392505050565b600082825260208201905092915050565b7f63616e6e6f742070617573652061206d61726b65742074686174206973206e6f60008201527f74206c6973746564000000000000000000000000000000000000000000000000602082015250565b60006183bf602883618352565b91506183ca82618363565b604082019050919050565b600060208201905081810360008301526183ee816183b2565b9050919050565b7f6f6e6c7920706175736520677561726469616e20616e642061646d696e20636160008201527f6e20706175736500000000000000000000000000000000000000000000000000602082015250565b6000618451602783618352565b915061845c826183f5565b604082019050919050565b6000602082019050818103600083015261848081618444565b9050919050565b7f6f6e6c792061646d696e2063616e20756e706175736500000000000000000000600082015250565b60006184bd601683618352565b91506184c882618487565b602082019050919050565b600060208201905081810360008301526184ec816184b0565b9050919050565b7f426f72726f770000000000000000000000000000000000000000000000000000600082015250565b6000618529600683618352565b9150618534826184f3565b602082019050919050565b60006060820190506185546000830185617bc2565b81810360208301526185658161851c565b90506185746040830184617409565b9392505050565b7f4e487b7100000000000000000000000000000000000000000000000000000000600052603260045260246000fd5b6000815190506185b981617523565b92915050565b6000602082840312156185d5576185d461743d565b5b60006185e3848285016185aa565b91505092915050565b7f6f6e6c7920756e6974726f6c6c65722061646d696e2063616e206368616e676560008201527f20627261696e7300000000000000000000000000000000000000000000000000602082015250565b6000618648602783618352565b9150618653826185ec565b604082019050919050565b600060208201905081810360008301526186778161863b565b9050919050565b60008151905061868d816177e2565b92915050565b6000602082840312156186a9576186a861743d565b5b60006186b78482850161867e565b91505092915050565b7f6368616e6765206e6f7420617574686f72697a65640000000000000000000000600082015250565b60006186f6601583618352565b9150618701826186c0565b602082019050919050565b60006020820190508181036000830152618725816186e9565b9050919050565b7f4e487b7100000000000000000000000000000000000000000000000000000000600052602160045260246000fd5b7f6f6e6c792061646d696e2063616e206772616e7420636f6d7000000000000000600082015250565b6000618791601983618352565b915061879c8261875b565b602082019050919050565b600060208201905081810360008301526187c081618784565b9050919050565b7f696e73756666696369656e7420636f6d7020666f72206772616e740000000000600082015250565b60006187fd601b83618352565b9150618808826187c7565b602082019050919050565b6000602082019050818103600083015261882c816187f0565b9050919050565b60006040820190506188486000830185617889565b61885560208301846177b8565b9392505050565b7f5365697a65000000000000000000000000000000000000000000000000000000600082015250565b6000618892600583618352565b915061889d8261885c565b602082019050919050565b600060408201905081810360008301526188c181618885565b90506188d06020830184617409565b92915050565b7f6f6e6c792061646d696e2063616e2073657420636c6f736520666163746f7200600082015250565b600061890c601f83618352565b9150618917826188d6565b602082019050919050565b6000602082019050818103600083015261893b816188ff565b9050919050565b7f6f6e6c792061646d696e2063616e2073657420626f72726f772063617020677560008201527f61726469616e0000000000000000000000000000000000000000000000000000602082015250565b600061899e602683618352565b91506189a982618942565b604082019050919050565b600060208201905081810360008301526189cd81618991565b9050919050565b60006040820190506189e96000830185617889565b6189f66020830184617889565b9392505050565b7f4d696e7400000000000000000000000000000000000000000000000000000000600082015250565b6000618a33600483618352565b9150618a3e826189fd565b602082019050919050565b6000606082019050618a5e6000830185617bc2565b8181036020830152618a6f81618a26565b9050618a7e6040830184617409565b9392505050565b7f6f6e6c792061646d696e2063616e2073657420636f6d70207370656564000000600082015250565b6000618abb601d83618352565b9150618ac682618a85565b602082019050919050565b60006020820190508181036000830152618aea81618aae565b9050919050565b7f6d696e7420697320706175736564000000000000000000000000000000000000600082015250565b6000618b27600e83618352565b9150618b3282618af1565b602082019050919050565b60006020820190508181036000830152618b5681618b1a565b9050919050565b7f72656465656d546f6b656e73207a65726f000000000000000000000000000000600082015250565b6000618b93601183618352565b9150618b9e82618b5d565b602082019050919050565b60006020820190508181036000830152618bc281618b86565b9050919050565b6000604082019050618bde6000830185617ff7565b618beb6020830184617ff7565b9392505050565b7f6f6e6c792061646d696e206f7220626f72726f7720636170206775617264696160008201527f6e2063616e2073657420626f72726f7720636170730000000000000000000000602082015250565b6000618c4e603583618352565b9150618c5982618bf2565b604082019050919050565b60006020820190508181036000830152618c7d81618c41565b9050919050565b7f696e76616c696420696e70757400000000000000000000000000000000000000600082015250565b6000618cba600d83618352565b9150618cc582618c84565b602082019050919050565b60006020820190508181036000830152618ce981618cad565b9050919050565b7f4e487b7100000000000000000000000000000000000000000000000000000000600052601160045260246000fd5b6000618d2a826177ae565b91507fffffffffffffffffffffffffffffffffffffffffffffffffffffffffffffffff821415618d5d57618d5c618cf0565b5b600182019050919050565b7f6d61726b6574206d757374206265206c69737465640000000000000000000000600082015250565b6000618d9e601583618352565b9150618da982618d68565b602082019050919050565b60006020820190508181036000830152618dcd81618d91565b9050919050565b7f5472616e73666572000000000000000000000000000000000000000000000000600082015250565b6000618e0a600883618352565b9150618e1582618dd4565b602082019050919050565b60006040820190508181036000830152618e3981618dfd565b9050618e486020830184617409565b92915050565b600081519050618e5d816174b7565b92915050565b600060208284031215618e7957618e7861743d565b5b6000618e8784828501618e4e565b91505092915050565b7f7472616e73666572206973207061757365640000000000000000000000000000600082015250565b6000618ec6601283618352565b9150618ed182618e90565b602082019050919050565b60006020820190508181036000830152618ef581618eb9565b9050919050565b7f7365697a65206973207061757365640000000000000000000000000000000000600082015250565b6000618f32600f83618352565b9150618f3d82618efc565b602082019050919050565b60006020820190508181036000830152618f6181618f25565b9050919050565b6000618f7382617467565b9050919050565b618f8381618f68565b8114618f8e57600080fd5b50565b600081519050618fa081618f7a565b92915050565b600060208284031215618fbc57618fbb61743d565b5b6000618fca84828501618f91565b91505092915050565b7f626f72726f772069732070617573656400000000000000000000000000000000600082015250565b6000619009601083618352565b915061901482618fd3565b602082019050919050565b6000602082019050818103600083015261903881618ffc565b9050919050565b7f73656e646572206d7573742062652063546f6b656e0000000000000000000000600082015250565b6000619075601583618352565b91506190808261903f565b602082019050919050565b600060208201905081810360008301526190a481619068565b9050919050565b7f4e487b7100000000000000000000000000000000000000000000000000000000600052600160045260246000fd5b7f6d61726b657420626f72726f7720636170207265616368656400000000000000600082015250565b6000619110601983618352565b915061911b826190da565b602082019050919050565b6000602082019050818103600083015261913f81619103565b9050919050565b600060608201905061915b6000830186617bc2565b61916860208301856177b8565b61917560408301846177b8565b949350505050565b600080600080608085870312156191975761919661743d565b5b60006191a58782880161867e565b94505060206191b68782880161867e565b93505060406191c78782880161867e565b92505060606191d88782880161867e565b91505092959194509250565b7f657869744d61726b65743a206765744163636f756e74536e617073686f74206660008201527f61696c6564000000000000000000000000000000000000000000000000000000602082015250565b6000619240602583618352565b915061924b826191e4565b604082019050919050565b6000602082019050818103600083015261926f81619233565b9050919050565b6000619281826177ae565b915061928c836177ae565b92508282101561929f5761929e618cf0565b5b828203905092915050565b7f4e487b7100000000000000000000000000000000000000000000000000000000600052603160045260246000fd5b60006040820190506192ee6000830185617bc2565b6192fb6020830184617889565b9392505050565b7f636f6d70206d61726b6574206973206e6f74206c697374656400000000000000600082015250565b6000619338601983618352565b915061934382619302565b602082019050919050565b600060208201905081810360008301526193678161932b565b9050919050565b6000819050919050565b600061939361938e6193898461936e565b617b72565b6177ae565b9050919050565b6193a381619378565b82525050565b60006060820190506193be60008301866177b8565b6193cb60208301856177b8565b6193d8604083018461939a565b949350505050565b60006193eb826177ae565b91506193f6836177ae565b9250817fffffffffffffffffffffffffffffffffffffffffffffffffffffffffffffffff048311821515161561942f5761942e618cf0565b5b828202905092915050565b6000619445826177ae565b9150619450836177ae565b9250827fffffffffffffffffffffffffffffffffffffffffffffffffffffffffffffffff0382111561948557619484618cf0565b5b828201905092915050565b7f6d61726b657420616c7265616479206164646564000000000000000000000000600082015250565b60006194c6601483618352565b91506194d182619490565b602082019050919050565b600060208201905081810360008301526194f5816194b9565b9050919050565b7f4e487b7100000000000000000000000000000000000000000000000000000000600052601260045260246000fd5b6000619536826177ae565b9150619541836177ae565b925082619551576195506194fc565b5b828204905092915050565b600081519050919050565b60005b8381101561958557808201518184015260208101905061956a565b83811115619594576000848401525b50505050565b60006195a58261955c565b6195af8185618352565b93506195bf818560208601619567565b6195c881617554565b840191505092915050565b600060208201905081810360008301526195ed818461959a565b90509291505056fea2646970667358221220ed5e1bd91720a66044b1a875492f58369bffe45423abcb73e0c1e8f5d455805064736f6c634300080a0033",
  "linkReferences": {},
  "deployedLinkReferences": {}
}