{
  "_format": "hh-sol-artifact-1",
  "contractName": "WhitePaperInterestRateModel",
  "sourceName": "contracts/WhitePaperInterestRateModel.sol",
  "abi": [
    {
      "inputs": [
        {
          "internalType": "uint256",
          "name": "baseRatePerYear",
          "type": "uint256"
        },
        {
          "internalType": "uint256",
          "name": "multiplierPerYear",
          "type": "uint256"
        }
      ],
      "stateMutability": "nonpayable",
      "type": "constructor"
    },
    {
      "anonymous": false,
      "inputs": [
        {
          "indexed": false,
          "internalType": "uint256",
          "name": "baseRatePerBlock",
          "type": "uint256"
        },
        {
          "indexed": false,
          "internalType": "uint256",
          "name": "multiplierPerBlock",
          "type": "uint256"
        }
      ],
      "name": "NewInterestParams",
      "type": "event"
    },
    {
      "inputs": [],
      "name": "baseRatePerBlock",
      "outputs": [
        {
          "internalType": "uint256",
          "name": "",
          "type": "uint256"
        }
      ],
      "stateMutability": "view",
      "type": "function"
    },
    {
      "inputs": [],
      "name": "blocksPerYear",
      "outputs": [
        {
          "internalType": "uint256",
          "name": "",
          "type": "uint256"
        }
      ],
      "stateMutability": "view",
      "type": "function"
    },
    {
      "inputs": [
        {
          "internalType": "uint256",
          "name": "cash",
          "type": "uint256"
        },
        {
          "internalType": "uint256",
          "name": "borrows",
          "type": "uint256"
        },
        {
          "internalType": "uint256",
          "name": "reserves",
          "type": "uint256"
        }
      ],
      "name": "getBorrowRate",
      "outputs": [
        {
          "internalType": "uint256",
          "name": "",
          "type": "uint256"
        }
      ],
      "stateMutability": "view",
      "type": "function"
    },
    {
      "inputs": [
        {
          "internalType": "uint256",
          "name": "cash",
          "type": "uint256"
        },
        {
          "internalType": "uint256",
          "name": "borrows",
          "type": "uint256"
        },
        {
          "internalType": "uint256",
          "name": "reserves",
          "type": "uint256"
        },
        {
          "internalType": "uint256",
          "name": "reserveFactorMantissa",
          "type": "uint256"
        }
      ],
      "name": "getSupplyRate",
      "outputs": [
        {
          "internalType": "uint256",
          "name": "",
          "type": "uint256"
        }
      ],
      "stateMutability": "view",
      "type": "function"
    },
    {
      "inputs": [],
      "name": "isInterestRateModel",
      "outputs": [
        {
          "internalType": "bool",
          "name": "",
          "type": "bool"
        }
      ],
      "stateMutability": "view",
      "type": "function"
    },
    {
      "inputs": [],
      "name": "multiplierPerBlock",
      "outputs": [
        {
          "internalType": "uint256",
          "name": "",
          "type": "uint256"
        }
      ],
      "stateMutability": "view",
      "type": "function"
    },
    {
      "inputs": [
        {
          "internalType": "uint256",
          "name": "cash",
          "type": "uint256"
        },
        {
          "internalType": "uint256",
          "name": "borrows",
          "type": "uint256"
        },
        {
          "internalType": "uint256",
          "name": "reserves",
          "type": "uint256"
        }
      ],
      "name": "utilizationRate",
      "outputs": [
        {
          "internalType": "uint256",
          "name": "",
          "type": "uint256"
        }
      ],
      "stateMutability": "pure",
      "type": "function"
    }
  ],
  "bytecode": "0x608060405234801561001057600080fd5b5060405161077d38038061077d833981810160405281019061003291906100db565b6220148082610041919061014a565b6001819055506220148081610056919061014a565b6000819055507ff35fa19c15e9ba782633a5df62a98b20217151addc68e3ff2cd623a48d37ec2760015460005460405161009192919061018a565b60405180910390a150506101b3565b600080fd5b6000819050919050565b6100b8816100a5565b81146100c357600080fd5b50565b6000815190506100d5816100af565b92915050565b600080604083850312156100f2576100f16100a0565b5b6000610100858286016100c6565b9250506020610111858286016100c6565b9150509250929050565b7f4e487b7100000000000000000000000000000000000000000000000000000000600052601260045260246000fd5b6000610155826100a5565b9150610160836100a5565b9250826101705761016f61011b565b5b828204905092915050565b610184816100a5565b82525050565b600060408201905061019f600083018561017b565b6101ac602083018461017b565b9392505050565b6105bb806101c26000396000f3fe608060405234801561001057600080fd5b506004361061007d5760003560e01c80638726bb891161005b5780638726bb8914610100578063a385fb961461011e578063b81688161461013c578063f14039de1461016c5761007d565b806315f24053146100825780632191f92a146100b25780636e71e2d8146100d0575b600080fd5b61009c600480360381019061009791906102f8565b61018a565b6040516100a9919061035a565b60405180910390f35b6100ba6101d2565b6040516100c79190610390565b60405180910390f35b6100ea60048036038101906100e591906102f8565b6101d7565b6040516100f7919061035a565b60405180910390f35b610108610229565b604051610115919061035a565b60405180910390f35b61012661022f565b604051610133919061035a565b60405180910390f35b610156600480360381019061015191906103ab565b610236565b604051610163919061035a565b60405180910390f35b6101746102b7565b604051610181919061035a565b60405180910390f35b6000806101988585856101d7565b9050600154670de0b6b3a7640000600054836101b49190610441565b6101be91906104ca565b6101c891906104fb565b9150509392505050565b600181565b6000808314156101ea5760009050610222565b8183856101f791906104fb565b6102019190610551565b670de0b6b3a7640000846102159190610441565b61021f91906104ca565b90505b9392505050565b60005481565b6220148081565b60008082670de0b6b3a764000061024d9190610551565b9050600061025c87878761018a565b90506000670de0b6b3a764000083836102759190610441565b61027f91906104ca565b9050670de0b6b3a7640000816102968a8a8a6101d7565b6102a09190610441565b6102aa91906104ca565b9350505050949350505050565b60015481565b600080fd5b6000819050919050565b6102d5816102c2565b81146102e057600080fd5b50565b6000813590506102f2816102cc565b92915050565b600080600060608486031215610311576103106102bd565b5b600061031f868287016102e3565b9350506020610330868287016102e3565b9250506040610341868287016102e3565b9150509250925092565b610354816102c2565b82525050565b600060208201905061036f600083018461034b565b92915050565b60008115159050919050565b61038a81610375565b82525050565b60006020820190506103a56000830184610381565b92915050565b600080600080608085870312156103c5576103c46102bd565b5b60006103d3878288016102e3565b94505060206103e4878288016102e3565b93505060406103f5878288016102e3565b9250506060610406878288016102e3565b91505092959194509250565b7f4e487b7100000000000000000000000000000000000000000000000000000000600052601160045260246000fd5b600061044c826102c2565b9150610457836102c2565b9250817fffffffffffffffffffffffffffffffffffffffffffffffffffffffffffffffff04831182151516156104905761048f610412565b5b828202905092915050565b7f4e487b7100000000000000000000000000000000000000000000000000000000600052601260045260246000fd5b60006104d5826102c2565b91506104e0836102c2565b9250826104f0576104ef61049b565b5b828204905092915050565b6000610506826102c2565b9150610511836102c2565b9250827fffffffffffffffffffffffffffffffffffffffffffffffffffffffffffffffff0382111561054657610545610412565b5b828201905092915050565b600061055c826102c2565b9150610567836102c2565b92508282101561057a57610579610412565b5b82820390509291505056fea2646970667358221220d3777ed51c44e69e89a45d225ae9c8da892e61684c7b61486b65b60a4cf2e8ea64736f6c634300080a0033",
  "linkReferences": {},
  "deployedLinkReferences": {}
}