{
  "_format": "hh-sol-artifact-1",
  "contractName": "ComptrollerV7Storage",
  "sourceName": "contracts/ComptrollerStorage.sol",
  "abi": [
    {
      "inputs": [],
      "name": "_borrowGuardianPaused",
      "outputs": [
        {
          "internalType": "bool",
          "name": "",
          "type": "bool"
        }
      ],
      "stateMutability": "view",
      "type": "function"
    },
    {
      "inputs": [],
      "name": "_mintGuardianPaused",
      "outputs": [
        {
          "internalType": "bool",
          "name": "",
          "type": "bool"
        }
      ],
      "stateMutability": "view",
      "type": "function"
    },
    {
      "inputs": [
        {
          "internalType": "address",
          "name": "",
          "type": "address"
        },
        {
          "internalType": "uint256",
          "name": "",
          "type": "uint256"
        }
      ],
      "name": "accountAssets",
      "outputs": [
        {
          "internalType": "contract CToken",
          "name": "",
          "type": "address"
        }
      ],
      "stateMutability": "view",
      "type": "function"
    },
    {
      "inputs": [],
      "name": "admin",
      "outputs": [
        {
          "internalType": "address",
          "name": "",
          "type": "address"
        }
      ],
      "stateMutability": "view",
      "type": "function"
    },
    {
      "inputs": [
        {
          "internalType": "uint256",
          "name": "",
          "type": "uint256"
        }
      ],
      "name": "allMarkets",
      "outputs": [
        {
          "internalType": "contract CToken",
          "name": "",
          "type": "address"
        }
      ],
      "stateMutability": "view",
      "type": "function"
    },
    {
      "inputs": [],
      "name": "borrowCapGuardian",
      "outputs": [
        {
          "internalType": "address",
          "name": "",
          "type": "address"
        }
      ],
      "stateMutability": "view",
      "type": "function"
    },
    {
      "inputs": [
        {
          "internalType": "address",
          "name": "",
          "type": "address"
        }
      ],
      "name": "borrowCaps",
      "outputs": [
        {
          "internalType": "uint256",
          "name": "",
          "type": "uint256"
        }
      ],
      "stateMutability": "view",
      "type": "function"
    },
    {
      "inputs": [
        {
          "internalType": "address",
          "name": "",
          "type": "address"
        }
      ],
      "name": "borrowGuardianPaused",
      "outputs": [
        {
          "internalType": "bool",
          "name": "",
          "type": "bool"
        }
      ],
      "stateMutability": "view",
      "type": "function"
    },
    {
      "inputs": [],
      "name": "closeFactorMantissa",
      "outputs": [
        {
          "internalType": "uint256",
          "name": "",
          "type": "uint256"
        }
      ],
      "stateMutability": "view",
      "type": "function"
    },
    {
      "inputs": [
        {
          "internalType": "address",
          "name": "",
          "type": "address"
        }
      ],
      "name": "compAccrued",
      "outputs": [
        {
          "internalType": "uint256",
          "name": "",
          "type": "uint256"
        }
      ],
      "stateMutability": "view",
      "type": "function"
    },
    {
      "inputs": [
        {
          "internalType": "address",
          "name": "",
          "type": "address"
        }
      ],
      "name": "compBorrowSpeeds",
      "outputs": [
        {
          "internalType": "uint256",
          "name": "",
          "type": "uint256"
        }
      ],
      "stateMutability": "view",
      "type": "function"
    },
    {
      "inputs": [
        {
          "internalType": "address",
          "name": "",
          "type": "address"
        }
      ],
      "name": "compBorrowState",
      "outputs": [
        {
          "internalType": "uint224",
          "name": "index",
          "type": "uint224"
        },
        {
          "internalType": "uint32",
          "name": "block",
          "type": "uint32"
        }
      ],
      "stateMutability": "view",
      "type": "function"
    },
    {
      "inputs": [
        {
          "internalType": "address",
          "name": "",
          "type": "address"
        },
        {
          "internalType": "address",
          "name": "",
          "type": "address"
        }
      ],
      "name": "compBorrowerIndex",
      "outputs": [
        {
          "internalType": "uint256",
          "name": "",
          "type": "uint256"
        }
      ],
      "stateMutability": "view",
      "type": "function"
    },
    {
      "inputs": [
        {
          "internalType": "address",
          "name": "",
          "type": "address"
        }
      ],
      "name": "compContributorSpeeds",
      "outputs": [
        {
          "internalType": "uint256",
          "name": "",
          "type": "uint256"
        }
      ],
      "stateMutability": "view",
      "type": "function"
    },
    {
      "inputs": [],
      "name": "compRate",
      "outputs": [
        {
          "internalType": "uint256",
          "name": "",
          "type": "uint256"
        }
      ],
      "stateMutability": "view",
      "type": "function"
    },
    {
      "inputs": [
        {
          "internalType": "address",
          "name": "",
          "type": "address"
        }
      ],
      "name": "compReceivable",
      "outputs": [
        {
          "internalType": "uint256",
          "name": "",
          "type": "uint256"
        }
      ],
      "stateMutability": "view",
      "type": "function"
    },
    {
      "inputs": [
        {
          "internalType": "address",
          "name": "",
          "type": "address"
        }
      ],
      "name": "compSpeeds",
      "outputs": [
        {
          "internalType": "uint256",
          "name": "",
          "type": "uint256"
        }
      ],
      "stateMutability": "view",
      "type": "function"
    },
    {
      "inputs": [
        {
          "internalType": "address",
          "name": "",
          "type": "address"
        },
        {
          "internalType": "address",
          "name": "",
          "type": "address"
        }
      ],
      "name": "compSupplierIndex",
      "outputs": [
        {
          "internalType": "uint256",
          "name": "",
          "type": "uint256"
        }
      ],
      "stateMutability": "view",
      "type": "function"
    },
    {
      "inputs": [
        {
          "internalType": "address",
          "name": "",
          "type": "address"
        }
      ],
      "name": "compSupplySpeeds",
      "outputs": [
        {
          "internalType": "uint256",
          "name": "",
          "type": "uint256"
        }
      ],
      "stateMutability": "view",
      "type": "function"
    },
    {
      "inputs": [
        {
          "internalType": "address",
          "name": "",
          "type": "address"
        }
      ],
      "name": "compSupplyState",
      "outputs": [
        {
          "internalType": "uint224",
          "name": "index",
          "type": "uint224"
        },
        {
          "internalType": "uint32",
          "name": "block",
          "type": "uint32"
        }
      ],
      "stateMutability": "view",
      "type": "function"
    },
    {
      "inputs": [],
      "name": "comptrollerImplementation",
      "outputs": [
        {
          "internalType": "address",
          "name": "",
          "type": "address"
        }
      ],
      "stateMutability": "view",
      "type": "function"
    },
    {
      "inputs": [
        {
          "internalType": "address",
          "name": "",
          "type": "address"
        }
      ],
      "name": "lastContributorBlock",
      "outputs": [
        {
          "internalType": "uint256",
          "name": "",
          "type": "uint256"
        }
      ],
      "stateMutability": "view",
      "type": "function"
    },
    {
      "inputs": [],
      "name": "liquidationIncentiveMantissa",
      "outputs": [
        {
          "internalType": "uint256",
          "name": "",
          "type": "uint256"
        }
      ],
      "stateMutability": "view",
      "type": "function"
    },
    {
      "inputs": [
        {
          "internalType": "address",
          "name": "",
          "type": "address"
        }
      ],
      "name": "markets",
      "outputs": [
        {
          "internalType": "bool",
          "name": "isListed",
          "type": "bool"
        },
        {
          "internalType": "uint256",
          "name": "collateralFactorMantissa",
          "type": "uint256"
        },
        {
          "internalType": "bool",
          "name": "isComped",
          "type": "bool"
        }
      ],
      "stateMutability": "view",
      "type": "function"
    },
    {
      "inputs": [],
      "name": "maxAssets",
      "outputs": [
        {
          "internalType": "uint256",
          "name": "",
          "type": "uint256"
        }
      ],
      "stateMutability": "view",
      "type": "function"
    },
    {
      "inputs": [
        {
          "internalType": "address",
          "name": "",
          "type": "address"
        }
      ],
      "name": "mintGuardianPaused",
      "outputs": [
        {
          "internalType": "bool",
          "name": "",
          "type": "bool"
        }
      ],
      "stateMutability": "view",
      "type": "function"
    },
    {
      "inputs": [],
      "name": "oracle",
      "outputs": [
        {
          "internalType": "contract PriceOracle",
          "name": "",
          "type": "address"
        }
      ],
      "stateMutability": "view",
      "type": "function"
    },
    {
      "inputs": [],
      "name": "pauseGuardian",
      "outputs": [
        {
          "internalType": "address",
          "name": "",
          "type": "address"
        }
      ],
      "stateMutability": "view",
      "type": "function"
    },
    {
      "inputs": [],
      "name": "pendingAdmin",
      "outputs": [
        {
          "internalType": "address",
          "name": "",
          "type": "address"
        }
      ],
      "stateMutability": "view",
      "type": "function"
    },
    {
      "inputs": [],
      "name": "pendingComptrollerImplementation",
      "outputs": [
        {
          "internalType": "address",
          "name": "",
          "type": "address"
        }
      ],
      "stateMutability": "view",
      "type": "function"
    },
    {
      "inputs": [],
      "name": "proposal65FixExecuted",
      "outputs": [
        {
          "internalType": "bool",
          "name": "",
          "type": "bool"
        }
      ],
      "stateMutability": "view",
      "type": "function"
    },
    {
      "inputs": [],
      "name": "seizeGuardianPaused",
      "outputs": [
        {
          "internalType": "bool",
          "name": "",
          "type": "bool"
        }
      ],
      "stateMutability": "view",
      "type": "function"
    },
    {
      "inputs": [],
      "name": "transferGuardianPaused",
      "outputs": [
        {
          "internalType": "bool",
          "name": "",
          "type": "bool"
        }
      ],
      "stateMutability": "view",
      "type": "function"
    }
  ],
  "bytecode": "0x608060405234801561001057600080fd5b50610f05806100206000396000f3fe608060405234801561001057600080fd5b50600436106101fb5760003560e01c80638e8f294b1161011a578063ca0af043116100ad578063e6653f3d1161007c578063e6653f3d1461066c578063e87554461461068a578063f00a7a92146106a8578063f4a433c0146106c6578063f851a440146106f6576101fb565b8063ca0af043146105be578063cc7ebdc4146105ee578063dce154491461061e578063dcfbc0c71461064e576101fb565b8063ac0b0bb7116100e9578063ac0b0bb714610522578063b21be7fd14610540578063bb82aa5e14610570578063bea6b8b81461058e576101fb565b80638e8f294b1461048457806394b2294b146104b6578063986ab838146104d4578063aa90075414610504576101fb565b80636aa875b5116101925780637dc0d1d0116101615780637dc0d1d0146103e757806385b7beb81461040557806387f76303146104355780638c57804e14610453576101fb565b80636aa875b5146103265780636b79c38d146103565780636d154ea514610387578063731f0c2b146103b7576101fb565b80633c94786f116101ce5780633c94786f1461028a5780634a584432146102a85780634ada90af146102d857806352d84d1e146102f6576101fb565b80631d7b33d71461020057806321af45691461023057806324a3d6221461024e578063267822471461026c575b600080fd5b61021a60048036038101906102159190610bc9565b610714565b6040516102279190610c0f565b60405180910390f35b61023861072c565b6040516102459190610c39565b60405180910390f35b610256610752565b6040516102639190610c39565b60405180910390f35b610274610778565b6040516102819190610c39565b60405180910390f35b61029261079e565b60405161029f9190610c6f565b60405180910390f35b6102c260048036038101906102bd9190610bc9565b6107b1565b6040516102cf9190610c0f565b60405180910390f35b6102e06107c9565b6040516102ed9190610c0f565b60405180910390f35b610310600480360381019061030b9190610cb6565b6107cf565b60405161031d9190610d42565b60405180910390f35b610340600480360381019061033b9190610bc9565b61080e565b60405161034d9190610c0f565b60405180910390f35b610370600480360381019061036b9190610bc9565b610826565b60405161037e929190610db3565b60405180910390f35b6103a1600480360381019061039c9190610bc9565b610882565b6040516103ae9190610c6f565b60405180910390f35b6103d160048036038101906103cc9190610bc9565b6108a2565b6040516103de9190610c6f565b60405180910390f35b6103ef6108c2565b6040516103fc9190610dfd565b60405180910390f35b61041f600480360381019061041a9190610bc9565b6108e8565b60405161042c9190610c0f565b60405180910390f35b61043d610900565b60405161044a9190610c6f565b60405180910390f35b61046d60048036038101906104689190610bc9565b610913565b60405161047b929190610db3565b60405180910390f35b61049e60048036038101906104999190610bc9565b61096f565b6040516104ad93929190610e18565b60405180910390f35b6104be6109b3565b6040516104cb9190610c0f565b60405180910390f35b6104ee60048036038101906104e99190610bc9565b6109b9565b6040516104fb9190610c0f565b60405180910390f35b61050c6109d1565b6040516105199190610c0f565b60405180910390f35b61052a6109d7565b6040516105379190610c6f565b60405180910390f35b61055a60048036038101906105559190610e4f565b6109ea565b6040516105679190610c0f565b60405180910390f35b610578610a0f565b6040516105859190610c39565b60405180910390f35b6105a860048036038101906105a39190610bc9565b610a35565b6040516105b59190610c0f565b60405180910390f35b6105d860048036038101906105d39190610e4f565b610a4d565b6040516105e59190610c0f565b60405180910390f35b61060860048036038101906106039190610bc9565b610a72565b6040516106159190610c0f565b60405180910390f35b61063860048036038101906106339190610e8f565b610a8a565b6040516106459190610d42565b60405180910390f35b610656610ad8565b6040516106639190610c39565b60405180910390f35b610674610afe565b6040516106819190610c6f565b60405180910390f35b610692610b11565b60405161069f9190610c0f565b60405180910390f35b6106b0610b17565b6040516106bd9190610c6f565b60405180910390f35b6106e060048036038101906106db9190610bc9565b610b2a565b6040516106ed9190610c0f565b60405180910390f35b6106fe610b42565b60405161070b9190610c39565b60405180910390f35b600f6020528060005260406000206000915090505481565b601560009054906101000a900473ffffffffffffffffffffffffffffffffffffffff1681565b600a60009054906101000a900473ffffffffffffffffffffffffffffffffffffffff1681565b600160009054906101000a900473ffffffffffffffffffffffffffffffffffffffff1681565b600a60149054906101000a900460ff1681565b60166020528060005260406000206000915090505481565b60065481565b600d81815481106107df57600080fd5b906000526020600020016000915054906101000a900473ffffffffffffffffffffffffffffffffffffffff1681565b601a6020528060005260406000206000915090505481565b60106020528060005260406000206000915090508060000160009054906101000a90047bffffffffffffffffffffffffffffffffffffffffffffffffffffffff169080600001601c9054906101000a900463ffffffff16905082565b600c6020528060005260406000206000915054906101000a900460ff1681565b600b6020528060005260406000206000915054906101000a900460ff1681565b600460009054906101000a900473ffffffffffffffffffffffffffffffffffffffff1681565b601c6020528060005260406000206000915090505481565b600a60169054906101000a900460ff1681565b60116020528060005260406000206000915090508060000160009054906101000a90047bffffffffffffffffffffffffffffffffffffffffffffffffffffffff169080600001601c9054906101000a900463ffffffff16905082565b60096020528060005260406000206000915090508060000160009054906101000a900460ff16908060010154908060030160009054906101000a900460ff16905083565b60075481565b60176020528060005260406000206000915090505481565b600e5481565b600a60179054906101000a900460ff1681565b6012602052816000526040600020602052806000526040600020600091509150505481565b600260009054906101000a900473ffffffffffffffffffffffffffffffffffffffff1681565b60186020528060005260406000206000915090505481565b6013602052816000526040600020602052806000526040600020600091509150505481565b60146020528060005260406000206000915090505481565b60086020528160005260406000208181548110610aa657600080fd5b906000526020600020016000915091509054906101000a900473ffffffffffffffffffffffffffffffffffffffff1681565b600360009054906101000a900473ffffffffffffffffffffffffffffffffffffffff1681565b600a60159054906101000a900460ff1681565b60055481565b601b60009054906101000a900460ff1681565b60196020528060005260406000206000915090505481565b60008054906101000a900473ffffffffffffffffffffffffffffffffffffffff1681565b600080fd5b600073ffffffffffffffffffffffffffffffffffffffff82169050919050565b6000610b9682610b6b565b9050919050565b610ba681610b8b565b8114610bb157600080fd5b50565b600081359050610bc381610b9d565b92915050565b600060208284031215610bdf57610bde610b66565b5b6000610bed84828501610bb4565b91505092915050565b6000819050919050565b610c0981610bf6565b82525050565b6000602082019050610c246000830184610c00565b92915050565b610c3381610b8b565b82525050565b6000602082019050610c4e6000830184610c2a565b92915050565b60008115159050919050565b610c6981610c54565b82525050565b6000602082019050610c846000830184610c60565b92915050565b610c9381610bf6565b8114610c9e57600080fd5b50565b600081359050610cb081610c8a565b92915050565b600060208284031215610ccc57610ccb610b66565b5b6000610cda84828501610ca1565b91505092915050565b6000819050919050565b6000610d08610d03610cfe84610b6b565b610ce3565b610b6b565b9050919050565b6000610d1a82610ced565b9050919050565b6000610d2c82610d0f565b9050919050565b610d3c81610d21565b82525050565b6000602082019050610d576000830184610d33565b92915050565b60007bffffffffffffffffffffffffffffffffffffffffffffffffffffffff82169050919050565b610d8e81610d5d565b82525050565b600063ffffffff82169050919050565b610dad81610d94565b82525050565b6000604082019050610dc86000830185610d85565b610dd56020830184610da4565b9392505050565b6000610de782610d0f565b9050919050565b610df781610ddc565b82525050565b6000602082019050610e126000830184610dee565b92915050565b6000606082019050610e2d6000830186610c60565b610e3a6020830185610c00565b610e476040830184610c60565b949350505050565b60008060408385031215610e6657610e65610b66565b5b6000610e7485828601610bb4565b9250506020610e8585828601610bb4565b9150509250929050565b60008060408385031215610ea657610ea5610b66565b5b6000610eb485828601610bb4565b9250506020610ec585828601610ca1565b915050925092905056fea2646970667358221220ed62d302ea5d9ea614b1152d1cc6dc6d17c155ae9d78f7c03ce914a28e82dd8064736f6c634300080a0033",
  "linkReferences": {},
  "deployedLinkReferences": {}
}