{
  "_format": "hh-sol-artifact-1",
  "contractName": "ComptrollerV3Storage",
  "sourceName": "contracts/ComptrollerStorage.sol",
  "abi": [
    {
      "inputs": [],
      "name": "_borrowGuardianPaused",
      "outputs": [
        {
          "internalType": "bool",
          "name": "",
          "type": "bool"
        }
      ],
      "stateMutability": "view",
      "type": "function"
    },
    {
      "inputs": [],
      "name": "_mintGuardianPaused",
      "outputs": [
        {
          "internalType": "bool",
          "name": "",
          "type": "bool"
        }
      ],
      "stateMutability": "view",
      "type": "function"
    },
    {
      "inputs": [
        {
          "internalType": "address",
          "name": "",
          "type": "address"
        },
        {
          "internalType": "uint256",
          "name": "",
          "type": "uint256"
        }
      ],
      "name": "accountAssets",
      "outputs": [
        {
          "internalType": "contract CToken",
          "name": "",
          "type": "address"
        }
      ],
      "stateMutability": "view",
      "type": "function"
    },
    {
      "inputs": [],
      "name": "admin",
      "outputs": [
        {
          "internalType": "address",
          "name": "",
          "type": "address"
        }
      ],
      "stateMutability": "view",
      "type": "function"
    },
    {
      "inputs": [
        {
          "internalType": "uint256",
          "name": "",
          "type": "uint256"
        }
      ],
      "name": "allMarkets",
      "outputs": [
        {
          "internalType": "contract CToken",
          "name": "",
          "type": "address"
        }
      ],
      "stateMutability": "view",
      "type": "function"
    },
    {
      "inputs": [
        {
          "internalType": "address",
          "name": "",
          "type": "address"
        }
      ],
      "name": "borrowGuardianPaused",
      "outputs": [
        {
          "internalType": "bool",
          "name": "",
          "type": "bool"
        }
      ],
      "stateMutability": "view",
      "type": "function"
    },
    {
      "inputs": [],
      "name": "closeFactorMantissa",
      "outputs": [
        {
          "internalType": "uint256",
          "name": "",
          "type": "uint256"
        }
      ],
      "stateMutability": "view",
      "type": "function"
    },
    {
      "inputs": [
        {
          "internalType": "address",
          "name": "",
          "type": "address"
        }
      ],
      "name": "compAccrued",
      "outputs": [
        {
          "internalType": "uint256",
          "name": "",
          "type": "uint256"
        }
      ],
      "stateMutability": "view",
      "type": "function"
    },
    {
      "inputs": [
        {
          "internalType": "address",
          "name": "",
          "type": "address"
        }
      ],
      "name": "compBorrowState",
      "outputs": [
        {
          "internalType": "uint224",
          "name": "index",
          "type": "uint224"
        },
        {
          "internalType": "uint32",
          "name": "block",
          "type": "uint32"
        }
      ],
      "stateMutability": "view",
      "type": "function"
    },
    {
      "inputs": [
        {
          "internalType": "address",
          "name": "",
          "type": "address"
        },
        {
          "internalType": "address",
          "name": "",
          "type": "address"
        }
      ],
      "name": "compBorrowerIndex",
      "outputs": [
        {
          "internalType": "uint256",
          "name": "",
          "type": "uint256"
        }
      ],
      "stateMutability": "view",
      "type": "function"
    },
    {
      "inputs": [],
      "name": "compRate",
      "outputs": [
        {
          "internalType": "uint256",
          "name": "",
          "type": "uint256"
        }
      ],
      "stateMutability": "view",
      "type": "function"
    },
    {
      "inputs": [
        {
          "internalType": "address",
          "name": "",
          "type": "address"
        }
      ],
      "name": "compSpeeds",
      "outputs": [
        {
          "internalType": "uint256",
          "name": "",
          "type": "uint256"
        }
      ],
      "stateMutability": "view",
      "type": "function"
    },
    {
      "inputs": [
        {
          "internalType": "address",
          "name": "",
          "type": "address"
        },
        {
          "internalType": "address",
          "name": "",
          "type": "address"
        }
      ],
      "name": "compSupplierIndex",
      "outputs": [
        {
          "internalType": "uint256",
          "name": "",
          "type": "uint256"
        }
      ],
      "stateMutability": "view",
      "type": "function"
    },
    {
      "inputs": [
        {
          "internalType": "address",
          "name": "",
          "type": "address"
        }
      ],
      "name": "compSupplyState",
      "outputs": [
        {
          "internalType": "uint224",
          "name": "index",
          "type": "uint224"
        },
        {
          "internalType": "uint32",
          "name": "block",
          "type": "uint32"
        }
      ],
      "stateMutability": "view",
      "type": "function"
    },
    {
      "inputs": [],
      "name": "comptrollerImplementation",
      "outputs": [
        {
          "internalType": "address",
          "name": "",
          "type": "address"
        }
      ],
      "stateMutability": "view",
      "type": "function"
    },
    {
      "inputs": [],
      "name": "liquidationIncentiveMantissa",
      "outputs": [
        {
          "internalType": "uint256",
          "name": "",
          "type": "uint256"
        }
      ],
      "stateMutability": "view",
      "type": "function"
    },
    {
      "inputs": [
        {
          "internalType": "address",
          "name": "",
          "type": "address"
        }
      ],
      "name": "markets",
      "outputs": [
        {
          "internalType": "bool",
          "name": "isListed",
          "type": "bool"
        },
        {
          "internalType": "uint256",
          "name": "collateralFactorMantissa",
          "type": "uint256"
        },
        {
          "internalType": "bool",
          "name": "isComped",
          "type": "bool"
        }
      ],
      "stateMutability": "view",
      "type": "function"
    },
    {
      "inputs": [],
      "name": "maxAssets",
      "outputs": [
        {
          "internalType": "uint256",
          "name": "",
          "type": "uint256"
        }
      ],
      "stateMutability": "view",
      "type": "function"
    },
    {
      "inputs": [
        {
          "internalType": "address",
          "name": "",
          "type": "address"
        }
      ],
      "name": "mintGuardianPaused",
      "outputs": [
        {
          "internalType": "bool",
          "name": "",
          "type": "bool"
        }
      ],
      "stateMutability": "view",
      "type": "function"
    },
    {
      "inputs": [],
      "name": "oracle",
      "outputs": [
        {
          "internalType": "contract PriceOracle",
          "name": "",
          "type": "address"
        }
      ],
      "stateMutability": "view",
      "type": "function"
    },
    {
      "inputs": [],
      "name": "pauseGuardian",
      "outputs": [
        {
          "internalType": "address",
          "name": "",
          "type": "address"
        }
      ],
      "stateMutability": "view",
      "type": "function"
    },
    {
      "inputs": [],
      "name": "pendingAdmin",
      "outputs": [
        {
          "internalType": "address",
          "name": "",
          "type": "address"
        }
      ],
      "stateMutability": "view",
      "type": "function"
    },
    {
      "inputs": [],
      "name": "pendingComptrollerImplementation",
      "outputs": [
        {
          "internalType": "address",
          "name": "",
          "type": "address"
        }
      ],
      "stateMutability": "view",
      "type": "function"
    },
    {
      "inputs": [],
      "name": "seizeGuardianPaused",
      "outputs": [
        {
          "internalType": "bool",
          "name": "",
          "type": "bool"
        }
      ],
      "stateMutability": "view",
      "type": "function"
    },
    {
      "inputs": [],
      "name": "transferGuardianPaused",
      "outputs": [
        {
          "internalType": "bool",
          "name": "",
          "type": "bool"
        }
      ],
      "stateMutability": "view",
      "type": "function"
    }
  ],
  "bytecode": "0x608060405234801561001057600080fd5b50610c58806100206000396000f3fe608060405234801561001057600080fd5b50600436106101735760003560e01c80638e8f294b116100de578063ca0af04311610097578063dcfbc0c711610071578063dcfbc0c7146104b8578063e6653f3d146104d6578063e8755446146104f4578063f851a4401461051257610173565b8063ca0af04314610428578063cc7ebdc414610458578063dce154491461048857610173565b80638e8f294b1461034e57806394b2294b14610380578063aa9007541461039e578063ac0b0bb7146103bc578063b21be7fd146103da578063bb82aa5e1461040a57610173565b80636b79c38d116101305780636b79c38d146102505780636d154ea514610281578063731f0c2b146102b15780637dc0d1d0146102e157806387f76303146102ff5780638c57804e1461031d57610173565b80631d7b33d71461017857806324a3d622146101a857806326782247146101c65780633c94786f146101e45780634ada90af1461020257806352d84d1e14610220575b600080fd5b610192600480360381019061018d919061091c565b610530565b60405161019f9190610962565b60405180910390f35b6101b0610548565b6040516101bd919061098c565b60405180910390f35b6101ce61056e565b6040516101db919061098c565b60405180910390f35b6101ec610594565b6040516101f991906109c2565b60405180910390f35b61020a6105a7565b6040516102179190610962565b60405180910390f35b61023a60048036038101906102359190610a09565b6105ad565b6040516102479190610a95565b60405180910390f35b61026a6004803603810190610265919061091c565b6105ec565b604051610278929190610b06565b60405180910390f35b61029b6004803603810190610296919061091c565b610648565b6040516102a891906109c2565b60405180910390f35b6102cb60048036038101906102c6919061091c565b610668565b6040516102d891906109c2565b60405180910390f35b6102e9610688565b6040516102f69190610b50565b60405180910390f35b6103076106ae565b60405161031491906109c2565b60405180910390f35b6103376004803603810190610332919061091c565b6106c1565b604051610345929190610b06565b60405180910390f35b6103686004803603810190610363919061091c565b61071d565b60405161037793929190610b6b565b60405180910390f35b610388610761565b6040516103959190610962565b60405180910390f35b6103a6610767565b6040516103b39190610962565b60405180910390f35b6103c461076d565b6040516103d191906109c2565b60405180910390f35b6103f460048036038101906103ef9190610ba2565b610780565b6040516104019190610962565b60405180910390f35b6104126107a5565b60405161041f919061098c565b60405180910390f35b610442600480360381019061043d9190610ba2565b6107cb565b60405161044f9190610962565b60405180910390f35b610472600480360381019061046d919061091c565b6107f0565b60405161047f9190610962565b60405180910390f35b6104a2600480360381019061049d9190610be2565b610808565b6040516104af9190610a95565b60405180910390f35b6104c0610856565b6040516104cd919061098c565b60405180910390f35b6104de61087c565b6040516104eb91906109c2565b60405180910390f35b6104fc61088f565b6040516105099190610962565b60405180910390f35b61051a610895565b604051610527919061098c565b60405180910390f35b600f6020528060005260406000206000915090505481565b600a60009054906101000a900473ffffffffffffffffffffffffffffffffffffffff1681565b600160009054906101000a900473ffffffffffffffffffffffffffffffffffffffff1681565b600a60149054906101000a900460ff1681565b60065481565b600d81815481106105bd57600080fd5b906000526020600020016000915054906101000a900473ffffffffffffffffffffffffffffffffffffffff1681565b60106020528060005260406000206000915090508060000160009054906101000a90047bffffffffffffffffffffffffffffffffffffffffffffffffffffffff169080600001601c9054906101000a900463ffffffff16905082565b600c6020528060005260406000206000915054906101000a900460ff1681565b600b6020528060005260406000206000915054906101000a900460ff1681565b600460009054906101000a900473ffffffffffffffffffffffffffffffffffffffff1681565b600a60169054906101000a900460ff1681565b60116020528060005260406000206000915090508060000160009054906101000a90047bffffffffffffffffffffffffffffffffffffffffffffffffffffffff169080600001601c9054906101000a900463ffffffff16905082565b60096020528060005260406000206000915090508060000160009054906101000a900460ff16908060010154908060030160009054906101000a900460ff16905083565b60075481565b600e5481565b600a60179054906101000a900460ff1681565b6012602052816000526040600020602052806000526040600020600091509150505481565b600260009054906101000a900473ffffffffffffffffffffffffffffffffffffffff1681565b6013602052816000526040600020602052806000526040600020600091509150505481565b60146020528060005260406000206000915090505481565b6008602052816000526040600020818154811061082457600080fd5b906000526020600020016000915091509054906101000a900473ffffffffffffffffffffffffffffffffffffffff1681565b600360009054906101000a900473ffffffffffffffffffffffffffffffffffffffff1681565b600a60159054906101000a900460ff1681565b60055481565b60008054906101000a900473ffffffffffffffffffffffffffffffffffffffff1681565b600080fd5b600073ffffffffffffffffffffffffffffffffffffffff82169050919050565b60006108e9826108be565b9050919050565b6108f9816108de565b811461090457600080fd5b50565b600081359050610916816108f0565b92915050565b600060208284031215610932576109316108b9565b5b600061094084828501610907565b91505092915050565b6000819050919050565b61095c81610949565b82525050565b60006020820190506109776000830184610953565b92915050565b610986816108de565b82525050565b60006020820190506109a1600083018461097d565b92915050565b60008115159050919050565b6109bc816109a7565b82525050565b60006020820190506109d760008301846109b3565b92915050565b6109e681610949565b81146109f157600080fd5b50565b600081359050610a03816109dd565b92915050565b600060208284031215610a1f57610a1e6108b9565b5b6000610a2d848285016109f4565b91505092915050565b6000819050919050565b6000610a5b610a56610a51846108be565b610a36565b6108be565b9050919050565b6000610a6d82610a40565b9050919050565b6000610a7f82610a62565b9050919050565b610a8f81610a74565b82525050565b6000602082019050610aaa6000830184610a86565b92915050565b60007bffffffffffffffffffffffffffffffffffffffffffffffffffffffff82169050919050565b610ae181610ab0565b82525050565b600063ffffffff82169050919050565b610b0081610ae7565b82525050565b6000604082019050610b1b6000830185610ad8565b610b286020830184610af7565b9392505050565b6000610b3a82610a62565b9050919050565b610b4a81610b2f565b82525050565b6000602082019050610b656000830184610b41565b92915050565b6000606082019050610b8060008301866109b3565b610b8d6020830185610953565b610b9a60408301846109b3565b949350505050565b60008060408385031215610bb957610bb86108b9565b5b6000610bc785828601610907565b9250506020610bd885828601610907565b9150509250929050565b60008060408385031215610bf957610bf86108b9565b5b6000610c0785828601610907565b9250506020610c18858286016109f4565b915050925092905056fea2646970667358221220bde09a388d9b0bbc054e654941ac872075994bb9687549a156469405df9020dd64736f6c634300080a0033",
  "linkReferences": {},
  "deployedLinkReferences": {}
}