{
  "_format": "hh-sol-artifact-1",
  "contractName": "ComptrollerV1Storage",
  "sourceName": "contracts/ComptrollerStorage.sol",
  "abi": [
    {
      "inputs": [
        {
          "internalType": "address",
          "name": "",
          "type": "address"
        },
        {
          "internalType": "uint256",
          "name": "",
          "type": "uint256"
        }
      ],
      "name": "accountAssets",
      "outputs": [
        {
          "internalType": "contract CToken",
          "name": "",
          "type": "address"
        }
      ],
      "stateMutability": "view",
      "type": "function"
    },
    {
      "inputs": [],
      "name": "admin",
      "outputs": [
        {
          "internalType": "address",
          "name": "",
          "type": "address"
        }
      ],
      "stateMutability": "view",
      "type": "function"
    },
    {
      "inputs": [],
      "name": "closeFactorMantissa",
      "outputs": [
        {
          "internalType": "uint256",
          "name": "",
          "type": "uint256"
        }
      ],
      "stateMutability": "view",
      "type": "function"
    },
    {
      "inputs": [],
      "name": "comptrollerImplementation",
      "outputs": [
        {
          "internalType": "address",
          "name": "",
          "type": "address"
        }
      ],
      "stateMutability": "view",
      "type": "function"
    },
    {
      "inputs": [],
      "name": "liquidationIncentiveMantissa",
      "outputs": [
        {
          "internalType": "uint256",
          "name": "",
          "type": "uint256"
        }
      ],
      "stateMutability": "view",
      "type": "function"
    },
    {
      "inputs": [],
      "name": "maxAssets",
      "outputs": [
        {
          "internalType": "uint256",
          "name": "",
          "type": "uint256"
        }
      ],
      "stateMutability": "view",
      "type": "function"
    },
    {
      "inputs": [],
      "name": "oracle",
      "outputs": [
        {
          "internalType": "contract PriceOracle",
          "name": "",
          "type": "address"
        }
      ],
      "stateMutability": "view",
      "type": "function"
    },
    {
      "inputs": [],
      "name": "pendingAdmin",
      "outputs": [
        {
          "internalType": "address",
          "name": "",
          "type": "address"
        }
      ],
      "stateMutability": "view",
      "type": "function"
    },
    {
      "inputs": [],
      "name": "pendingComptrollerImplementation",
      "outputs": [
        {
          "internalType": "address",
          "name": "",
          "type": "address"
        }
      ],
      "stateMutability": "view",
      "type": "function"
    }
  ],
  "bytecode": "0x608060405234801561001057600080fd5b506104ed806100206000396000f3fe608060405234801561001057600080fd5b50600436106100935760003560e01c8063bb82aa5e11610066578063bb82aa5e14610110578063dce154491461012e578063dcfbc0c71461015e578063e87554461461017c578063f851a4401461019a57610093565b806326782247146100985780634ada90af146100b65780637dc0d1d0146100d457806394b2294b146100f2575b600080fd5b6100a06101b8565b6040516100ad9190610315565b60405180910390f35b6100be6101de565b6040516100cb9190610349565b60405180910390f35b6100dc6101e4565b6040516100e991906103c3565b60405180910390f35b6100fa61020a565b6040516101079190610349565b60405180910390f35b610118610210565b6040516101259190610315565b60405180910390f35b6101486004803603810190610143919061043b565b610236565b604051610155919061049c565b60405180910390f35b610166610284565b6040516101739190610315565b60405180910390f35b6101846102aa565b6040516101919190610349565b60405180910390f35b6101a26102b0565b6040516101af9190610315565b60405180910390f35b600160009054906101000a900473ffffffffffffffffffffffffffffffffffffffff1681565b60065481565b600460009054906101000a900473ffffffffffffffffffffffffffffffffffffffff1681565b60075481565b600260009054906101000a900473ffffffffffffffffffffffffffffffffffffffff1681565b6008602052816000526040600020818154811061025257600080fd5b906000526020600020016000915091509054906101000a900473ffffffffffffffffffffffffffffffffffffffff1681565b600360009054906101000a900473ffffffffffffffffffffffffffffffffffffffff1681565b60055481565b60008054906101000a900473ffffffffffffffffffffffffffffffffffffffff1681565b600073ffffffffffffffffffffffffffffffffffffffff82169050919050565b60006102ff826102d4565b9050919050565b61030f816102f4565b82525050565b600060208201905061032a6000830184610306565b92915050565b6000819050919050565b61034381610330565b82525050565b600060208201905061035e600083018461033a565b92915050565b6000819050919050565b600061038961038461037f846102d4565b610364565b6102d4565b9050919050565b600061039b8261036e565b9050919050565b60006103ad82610390565b9050919050565b6103bd816103a2565b82525050565b60006020820190506103d860008301846103b4565b92915050565b600080fd5b6103ec816102f4565b81146103f757600080fd5b50565b600081359050610409816103e3565b92915050565b61041881610330565b811461042357600080fd5b50565b6000813590506104358161040f565b92915050565b60008060408385031215610452576104516103de565b5b6000610460858286016103fa565b925050602061047185828601610426565b9150509250929050565b600061048682610390565b9050919050565b6104968161047b565b82525050565b60006020820190506104b1600083018461048d565b9291505056fea26469706673582212204711f94680e97a209b364cefcde645bf6fc64ef2f4dbb7c78376a5b001f38c7a64736f6c634300080a0033",
  "linkReferences": {},
  "deployedLinkReferences": {}
}