{
  "_format": "hh-sol-artifact-1",
  "contractName": "ComptrollerV2Storage",
  "sourceName": "contracts/ComptrollerStorage.sol",
  "abi": [
    {
      "inputs": [],
      "name": "_borrowGuardianPaused",
      "outputs": [
        {
          "internalType": "bool",
          "name": "",
          "type": "bool"
        }
      ],
      "stateMutability": "view",
      "type": "function"
    },
    {
      "inputs": [],
      "name": "_mintGuardianPaused",
      "outputs": [
        {
          "internalType": "bool",
          "name": "",
          "type": "bool"
        }
      ],
      "stateMutability": "view",
      "type": "function"
    },
    {
      "inputs": [
        {
          "internalType": "address",
          "name": "",
          "type": "address"
        },
        {
          "internalType": "uint256",
          "name": "",
          "type": "uint256"
        }
      ],
      "name": "accountAssets",
      "outputs": [
        {
          "internalType": "contract CToken",
          "name": "",
          "type": "address"
        }
      ],
      "stateMutability": "view",
      "type": "function"
    },
    {
      "inputs": [],
      "name": "admin",
      "outputs": [
        {
          "internalType": "address",
          "name": "",
          "type": "address"
        }
      ],
      "stateMutability": "view",
      "type": "function"
    },
    {
      "inputs": [
        {
          "internalType": "address",
          "name": "",
          "type": "address"
        }
      ],
      "name": "borrowGuardianPaused",
      "outputs": [
        {
          "internalType": "bool",
          "name": "",
          "type": "bool"
        }
      ],
      "stateMutability": "view",
      "type": "function"
    },
    {
      "inputs": [],
      "name": "closeFactorMantissa",
      "outputs": [
        {
          "internalType": "uint256",
          "name": "",
          "type": "uint256"
        }
      ],
      "stateMutability": "view",
      "type": "function"
    },
    {
      "inputs": [],
      "name": "comptrollerImplementation",
      "outputs": [
        {
          "internalType": "address",
          "name": "",
          "type": "address"
        }
      ],
      "stateMutability": "view",
      "type": "function"
    },
    {
      "inputs": [],
      "name": "liquidationIncentiveMantissa",
      "outputs": [
        {
          "internalType": "uint256",
          "name": "",
          "type": "uint256"
        }
      ],
      "stateMutability": "view",
      "type": "function"
    },
    {
      "inputs": [
        {
          "internalType": "address",
          "name": "",
          "type": "address"
        }
      ],
      "name": "markets",
      "outputs": [
        {
          "internalType": "bool",
          "name": "isListed",
          "type": "bool"
        },
        {
          "internalType": "uint256",
          "name": "collateralFactorMantissa",
          "type": "uint256"
        },
        {
          "internalType": "bool",
          "name": "isComped",
          "type": "bool"
        }
      ],
      "stateMutability": "view",
      "type": "function"
    },
    {
      "inputs": [],
      "name": "maxAssets",
      "outputs": [
        {
          "internalType": "uint256",
          "name": "",
          "type": "uint256"
        }
      ],
      "stateMutability": "view",
      "type": "function"
    },
    {
      "inputs": [
        {
          "internalType": "address",
          "name": "",
          "type": "address"
        }
      ],
      "name": "mintGuardianPaused",
      "outputs": [
        {
          "internalType": "bool",
          "name": "",
          "type": "bool"
        }
      ],
      "stateMutability": "view",
      "type": "function"
    },
    {
      "inputs": [],
      "name": "oracle",
      "outputs": [
        {
          "internalType": "contract PriceOracle",
          "name": "",
          "type": "address"
        }
      ],
      "stateMutability": "view",
      "type": "function"
    },
    {
      "inputs": [],
      "name": "pauseGuardian",
      "outputs": [
        {
          "internalType": "address",
          "name": "",
          "type": "address"
        }
      ],
      "stateMutability": "view",
      "type": "function"
    },
    {
      "inputs": [],
      "name": "pendingAdmin",
      "outputs": [
        {
          "internalType": "address",
          "name": "",
          "type": "address"
        }
      ],
      "stateMutability": "view",
      "type": "function"
    },
    {
      "inputs": [],
      "name": "pendingComptrollerImplementation",
      "outputs": [
        {
          "internalType": "address",
          "name": "",
          "type": "address"
        }
      ],
      "stateMutability": "view",
      "type": "function"
    },
    {
      "inputs": [],
      "name": "seizeGuardianPaused",
      "outputs": [
        {
          "internalType": "bool",
          "name": "",
          "type": "bool"
        }
      ],
      "stateMutability": "view",
      "type": "function"
    },
    {
      "inputs": [],
      "name": "transferGuardianPaused",
      "outputs": [
        {
          "internalType": "bool",
          "name": "",
          "type": "bool"
        }
      ],
      "stateMutability": "view",
      "type": "function"
    }
  ],
  "bytecode": "0x608060405234801561001057600080fd5b5061081d806100206000396000f3fe608060405234801561001057600080fd5b506004361061010b5760003560e01c80638e8f294b116100a2578063dce1544911610071578063dce15449146102b0578063dcfbc0c7146102e0578063e6653f3d146102fe578063e87554461461031c578063f851a4401461033a5761010b565b80638e8f294b1461022457806394b2294b14610256578063ac0b0bb714610274578063bb82aa5e146102925761010b565b80636d154ea5116100de5780636d154ea514610188578063731f0c2b146101b85780637dc0d1d0146101e857806387f76303146102065761010b565b806324a3d62214610110578063267822471461012e5780633c94786f1461014c5780634ada90af1461016a575b600080fd5b610118610358565b60405161012591906105ab565b60405180910390f35b61013661037e565b60405161014391906105ab565b60405180910390f35b6101546103a4565b60405161016191906105e1565b60405180910390f35b6101726103b7565b60405161017f9190610615565b60405180910390f35b6101a2600480360381019061019d9190610661565b6103bd565b6040516101af91906105e1565b60405180910390f35b6101d260048036038101906101cd9190610661565b6103dd565b6040516101df91906105e1565b60405180910390f35b6101f06103fd565b6040516101fd91906106ed565b60405180910390f35b61020e610423565b60405161021b91906105e1565b60405180910390f35b61023e60048036038101906102399190610661565b610436565b60405161024d93929190610708565b60405180910390f35b61025e61047a565b60405161026b9190610615565b60405180910390f35b61027c610480565b60405161028991906105e1565b60405180910390f35b61029a610493565b6040516102a791906105ab565b60405180910390f35b6102ca60048036038101906102c5919061076b565b6104b9565b6040516102d791906107cc565b60405180910390f35b6102e8610507565b6040516102f591906105ab565b60405180910390f35b61030661052d565b60405161031391906105e1565b60405180910390f35b610324610540565b6040516103319190610615565b60405180910390f35b610342610546565b60405161034f91906105ab565b60405180910390f35b600a60009054906101000a900473ffffffffffffffffffffffffffffffffffffffff1681565b600160009054906101000a900473ffffffffffffffffffffffffffffffffffffffff1681565b600a60149054906101000a900460ff1681565b60065481565b600c6020528060005260406000206000915054906101000a900460ff1681565b600b6020528060005260406000206000915054906101000a900460ff1681565b600460009054906101000a900473ffffffffffffffffffffffffffffffffffffffff1681565b600a60169054906101000a900460ff1681565b60096020528060005260406000206000915090508060000160009054906101000a900460ff16908060010154908060030160009054906101000a900460ff16905083565b60075481565b600a60179054906101000a900460ff1681565b600260009054906101000a900473ffffffffffffffffffffffffffffffffffffffff1681565b600860205281600052604060002081815481106104d557600080fd5b906000526020600020016000915091509054906101000a900473ffffffffffffffffffffffffffffffffffffffff1681565b600360009054906101000a900473ffffffffffffffffffffffffffffffffffffffff1681565b600a60159054906101000a900460ff1681565b60055481565b60008054906101000a900473ffffffffffffffffffffffffffffffffffffffff1681565b600073ffffffffffffffffffffffffffffffffffffffff82169050919050565b60006105958261056a565b9050919050565b6105a58161058a565b82525050565b60006020820190506105c0600083018461059c565b92915050565b60008115159050919050565b6105db816105c6565b82525050565b60006020820190506105f660008301846105d2565b92915050565b6000819050919050565b61060f816105fc565b82525050565b600060208201905061062a6000830184610606565b92915050565b600080fd5b61063e8161058a565b811461064957600080fd5b50565b60008135905061065b81610635565b92915050565b60006020828403121561067757610676610630565b5b60006106858482850161064c565b91505092915050565b6000819050919050565b60006106b36106ae6106a98461056a565b61068e565b61056a565b9050919050565b60006106c582610698565b9050919050565b60006106d7826106ba565b9050919050565b6106e7816106cc565b82525050565b600060208201905061070260008301846106de565b92915050565b600060608201905061071d60008301866105d2565b61072a6020830185610606565b61073760408301846105d2565b949350505050565b610748816105fc565b811461075357600080fd5b50565b6000813590506107658161073f565b92915050565b6000806040838503121561078257610781610630565b5b60006107908582860161064c565b92505060206107a185828601610756565b9150509250929050565b60006107b6826106ba565b9050919050565b6107c6816107ab565b82525050565b60006020820190506107e160008301846107bd565b9291505056fea26469706673582212204be9656dbe0df48a9d8ed7ed273d74b05d5efc00036e4b04bd8ab57becc575a564736f6c634300080a0033",
  "linkReferences": {},
  "deployedLinkReferences": {}
}