{
  "_format": "hh-sol-artifact-1",
  "contractName": "ComptrollerV5Storage",
  "sourceName": "contracts/ComptrollerStorage.sol",
  "abi": [
    {
      "inputs": [],
      "name": "_borrowGuardianPaused",
      "outputs": [
        {
          "internalType": "bool",
          "name": "",
          "type": "bool"
        }
      ],
      "stateMutability": "view",
      "type": "function"
    },
    {
      "inputs": [],
      "name": "_mintGuardianPaused",
      "outputs": [
        {
          "internalType": "bool",
          "name": "",
          "type": "bool"
        }
      ],
      "stateMutability": "view",
      "type": "function"
    },
    {
      "inputs": [
        {
          "internalType": "address",
          "name": "",
          "type": "address"
        },
        {
          "internalType": "uint256",
          "name": "",
          "type": "uint256"
        }
      ],
      "name": "accountAssets",
      "outputs": [
        {
          "internalType": "contract CToken",
          "name": "",
          "type": "address"
        }
      ],
      "stateMutability": "view",
      "type": "function"
    },
    {
      "inputs": [],
      "name": "admin",
      "outputs": [
        {
          "internalType": "address",
          "name": "",
          "type": "address"
        }
      ],
      "stateMutability": "view",
      "type": "function"
    },
    {
      "inputs": [
        {
          "internalType": "uint256",
          "name": "",
          "type": "uint256"
        }
      ],
      "name": "allMarkets",
      "outputs": [
        {
          "internalType": "contract CToken",
          "name": "",
          "type": "address"
        }
      ],
      "stateMutability": "view",
      "type": "function"
    },
    {
      "inputs": [],
      "name": "borrowCapGuardian",
      "outputs": [
        {
          "internalType": "address",
          "name": "",
          "type": "address"
        }
      ],
      "stateMutability": "view",
      "type": "function"
    },
    {
      "inputs": [
        {
          "internalType": "address",
          "name": "",
          "type": "address"
        }
      ],
      "name": "borrowCaps",
      "outputs": [
        {
          "internalType": "uint256",
          "name": "",
          "type": "uint256"
        }
      ],
      "stateMutability": "view",
      "type": "function"
    },
    {
      "inputs": [
        {
          "internalType": "address",
          "name": "",
          "type": "address"
        }
      ],
      "name": "borrowGuardianPaused",
      "outputs": [
        {
          "internalType": "bool",
          "name": "",
          "type": "bool"
        }
      ],
      "stateMutability": "view",
      "type": "function"
    },
    {
      "inputs": [],
      "name": "closeFactorMantissa",
      "outputs": [
        {
          "internalType": "uint256",
          "name": "",
          "type": "uint256"
        }
      ],
      "stateMutability": "view",
      "type": "function"
    },
    {
      "inputs": [
        {
          "internalType": "address",
          "name": "",
          "type": "address"
        }
      ],
      "name": "compAccrued",
      "outputs": [
        {
          "internalType": "uint256",
          "name": "",
          "type": "uint256"
        }
      ],
      "stateMutability": "view",
      "type": "function"
    },
    {
      "inputs": [
        {
          "internalType": "address",
          "name": "",
          "type": "address"
        }
      ],
      "name": "compBorrowState",
      "outputs": [
        {
          "internalType": "uint224",
          "name": "index",
          "type": "uint224"
        },
        {
          "internalType": "uint32",
          "name": "block",
          "type": "uint32"
        }
      ],
      "stateMutability": "view",
      "type": "function"
    },
    {
      "inputs": [
        {
          "internalType": "address",
          "name": "",
          "type": "address"
        },
        {
          "internalType": "address",
          "name": "",
          "type": "address"
        }
      ],
      "name": "compBorrowerIndex",
      "outputs": [
        {
          "internalType": "uint256",
          "name": "",
          "type": "uint256"
        }
      ],
      "stateMutability": "view",
      "type": "function"
    },
    {
      "inputs": [
        {
          "internalType": "address",
          "name": "",
          "type": "address"
        }
      ],
      "name": "compContributorSpeeds",
      "outputs": [
        {
          "internalType": "uint256",
          "name": "",
          "type": "uint256"
        }
      ],
      "stateMutability": "view",
      "type": "function"
    },
    {
      "inputs": [],
      "name": "compRate",
      "outputs": [
        {
          "internalType": "uint256",
          "name": "",
          "type": "uint256"
        }
      ],
      "stateMutability": "view",
      "type": "function"
    },
    {
      "inputs": [
        {
          "internalType": "address",
          "name": "",
          "type": "address"
        }
      ],
      "name": "compSpeeds",
      "outputs": [
        {
          "internalType": "uint256",
          "name": "",
          "type": "uint256"
        }
      ],
      "stateMutability": "view",
      "type": "function"
    },
    {
      "inputs": [
        {
          "internalType": "address",
          "name": "",
          "type": "address"
        },
        {
          "internalType": "address",
          "name": "",
          "type": "address"
        }
      ],
      "name": "compSupplierIndex",
      "outputs": [
        {
          "internalType": "uint256",
          "name": "",
          "type": "uint256"
        }
      ],
      "stateMutability": "view",
      "type": "function"
    },
    {
      "inputs": [
        {
          "internalType": "address",
          "name": "",
          "type": "address"
        }
      ],
      "name": "compSupplyState",
      "outputs": [
        {
          "internalType": "uint224",
          "name": "index",
          "type": "uint224"
        },
        {
          "internalType": "uint32",
          "name": "block",
          "type": "uint32"
        }
      ],
      "stateMutability": "view",
      "type": "function"
    },
    {
      "inputs": [],
      "name": "comptrollerImplementation",
      "outputs": [
        {
          "internalType": "address",
          "name": "",
          "type": "address"
        }
      ],
      "stateMutability": "view",
      "type": "function"
    },
    {
      "inputs": [
        {
          "internalType": "address",
          "name": "",
          "type": "address"
        }
      ],
      "name": "lastContributorBlock",
      "outputs": [
        {
          "internalType": "uint256",
          "name": "",
          "type": "uint256"
        }
      ],
      "stateMutability": "view",
      "type": "function"
    },
    {
      "inputs": [],
      "name": "liquidationIncentiveMantissa",
      "outputs": [
        {
          "internalType": "uint256",
          "name": "",
          "type": "uint256"
        }
      ],
      "stateMutability": "view",
      "type": "function"
    },
    {
      "inputs": [
        {
          "internalType": "address",
          "name": "",
          "type": "address"
        }
      ],
      "name": "markets",
      "outputs": [
        {
          "internalType": "bool",
          "name": "isListed",
          "type": "bool"
        },
        {
          "internalType": "uint256",
          "name": "collateralFactorMantissa",
          "type": "uint256"
        },
        {
          "internalType": "bool",
          "name": "isComped",
          "type": "bool"
        }
      ],
      "stateMutability": "view",
      "type": "function"
    },
    {
      "inputs": [],
      "name": "maxAssets",
      "outputs": [
        {
          "internalType": "uint256",
          "name": "",
          "type": "uint256"
        }
      ],
      "stateMutability": "view",
      "type": "function"
    },
    {
      "inputs": [
        {
          "internalType": "address",
          "name": "",
          "type": "address"
        }
      ],
      "name": "mintGuardianPaused",
      "outputs": [
        {
          "internalType": "bool",
          "name": "",
          "type": "bool"
        }
      ],
      "stateMutability": "view",
      "type": "function"
    },
    {
      "inputs": [],
      "name": "oracle",
      "outputs": [
        {
          "internalType": "contract PriceOracle",
          "name": "",
          "type": "address"
        }
      ],
      "stateMutability": "view",
      "type": "function"
    },
    {
      "inputs": [],
      "name": "pauseGuardian",
      "outputs": [
        {
          "internalType": "address",
          "name": "",
          "type": "address"
        }
      ],
      "stateMutability": "view",
      "type": "function"
    },
    {
      "inputs": [],
      "name": "pendingAdmin",
      "outputs": [
        {
          "internalType": "address",
          "name": "",
          "type": "address"
        }
      ],
      "stateMutability": "view",
      "type": "function"
    },
    {
      "inputs": [],
      "name": "pendingComptrollerImplementation",
      "outputs": [
        {
          "internalType": "address",
          "name": "",
          "type": "address"
        }
      ],
      "stateMutability": "view",
      "type": "function"
    },
    {
      "inputs": [],
      "name": "seizeGuardianPaused",
      "outputs": [
        {
          "internalType": "bool",
          "name": "",
          "type": "bool"
        }
      ],
      "stateMutability": "view",
      "type": "function"
    },
    {
      "inputs": [],
      "name": "transferGuardianPaused",
      "outputs": [
        {
          "internalType": "bool",
          "name": "",
          "type": "bool"
        }
      ],
      "stateMutability": "view",
      "type": "function"
    }
  ],
  "bytecode": "0x608060405234801561001057600080fd5b50610dd0806100206000396000f3fe608060405234801561001057600080fd5b50600436106101cf5760003560e01c80638e8f294b11610104578063bea6b8b8116100a2578063dcfbc0c711610071578063dcfbc0c7146105c2578063e6653f3d146105e0578063e8755446146105fe578063f851a4401461061c576101cf565b8063bea6b8b814610502578063ca0af04314610532578063cc7ebdc414610562578063dce1544914610592576101cf565b8063aa900754116100de578063aa90075414610478578063ac0b0bb714610496578063b21be7fd146104b4578063bb82aa5e146104e4576101cf565b80638e8f294b146103f857806394b2294b1461042a578063986ab83814610448576101cf565b806352d84d1e11610171578063731f0c2b1161014b578063731f0c2b1461035b5780637dc0d1d01461038b57806387f76303146103a95780638c57804e146103c7576101cf565b806352d84d1e146102ca5780636b79c38d146102fa5780636d154ea51461032b576101cf565b806326782247116101ad57806326782247146102405780633c94786f1461025e5780634a5844321461027c5780634ada90af146102ac576101cf565b80631d7b33d7146101d457806321af45691461020457806324a3d62214610222575b600080fd5b6101ee60048036038101906101e99190610a94565b61063a565b6040516101fb9190610ada565b60405180910390f35b61020c610652565b6040516102199190610b04565b60405180910390f35b61022a610678565b6040516102379190610b04565b60405180910390f35b61024861069e565b6040516102559190610b04565b60405180910390f35b6102666106c4565b6040516102739190610b3a565b60405180910390f35b61029660048036038101906102919190610a94565b6106d7565b6040516102a39190610ada565b60405180910390f35b6102b46106ef565b6040516102c19190610ada565b60405180910390f35b6102e460048036038101906102df9190610b81565b6106f5565b6040516102f19190610c0d565b60405180910390f35b610314600480360381019061030f9190610a94565b610734565b604051610322929190610c7e565b60405180910390f35b61034560048036038101906103409190610a94565b610790565b6040516103529190610b3a565b60405180910390f35b61037560048036038101906103709190610a94565b6107b0565b6040516103829190610b3a565b60405180910390f35b6103936107d0565b6040516103a09190610cc8565b60405180910390f35b6103b16107f6565b6040516103be9190610b3a565b60405180910390f35b6103e160048036038101906103dc9190610a94565b610809565b6040516103ef929190610c7e565b60405180910390f35b610412600480360381019061040d9190610a94565b610865565b60405161042193929190610ce3565b60405180910390f35b6104326108a9565b60405161043f9190610ada565b60405180910390f35b610462600480360381019061045d9190610a94565b6108af565b60405161046f9190610ada565b60405180910390f35b6104806108c7565b60405161048d9190610ada565b60405180910390f35b61049e6108cd565b6040516104ab9190610b3a565b60405180910390f35b6104ce60048036038101906104c99190610d1a565b6108e0565b6040516104db9190610ada565b60405180910390f35b6104ec610905565b6040516104f99190610b04565b60405180910390f35b61051c60048036038101906105179190610a94565b61092b565b6040516105299190610ada565b60405180910390f35b61054c60048036038101906105479190610d1a565b610943565b6040516105599190610ada565b60405180910390f35b61057c60048036038101906105779190610a94565b610968565b6040516105899190610ada565b60405180910390f35b6105ac60048036038101906105a79190610d5a565b610980565b6040516105b99190610c0d565b60405180910390f35b6105ca6109ce565b6040516105d79190610b04565b60405180910390f35b6105e86109f4565b6040516105f59190610b3a565b60405180910390f35b610606610a07565b6040516106139190610ada565b60405180910390f35b610624610a0d565b6040516106319190610b04565b60405180910390f35b600f6020528060005260406000206000915090505481565b601560009054906101000a900473ffffffffffffffffffffffffffffffffffffffff1681565b600a60009054906101000a900473ffffffffffffffffffffffffffffffffffffffff1681565b600160009054906101000a900473ffffffffffffffffffffffffffffffffffffffff1681565b600a60149054906101000a900460ff1681565b60166020528060005260406000206000915090505481565b60065481565b600d818154811061070557600080fd5b906000526020600020016000915054906101000a900473ffffffffffffffffffffffffffffffffffffffff1681565b60106020528060005260406000206000915090508060000160009054906101000a90047bffffffffffffffffffffffffffffffffffffffffffffffffffffffff169080600001601c9054906101000a900463ffffffff16905082565b600c6020528060005260406000206000915054906101000a900460ff1681565b600b6020528060005260406000206000915054906101000a900460ff1681565b600460009054906101000a900473ffffffffffffffffffffffffffffffffffffffff1681565b600a60169054906101000a900460ff1681565b60116020528060005260406000206000915090508060000160009054906101000a90047bffffffffffffffffffffffffffffffffffffffffffffffffffffffff169080600001601c9054906101000a900463ffffffff16905082565b60096020528060005260406000206000915090508060000160009054906101000a900460ff16908060010154908060030160009054906101000a900460ff16905083565b60075481565b60176020528060005260406000206000915090505481565b600e5481565b600a60179054906101000a900460ff1681565b6012602052816000526040600020602052806000526040600020600091509150505481565b600260009054906101000a900473ffffffffffffffffffffffffffffffffffffffff1681565b60186020528060005260406000206000915090505481565b6013602052816000526040600020602052806000526040600020600091509150505481565b60146020528060005260406000206000915090505481565b6008602052816000526040600020818154811061099c57600080fd5b906000526020600020016000915091509054906101000a900473ffffffffffffffffffffffffffffffffffffffff1681565b600360009054906101000a900473ffffffffffffffffffffffffffffffffffffffff1681565b600a60159054906101000a900460ff1681565b60055481565b60008054906101000a900473ffffffffffffffffffffffffffffffffffffffff1681565b600080fd5b600073ffffffffffffffffffffffffffffffffffffffff82169050919050565b6000610a6182610a36565b9050919050565b610a7181610a56565b8114610a7c57600080fd5b50565b600081359050610a8e81610a68565b92915050565b600060208284031215610aaa57610aa9610a31565b5b6000610ab884828501610a7f565b91505092915050565b6000819050919050565b610ad481610ac1565b82525050565b6000602082019050610aef6000830184610acb565b92915050565b610afe81610a56565b82525050565b6000602082019050610b196000830184610af5565b92915050565b60008115159050919050565b610b3481610b1f565b82525050565b6000602082019050610b4f6000830184610b2b565b92915050565b610b5e81610ac1565b8114610b6957600080fd5b50565b600081359050610b7b81610b55565b92915050565b600060208284031215610b9757610b96610a31565b5b6000610ba584828501610b6c565b91505092915050565b6000819050919050565b6000610bd3610bce610bc984610a36565b610bae565b610a36565b9050919050565b6000610be582610bb8565b9050919050565b6000610bf782610bda565b9050919050565b610c0781610bec565b82525050565b6000602082019050610c226000830184610bfe565b92915050565b60007bffffffffffffffffffffffffffffffffffffffffffffffffffffffff82169050919050565b610c5981610c28565b82525050565b600063ffffffff82169050919050565b610c7881610c5f565b82525050565b6000604082019050610c936000830185610c50565b610ca06020830184610c6f565b9392505050565b6000610cb282610bda565b9050919050565b610cc281610ca7565b82525050565b6000602082019050610cdd6000830184610cb9565b92915050565b6000606082019050610cf86000830186610b2b565b610d056020830185610acb565b610d126040830184610b2b565b949350505050565b60008060408385031215610d3157610d30610a31565b5b6000610d3f85828601610a7f565b9250506020610d5085828601610a7f565b9150509250929050565b60008060408385031215610d7157610d70610a31565b5b6000610d7f85828601610a7f565b9250506020610d9085828601610b6c565b915050925092905056fea2646970667358221220658389d08452c7e03d2756ac2b71f721277138a4922805548fe160e7e826300564736f6c634300080a0033",
  "linkReferences": {},
  "deployedLinkReferences": {}
}