{
  "_format": "hh-sol-artifact-1",
  "contractName": "DAIInterestRateModelV3",
  "sourceName": "contracts/DAIInterestRateModelV3.sol",
  "abi": [
    {
      "inputs": [
        {
          "internalType": "uint256",
          "name": "jumpMultiplierPerYear",
          "type": "uint256"
        },
        {
          "internalType": "uint256",
          "name": "kink_",
          "type": "uint256"
        },
        {
          "internalType": "address",
          "name": "pot_",
          "type": "address"
        },
        {
          "internalType": "address",
          "name": "jug_",
          "type": "address"
        },
        {
          "internalType": "address",
          "name": "owner_",
          "type": "address"
        }
      ],
      "stateMutability": "nonpayable",
      "type": "constructor"
    },
    {
      "anonymous": false,
      "inputs": [
        {
          "indexed": false,
          "internalType": "uint256",
          "name": "baseRatePerBlock",
          "type": "uint256"
        },
        {
          "indexed": false,
          "internalType": "uint256",
          "name": "multiplierPerBlock",
          "type": "uint256"
        },
        {
          "indexed": false,
          "internalType": "uint256",
          "name": "jumpMultiplierPerBlock",
          "type": "uint256"
        },
        {
          "indexed": false,
          "internalType": "uint256",
          "name": "kink",
          "type": "uint256"
        }
      ],
      "name": "NewInterestParams",
      "type": "event"
    },
    {
      "inputs": [],
      "name": "assumedOneMinusReserveFactorMantissa",
      "outputs": [
        {
          "internalType": "uint256",
          "name": "",
          "type": "uint256"
        }
      ],
      "stateMutability": "view",
      "type": "function"
    },
    {
      "inputs": [],
      "name": "baseRatePerBlock",
      "outputs": [
        {
          "internalType": "uint256",
          "name": "",
          "type": "uint256"
        }
      ],
      "stateMutability": "view",
      "type": "function"
    },
    {
      "inputs": [],
      "name": "blocksPerYear",
      "outputs": [
        {
          "internalType": "uint256",
          "name": "",
          "type": "uint256"
        }
      ],
      "stateMutability": "view",
      "type": "function"
    },
    {
      "inputs": [],
      "name": "dsrPerBlock",
      "outputs": [
        {
          "internalType": "uint256",
          "name": "",
          "type": "uint256"
        }
      ],
      "stateMutability": "view",
      "type": "function"
    },
    {
      "inputs": [],
      "name": "gapPerBlock",
      "outputs": [
        {
          "internalType": "uint256",
          "name": "",
          "type": "uint256"
        }
      ],
      "stateMutability": "view",
      "type": "function"
    },
    {
      "inputs": [
        {
          "internalType": "uint256",
          "name": "cash",
          "type": "uint256"
        },
        {
          "internalType": "uint256",
          "name": "borrows",
          "type": "uint256"
        },
        {
          "internalType": "uint256",
          "name": "reserves",
          "type": "uint256"
        }
      ],
      "name": "getBorrowRate",
      "outputs": [
        {
          "internalType": "uint256",
          "name": "",
          "type": "uint256"
        }
      ],
      "stateMutability": "view",
      "type": "function"
    },
    {
      "inputs": [
        {
          "internalType": "uint256",
          "name": "cash",
          "type": "uint256"
        },
        {
          "internalType": "uint256",
          "name": "borrows",
          "type": "uint256"
        },
        {
          "internalType": "uint256",
          "name": "reserves",
          "type": "uint256"
        },
        {
          "internalType": "uint256",
          "name": "reserveFactorMantissa",
          "type": "uint256"
        }
      ],
      "name": "getSupplyRate",
      "outputs": [
        {
          "internalType": "uint256",
          "name": "",
          "type": "uint256"
        }
      ],
      "stateMutability": "view",
      "type": "function"
    },
    {
      "inputs": [],
      "name": "isInterestRateModel",
      "outputs": [
        {
          "internalType": "bool",
          "name": "",
          "type": "bool"
        }
      ],
      "stateMutability": "view",
      "type": "function"
    },
    {
      "inputs": [],
      "name": "jumpMultiplierPerBlock",
      "outputs": [
        {
          "internalType": "uint256",
          "name": "",
          "type": "uint256"
        }
      ],
      "stateMutability": "view",
      "type": "function"
    },
    {
      "inputs": [],
      "name": "kink",
      "outputs": [
        {
          "internalType": "uint256",
          "name": "",
          "type": "uint256"
        }
      ],
      "stateMutability": "view",
      "type": "function"
    },
    {
      "inputs": [],
      "name": "multiplierPerBlock",
      "outputs": [
        {
          "internalType": "uint256",
          "name": "",
          "type": "uint256"
        }
      ],
      "stateMutability": "view",
      "type": "function"
    },
    {
      "inputs": [],
      "name": "owner",
      "outputs": [
        {
          "internalType": "address",
          "name": "",
          "type": "address"
        }
      ],
      "stateMutability": "view",
      "type": "function"
    },
    {
      "inputs": [],
      "name": "poke",
      "outputs": [],
      "stateMutability": "nonpayable",
      "type": "function"
    },
    {
      "inputs": [
        {
          "internalType": "uint256",
          "name": "baseRatePerYear",
          "type": "uint256"
        },
        {
          "internalType": "uint256",
          "name": "gapPerYear",
          "type": "uint256"
        },
        {
          "internalType": "uint256",
          "name": "jumpMultiplierPerYear",
          "type": "uint256"
        },
        {
          "internalType": "uint256",
          "name": "kink_",
          "type": "uint256"
        }
      ],
      "name": "updateJumpRateModel",
      "outputs": [],
      "stateMutability": "nonpayable",
      "type": "function"
    },
    {
      "inputs": [
        {
          "internalType": "uint256",
          "name": "cash",
          "type": "uint256"
        },
        {
          "internalType": "uint256",
          "name": "borrows",
          "type": "uint256"
        },
        {
          "internalType": "uint256",
          "name": "reserves",
          "type": "uint256"
        }
      ],
      "name": "utilizationRate",
      "outputs": [
        {
          "internalType": "uint256",
          "name": "",
          "type": "uint256"
        }
      ],
      "stateMutability": "pure",
      "type": "function"
    }
  ],
  "bytecode": "0x60806040523480156200001157600080fd5b506040516200186938038062001869833981810160405281019062000037919062000621565b6000808686848484848484806000806101000a81548173ffffffffffffffffffffffffffffffffffffffff021916908373ffffffffffffffffffffffffffffffffffffffff16021790555062000096858585856200015b60201b60201c565b5050505050505050505062201480668e1bc9bf040000620000b8919062000707565b60058190555082600660006101000a81548173ffffffffffffffffffffffffffffffffffffffff021916908373ffffffffffffffffffffffffffffffffffffffff16021790555081600760006101000a81548173ffffffffffffffffffffffffffffffffffffffff021916908373ffffffffffffffffffffffffffffffffffffffff160217905550620001506200021660201b60201c565b505050505062000950565b62201480846200016c919062000707565b60028190555080622014806200018391906200073f565b670de0b6b3a7640000846200019991906200073f565b620001a5919062000707565b6001819055506220148082620001bc919062000707565b600381905550806004819055507f6960ab234c7ef4b0c9197100f5393cfcde7c453ac910a27bd2000aa1dd4c068d600254600154600354600454604051620002089493929190620007b1565b60405180910390a150505050565b6000600760009054906101000a900473ffffffffffffffffffffffffffffffffffffffff1673ffffffffffffffffffffffffffffffffffffffff1663d9638d366040518163ffffffff1660e01b8152600401620002739062000824565b6040805180830381865afa15801562000290573d6000803e3d6000fd5b505050506040513d601f19601f82011682018060405250810190620002b691906200083f565b5090506000600f633b9aca006b033b2e3c9fd0803ce8000000600760009054906101000a900473ffffffffffffffffffffffffffffffffffffffff1673ffffffffffffffffffffffffffffffffffffffff16635001f3b56040518163ffffffff1660e01b8152600401602060405180830381865afa1580156200033d573d6000803e3d6000fd5b505050506040513d601f19601f8201168201806040525081019062000363919062000886565b85620003709190620008b8565b6200037c919062000915565b62000388919062000707565b6200039491906200073f565b9050670d2f13f7789f0000670de0b6b3a7640000620003b8620004a960201b60201c565b620003c491906200073f565b620003d0919062000707565b6002819055508060025410156200043057600454670de0b6b3a76400006005546002548462000400919062000915565b6200040c9190620008b8565b6200041891906200073f565b62000424919062000707565b6001819055506200045e565b600454670de0b6b3a76400006005546200044b91906200073f565b62000457919062000707565b6001819055505b7f6960ab234c7ef4b0c9197100f5393cfcde7c453ac910a27bd2000aa1dd4c068d6002546001546003546004546040516200049d9493929190620007b1565b60405180910390a15050565b6000600f633b9aca006b033b2e3c9fd0803ce8000000600660009054906101000a900473ffffffffffffffffffffffffffffffffffffffff1673ffffffffffffffffffffffffffffffffffffffff1663487bf0826040518163ffffffff1660e01b8152600401602060405180830381865afa1580156200052d573d6000803e3d6000fd5b505050506040513d601f19601f8201168201806040525081019062000553919062000886565b6200055f919062000915565b6200056b919062000707565b6200057791906200073f565b905090565b600080fd5b6000819050919050565b620005968162000581565b8114620005a257600080fd5b50565b600081519050620005b6816200058b565b92915050565b600073ffffffffffffffffffffffffffffffffffffffff82169050919050565b6000620005e982620005bc565b9050919050565b620005fb81620005dc565b81146200060757600080fd5b50565b6000815190506200061b81620005f0565b92915050565b600080600080600060a0868803121562000640576200063f6200057c565b5b60006200065088828901620005a5565b95505060206200066388828901620005a5565b945050604062000676888289016200060a565b935050606062000689888289016200060a565b92505060806200069c888289016200060a565b9150509295509295909350565b7f4e487b7100000000000000000000000000000000000000000000000000000000600052601260045260246000fd5b7f4e487b7100000000000000000000000000000000000000000000000000000000600052601160045260246000fd5b6000620007148262000581565b9150620007218362000581565b925082620007345762000733620006a9565b5b828204905092915050565b60006200074c8262000581565b9150620007598362000581565b9250817fffffffffffffffffffffffffffffffffffffffffffffffffffffffffffffffff0483118215151615620007955762000794620006d8565b5b828202905092915050565b620007ab8162000581565b82525050565b6000608082019050620007c86000830187620007a0565b620007d76020830186620007a0565b620007e66040830185620007a0565b620007f56060830184620007a0565b95945050505050565b7f4554482d41000000000000000000000000000000000000000000000000000000815250565b60006020820190506200083a60008301620007fe565b919050565b600080604083850312156200085957620008586200057c565b5b60006200086985828601620005a5565b92505060206200087c85828601620005a5565b9150509250929050565b6000602082840312156200089f576200089e6200057c565b5b6000620008af84828501620005a5565b91505092915050565b6000620008c58262000581565b9150620008d28362000581565b9250827fffffffffffffffffffffffffffffffffffffffffffffffffffffffffffffffff038211156200090a5762000909620006d8565b5b828201905092915050565b6000620009228262000581565b91506200092f8362000581565b925082821015620009455762000944620006d8565b5b828203905092915050565b610f0980620009606000396000f3fe608060405234801561001057600080fd5b50600436106100f55760003560e01c80638da5cb5b11610097578063b9f9850a11610066578063b9f9850a14610264578063f14039de14610282578063f52d21f3146102a0578063fd2da339146102be576100f5565b80638da5cb5b146101da57806396456c5c146101f8578063a385fb9614610216578063b816881614610234576100f5565b80632191f92a116100d35780632191f92a146101505780636dac7cd51461016e5780636e71e2d81461018c5780638726bb89146101bc576100f5565b806315f24053146100fa578063181783581461012a5780632037f3e714610134575b600080fd5b610114600480360381019061010f9190610a41565b6102dc565b6040516101219190610aa3565b60405180910390f35b6101326102f2565b005b61014e60048036038101906101499190610abe565b610559565b005b610158610617565b6040516101659190610b40565b60405180910390f35b61017661061c565b6040516101839190610aa3565b60405180910390f35b6101a660048036038101906101a19190610a41565b610628565b6040516101b39190610aa3565b60405180910390f35b6101c461067a565b6040516101d19190610aa3565b60405180910390f35b6101e2610680565b6040516101ef9190610b9c565b60405180910390f35b6102006106a4565b60405161020d9190610aa3565b60405180910390f35b61021e61076e565b60405161022b9190610aa3565b60405180910390f35b61024e60048036038101906102499190610abe565b610775565b60405161025b9190610aa3565b60405180910390f35b61026c6107f0565b6040516102799190610aa3565b60405180910390f35b61028a6107f6565b6040516102979190610aa3565b60405180910390f35b6102a86107fc565b6040516102b59190610aa3565b60405180910390f35b6102c6610802565b6040516102d39190610aa3565b60405180910390f35b60006102e9848484610808565b90509392505050565b6000600760009054906101000a900473ffffffffffffffffffffffffffffffffffffffff1673ffffffffffffffffffffffffffffffffffffffff1663d9638d366040518163ffffffff1660e01b815260040161034d90610bdd565b6040805180830381865afa158015610369573d6000803e3d6000fd5b505050506040513d601f19601f8201168201806040525081019061038d9190610c0b565b5090506000600f633b9aca006b033b2e3c9fd0803ce8000000600760009054906101000a900473ffffffffffffffffffffffffffffffffffffffff1673ffffffffffffffffffffffffffffffffffffffff16635001f3b56040518163ffffffff1660e01b8152600401602060405180830381865afa158015610413573d6000803e3d6000fd5b505050506040513d601f19601f820116820180604052508101906104379190610c4b565b856104429190610ca7565b61044c9190610cfd565b6104569190610d60565b6104609190610d91565b9050670d2f13f7789f0000670de0b6b3a764000061047c6106a4565b6104869190610d91565b6104909190610d60565b6002819055508060025410156104e657600454670de0b6b3a7640000600554600254846104bd9190610cfd565b6104c79190610ca7565b6104d19190610d91565b6104db9190610d60565b600181905550610510565b600454670de0b6b3a76400006005546104ff9190610d91565b6105099190610d60565b6001819055505b7f6960ab234c7ef4b0c9197100f5393cfcde7c453ac910a27bd2000aa1dd4c068d60025460015460035460045460405161054d9493929190610deb565b60405180910390a15050565b60008054906101000a900473ffffffffffffffffffffffffffffffffffffffff1673ffffffffffffffffffffffffffffffffffffffff163373ffffffffffffffffffffffffffffffffffffffff16146105e7576040517f08c379a00000000000000000000000000000000000000000000000000000000081526004016105de90610eb3565b60405180910390fd5b62201480836105f69190610d60565b60058190555061060960008084846108d6565b6106116102f2565b50505050565b600181565b670d2f13f7789f000081565b60008083141561063b5760009050610673565b8183856106489190610ca7565b6106529190610cfd565b670de0b6b3a7640000846106669190610d91565b6106709190610d60565b90505b9392505050565b60015481565b60008054906101000a900473ffffffffffffffffffffffffffffffffffffffff1681565b6000600f633b9aca006b033b2e3c9fd0803ce8000000600660009054906101000a900473ffffffffffffffffffffffffffffffffffffffff1673ffffffffffffffffffffffffffffffffffffffff1663487bf0826040518163ffffffff1660e01b8152600401602060405180830381865afa158015610727573d6000803e3d6000fd5b505050506040513d601f19601f8201168201806040525081019061074b9190610c4b565b6107559190610cfd565b61075f9190610d60565b6107699190610d91565b905090565b6220148081565b60008061078486868686610985565b905060008486886107959190610ca7565b61079f9190610cfd565b905060008114156107b45781925050506107e8565b6000816107bf6106a4565b896107ca9190610d91565b6107d49190610d60565b905082816107e29190610ca7565b93505050505b949350505050565b60035481565b60025481565b60055481565b60045481565b600080610816858585610628565b9050600454811161085757600254670de0b6b3a76400006001548361083b9190610d91565b6108459190610d60565b61084f9190610ca7565b9150506108cf565b6000600254670de0b6b3a76400006001546004546108759190610d91565b61087f9190610d60565b6108899190610ca7565b905060006004548361089b9190610cfd565b905081670de0b6b3a7640000600354836108b59190610d91565b6108bf9190610d60565b6108c99190610ca7565b93505050505b9392505050565b62201480846108e59190610d60565b60028190555080622014806108fa9190610d91565b670de0b6b3a76400008461090e9190610d91565b6109189190610d60565b600181905550622014808261092d9190610d60565b600381905550806004819055507f6960ab234c7ef4b0c9197100f5393cfcde7c453ac910a27bd2000aa1dd4c068d6002546001546003546004546040516109779493929190610deb565b60405180910390a150505050565b60008082670de0b6b3a764000061099c9190610cfd565b905060006109ab878787610808565b90506000670de0b6b3a764000083836109c49190610d91565b6109ce9190610d60565b9050670de0b6b3a7640000816109e58a8a8a610628565b6109ef9190610d91565b6109f99190610d60565b9350505050949350505050565b600080fd5b6000819050919050565b610a1e81610a0b565b8114610a2957600080fd5b50565b600081359050610a3b81610a15565b92915050565b600080600060608486031215610a5a57610a59610a06565b5b6000610a6886828701610a2c565b9350506020610a7986828701610a2c565b9250506040610a8a86828701610a2c565b9150509250925092565b610a9d81610a0b565b82525050565b6000602082019050610ab86000830184610a94565b92915050565b60008060008060808587031215610ad857610ad7610a06565b5b6000610ae687828801610a2c565b9450506020610af787828801610a2c565b9350506040610b0887828801610a2c565b9250506060610b1987828801610a2c565b91505092959194509250565b60008115159050919050565b610b3a81610b25565b82525050565b6000602082019050610b556000830184610b31565b92915050565b600073ffffffffffffffffffffffffffffffffffffffff82169050919050565b6000610b8682610b5b565b9050919050565b610b9681610b7b565b82525050565b6000602082019050610bb16000830184610b8d565b92915050565b7f4554482d41000000000000000000000000000000000000000000000000000000815250565b6000602082019050610bf160008301610bb7565b919050565b600081519050610c0581610a15565b92915050565b60008060408385031215610c2257610c21610a06565b5b6000610c3085828601610bf6565b9250506020610c4185828601610bf6565b9150509250929050565b600060208284031215610c6157610c60610a06565b5b6000610c6f84828501610bf6565b91505092915050565b7f4e487b7100000000000000000000000000000000000000000000000000000000600052601160045260246000fd5b6000610cb282610a0b565b9150610cbd83610a0b565b9250827fffffffffffffffffffffffffffffffffffffffffffffffffffffffffffffffff03821115610cf257610cf1610c78565b5b828201905092915050565b6000610d0882610a0b565b9150610d1383610a0b565b925082821015610d2657610d25610c78565b5b828203905092915050565b7f4e487b7100000000000000000000000000000000000000000000000000000000600052601260045260246000fd5b6000610d6b82610a0b565b9150610d7683610a0b565b925082610d8657610d85610d31565b5b828204905092915050565b6000610d9c82610a0b565b9150610da783610a0b565b9250817fffffffffffffffffffffffffffffffffffffffffffffffffffffffffffffffff0483118215151615610de057610ddf610c78565b5b828202905092915050565b6000608082019050610e006000830187610a94565b610e0d6020830186610a94565b610e1a6040830185610a94565b610e276060830184610a94565b95945050505050565b600082825260208201905092915050565b7f6f6e6c7920746865206f776e6572206d61792063616c6c20746869732066756e60008201527f6374696f6e2e0000000000000000000000000000000000000000000000000000602082015250565b6000610e9d602683610e30565b9150610ea882610e41565b604082019050919050565b60006020820190508181036000830152610ecc81610e90565b905091905056fea2646970667358221220fdbb6d9e5619e45d24ada1236dc267f5babb5cd41a7d20d439f41ac57a40edf364736f6c634300080a0033",
  "linkReferences": {},
  "deployedLinkReferences": {}
}