{
  "_format": "hh-sol-artifact-1",
  "contractName": "JugLike",
  "sourceName": "contracts/DAIInterestRateModelV3.sol",
  "abi": [
    {
      "inputs": [],
      "name": "base",
      "outputs": [
        {
          "internalType": "uint256",
          "name": "",
          "type": "uint256"
        }
      ],
      "stateMutability": "view",
      "type": "function"
    },
    {
      "inputs": [
        {
          "internalType": "bytes32",
          "name": "",
          "type": "bytes32"
        }
      ],
      "name": "ilks",
      "outputs": [
        {
          "internalType": "uint256",
          "name": "duty",
          "type": "uint256"
        },
        {
          "internalType": "uint256",
          "name": "rho",
          "type": "uint256"
        }
      ],
      "stateMutability": "view",
      "type": "function"
    }
  ],
  "bytecode": "0x608060405234801561001057600080fd5b506101af806100206000396000f3fe608060405234801561001057600080fd5b50600436106100365760003560e01c80635001f3b51461003b578063d9638d3614610059575b600080fd5b61004361008a565b60405161005091906100cd565b60405180910390f35b610073600480360381019061006e9190610123565b610090565b604051610081929190610150565b60405180910390f35b60015481565b60006020528060005260406000206000915090508060000154908060010154905082565b6000819050919050565b6100c7816100b4565b82525050565b60006020820190506100e260008301846100be565b92915050565b600080fd5b6000819050919050565b610100816100ed565b811461010b57600080fd5b50565b60008135905061011d816100f7565b92915050565b600060208284031215610139576101386100e8565b5b60006101478482850161010e565b91505092915050565b600060408201905061016560008301856100be565b61017260208301846100be565b939250505056fea264697066735822122096b43b98a050453c63b8180109584ffb7183faf90fbadcc8f8932e34d6a3596a64736f6c634300080a0033",
  "linkReferences": {},
  "deployedLinkReferences": {}
}