{
  "_format": "hh-sol-artifact-1",
  "contractName": "CDaiDelegate",
  "sourceName": "contracts/CDaiDelegate.sol",
  "abi": [
    {
      "inputs": [],
      "name": "AcceptAdminPendingAdminCheck",
      "type": "error"
    },
    {
      "inputs": [
        {
          "internalType": "uint256",
          "name": "actualAddAmount",
          "type": "uint256"
        }
      ],
      "name": "AddReservesFactorFreshCheck",
      "type": "error"
    },
    {
      "inputs": [],
      "name": "BorrowCashNotAvailable",
      "type": "error"
    },
    {
      "inputs": [
        {
          "internalType": "uint256",
          "name": "errorCode",
          "type": "uint256"
        }
      ],
      "name": "BorrowComptrollerRejection",
      "type": "error"
    },
    {
      "inputs": [],
      "name": "BorrowFreshnessCheck",
      "type": "error"
    },
    {
      "inputs": [
        {
          "internalType": "uint256",
          "name": "errorCode",
          "type": "uint256"
        }
      ],
      "name": "LiquidateAccrueBorrowInterestFailed",
      "type": "error"
    },
    {
      "inputs": [
        {
          "internalType": "uint256",
          "name": "errorCode",
          "type": "uint256"
        }
      ],
      "name": "LiquidateAccrueCollateralInterestFailed",
      "type": "error"
    },
    {
      "inputs": [],
      "name": "LiquidateCloseAmountIsUintMax",
      "type": "error"
    },
    {
      "inputs": [],
      "name": "LiquidateCloseAmountIsZero",
      "type": "error"
    },
    {
      "inputs": [],
      "name": "LiquidateCollateralFreshnessCheck",
      "type": "error"
    },
    {
      "inputs": [
        {
          "internalType": "uint256",
          "name": "errorCode",
          "type": "uint256"
        }
      ],
      "name": "LiquidateComptrollerRejection",
      "type": "error"
    },
    {
      "inputs": [],
      "name": "LiquidateFreshnessCheck",
      "type": "error"
    },
    {
      "inputs": [],
      "name": "LiquidateLiquidatorIsBorrower",
      "type": "error"
    },
    {
      "inputs": [
        {
          "internalType": "uint256",
          "name": "errorCode",
          "type": "uint256"
        }
      ],
      "name": "LiquidateRepayBorrowFreshFailed",
      "type": "error"
    },
    {
      "inputs": [
        {
          "internalType": "uint256",
          "name": "errorCode",
          "type": "uint256"
        }
      ],
      "name": "LiquidateSeizeComptrollerRejection",
      "type": "error"
    },
    {
      "inputs": [],
      "name": "LiquidateSeizeLiquidatorIsBorrower",
      "type": "error"
    },
    {
      "inputs": [
        {
          "internalType": "uint256",
          "name": "errorCode",
          "type": "uint256"
        }
      ],
      "name": "MintComptrollerRejection",
      "type": "error"
    },
    {
      "inputs": [],
      "name": "MintFreshnessCheck",
      "type": "error"
    },
    {
      "inputs": [
        {
          "internalType": "uint256",
          "name": "errorCode",
          "type": "uint256"
        }
      ],
      "name": "RedeemComptrollerRejection",
      "type": "error"
    },
    {
      "inputs": [],
      "name": "RedeemFreshnessCheck",
      "type": "error"
    },
    {
      "inputs": [],
      "name": "RedeemTransferOutNotPossible",
      "type": "error"
    },
    {
      "inputs": [],
      "name": "ReduceReservesAdminCheck",
      "type": "error"
    },
    {
      "inputs": [],
      "name": "ReduceReservesCashNotAvailable",
      "type": "error"
    },
    {
      "inputs": [],
      "name": "ReduceReservesCashValidation",
      "type": "error"
    },
    {
      "inputs": [],
      "name": "ReduceReservesFreshCheck",
      "type": "error"
    },
    {
      "inputs": [
        {
          "internalType": "uint256",
          "name": "errorCode",
          "type": "uint256"
        }
      ],
      "name": "RepayBorrowComptrollerRejection",
      "type": "error"
    },
    {
      "inputs": [],
      "name": "RepayBorrowFreshnessCheck",
      "type": "error"
    },
    {
      "inputs": [],
      "name": "SetComptrollerOwnerCheck",
      "type": "error"
    },
    {
      "inputs": [],
      "name": "SetInterestRateModelFreshCheck",
      "type": "error"
    },
    {
      "inputs": [],
      "name": "SetInterestRateModelOwnerCheck",
      "type": "error"
    },
    {
      "inputs": [],
      "name": "SetPendingAdminOwnerCheck",
      "type": "error"
    },
    {
      "inputs": [],
      "name": "SetReserveFactorAdminCheck",
      "type": "error"
    },
    {
      "inputs": [],
      "name": "SetReserveFactorBoundsCheck",
      "type": "error"
    },
    {
      "inputs": [],
      "name": "SetReserveFactorFreshCheck",
      "type": "error"
    },
    {
      "inputs": [
        {
          "internalType": "uint256",
          "name": "errorCode",
          "type": "uint256"
        }
      ],
      "name": "TransferComptrollerRejection",
      "type": "error"
    },
    {
      "inputs": [],
      "name": "TransferNotAllowed",
      "type": "error"
    },
    {
      "inputs": [],
      "name": "TransferNotEnough",
      "type": "error"
    },
    {
      "inputs": [],
      "name": "TransferTooMuch",
      "type": "error"
    },
    {
      "anonymous": false,
      "inputs": [
        {
          "indexed": false,
          "internalType": "uint256",
          "name": "cashPrior",
          "type": "uint256"
        },
        {
          "indexed": false,
          "internalType": "uint256",
          "name": "interestAccumulated",
          "type": "uint256"
        },
        {
          "indexed": false,
          "internalType": "uint256",
          "name": "borrowIndex",
          "type": "uint256"
        },
        {
          "indexed": false,
          "internalType": "uint256",
          "name": "totalBorrows",
          "type": "uint256"
        }
      ],
      "name": "AccrueInterest",
      "type": "event"
    },
    {
      "anonymous": false,
      "inputs": [
        {
          "indexed": true,
          "internalType": "address",
          "name": "owner",
          "type": "address"
        },
        {
          "indexed": true,
          "internalType": "address",
          "name": "spender",
          "type": "address"
        },
        {
          "indexed": false,
          "internalType": "uint256",
          "name": "amount",
          "type": "uint256"
        }
      ],
      "name": "Approval",
      "type": "event"
    },
    {
      "anonymous": false,
      "inputs": [
        {
          "indexed": false,
          "internalType": "address",
          "name": "borrower",
          "type": "address"
        },
        {
          "indexed": false,
          "internalType": "uint256",
          "name": "borrowAmount",
          "type": "uint256"
        },
        {
          "indexed": false,
          "internalType": "uint256",
          "name": "accountBorrows",
          "type": "uint256"
        },
        {
          "indexed": false,
          "internalType": "uint256",
          "name": "totalBorrows",
          "type": "uint256"
        }
      ],
      "name": "Borrow",
      "type": "event"
    },
    {
      "anonymous": false,
      "inputs": [
        {
          "indexed": false,
          "internalType": "address",
          "name": "liquidator",
          "type": "address"
        },
        {
          "indexed": false,
          "internalType": "address",
          "name": "borrower",
          "type": "address"
        },
        {
          "indexed": false,
          "internalType": "uint256",
          "name": "repayAmount",
          "type": "uint256"
        },
        {
          "indexed": false,
          "internalType": "address",
          "name": "cTokenCollateral",
          "type": "address"
        },
        {
          "indexed": false,
          "internalType": "uint256",
          "name": "seizeTokens",
          "type": "uint256"
        }
      ],
      "name": "LiquidateBorrow",
      "type": "event"
    },
    {
      "anonymous": false,
      "inputs": [
        {
          "indexed": false,
          "internalType": "address",
          "name": "minter",
          "type": "address"
        },
        {
          "indexed": false,
          "internalType": "uint256",
          "name": "mintAmount",
          "type": "uint256"
        },
        {
          "indexed": false,
          "internalType": "uint256",
          "name": "mintTokens",
          "type": "uint256"
        }
      ],
      "name": "Mint",
      "type": "event"
    },
    {
      "anonymous": false,
      "inputs": [
        {
          "indexed": false,
          "internalType": "address",
          "name": "oldAdmin",
          "type": "address"
        },
        {
          "indexed": false,
          "internalType": "address",
          "name": "newAdmin",
          "type": "address"
        }
      ],
      "name": "NewAdmin",
      "type": "event"
    },
    {
      "anonymous": false,
      "inputs": [
        {
          "indexed": false,
          "internalType": "contract ComptrollerInterface",
          "name": "oldComptroller",
          "type": "address"
        },
        {
          "indexed": false,
          "internalType": "contract ComptrollerInterface",
          "name": "newComptroller",
          "type": "address"
        }
      ],
      "name": "NewComptroller",
      "type": "event"
    },
    {
      "anonymous": false,
      "inputs": [
        {
          "indexed": false,
          "internalType": "contract InterestRateModel",
          "name": "oldInterestRateModel",
          "type": "address"
        },
        {
          "indexed": false,
          "internalType": "contract InterestRateModel",
          "name": "newInterestRateModel",
          "type": "address"
        }
      ],
      "name": "NewMarketInterestRateModel",
      "type": "event"
    },
    {
      "anonymous": false,
      "inputs": [
        {
          "indexed": false,
          "internalType": "address",
          "name": "oldPendingAdmin",
          "type": "address"
        },
        {
          "indexed": false,
          "internalType": "address",
          "name": "newPendingAdmin",
          "type": "address"
        }
      ],
      "name": "NewPendingAdmin",
      "type": "event"
    },
    {
      "anonymous": false,
      "inputs": [
        {
          "indexed": false,
          "internalType": "uint256",
          "name": "oldReserveFactorMantissa",
          "type": "uint256"
        },
        {
          "indexed": false,
          "internalType": "uint256",
          "name": "newReserveFactorMantissa",
          "type": "uint256"
        }
      ],
      "name": "NewReserveFactor",
      "type": "event"
    },
    {
      "anonymous": false,
      "inputs": [
        {
          "indexed": false,
          "internalType": "address",
          "name": "redeemer",
          "type": "address"
        },
        {
          "indexed": false,
          "internalType": "uint256",
          "name": "redeemAmount",
          "type": "uint256"
        },
        {
          "indexed": false,
          "internalType": "uint256",
          "name": "redeemTokens",
          "type": "uint256"
        }
      ],
      "name": "Redeem",
      "type": "event"
    },
    {
      "anonymous": false,
      "inputs": [
        {
          "indexed": false,
          "internalType": "address",
          "name": "payer",
          "type": "address"
        },
        {
          "indexed": false,
          "internalType": "address",
          "name": "borrower",
          "type": "address"
        },
        {
          "indexed": false,
          "internalType": "uint256",
          "name": "repayAmount",
          "type": "uint256"
        },
        {
          "indexed": false,
          "internalType": "uint256",
          "name": "accountBorrows",
          "type": "uint256"
        },
        {
          "indexed": false,
          "internalType": "uint256",
          "name": "totalBorrows",
          "type": "uint256"
        }
      ],
      "name": "RepayBorrow",
      "type": "event"
    },
    {
      "anonymous": false,
      "inputs": [
        {
          "indexed": false,
          "internalType": "address",
          "name": "benefactor",
          "type": "address"
        },
        {
          "indexed": false,
          "internalType": "uint256",
          "name": "addAmount",
          "type": "uint256"
        },
        {
          "indexed": false,
          "internalType": "uint256",
          "name": "newTotalReserves",
          "type": "uint256"
        }
      ],
      "name": "ReservesAdded",
      "type": "event"
    },
    {
      "anonymous": false,
      "inputs": [
        {
          "indexed": false,
          "internalType": "address",
          "name": "admin",
          "type": "address"
        },
        {
          "indexed": false,
          "internalType": "uint256",
          "name": "reduceAmount",
          "type": "uint256"
        },
        {
          "indexed": false,
          "internalType": "uint256",
          "name": "newTotalReserves",
          "type": "uint256"
        }
      ],
      "name": "ReservesReduced",
      "type": "event"
    },
    {
      "anonymous": false,
      "inputs": [
        {
          "indexed": true,
          "internalType": "address",
          "name": "from",
          "type": "address"
        },
        {
          "indexed": true,
          "internalType": "address",
          "name": "to",
          "type": "address"
        },
        {
          "indexed": false,
          "internalType": "uint256",
          "name": "amount",
          "type": "uint256"
        }
      ],
      "name": "Transfer",
      "type": "event"
    },
    {
      "inputs": [],
      "name": "NO_ERROR",
      "outputs": [
        {
          "internalType": "uint256",
          "name": "",
          "type": "uint256"
        }
      ],
      "stateMutability": "view",
      "type": "function"
    },
    {
      "inputs": [],
      "name": "_acceptAdmin",
      "outputs": [
        {
          "internalType": "uint256",
          "name": "",
          "type": "uint256"
        }
      ],
      "stateMutability": "nonpayable",
      "type": "function"
    },
    {
      "inputs": [
        {
          "internalType": "uint256",
          "name": "addAmount",
          "type": "uint256"
        }
      ],
      "name": "_addReserves",
      "outputs": [
        {
          "internalType": "uint256",
          "name": "",
          "type": "uint256"
        }
      ],
      "stateMutability": "nonpayable",
      "type": "function"
    },
    {
      "inputs": [
        {
          "internalType": "bytes",
          "name": "data",
          "type": "bytes"
        }
      ],
      "name": "_becomeImplementation",
      "outputs": [],
      "stateMutability": "nonpayable",
      "type": "function"
    },
    {
      "inputs": [
        {
          "internalType": "address",
          "name": "compLikeDelegatee",
          "type": "address"
        }
      ],
      "name": "_delegateCompLikeTo",
      "outputs": [],
      "stateMutability": "nonpayable",
      "type": "function"
    },
    {
      "inputs": [
        {
          "internalType": "uint256",
          "name": "reduceAmount",
          "type": "uint256"
        }
      ],
      "name": "_reduceReserves",
      "outputs": [
        {
          "internalType": "uint256",
          "name": "",
          "type": "uint256"
        }
      ],
      "stateMutability": "nonpayable",
      "type": "function"
    },
    {
      "inputs": [],
      "name": "_resignImplementation",
      "outputs": [],
      "stateMutability": "nonpayable",
      "type": "function"
    },
    {
      "inputs": [
        {
          "internalType": "contract ComptrollerInterface",
          "name": "newComptroller",
          "type": "address"
        }
      ],
      "name": "_setComptroller",
      "outputs": [
        {
          "internalType": "uint256",
          "name": "",
          "type": "uint256"
        }
      ],
      "stateMutability": "nonpayable",
      "type": "function"
    },
    {
      "inputs": [
        {
          "internalType": "contract InterestRateModel",
          "name": "newInterestRateModel",
          "type": "address"
        }
      ],
      "name": "_setInterestRateModel",
      "outputs": [
        {
          "internalType": "uint256",
          "name": "",
          "type": "uint256"
        }
      ],
      "stateMutability": "nonpayable",
      "type": "function"
    },
    {
      "inputs": [
        {
          "internalType": "address payable",
          "name": "newPendingAdmin",
          "type": "address"
        }
      ],
      "name": "_setPendingAdmin",
      "outputs": [
        {
          "internalType": "uint256",
          "name": "",
          "type": "uint256"
        }
      ],
      "stateMutability": "nonpayable",
      "type": "function"
    },
    {
      "inputs": [
        {
          "internalType": "uint256",
          "name": "newReserveFactorMantissa",
          "type": "uint256"
        }
      ],
      "name": "_setReserveFactor",
      "outputs": [
        {
          "internalType": "uint256",
          "name": "",
          "type": "uint256"
        }
      ],
      "stateMutability": "nonpayable",
      "type": "function"
    },
    {
      "inputs": [],
      "name": "accrualBlockNumber",
      "outputs": [
        {
          "internalType": "uint256",
          "name": "",
          "type": "uint256"
        }
      ],
      "stateMutability": "view",
      "type": "function"
    },
    {
      "inputs": [],
      "name": "accrueInterest",
      "outputs": [
        {
          "internalType": "uint256",
          "name": "",
          "type": "uint256"
        }
      ],
      "stateMutability": "nonpayable",
      "type": "function"
    },
    {
      "inputs": [],
      "name": "admin",
      "outputs": [
        {
          "internalType": "address payable",
          "name": "",
          "type": "address"
        }
      ],
      "stateMutability": "view",
      "type": "function"
    },
    {
      "inputs": [
        {
          "internalType": "address",
          "name": "owner",
          "type": "address"
        },
        {
          "internalType": "address",
          "name": "spender",
          "type": "address"
        }
      ],
      "name": "allowance",
      "outputs": [
        {
          "internalType": "uint256",
          "name": "",
          "type": "uint256"
        }
      ],
      "stateMutability": "view",
      "type": "function"
    },
    {
      "inputs": [
        {
          "internalType": "address",
          "name": "spender",
          "type": "address"
        },
        {
          "internalType": "uint256",
          "name": "amount",
          "type": "uint256"
        }
      ],
      "name": "approve",
      "outputs": [
        {
          "internalType": "bool",
          "name": "",
          "type": "bool"
        }
      ],
      "stateMutability": "nonpayable",
      "type": "function"
    },
    {
      "inputs": [
        {
          "internalType": "address",
          "name": "owner",
          "type": "address"
        }
      ],
      "name": "balanceOf",
      "outputs": [
        {
          "internalType": "uint256",
          "name": "",
          "type": "uint256"
        }
      ],
      "stateMutability": "view",
      "type": "function"
    },
    {
      "inputs": [
        {
          "internalType": "address",
          "name": "owner",
          "type": "address"
        }
      ],
      "name": "balanceOfUnderlying",
      "outputs": [
        {
          "internalType": "uint256",
          "name": "",
          "type": "uint256"
        }
      ],
      "stateMutability": "nonpayable",
      "type": "function"
    },
    {
      "inputs": [
        {
          "internalType": "uint256",
          "name": "borrowAmount",
          "type": "uint256"
        }
      ],
      "name": "borrow",
      "outputs": [
        {
          "internalType": "uint256",
          "name": "",
          "type": "uint256"
        }
      ],
      "stateMutability": "nonpayable",
      "type": "function"
    },
    {
      "inputs": [
        {
          "internalType": "address",
          "name": "account",
          "type": "address"
        }
      ],
      "name": "borrowBalanceCurrent",
      "outputs": [
        {
          "internalType": "uint256",
          "name": "",
          "type": "uint256"
        }
      ],
      "stateMutability": "nonpayable",
      "type": "function"
    },
    {
      "inputs": [
        {
          "internalType": "address",
          "name": "account",
          "type": "address"
        }
      ],
      "name": "borrowBalanceStored",
      "outputs": [
        {
          "internalType": "uint256",
          "name": "",
          "type": "uint256"
        }
      ],
      "stateMutability": "view",
      "type": "function"
    },
    {
      "inputs": [],
      "name": "borrowIndex",
      "outputs": [
        {
          "internalType": "uint256",
          "name": "",
          "type": "uint256"
        }
      ],
      "stateMutability": "view",
      "type": "function"
    },
    {
      "inputs": [],
      "name": "borrowRatePerBlock",
      "outputs": [
        {
          "internalType": "uint256",
          "name": "",
          "type": "uint256"
        }
      ],
      "stateMutability": "view",
      "type": "function"
    },
    {
      "inputs": [],
      "name": "comptroller",
      "outputs": [
        {
          "internalType": "contract ComptrollerInterface",
          "name": "",
          "type": "address"
        }
      ],
      "stateMutability": "view",
      "type": "function"
    },
    {
      "inputs": [],
      "name": "daiJoinAddress",
      "outputs": [
        {
          "internalType": "address",
          "name": "",
          "type": "address"
        }
      ],
      "stateMutability": "view",
      "type": "function"
    },
    {
      "inputs": [],
      "name": "decimals",
      "outputs": [
        {
          "internalType": "uint8",
          "name": "",
          "type": "uint8"
        }
      ],
      "stateMutability": "view",
      "type": "function"
    },
    {
      "inputs": [],
      "name": "exchangeRateCurrent",
      "outputs": [
        {
          "internalType": "uint256",
          "name": "",
          "type": "uint256"
        }
      ],
      "stateMutability": "nonpayable",
      "type": "function"
    },
    {
      "inputs": [],
      "name": "exchangeRateStored",
      "outputs": [
        {
          "internalType": "uint256",
          "name": "",
          "type": "uint256"
        }
      ],
      "stateMutability": "view",
      "type": "function"
    },
    {
      "inputs": [
        {
          "internalType": "address",
          "name": "account",
          "type": "address"
        }
      ],
      "name": "getAccountSnapshot",
      "outputs": [
        {
          "internalType": "uint256",
          "name": "",
          "type": "uint256"
        },
        {
          "internalType": "uint256",
          "name": "",
          "type": "uint256"
        },
        {
          "internalType": "uint256",
          "name": "",
          "type": "uint256"
        },
        {
          "internalType": "uint256",
          "name": "",
          "type": "uint256"
        }
      ],
      "stateMutability": "view",
      "type": "function"
    },
    {
      "inputs": [],
      "name": "getCash",
      "outputs": [
        {
          "internalType": "uint256",
          "name": "",
          "type": "uint256"
        }
      ],
      "stateMutability": "view",
      "type": "function"
    },
    {
      "inputs": [],
      "name": "implementation",
      "outputs": [
        {
          "internalType": "address",
          "name": "",
          "type": "address"
        }
      ],
      "stateMutability": "view",
      "type": "function"
    },
    {
      "inputs": [
        {
          "internalType": "address",
          "name": "underlying_",
          "type": "address"
        },
        {
          "internalType": "contract ComptrollerInterface",
          "name": "comptroller_",
          "type": "address"
        },
        {
          "internalType": "contract InterestRateModel",
          "name": "interestRateModel_",
          "type": "address"
        },
        {
          "internalType": "uint256",
          "name": "initialExchangeRateMantissa_",
          "type": "uint256"
        },
        {
          "internalType": "string",
          "name": "name_",
          "type": "string"
        },
        {
          "internalType": "string",
          "name": "symbol_",
          "type": "string"
        },
        {
          "internalType": "uint8",
          "name": "decimals_",
          "type": "uint8"
        }
      ],
      "name": "initialize",
      "outputs": [],
      "stateMutability": "nonpayable",
      "type": "function"
    },
    {
      "inputs": [
        {
          "internalType": "contract ComptrollerInterface",
          "name": "comptroller_",
          "type": "address"
        },
        {
          "internalType": "contract InterestRateModel",
          "name": "interestRateModel_",
          "type": "address"
        },
        {
          "internalType": "uint256",
          "name": "initialExchangeRateMantissa_",
          "type": "uint256"
        },
        {
          "internalType": "string",
          "name": "name_",
          "type": "string"
        },
        {
          "internalType": "string",
          "name": "symbol_",
          "type": "string"
        },
        {
          "internalType": "uint8",
          "name": "decimals_",
          "type": "uint8"
        }
      ],
      "name": "initialize",
      "outputs": [],
      "stateMutability": "nonpayable",
      "type": "function"
    },
    {
      "inputs": [],
      "name": "interestRateModel",
      "outputs": [
        {
          "internalType": "contract InterestRateModel",
          "name": "",
          "type": "address"
        }
      ],
      "stateMutability": "view",
      "type": "function"
    },
    {
      "inputs": [],
      "name": "isCToken",
      "outputs": [
        {
          "internalType": "bool",
          "name": "",
          "type": "bool"
        }
      ],
      "stateMutability": "view",
      "type": "function"
    },
    {
      "inputs": [
        {
          "internalType": "address",
          "name": "borrower",
          "type": "address"
        },
        {
          "internalType": "uint256",
          "name": "repayAmount",
          "type": "uint256"
        },
        {
          "internalType": "contract CTokenInterface",
          "name": "cTokenCollateral",
          "type": "address"
        }
      ],
      "name": "liquidateBorrow",
      "outputs": [
        {
          "internalType": "uint256",
          "name": "",
          "type": "uint256"
        }
      ],
      "stateMutability": "nonpayable",
      "type": "function"
    },
    {
      "inputs": [
        {
          "internalType": "uint256",
          "name": "mintAmount",
          "type": "uint256"
        }
      ],
      "name": "mint",
      "outputs": [
        {
          "internalType": "uint256",
          "name": "",
          "type": "uint256"
        }
      ],
      "stateMutability": "nonpayable",
      "type": "function"
    },
    {
      "inputs": [],
      "name": "name",
      "outputs": [
        {
          "internalType": "string",
          "name": "",
          "type": "string"
        }
      ],
      "stateMutability": "view",
      "type": "function"
    },
    {
      "inputs": [],
      "name": "pendingAdmin",
      "outputs": [
        {
          "internalType": "address payable",
          "name": "",
          "type": "address"
        }
      ],
      "stateMutability": "view",
      "type": "function"
    },
    {
      "inputs": [],
      "name": "potAddress",
      "outputs": [
        {
          "internalType": "address",
          "name": "",
          "type": "address"
        }
      ],
      "stateMutability": "view",
      "type": "function"
    },
    {
      "inputs": [],
      "name": "protocolSeizeShareMantissa",
      "outputs": [
        {
          "internalType": "uint256",
          "name": "",
          "type": "uint256"
        }
      ],
      "stateMutability": "view",
      "type": "function"
    },
    {
      "inputs": [
        {
          "internalType": "uint256",
          "name": "redeemTokens",
          "type": "uint256"
        }
      ],
      "name": "redeem",
      "outputs": [
        {
          "internalType": "uint256",
          "name": "",
          "type": "uint256"
        }
      ],
      "stateMutability": "nonpayable",
      "type": "function"
    },
    {
      "inputs": [
        {
          "internalType": "uint256",
          "name": "redeemAmount",
          "type": "uint256"
        }
      ],
      "name": "redeemUnderlying",
      "outputs": [
        {
          "internalType": "uint256",
          "name": "",
          "type": "uint256"
        }
      ],
      "stateMutability": "nonpayable",
      "type": "function"
    },
    {
      "inputs": [
        {
          "internalType": "uint256",
          "name": "repayAmount",
          "type": "uint256"
        }
      ],
      "name": "repayBorrow",
      "outputs": [
        {
          "internalType": "uint256",
          "name": "",
          "type": "uint256"
        }
      ],
      "stateMutability": "nonpayable",
      "type": "function"
    },
    {
      "inputs": [
        {
          "internalType": "address",
          "name": "borrower",
          "type": "address"
        },
        {
          "internalType": "uint256",
          "name": "repayAmount",
          "type": "uint256"
        }
      ],
      "name": "repayBorrowBehalf",
      "outputs": [
        {
          "internalType": "uint256",
          "name": "",
          "type": "uint256"
        }
      ],
      "stateMutability": "nonpayable",
      "type": "function"
    },
    {
      "inputs": [],
      "name": "reserveFactorMantissa",
      "outputs": [
        {
          "internalType": "uint256",
          "name": "",
          "type": "uint256"
        }
      ],
      "stateMutability": "view",
      "type": "function"
    },
    {
      "inputs": [
        {
          "internalType": "address",
          "name": "liquidator",
          "type": "address"
        },
        {
          "internalType": "address",
          "name": "borrower",
          "type": "address"
        },
        {
          "internalType": "uint256",
          "name": "seizeTokens",
          "type": "uint256"
        }
      ],
      "name": "seize",
      "outputs": [
        {
          "internalType": "uint256",
          "name": "",
          "type": "uint256"
        }
      ],
      "stateMutability": "nonpayable",
      "type": "function"
    },
    {
      "inputs": [],
      "name": "supplyRatePerBlock",
      "outputs": [
        {
          "internalType": "uint256",
          "name": "",
          "type": "uint256"
        }
      ],
      "stateMutability": "view",
      "type": "function"
    },
    {
      "inputs": [
        {
          "internalType": "contract EIP20NonStandardInterface",
          "name": "token",
          "type": "address"
        }
      ],
      "name": "sweepToken",
      "outputs": [],
      "stateMutability": "nonpayable",
      "type": "function"
    },
    {
      "inputs": [],
      "name": "symbol",
      "outputs": [
        {
          "internalType": "string",
          "name": "",
          "type": "string"
        }
      ],
      "stateMutability": "view",
      "type": "function"
    },
    {
      "inputs": [],
      "name": "totalBorrows",
      "outputs": [
        {
          "internalType": "uint256",
          "name": "",
          "type": "uint256"
        }
      ],
      "stateMutability": "view",
      "type": "function"
    },
    {
      "inputs": [],
      "name": "totalBorrowsCurrent",
      "outputs": [
        {
          "internalType": "uint256",
          "name": "",
          "type": "uint256"
        }
      ],
      "stateMutability": "nonpayable",
      "type": "function"
    },
    {
      "inputs": [],
      "name": "totalReserves",
      "outputs": [
        {
          "internalType": "uint256",
          "name": "",
          "type": "uint256"
        }
      ],
      "stateMutability": "view",
      "type": "function"
    },
    {
      "inputs": [],
      "name": "totalSupply",
      "outputs": [
        {
          "internalType": "uint256",
          "name": "",
          "type": "uint256"
        }
      ],
      "stateMutability": "view",
      "type": "function"
    },
    {
      "inputs": [
        {
          "internalType": "address",
          "name": "dst",
          "type": "address"
        },
        {
          "internalType": "uint256",
          "name": "amount",
          "type": "uint256"
        }
      ],
      "name": "transfer",
      "outputs": [
        {
          "internalType": "bool",
          "name": "",
          "type": "bool"
        }
      ],
      "stateMutability": "nonpayable",
      "type": "function"
    },
    {
      "inputs": [
        {
          "internalType": "address",
          "name": "src",
          "type": "address"
        },
        {
          "internalType": "address",
          "name": "dst",
          "type": "address"
        },
        {
          "internalType": "uint256",
          "name": "amount",
          "type": "uint256"
        }
      ],
      "name": "transferFrom",
      "outputs": [
        {
          "internalType": "bool",
          "name": "",
          "type": "bool"
        }
      ],
      "stateMutability": "nonpayable",
      "type": "function"
    },
    {
      "inputs": [],
      "name": "underlying",
      "outputs": [
        {
          "internalType": "address",
          "name": "",
          "type": "address"
        }
      ],
      "stateMutability": "view",
      "type": "function"
    },
    {
      "inputs": [],
      "name": "vatAddress",
      "outputs": [
        {
          "internalType": "address",
          "name": "",
          "type": "address"
        }
      ],
      "stateMutability": "view",
      "type": "function"
    }
  ],
  "bytecode": "0x608060405234801561001057600080fd5b50617db380620000216000396000f3fe608060405234801561001057600080fd5b506004361061038e5760003560e01c806373acee98116101de578063b2a02ff11161010f578063e9c714f2116100ad578063f851a4401161007c578063f851a44014610b58578063f8f9da2814610b76578063fca7820b14610b94578063fe9c44ae14610bc45761038e565b8063e9c714f214610abc578063f2b3abbd14610ada578063f3fdb15a14610b0a578063f5e3c46214610b285761038e565b8063c37f68e2116100e9578063c37f68e2146109f9578063c5ebeaec14610a2c578063db006a7514610a5c578063dd62ed3e14610a8c5761038e565b8063b2a02ff11461097b578063b71d1a0c146109ab578063bd6d894d146109db5761038e565b806395dd91931161017c578063a6afed9511610156578063a6afed95146108f1578063a9059cbb1461090f578063aa5af0fd1461093f578063ae9d70b01461095d5761038e565b806395dd91931461087557806399d8c1b4146108a5578063a0712d68146108c15761038e565b80638a8df2e6116101b85780638a8df2e6146107fd5780638d925ccd1461081b5780638f840ddd1461083957806395d89b41146108575761038e565b806373acee98146107935780637f1e06be146107b1578063852a12e3146107cd5761038e565b80633af9e669116102c35780635fe3b5671161026157806369ab32501161023057806369ab3250146107095780636c540baf146107275780636f307dc31461074557806370a08231146107635761038e565b80635fe3b5671461067f578063601a0bf11461069d57806366ced602146106cd5780636752e702146106eb5761038e565b80634576b5db1161029d5780634576b5db146105f757806347bd37181461062757806356e67728146106455780635c60da1b146106615761038e565b80633af9e669146105795780633b1d21a2146105a95780633e941010146105c75761038e565b8063182df0f51161033057806323b872dd1161030a57806323b872dd146104dd5780632608f8181461050d578063267822471461053d578063313ce5671461055b5761038e565b8063182df0f5146104875780631a31d465146104a55780631be19560146104c15761038e565b8063153ab5051161036c578063153ab50514610411578063173b99041461041b57806317bfdfbc1461043957806318160ddd146104695761038e565b806306fdde0314610393578063095ea7b3146103b15780630e752702146103e1575b600080fd5b61039b610be2565b6040516103a891906160e3565b60405180910390f35b6103cb60048036038101906103c691906161ad565b610c70565b6040516103d89190616208565b60405180910390f35b6103fb60048036038101906103f69190616223565b610d67565b604051610408919061625f565b60405180910390f35b610419610d7b565b005b6104236110e4565b604051610430919061625f565b60405180910390f35b610453600480360381019061044e919061627a565b6110ea565b604051610460919061625f565b60405180910390f35b610471611187565b60405161047e919061625f565b60405180910390f35b61048f61118d565b60405161049c919061625f565b60405180910390f35b6104bf60048036038101906104ba9190616491565b61119c565b005b6104db60048036038101906104d691906165a9565b611286565b005b6104f760048036038101906104f291906165d6565b6114b8565b6040516105049190616208565b60405180910390f35b610527600480360381019061052291906161ad565b611554565b604051610534919061625f565b60405180910390f35b61054561156a565b604051610552919061664a565b60405180910390f35b610563611590565b6040516105709190616674565b60405180910390f35b610593600480360381019061058e919061627a565b6115a3565b6040516105a0919061625f565b60405180910390f35b6105b161160f565b6040516105be919061625f565b60405180910390f35b6105e160048036038101906105dc9190616223565b61161e565b6040516105ee919061625f565b60405180910390f35b610611600480360381019061060c919061668f565b611630565b60405161061e919061625f565b60405180910390f35b61062f611811565b60405161063c919061625f565b60405180910390f35b61065f600480360381019061065a919061675d565b611817565b005b6106696118d1565b60405161067691906167b5565b60405180910390f35b6106876118f7565b604051610694919061682f565b60405180910390f35b6106b760048036038101906106b29190616223565b61191d565b6040516106c4919061625f565b60405180910390f35b6106d56119ba565b6040516106e291906167b5565b60405180910390f35b6106f36119e0565b604051610700919061625f565b60405180910390f35b6107116119eb565b60405161071e919061625f565b60405180910390f35b61072f6119f0565b60405161073c919061625f565b60405180910390f35b61074d6119f6565b60405161075a91906167b5565b60405180910390f35b61077d6004803603810190610778919061627a565b611a1c565b60405161078a919061625f565b60405180910390f35b61079b611a65565b6040516107a8919061625f565b60405180910390f35b6107cb60048036038101906107c6919061627a565b611afa565b005b6107e760048036038101906107e29190616223565b611c1a565b6040516107f4919061625f565b60405180910390f35b610805611c2e565b60405161081291906167b5565b60405180910390f35b610823611c54565b60405161083091906167b5565b60405180910390f35b610841611c7a565b60405161084e919061625f565b60405180910390f35b61085f611c80565b60405161086c91906160e3565b60405180910390f35b61088f600480360381019061088a919061627a565b611d0e565b60405161089c919061625f565b60405180910390f35b6108bf60048036038101906108ba919061684a565b611d20565b005b6108db60048036038101906108d69190616223565b611f76565b6040516108e8919061625f565b60405180910390f35b6108f9611f8a565b604051610906919061625f565b60405180910390f35b610929600480360381019061092491906161ad565b61202d565b6040516109369190616208565b60405180910390f35b6109476120c8565b604051610954919061625f565b60405180910390f35b6109656120ce565b604051610972919061625f565b60405180910390f35b610995600480360381019061099091906165d6565b612184565b6040516109a2919061625f565b60405180910390f35b6109c560048036038101906109c0919061693b565b61221f565b6040516109d2919061625f565b60405180910390f35b6109e3612353565b6040516109f0919061625f565b60405180910390f35b610a136004803603810190610a0e919061627a565b6123ed565b604051610a239493929190616968565b60405180910390f35b610a466004803603810190610a419190616223565b612455565b604051610a53919061625f565b60405180910390f35b610a766004803603810190610a719190616223565b612469565b604051610a83919061625f565b60405180910390f35b610aa66004803603810190610aa191906169ad565b61247d565b604051610ab3919061625f565b60405180910390f35b610ac4612504565b604051610ad1919061625f565b60405180910390f35b610af46004803603810190610aef91906169ed565b612778565b604051610b01919061625f565b60405180910390f35b610b12612793565b604051610b1f9190616a3b565b60405180910390f35b610b426004803603810190610b3d9190616a94565b6127b9565b604051610b4f919061625f565b60405180910390f35b610b606127d1565b604051610b6d919061664a565b60405180910390f35b610b7e6127f7565b604051610b8b919061625f565b60405180910390f35b610bae6004803603810190610ba99190616223565b6128a9565b604051610bbb919061625f565b60405180910390f35b610bcc612946565b604051610bd99190616208565b60405180910390f35b60018054610bef90616b16565b80601f0160208091040260200160405190810160405280929190818152602001828054610c1b90616b16565b8015610c685780601f10610c3d57610100808354040283529160200191610c68565b820191906000526020600020905b815481529060010190602001808311610c4b57829003601f168201915b505050505081565b60008033905082600f60008373ffffffffffffffffffffffffffffffffffffffff1673ffffffffffffffffffffffffffffffffffffffff16815260200190815260200160002060008673ffffffffffffffffffffffffffffffffffffffff1673ffffffffffffffffffffffffffffffffffffffff168152602001908152602001600020819055508373ffffffffffffffffffffffffffffffffffffffff168173ffffffffffffffffffffffffffffffffffffffff167f8c5be1e5ebec7d5bd14f71427d1e84f3dd0314c0f7b2291e5b200ac8c7c3b92585604051610d54919061625f565b60405180910390a3600191505092915050565b6000610d728261294b565b60009050919050565b600360019054906101000a900473ffffffffffffffffffffffffffffffffffffffff1673ffffffffffffffffffffffffffffffffffffffff163373ffffffffffffffffffffffffffffffffffffffff1614610e0b576040517f08c379a0000000000000000000000000000000000000000000000000000000008152600401610e0290616bba565b60405180910390fd5b6000601360009054906101000a900473ffffffffffffffffffffffffffffffffffffffff1690506000601460009054906101000a900473ffffffffffffffffffffffffffffffffffffffff1690506000601560009054906101000a900473ffffffffffffffffffffffffffffffffffffffff1690508173ffffffffffffffffffffffffffffffffffffffff16639f678cca6040518163ffffffff1660e01b81526004016020604051808303816000875af1158015610ecd573d6000803e3d6000fd5b505050506040513d601f19601f82011682018060405250810190610ef19190616bef565b5060008273ffffffffffffffffffffffffffffffffffffffff16630bebac86306040518263ffffffff1660e01b8152600401610f2d91906167b5565b602060405180830381865afa158015610f4a573d6000803e3d6000fd5b505050506040513d601f19601f82011682018060405250810190610f6e9190616bef565b90508273ffffffffffffffffffffffffffffffffffffffff16637f8661a1826040518263ffffffff1660e01b8152600401610fa9919061625f565b600060405180830381600087803b158015610fc357600080fd5b505af1158015610fd7573d6000803e3d6000fd5b5050505060008273ffffffffffffffffffffffffffffffffffffffff16636c25b346306040518263ffffffff1660e01b815260040161101691906167b5565b602060405180830381865afa158015611033573d6000803e3d6000fd5b505050506040513d601f19601f820116820180604052508101906110579190616bef565b90508473ffffffffffffffffffffffffffffffffffffffff1663ef693bed306b033b2e3c9fd0803ce80000008461108e9190616c7a565b6040518363ffffffff1660e01b81526004016110ab929190616cab565b600060405180830381600087803b1580156110c557600080fd5b505af11580156110d9573d6000803e3d6000fd5b505050505050505050565b60085481565b60008060009054906101000a900460ff1661113a576040517f08c379a000000000000000000000000000000000000000000000000000000000815260040161113190616d20565b60405180910390fd5b60008060006101000a81548160ff02191690831515021790555061115c611f8a565b5061116682611d0e565b905060016000806101000a81548160ff021916908315150217905550919050565b600d5481565b60006111976129e4565b905090565b6111aa868686868686611d20565b86601160006101000a81548173ffffffffffffffffffffffffffffffffffffffff021916908373ffffffffffffffffffffffffffffffffffffffff160217905550601160009054906101000a900473ffffffffffffffffffffffffffffffffffffffff1673ffffffffffffffffffffffffffffffffffffffff166318160ddd6040518163ffffffff1660e01b8152600401602060405180830381865afa158015611258573d6000803e3d6000fd5b505050506040513d601f19601f8201168201806040525081019061127c9190616bef565b5050505050505050565b600360019054906101000a900473ffffffffffffffffffffffffffffffffffffffff1673ffffffffffffffffffffffffffffffffffffffff163373ffffffffffffffffffffffffffffffffffffffff1614611316576040517f08c379a000000000000000000000000000000000000000000000000000000000815260040161130d90616db2565b60405180910390fd5b601160009054906101000a900473ffffffffffffffffffffffffffffffffffffffff1673ffffffffffffffffffffffffffffffffffffffff168173ffffffffffffffffffffffffffffffffffffffff1614156113a7576040517f08c379a000000000000000000000000000000000000000000000000000000000815260040161139e90616e44565b60405180910390fd5b60008173ffffffffffffffffffffffffffffffffffffffff166370a08231306040518263ffffffff1660e01b81526004016113e291906167b5565b602060405180830381865afa1580156113ff573d6000803e3d6000fd5b505050506040513d601f19601f820116820180604052508101906114239190616bef565b90508173ffffffffffffffffffffffffffffffffffffffff1663a9059cbb600360019054906101000a900473ffffffffffffffffffffffffffffffffffffffff16836040518363ffffffff1660e01b8152600401611482929190616e85565b600060405180830381600087803b15801561149c57600080fd5b505af11580156114b0573d6000803e3d6000fd5b505050505050565b60008060009054906101000a900460ff16611508576040517f08c379a00000000000000000000000000000000000000000000000000000000081526004016114ff90616d20565b60405180910390fd5b60008060006101000a81548160ff021916908315150217905550600061153033868686612a59565b14905060016000806101000a81548160ff0219169083151502179055509392505050565b60006115608383612ee0565b6000905092915050565b600460009054906101000a900473ffffffffffffffffffffffffffffffffffffffff1681565b600360009054906101000a900460ff1681565b60008060405180602001604052806115b9612353565b815250905061160781600e60008673ffffffffffffffffffffffffffffffffffffffff1673ffffffffffffffffffffffffffffffffffffffff16815260200190815260200160002054612f7a565b915050919050565b6000611619612f9b565b905090565b6000611629826130d7565b9050919050565b6000600360019054906101000a900473ffffffffffffffffffffffffffffffffffffffff1673ffffffffffffffffffffffffffffffffffffffff163373ffffffffffffffffffffffffffffffffffffffff16146116b9576040517fd219dc1f00000000000000000000000000000000000000000000000000000000815260040160405180910390fd5b6000600560009054906101000a900473ffffffffffffffffffffffffffffffffffffffff1690508273ffffffffffffffffffffffffffffffffffffffff16627e3dd26040518163ffffffff1660e01b8152600401602060405180830381865afa15801561172a573d6000803e3d6000fd5b505050506040513d601f19601f8201168201806040525081019061174e9190616eda565b61178d576040517f08c379a000000000000000000000000000000000000000000000000000000000815260040161178490616f53565b60405180910390fd5b82600560006101000a81548173ffffffffffffffffffffffffffffffffffffffff021916908373ffffffffffffffffffffffffffffffffffffffff1602179055507f7ac369dbd14fa5ea3f473ed67cc9d598964a77501540ba6751eb0b3decf5870d81846040516117ff929190616f73565b60405180910390a16000915050919050565b600b5481565b600360019054906101000a900473ffffffffffffffffffffffffffffffffffffffff1673ffffffffffffffffffffffffffffffffffffffff163373ffffffffffffffffffffffffffffffffffffffff16146118a7576040517f08c379a000000000000000000000000000000000000000000000000000000000815260040161189e9061700e565b60405180910390fd5b600080828060200190518101906118be9190617043565b915091506118cc8282613178565b505050565b601260009054906101000a900473ffffffffffffffffffffffffffffffffffffffff1681565b600560009054906101000a900473ffffffffffffffffffffffffffffffffffffffff1681565b60008060009054906101000a900460ff1661196d576040517f08c379a000000000000000000000000000000000000000000000000000000000815260040161196490616d20565b60405180910390fd5b60008060006101000a81548160ff02191690831515021790555061198f611f8a565b506119998261360e565b905060016000806101000a81548160ff021916908315150217905550919050565b601460009054906101000a900473ffffffffffffffffffffffffffffffffffffffff1681565b666379da05b6000081565b600081565b60095481565b601160009054906101000a900473ffffffffffffffffffffffffffffffffffffffff1681565b6000600e60008373ffffffffffffffffffffffffffffffffffffffff1673ffffffffffffffffffffffffffffffffffffffff168152602001908152602001600020549050919050565b60008060009054906101000a900460ff16611ab5576040517f08c379a0000000000000000000000000000000000000000000000000000000008152600401611aac90616d20565b60405180910390fd5b60008060006101000a81548160ff021916908315150217905550611ad7611f8a565b50600b54905060016000806101000a81548160ff02191690831515021790555090565b600360019054906101000a900473ffffffffffffffffffffffffffffffffffffffff1673ffffffffffffffffffffffffffffffffffffffff163373ffffffffffffffffffffffffffffffffffffffff1614611b8a576040517f08c379a0000000000000000000000000000000000000000000000000000000008152600401611b81906170f5565b60405180910390fd5b601160009054906101000a900473ffffffffffffffffffffffffffffffffffffffff1673ffffffffffffffffffffffffffffffffffffffff16635c19a95c826040518263ffffffff1660e01b8152600401611be591906167b5565b600060405180830381600087803b158015611bff57600080fd5b505af1158015611c13573d6000803e3d6000fd5b5050505050565b6000611c2582613801565b60009050919050565b601360009054906101000a900473ffffffffffffffffffffffffffffffffffffffff1681565b601560009054906101000a900473ffffffffffffffffffffffffffffffffffffffff1681565b600c5481565b60028054611c8d90616b16565b80601f0160208091040260200160405190810160405280929190818152602001828054611cb990616b16565b8015611d065780601f10611cdb57610100808354040283529160200191611d06565b820191906000526020600020905b815481529060010190602001808311611ce957829003601f168201915b505050505081565b6000611d198261389a565b9050919050565b600360019054906101000a900473ffffffffffffffffffffffffffffffffffffffff1673ffffffffffffffffffffffffffffffffffffffff163373ffffffffffffffffffffffffffffffffffffffff1614611db0576040517f08c379a0000000000000000000000000000000000000000000000000000000008152600401611da790617187565b60405180910390fd5b6000600954148015611dc457506000600a54145b611e03576040517f08c379a0000000000000000000000000000000000000000000000000000000008152600401611dfa90617219565b60405180910390fd5b83600781905550600060075411611e4f576040517f08c379a0000000000000000000000000000000000000000000000000000000008152600401611e46906172ab565b60405180910390fd5b6000611e5a87611630565b905060008114611e9f576040517f08c379a0000000000000000000000000000000000000000000000000000000008152600401611e9690617317565b60405180910390fd5b611ea7613925565b600981905550670de0b6b3a7640000600a81905550611ec58661392d565b905060008114611f0a576040517f08c379a0000000000000000000000000000000000000000000000000000000008152600401611f01906173a9565b60405180910390fd5b8360019080519060200190611f20929190615f94565b508260029080519060200190611f37929190615f94565b5081600360006101000a81548160ff021916908360ff16021790555060016000806101000a81548160ff02191690831515021790555050505050505050565b6000611f8182613b50565b60009050919050565b6000601460009054906101000a900473ffffffffffffffffffffffffffffffffffffffff1673ffffffffffffffffffffffffffffffffffffffff16639f678cca6040518163ffffffff1660e01b81526004016020604051808303816000875af1158015611ffb573d6000803e3d6000fd5b505050506040513d601f19601f8201168201806040525081019061201f9190616bef565b50612028613be7565b905090565b60008060009054906101000a900460ff1661207d576040517f08c379a000000000000000000000000000000000000000000000000000000000815260040161207490616d20565b60405180910390fd5b60008060006101000a81548160ff02191690831515021790555060006120a533338686612a59565b14905060016000806101000a81548160ff02191690831515021790555092915050565b600a5481565b6000600660009054906101000a900473ffffffffffffffffffffffffffffffffffffffff1673ffffffffffffffffffffffffffffffffffffffff1663b8168816612116612f9b565b600b54600c546008546040518563ffffffff1660e01b815260040161213e9493929190616968565b602060405180830381865afa15801561215b573d6000803e3d6000fd5b505050506040513d601f19601f8201168201806040525081019061217f9190616bef565b905090565b60008060009054906101000a900460ff166121d4576040517f08c379a00000000000000000000000000000000000000000000000000000000081526004016121cb90616d20565b60405180910390fd5b60008060006101000a81548160ff0219169083151502179055506121fa33858585613e02565b6000905060016000806101000a81548160ff0219169083151502179055509392505050565b6000600360019054906101000a900473ffffffffffffffffffffffffffffffffffffffff1673ffffffffffffffffffffffffffffffffffffffff163373ffffffffffffffffffffffffffffffffffffffff16146122a8576040517f5cb56c2b00000000000000000000000000000000000000000000000000000000815260040160405180910390fd5b6000600460009054906101000a900473ffffffffffffffffffffffffffffffffffffffff16905082600460006101000a81548173ffffffffffffffffffffffffffffffffffffffff021916908373ffffffffffffffffffffffffffffffffffffffff1602179055507fca4f2f25d0898edd99413412fb94012f9e54ec8142f9b093e7720646a95b16a981846040516123419291906173c9565b60405180910390a16000915050919050565b60008060009054906101000a900460ff166123a3576040517f08c379a000000000000000000000000000000000000000000000000000000000815260040161239a90616d20565b60405180910390fd5b60008060006101000a81548160ff0219169083151502179055506123c5611f8a565b506123ce61118d565b905060016000806101000a81548160ff02191690831515021790555090565b6000806000806000600e60008773ffffffffffffffffffffffffffffffffffffffff1673ffffffffffffffffffffffffffffffffffffffff1681526020019081526020016000205461243e8761389a565b6124466129e4565b93509350935093509193509193565b60006124608261420c565b60009050919050565b6000612474826142a3565b60009050919050565b6000600f60008473ffffffffffffffffffffffffffffffffffffffff1673ffffffffffffffffffffffffffffffffffffffff16815260200190815260200160002060008373ffffffffffffffffffffffffffffffffffffffff1673ffffffffffffffffffffffffffffffffffffffff16815260200190815260200160002054905092915050565b6000600460009054906101000a900473ffffffffffffffffffffffffffffffffffffffff1673ffffffffffffffffffffffffffffffffffffffff163373ffffffffffffffffffffffffffffffffffffffff1614158061258f5750600073ffffffffffffffffffffffffffffffffffffffff163373ffffffffffffffffffffffffffffffffffffffff16145b156125c6576040517f6e893ca400000000000000000000000000000000000000000000000000000000815260040160405180910390fd5b6000600360019054906101000a900473ffffffffffffffffffffffffffffffffffffffff1690506000600460009054906101000a900473ffffffffffffffffffffffffffffffffffffffff169050600460009054906101000a900473ffffffffffffffffffffffffffffffffffffffff16600360016101000a81548173ffffffffffffffffffffffffffffffffffffffff021916908373ffffffffffffffffffffffffffffffffffffffff1602179055506000600460006101000a81548173ffffffffffffffffffffffffffffffffffffffff021916908373ffffffffffffffffffffffffffffffffffffffff1602179055507ff9ffabca9c8276e99321725bcb43fb076a6c66a54b7f21c4e8146d8519b417dc82600360019054906101000a900473ffffffffffffffffffffffffffffffffffffffff1660405161270c9291906173c9565b60405180910390a17fca4f2f25d0898edd99413412fb94012f9e54ec8142f9b093e7720646a95b16a981600460009054906101000a900473ffffffffffffffffffffffffffffffffffffffff166040516127679291906173c9565b60405180910390a160009250505090565b6000612782611f8a565b5061278c8261392d565b9050919050565b600660009054906101000a900473ffffffffffffffffffffffffffffffffffffffff1681565b60006127c684848461433c565b600090509392505050565b600360019054906101000a900473ffffffffffffffffffffffffffffffffffffffff1681565b6000600660009054906101000a900473ffffffffffffffffffffffffffffffffffffffff1673ffffffffffffffffffffffffffffffffffffffff166315f2405361283f612f9b565b600b54600c546040518463ffffffff1660e01b8152600401612863939291906173f2565b602060405180830381865afa158015612880573d6000803e3d6000fd5b505050506040513d601f19601f820116820180604052508101906128a49190616bef565b905090565b60008060009054906101000a900460ff166128f9576040517f08c379a00000000000000000000000000000000000000000000000000000000081526004016128f090616d20565b60405180910390fd5b60008060006101000a81548160ff02191690831515021790555061291b611f8a565b5061292582614492565b905060016000806101000a81548160ff021916908315150217905550919050565b600181565b60008054906101000a900460ff16612998576040517f08c379a000000000000000000000000000000000000000000000000000000000815260040161298f90616d20565b60405180910390fd5b60008060006101000a81548160ff0219169083151502179055506129ba611f8a565b506129c63333836145f0565b5060016000806101000a81548160ff02191690831515021790555050565b600080600d5490506000811415612a0057600754915050612a56565b6000612a0a612f9b565b90506000600c54600b5483612a1f9190617429565b612a29919061747f565b9050600083670de0b6b3a764000083612a4291906174b3565b612a4c9190616c7a565b9050809450505050505b90565b600080600560009054906101000a900473ffffffffffffffffffffffffffffffffffffffff1673ffffffffffffffffffffffffffffffffffffffff1663bdcdc258308787876040518563ffffffff1660e01b8152600401612abd949392919061750d565b6020604051808303816000875af1158015612adc573d6000803e3d6000fd5b505050506040513d601f19601f82011682018060405250810190612b009190616bef565b905060008114612b4757806040517f113a84ee000000000000000000000000000000000000000000000000000000008152600401612b3e919061625f565b60405180910390fd5b8373ffffffffffffffffffffffffffffffffffffffff168573ffffffffffffffffffffffffffffffffffffffff161415612bad576040517f8cd22d1900000000000000000000000000000000000000000000000000000000815260040160405180910390fd5b60008573ffffffffffffffffffffffffffffffffffffffff168773ffffffffffffffffffffffffffffffffffffffff161415612c0b577fffffffffffffffffffffffffffffffffffffffffffffffffffffffffffffffff9050612c8b565b600f60008773ffffffffffffffffffffffffffffffffffffffff1673ffffffffffffffffffffffffffffffffffffffff16815260200190815260200160002060008873ffffffffffffffffffffffffffffffffffffffff1673ffffffffffffffffffffffffffffffffffffffff1681526020019081526020016000205490505b60008482612c99919061747f565b9050600085600e60008a73ffffffffffffffffffffffffffffffffffffffff1673ffffffffffffffffffffffffffffffffffffffff16815260200190815260200160002054612ce8919061747f565b9050600086600e60008a73ffffffffffffffffffffffffffffffffffffffff1673ffffffffffffffffffffffffffffffffffffffff16815260200190815260200160002054612d379190617429565b905081600e60008b73ffffffffffffffffffffffffffffffffffffffff1673ffffffffffffffffffffffffffffffffffffffff1681526020019081526020016000208190555080600e60008a73ffffffffffffffffffffffffffffffffffffffff1673ffffffffffffffffffffffffffffffffffffffff168152602001908152602001600020819055507fffffffffffffffffffffffffffffffffffffffffffffffffffffffffffffffff8414612e6a5782600f60008b73ffffffffffffffffffffffffffffffffffffffff1673ffffffffffffffffffffffffffffffffffffffff16815260200190815260200160002060008c73ffffffffffffffffffffffffffffffffffffffff1673ffffffffffffffffffffffffffffffffffffffff168152602001908152602001600020819055505b8773ffffffffffffffffffffffffffffffffffffffff168973ffffffffffffffffffffffffffffffffffffffff167fddf252ad1be2c89b69c2b068fc378daa952ba7f163c4a11628f55a4df523b3ef89604051612ec7919061625f565b60405180910390a3600095505050505050949350505050565b60008054906101000a900460ff16612f2d576040517f08c379a0000000000000000000000000000000000000000000000000000000008152600401612f2490616d20565b60405180910390fd5b60008060006101000a81548160ff021916908315150217905550612f4f611f8a565b50612f5b3383836145f0565b5060016000806101000a81548160ff0219169083151502179055505050565b600080612f878484614876565b9050612f92816148a2565b91505092915050565b600080601460009054906101000a900473ffffffffffffffffffffffffffffffffffffffff16905060008173ffffffffffffffffffffffffffffffffffffffff16630bebac86306040518263ffffffff1660e01b8152600401612ffe91906167b5565b602060405180830381865afa15801561301b573d6000803e3d6000fd5b505050506040513d601f19601f8201168201806040525081019061303f9190616bef565b90506b033b2e3c9fd0803ce80000006130c68373ffffffffffffffffffffffffffffffffffffffff1663c92aecc46040518163ffffffff1660e01b8152600401602060405180830381865afa15801561309c573d6000803e3d6000fd5b505050506040513d601f19601f820116820180604052508101906130c09190616bef565b836148c3565b6130d09190616c7a565b9250505090565b60008060009054906101000a900460ff16613127576040517f08c379a000000000000000000000000000000000000000000000000000000000815260040161311e90616d20565b60405180910390fd5b60008060006101000a81548160ff021916908315150217905550613149611f8a565b5061315382614930565b50506000905060016000806101000a81548160ff021916908315150217905550919050565b6000829050600082905060008273ffffffffffffffffffffffffffffffffffffffff1663f4b9fa756040518163ffffffff1660e01b81526004016020604051808303816000875af11580156131d1573d6000803e3d6000fd5b505050506040513d601f19601f820116820180604052508101906131f59190617590565b905060008373ffffffffffffffffffffffffffffffffffffffff166336569e776040518163ffffffff1660e01b81526004016020604051808303816000875af1158015613246573d6000803e3d6000fd5b505050506040513d601f19601f8201168201806040525081019061326a91906175fb565b9050601160009054906101000a900473ffffffffffffffffffffffffffffffffffffffff1673ffffffffffffffffffffffffffffffffffffffff168273ffffffffffffffffffffffffffffffffffffffff16146132fc576040517f08c379a00000000000000000000000000000000000000000000000000000000081526004016132f39061769a565b60405180910390fd5b85601360006101000a81548173ffffffffffffffffffffffffffffffffffffffff021916908373ffffffffffffffffffffffffffffffffffffffff16021790555084601460006101000a81548173ffffffffffffffffffffffffffffffffffffffff021916908373ffffffffffffffffffffffffffffffffffffffff16021790555080601560006101000a81548173ffffffffffffffffffffffffffffffffffffffff021916908373ffffffffffffffffffffffffffffffffffffffff1602179055508173ffffffffffffffffffffffffffffffffffffffff1663095ea7b3601360009054906101000a900473ffffffffffffffffffffffffffffffffffffffff167fffffffffffffffffffffffffffffffffffffffffffffffffffffffffffffffff6040518363ffffffff1660e01b815260040161343c929190616cab565b600060405180830381600087803b15801561345657600080fd5b505af115801561346a573d6000803e3d6000fd5b505050508073ffffffffffffffffffffffffffffffffffffffff1663a3b22fc4601460009054906101000a900473ffffffffffffffffffffffffffffffffffffffff166040518263ffffffff1660e01b81526004016134c991906167b5565b600060405180830381600087803b1580156134e357600080fd5b505af11580156134f7573d6000803e3d6000fd5b505050508073ffffffffffffffffffffffffffffffffffffffff1663a3b22fc4601360009054906101000a900473ffffffffffffffffffffffffffffffffffffffff166040518263ffffffff1660e01b815260040161355691906167b5565b600060405180830381600087803b15801561357057600080fd5b505af1158015613584573d6000803e3d6000fd5b505050508273ffffffffffffffffffffffffffffffffffffffff16639f678cca6040518163ffffffff1660e01b81526004016020604051808303816000875af11580156135d5573d6000803e3d6000fd5b505050506040513d601f19601f820116820180604052508101906135f99190616bef565b506136053060006149ef565b50505050505050565b600080600360019054906101000a900473ffffffffffffffffffffffffffffffffffffffff1673ffffffffffffffffffffffffffffffffffffffff163373ffffffffffffffffffffffffffffffffffffffff1614613698576040517ff7e5e6d000000000000000000000000000000000000000000000000000000000815260040160405180910390fd5b6136a0613925565b600954146136da576040517fdff50cb000000000000000000000000000000000000000000000000000000000815260040160405180910390fd5b826136e3612f9b565b101561371b576040517f3345e99900000000000000000000000000000000000000000000000000000000815260040160405180910390fd5b600c54831115613757576040517ff1a5300a00000000000000000000000000000000000000000000000000000000815260040160405180910390fd5b82600c54613765919061747f565b905080600c8190555061379a600360019054906101000a900473ffffffffffffffffffffffffffffffffffffffff1684614db3565b7f3bad0c59cf2f06e7314077049f48a93578cd16f5ef92329f1dab1420a99c177e600360019054906101000a900473ffffffffffffffffffffffffffffffffffffffff1684836040516137ef939291906176ba565b60405180910390a16000915050919050565b60008054906101000a900460ff1661384e576040517f08c379a000000000000000000000000000000000000000000000000000000000815260040161384590616d20565b60405180910390fd5b60008060006101000a81548160ff021916908315150217905550613870611f8a565b5061387d33600083614f7d565b60016000806101000a81548160ff02191690831515021790555050565b600080601060008473ffffffffffffffffffffffffffffffffffffffff1673ffffffffffffffffffffffffffffffffffffffff16815260200190815260200160002090506000816000015414156138f5576000915050613920565b6000600a54826000015461390991906174b3565b905081600101548161391b9190616c7a565b925050505b919050565b600043905090565b600080600360019054906101000a900473ffffffffffffffffffffffffffffffffffffffff1673ffffffffffffffffffffffffffffffffffffffff163373ffffffffffffffffffffffffffffffffffffffff16146139b7576040517f407fded500000000000000000000000000000000000000000000000000000000815260040160405180910390fd5b6139bf613925565b600954146139f9576040517f17c54b9600000000000000000000000000000000000000000000000000000000815260040160405180910390fd5b600660009054906101000a900473ffffffffffffffffffffffffffffffffffffffff1690508273ffffffffffffffffffffffffffffffffffffffff16632191f92a6040518163ffffffff1660e01b8152600401602060405180830381865afa158015613a69573d6000803e3d6000fd5b505050506040513d601f19601f82011682018060405250810190613a8d9190616eda565b613acc576040517f08c379a0000000000000000000000000000000000000000000000000000000008152600401613ac390616f53565b60405180910390fd5b82600660006101000a81548173ffffffffffffffffffffffffffffffffffffffff021916908373ffffffffffffffffffffffffffffffffffffffff1602179055507fedffc32e068c7c95dfd4bdfd5c4d939a084d6b11c4199eac8436ed234d72f9268184604051613b3e9291906176f1565b60405180910390a16000915050919050565b60008054906101000a900460ff16613b9d576040517f08c379a0000000000000000000000000000000000000000000000000000000008152600401613b9490616d20565b60405180910390fd5b60008060006101000a81548160ff021916908315150217905550613bbf611f8a565b50613bca338261536b565b60016000806101000a81548160ff02191690831515021790555050565b600080613bf2613925565b90506000600954905081811415613c0e57600092505050613dff565b6000613c18612f9b565b90506000600b5490506000600c5490506000600a5490506000600660009054906101000a900473ffffffffffffffffffffffffffffffffffffffff1673ffffffffffffffffffffffffffffffffffffffff166315f240538686866040518463ffffffff1660e01b8152600401613c90939291906173f2565b602060405180830381865afa158015613cad573d6000803e3d6000fd5b505050506040513d601f19601f82011682018060405250810190613cd19190616bef565b905065048c27395000811115613d1c576040517f08c379a0000000000000000000000000000000000000000000000000000000008152600401613d1390617766565b60405180910390fd5b60008688613d2a919061747f565b90506000613d4660405180602001604052808581525083614876565b90506000613d548288612f7a565b905060008782613d649190617429565b90506000613d836040518060200160405280600854815250848a615618565b90506000613d9285898a615618565b90508c60098190555080600a8190555082600b8190555081600c819055507f4dec04e750ca11537cabcd8a9eab06494de08da3735bc8871cd41250e190bc048b858386604051613de59493929190616968565b60405180910390a160009d50505050505050505050505050505b90565b6000600560009054906101000a900473ffffffffffffffffffffffffffffffffffffffff1673ffffffffffffffffffffffffffffffffffffffff1663d02f735130878787876040518663ffffffff1660e01b8152600401613e67959493929190617786565b6020604051808303816000875af1158015613e86573d6000803e3d6000fd5b505050506040513d601f19601f82011682018060405250810190613eaa9190616bef565b905060008114613ef157806040517fc7c01c66000000000000000000000000000000000000000000000000000000008152600401613ee8919061625f565b60405180910390fd5b8373ffffffffffffffffffffffffffffffffffffffff168373ffffffffffffffffffffffffffffffffffffffff161415613f57576040517f7528c4ce00000000000000000000000000000000000000000000000000000000815260040160405180910390fd5b6000613f78836040518060200160405280666379da05b60000815250615643565b905060008184613f88919061747f565b905060006040518060200160405280613f9f6129e4565b81525090506000613fb08285612f7a565b9050600081600c54613fc29190617429565b905080600c8190555084600d54613fd9919061747f565b600d8190555086600e60008a73ffffffffffffffffffffffffffffffffffffffff1673ffffffffffffffffffffffffffffffffffffffff1681526020019081526020016000205461402a919061747f565b600e60008a73ffffffffffffffffffffffffffffffffffffffff1673ffffffffffffffffffffffffffffffffffffffff1681526020019081526020016000208190555083600e60008b73ffffffffffffffffffffffffffffffffffffffff1673ffffffffffffffffffffffffffffffffffffffff168152602001908152602001600020546140b89190617429565b600e60008b73ffffffffffffffffffffffffffffffffffffffff1673ffffffffffffffffffffffffffffffffffffffff168152602001908152602001600020819055508873ffffffffffffffffffffffffffffffffffffffff168873ffffffffffffffffffffffffffffffffffffffff167fddf252ad1be2c89b69c2b068fc378daa952ba7f163c4a11628f55a4df523b3ef86604051614158919061625f565b60405180910390a33073ffffffffffffffffffffffffffffffffffffffff168873ffffffffffffffffffffffffffffffffffffffff167fddf252ad1be2c89b69c2b068fc378daa952ba7f163c4a11628f55a4df523b3ef876040516141bd919061625f565b60405180910390a37fa91e67c5ea634cd43a12c5a482724b03de01e85ca68702a53d0c2f45cb7c1dc53083836040516141f8939291906177d9565b60405180910390a150505050505050505050565b60008054906101000a900460ff16614259576040517f08c379a000000000000000000000000000000000000000000000000000000000815260040161425090616d20565b60405180910390fd5b60008060006101000a81548160ff02191690831515021790555061427b611f8a565b50614286338261566e565b60016000806101000a81548160ff02191690831515021790555050565b60008054906101000a900460ff166142f0576040517f08c379a00000000000000000000000000000000000000000000000000000000081526004016142e790616d20565b60405180910390fd5b60008060006101000a81548160ff021916908315150217905550614312611f8a565b5061431f33826000614f7d565b60016000806101000a81548160ff02191690831515021790555050565b60008054906101000a900460ff16614389576040517f08c379a000000000000000000000000000000000000000000000000000000000815260040161438090616d20565b60405180910390fd5b60008060006101000a81548160ff0219169083151502179055506143ab611f8a565b5060008173ffffffffffffffffffffffffffffffffffffffff1663a6afed956040518163ffffffff1660e01b81526004016020604051808303816000875af11580156143fb573d6000803e3d6000fd5b505050506040513d601f19601f8201168201806040525081019061441f9190616bef565b90506000811461446657806040517f7dd4936e00000000000000000000000000000000000000000000000000000000815260040161445d919061625f565b60405180910390fd5b614472338585856158f1565b5060016000806101000a81548160ff021916908315150217905550505050565b6000600360019054906101000a900473ffffffffffffffffffffffffffffffffffffffff1673ffffffffffffffffffffffffffffffffffffffff163373ffffffffffffffffffffffffffffffffffffffff161461451b576040517f240b6af600000000000000000000000000000000000000000000000000000000815260040160405180910390fd5b614523613925565b6009541461455d576040517ffbf94d6e00000000000000000000000000000000000000000000000000000000815260040160405180910390fd5b670de0b6b3a764000082111561459f576040517fe2e441e600000000000000000000000000000000000000000000000000000000815260040160405180910390fd5b60006008549050826008819055507faaa68312e2ea9d50e16af5068410ab56e1a1fd06037b1a35664812c30f82146081846040516145de929190617810565b60405180910390a16000915050919050565b600080600560009054906101000a900473ffffffffffffffffffffffffffffffffffffffff1673ffffffffffffffffffffffffffffffffffffffff166324008a62308787876040518563ffffffff1660e01b8152600401614654949392919061750d565b6020604051808303816000875af1158015614673573d6000803e3d6000fd5b505050506040513d601f19601f820116820180604052508101906146979190616bef565b9050600081146146de57806040517f8c81362d0000000000000000000000000000000000000000000000000000000081526004016146d5919061625f565b60405180910390fd5b6146e6613925565b60095414614720576040517fc9021e2f00000000000000000000000000000000000000000000000000000000815260040160405180910390fd5b600061472b8561389a565b905060007fffffffffffffffffffffffffffffffffffffffffffffffffffffffffffffffff851461475c578461475e565b815b9050600061476c88836149ef565b90506000818461477c919061747f565b9050600082600b5461478e919061747f565b905081601060008b73ffffffffffffffffffffffffffffffffffffffff1673ffffffffffffffffffffffffffffffffffffffff16815260200190815260200160002060000181905550600a54601060008b73ffffffffffffffffffffffffffffffffffffffff1673ffffffffffffffffffffffffffffffffffffffff1681526020019081526020016000206001018190555080600b819055507f1a2a22cb034d26d1854bdc6666a5b91fe25efbbb5dcad3b0355478d6f5c362a18a8a85858560405161485e959493929190617839565b60405180910390a18296505050505050509392505050565b61487e61601a565b6040518060200160405280614897856000015185615ed0565b815250905092915050565b6000670de0b6b3a764000082600001516148bc9190616c7a565b9050919050565b6000808214806148eb5750828283856148dc91906174b3565b9250826148e99190616c7a565b145b61492a576040517f08c379a0000000000000000000000000000000000000000000000000000000008152600401614921906178d8565b60405180910390fd5b92915050565b60008060008061493e613925565b6009541461498357806040517f38acf79900000000000000000000000000000000000000000000000000000000815260040161497a919061625f565b60405180910390fd5b61498d33866149ef565b905080600c5461499d9190617429565b915081600c819055507fa91e67c5ea634cd43a12c5a482724b03de01e85ca68702a53d0c2f45cb7c1dc53382846040516149d9939291906177d9565b60405180910390a1600081935093505050915091565b600080601160009054906101000a900473ffffffffffffffffffffffffffffffffffffffff16905060008190508073ffffffffffffffffffffffffffffffffffffffff166323b872dd8630876040518463ffffffff1660e01b8152600401614a59939291906178f8565b6020604051808303816000875af1158015614a78573d6000803e3d6000fd5b505050506040513d601f19601f82011682018060405250810190614a9c9190616eda565b614adb576040517f08c379a0000000000000000000000000000000000000000000000000000000008152600401614ad2906179a1565b60405180910390fd5b6000601360009054906101000a900473ffffffffffffffffffffffffffffffffffffffff16905060008390506000601460009054906101000a900473ffffffffffffffffffffffffffffffffffffffff1690506000601560009054906101000a900473ffffffffffffffffffffffffffffffffffffffff1690508373ffffffffffffffffffffffffffffffffffffffff16633b4da69f308573ffffffffffffffffffffffffffffffffffffffff166370a08231306040518263ffffffff1660e01b8152600401614bab91906167b5565b602060405180830381865afa158015614bc8573d6000803e3d6000fd5b505050506040513d601f19601f82011682018060405250810190614bec9190616bef565b6040518363ffffffff1660e01b8152600401614c09929190616cab565b600060405180830381600087803b158015614c2357600080fd5b505af1158015614c37573d6000803e3d6000fd5b5050505060008173ffffffffffffffffffffffffffffffffffffffff16636c25b346306040518263ffffffff1660e01b8152600401614c7691906167b5565b602060405180830381865afa158015614c93573d6000803e3d6000fd5b505050506040513d601f19601f82011682018060405250810190614cb79190616bef565b905060008373ffffffffffffffffffffffffffffffffffffffff1663c92aecc46040518163ffffffff1660e01b8152600401602060405180830381865afa158015614d06573d6000803e3d6000fd5b505050506040513d601f19601f82011682018060405250810190614d2a9190616bef565b82614d359190616c7a565b90508373ffffffffffffffffffffffffffffffffffffffff1663049878f3826040518263ffffffff1660e01b8152600401614d70919061625f565b600060405180830381600087803b158015614d8a57600080fd5b505af1158015614d9e573d6000803e3d6000fd5b50505050899850505050505050505092915050565b6000601360009054906101000a900473ffffffffffffffffffffffffffffffffffffffff1690506000601460009054906101000a900473ffffffffffffffffffffffffffffffffffffffff1690506000614e9c8273ffffffffffffffffffffffffffffffffffffffff1663c92aecc46040518163ffffffff1660e01b8152600401602060405180830381865afa158015614e51573d6000803e3d6000fd5b505050506040513d601f19601f82011682018060405250810190614e759190616bef565b614e8b866b033b2e3c9fd0803ce80000006148c3565b614e959190616c7a565b6001615ee6565b90508173ffffffffffffffffffffffffffffffffffffffff16637f8661a1826040518263ffffffff1660e01b8152600401614ed7919061625f565b600060405180830381600087803b158015614ef157600080fd5b505af1158015614f05573d6000803e3d6000fd5b505050508273ffffffffffffffffffffffffffffffffffffffff1663ef693bed86866040518363ffffffff1660e01b8152600401614f44929190616e85565b600060405180830381600087803b158015614f5e57600080fd5b505af1158015614f72573d6000803e3d6000fd5b505050505050505050565b6000821480614f8c5750600081145b614fcb576040517f08c379a0000000000000000000000000000000000000000000000000000000008152600401614fc290617a33565b60405180910390fd5b60006040518060200160405280614fe06129e4565b8152509050600080600085111561500557849150614ffe8386612f7a565b9050615015565b61500f8484615f3f565b91508390505b6000600560009054906101000a900473ffffffffffffffffffffffffffffffffffffffff1673ffffffffffffffffffffffffffffffffffffffff1663eabe7d913089866040518463ffffffff1660e01b815260040161507693929190617a53565b6020604051808303816000875af1158015615095573d6000803e3d6000fd5b505050506040513d601f19601f820116820180604052508101906150b99190616bef565b90506000811461510057806040517f480f42470000000000000000000000000000000000000000000000000000000081526004016150f7919061625f565b60405180910390fd5b615108613925565b60095414615142576040517f97b5cfcd00000000000000000000000000000000000000000000000000000000815260040160405180910390fd5b8161514b612f9b565b1015615183576040517f91240a1b00000000000000000000000000000000000000000000000000000000815260040160405180910390fd5b82600d54615191919061747f565b600d8190555082600e60008973ffffffffffffffffffffffffffffffffffffffff1673ffffffffffffffffffffffffffffffffffffffff168152602001908152602001600020546151e2919061747f565b600e60008973ffffffffffffffffffffffffffffffffffffffff1673ffffffffffffffffffffffffffffffffffffffff1681526020019081526020016000208190555061522f8783614db3565b3073ffffffffffffffffffffffffffffffffffffffff168773ffffffffffffffffffffffffffffffffffffffff167fddf252ad1be2c89b69c2b068fc378daa952ba7f163c4a11628f55a4df523b3ef8560405161528c919061625f565b60405180910390a37fe5b754fb1abb7f01b499791d0b820ae3b6af3424ac1c59768edb53f4ec31a9298783856040516152c7939291906176ba565b60405180910390a1600560009054906101000a900473ffffffffffffffffffffffffffffffffffffffff1673ffffffffffffffffffffffffffffffffffffffff166351dff989308985876040518563ffffffff1660e01b81526004016153309493929190617a8a565b600060405180830381600087803b15801561534a57600080fd5b505af115801561535e573d6000803e3d6000fd5b5050505050505050505050565b6000600560009054906101000a900473ffffffffffffffffffffffffffffffffffffffff1673ffffffffffffffffffffffffffffffffffffffff16634ef4c3e13085856040518463ffffffff1660e01b81526004016153cc939291906178f8565b6020604051808303816000875af11580156153eb573d6000803e3d6000fd5b505050506040513d601f19601f8201168201806040525081019061540f9190616bef565b90506000811461545657806040517f49abd4fd00000000000000000000000000000000000000000000000000000000815260040161544d919061625f565b60405180910390fd5b61545e613925565b60095414615498576040517f38d8859700000000000000000000000000000000000000000000000000000000815260040160405180910390fd5b600060405180602001604052806154ad6129e4565b815250905060006154be85856149ef565b905060006154cc8284615f3f565b905080600d546154dc9190617429565b600d8190555080600e60008873ffffffffffffffffffffffffffffffffffffffff1673ffffffffffffffffffffffffffffffffffffffff1681526020019081526020016000205461552d9190617429565b600e60008873ffffffffffffffffffffffffffffffffffffffff1673ffffffffffffffffffffffffffffffffffffffff168152602001908152602001600020819055507f4c209b5fc8ad50758f13e2e1088ba56a560dff690a1c6fef26394f4c03821c4f8683836040516155a3939291906177d9565b60405180910390a18573ffffffffffffffffffffffffffffffffffffffff163073ffffffffffffffffffffffffffffffffffffffff167fddf252ad1be2c89b69c2b068fc378daa952ba7f163c4a11628f55a4df523b3ef83604051615608919061625f565b60405180910390a3505050505050565b6000806156258585614876565b9050615639615633826148a2565b84615f68565b9150509392505050565b6000670de0b6b3a764000061565c848460000151615ed0565b6156669190616c7a565b905092915050565b6000600560009054906101000a900473ffffffffffffffffffffffffffffffffffffffff1673ffffffffffffffffffffffffffffffffffffffff1663da3d454c3085856040518463ffffffff1660e01b81526004016156cf93929190617a53565b6020604051808303816000875af11580156156ee573d6000803e3d6000fd5b505050506040513d601f19601f820116820180604052508101906157129190616bef565b90506000811461575957806040517f918db40f000000000000000000000000000000000000000000000000000000008152600401615750919061625f565b60405180910390fd5b615761613925565b6009541461579b576040517f3a36318400000000000000000000000000000000000000000000000000000000815260040160405180910390fd5b816157a4612f9b565b10156157dc576040517f48c2588100000000000000000000000000000000000000000000000000000000815260040160405180910390fd5b60006157e78461389a565b9050600083826157f79190617429565b9050600084600b546158099190617429565b905081601060008873ffffffffffffffffffffffffffffffffffffffff1673ffffffffffffffffffffffffffffffffffffffff16815260200190815260200160002060000181905550600a54601060008873ffffffffffffffffffffffffffffffffffffffff1673ffffffffffffffffffffffffffffffffffffffff1681526020019081526020016000206001018190555080600b819055506158ac8686614db3565b7f13ed6866d4e1ee6da46f845c46d7e54120883d75c5ea9a2dacc1c4ca8984ab80868684846040516158e19493929190617acf565b60405180910390a1505050505050565b6000600560009054906101000a900473ffffffffffffffffffffffffffffffffffffffff1673ffffffffffffffffffffffffffffffffffffffff16635fc7e71e30848888886040518663ffffffff1660e01b8152600401615956959493929190617786565b6020604051808303816000875af1158015615975573d6000803e3d6000fd5b505050506040513d601f19601f820116820180604052508101906159999190616bef565b9050600081146159e057806040517f1429a2f20000000000000000000000000000000000000000000000000000000081526004016159d7919061625f565b60405180910390fd5b6159e8613925565b60095414615a22576040517f80965b1b00000000000000000000000000000000000000000000000000000000815260040160405180910390fd5b615a2a613925565b8273ffffffffffffffffffffffffffffffffffffffff16636c540baf6040518163ffffffff1660e01b8152600401602060405180830381865afa158015615a75573d6000803e3d6000fd5b505050506040513d601f19601f82011682018060405250810190615a999190616bef565b14615ad0576040517f82379c6800000000000000000000000000000000000000000000000000000000815260040160405180910390fd5b8473ffffffffffffffffffffffffffffffffffffffff168473ffffffffffffffffffffffffffffffffffffffff161415615b36576040517f6f46988400000000000000000000000000000000000000000000000000000000815260040160405180910390fd5b6000831415615b71576040517fd29da7ef00000000000000000000000000000000000000000000000000000000815260040160405180910390fd5b7fffffffffffffffffffffffffffffffffffffffffffffffffffffffffffffffff831415615bcb576040517fb3058b7600000000000000000000000000000000000000000000000000000000815260040160405180910390fd5b6000615bd88686866145f0565b9050600080600560009054906101000a900473ffffffffffffffffffffffffffffffffffffffff1673ffffffffffffffffffffffffffffffffffffffff1663c488847b3087866040518463ffffffff1660e01b8152600401615c3c939291906178f8565b6040805180830381865afa158015615c58573d6000803e3d6000fd5b505050506040513d601f19601f82011682018060405250810190615c7c9190617b14565b9150915060008214615cc3576040517f08c379a0000000000000000000000000000000000000000000000000000000008152600401615cba90617bc6565b60405180910390fd5b808573ffffffffffffffffffffffffffffffffffffffff166370a08231896040518263ffffffff1660e01b8152600401615cfd91906167b5565b602060405180830381865afa158015615d1a573d6000803e3d6000fd5b505050506040513d601f19601f82011682018060405250810190615d3e9190616bef565b1015615d7f576040517f08c379a0000000000000000000000000000000000000000000000000000000008152600401615d7690617c32565b60405180910390fd5b3073ffffffffffffffffffffffffffffffffffffffff168573ffffffffffffffffffffffffffffffffffffffff161415615dc457615dbf30898984613e02565b615e87565b60008573ffffffffffffffffffffffffffffffffffffffff1663b2a02ff18a8a856040518463ffffffff1660e01b8152600401615e03939291906178f8565b6020604051808303816000875af1158015615e22573d6000803e3d6000fd5b505050506040513d601f19601f82011682018060405250810190615e469190616bef565b14615e86576040517f08c379a0000000000000000000000000000000000000000000000000000000008152600401615e7d90617c9e565b60405180910390fd5b5b7f298637f684da70674f26509b10f07ec2fbc77a335ab1e7d6215a4b2484d8bb528888858885604051615ebe959493929190617cbe565b60405180910390a15050505050505050565b60008183615ede91906174b3565b905092915050565b6000828284615ef59190617429565b9150811015615f39576040517f08c379a0000000000000000000000000000000000000000000000000000000008152600401615f3090617d5d565b60405180910390fd5b92915050565b6000615f60615f5684670de0b6b3a7640000615ed0565b8360000151615f7e565b905092915050565b60008183615f769190617429565b905092915050565b60008183615f8c9190616c7a565b905092915050565b828054615fa090616b16565b90600052602060002090601f016020900481019282615fc25760008555616009565b82601f10615fdb57805160ff1916838001178555616009565b82800160010185558215616009579182015b82811115616008578251825591602001919060010190615fed565b5b509050616016919061602d565b5090565b6040518060200160405280600081525090565b5b8082111561604657600081600090555060010161602e565b5090565b600081519050919050565b600082825260208201905092915050565b60005b83811015616084578082015181840152602081019050616069565b83811115616093576000848401525b50505050565b6000601f19601f8301169050919050565b60006160b58261604a565b6160bf8185616055565b93506160cf818560208601616066565b6160d881616099565b840191505092915050565b600060208201905081810360008301526160fd81846160aa565b905092915050565b6000604051905090565b600080fd5b600080fd5b600073ffffffffffffffffffffffffffffffffffffffff82169050919050565b600061614482616119565b9050919050565b61615481616139565b811461615f57600080fd5b50565b6000813590506161718161614b565b92915050565b6000819050919050565b61618a81616177565b811461619557600080fd5b50565b6000813590506161a781616181565b92915050565b600080604083850312156161c4576161c361610f565b5b60006161d285828601616162565b92505060206161e385828601616198565b9150509250929050565b60008115159050919050565b616202816161ed565b82525050565b600060208201905061621d60008301846161f9565b92915050565b6000602082840312156162395761623861610f565b5b600061624784828501616198565b91505092915050565b61625981616177565b82525050565b60006020820190506162746000830184616250565b92915050565b6000602082840312156162905761628f61610f565b5b600061629e84828501616162565b91505092915050565b60006162b282616139565b9050919050565b6162c2816162a7565b81146162cd57600080fd5b50565b6000813590506162df816162b9565b92915050565b60006162f082616139565b9050919050565b616300816162e5565b811461630b57600080fd5b50565b60008135905061631d816162f7565b92915050565b600080fd5b600080fd5b7f4e487b7100000000000000000000000000000000000000000000000000000000600052604160045260246000fd5b61636582616099565b810181811067ffffffffffffffff821117156163845761638361632d565b5b80604052505050565b6000616397616105565b90506163a3828261635c565b919050565b600067ffffffffffffffff8211156163c3576163c261632d565b5b6163cc82616099565b9050602081019050919050565b82818337600083830152505050565b60006163fb6163f6846163a8565b61638d565b90508281526020810184848401111561641757616416616328565b5b6164228482856163d9565b509392505050565b600082601f83011261643f5761643e616323565b5b813561644f8482602086016163e8565b91505092915050565b600060ff82169050919050565b61646e81616458565b811461647957600080fd5b50565b60008135905061648b81616465565b92915050565b600080600080600080600060e0888a0312156164b0576164af61610f565b5b60006164be8a828b01616162565b97505060206164cf8a828b016162d0565b96505060406164e08a828b0161630e565b95505060606164f18a828b01616198565b945050608088013567ffffffffffffffff81111561651257616511616114565b5b61651e8a828b0161642a565b93505060a088013567ffffffffffffffff81111561653f5761653e616114565b5b61654b8a828b0161642a565b92505060c061655c8a828b0161647c565b91505092959891949750929550565b600061657682616139565b9050919050565b6165868161656b565b811461659157600080fd5b50565b6000813590506165a38161657d565b92915050565b6000602082840312156165bf576165be61610f565b5b60006165cd84828501616594565b91505092915050565b6000806000606084860312156165ef576165ee61610f565b5b60006165fd86828701616162565b935050602061660e86828701616162565b925050604061661f86828701616198565b9150509250925092565b600061663482616119565b9050919050565b61664481616629565b82525050565b600060208201905061665f600083018461663b565b92915050565b61666e81616458565b82525050565b60006020820190506166896000830184616665565b92915050565b6000602082840312156166a5576166a461610f565b5b60006166b3848285016162d0565b91505092915050565b600067ffffffffffffffff8211156166d7576166d661632d565b5b6166e082616099565b9050602081019050919050565b60006167006166fb846166bc565b61638d565b90508281526020810184848401111561671c5761671b616328565b5b6167278482856163d9565b509392505050565b600082601f83011261674457616743616323565b5b81356167548482602086016166ed565b91505092915050565b6000602082840312156167735761677261610f565b5b600082013567ffffffffffffffff81111561679157616790616114565b5b61679d8482850161672f565b91505092915050565b6167af81616139565b82525050565b60006020820190506167ca60008301846167a6565b92915050565b6000819050919050565b60006167f56167f06167eb84616119565b6167d0565b616119565b9050919050565b6000616807826167da565b9050919050565b6000616819826167fc565b9050919050565b6168298161680e565b82525050565b60006020820190506168446000830184616820565b92915050565b60008060008060008060c087890312156168675761686661610f565b5b600061687589828a016162d0565b965050602061688689828a0161630e565b955050604061689789828a01616198565b945050606087013567ffffffffffffffff8111156168b8576168b7616114565b5b6168c489828a0161642a565b935050608087013567ffffffffffffffff8111156168e5576168e4616114565b5b6168f189828a0161642a565b92505060a061690289828a0161647c565b9150509295509295509295565b61691881616629565b811461692357600080fd5b50565b6000813590506169358161690f565b92915050565b6000602082840312156169515761695061610f565b5b600061695f84828501616926565b91505092915050565b600060808201905061697d6000830187616250565b61698a6020830186616250565b6169976040830185616250565b6169a46060830184616250565b95945050505050565b600080604083850312156169c4576169c361610f565b5b60006169d285828601616162565b92505060206169e385828601616162565b9150509250929050565b600060208284031215616a0357616a0261610f565b5b6000616a118482850161630e565b91505092915050565b6000616a25826167fc565b9050919050565b616a3581616a1a565b82525050565b6000602082019050616a506000830184616a2c565b92915050565b6000616a6182616139565b9050919050565b616a7181616a56565b8114616a7c57600080fd5b50565b600081359050616a8e81616a68565b92915050565b600080600060608486031215616aad57616aac61610f565b5b6000616abb86828701616162565b9350506020616acc86828701616198565b9250506040616add86828701616a7f565b9150509250925092565b7f4e487b7100000000000000000000000000000000000000000000000000000000600052602260045260246000fd5b60006002820490506001821680616b2e57607f821691505b60208210811415616b4257616b41616ae7565b5b50919050565b7f6f6e6c79207468652061646d696e206d6179206162616e646f6e20746865206960008201527f6d706c656d656e746174696f6e00000000000000000000000000000000000000602082015250565b6000616ba4602d83616055565b9150616baf82616b48565b604082019050919050565b60006020820190508181036000830152616bd381616b97565b9050919050565b600081519050616be981616181565b92915050565b600060208284031215616c0557616c0461610f565b5b6000616c1384828501616bda565b91505092915050565b7f4e487b7100000000000000000000000000000000000000000000000000000000600052601260045260246000fd5b7f4e487b7100000000000000000000000000000000000000000000000000000000600052601160045260246000fd5b6000616c8582616177565b9150616c9083616177565b925082616ca057616c9f616c1c565b5b828204905092915050565b6000604082019050616cc060008301856167a6565b616ccd6020830184616250565b9392505050565b7f72652d656e746572656400000000000000000000000000000000000000000000600082015250565b6000616d0a600a83616055565b9150616d1582616cd4565b602082019050919050565b60006020820190508181036000830152616d3981616cfd565b9050919050565b7f4345726332303a3a7377656570546f6b656e3a206f6e6c792061646d696e206360008201527f616e20737765657020746f6b656e730000000000000000000000000000000000602082015250565b6000616d9c602f83616055565b9150616da782616d40565b604082019050919050565b60006020820190508181036000830152616dcb81616d8f565b9050919050565b7f4345726332303a3a7377656570546f6b656e3a2063616e206e6f74207377656560008201527f7020756e6465726c79696e6720746f6b656e0000000000000000000000000000602082015250565b6000616e2e603283616055565b9150616e3982616dd2565b604082019050919050565b60006020820190508181036000830152616e5d81616e21565b9050919050565b6000616e6f826167fc565b9050919050565b616e7f81616e64565b82525050565b6000604082019050616e9a6000830185616e76565b616ea76020830184616250565b9392505050565b616eb7816161ed565b8114616ec257600080fd5b50565b600081519050616ed481616eae565b92915050565b600060208284031215616ef057616eef61610f565b5b6000616efe84828501616ec5565b91505092915050565b7f6d61726b6572206d6574686f642072657475726e65642066616c736500000000600082015250565b6000616f3d601c83616055565b9150616f4882616f07565b602082019050919050565b60006020820190508181036000830152616f6c81616f30565b9050919050565b6000604082019050616f886000830185616820565b616f956020830184616820565b9392505050565b7f6f6e6c79207468652061646d696e206d617920696e697469616c697a6520746860008201527f6520696d706c656d656e746174696f6e00000000000000000000000000000000602082015250565b6000616ff8603083616055565b915061700382616f9c565b604082019050919050565b6000602082019050818103600083015261702781616feb565b9050919050565b60008151905061703d8161690f565b92915050565b6000806040838503121561705a5761705961610f565b5b60006170688582860161702e565b92505060206170798582860161702e565b9150509250929050565b7f6f6e6c79207468652061646d696e206d6179207365742074686520636f6d702d60008201527f6c696b652064656c656761746500000000000000000000000000000000000000602082015250565b60006170df602d83616055565b91506170ea82617083565b604082019050919050565b6000602082019050818103600083015261710e816170d2565b9050919050565b7f6f6e6c792061646d696e206d617920696e697469616c697a6520746865206d6160008201527f726b657400000000000000000000000000000000000000000000000000000000602082015250565b6000617171602483616055565b915061717c82617115565b604082019050919050565b600060208201905081810360008301526171a081617164565b9050919050565b7f6d61726b6574206d6179206f6e6c7920626520696e697469616c697a6564206f60008201527f6e63650000000000000000000000000000000000000000000000000000000000602082015250565b6000617203602383616055565b915061720e826171a7565b604082019050919050565b60006020820190508181036000830152617232816171f6565b9050919050565b7f696e697469616c2065786368616e67652072617465206d75737420626520677260008201527f6561746572207468616e207a65726f2e00000000000000000000000000000000602082015250565b6000617295603083616055565b91506172a082617239565b604082019050919050565b600060208201905081810360008301526172c481617288565b9050919050565b7f73657474696e6720636f6d7074726f6c6c6572206661696c6564000000000000600082015250565b6000617301601a83616055565b915061730c826172cb565b602082019050919050565b60006020820190508181036000830152617330816172f4565b9050919050565b7f73657474696e6720696e7465726573742072617465206d6f64656c206661696c60008201527f6564000000000000000000000000000000000000000000000000000000000000602082015250565b6000617393602283616055565b915061739e82617337565b604082019050919050565b600060208201905081810360008301526173c281617386565b9050919050565b60006040820190506173de60008301856167a6565b6173eb6020830184616e76565b9392505050565b60006060820190506174076000830186616250565b6174146020830185616250565b6174216040830184616250565b949350505050565b600061743482616177565b915061743f83616177565b9250827fffffffffffffffffffffffffffffffffffffffffffffffffffffffffffffffff0382111561747457617473616c4b565b5b828201905092915050565b600061748a82616177565b915061749583616177565b9250828210156174a8576174a7616c4b565b5b828203905092915050565b60006174be82616177565b91506174c983616177565b9250817fffffffffffffffffffffffffffffffffffffffffffffffffffffffffffffffff048311821515161561750257617501616c4b565b5b828202905092915050565b600060808201905061752260008301876167a6565b61752f60208301866167a6565b61753c60408301856167a6565b6175496060830184616250565b95945050505050565b600061755d82616139565b9050919050565b61756d81617552565b811461757857600080fd5b50565b60008151905061758a81617564565b92915050565b6000602082840312156175a6576175a561610f565b5b60006175b48482850161757b565b91505092915050565b60006175c882616139565b9050919050565b6175d8816175bd565b81146175e357600080fd5b50565b6000815190506175f5816175cf565b92915050565b6000602082840312156176115761761061610f565b5b600061761f848285016175e6565b91505092915050565b7f444149206d757374206265207468652073616d6520617320756e6465726c796960008201527f6e67000000000000000000000000000000000000000000000000000000000000602082015250565b6000617684602283616055565b915061768f82617628565b604082019050919050565b600060208201905081810360008301526176b381617677565b9050919050565b60006060820190506176cf6000830186616e76565b6176dc6020830185616250565b6176e96040830184616250565b949350505050565b60006040820190506177066000830185616a2c565b6177136020830184616a2c565b9392505050565b7f626f72726f772072617465206973206162737572646c79206869676800000000600082015250565b6000617750601c83616055565b915061775b8261771a565b602082019050919050565b6000602082019050818103600083015261777f81617743565b9050919050565b600060a08201905061779b60008301886167a6565b6177a860208301876167a6565b6177b560408301866167a6565b6177c260608301856167a6565b6177cf6080830184616250565b9695505050505050565b60006060820190506177ee60008301866167a6565b6177fb6020830185616250565b6178086040830184616250565b949350505050565b60006040820190506178256000830185616250565b6178326020830184616250565b9392505050565b600060a08201905061784e60008301886167a6565b61785b60208301876167a6565b6178686040830186616250565b6178756060830185616250565b6178826080830184616250565b9695505050505050565b7f6d756c2d6f766572666c6f770000000000000000000000000000000000000000600082015250565b60006178c2600c83616055565b91506178cd8261788c565b602082019050919050565b600060208201905081810360008301526178f1816178b5565b9050919050565b600060608201905061790d60008301866167a6565b61791a60208301856167a6565b6179276040830184616250565b949350505050565b7f756e6578706563746564204549502d3230207472616e7366657220696e20726560008201527f7475726e00000000000000000000000000000000000000000000000000000000602082015250565b600061798b602483616055565b91506179968261792f565b604082019050919050565b600060208201905081810360008301526179ba8161797e565b9050919050565b7f6f6e65206f662072656465656d546f6b656e73496e206f722072656465656d4160008201527f6d6f756e74496e206d757374206265207a65726f000000000000000000000000602082015250565b6000617a1d603483616055565b9150617a28826179c1565b604082019050919050565b60006020820190508181036000830152617a4c81617a10565b9050919050565b6000606082019050617a6860008301866167a6565b617a756020830185616e76565b617a826040830184616250565b949350505050565b6000608082019050617a9f60008301876167a6565b617aac6020830186616e76565b617ab96040830185616250565b617ac66060830184616250565b95945050505050565b6000608082019050617ae46000830187616e76565b617af16020830186616250565b617afe6040830185616250565b617b0b6060830184616250565b95945050505050565b60008060408385031215617b2b57617b2a61610f565b5b6000617b3985828601616bda565b9250506020617b4a85828601616bda565b9150509250929050565b7f4c49515549444154455f434f4d5054524f4c4c45525f43414c43554c4154455f60008201527f414d4f554e545f5345495a455f4641494c454400000000000000000000000000602082015250565b6000617bb0603383616055565b9150617bbb82617b54565b604082019050919050565b60006020820190508181036000830152617bdf81617ba3565b9050919050565b7f4c49515549444154455f5345495a455f544f4f5f4d5543480000000000000000600082015250565b6000617c1c601883616055565b9150617c2782617be6565b602082019050919050565b60006020820190508181036000830152617c4b81617c0f565b9050919050565b7f746f6b656e207365697a757265206661696c6564000000000000000000000000600082015250565b6000617c88601483616055565b9150617c9382617c52565b602082019050919050565b60006020820190508181036000830152617cb781617c7b565b9050919050565b600060a082019050617cd360008301886167a6565b617ce060208301876167a6565b617ced6040830186616250565b617cfa60608301856167a6565b617d076080830184616250565b9695505050505050565b7f6164642d6f766572666c6f770000000000000000000000000000000000000000600082015250565b6000617d47600c83616055565b9150617d5282617d11565b602082019050919050565b60006020820190508181036000830152617d7681617d3a565b905091905056fea26469706673582212207376de539f7c611fa9a98d51de62c15d8b202305e161d476727d5cd3e998cb2564736f6c634300080a0033",
  "linkReferences": {},
  "deployedLinkReferences": {}
}