{
  "_format": "hh-sol-artifact-1",
  "contractName": "GovernorBravoDelegate",
  "sourceName": "contracts/Governance/GovernorBravoDelegate.sol",
  "abi": [
    {
      "anonymous": false,
      "inputs": [
        {
          "indexed": false,
          "internalType": "address",
          "name": "oldAdmin",
          "type": "address"
        },
        {
          "indexed": false,
          "internalType": "address",
          "name": "newAdmin",
          "type": "address"
        }
      ],
      "name": "NewAdmin",
      "type": "event"
    },
    {
      "anonymous": false,
      "inputs": [
        {
          "indexed": false,
          "internalType": "address",
          "name": "oldImplementation",
          "type": "address"
        },
        {
          "indexed": false,
          "internalType": "address",
          "name": "newImplementation",
          "type": "address"
        }
      ],
      "name": "NewImplementation",
      "type": "event"
    },
    {
      "anonymous": false,
      "inputs": [
        {
          "indexed": false,
          "internalType": "address",
          "name": "oldPendingAdmin",
          "type": "address"
        },
        {
          "indexed": false,
          "internalType": "address",
          "name": "newPendingAdmin",
          "type": "address"
        }
      ],
      "name": "NewPendingAdmin",
      "type": "event"
    },
    {
      "anonymous": false,
      "inputs": [
        {
          "indexed": false,
          "internalType": "uint256",
          "name": "id",
          "type": "uint256"
        }
      ],
      "name": "ProposalCanceled",
      "type": "event"
    },
    {
      "anonymous": false,
      "inputs": [
        {
          "indexed": false,
          "internalType": "uint256",
          "name": "id",
          "type": "uint256"
        },
        {
          "indexed": false,
          "internalType": "address",
          "name": "proposer",
          "type": "address"
        },
        {
          "indexed": false,
          "internalType": "address[]",
          "name": "targets",
          "type": "address[]"
        },
        {
          "indexed": false,
          "internalType": "uint256[]",
          "name": "values",
          "type": "uint256[]"
        },
        {
          "indexed": false,
          "internalType": "string[]",
          "name": "signatures",
          "type": "string[]"
        },
        {
          "indexed": false,
          "internalType": "bytes[]",
          "name": "calldatas",
          "type": "bytes[]"
        },
        {
          "indexed": false,
          "internalType": "uint256",
          "name": "startBlock",
          "type": "uint256"
        },
        {
          "indexed": false,
          "internalType": "uint256",
          "name": "endBlock",
          "type": "uint256"
        },
        {
          "indexed": false,
          "internalType": "string",
          "name": "description",
          "type": "string"
        }
      ],
      "name": "ProposalCreated",
      "type": "event"
    },
    {
      "anonymous": false,
      "inputs": [
        {
          "indexed": false,
          "internalType": "uint256",
          "name": "id",
          "type": "uint256"
        }
      ],
      "name": "ProposalExecuted",
      "type": "event"
    },
    {
      "anonymous": false,
      "inputs": [
        {
          "indexed": false,
          "internalType": "uint256",
          "name": "id",
          "type": "uint256"
        },
        {
          "indexed": false,
          "internalType": "uint256",
          "name": "eta",
          "type": "uint256"
        }
      ],
      "name": "ProposalQueued",
      "type": "event"
    },
    {
      "anonymous": false,
      "inputs": [
        {
          "indexed": false,
          "internalType": "uint256",
          "name": "oldProposalThreshold",
          "type": "uint256"
        },
        {
          "indexed": false,
          "internalType": "uint256",
          "name": "newProposalThreshold",
          "type": "uint256"
        }
      ],
      "name": "ProposalThresholdSet",
      "type": "event"
    },
    {
      "anonymous": false,
      "inputs": [
        {
          "indexed": true,
          "internalType": "address",
          "name": "voter",
          "type": "address"
        },
        {
          "indexed": false,
          "internalType": "uint256",
          "name": "proposalId",
          "type": "uint256"
        },
        {
          "indexed": false,
          "internalType": "uint8",
          "name": "support",
          "type": "uint8"
        },
        {
          "indexed": false,
          "internalType": "uint256",
          "name": "votes",
          "type": "uint256"
        },
        {
          "indexed": false,
          "internalType": "string",
          "name": "reason",
          "type": "string"
        }
      ],
      "name": "VoteCast",
      "type": "event"
    },
    {
      "anonymous": false,
      "inputs": [
        {
          "indexed": false,
          "internalType": "uint256",
          "name": "oldVotingDelay",
          "type": "uint256"
        },
        {
          "indexed": false,
          "internalType": "uint256",
          "name": "newVotingDelay",
          "type": "uint256"
        }
      ],
      "name": "VotingDelaySet",
      "type": "event"
    },
    {
      "anonymous": false,
      "inputs": [
        {
          "indexed": false,
          "internalType": "uint256",
          "name": "oldVotingPeriod",
          "type": "uint256"
        },
        {
          "indexed": false,
          "internalType": "uint256",
          "name": "newVotingPeriod",
          "type": "uint256"
        }
      ],
      "name": "VotingPeriodSet",
      "type": "event"
    },
    {
      "anonymous": false,
      "inputs": [
        {
          "indexed": false,
          "internalType": "address",
          "name": "account",
          "type": "address"
        },
        {
          "indexed": false,
          "internalType": "uint256",
          "name": "expiration",
          "type": "uint256"
        }
      ],
      "name": "WhitelistAccountExpirationSet",
      "type": "event"
    },
    {
      "anonymous": false,
      "inputs": [
        {
          "indexed": false,
          "internalType": "address",
          "name": "oldGuardian",
          "type": "address"
        },
        {
          "indexed": false,
          "internalType": "address",
          "name": "newGuardian",
          "type": "address"
        }
      ],
      "name": "WhitelistGuardianSet",
      "type": "event"
    },
    {
      "inputs": [],
      "name": "BALLOT_TYPEHASH",
      "outputs": [
        {
          "internalType": "bytes32",
          "name": "",
          "type": "bytes32"
        }
      ],
      "stateMutability": "view",
      "type": "function"
    },
    {
      "inputs": [],
      "name": "DOMAIN_TYPEHASH",
      "outputs": [
        {
          "internalType": "bytes32",
          "name": "",
          "type": "bytes32"
        }
      ],
      "stateMutability": "view",
      "type": "function"
    },
    {
      "inputs": [],
      "name": "MAX_PROPOSAL_THRESHOLD",
      "outputs": [
        {
          "internalType": "uint256",
          "name": "",
          "type": "uint256"
        }
      ],
      "stateMutability": "view",
      "type": "function"
    },
    {
      "inputs": [],
      "name": "MAX_VOTING_DELAY",
      "outputs": [
        {
          "internalType": "uint256",
          "name": "",
          "type": "uint256"
        }
      ],
      "stateMutability": "view",
      "type": "function"
    },
    {
      "inputs": [],
      "name": "MAX_VOTING_PERIOD",
      "outputs": [
        {
          "internalType": "uint256",
          "name": "",
          "type": "uint256"
        }
      ],
      "stateMutability": "view",
      "type": "function"
    },
    {
      "inputs": [],
      "name": "MIN_PROPOSAL_THRESHOLD",
      "outputs": [
        {
          "internalType": "uint256",
          "name": "",
          "type": "uint256"
        }
      ],
      "stateMutability": "view",
      "type": "function"
    },
    {
      "inputs": [],
      "name": "MIN_VOTING_DELAY",
      "outputs": [
        {
          "internalType": "uint256",
          "name": "",
          "type": "uint256"
        }
      ],
      "stateMutability": "view",
      "type": "function"
    },
    {
      "inputs": [],
      "name": "MIN_VOTING_PERIOD",
      "outputs": [
        {
          "internalType": "uint256",
          "name": "",
          "type": "uint256"
        }
      ],
      "stateMutability": "view",
      "type": "function"
    },
    {
      "inputs": [],
      "name": "_acceptAdmin",
      "outputs": [],
      "stateMutability": "nonpayable",
      "type": "function"
    },
    {
      "inputs": [
        {
          "internalType": "address",
          "name": "governorAlpha",
          "type": "address"
        }
      ],
      "name": "_initiate",
      "outputs": [],
      "stateMutability": "nonpayable",
      "type": "function"
    },
    {
      "inputs": [
        {
          "internalType": "address",
          "name": "newPendingAdmin",
          "type": "address"
        }
      ],
      "name": "_setPendingAdmin",
      "outputs": [],
      "stateMutability": "nonpayable",
      "type": "function"
    },
    {
      "inputs": [
        {
          "internalType": "uint256",
          "name": "newProposalThreshold",
          "type": "uint256"
        }
      ],
      "name": "_setProposalThreshold",
      "outputs": [],
      "stateMutability": "nonpayable",
      "type": "function"
    },
    {
      "inputs": [
        {
          "internalType": "uint256",
          "name": "newVotingDelay",
          "type": "uint256"
        }
      ],
      "name": "_setVotingDelay",
      "outputs": [],
      "stateMutability": "nonpayable",
      "type": "function"
    },
    {
      "inputs": [
        {
          "internalType": "uint256",
          "name": "newVotingPeriod",
          "type": "uint256"
        }
      ],
      "name": "_setVotingPeriod",
      "outputs": [],
      "stateMutability": "nonpayable",
      "type": "function"
    },
    {
      "inputs": [
        {
          "internalType": "address",
          "name": "account",
          "type": "address"
        },
        {
          "internalType": "uint256",
          "name": "expiration",
          "type": "uint256"
        }
      ],
      "name": "_setWhitelistAccountExpiration",
      "outputs": [],
      "stateMutability": "nonpayable",
      "type": "function"
    },
    {
      "inputs": [
        {
          "internalType": "address",
          "name": "account",
          "type": "address"
        }
      ],
      "name": "_setWhitelistGuardian",
      "outputs": [],
      "stateMutability": "nonpayable",
      "type": "function"
    },
    {
      "inputs": [],
      "name": "admin",
      "outputs": [
        {
          "internalType": "address",
          "name": "",
          "type": "address"
        }
      ],
      "stateMutability": "view",
      "type": "function"
    },
    {
      "inputs": [
        {
          "internalType": "uint256",
          "name": "proposalId",
          "type": "uint256"
        }
      ],
      "name": "cancel",
      "outputs": [],
      "stateMutability": "nonpayable",
      "type": "function"
    },
    {
      "inputs": [
        {
          "internalType": "uint256",
          "name": "proposalId",
          "type": "uint256"
        },
        {
          "internalType": "uint8",
          "name": "support",
          "type": "uint8"
        }
      ],
      "name": "castVote",
      "outputs": [],
      "stateMutability": "nonpayable",
      "type": "function"
    },
    {
      "inputs": [
        {
          "internalType": "uint256",
          "name": "proposalId",
          "type": "uint256"
        },
        {
          "internalType": "uint8",
          "name": "support",
          "type": "uint8"
        },
        {
          "internalType": "uint8",
          "name": "v",
          "type": "uint8"
        },
        {
          "internalType": "bytes32",
          "name": "r",
          "type": "bytes32"
        },
        {
          "internalType": "bytes32",
          "name": "s",
          "type": "bytes32"
        }
      ],
      "name": "castVoteBySig",
      "outputs": [],
      "stateMutability": "nonpayable",
      "type": "function"
    },
    {
      "inputs": [
        {
          "internalType": "uint256",
          "name": "proposalId",
          "type": "uint256"
        },
        {
          "internalType": "uint8",
          "name": "support",
          "type": "uint8"
        },
        {
          "internalType": "string",
          "name": "reason",
          "type": "string"
        }
      ],
      "name": "castVoteWithReason",
      "outputs": [],
      "stateMutability": "nonpayable",
      "type": "function"
    },
    {
      "inputs": [],
      "name": "comp",
      "outputs": [
        {
          "internalType": "contract CompInterface",
          "name": "",
          "type": "address"
        }
      ],
      "stateMutability": "view",
      "type": "function"
    },
    {
      "inputs": [
        {
          "internalType": "uint256",
          "name": "proposalId",
          "type": "uint256"
        }
      ],
      "name": "execute",
      "outputs": [],
      "stateMutability": "payable",
      "type": "function"
    },
    {
      "inputs": [
        {
          "internalType": "uint256",
          "name": "proposalId",
          "type": "uint256"
        }
      ],
      "name": "getActions",
      "outputs": [
        {
          "internalType": "address[]",
          "name": "targets",
          "type": "address[]"
        },
        {
          "internalType": "uint256[]",
          "name": "values",
          "type": "uint256[]"
        },
        {
          "internalType": "string[]",
          "name": "signatures",
          "type": "string[]"
        },
        {
          "internalType": "bytes[]",
          "name": "calldatas",
          "type": "bytes[]"
        }
      ],
      "stateMutability": "view",
      "type": "function"
    },
    {
      "inputs": [
        {
          "internalType": "uint256",
          "name": "proposalId",
          "type": "uint256"
        },
        {
          "internalType": "address",
          "name": "voter",
          "type": "address"
        }
      ],
      "name": "getReceipt",
      "outputs": [
        {
          "components": [
            {
              "internalType": "bool",
              "name": "hasVoted",
              "type": "bool"
            },
            {
              "internalType": "uint8",
              "name": "support",
              "type": "uint8"
            },
            {
              "internalType": "uint96",
              "name": "votes",
              "type": "uint96"
            }
          ],
          "internalType": "struct GovernorBravoDelegateStorageV1.Receipt",
          "name": "",
          "type": "tuple"
        }
      ],
      "stateMutability": "view",
      "type": "function"
    },
    {
      "inputs": [],
      "name": "implementation",
      "outputs": [
        {
          "internalType": "address",
          "name": "",
          "type": "address"
        }
      ],
      "stateMutability": "view",
      "type": "function"
    },
    {
      "inputs": [],
      "name": "initialProposalId",
      "outputs": [
        {
          "internalType": "uint256",
          "name": "",
          "type": "uint256"
        }
      ],
      "stateMutability": "view",
      "type": "function"
    },
    {
      "inputs": [
        {
          "internalType": "address",
          "name": "timelock_",
          "type": "address"
        },
        {
          "internalType": "address",
          "name": "comp_",
          "type": "address"
        },
        {
          "internalType": "uint256",
          "name": "votingPeriod_",
          "type": "uint256"
        },
        {
          "internalType": "uint256",
          "name": "votingDelay_",
          "type": "uint256"
        },
        {
          "internalType": "uint256",
          "name": "proposalThreshold_",
          "type": "uint256"
        }
      ],
      "name": "initialize",
      "outputs": [],
      "stateMutability": "nonpayable",
      "type": "function"
    },
    {
      "inputs": [
        {
          "internalType": "address",
          "name": "account",
          "type": "address"
        }
      ],
      "name": "isWhitelisted",
      "outputs": [
        {
          "internalType": "bool",
          "name": "",
          "type": "bool"
        }
      ],
      "stateMutability": "view",
      "type": "function"
    },
    {
      "inputs": [
        {
          "internalType": "address",
          "name": "",
          "type": "address"
        }
      ],
      "name": "latestProposalIds",
      "outputs": [
        {
          "internalType": "uint256",
          "name": "",
          "type": "uint256"
        }
      ],
      "stateMutability": "view",
      "type": "function"
    },
    {
      "inputs": [],
      "name": "name",
      "outputs": [
        {
          "internalType": "string",
          "name": "",
          "type": "string"
        }
      ],
      "stateMutability": "view",
      "type": "function"
    },
    {
      "inputs": [],
      "name": "pendingAdmin",
      "outputs": [
        {
          "internalType": "address",
          "name": "",
          "type": "address"
        }
      ],
      "stateMutability": "view",
      "type": "function"
    },
    {
      "inputs": [],
      "name": "proposalCount",
      "outputs": [
        {
          "internalType": "uint256",
          "name": "",
          "type": "uint256"
        }
      ],
      "stateMutability": "view",
      "type": "function"
    },
    {
      "inputs": [],
      "name": "proposalMaxOperations",
      "outputs": [
        {
          "internalType": "uint256",
          "name": "",
          "type": "uint256"
        }
      ],
      "stateMutability": "view",
      "type": "function"
    },
    {
      "inputs": [],
      "name": "proposalThreshold",
      "outputs": [
        {
          "internalType": "uint256",
          "name": "",
          "type": "uint256"
        }
      ],
      "stateMutability": "view",
      "type": "function"
    },
    {
      "inputs": [
        {
          "internalType": "uint256",
          "name": "",
          "type": "uint256"
        }
      ],
      "name": "proposals",
      "outputs": [
        {
          "internalType": "uint256",
          "name": "id",
          "type": "uint256"
        },
        {
          "internalType": "address",
          "name": "proposer",
          "type": "address"
        },
        {
          "internalType": "uint256",
          "name": "eta",
          "type": "uint256"
        },
        {
          "internalType": "uint256",
          "name": "startBlock",
          "type": "uint256"
        },
        {
          "internalType": "uint256",
          "name": "endBlock",
          "type": "uint256"
        },
        {
          "internalType": "uint256",
          "name": "forVotes",
          "type": "uint256"
        },
        {
          "internalType": "uint256",
          "name": "againstVotes",
          "type": "uint256"
        },
        {
          "internalType": "uint256",
          "name": "abstainVotes",
          "type": "uint256"
        },
        {
          "internalType": "bool",
          "name": "canceled",
          "type": "bool"
        },
        {
          "internalType": "bool",
          "name": "executed",
          "type": "bool"
        }
      ],
      "stateMutability": "view",
      "type": "function"
    },
    {
      "inputs": [
        {
          "internalType": "address[]",
          "name": "targets",
          "type": "address[]"
        },
        {
          "internalType": "uint256[]",
          "name": "values",
          "type": "uint256[]"
        },
        {
          "internalType": "string[]",
          "name": "signatures",
          "type": "string[]"
        },
        {
          "internalType": "bytes[]",
          "name": "calldatas",
          "type": "bytes[]"
        },
        {
          "internalType": "string",
          "name": "description",
          "type": "string"
        }
      ],
      "name": "propose",
      "outputs": [
        {
          "internalType": "uint256",
          "name": "",
          "type": "uint256"
        }
      ],
      "stateMutability": "nonpayable",
      "type": "function"
    },
    {
      "inputs": [
        {
          "internalType": "uint256",
          "name": "proposalId",
          "type": "uint256"
        }
      ],
      "name": "queue",
      "outputs": [],
      "stateMutability": "nonpayable",
      "type": "function"
    },
    {
      "inputs": [],
      "name": "quorumVotes",
      "outputs": [
        {
          "internalType": "uint256",
          "name": "",
          "type": "uint256"
        }
      ],
      "stateMutability": "view",
      "type": "function"
    },
    {
      "inputs": [
        {
          "internalType": "uint256",
          "name": "proposalId",
          "type": "uint256"
        }
      ],
      "name": "state",
      "outputs": [
        {
          "internalType": "enum GovernorBravoDelegateStorageV1.ProposalState",
          "name": "",
          "type": "uint8"
        }
      ],
      "stateMutability": "view",
      "type": "function"
    },
    {
      "inputs": [],
      "name": "timelock",
      "outputs": [
        {
          "internalType": "contract TimelockInterface",
          "name": "",
          "type": "address"
        }
      ],
      "stateMutability": "view",
      "type": "function"
    },
    {
      "inputs": [],
      "name": "votingDelay",
      "outputs": [
        {
          "internalType": "uint256",
          "name": "",
          "type": "uint256"
        }
      ],
      "stateMutability": "view",
      "type": "function"
    },
    {
      "inputs": [],
      "name": "votingPeriod",
      "outputs": [
        {
          "internalType": "uint256",
          "name": "",
          "type": "uint256"
        }
      ],
      "stateMutability": "view",
      "type": "function"
    },
    {
      "inputs": [
        {
          "internalType": "address",
          "name": "",
          "type": "address"
        }
      ],
      "name": "whitelistAccountExpirations",
      "outputs": [
        {
          "internalType": "uint256",
          "name": "",
          "type": "uint256"
        }
      ],
      "stateMutability": "view",
      "type": "function"
    },
    {
      "inputs": [],
      "name": "whitelistGuardian",
      "outputs": [
        {
          "internalType": "address",
          "name": "",
          "type": "address"
        }
      ],
      "stateMutability": "view",
      "type": "function"
    }
  ],
  "bytecode": "0x608060405234801561001057600080fd5b506172c780620000216000396000f3fe6080604052600436106102725760003560e01c80635c60da1b1161014f578063d33219b4116100c1578063e48083fe1161007a578063e48083fe14610988578063e9c714f2146109b3578063f851a440146109ca578063f9d28b80146109f5578063fc4eee4214610a1e578063fe0d94c114610a4957610272565b8063d33219b414610864578063da35c6641461088f578063da95691a146108ba578063ddf0b009146108f7578063deaaa7cc14610920578063e23a9a521461094b57610272565b8063a64e024a11610113578063a64e024a14610766578063b112626314610791578063b58131b0146107bc578063b71d1a0c146107e7578063c5a8425d14610810578063d13f90b41461083b57610272565b80635c60da1b14610693578063791f5d23146106be5780637b3c71d3146106e95780637bdbe4d014610712578063995333651461073d57610272565b806325fd935a116101e85780633af32abf116101ac5780633af32abf146105755780633bccf4fd146105b25780633e4f49e6146105db57806340e58ee5146106185780634d6733d214610641578063567813881461066a57610272565b806325fd935a1461047757806326782247146104a2578063328dd982146104cd57806338bd0dda1461050d5780633932abb11461054a57610272565b806317977c611161023a57806317977c611461036757806317ba1b8b146103a45780631dfb1b5a146103cd57806320606b70146103f6578063215809ca1461042157806324bc1a641461044c57610272565b8063013cf08b1461027757806302a251a3146102bd57806306fdde03146102e85780630ea2d98c14610313578063109d0af81461033c575b600080fd5b34801561028357600080fd5b5061029e60048036038101906102999190613fe1565b610a65565b6040516102b49a99989796959493929190614079565b60405180910390f35b3480156102c957600080fd5b506102d2610af3565b6040516102df9190614115565b60405180910390f35b3480156102f457600080fd5b506102fd610af9565b60405161030a91906141c9565b60405180910390f35b34801561031f57600080fd5b5061033a60048036038101906103359190613fe1565b610b32565b005b34801561034857600080fd5b50610351610c61565b60405161035e919061424a565b60405180910390f35b34801561037357600080fd5b5061038e60048036038101906103899190614291565b610c87565b60405161039b9190614115565b60405180910390f35b3480156103b057600080fd5b506103cb60048036038101906103c69190613fe1565b610c9f565b005b3480156103d957600080fd5b506103f460048036038101906103ef9190613fe1565b610ddc565b005b34801561040257600080fd5b5061040b610f09565b60405161041891906142d7565b60405180910390f35b34801561042d57600080fd5b50610436610f2d565b6040516104439190614115565b60405180910390f35b34801561045857600080fd5b50610461610f33565b60405161046e9190614115565b60405180910390f35b34801561048357600080fd5b5061048c610f41565b6040516104999190614115565b60405180910390f35b3480156104ae57600080fd5b506104b7610f4f565b6040516104c491906142f2565b60405180910390f35b3480156104d957600080fd5b506104f460048036038101906104ef9190613fe1565b610f75565b60405161050494939291906146ac565b60405180910390f35b34801561051957600080fd5b50610534600480360381019061052f9190614291565b611232565b6040516105419190614115565b60405180910390f35b34801561055657600080fd5b5061055f61124a565b60405161056c9190614115565b60405180910390f35b34801561058157600080fd5b5061059c60048036038101906105979190614291565b611250565b6040516105a9919061470d565b60405180910390f35b3480156105be57600080fd5b506105d960048036038101906105d4919061478d565b61129b565b005b3480156105e757600080fd5b5061060260048036038101906105fd9190613fe1565b6114d5565b60405161060f919061487f565b60405180910390f35b34801561062457600080fd5b5061063f600480360381019061063a9190613fe1565b6116af565b005b34801561064d57600080fd5b506106686004803603810190610663919061489a565b611c0d565b005b34801561067657600080fd5b50610691600480360381019061068c91906148da565b611d74565b005b34801561069f57600080fd5b506106a8611dd4565b6040516106b591906142f2565b60405180910390f35b3480156106ca57600080fd5b506106d3611dfa565b6040516106e09190614115565b60405180910390f35b3480156106f557600080fd5b50610710600480360381019061070b919061497f565b611e07565b005b34801561071e57600080fd5b50610727611e6d565b6040516107349190614115565b60405180910390f35b34801561074957600080fd5b50610764600480360381019061075f9190614291565b611e72565b005b34801561077257600080fd5b5061077b611fc7565b6040516107889190614115565b60405180910390f35b34801561079d57600080fd5b506107a6611fce565b6040516107b39190614115565b60405180910390f35b3480156107c857600080fd5b506107d1611fd4565b6040516107de9190614115565b60405180910390f35b3480156107f357600080fd5b5061080e60048036038101906108099190614291565b611fda565b005b34801561081c57600080fd5b5061082561210d565b60405161083291906142f2565b60405180910390f35b34801561084757600080fd5b50610862600480360381019061085d91906149f3565b612133565b005b34801561087057600080fd5b506108796124d8565b6040516108869190614a8f565b60405180910390f35b34801561089b57600080fd5b506108a46124fe565b6040516108b19190614115565b60405180910390f35b3480156108c657600080fd5b506108e160048036038101906108dc9190614fc3565b612504565b6040516108ee9190614115565b60405180910390f35b34801561090357600080fd5b5061091e60048036038101906109199190613fe1565b612af4565b005b34801561092c57600080fd5b50610935612e42565b60405161094291906142d7565b60405180910390f35b34801561095757600080fd5b50610972600480360381019061096d91906150ca565b612e66565b60405161097f9190615191565b60405180910390f35b34801561099457600080fd5b5061099d612f4a565b6040516109aa9190614115565b60405180910390f35b3480156109bf57600080fd5b506109c8612f4f565b005b3480156109d657600080fd5b506109df6131c1565b6040516109ec91906142f2565b60405180910390f35b348015610a0157600080fd5b50610a1c6004803603810190610a179190614291565b6131e5565b005b348015610a2a57600080fd5b50610a336133bd565b604051610a409190614115565b60405180910390f35b610a636004803603810190610a5e9190613fe1565b6133c3565b005b600a6020528060005260406000206000915090508060000154908060010160009054906101000a900473ffffffffffffffffffffffffffffffffffffffff169080600201549080600701549080600801549080600901549080600a01549080600b01549080600c0160009054906101000a900460ff169080600c0160019054906101000a900460ff1690508a565b60045481565b6040518060400160405280601781526020017f436f6d706f756e6420476f7665726e6f7220427261766f00000000000000000081525081565b60008054906101000a900473ffffffffffffffffffffffffffffffffffffffff1673ffffffffffffffffffffffffffffffffffffffff163373ffffffffffffffffffffffffffffffffffffffff1614610bc0576040517f08c379a0000000000000000000000000000000000000000000000000000000008152600401610bb79061521e565b60405180910390fd5b6116808110158015610bd5575062013b008111155b610c14576040517f08c379a0000000000000000000000000000000000000000000000000000000008152600401610c0b906152b0565b60405180910390fd5b60006004549050816004819055507f7e3f7f0708a84de9203036abaa450dccc85ad5ff52f78c170f3edb55cf5e882881600454604051610c559291906152d0565b60405180910390a15050565b600960009054906101000a900473ffffffffffffffffffffffffffffffffffffffff1681565b600b6020528060005260406000206000915090505481565b60008054906101000a900473ffffffffffffffffffffffffffffffffffffffff1673ffffffffffffffffffffffffffffffffffffffff163373ffffffffffffffffffffffffffffffffffffffff1614610d2d576040517f08c379a0000000000000000000000000000000000000000000000000000000008152600401610d249061536b565b60405180910390fd5b683635c9adc5dea000008110158015610d50575069152d02c7e14af68000008111155b610d8f576040517f08c379a0000000000000000000000000000000000000000000000000000000008152600401610d86906153fd565b60405180910390fd5b60006005549050816005819055507fccb45da8d5717e6c4544694297c4ba5cf151d455c9bb0ed4fc7a38411bc0546181600554604051610dd09291906152d0565b60405180910390a15050565b60008054906101000a900473ffffffffffffffffffffffffffffffffffffffff1673ffffffffffffffffffffffffffffffffffffffff163373ffffffffffffffffffffffffffffffffffffffff1614610e6a576040517f08c379a0000000000000000000000000000000000000000000000000000000008152600401610e619061548f565b60405180910390fd5b60018110158015610e7d5750619d808111155b610ebc576040517f08c379a0000000000000000000000000000000000000000000000000000000008152600401610eb390615521565b60405180910390fd5b60006003549050816003819055507fc565b045403dc03c2eea82b81a0465edad9e2e7fc4d97e11421c209da93d7a9381600354604051610efd9291906152d0565b60405180910390a15050565b7f8cad95687ba82c2ce50e74f7b754645e5117c3a5bec8151c0726d5857980a86681565b61168081565b6954b40b1f852bda00000081565b69152d02c7e14af680000081565b600160009054906101000a900473ffffffffffffffffffffffffffffffffffffffff1681565b6060806060806000600a60008781526020019081526020016000209050806003018160040182600501836006018380548060200260200160405190810160405280929190818152602001828054801561102357602002820191906000526020600020905b8160009054906101000a900473ffffffffffffffffffffffffffffffffffffffff1673ffffffffffffffffffffffffffffffffffffffff1681526020019060010190808311610fd9575b505050505093508280548060200260200160405190810160405280929190818152602001828054801561107557602002820191906000526020600020905b815481526020019060010190808311611061575b5050505050925081805480602002602001604051908101604052809291908181526020016000905b828210156111495783829060005260206000200180546110bc90615570565b80601f01602080910402602001604051908101604052809291908181526020018280546110e890615570565b80156111355780601f1061110a57610100808354040283529160200191611135565b820191906000526020600020905b81548152906001019060200180831161111857829003601f168201915b50505050508152602001906001019061109d565b50505050915080805480602002602001604051908101604052809291908181526020016000905b8282101561121c57838290600052602060002001805461118f90615570565b80601f01602080910402602001604051908101604052809291908181526020018280546111bb90615570565b80156112085780601f106111dd57610100808354040283529160200191611208565b820191906000526020600020905b8154815290600101906020018083116111eb57829003601f168201915b505050505081526020019060010190611170565b5050505090509450945094509450509193509193565b600c6020528060005260406000206000915090505481565b60035481565b600042600c60008473ffffffffffffffffffffffffffffffffffffffff1673ffffffffffffffffffffffffffffffffffffffff16815260200190815260200160002054119050919050565b60007f8cad95687ba82c2ce50e74f7b754645e5117c3a5bec8151c0726d5857980a8666040518060400160405280601781526020017f436f6d706f756e6420476f7665726e6f7220427261766f00000000000000000081525080519060200120611303613636565b3060405160200161131794939291906155a2565b60405160208183030381529060405280519060200120905060007f150214d74d59b7d1e90c73fc22ef3d991dd0a76b046543d4d80ab92d2a50328f8787604051602001611366939291906155f6565b604051602081830303815290604052805190602001209050600082826040516020016113939291906156a5565b6040516020818303038152906040528051906020012090506000600182888888604051600081526020016040526040516113d094939291906156dc565b6020604051602081039080840390855afa1580156113f2573d6000803e3d6000fd5b505050602060405103519050600073ffffffffffffffffffffffffffffffffffffffff168173ffffffffffffffffffffffffffffffffffffffff16141561146e576040517f08c379a000000000000000000000000000000000000000000000000000000000815260040161146590615793565b60405180910390fd5b8073ffffffffffffffffffffffffffffffffffffffff167fb8e138887d0aa13bab447e82de9d5c1777041ecd21ca36ba824ff1e6c07ddda48a8a6114b3858e8e613643565b6040516114c29392919061580a565b60405180910390a2505050505050505050565b600081600754101580156114ea575060065482115b611529576040517f08c379a0000000000000000000000000000000000000000000000000000000008152600401611520906158c6565b60405180910390fd5b6000600a6000848152602001908152602001600020905080600c0160009054906101000a900460ff16156115615760029150506116aa565b806007015443116115765760009150506116aa565b8060080154431161158b5760019150506116aa565b80600a015481600901541115806115af57506954b40b1f852bda0000008160090154105b156115be5760039150506116aa565b6000816002015414156115d55760049150506116aa565b80600c0160019054906101000a900460ff16156115f65760079150506116aa565b6116948160020154600860009054906101000a900473ffffffffffffffffffffffffffffffffffffffff1673ffffffffffffffffffffffffffffffffffffffff1663c1a287e26040518163ffffffff1660e01b8152600401602060405180830381865afa15801561166b573d6000803e3d6000fd5b505050506040513d601f19601f8201168201806040525081019061168f91906158fb565b61396c565b42106116a45760069150506116aa565b60059150505b919050565b6007808111156116c2576116c1614808565b5b6116cb826114d5565b60078111156116dd576116dc614808565b5b141561171e576040517f08c379a00000000000000000000000000000000000000000000000000000000081526004016117159061599a565b60405180910390fd5b6000600a600083815260200190815260200160002090508060010160009054906101000a900473ffffffffffffffffffffffffffffffffffffffff1673ffffffffffffffffffffffffffffffffffffffff163373ffffffffffffffffffffffffffffffffffffffff1614611a58576117b98160010160009054906101000a900473ffffffffffffffffffffffffffffffffffffffff16611250565b1561193957600554600960009054906101000a900473ffffffffffffffffffffffffffffffffffffffff1673ffffffffffffffffffffffffffffffffffffffff1663782d6fe18360010160009054906101000a900473ffffffffffffffffffffffffffffffffffffffff1661182f4360016139ca565b6040518363ffffffff1660e01b815260040161184c9291906159ba565b602060405180830381865afa158015611869573d6000803e3d6000fd5b505050506040513d601f19601f8201168201806040525081019061188d9190615a0f565b6bffffffffffffffffffffffff161080156118f55750600d60009054906101000a900473ffffffffffffffffffffffffffffffffffffffff1673ffffffffffffffffffffffffffffffffffffffff163373ffffffffffffffffffffffffffffffffffffffff16145b611934576040517f08c379a000000000000000000000000000000000000000000000000000000000815260040161192b90615aae565b60405180910390fd5b611a57565b600554600960009054906101000a900473ffffffffffffffffffffffffffffffffffffffff1673ffffffffffffffffffffffffffffffffffffffff1663782d6fe18360010160009054906101000a900473ffffffffffffffffffffffffffffffffffffffff166119aa4360016139ca565b6040518363ffffffff1660e01b81526004016119c79291906159ba565b602060405180830381865afa1580156119e4573d6000803e3d6000fd5b505050506040513d601f19601f82011682018060405250810190611a089190615a0f565b6bffffffffffffffffffffffff1610611a56576040517f08c379a0000000000000000000000000000000000000000000000000000000008152600401611a4d90615b40565b60405180910390fd5b5b5b600181600c0160006101000a81548160ff02191690831515021790555060005b8160030180549050811015611bd157600860009054906101000a900473ffffffffffffffffffffffffffffffffffffffff1673ffffffffffffffffffffffffffffffffffffffff1663591fcdfe836003018381548110611adb57611ada615b60565b5b9060005260206000200160009054906101000a900473ffffffffffffffffffffffffffffffffffffffff16846004018481548110611b1c57611b1b615b60565b5b9060005260206000200154856005018581548110611b3d57611b3c615b60565b5b90600052602060002001866006018681548110611b5d57611b5c615b60565b5b9060005260206000200187600201546040518663ffffffff1660e01b8152600401611b8c959493929190615cca565b600060405180830381600087803b158015611ba657600080fd5b505af1158015611bba573d6000803e3d6000fd5b505050508080611bc990615d5a565b915050611a78565b507f789cf55be980739dad1d0699b93b58e806b51c9d96619bfa8fe0a28abaa7b30c82604051611c019190614115565b60405180910390a15050565b60008054906101000a900473ffffffffffffffffffffffffffffffffffffffff1673ffffffffffffffffffffffffffffffffffffffff163373ffffffffffffffffffffffffffffffffffffffff161480611cb45750600d60009054906101000a900473ffffffffffffffffffffffffffffffffffffffff1673ffffffffffffffffffffffffffffffffffffffff163373ffffffffffffffffffffffffffffffffffffffff16145b611cf3576040517f08c379a0000000000000000000000000000000000000000000000000000000008152600401611cea90615e15565b60405180910390fd5b80600c60008473ffffffffffffffffffffffffffffffffffffffff1673ffffffffffffffffffffffffffffffffffffffff168152602001908152602001600020819055507f4e7b7545bc5744d0e30425959f4687475774b6c7edad77d24cb51c7d967d45158282604051611d689291906159ba565b60405180910390a15050565b3373ffffffffffffffffffffffffffffffffffffffff167fb8e138887d0aa13bab447e82de9d5c1777041ecd21ca36ba824ff1e6c07ddda48383611db9338787613643565b604051611dc89392919061580a565b60405180910390a25050565b600260009054906101000a900473ffffffffffffffffffffffffffffffffffffffff1681565b683635c9adc5dea0000081565b3373ffffffffffffffffffffffffffffffffffffffff167fb8e138887d0aa13bab447e82de9d5c1777041ecd21ca36ba824ff1e6c07ddda48585611e4c338989613643565b8686604051611e5f959493929190615e62565b60405180910390a250505050565b600a81565b60008054906101000a900473ffffffffffffffffffffffffffffffffffffffff1673ffffffffffffffffffffffffffffffffffffffff163373ffffffffffffffffffffffffffffffffffffffff1614611f00576040517f08c379a0000000000000000000000000000000000000000000000000000000008152600401611ef790615f22565b60405180910390fd5b6000600d60009054906101000a900473ffffffffffffffffffffffffffffffffffffffff16905081600d60006101000a81548173ffffffffffffffffffffffffffffffffffffffff021916908373ffffffffffffffffffffffffffffffffffffffff1602179055507f80a07e73e552148844a9c216d9724212d609cfa54e9c1a2e97203bdd2c4ad34181600d60009054906101000a900473ffffffffffffffffffffffffffffffffffffffff16604051611fbb929190615f42565b60405180910390a15050565b62013b0081565b619d8081565b60055481565b60008054906101000a900473ffffffffffffffffffffffffffffffffffffffff1673ffffffffffffffffffffffffffffffffffffffff163373ffffffffffffffffffffffffffffffffffffffff1614612068576040517f08c379a000000000000000000000000000000000000000000000000000000000815260040161205f90615fdd565b60405180910390fd5b6000600160009054906101000a900473ffffffffffffffffffffffffffffffffffffffff16905081600160006101000a81548173ffffffffffffffffffffffffffffffffffffffff021916908373ffffffffffffffffffffffffffffffffffffffff1602179055507fca4f2f25d0898edd99413412fb94012f9e54ec8142f9b093e7720646a95b16a98183604051612101929190615f42565b60405180910390a15050565b600d60009054906101000a900473ffffffffffffffffffffffffffffffffffffffff1681565b600073ffffffffffffffffffffffffffffffffffffffff16600860009054906101000a900473ffffffffffffffffffffffffffffffffffffffff1673ffffffffffffffffffffffffffffffffffffffff16146121c4576040517f08c379a00000000000000000000000000000000000000000000000000000000081526004016121bb9061606f565b60405180910390fd5b60008054906101000a900473ffffffffffffffffffffffffffffffffffffffff1673ffffffffffffffffffffffffffffffffffffffff163373ffffffffffffffffffffffffffffffffffffffff1614612252576040517f08c379a000000000000000000000000000000000000000000000000000000000815260040161224990616101565b60405180910390fd5b600073ffffffffffffffffffffffffffffffffffffffff168573ffffffffffffffffffffffffffffffffffffffff1614156122c2576040517f08c379a00000000000000000000000000000000000000000000000000000000081526004016122b990616193565b60405180910390fd5b600073ffffffffffffffffffffffffffffffffffffffff168473ffffffffffffffffffffffffffffffffffffffff161415612332576040517f08c379a000000000000000000000000000000000000000000000000000000000815260040161232990616225565b60405180910390fd5b6116808310158015612347575062013b008311155b612386576040517f08c379a000000000000000000000000000000000000000000000000000000000815260040161237d906162b7565b60405180910390fd5b600182101580156123995750619d808211155b6123d8576040517f08c379a00000000000000000000000000000000000000000000000000000000081526004016123cf90616349565b60405180910390fd5b683635c9adc5dea0000081101580156123fb575069152d02c7e14af68000008111155b61243a576040517f08c379a0000000000000000000000000000000000000000000000000000000008152600401612431906163db565b60405180910390fd5b84600860006101000a81548173ffffffffffffffffffffffffffffffffffffffff021916908373ffffffffffffffffffffffffffffffffffffffff16021790555083600960006101000a81548173ffffffffffffffffffffffffffffffffffffffff021916908373ffffffffffffffffffffffffffffffffffffffff1602179055508260048190555081600381905550806005819055505050505050565b600860009054906101000a900473ffffffffffffffffffffffffffffffffffffffff1681565b60075481565b600080600654141561254b576040517f08c379a00000000000000000000000000000000000000000000000000000000081526004016125429061646d565b60405180910390fd5b600554600960009054906101000a900473ffffffffffffffffffffffffffffffffffffffff1673ffffffffffffffffffffffffffffffffffffffff1663782d6fe1336125984360016139ca565b6040518363ffffffff1660e01b81526004016125b59291906159ba565b602060405180830381865afa1580156125d2573d6000803e3d6000fd5b505050506040513d601f19601f820116820180604052508101906125f69190615a0f565b6bffffffffffffffffffffffff161180612615575061261433611250565b5b612654576040517f08c379a000000000000000000000000000000000000000000000000000000000815260040161264b906164ff565b60405180910390fd5b84518651148015612666575083518651145b8015612673575082518651145b6126b2576040517f08c379a00000000000000000000000000000000000000000000000000000000081526004016126a9906165b7565b60405180910390fd5b6000865114156126f7576040517f08c379a00000000000000000000000000000000000000000000000000000000081526004016126ee90616649565b60405180910390fd5b600a8651111561273c576040517f08c379a0000000000000000000000000000000000000000000000000000000008152600401612733906166db565b60405180910390fd5b6000600b60003373ffffffffffffffffffffffffffffffffffffffff1673ffffffffffffffffffffffffffffffffffffffff16815260200190815260200160002054905060008114612867576000612793826114d5565b9050600160078111156127a9576127a8614808565b5b8160078111156127bc576127bb614808565b5b14156127fd576040517f08c379a00000000000000000000000000000000000000000000000000000000081526004016127f490616793565b60405180910390fd5b6000600781111561281157612810614808565b5b81600781111561282457612823614808565b5b1415612865576040517f08c379a000000000000000000000000000000000000000000000000000000000815260040161285c9061684b565b60405180910390fd5b505b60006128754360035461396c565b905060006128858260045461396c565b90506007600081548092919061289a90615d5a565b9190505550600060075490506000600a600083815260200190815260200160002090506000816000015414612904576040517f08c379a00000000000000000000000000000000000000000000000000000000081526004016128fb906168dd565b60405180910390fd5b818160000181905550338160010160006101000a81548173ffffffffffffffffffffffffffffffffffffffff021916908373ffffffffffffffffffffffffffffffffffffffff160217905550600081600201819055508a816003019080519060200190612972929190613bdb565b508981600401908051906020019061298b929190613c65565b50888160050190805190602001906129a4929190613cb2565b50878160060190805190602001906129bd929190613d12565b5083816007018190555082816008018190555060008160090181905550600081600a0181905550600081600b0181905550600081600c0160006101000a81548160ff021916908315150217905550600081600c0160016101000a81548160ff0219169083151502179055508060000154600b60008360010160009054906101000a900473ffffffffffffffffffffffffffffffffffffffff1673ffffffffffffffffffffffffffffffffffffffff1673ffffffffffffffffffffffffffffffffffffffff168152602001908152602001600020819055507f7d84a6263ae0d98d3329bd7b46bb4e8d6f98cd35a7adb45c274c8b7fd5ebd5e08160000154338d8d8d8d8a8a8f604051612ad7999897969594939291906168fd565b60405180910390a180600001549550505050505095945050505050565b60046007811115612b0857612b07614808565b5b612b11826114d5565b6007811115612b2357612b22614808565b5b14612b63576040517f08c379a0000000000000000000000000000000000000000000000000000000008152600401612b5a90616a45565b60405180910390fd5b6000600a600083815260200190815260200160002090506000612c1642600860009054906101000a900473ffffffffffffffffffffffffffffffffffffffff1673ffffffffffffffffffffffffffffffffffffffff16636a42b8f86040518163ffffffff1660e01b8152600401602060405180830381865afa158015612bed573d6000803e3d6000fd5b505050506040513d601f19601f82011682018060405250810190612c1191906158fb565b61396c565b905060005b8260030180549050811015612dfa57612de7836003018281548110612c4357612c42615b60565b5b9060005260206000200160009054906101000a900473ffffffffffffffffffffffffffffffffffffffff16846004018381548110612c8457612c83615b60565b5b9060005260206000200154856005018481548110612ca557612ca4615b60565b5b906000526020600020018054612cba90615570565b80601f0160208091040260200160405190810160405280929190818152602001828054612ce690615570565b8015612d335780601f10612d0857610100808354040283529160200191612d33565b820191906000526020600020905b815481529060010190602001808311612d1657829003601f168201915b5050505050866006018581548110612d4e57612d4d615b60565b5b906000526020600020018054612d6390615570565b80601f0160208091040260200160405190810160405280929190818152602001828054612d8f90615570565b8015612ddc5780601f10612db157610100808354040283529160200191612ddc565b820191906000526020600020905b815481529060010190602001808311612dbf57829003601f168201915b505050505086613a23565b8080612df290615d5a565b915050612c1b565b508082600201819055507f9a2e42fd6722813d69113e7d0079d3d940171428df7373df9c7f7617cfda28928382604051612e359291906152d0565b60405180910390a1505050565b7f150214d74d59b7d1e90c73fc22ef3d991dd0a76b046543d4d80ab92d2a50328f81565b612e6e613d72565b600a6000848152602001908152602001600020600d0160008373ffffffffffffffffffffffffffffffffffffffff1673ffffffffffffffffffffffffffffffffffffffff1681526020019081526020016000206040518060600160405290816000820160009054906101000a900460ff161515151581526020016000820160019054906101000a900460ff1660ff1660ff1681526020016000820160029054906101000a90046bffffffffffffffffffffffff166bffffffffffffffffffffffff166bffffffffffffffffffffffff1681525050905092915050565b600181565b600160009054906101000a900473ffffffffffffffffffffffffffffffffffffffff1673ffffffffffffffffffffffffffffffffffffffff163373ffffffffffffffffffffffffffffffffffffffff16148015612fd95750600073ffffffffffffffffffffffffffffffffffffffff163373ffffffffffffffffffffffffffffffffffffffff1614155b613018576040517f08c379a000000000000000000000000000000000000000000000000000000000815260040161300f90616ad7565b60405180910390fd5b60008060009054906101000a900473ffffffffffffffffffffffffffffffffffffffff1690506000600160009054906101000a900473ffffffffffffffffffffffffffffffffffffffff169050600160009054906101000a900473ffffffffffffffffffffffffffffffffffffffff166000806101000a81548173ffffffffffffffffffffffffffffffffffffffff021916908373ffffffffffffffffffffffffffffffffffffffff1602179055506000600160006101000a81548173ffffffffffffffffffffffffffffffffffffffff021916908373ffffffffffffffffffffffffffffffffffffffff1602179055507ff9ffabca9c8276e99321725bcb43fb076a6c66a54b7f21c4e8146d8519b417dc8260008054906101000a900473ffffffffffffffffffffffffffffffffffffffff1660405161315a929190615f42565b60405180910390a17fca4f2f25d0898edd99413412fb94012f9e54ec8142f9b093e7720646a95b16a981600160009054906101000a900473ffffffffffffffffffffffffffffffffffffffff166040516131b5929190615f42565b60405180910390a15050565b60008054906101000a900473ffffffffffffffffffffffffffffffffffffffff1681565b60008054906101000a900473ffffffffffffffffffffffffffffffffffffffff1673ffffffffffffffffffffffffffffffffffffffff163373ffffffffffffffffffffffffffffffffffffffff1614613273576040517f08c379a000000000000000000000000000000000000000000000000000000000815260040161326a90616b69565b60405180910390fd5b6000600654146132b8576040517f08c379a00000000000000000000000000000000000000000000000000000000081526004016132af90616bfb565b60405180910390fd5b8073ffffffffffffffffffffffffffffffffffffffff1663da35c6646040518163ffffffff1660e01b81526004016020604051808303816000875af1158015613305573d6000803e3d6000fd5b505050506040513d601f19601f8201168201806040525081019061332991906158fb565b600781905550600754600681905550600860009054906101000a900473ffffffffffffffffffffffffffffffffffffffff1673ffffffffffffffffffffffffffffffffffffffff16630e18b6816040518163ffffffff1660e01b8152600401600060405180830381600087803b1580156133a257600080fd5b505af11580156133b6573d6000803e3d6000fd5b5050505050565b60065481565b600560078111156133d7576133d6614808565b5b6133e0826114d5565b60078111156133f2576133f1614808565b5b14613432576040517f08c379a000000000000000000000000000000000000000000000000000000000815260040161342990616cb3565b60405180910390fd5b6000600a60008381526020019081526020016000209050600181600c0160016101000a81548160ff02191690831515021790555060005b81600301805490508110156135fa57600860009054906101000a900473ffffffffffffffffffffffffffffffffffffffff1673ffffffffffffffffffffffffffffffffffffffff16630825f38f8360040183815481106134cc576134cb615b60565b5b90600052602060002001548460030184815481106134ed576134ec615b60565b5b9060005260206000200160009054906101000a900473ffffffffffffffffffffffffffffffffffffffff1685600401858154811061352e5761352d615b60565b5b906000526020600020015486600501868154811061354f5761354e615b60565b5b9060005260206000200187600601878154811061356f5761356e615b60565b5b9060005260206000200188600201546040518763ffffffff1660e01b815260040161359e959493929190615cca565b60006040518083038185885af11580156135bc573d6000803e3d6000fd5b50505050506040513d6000823e3d601f19601f820116820180604052508101906135e69190616d43565b5080806135f290615d5a565b915050613469565b507f712ae1383f79ac853f8d882153778e0260ef8f03b504e2866e0593e04d2b291f8260405161362a9190614115565b60405180910390a15050565b6000804690508091505090565b60006001600781111561365957613658614808565b5b613662846114d5565b600781111561367457613673614808565b5b146136b4576040517f08c379a00000000000000000000000000000000000000000000000000000000081526004016136ab90616dfe565b60405180910390fd5b60028260ff1611156136fb576040517f08c379a00000000000000000000000000000000000000000000000000000000081526004016136f290616e90565b60405180910390fd5b6000600a60008581526020019081526020016000209050600081600d0160008773ffffffffffffffffffffffffffffffffffffffff1673ffffffffffffffffffffffffffffffffffffffff1681526020019081526020016000209050600015158160000160009054906101000a900460ff161515146137af576040517f08c379a00000000000000000000000000000000000000000000000000000000081526004016137a690616f22565b60405180910390fd5b6000600960009054906101000a900473ffffffffffffffffffffffffffffffffffffffff1673ffffffffffffffffffffffffffffffffffffffff1663782d6fe18885600701546040518363ffffffff1660e01b81526004016138129291906159ba565b602060405180830381865afa15801561382f573d6000803e3d6000fd5b505050506040513d601f19601f820116820180604052508101906138539190615a0f565b905060008560ff16141561388a5761387d83600a0154826bffffffffffffffffffffffff1661396c565b83600a01819055506138f2565b60018560ff1614156138bf576138b28360090154826bffffffffffffffffffffffff1661396c565b83600901819055506138f1565b60028560ff1614156138f0576138e783600b0154826bffffffffffffffffffffffff1661396c565b83600b01819055505b5b5b60018260000160006101000a81548160ff021916908315150217905550848260000160016101000a81548160ff021916908360ff160217905550808260000160026101000a8154816bffffffffffffffffffffffff02191690836bffffffffffffffffffffffff1602179055508093505050509392505050565b600080828461397b9190616f42565b9050838110156139c0576040517f08c379a00000000000000000000000000000000000000000000000000000000081526004016139b790616fe4565b60405180910390fd5b8091505092915050565b600082821115613a0f576040517f08c379a0000000000000000000000000000000000000000000000000000000008152600401613a0690617050565b60405180910390fd5b8183613a1b9190617070565b905092915050565b600860009054906101000a900473ffffffffffffffffffffffffffffffffffffffff1673ffffffffffffffffffffffffffffffffffffffff1663f2b065378686868686604051602001613a7a9594939291906170dd565b604051602081830303815290604052805190602001206040518263ffffffff1660e01b8152600401613aac91906142d7565b602060405180830381865afa158015613ac9573d6000803e3d6000fd5b505050506040513d601f19601f82011682018060405250810190613aed919061716a565b15613b2d576040517f08c379a0000000000000000000000000000000000000000000000000000000008152600401613b249061722f565b60405180910390fd5b600860009054906101000a900473ffffffffffffffffffffffffffffffffffffffff1673ffffffffffffffffffffffffffffffffffffffff16633a66f90186868686866040518663ffffffff1660e01b8152600401613b909594939291906170dd565b6020604051808303816000875af1158015613baf573d6000803e3d6000fd5b505050506040513d601f19601f82011682018060405250810190613bd39190617264565b505050505050565b828054828255906000526020600020908101928215613c54579160200282015b82811115613c535782518260006101000a81548173ffffffffffffffffffffffffffffffffffffffff021916908373ffffffffffffffffffffffffffffffffffffffff16021790555091602001919060010190613bfb565b5b509050613c619190613da6565b5090565b828054828255906000526020600020908101928215613ca1579160200282015b82811115613ca0578251825591602001919060010190613c85565b5b509050613cae9190613da6565b5090565b828054828255906000526020600020908101928215613d01579160200282015b82811115613d00578251829080519060200190613cf0929190613dc3565b5091602001919060010190613cd2565b5b509050613d0e9190613e49565b5090565b828054828255906000526020600020908101928215613d61579160200282015b82811115613d60578251829080519060200190613d50929190613e6d565b5091602001919060010190613d32565b5b509050613d6e9190613ef3565b5090565b6040518060600160405280600015158152602001600060ff16815260200160006bffffffffffffffffffffffff1681525090565b5b80821115613dbf576000816000905550600101613da7565b5090565b828054613dcf90615570565b90600052602060002090601f016020900481019282613df15760008555613e38565b82601f10613e0a57805160ff1916838001178555613e38565b82800160010185558215613e38579182015b82811115613e37578251825591602001919060010190613e1c565b5b509050613e459190613da6565b5090565b5b80821115613e695760008181613e609190613f17565b50600101613e4a565b5090565b828054613e7990615570565b90600052602060002090601f016020900481019282613e9b5760008555613ee2565b82601f10613eb457805160ff1916838001178555613ee2565b82800160010185558215613ee2579182015b82811115613ee1578251825591602001919060010190613ec6565b5b509050613eef9190613da6565b5090565b5b80821115613f135760008181613f0a9190613f57565b50600101613ef4565b5090565b508054613f2390615570565b6000825580601f10613f355750613f54565b601f016020900490600052602060002090810190613f539190613da6565b5b50565b508054613f6390615570565b6000825580601f10613f755750613f94565b601f016020900490600052602060002090810190613f939190613da6565b5b50565b6000604051905090565b600080fd5b600080fd5b6000819050919050565b613fbe81613fab565b8114613fc957600080fd5b50565b600081359050613fdb81613fb5565b92915050565b600060208284031215613ff757613ff6613fa1565b5b600061400584828501613fcc565b91505092915050565b61401781613fab565b82525050565b600073ffffffffffffffffffffffffffffffffffffffff82169050919050565b60006140488261401d565b9050919050565b6140588161403d565b82525050565b60008115159050919050565b6140738161405e565b82525050565b60006101408201905061408f600083018d61400e565b61409c602083018c61404f565b6140a9604083018b61400e565b6140b6606083018a61400e565b6140c3608083018961400e565b6140d060a083018861400e565b6140dd60c083018761400e565b6140ea60e083018661400e565b6140f861010083018561406a565b61410661012083018461406a565b9b9a5050505050505050505050565b600060208201905061412a600083018461400e565b92915050565b600081519050919050565b600082825260208201905092915050565b60005b8381101561416a57808201518184015260208101905061414f565b83811115614179576000848401525b50505050565b6000601f19601f8301169050919050565b600061419b82614130565b6141a5818561413b565b93506141b581856020860161414c565b6141be8161417f565b840191505092915050565b600060208201905081810360008301526141e38184614190565b905092915050565b6000819050919050565b600061421061420b6142068461401d565b6141eb565b61401d565b9050919050565b6000614222826141f5565b9050919050565b600061423482614217565b9050919050565b61424481614229565b82525050565b600060208201905061425f600083018461423b565b92915050565b61426e8161403d565b811461427957600080fd5b50565b60008135905061428b81614265565b92915050565b6000602082840312156142a7576142a6613fa1565b5b60006142b58482850161427c565b91505092915050565b6000819050919050565b6142d1816142be565b82525050565b60006020820190506142ec60008301846142c8565b92915050565b6000602082019050614307600083018461404f565b92915050565b600081519050919050565b600082825260208201905092915050565b6000819050602082019050919050565b6143428161403d565b82525050565b60006143548383614339565b60208301905092915050565b6000602082019050919050565b60006143788261430d565b6143828185614318565b935061438d83614329565b8060005b838110156143be5781516143a58882614348565b97506143b083614360565b925050600181019050614391565b5085935050505092915050565b600081519050919050565b600082825260208201905092915050565b6000819050602082019050919050565b61440081613fab565b82525050565b600061441283836143f7565b60208301905092915050565b6000602082019050919050565b6000614436826143cb565b61444081856143d6565b935061444b836143e7565b8060005b8381101561447c5781516144638882614406565b975061446e8361441e565b92505060018101905061444f565b5085935050505092915050565b600081519050919050565b600082825260208201905092915050565b6000819050602082019050919050565b600082825260208201905092915050565b60006144d182614130565b6144db81856144b5565b93506144eb81856020860161414c565b6144f48161417f565b840191505092915050565b600061450b83836144c6565b905092915050565b6000602082019050919050565b600061452b82614489565b6145358185614494565b935083602082028501614547856144a5565b8060005b85811015614583578484038952815161456485826144ff565b945061456f83614513565b925060208a0199505060018101905061454b565b50829750879550505050505092915050565b600081519050919050565b600082825260208201905092915050565b6000819050602082019050919050565b600081519050919050565b600082825260208201905092915050565b60006145e8826145c1565b6145f281856145cc565b935061460281856020860161414c565b61460b8161417f565b840191505092915050565b600061462283836145dd565b905092915050565b6000602082019050919050565b600061464282614595565b61464c81856145a0565b93508360208202850161465e856145b1565b8060005b8581101561469a578484038952815161467b8582614616565b94506146868361462a565b925060208a01995050600181019050614662565b50829750879550505050505092915050565b600060808201905081810360008301526146c6818761436d565b905081810360208301526146da818661442b565b905081810360408301526146ee8185614520565b905081810360608301526147028184614637565b905095945050505050565b6000602082019050614722600083018461406a565b92915050565b600060ff82169050919050565b61473e81614728565b811461474957600080fd5b50565b60008135905061475b81614735565b92915050565b61476a816142be565b811461477557600080fd5b50565b60008135905061478781614761565b92915050565b600080600080600060a086880312156147a9576147a8613fa1565b5b60006147b788828901613fcc565b95505060206147c88882890161474c565b94505060406147d98882890161474c565b93505060606147ea88828901614778565b92505060806147fb88828901614778565b9150509295509295909350565b7f4e487b7100000000000000000000000000000000000000000000000000000000600052602160045260246000fd5b6008811061484857614847614808565b5b50565b600081905061485982614837565b919050565b60006148698261484b565b9050919050565b6148798161485e565b82525050565b60006020820190506148946000830184614870565b92915050565b600080604083850312156148b1576148b0613fa1565b5b60006148bf8582860161427c565b92505060206148d085828601613fcc565b9150509250929050565b600080604083850312156148f1576148f0613fa1565b5b60006148ff85828601613fcc565b92505060206149108582860161474c565b9150509250929050565b600080fd5b600080fd5b600080fd5b60008083601f84011261493f5761493e61491a565b5b8235905067ffffffffffffffff81111561495c5761495b61491f565b5b60208301915083600182028301111561497857614977614924565b5b9250929050565b6000806000806060858703121561499957614998613fa1565b5b60006149a787828801613fcc565b94505060206149b88782880161474c565b935050604085013567ffffffffffffffff8111156149d9576149d8613fa6565b5b6149e587828801614929565b925092505092959194509250565b600080600080600060a08688031215614a0f57614a0e613fa1565b5b6000614a1d8882890161427c565b9550506020614a2e8882890161427c565b9450506040614a3f88828901613fcc565b9350506060614a5088828901613fcc565b9250506080614a6188828901613fcc565b9150509295509295909350565b6000614a7982614217565b9050919050565b614a8981614a6e565b82525050565b6000602082019050614aa46000830184614a80565b92915050565b7f4e487b7100000000000000000000000000000000000000000000000000000000600052604160045260246000fd5b614ae28261417f565b810181811067ffffffffffffffff82111715614b0157614b00614aaa565b5b80604052505050565b6000614b14613f97565b9050614b208282614ad9565b919050565b600067ffffffffffffffff821115614b4057614b3f614aaa565b5b602082029050602081019050919050565b6000614b64614b5f84614b25565b614b0a565b90508083825260208201905060208402830185811115614b8757614b86614924565b5b835b81811015614bb05780614b9c888261427c565b845260208401935050602081019050614b89565b5050509392505050565b600082601f830112614bcf57614bce61491a565b5b8135614bdf848260208601614b51565b91505092915050565b600067ffffffffffffffff821115614c0357614c02614aaa565b5b602082029050602081019050919050565b6000614c27614c2284614be8565b614b0a565b90508083825260208201905060208402830185811115614c4a57614c49614924565b5b835b81811015614c735780614c5f8882613fcc565b845260208401935050602081019050614c4c565b5050509392505050565b600082601f830112614c9257614c9161491a565b5b8135614ca2848260208601614c14565b91505092915050565b600067ffffffffffffffff821115614cc657614cc5614aaa565b5b602082029050602081019050919050565b600080fd5b600067ffffffffffffffff821115614cf757614cf6614aaa565b5b614d008261417f565b9050602081019050919050565b82818337600083830152505050565b6000614d2f614d2a84614cdc565b614b0a565b905082815260208101848484011115614d4b57614d4a614cd7565b5b614d56848285614d0d565b509392505050565b600082601f830112614d7357614d7261491a565b5b8135614d83848260208601614d1c565b91505092915050565b6000614d9f614d9a84614cab565b614b0a565b90508083825260208201905060208402830185811115614dc257614dc1614924565b5b835b81811015614e0957803567ffffffffffffffff811115614de757614de661491a565b5b808601614df48982614d5e565b85526020850194505050602081019050614dc4565b5050509392505050565b600082601f830112614e2857614e2761491a565b5b8135614e38848260208601614d8c565b91505092915050565b600067ffffffffffffffff821115614e5c57614e5b614aaa565b5b602082029050602081019050919050565b600067ffffffffffffffff821115614e8857614e87614aaa565b5b614e918261417f565b9050602081019050919050565b6000614eb1614eac84614e6d565b614b0a565b905082815260208101848484011115614ecd57614ecc614cd7565b5b614ed8848285614d0d565b509392505050565b600082601f830112614ef557614ef461491a565b5b8135614f05848260208601614e9e565b91505092915050565b6000614f21614f1c84614e41565b614b0a565b90508083825260208201905060208402830185811115614f4457614f43614924565b5b835b81811015614f8b57803567ffffffffffffffff811115614f6957614f6861491a565b5b808601614f768982614ee0565b85526020850194505050602081019050614f46565b5050509392505050565b600082601f830112614faa57614fa961491a565b5b8135614fba848260208601614f0e565b91505092915050565b600080600080600060a08688031215614fdf57614fde613fa1565b5b600086013567ffffffffffffffff811115614ffd57614ffc613fa6565b5b61500988828901614bba565b955050602086013567ffffffffffffffff81111561502a57615029613fa6565b5b61503688828901614c7d565b945050604086013567ffffffffffffffff81111561505757615056613fa6565b5b61506388828901614e13565b935050606086013567ffffffffffffffff81111561508457615083613fa6565b5b61509088828901614f95565b925050608086013567ffffffffffffffff8111156150b1576150b0613fa6565b5b6150bd88828901614d5e565b9150509295509295909350565b600080604083850312156150e1576150e0613fa1565b5b60006150ef85828601613fcc565b92505060206151008582860161427c565b9150509250929050565b6151138161405e565b82525050565b61512281614728565b82525050565b60006bffffffffffffffffffffffff82169050919050565b61514981615128565b82525050565b606082016000820151615165600085018261510a565b5060208201516151786020850182615119565b50604082015161518b6040850182615140565b50505050565b60006060820190506151a6600083018461514f565b92915050565b7f476f7665726e6f72427261766f3a3a5f736574566f74696e67506572696f643a60008201527f2061646d696e206f6e6c79000000000000000000000000000000000000000000602082015250565b6000615208602b8361413b565b9150615213826151ac565b604082019050919050565b60006020820190508181036000830152615237816151fb565b9050919050565b7f476f7665726e6f72427261766f3a3a5f736574566f74696e67506572696f643a60008201527f20696e76616c696420766f74696e6720706572696f6400000000000000000000602082015250565b600061529a60368361413b565b91506152a58261523e565b604082019050919050565b600060208201905081810360008301526152c98161528d565b9050919050565b60006040820190506152e5600083018561400e565b6152f2602083018461400e565b9392505050565b7f476f7665726e6f72427261766f3a3a5f73657450726f706f73616c546872657360008201527f686f6c643a2061646d696e206f6e6c7900000000000000000000000000000000602082015250565b600061535560308361413b565b9150615360826152f9565b604082019050919050565b6000602082019050818103600083015261538481615348565b9050919050565b7f476f7665726e6f72427261766f3a3a5f73657450726f706f73616c546872657360008201527f686f6c643a20696e76616c69642070726f706f73616c207468726573686f6c64602082015250565b60006153e760408361413b565b91506153f28261538b565b604082019050919050565b60006020820190508181036000830152615416816153da565b9050919050565b7f476f7665726e6f72427261766f3a3a5f736574566f74696e6744656c61793a2060008201527f61646d696e206f6e6c7900000000000000000000000000000000000000000000602082015250565b6000615479602a8361413b565b91506154848261541d565b604082019050919050565b600060208201905081810360008301526154a88161546c565b9050919050565b7f476f7665726e6f72427261766f3a3a5f736574566f74696e6744656c61793a2060008201527f696e76616c696420766f74696e672064656c6179000000000000000000000000602082015250565b600061550b60348361413b565b9150615516826154af565b604082019050919050565b6000602082019050818103600083015261553a816154fe565b9050919050565b7f4e487b7100000000000000000000000000000000000000000000000000000000600052602260045260246000fd5b6000600282049050600182168061558857607f821691505b6020821081141561559c5761559b615541565b5b50919050565b60006080820190506155b760008301876142c8565b6155c460208301866142c8565b6155d1604083018561400e565b6155de606083018461404f565b95945050505050565b6155f081614728565b82525050565b600060608201905061560b60008301866142c8565b615618602083018561400e565b61562560408301846155e7565b949350505050565b600081905092915050565b7f1901000000000000000000000000000000000000000000000000000000000000600082015250565b600061566e60028361562d565b915061567982615638565b600282019050919050565b6000819050919050565b61569f61569a826142be565b615684565b82525050565b60006156b082615661565b91506156bc828561568e565b6020820191506156cc828461568e565b6020820191508190509392505050565b60006080820190506156f160008301876142c8565b6156fe60208301866155e7565b61570b60408301856142c8565b61571860608301846142c8565b95945050505050565b7f476f7665726e6f72427261766f3a3a63617374566f746542795369673a20696e60008201527f76616c6964207369676e61747572650000000000000000000000000000000000602082015250565b600061577d602f8361413b565b915061578882615721565b604082019050919050565b600060208201905081810360008301526157ac81615770565b9050919050565b60006157ce6157c96157c484615128565b6141eb565b613fab565b9050919050565b6157de816157b3565b82525050565b50565b60006157f460008361413b565b91506157ff826157e4565b600082019050919050565b600060808201905061581f600083018661400e565b61582c60208301856155e7565b61583960408301846157d5565b818103606083015261584a816157e7565b9050949350505050565b7f476f7665726e6f72427261766f3a3a73746174653a20696e76616c696420707260008201527f6f706f73616c2069640000000000000000000000000000000000000000000000602082015250565b60006158b060298361413b565b91506158bb82615854565b604082019050919050565b600060208201905081810360008301526158df816158a3565b9050919050565b6000815190506158f581613fb5565b92915050565b60006020828403121561591157615910613fa1565b5b600061591f848285016158e6565b91505092915050565b7f476f7665726e6f72427261766f3a3a63616e63656c3a2063616e6e6f7420636160008201527f6e63656c2065786563757465642070726f706f73616c00000000000000000000602082015250565b600061598460368361413b565b915061598f82615928565b604082019050919050565b600060208201905081810360008301526159b381615977565b9050919050565b60006040820190506159cf600083018561404f565b6159dc602083018461400e565b9392505050565b6159ec81615128565b81146159f757600080fd5b50565b600081519050615a09816159e3565b92915050565b600060208284031215615a2557615a24613fa1565b5b6000615a33848285016159fa565b91505092915050565b7f476f7665726e6f72427261766f3a3a63616e63656c3a2077686974656c69737460008201527f65642070726f706f736572000000000000000000000000000000000000000000602082015250565b6000615a98602b8361413b565b9150615aa382615a3c565b604082019050919050565b60006020820190508181036000830152615ac781615a8b565b9050919050565b7f476f7665726e6f72427261766f3a3a63616e63656c3a2070726f706f7365722060008201527f61626f7665207468726573686f6c640000000000000000000000000000000000602082015250565b6000615b2a602f8361413b565b9150615b3582615ace565b604082019050919050565b60006020820190508181036000830152615b5981615b1d565b9050919050565b7f4e487b7100000000000000000000000000000000000000000000000000000000600052603260045260246000fd5b60008190508160005260206000209050919050565b60008154615bb181615570565b615bbb818661413b565b94506001821660008114615bd65760018114615be857615c1b565b60ff1983168652602086019350615c1b565b615bf185615b8f565b60005b83811015615c1357815481890152600182019150602081019050615bf4565b808801955050505b50505092915050565b600082825260208201905092915050565b60008190508160005260206000209050919050565b60008154615c5781615570565b615c618186615c24565b94506001821660008114615c7c5760018114615c8e57615cc1565b60ff1983168652602086019350615cc1565b615c9785615c35565b60005b83811015615cb957815481890152600182019150602081019050615c9a565b808801955050505b50505092915050565b600060a082019050615cdf600083018861404f565b615cec602083018761400e565b8181036040830152615cfe8186615ba4565b90508181036060830152615d128185615c4a565b9050615d21608083018461400e565b9695505050505050565b7f4e487b7100000000000000000000000000000000000000000000000000000000600052601160045260246000fd5b6000615d6582613fab565b91507fffffffffffffffffffffffffffffffffffffffffffffffffffffffffffffffff821415615d9857615d97615d2b565b5b600182019050919050565b7f476f7665726e6f72427261766f3a3a5f73657457686974656c6973744163636f60008201527f756e7445787069726174696f6e3a2061646d696e206f6e6c7900000000000000602082015250565b6000615dff60398361413b565b9150615e0a82615da3565b604082019050919050565b60006020820190508181036000830152615e2e81615df2565b9050919050565b6000615e41838561413b565b9350615e4e838584614d0d565b615e578361417f565b840190509392505050565b6000608082019050615e77600083018861400e565b615e8460208301876155e7565b615e9160408301866157d5565b8181036060830152615ea4818486615e35565b90509695505050505050565b7f476f7665726e6f72427261766f3a3a5f73657457686974656c6973744775617260008201527f6469616e3a2061646d696e206f6e6c7900000000000000000000000000000000602082015250565b6000615f0c60308361413b565b9150615f1782615eb0565b604082019050919050565b60006020820190508181036000830152615f3b81615eff565b9050919050565b6000604082019050615f57600083018561404f565b615f64602083018461404f565b9392505050565b7f476f7665726e6f72427261766f3a5f73657450656e64696e6741646d696e3a2060008201527f61646d696e206f6e6c7900000000000000000000000000000000000000000000602082015250565b6000615fc7602a8361413b565b9150615fd282615f6b565b604082019050919050565b60006020820190508181036000830152615ff681615fba565b9050919050565b7f476f7665726e6f72427261766f3a3a696e697469616c697a653a2063616e206f60008201527f6e6c7920696e697469616c697a65206f6e636500000000000000000000000000602082015250565b600061605960338361413b565b915061606482615ffd565b604082019050919050565b600060208201905081810360008301526160888161604c565b9050919050565b7f476f7665726e6f72427261766f3a3a696e697469616c697a653a2061646d696e60008201527f206f6e6c79000000000000000000000000000000000000000000000000000000602082015250565b60006160eb60258361413b565b91506160f68261608f565b604082019050919050565b6000602082019050818103600083015261611a816160de565b9050919050565b7f476f7665726e6f72427261766f3a3a696e697469616c697a653a20696e76616c60008201527f69642074696d656c6f636b206164647265737300000000000000000000000000602082015250565b600061617d60338361413b565b915061618882616121565b604082019050919050565b600060208201905081810360008301526161ac81616170565b9050919050565b7f476f7665726e6f72427261766f3a3a696e697469616c697a653a20696e76616c60008201527f696420636f6d7020616464726573730000000000000000000000000000000000602082015250565b600061620f602f8361413b565b915061621a826161b3565b604082019050919050565b6000602082019050818103600083015261623e81616202565b9050919050565b7f476f7665726e6f72427261766f3a3a696e697469616c697a653a20696e76616c60008201527f696420766f74696e6720706572696f6400000000000000000000000000000000602082015250565b60006162a160308361413b565b91506162ac82616245565b604082019050919050565b600060208201905081810360008301526162d081616294565b9050919050565b7f476f7665726e6f72427261766f3a3a696e697469616c697a653a20696e76616c60008201527f696420766f74696e672064656c61790000000000000000000000000000000000602082015250565b6000616333602f8361413b565b915061633e826162d7565b604082019050919050565b6000602082019050818103600083015261636281616326565b9050919050565b7f476f7665726e6f72427261766f3a3a696e697469616c697a653a20696e76616c60008201527f69642070726f706f73616c207468726573686f6c640000000000000000000000602082015250565b60006163c560358361413b565b91506163d082616369565b604082019050919050565b600060208201905081810360008301526163f4816163b8565b9050919050565b7f476f7665726e6f72427261766f3a3a70726f706f73653a20476f7665726e6f7260008201527f20427261766f206e6f7420616374697665000000000000000000000000000000602082015250565b600061645760318361413b565b9150616462826163fb565b604082019050919050565b600060208201905081810360008301526164868161644a565b9050919050565b7f476f7665726e6f72427261766f3a3a70726f706f73653a2070726f706f73657260008201527f20766f7465732062656c6f772070726f706f73616c207468726573686f6c6400602082015250565b60006164e9603f8361413b565b91506164f48261648d565b604082019050919050565b60006020820190508181036000830152616518816164dc565b9050919050565b7f476f7665726e6f72427261766f3a3a70726f706f73653a2070726f706f73616c60008201527f2066756e6374696f6e20696e666f726d6174696f6e206172697479206d69736d60208201527f6174636800000000000000000000000000000000000000000000000000000000604082015250565b60006165a160448361413b565b91506165ac8261651f565b606082019050919050565b600060208201905081810360008301526165d081616594565b9050919050565b7f476f7665726e6f72427261766f3a3a70726f706f73653a206d7573742070726f60008201527f7669646520616374696f6e730000000000000000000000000000000000000000602082015250565b6000616633602c8361413b565b915061663e826165d7565b604082019050919050565b6000602082019050818103600083015261666281616626565b9050919050565b7f476f7665726e6f72427261766f3a3a70726f706f73653a20746f6f206d616e7960008201527f20616374696f6e73000000000000000000000000000000000000000000000000602082015250565b60006166c560288361413b565b91506166d082616669565b604082019050919050565b600060208201905081810360008301526166f4816166b8565b9050919050565b7f476f7665726e6f72427261766f3a3a70726f706f73653a206f6e65206c69766560008201527f2070726f706f73616c207065722070726f706f7365722c20666f756e6420616e60208201527f20616c7265616479206163746976652070726f706f73616c0000000000000000604082015250565b600061677d60588361413b565b9150616788826166fb565b606082019050919050565b600060208201905081810360008301526167ac81616770565b9050919050565b7f476f7665726e6f72427261766f3a3a70726f706f73653a206f6e65206c69766560008201527f2070726f706f73616c207065722070726f706f7365722c20666f756e6420616e60208201527f20616c72656164792070656e64696e672070726f706f73616c00000000000000604082015250565b600061683560598361413b565b9150616840826167b3565b606082019050919050565b6000602082019050818103600083015261686481616828565b9050919050565b7f476f7665726e6f72427261766f3a3a70726f706f73653a2050726f706f73616c60008201527f494420636f6c6c73696f6e000000000000000000000000000000000000000000602082015250565b60006168c7602b8361413b565b91506168d28261686b565b604082019050919050565b600060208201905081810360008301526168f6816168ba565b9050919050565b600061012082019050616913600083018c61400e565b616920602083018b61404f565b8181036040830152616932818a61436d565b90508181036060830152616946818961442b565b9050818103608083015261695a8188614520565b905081810360a083015261696e8187614637565b905061697d60c083018661400e565b61698a60e083018561400e565b81810361010083015261699d8184614190565b90509a9950505050505050505050565b7f476f7665726e6f72427261766f3a3a71756575653a2070726f706f73616c206360008201527f616e206f6e6c792062652071756575656420696620697420697320737563636560208201527f6564656400000000000000000000000000000000000000000000000000000000604082015250565b6000616a2f60448361413b565b9150616a3a826169ad565b606082019050919050565b60006020820190508181036000830152616a5e81616a22565b9050919050565b7f476f7665726e6f72427261766f3a5f61636365707441646d696e3a2070656e6460008201527f696e672061646d696e206f6e6c79000000000000000000000000000000000000602082015250565b6000616ac1602e8361413b565b9150616acc82616a65565b604082019050919050565b60006020820190508181036000830152616af081616ab4565b9050919050565b7f476f7665726e6f72427261766f3a3a5f696e6974696174653a2061646d696e2060008201527f6f6e6c7900000000000000000000000000000000000000000000000000000000602082015250565b6000616b5360248361413b565b9150616b5e82616af7565b604082019050919050565b60006020820190508181036000830152616b8281616b46565b9050919050565b7f476f7665726e6f72427261766f3a3a5f696e6974696174653a2063616e206f6e60008201527f6c7920696e697469617465206f6e636500000000000000000000000000000000602082015250565b6000616be560308361413b565b9150616bf082616b89565b604082019050919050565b60006020820190508181036000830152616c1481616bd8565b9050919050565b7f476f7665726e6f72427261766f3a3a657865637574653a2070726f706f73616c60008201527f2063616e206f6e6c79206265206578656375746564206966206974206973207160208201527f7565756564000000000000000000000000000000000000000000000000000000604082015250565b6000616c9d60458361413b565b9150616ca882616c1b565b606082019050919050565b60006020820190508181036000830152616ccc81616c90565b9050919050565b6000616ce6616ce184614e6d565b614b0a565b905082815260208101848484011115616d0257616d01614cd7565b5b616d0d84828561414c565b509392505050565b600082601f830112616d2a57616d2961491a565b5b8151616d3a848260208601616cd3565b91505092915050565b600060208284031215616d5957616d58613fa1565b5b600082015167ffffffffffffffff811115616d7757616d76613fa6565b5b616d8384828501616d15565b91505092915050565b7f476f7665726e6f72427261766f3a3a63617374566f7465496e7465726e616c3a60008201527f20766f74696e6720697320636c6f736564000000000000000000000000000000602082015250565b6000616de860318361413b565b9150616df382616d8c565b604082019050919050565b60006020820190508181036000830152616e1781616ddb565b9050919050565b7f476f7665726e6f72427261766f3a3a63617374566f7465496e7465726e616c3a60008201527f20696e76616c696420766f746520747970650000000000000000000000000000602082015250565b6000616e7a60328361413b565b9150616e8582616e1e565b604082019050919050565b60006020820190508181036000830152616ea981616e6d565b9050919050565b7f476f7665726e6f72427261766f3a3a63617374566f7465496e7465726e616c3a60008201527f20766f74657220616c726561647920766f746564000000000000000000000000602082015250565b6000616f0c60348361413b565b9150616f1782616eb0565b604082019050919050565b60006020820190508181036000830152616f3b81616eff565b9050919050565b6000616f4d82613fab565b9150616f5883613fab565b9250827fffffffffffffffffffffffffffffffffffffffffffffffffffffffffffffffff03821115616f8d57616f8c615d2b565b5b828201905092915050565b7f6164646974696f6e206f766572666c6f77000000000000000000000000000000600082015250565b6000616fce60118361413b565b9150616fd982616f98565b602082019050919050565b60006020820190508181036000830152616ffd81616fc1565b9050919050565b7f7375627472616374696f6e20756e646572666c6f770000000000000000000000600082015250565b600061703a60158361413b565b915061704582617004565b602082019050919050565b600060208201905081810360008301526170698161702d565b9050919050565b600061707b82613fab565b915061708683613fab565b92508282101561709957617098615d2b565b5b828203905092915050565b60006170af826145c1565b6170b98185615c24565b93506170c981856020860161414c565b6170d28161417f565b840191505092915050565b600060a0820190506170f2600083018861404f565b6170ff602083018761400e565b81810360408301526171118186614190565b9050818103606083015261712581856170a4565b9050617134608083018461400e565b9695505050505050565b6171478161405e565b811461715257600080fd5b50565b6000815190506171648161713e565b92915050565b6000602082840312156171805761717f613fa1565b5b600061718e84828501617155565b91505092915050565b7f476f7665726e6f72427261766f3a3a71756575654f72526576657274496e746560008201527f726e616c3a206964656e746963616c2070726f706f73616c20616374696f6e2060208201527f616c726561647920717565756564206174206574610000000000000000000000604082015250565b600061721960558361413b565b915061722482617197565b606082019050919050565b600060208201905081810360008301526172488161720c565b9050919050565b60008151905061725e81614761565b92915050565b60006020828403121561727a57617279613fa1565b5b60006172888482850161724f565b9150509291505056fea264697066735822122070a0f88c2338596772139390efdfc550ddb6e72c09c429db0a513d669b9a115564736f6c634300080a0033",
  "linkReferences": {},
  "deployedLinkReferences": {}
}