{
  "_format": "hh-sol-artifact-1",
  "contractName": "CEther",
  "sourceName": "contracts/CEther.sol",
  "abi": [
    {
      "inputs": [
        {
          "internalType": "contract ComptrollerInterface",
          "name": "comptroller_",
          "type": "address"
        },
        {
          "internalType": "contract InterestRateModel",
          "name": "interestRateModel_",
          "type": "address"
        },
        {
          "internalType": "uint256",
          "name": "initialExchangeRateMantissa_",
          "type": "uint256"
        },
        {
          "internalType": "string",
          "name": "name_",
          "type": "string"
        },
        {
          "internalType": "string",
          "name": "symbol_",
          "type": "string"
        },
        {
          "internalType": "uint8",
          "name": "decimals_",
          "type": "uint8"
        },
        {
          "internalType": "address payable",
          "name": "admin_",
          "type": "address"
        }
      ],
      "stateMutability": "nonpayable",
      "type": "constructor"
    },
    {
      "inputs": [],
      "name": "AcceptAdminPendingAdminCheck",
      "type": "error"
    },
    {
      "inputs": [
        {
          "internalType": "uint256",
          "name": "actualAddAmount",
          "type": "uint256"
        }
      ],
      "name": "AddReservesFactorFreshCheck",
      "type": "error"
    },
    {
      "inputs": [],
      "name": "BorrowCashNotAvailable",
      "type": "error"
    },
    {
      "inputs": [
        {
          "internalType": "uint256",
          "name": "errorCode",
          "type": "uint256"
        }
      ],
      "name": "BorrowComptrollerRejection",
      "type": "error"
    },
    {
      "inputs": [],
      "name": "BorrowFreshnessCheck",
      "type": "error"
    },
    {
      "inputs": [
        {
          "internalType": "uint256",
          "name": "errorCode",
          "type": "uint256"
        }
      ],
      "name": "LiquidateAccrueBorrowInterestFailed",
      "type": "error"
    },
    {
      "inputs": [
        {
          "internalType": "uint256",
          "name": "errorCode",
          "type": "uint256"
        }
      ],
      "name": "LiquidateAccrueCollateralInterestFailed",
      "type": "error"
    },
    {
      "inputs": [],
      "name": "LiquidateCloseAmountIsUintMax",
      "type": "error"
    },
    {
      "inputs": [],
      "name": "LiquidateCloseAmountIsZero",
      "type": "error"
    },
    {
      "inputs": [],
      "name": "LiquidateCollateralFreshnessCheck",
      "type": "error"
    },
    {
      "inputs": [
        {
          "internalType": "uint256",
          "name": "errorCode",
          "type": "uint256"
        }
      ],
      "name": "LiquidateComptrollerRejection",
      "type": "error"
    },
    {
      "inputs": [],
      "name": "LiquidateFreshnessCheck",
      "type": "error"
    },
    {
      "inputs": [],
      "name": "LiquidateLiquidatorIsBorrower",
      "type": "error"
    },
    {
      "inputs": [
        {
          "internalType": "uint256",
          "name": "errorCode",
          "type": "uint256"
        }
      ],
      "name": "LiquidateRepayBorrowFreshFailed",
      "type": "error"
    },
    {
      "inputs": [
        {
          "internalType": "uint256",
          "name": "errorCode",
          "type": "uint256"
        }
      ],
      "name": "LiquidateSeizeComptrollerRejection",
      "type": "error"
    },
    {
      "inputs": [],
      "name": "LiquidateSeizeLiquidatorIsBorrower",
      "type": "error"
    },
    {
      "inputs": [
        {
          "internalType": "uint256",
          "name": "errorCode",
          "type": "uint256"
        }
      ],
      "name": "MintComptrollerRejection",
      "type": "error"
    },
    {
      "inputs": [],
      "name": "MintFreshnessCheck",
      "type": "error"
    },
    {
      "inputs": [
        {
          "internalType": "uint256",
          "name": "errorCode",
          "type": "uint256"
        }
      ],
      "name": "RedeemComptrollerRejection",
      "type": "error"
    },
    {
      "inputs": [],
      "name": "RedeemFreshnessCheck",
      "type": "error"
    },
    {
      "inputs": [],
      "name": "RedeemTransferOutNotPossible",
      "type": "error"
    },
    {
      "inputs": [],
      "name": "ReduceReservesAdminCheck",
      "type": "error"
    },
    {
      "inputs": [],
      "name": "ReduceReservesCashNotAvailable",
      "type": "error"
    },
    {
      "inputs": [],
      "name": "ReduceReservesCashValidation",
      "type": "error"
    },
    {
      "inputs": [],
      "name": "ReduceReservesFreshCheck",
      "type": "error"
    },
    {
      "inputs": [
        {
          "internalType": "uint256",
          "name": "errorCode",
          "type": "uint256"
        }
      ],
      "name": "RepayBorrowComptrollerRejection",
      "type": "error"
    },
    {
      "inputs": [],
      "name": "RepayBorrowFreshnessCheck",
      "type": "error"
    },
    {
      "inputs": [],
      "name": "SetComptrollerOwnerCheck",
      "type": "error"
    },
    {
      "inputs": [],
      "name": "SetInterestRateModelFreshCheck",
      "type": "error"
    },
    {
      "inputs": [],
      "name": "SetInterestRateModelOwnerCheck",
      "type": "error"
    },
    {
      "inputs": [],
      "name": "SetPendingAdminOwnerCheck",
      "type": "error"
    },
    {
      "inputs": [],
      "name": "SetReserveFactorAdminCheck",
      "type": "error"
    },
    {
      "inputs": [],
      "name": "SetReserveFactorBoundsCheck",
      "type": "error"
    },
    {
      "inputs": [],
      "name": "SetReserveFactorFreshCheck",
      "type": "error"
    },
    {
      "inputs": [
        {
          "internalType": "uint256",
          "name": "errorCode",
          "type": "uint256"
        }
      ],
      "name": "TransferComptrollerRejection",
      "type": "error"
    },
    {
      "inputs": [],
      "name": "TransferNotAllowed",
      "type": "error"
    },
    {
      "inputs": [],
      "name": "TransferNotEnough",
      "type": "error"
    },
    {
      "inputs": [],
      "name": "TransferTooMuch",
      "type": "error"
    },
    {
      "anonymous": false,
      "inputs": [
        {
          "indexed": false,
          "internalType": "uint256",
          "name": "cashPrior",
          "type": "uint256"
        },
        {
          "indexed": false,
          "internalType": "uint256",
          "name": "interestAccumulated",
          "type": "uint256"
        },
        {
          "indexed": false,
          "internalType": "uint256",
          "name": "borrowIndex",
          "type": "uint256"
        },
        {
          "indexed": false,
          "internalType": "uint256",
          "name": "totalBorrows",
          "type": "uint256"
        }
      ],
      "name": "AccrueInterest",
      "type": "event"
    },
    {
      "anonymous": false,
      "inputs": [
        {
          "indexed": true,
          "internalType": "address",
          "name": "owner",
          "type": "address"
        },
        {
          "indexed": true,
          "internalType": "address",
          "name": "spender",
          "type": "address"
        },
        {
          "indexed": false,
          "internalType": "uint256",
          "name": "amount",
          "type": "uint256"
        }
      ],
      "name": "Approval",
      "type": "event"
    },
    {
      "anonymous": false,
      "inputs": [
        {
          "indexed": false,
          "internalType": "address",
          "name": "borrower",
          "type": "address"
        },
        {
          "indexed": false,
          "internalType": "uint256",
          "name": "borrowAmount",
          "type": "uint256"
        },
        {
          "indexed": false,
          "internalType": "uint256",
          "name": "accountBorrows",
          "type": "uint256"
        },
        {
          "indexed": false,
          "internalType": "uint256",
          "name": "totalBorrows",
          "type": "uint256"
        }
      ],
      "name": "Borrow",
      "type": "event"
    },
    {
      "anonymous": false,
      "inputs": [
        {
          "indexed": false,
          "internalType": "address",
          "name": "liquidator",
          "type": "address"
        },
        {
          "indexed": false,
          "internalType": "address",
          "name": "borrower",
          "type": "address"
        },
        {
          "indexed": false,
          "internalType": "uint256",
          "name": "repayAmount",
          "type": "uint256"
        },
        {
          "indexed": false,
          "internalType": "address",
          "name": "cTokenCollateral",
          "type": "address"
        },
        {
          "indexed": false,
          "internalType": "uint256",
          "name": "seizeTokens",
          "type": "uint256"
        }
      ],
      "name": "LiquidateBorrow",
      "type": "event"
    },
    {
      "anonymous": false,
      "inputs": [
        {
          "indexed": false,
          "internalType": "address",
          "name": "minter",
          "type": "address"
        },
        {
          "indexed": false,
          "internalType": "uint256",
          "name": "mintAmount",
          "type": "uint256"
        },
        {
          "indexed": false,
          "internalType": "uint256",
          "name": "mintTokens",
          "type": "uint256"
        }
      ],
      "name": "Mint",
      "type": "event"
    },
    {
      "anonymous": false,
      "inputs": [
        {
          "indexed": false,
          "internalType": "address",
          "name": "oldAdmin",
          "type": "address"
        },
        {
          "indexed": false,
          "internalType": "address",
          "name": "newAdmin",
          "type": "address"
        }
      ],
      "name": "NewAdmin",
      "type": "event"
    },
    {
      "anonymous": false,
      "inputs": [
        {
          "indexed": false,
          "internalType": "contract ComptrollerInterface",
          "name": "oldComptroller",
          "type": "address"
        },
        {
          "indexed": false,
          "internalType": "contract ComptrollerInterface",
          "name": "newComptroller",
          "type": "address"
        }
      ],
      "name": "NewComptroller",
      "type": "event"
    },
    {
      "anonymous": false,
      "inputs": [
        {
          "indexed": false,
          "internalType": "contract InterestRateModel",
          "name": "oldInterestRateModel",
          "type": "address"
        },
        {
          "indexed": false,
          "internalType": "contract InterestRateModel",
          "name": "newInterestRateModel",
          "type": "address"
        }
      ],
      "name": "NewMarketInterestRateModel",
      "type": "event"
    },
    {
      "anonymous": false,
      "inputs": [
        {
          "indexed": false,
          "internalType": "address",
          "name": "oldPendingAdmin",
          "type": "address"
        },
        {
          "indexed": false,
          "internalType": "address",
          "name": "newPendingAdmin",
          "type": "address"
        }
      ],
      "name": "NewPendingAdmin",
      "type": "event"
    },
    {
      "anonymous": false,
      "inputs": [
        {
          "indexed": false,
          "internalType": "uint256",
          "name": "oldReserveFactorMantissa",
          "type": "uint256"
        },
        {
          "indexed": false,
          "internalType": "uint256",
          "name": "newReserveFactorMantissa",
          "type": "uint256"
        }
      ],
      "name": "NewReserveFactor",
      "type": "event"
    },
    {
      "anonymous": false,
      "inputs": [
        {
          "indexed": false,
          "internalType": "address",
          "name": "redeemer",
          "type": "address"
        },
        {
          "indexed": false,
          "internalType": "uint256",
          "name": "redeemAmount",
          "type": "uint256"
        },
        {
          "indexed": false,
          "internalType": "uint256",
          "name": "redeemTokens",
          "type": "uint256"
        }
      ],
      "name": "Redeem",
      "type": "event"
    },
    {
      "anonymous": false,
      "inputs": [
        {
          "indexed": false,
          "internalType": "address",
          "name": "payer",
          "type": "address"
        },
        {
          "indexed": false,
          "internalType": "address",
          "name": "borrower",
          "type": "address"
        },
        {
          "indexed": false,
          "internalType": "uint256",
          "name": "repayAmount",
          "type": "uint256"
        },
        {
          "indexed": false,
          "internalType": "uint256",
          "name": "accountBorrows",
          "type": "uint256"
        },
        {
          "indexed": false,
          "internalType": "uint256",
          "name": "totalBorrows",
          "type": "uint256"
        }
      ],
      "name": "RepayBorrow",
      "type": "event"
    },
    {
      "anonymous": false,
      "inputs": [
        {
          "indexed": false,
          "internalType": "address",
          "name": "benefactor",
          "type": "address"
        },
        {
          "indexed": false,
          "internalType": "uint256",
          "name": "addAmount",
          "type": "uint256"
        },
        {
          "indexed": false,
          "internalType": "uint256",
          "name": "newTotalReserves",
          "type": "uint256"
        }
      ],
      "name": "ReservesAdded",
      "type": "event"
    },
    {
      "anonymous": false,
      "inputs": [
        {
          "indexed": false,
          "internalType": "address",
          "name": "admin",
          "type": "address"
        },
        {
          "indexed": false,
          "internalType": "uint256",
          "name": "reduceAmount",
          "type": "uint256"
        },
        {
          "indexed": false,
          "internalType": "uint256",
          "name": "newTotalReserves",
          "type": "uint256"
        }
      ],
      "name": "ReservesReduced",
      "type": "event"
    },
    {
      "anonymous": false,
      "inputs": [
        {
          "indexed": true,
          "internalType": "address",
          "name": "from",
          "type": "address"
        },
        {
          "indexed": true,
          "internalType": "address",
          "name": "to",
          "type": "address"
        },
        {
          "indexed": false,
          "internalType": "uint256",
          "name": "amount",
          "type": "uint256"
        }
      ],
      "name": "Transfer",
      "type": "event"
    },
    {
      "inputs": [],
      "name": "NO_ERROR",
      "outputs": [
        {
          "internalType": "uint256",
          "name": "",
          "type": "uint256"
        }
      ],
      "stateMutability": "view",
      "type": "function"
    },
    {
      "inputs": [],
      "name": "_acceptAdmin",
      "outputs": [
        {
          "internalType": "uint256",
          "name": "",
          "type": "uint256"
        }
      ],
      "stateMutability": "nonpayable",
      "type": "function"
    },
    {
      "inputs": [],
      "name": "_addReserves",
      "outputs": [
        {
          "internalType": "uint256",
          "name": "",
          "type": "uint256"
        }
      ],
      "stateMutability": "payable",
      "type": "function"
    },
    {
      "inputs": [
        {
          "internalType": "uint256",
          "name": "reduceAmount",
          "type": "uint256"
        }
      ],
      "name": "_reduceReserves",
      "outputs": [
        {
          "internalType": "uint256",
          "name": "",
          "type": "uint256"
        }
      ],
      "stateMutability": "nonpayable",
      "type": "function"
    },
    {
      "inputs": [
        {
          "internalType": "contract ComptrollerInterface",
          "name": "newComptroller",
          "type": "address"
        }
      ],
      "name": "_setComptroller",
      "outputs": [
        {
          "internalType": "uint256",
          "name": "",
          "type": "uint256"
        }
      ],
      "stateMutability": "nonpayable",
      "type": "function"
    },
    {
      "inputs": [
        {
          "internalType": "contract InterestRateModel",
          "name": "newInterestRateModel",
          "type": "address"
        }
      ],
      "name": "_setInterestRateModel",
      "outputs": [
        {
          "internalType": "uint256",
          "name": "",
          "type": "uint256"
        }
      ],
      "stateMutability": "nonpayable",
      "type": "function"
    },
    {
      "inputs": [
        {
          "internalType": "address payable",
          "name": "newPendingAdmin",
          "type": "address"
        }
      ],
      "name": "_setPendingAdmin",
      "outputs": [
        {
          "internalType": "uint256",
          "name": "",
          "type": "uint256"
        }
      ],
      "stateMutability": "nonpayable",
      "type": "function"
    },
    {
      "inputs": [
        {
          "internalType": "uint256",
          "name": "newReserveFactorMantissa",
          "type": "uint256"
        }
      ],
      "name": "_setReserveFactor",
      "outputs": [
        {
          "internalType": "uint256",
          "name": "",
          "type": "uint256"
        }
      ],
      "stateMutability": "nonpayable",
      "type": "function"
    },
    {
      "inputs": [],
      "name": "accrualBlockNumber",
      "outputs": [
        {
          "internalType": "uint256",
          "name": "",
          "type": "uint256"
        }
      ],
      "stateMutability": "view",
      "type": "function"
    },
    {
      "inputs": [],
      "name": "accrueInterest",
      "outputs": [
        {
          "internalType": "uint256",
          "name": "",
          "type": "uint256"
        }
      ],
      "stateMutability": "nonpayable",
      "type": "function"
    },
    {
      "inputs": [],
      "name": "admin",
      "outputs": [
        {
          "internalType": "address payable",
          "name": "",
          "type": "address"
        }
      ],
      "stateMutability": "view",
      "type": "function"
    },
    {
      "inputs": [
        {
          "internalType": "address",
          "name": "owner",
          "type": "address"
        },
        {
          "internalType": "address",
          "name": "spender",
          "type": "address"
        }
      ],
      "name": "allowance",
      "outputs": [
        {
          "internalType": "uint256",
          "name": "",
          "type": "uint256"
        }
      ],
      "stateMutability": "view",
      "type": "function"
    },
    {
      "inputs": [
        {
          "internalType": "address",
          "name": "spender",
          "type": "address"
        },
        {
          "internalType": "uint256",
          "name": "amount",
          "type": "uint256"
        }
      ],
      "name": "approve",
      "outputs": [
        {
          "internalType": "bool",
          "name": "",
          "type": "bool"
        }
      ],
      "stateMutability": "nonpayable",
      "type": "function"
    },
    {
      "inputs": [
        {
          "internalType": "address",
          "name": "owner",
          "type": "address"
        }
      ],
      "name": "balanceOf",
      "outputs": [
        {
          "internalType": "uint256",
          "name": "",
          "type": "uint256"
        }
      ],
      "stateMutability": "view",
      "type": "function"
    },
    {
      "inputs": [
        {
          "internalType": "address",
          "name": "owner",
          "type": "address"
        }
      ],
      "name": "balanceOfUnderlying",
      "outputs": [
        {
          "internalType": "uint256",
          "name": "",
          "type": "uint256"
        }
      ],
      "stateMutability": "nonpayable",
      "type": "function"
    },
    {
      "inputs": [
        {
          "internalType": "uint256",
          "name": "borrowAmount",
          "type": "uint256"
        }
      ],
      "name": "borrow",
      "outputs": [
        {
          "internalType": "uint256",
          "name": "",
          "type": "uint256"
        }
      ],
      "stateMutability": "nonpayable",
      "type": "function"
    },
    {
      "inputs": [
        {
          "internalType": "address",
          "name": "account",
          "type": "address"
        }
      ],
      "name": "borrowBalanceCurrent",
      "outputs": [
        {
          "internalType": "uint256",
          "name": "",
          "type": "uint256"
        }
      ],
      "stateMutability": "nonpayable",
      "type": "function"
    },
    {
      "inputs": [
        {
          "internalType": "address",
          "name": "account",
          "type": "address"
        }
      ],
      "name": "borrowBalanceStored",
      "outputs": [
        {
          "internalType": "uint256",
          "name": "",
          "type": "uint256"
        }
      ],
      "stateMutability": "view",
      "type": "function"
    },
    {
      "inputs": [],
      "name": "borrowIndex",
      "outputs": [
        {
          "internalType": "uint256",
          "name": "",
          "type": "uint256"
        }
      ],
      "stateMutability": "view",
      "type": "function"
    },
    {
      "inputs": [],
      "name": "borrowRatePerBlock",
      "outputs": [
        {
          "internalType": "uint256",
          "name": "",
          "type": "uint256"
        }
      ],
      "stateMutability": "view",
      "type": "function"
    },
    {
      "inputs": [],
      "name": "comptroller",
      "outputs": [
        {
          "internalType": "contract ComptrollerInterface",
          "name": "",
          "type": "address"
        }
      ],
      "stateMutability": "view",
      "type": "function"
    },
    {
      "inputs": [],
      "name": "decimals",
      "outputs": [
        {
          "internalType": "uint8",
          "name": "",
          "type": "uint8"
        }
      ],
      "stateMutability": "view",
      "type": "function"
    },
    {
      "inputs": [],
      "name": "exchangeRateCurrent",
      "outputs": [
        {
          "internalType": "uint256",
          "name": "",
          "type": "uint256"
        }
      ],
      "stateMutability": "nonpayable",
      "type": "function"
    },
    {
      "inputs": [],
      "name": "exchangeRateStored",
      "outputs": [
        {
          "internalType": "uint256",
          "name": "",
          "type": "uint256"
        }
      ],
      "stateMutability": "view",
      "type": "function"
    },
    {
      "inputs": [
        {
          "internalType": "address",
          "name": "account",
          "type": "address"
        }
      ],
      "name": "getAccountSnapshot",
      "outputs": [
        {
          "internalType": "uint256",
          "name": "",
          "type": "uint256"
        },
        {
          "internalType": "uint256",
          "name": "",
          "type": "uint256"
        },
        {
          "internalType": "uint256",
          "name": "",
          "type": "uint256"
        },
        {
          "internalType": "uint256",
          "name": "",
          "type": "uint256"
        }
      ],
      "stateMutability": "view",
      "type": "function"
    },
    {
      "inputs": [],
      "name": "getCash",
      "outputs": [
        {
          "internalType": "uint256",
          "name": "",
          "type": "uint256"
        }
      ],
      "stateMutability": "view",
      "type": "function"
    },
    {
      "inputs": [
        {
          "internalType": "contract ComptrollerInterface",
          "name": "comptroller_",
          "type": "address"
        },
        {
          "internalType": "contract InterestRateModel",
          "name": "interestRateModel_",
          "type": "address"
        },
        {
          "internalType": "uint256",
          "name": "initialExchangeRateMantissa_",
          "type": "uint256"
        },
        {
          "internalType": "string",
          "name": "name_",
          "type": "string"
        },
        {
          "internalType": "string",
          "name": "symbol_",
          "type": "string"
        },
        {
          "internalType": "uint8",
          "name": "decimals_",
          "type": "uint8"
        }
      ],
      "name": "initialize",
      "outputs": [],
      "stateMutability": "nonpayable",
      "type": "function"
    },
    {
      "inputs": [],
      "name": "interestRateModel",
      "outputs": [
        {
          "internalType": "contract InterestRateModel",
          "name": "",
          "type": "address"
        }
      ],
      "stateMutability": "view",
      "type": "function"
    },
    {
      "inputs": [],
      "name": "isCToken",
      "outputs": [
        {
          "internalType": "bool",
          "name": "",
          "type": "bool"
        }
      ],
      "stateMutability": "view",
      "type": "function"
    },
    {
      "inputs": [
        {
          "internalType": "address",
          "name": "borrower",
          "type": "address"
        },
        {
          "internalType": "contract CToken",
          "name": "cTokenCollateral",
          "type": "address"
        }
      ],
      "name": "liquidateBorrow",
      "outputs": [],
      "stateMutability": "payable",
      "type": "function"
    },
    {
      "inputs": [],
      "name": "mint",
      "outputs": [],
      "stateMutability": "payable",
      "type": "function"
    },
    {
      "inputs": [],
      "name": "name",
      "outputs": [
        {
          "internalType": "string",
          "name": "",
          "type": "string"
        }
      ],
      "stateMutability": "view",
      "type": "function"
    },
    {
      "inputs": [],
      "name": "pendingAdmin",
      "outputs": [
        {
          "internalType": "address payable",
          "name": "",
          "type": "address"
        }
      ],
      "stateMutability": "view",
      "type": "function"
    },
    {
      "inputs": [],
      "name": "protocolSeizeShareMantissa",
      "outputs": [
        {
          "internalType": "uint256",
          "name": "",
          "type": "uint256"
        }
      ],
      "stateMutability": "view",
      "type": "function"
    },
    {
      "inputs": [
        {
          "internalType": "uint256",
          "name": "redeemTokens",
          "type": "uint256"
        }
      ],
      "name": "redeem",
      "outputs": [
        {
          "internalType": "uint256",
          "name": "",
          "type": "uint256"
        }
      ],
      "stateMutability": "nonpayable",
      "type": "function"
    },
    {
      "inputs": [
        {
          "internalType": "uint256",
          "name": "redeemAmount",
          "type": "uint256"
        }
      ],
      "name": "redeemUnderlying",
      "outputs": [
        {
          "internalType": "uint256",
          "name": "",
          "type": "uint256"
        }
      ],
      "stateMutability": "nonpayable",
      "type": "function"
    },
    {
      "inputs": [],
      "name": "repayBorrow",
      "outputs": [],
      "stateMutability": "payable",
      "type": "function"
    },
    {
      "inputs": [
        {
          "internalType": "address",
          "name": "borrower",
          "type": "address"
        }
      ],
      "name": "repayBorrowBehalf",
      "outputs": [],
      "stateMutability": "payable",
      "type": "function"
    },
    {
      "inputs": [],
      "name": "reserveFactorMantissa",
      "outputs": [
        {
          "internalType": "uint256",
          "name": "",
          "type": "uint256"
        }
      ],
      "stateMutability": "view",
      "type": "function"
    },
    {
      "inputs": [
        {
          "internalType": "address",
          "name": "liquidator",
          "type": "address"
        },
        {
          "internalType": "address",
          "name": "borrower",
          "type": "address"
        },
        {
          "internalType": "uint256",
          "name": "seizeTokens",
          "type": "uint256"
        }
      ],
      "name": "seize",
      "outputs": [
        {
          "internalType": "uint256",
          "name": "",
          "type": "uint256"
        }
      ],
      "stateMutability": "nonpayable",
      "type": "function"
    },
    {
      "inputs": [],
      "name": "supplyRatePerBlock",
      "outputs": [
        {
          "internalType": "uint256",
          "name": "",
          "type": "uint256"
        }
      ],
      "stateMutability": "view",
      "type": "function"
    },
    {
      "inputs": [],
      "name": "symbol",
      "outputs": [
        {
          "internalType": "string",
          "name": "",
          "type": "string"
        }
      ],
      "stateMutability": "view",
      "type": "function"
    },
    {
      "inputs": [],
      "name": "totalBorrows",
      "outputs": [
        {
          "internalType": "uint256",
          "name": "",
          "type": "uint256"
        }
      ],
      "stateMutability": "view",
      "type": "function"
    },
    {
      "inputs": [],
      "name": "totalBorrowsCurrent",
      "outputs": [
        {
          "internalType": "uint256",
          "name": "",
          "type": "uint256"
        }
      ],
      "stateMutability": "nonpayable",
      "type": "function"
    },
    {
      "inputs": [],
      "name": "totalReserves",
      "outputs": [
        {
          "internalType": "uint256",
          "name": "",
          "type": "uint256"
        }
      ],
      "stateMutability": "view",
      "type": "function"
    },
    {
      "inputs": [],
      "name": "totalSupply",
      "outputs": [
        {
          "internalType": "uint256",
          "name": "",
          "type": "uint256"
        }
      ],
      "stateMutability": "view",
      "type": "function"
    },
    {
      "inputs": [
        {
          "internalType": "address",
          "name": "dst",
          "type": "address"
        },
        {
          "internalType": "uint256",
          "name": "amount",
          "type": "uint256"
        }
      ],
      "name": "transfer",
      "outputs": [
        {
          "internalType": "bool",
          "name": "",
          "type": "bool"
        }
      ],
      "stateMutability": "nonpayable",
      "type": "function"
    },
    {
      "inputs": [
        {
          "internalType": "address",
          "name": "src",
          "type": "address"
        },
        {
          "internalType": "address",
          "name": "dst",
          "type": "address"
        },
        {
          "internalType": "uint256",
          "name": "amount",
          "type": "uint256"
        }
      ],
      "name": "transferFrom",
      "outputs": [
        {
          "internalType": "bool",
          "name": "",
          "type": "bool"
        }
      ],
      "stateMutability": "nonpayable",
      "type": "function"
    },
    {
      "stateMutability": "payable",
      "type": "receive"
    }
  ],
  "bytecode": "0x60806040523480156200001157600080fd5b506040516200721738038062007217833981810160405281019062000037919062000b4e565b33600360016101000a81548173ffffffffffffffffffffffffffffffffffffffff021916908373ffffffffffffffffffffffffffffffffffffffff1602179055506200008e878787878787620000dc60201b60201c565b80600360016101000a81548173ffffffffffffffffffffffffffffffffffffffff021916908373ffffffffffffffffffffffffffffffffffffffff1602179055505050505050505062001152565b600360019054906101000a900473ffffffffffffffffffffffffffffffffffffffff1673ffffffffffffffffffffffffffffffffffffffff163373ffffffffffffffffffffffffffffffffffffffff16146200016f576040517f08c379a0000000000000000000000000000000000000000000000000000000008152600401620001669062000cc6565b60405180910390fd5b60006009541480156200018457506000600a54145b620001c6576040517f08c379a0000000000000000000000000000000000000000000000000000000008152600401620001bd9062000d5e565b60405180910390fd5b8360078190555060006007541162000215576040517f08c379a00000000000000000000000000000000000000000000000000000000081526004016200020c9062000df6565b60405180910390fd5b600062000228876200035e60201b60201c565b90506000811462000270576040517f08c379a0000000000000000000000000000000000000000000000000000000008152600401620002679062000e68565b60405180910390fd5b620002806200054860201b60201c565b600981905550670de0b6b3a7640000600a81905550620002a6866200055060201b60201c565b905060008114620002ee576040517f08c379a0000000000000000000000000000000000000000000000000000000008152600401620002e59062000f00565b60405180910390fd5b83600190805190602001906200030692919062000785565b5082600290805190602001906200031f92919062000785565b5081600360006101000a81548160ff021916908360ff16021790555060016000806101000a81548160ff02191690831515021790555050505050505050565b6000600360019054906101000a900473ffffffffffffffffffffffffffffffffffffffff1673ffffffffffffffffffffffffffffffffffffffff163373ffffffffffffffffffffffffffffffffffffffff1614620003e8576040517fd219dc1f00000000000000000000000000000000000000000000000000000000815260040160405180910390fd5b6000600560009054906101000a900473ffffffffffffffffffffffffffffffffffffffff1690508273ffffffffffffffffffffffffffffffffffffffff16627e3dd26040518163ffffffff1660e01b8152600401602060405180830381865afa1580156200045a573d6000803e3d6000fd5b505050506040513d601f19601f8201168201806040525081019062000480919062000f5f565b620004c2576040517f08c379a0000000000000000000000000000000000000000000000000000000008152600401620004b99062000fe1565b60405180910390fd5b82600560006101000a81548173ffffffffffffffffffffffffffffffffffffffff021916908373ffffffffffffffffffffffffffffffffffffffff1602179055507f7ac369dbd14fa5ea3f473ed67cc9d598964a77501540ba6751eb0b3decf5870d8184604051620005369291906200106e565b60405180910390a16000915050919050565b600043905090565b600080600360019054906101000a900473ffffffffffffffffffffffffffffffffffffffff1673ffffffffffffffffffffffffffffffffffffffff163373ffffffffffffffffffffffffffffffffffffffff1614620005db576040517f407fded500000000000000000000000000000000000000000000000000000000815260040160405180910390fd5b620005eb6200054860201b60201c565b6009541462000626576040517f17c54b9600000000000000000000000000000000000000000000000000000000815260040160405180910390fd5b600660009054906101000a900473ffffffffffffffffffffffffffffffffffffffff1690508273ffffffffffffffffffffffffffffffffffffffff16632191f92a6040518163ffffffff1660e01b8152600401602060405180830381865afa15801562000697573d6000803e3d6000fd5b505050506040513d601f19601f82011682018060405250810190620006bd919062000f5f565b620006ff576040517f08c379a0000000000000000000000000000000000000000000000000000000008152600401620006f69062000fe1565b60405180910390fd5b82600660006101000a81548173ffffffffffffffffffffffffffffffffffffffff021916908373ffffffffffffffffffffffffffffffffffffffff1602179055507fedffc32e068c7c95dfd4bdfd5c4d939a084d6b11c4199eac8436ed234d72f926818460405162000773929190620010c0565b60405180910390a16000915050919050565b82805462000793906200111c565b90600052602060002090601f016020900481019282620007b7576000855562000803565b82601f10620007d257805160ff191683800117855562000803565b8280016001018555821562000803579182015b8281111562000802578251825591602001919060010190620007e5565b5b50905062000812919062000816565b5090565b5b808211156200083157600081600090555060010162000817565b5090565b6000604051905090565b600080fd5b600080fd5b600073ffffffffffffffffffffffffffffffffffffffff82169050919050565b6000620008768262000849565b9050919050565b60006200088a8262000869565b9050919050565b6200089c816200087d565b8114620008a857600080fd5b50565b600081519050620008bc8162000891565b92915050565b6000620008cf8262000869565b9050919050565b620008e181620008c2565b8114620008ed57600080fd5b50565b6000815190506200090181620008d6565b92915050565b6000819050919050565b6200091c8162000907565b81146200092857600080fd5b50565b6000815190506200093c8162000911565b92915050565b600080fd5b600080fd5b6000601f19601f8301169050919050565b7f4e487b7100000000000000000000000000000000000000000000000000000000600052604160045260246000fd5b62000997826200094c565b810181811067ffffffffffffffff82111715620009b957620009b86200095d565b5b80604052505050565b6000620009ce62000835565b9050620009dc82826200098c565b919050565b600067ffffffffffffffff821115620009ff57620009fe6200095d565b5b62000a0a826200094c565b9050602081019050919050565b60005b8381101562000a3757808201518184015260208101905062000a1a565b8381111562000a47576000848401525b50505050565b600062000a6462000a5e84620009e1565b620009c2565b90508281526020810184848401111562000a835762000a8262000947565b5b62000a9084828562000a17565b509392505050565b600082601f83011262000ab05762000aaf62000942565b5b815162000ac284826020860162000a4d565b91505092915050565b600060ff82169050919050565b62000ae38162000acb565b811462000aef57600080fd5b50565b60008151905062000b038162000ad8565b92915050565b600062000b168262000849565b9050919050565b62000b288162000b09565b811462000b3457600080fd5b50565b60008151905062000b488162000b1d565b92915050565b600080600080600080600060e0888a03121562000b705762000b6f6200083f565b5b600062000b808a828b01620008ab565b975050602062000b938a828b01620008f0565b965050604062000ba68a828b016200092b565b955050606088015167ffffffffffffffff81111562000bca5762000bc962000844565b5b62000bd88a828b0162000a98565b945050608088015167ffffffffffffffff81111562000bfc5762000bfb62000844565b5b62000c0a8a828b0162000a98565b93505060a062000c1d8a828b0162000af2565b92505060c062000c308a828b0162000b37565b91505092959891949750929550565b600082825260208201905092915050565b7f6f6e6c792061646d696e206d617920696e697469616c697a6520746865206d6160008201527f726b657400000000000000000000000000000000000000000000000000000000602082015250565b600062000cae60248362000c3f565b915062000cbb8262000c50565b604082019050919050565b6000602082019050818103600083015262000ce18162000c9f565b9050919050565b7f6d61726b6574206d6179206f6e6c7920626520696e697469616c697a6564206f60008201527f6e63650000000000000000000000000000000000000000000000000000000000602082015250565b600062000d4660238362000c3f565b915062000d538262000ce8565b604082019050919050565b6000602082019050818103600083015262000d798162000d37565b9050919050565b7f696e697469616c2065786368616e67652072617465206d75737420626520677260008201527f6561746572207468616e207a65726f2e00000000000000000000000000000000602082015250565b600062000dde60308362000c3f565b915062000deb8262000d80565b604082019050919050565b6000602082019050818103600083015262000e118162000dcf565b9050919050565b7f73657474696e6720636f6d7074726f6c6c6572206661696c6564000000000000600082015250565b600062000e50601a8362000c3f565b915062000e5d8262000e18565b602082019050919050565b6000602082019050818103600083015262000e838162000e41565b9050919050565b7f73657474696e6720696e7465726573742072617465206d6f64656c206661696c60008201527f6564000000000000000000000000000000000000000000000000000000000000602082015250565b600062000ee860228362000c3f565b915062000ef58262000e8a565b604082019050919050565b6000602082019050818103600083015262000f1b8162000ed9565b9050919050565b60008115159050919050565b62000f398162000f22565b811462000f4557600080fd5b50565b60008151905062000f598162000f2e565b92915050565b60006020828403121562000f785762000f776200083f565b5b600062000f888482850162000f48565b91505092915050565b7f6d61726b6572206d6574686f642072657475726e65642066616c736500000000600082015250565b600062000fc9601c8362000c3f565b915062000fd68262000f91565b602082019050919050565b6000602082019050818103600083015262000ffc8162000fba565b9050919050565b6000819050919050565b60006200102e62001028620010228462000849565b62001003565b62000849565b9050919050565b600062001042826200100d565b9050919050565b6000620010568262001035565b9050919050565b620010688162001049565b82525050565b60006040820190506200108560008301856200105d565b6200109460208301846200105d565b9392505050565b6000620010a88262001035565b9050919050565b620010ba816200109b565b82525050565b6000604082019050620010d76000830185620010af565b620010e66020830184620010af565b9392505050565b7f4e487b7100000000000000000000000000000000000000000000000000000000600052602260045260246000fd5b600060028204905060018216806200113557607f821691505b602082108114156200114c576200114b620010ed565b5b50919050565b6160b580620011626000396000f3fe6080604052600436106102975760003560e01c806395d89b411161015a578063c5ebeaec116100c1578063f3fdb15a1161007a578063f3fdb15a14610a8d578063f851a44014610ab8578063f8f9da2814610ae3578063fca7820b14610b0e578063fcb6414714610b4b578063fe9c44ae14610b69576102a7565b8063c5ebeaec14610952578063db006a751461098f578063dd62ed3e146109cc578063e597461914610a09578063e9c714f214610a25578063f2b3abbd14610a50576102a7565b8063aae40a2a11610113578063aae40a2a14610826578063ae9d70b014610842578063b2a02ff11461086d578063b71d1a0c146108aa578063bd6d894d146108e7578063c37f68e214610912576102a7565b806395d89b411461070257806395dd91931461072d57806399d8c1b41461076a578063a6afed9514610793578063a9059cbb146107be578063aa5af0fd146107fb576102a7565b80634576b5db116101fe57806369ab3250116101b757806369ab3250146105dc5780636c540baf1461060757806370a082311461063257806373acee981461066f578063852a12e31461069a5780638f840ddd146106d7576102a7565b80634576b5db146104d757806347bd3718146105145780634e4d9fea1461053f5780635fe3b56714610549578063601a0bf1146105745780636752e702146105b1576102a7565b8063182df0f511610250578063182df0f5146103b157806323b872dd146103dc5780632678224714610419578063313ce567146104445780633af9e6691461046f5780633b1d21a2146104ac576102a7565b806306fdde03146102ac578063095ea7b3146102d75780631249c58b14610314578063173b99041461031e57806317bfdfbc1461034957806318160ddd14610386576102a7565b366102a7576102a534610b94565b005b600080fd5b3480156102b857600080fd5b506102c1610c2b565b6040516102ce9190614ba2565b60405180910390f35b3480156102e357600080fd5b506102fe60048036038101906102f99190614c6c565b610cb9565b60405161030b9190614cc7565b60405180910390f35b61031c610db0565b005b34801561032a57600080fd5b50610333610dbb565b6040516103409190614cf1565b60405180910390f35b34801561035557600080fd5b50610370600480360381019061036b9190614d0c565b610dc1565b60405161037d9190614cf1565b60405180910390f35b34801561039257600080fd5b5061039b610e5e565b6040516103a89190614cf1565b60405180910390f35b3480156103bd57600080fd5b506103c6610e64565b6040516103d39190614cf1565b60405180910390f35b3480156103e857600080fd5b5061040360048036038101906103fe9190614d39565b610e73565b6040516104109190614cc7565b60405180910390f35b34801561042557600080fd5b5061042e610f0f565b60405161043b9190614dad565b60405180910390f35b34801561045057600080fd5b50610459610f35565b6040516104669190614de4565b60405180910390f35b34801561047b57600080fd5b5061049660048036038101906104919190614d0c565b610f48565b6040516104a39190614cf1565b60405180910390f35b3480156104b857600080fd5b506104c1610fb4565b6040516104ce9190614cf1565b60405180910390f35b3480156104e357600080fd5b506104fe60048036038101906104f99190614e3d565b610fc3565b60405161050b9190614cf1565b60405180910390f35b34801561052057600080fd5b506105296111a4565b6040516105369190614cf1565b60405180910390f35b6105476111aa565b005b34801561055557600080fd5b5061055e6111b5565b60405161056b9190614ec9565b60405180910390f35b34801561058057600080fd5b5061059b60048036038101906105969190614ee4565b6111db565b6040516105a89190614cf1565b60405180910390f35b3480156105bd57600080fd5b506105c6611278565b6040516105d39190614cf1565b60405180910390f35b3480156105e857600080fd5b506105f1611283565b6040516105fe9190614cf1565b60405180910390f35b34801561061357600080fd5b5061061c611288565b6040516106299190614cf1565b60405180910390f35b34801561063e57600080fd5b5061065960048036038101906106549190614d0c565b61128e565b6040516106669190614cf1565b60405180910390f35b34801561067b57600080fd5b506106846112d7565b6040516106919190614cf1565b60405180910390f35b3480156106a657600080fd5b506106c160048036038101906106bc9190614ee4565b61136c565b6040516106ce9190614cf1565b60405180910390f35b3480156106e357600080fd5b506106ec611380565b6040516106f99190614cf1565b60405180910390f35b34801561070e57600080fd5b50610717611386565b6040516107249190614ba2565b60405180910390f35b34801561073957600080fd5b50610754600480360381019061074f9190614d0c565b611414565b6040516107619190614cf1565b60405180910390f35b34801561077657600080fd5b50610791600480360381019061078c91906150b0565b611426565b005b34801561079f57600080fd5b506107a861167c565b6040516107b59190614cf1565b60405180910390f35b3480156107ca57600080fd5b506107e560048036038101906107e09190614c6c565b611897565b6040516107f29190614cc7565b60405180910390f35b34801561080757600080fd5b50610810611932565b60405161081d9190614cf1565b60405180910390f35b610840600480360381019061083b91906151b3565b611938565b005b34801561084e57600080fd5b50610857611947565b6040516108649190614cf1565b60405180910390f35b34801561087957600080fd5b50610894600480360381019061088f9190614d39565b6119fd565b6040516108a19190614cf1565b60405180910390f35b3480156108b657600080fd5b506108d160048036038101906108cc919061521f565b611a98565b6040516108de9190614cf1565b60405180910390f35b3480156108f357600080fd5b506108fc611bcc565b6040516109099190614cf1565b60405180910390f35b34801561091e57600080fd5b5061093960048036038101906109349190614d0c565b611c66565b604051610949949392919061524c565b60405180910390f35b34801561095e57600080fd5b5061097960048036038101906109749190614ee4565b611cce565b6040516109869190614cf1565b60405180910390f35b34801561099b57600080fd5b506109b660048036038101906109b19190614ee4565b611ce2565b6040516109c39190614cf1565b60405180910390f35b3480156109d857600080fd5b506109f360048036038101906109ee9190615291565b611cf6565b604051610a009190614cf1565b60405180910390f35b610a236004803603810190610a1e9190614d0c565b611d7d565b005b348015610a3157600080fd5b50610a3a611d8a565b604051610a479190614cf1565b60405180910390f35b348015610a5c57600080fd5b50610a776004803603810190610a7291906152d1565b611ffe565b604051610a849190614cf1565b60405180910390f35b348015610a9957600080fd5b50610aa2612019565b604051610aaf919061531f565b60405180910390f35b348015610ac457600080fd5b50610acd61203f565b604051610ada9190614dad565b60405180910390f35b348015610aef57600080fd5b50610af8612065565b604051610b059190614cf1565b60405180910390f35b348015610b1a57600080fd5b50610b356004803603810190610b309190614ee4565b612117565b604051610b429190614cf1565b60405180910390f35b610b536121b4565b604051610b609190614cf1565b60405180910390f35b348015610b7557600080fd5b50610b7e6121c4565b604051610b8b9190614cc7565b60405180910390f35b60008054906101000a900460ff16610be1576040517f08c379a0000000000000000000000000000000000000000000000000000000008152600401610bd890615386565b60405180910390fd5b60008060006101000a81548160ff021916908315150217905550610c0361167c565b50610c0e33826121c9565b60016000806101000a81548160ff02191690831515021790555050565b60018054610c38906153d5565b80601f0160208091040260200160405190810160405280929190818152602001828054610c64906153d5565b8015610cb15780601f10610c8657610100808354040283529160200191610cb1565b820191906000526020600020905b815481529060010190602001808311610c9457829003601f168201915b505050505081565b60008033905082600f60008373ffffffffffffffffffffffffffffffffffffffff1673ffffffffffffffffffffffffffffffffffffffff16815260200190815260200160002060008673ffffffffffffffffffffffffffffffffffffffff1673ffffffffffffffffffffffffffffffffffffffff168152602001908152602001600020819055508373ffffffffffffffffffffffffffffffffffffffff168173ffffffffffffffffffffffffffffffffffffffff167f8c5be1e5ebec7d5bd14f71427d1e84f3dd0314c0f7b2291e5b200ac8c7c3b92585604051610d9d9190614cf1565b60405180910390a3600191505092915050565b610db934610b94565b565b60085481565b60008060009054906101000a900460ff16610e11576040517f08c379a0000000000000000000000000000000000000000000000000000000008152600401610e0890615386565b60405180910390fd5b60008060006101000a81548160ff021916908315150217905550610e3361167c565b50610e3d82611414565b905060016000806101000a81548160ff021916908315150217905550919050565b600d5481565b6000610e6e612476565b905090565b60008060009054906101000a900460ff16610ec3576040517f08c379a0000000000000000000000000000000000000000000000000000000008152600401610eba90615386565b60405180910390fd5b60008060006101000a81548160ff0219169083151502179055506000610eeb338686866124eb565b14905060016000806101000a81548160ff0219169083151502179055509392505050565b600460009054906101000a900473ffffffffffffffffffffffffffffffffffffffff1681565b600360009054906101000a900460ff1681565b6000806040518060200160405280610f5e611bcc565b8152509050610fac81600e60008673ffffffffffffffffffffffffffffffffffffffff1673ffffffffffffffffffffffffffffffffffffffff16815260200190815260200160002054612972565b915050919050565b6000610fbe612993565b905090565b6000600360019054906101000a900473ffffffffffffffffffffffffffffffffffffffff1673ffffffffffffffffffffffffffffffffffffffff163373ffffffffffffffffffffffffffffffffffffffff161461104c576040517fd219dc1f00000000000000000000000000000000000000000000000000000000815260040160405180910390fd5b6000600560009054906101000a900473ffffffffffffffffffffffffffffffffffffffff1690508273ffffffffffffffffffffffffffffffffffffffff16627e3dd26040518163ffffffff1660e01b8152600401602060405180830381865afa1580156110bd573d6000803e3d6000fd5b505050506040513d601f19601f820116820180604052508101906110e19190615433565b611120576040517f08c379a0000000000000000000000000000000000000000000000000000000008152600401611117906154ac565b60405180910390fd5b82600560006101000a81548173ffffffffffffffffffffffffffffffffffffffff021916908373ffffffffffffffffffffffffffffffffffffffff1602179055507f7ac369dbd14fa5ea3f473ed67cc9d598964a77501540ba6751eb0b3decf5870d81846040516111929291906154cc565b60405180910390a16000915050919050565b600b5481565b6111b3346129a6565b565b600560009054906101000a900473ffffffffffffffffffffffffffffffffffffffff1681565b60008060009054906101000a900460ff1661122b576040517f08c379a000000000000000000000000000000000000000000000000000000000815260040161122290615386565b60405180910390fd5b60008060006101000a81548160ff02191690831515021790555061124d61167c565b5061125782612a3f565b905060016000806101000a81548160ff021916908315150217905550919050565b666379da05b6000081565b600081565b60095481565b6000600e60008373ffffffffffffffffffffffffffffffffffffffff1673ffffffffffffffffffffffffffffffffffffffff168152602001908152602001600020549050919050565b60008060009054906101000a900460ff16611327576040517f08c379a000000000000000000000000000000000000000000000000000000000815260040161131e90615386565b60405180910390fd5b60008060006101000a81548160ff02191690831515021790555061134961167c565b50600b54905060016000806101000a81548160ff02191690831515021790555090565b600061137782612c32565b60009050919050565b600c5481565b60028054611393906153d5565b80601f01602080910402602001604051908101604052809291908181526020018280546113bf906153d5565b801561140c5780601f106113e15761010080835404028352916020019161140c565b820191906000526020600020905b8154815290600101906020018083116113ef57829003601f168201915b505050505081565b600061141f82612ccb565b9050919050565b600360019054906101000a900473ffffffffffffffffffffffffffffffffffffffff1673ffffffffffffffffffffffffffffffffffffffff163373ffffffffffffffffffffffffffffffffffffffff16146114b6576040517f08c379a00000000000000000000000000000000000000000000000000000000081526004016114ad90615567565b60405180910390fd5b60006009541480156114ca57506000600a54145b611509576040517f08c379a0000000000000000000000000000000000000000000000000000000008152600401611500906155f9565b60405180910390fd5b83600781905550600060075411611555576040517f08c379a000000000000000000000000000000000000000000000000000000000815260040161154c9061568b565b60405180910390fd5b600061156087610fc3565b9050600081146115a5576040517f08c379a000000000000000000000000000000000000000000000000000000000815260040161159c906156f7565b60405180910390fd5b6115ad612d56565b600981905550670de0b6b3a7640000600a819055506115cb86612d5e565b905060008114611610576040517f08c379a000000000000000000000000000000000000000000000000000000000815260040161160790615789565b60405180910390fd5b8360019080519060200190611626929190614a53565b50826002908051906020019061163d929190614a53565b5081600360006101000a81548160ff021916908360ff16021790555060016000806101000a81548160ff02191690831515021790555050505050505050565b600080611687612d56565b905060006009549050818114156116a357600092505050611894565b60006116ad612993565b90506000600b5490506000600c5490506000600a5490506000600660009054906101000a900473ffffffffffffffffffffffffffffffffffffffff1673ffffffffffffffffffffffffffffffffffffffff166315f240538686866040518463ffffffff1660e01b8152600401611725939291906157a9565b602060405180830381865afa158015611742573d6000803e3d6000fd5b505050506040513d601f19601f8201168201806040525081019061176691906157f5565b905065048c273950008111156117b1576040517f08c379a00000000000000000000000000000000000000000000000000000000081526004016117a89061586e565b60405180910390fd5b600086886117bf91906158bd565b905060006117db60405180602001604052808581525083612f81565b905060006117e98288612972565b9050600087826117f991906158f1565b905060006118186040518060200160405280600854815250848a612fad565b9050600061182785898a612fad565b90508c60098190555080600a8190555082600b8190555081600c819055507f4dec04e750ca11537cabcd8a9eab06494de08da3735bc8871cd41250e190bc048b85838660405161187a949392919061524c565b60405180910390a160009d50505050505050505050505050505b90565b60008060009054906101000a900460ff166118e7576040517f08c379a00000000000000000000000000000000000000000000000000000000081526004016118de90615386565b60405180910390fd5b60008060006101000a81548160ff021916908315150217905550600061190f333386866124eb565b14905060016000806101000a81548160ff02191690831515021790555092915050565b600a5481565b611943823483612fd8565b5050565b6000600660009054906101000a900473ffffffffffffffffffffffffffffffffffffffff1673ffffffffffffffffffffffffffffffffffffffff1663b816881661198f612993565b600b54600c546008546040518563ffffffff1660e01b81526004016119b7949392919061524c565b602060405180830381865afa1580156119d4573d6000803e3d6000fd5b505050506040513d601f19601f820116820180604052508101906119f891906157f5565b905090565b60008060009054906101000a900460ff16611a4d576040517f08c379a0000000000000000000000000000000000000000000000000000000008152600401611a4490615386565b60405180910390fd5b60008060006101000a81548160ff021916908315150217905550611a733385858561312e565b6000905060016000806101000a81548160ff0219169083151502179055509392505050565b6000600360019054906101000a900473ffffffffffffffffffffffffffffffffffffffff1673ffffffffffffffffffffffffffffffffffffffff163373ffffffffffffffffffffffffffffffffffffffff1614611b21576040517f5cb56c2b00000000000000000000000000000000000000000000000000000000815260040160405180910390fd5b6000600460009054906101000a900473ffffffffffffffffffffffffffffffffffffffff16905082600460006101000a81548173ffffffffffffffffffffffffffffffffffffffff021916908373ffffffffffffffffffffffffffffffffffffffff1602179055507fca4f2f25d0898edd99413412fb94012f9e54ec8142f9b093e7720646a95b16a98184604051611bba929190615977565b60405180910390a16000915050919050565b60008060009054906101000a900460ff16611c1c576040517f08c379a0000000000000000000000000000000000000000000000000000000008152600401611c1390615386565b60405180910390fd5b60008060006101000a81548160ff021916908315150217905550611c3e61167c565b50611c47610e64565b905060016000806101000a81548160ff02191690831515021790555090565b6000806000806000600e60008773ffffffffffffffffffffffffffffffffffffffff1673ffffffffffffffffffffffffffffffffffffffff16815260200190815260200160002054611cb787612ccb565b611cbf612476565b93509350935093509193509193565b6000611cd982613538565b60009050919050565b6000611ced826135cf565b60009050919050565b6000600f60008473ffffffffffffffffffffffffffffffffffffffff1673ffffffffffffffffffffffffffffffffffffffff16815260200190815260200160002060008373ffffffffffffffffffffffffffffffffffffffff1673ffffffffffffffffffffffffffffffffffffffff16815260200190815260200160002054905092915050565b611d878134613668565b50565b6000600460009054906101000a900473ffffffffffffffffffffffffffffffffffffffff1673ffffffffffffffffffffffffffffffffffffffff163373ffffffffffffffffffffffffffffffffffffffff16141580611e155750600073ffffffffffffffffffffffffffffffffffffffff163373ffffffffffffffffffffffffffffffffffffffff16145b15611e4c576040517f6e893ca400000000000000000000000000000000000000000000000000000000815260040160405180910390fd5b6000600360019054906101000a900473ffffffffffffffffffffffffffffffffffffffff1690506000600460009054906101000a900473ffffffffffffffffffffffffffffffffffffffff169050600460009054906101000a900473ffffffffffffffffffffffffffffffffffffffff16600360016101000a81548173ffffffffffffffffffffffffffffffffffffffff021916908373ffffffffffffffffffffffffffffffffffffffff1602179055506000600460006101000a81548173ffffffffffffffffffffffffffffffffffffffff021916908373ffffffffffffffffffffffffffffffffffffffff1602179055507ff9ffabca9c8276e99321725bcb43fb076a6c66a54b7f21c4e8146d8519b417dc82600360019054906101000a900473ffffffffffffffffffffffffffffffffffffffff16604051611f92929190615977565b60405180910390a17fca4f2f25d0898edd99413412fb94012f9e54ec8142f9b093e7720646a95b16a981600460009054906101000a900473ffffffffffffffffffffffffffffffffffffffff16604051611fed929190615977565b60405180910390a160009250505090565b600061200861167c565b5061201282612d5e565b9050919050565b600660009054906101000a900473ffffffffffffffffffffffffffffffffffffffff1681565b600360019054906101000a900473ffffffffffffffffffffffffffffffffffffffff1681565b6000600660009054906101000a900473ffffffffffffffffffffffffffffffffffffffff1673ffffffffffffffffffffffffffffffffffffffff166315f240536120ad612993565b600b54600c546040518463ffffffff1660e01b81526004016120d1939291906157a9565b602060405180830381865afa1580156120ee573d6000803e3d6000fd5b505050506040513d601f19601f8201168201806040525081019061211291906157f5565b905090565b60008060009054906101000a900460ff16612167576040517f08c379a000000000000000000000000000000000000000000000000000000000815260040161215e90615386565b60405180910390fd5b60008060006101000a81548160ff02191690831515021790555061218961167c565b5061219382613702565b905060016000806101000a81548160ff021916908315150217905550919050565b60006121bf34613860565b905090565b600181565b6000600560009054906101000a900473ffffffffffffffffffffffffffffffffffffffff1673ffffffffffffffffffffffffffffffffffffffff16634ef4c3e13085856040518463ffffffff1660e01b815260040161222a939291906159a0565b6020604051808303816000875af1158015612249573d6000803e3d6000fd5b505050506040513d601f19601f8201168201806040525081019061226d91906157f5565b9050600081146122b457806040517f49abd4fd0000000000000000000000000000000000000000000000000000000081526004016122ab9190614cf1565b60405180910390fd5b6122bc612d56565b600954146122f6576040517f38d8859700000000000000000000000000000000000000000000000000000000815260040160405180910390fd5b6000604051806020016040528061230b612476565b8152509050600061231c8585613901565b9050600061232a82846139bc565b905080600d5461233a91906158f1565b600d8190555080600e60008873ffffffffffffffffffffffffffffffffffffffff1673ffffffffffffffffffffffffffffffffffffffff1681526020019081526020016000205461238b91906158f1565b600e60008873ffffffffffffffffffffffffffffffffffffffff1673ffffffffffffffffffffffffffffffffffffffff168152602001908152602001600020819055507f4c209b5fc8ad50758f13e2e1088ba56a560dff690a1c6fef26394f4c03821c4f868383604051612401939291906159d7565b60405180910390a18573ffffffffffffffffffffffffffffffffffffffff163073ffffffffffffffffffffffffffffffffffffffff167fddf252ad1be2c89b69c2b068fc378daa952ba7f163c4a11628f55a4df523b3ef836040516124669190614cf1565b60405180910390a3505050505050565b600080600d5490506000811415612492576007549150506124e8565b600061249c612993565b90506000600c54600b54836124b191906158f1565b6124bb91906158bd565b9050600083670de0b6b3a7640000836124d49190615a0e565b6124de9190615a97565b9050809450505050505b90565b600080600560009054906101000a900473ffffffffffffffffffffffffffffffffffffffff1673ffffffffffffffffffffffffffffffffffffffff1663bdcdc258308787876040518563ffffffff1660e01b815260040161254f9493929190615ac8565b6020604051808303816000875af115801561256e573d6000803e3d6000fd5b505050506040513d601f19601f8201168201806040525081019061259291906157f5565b9050600081146125d957806040517f113a84ee0000000000000000000000000000000000000000000000000000000081526004016125d09190614cf1565b60405180910390fd5b8373ffffffffffffffffffffffffffffffffffffffff168573ffffffffffffffffffffffffffffffffffffffff16141561263f576040517f8cd22d1900000000000000000000000000000000000000000000000000000000815260040160405180910390fd5b60008573ffffffffffffffffffffffffffffffffffffffff168773ffffffffffffffffffffffffffffffffffffffff16141561269d577fffffffffffffffffffffffffffffffffffffffffffffffffffffffffffffffff905061271d565b600f60008773ffffffffffffffffffffffffffffffffffffffff1673ffffffffffffffffffffffffffffffffffffffff16815260200190815260200160002060008873ffffffffffffffffffffffffffffffffffffffff1673ffffffffffffffffffffffffffffffffffffffff1681526020019081526020016000205490505b6000848261272b91906158bd565b9050600085600e60008a73ffffffffffffffffffffffffffffffffffffffff1673ffffffffffffffffffffffffffffffffffffffff1681526020019081526020016000205461277a91906158bd565b9050600086600e60008a73ffffffffffffffffffffffffffffffffffffffff1673ffffffffffffffffffffffffffffffffffffffff168152602001908152602001600020546127c991906158f1565b905081600e60008b73ffffffffffffffffffffffffffffffffffffffff1673ffffffffffffffffffffffffffffffffffffffff1681526020019081526020016000208190555080600e60008a73ffffffffffffffffffffffffffffffffffffffff1673ffffffffffffffffffffffffffffffffffffffff168152602001908152602001600020819055507fffffffffffffffffffffffffffffffffffffffffffffffffffffffffffffffff84146128fc5782600f60008b73ffffffffffffffffffffffffffffffffffffffff1673ffffffffffffffffffffffffffffffffffffffff16815260200190815260200160002060008c73ffffffffffffffffffffffffffffffffffffffff1673ffffffffffffffffffffffffffffffffffffffff168152602001908152602001600020819055505b8773ffffffffffffffffffffffffffffffffffffffff168973ffffffffffffffffffffffffffffffffffffffff167fddf252ad1be2c89b69c2b068fc378daa952ba7f163c4a11628f55a4df523b3ef896040516129599190614cf1565b60405180910390a3600095505050505050949350505050565b60008061297f8484612f81565b905061298a816139e5565b91505092915050565b600034476129a191906158bd565b905090565b60008054906101000a900460ff166129f3576040517f08c379a00000000000000000000000000000000000000000000000000000000081526004016129ea90615386565b60405180910390fd5b60008060006101000a81548160ff021916908315150217905550612a1561167c565b50612a21333383613a06565b5060016000806101000a81548160ff02191690831515021790555050565b600080600360019054906101000a900473ffffffffffffffffffffffffffffffffffffffff1673ffffffffffffffffffffffffffffffffffffffff163373ffffffffffffffffffffffffffffffffffffffff1614612ac9576040517ff7e5e6d000000000000000000000000000000000000000000000000000000000815260040160405180910390fd5b612ad1612d56565b60095414612b0b576040517fdff50cb000000000000000000000000000000000000000000000000000000000815260040160405180910390fd5b82612b14612993565b1015612b4c576040517f3345e99900000000000000000000000000000000000000000000000000000000815260040160405180910390fd5b600c54831115612b88576040517ff1a5300a00000000000000000000000000000000000000000000000000000000815260040160405180910390fd5b82600c54612b9691906158bd565b905080600c81905550612bcb600360019054906101000a900473ffffffffffffffffffffffffffffffffffffffff1684613c8c565b7f3bad0c59cf2f06e7314077049f48a93578cd16f5ef92329f1dab1420a99c177e600360019054906101000a900473ffffffffffffffffffffffffffffffffffffffff168483604051612c2093929190615b0d565b60405180910390a16000915050919050565b60008054906101000a900460ff16612c7f576040517f08c379a0000000000000000000000000000000000000000000000000000000008152600401612c7690615386565b60405180910390fd5b60008060006101000a81548160ff021916908315150217905550612ca161167c565b50612cae33600083613cd7565b60016000806101000a81548160ff02191690831515021790555050565b600080601060008473ffffffffffffffffffffffffffffffffffffffff1673ffffffffffffffffffffffffffffffffffffffff1681526020019081526020016000209050600081600001541415612d26576000915050612d51565b6000600a548260000154612d3a9190615a0e565b9050816001015481612d4c9190615a97565b925050505b919050565b600043905090565b600080600360019054906101000a900473ffffffffffffffffffffffffffffffffffffffff1673ffffffffffffffffffffffffffffffffffffffff163373ffffffffffffffffffffffffffffffffffffffff1614612de8576040517f407fded500000000000000000000000000000000000000000000000000000000815260040160405180910390fd5b612df0612d56565b60095414612e2a576040517f17c54b9600000000000000000000000000000000000000000000000000000000815260040160405180910390fd5b600660009054906101000a900473ffffffffffffffffffffffffffffffffffffffff1690508273ffffffffffffffffffffffffffffffffffffffff16632191f92a6040518163ffffffff1660e01b8152600401602060405180830381865afa158015612e9a573d6000803e3d6000fd5b505050506040513d601f19601f82011682018060405250810190612ebe9190615433565b612efd576040517f08c379a0000000000000000000000000000000000000000000000000000000008152600401612ef4906154ac565b60405180910390fd5b82600660006101000a81548173ffffffffffffffffffffffffffffffffffffffff021916908373ffffffffffffffffffffffffffffffffffffffff1602179055507fedffc32e068c7c95dfd4bdfd5c4d939a084d6b11c4199eac8436ed234d72f9268184604051612f6f929190615b44565b60405180910390a16000915050919050565b612f89614ad9565b6040518060200160405280612fa28560000151856140c5565b815250905092915050565b600080612fba8585612f81565b9050612fce612fc8826139e5565b846140db565b9150509392505050565b60008054906101000a900460ff16613025576040517f08c379a000000000000000000000000000000000000000000000000000000000815260040161301c90615386565b60405180910390fd5b60008060006101000a81548160ff02191690831515021790555061304761167c565b5060008173ffffffffffffffffffffffffffffffffffffffff1663a6afed956040518163ffffffff1660e01b81526004016020604051808303816000875af1158015613097573d6000803e3d6000fd5b505050506040513d601f19601f820116820180604052508101906130bb91906157f5565b90506000811461310257806040517f7dd4936e0000000000000000000000000000000000000000000000000000000081526004016130f99190614cf1565b60405180910390fd5b61310e338585856140f1565b5060016000806101000a81548160ff021916908315150217905550505050565b6000600560009054906101000a900473ffffffffffffffffffffffffffffffffffffffff1673ffffffffffffffffffffffffffffffffffffffff1663d02f735130878787876040518663ffffffff1660e01b8152600401613193959493929190615b6d565b6020604051808303816000875af11580156131b2573d6000803e3d6000fd5b505050506040513d601f19601f820116820180604052508101906131d691906157f5565b90506000811461321d57806040517fc7c01c660000000000000000000000000000000000000000000000000000000081526004016132149190614cf1565b60405180910390fd5b8373ffffffffffffffffffffffffffffffffffffffff168373ffffffffffffffffffffffffffffffffffffffff161415613283576040517f7528c4ce00000000000000000000000000000000000000000000000000000000815260040160405180910390fd5b60006132a4836040518060200160405280666379da05b600008152506146d0565b9050600081846132b491906158bd565b9050600060405180602001604052806132cb612476565b815250905060006132dc8285612972565b9050600081600c546132ee91906158f1565b905080600c8190555084600d5461330591906158bd565b600d8190555086600e60008a73ffffffffffffffffffffffffffffffffffffffff1673ffffffffffffffffffffffffffffffffffffffff1681526020019081526020016000205461335691906158bd565b600e60008a73ffffffffffffffffffffffffffffffffffffffff1673ffffffffffffffffffffffffffffffffffffffff1681526020019081526020016000208190555083600e60008b73ffffffffffffffffffffffffffffffffffffffff1673ffffffffffffffffffffffffffffffffffffffff168152602001908152602001600020546133e491906158f1565b600e60008b73ffffffffffffffffffffffffffffffffffffffff1673ffffffffffffffffffffffffffffffffffffffff168152602001908152602001600020819055508873ffffffffffffffffffffffffffffffffffffffff168873ffffffffffffffffffffffffffffffffffffffff167fddf252ad1be2c89b69c2b068fc378daa952ba7f163c4a11628f55a4df523b3ef866040516134849190614cf1565b60405180910390a33073ffffffffffffffffffffffffffffffffffffffff168873ffffffffffffffffffffffffffffffffffffffff167fddf252ad1be2c89b69c2b068fc378daa952ba7f163c4a11628f55a4df523b3ef876040516134e99190614cf1565b60405180910390a37fa91e67c5ea634cd43a12c5a482724b03de01e85ca68702a53d0c2f45cb7c1dc5308383604051613524939291906159d7565b60405180910390a150505050505050505050565b60008054906101000a900460ff16613585576040517f08c379a000000000000000000000000000000000000000000000000000000000815260040161357c90615386565b60405180910390fd5b60008060006101000a81548160ff0219169083151502179055506135a761167c565b506135b233826146fb565b60016000806101000a81548160ff02191690831515021790555050565b60008054906101000a900460ff1661361c576040517f08c379a000000000000000000000000000000000000000000000000000000000815260040161361390615386565b60405180910390fd5b60008060006101000a81548160ff02191690831515021790555061363e61167c565b5061364b33826000613cd7565b60016000806101000a81548160ff02191690831515021790555050565b60008054906101000a900460ff166136b5576040517f08c379a00000000000000000000000000000000000000000000000000000000081526004016136ac90615386565b60405180910390fd5b60008060006101000a81548160ff0219169083151502179055506136d761167c565b506136e3338383613a06565b5060016000806101000a81548160ff0219169083151502179055505050565b6000600360019054906101000a900473ffffffffffffffffffffffffffffffffffffffff1673ffffffffffffffffffffffffffffffffffffffff163373ffffffffffffffffffffffffffffffffffffffff161461378b576040517f240b6af600000000000000000000000000000000000000000000000000000000815260040160405180910390fd5b613793612d56565b600954146137cd576040517ffbf94d6e00000000000000000000000000000000000000000000000000000000815260040160405180910390fd5b670de0b6b3a764000082111561380f576040517fe2e441e600000000000000000000000000000000000000000000000000000000815260040160405180910390fd5b60006008549050826008819055507faaa68312e2ea9d50e16af5068410ab56e1a1fd06037b1a35664812c30f821460818460405161384e929190615bc0565b60405180910390a16000915050919050565b60008060009054906101000a900460ff166138b0576040517f08c379a00000000000000000000000000000000000000000000000000000000081526004016138a790615386565b60405180910390fd5b60008060006101000a81548160ff0219169083151502179055506138d261167c565b506138dc8261497e565b50506000905060016000806101000a81548160ff021916908315150217905550919050565b60008273ffffffffffffffffffffffffffffffffffffffff163373ffffffffffffffffffffffffffffffffffffffff1614613971576040517f08c379a000000000000000000000000000000000000000000000000000000000815260040161396890615c35565b60405180910390fd5b8134146139b3576040517f08c379a00000000000000000000000000000000000000000000000000000000081526004016139aa90615ca1565b60405180910390fd5b81905092915050565b60006139dd6139d384670de0b6b3a76400006140c5565b8360000151614a3d565b905092915050565b6000670de0b6b3a764000082600001516139ff9190615a97565b9050919050565b600080600560009054906101000a900473ffffffffffffffffffffffffffffffffffffffff1673ffffffffffffffffffffffffffffffffffffffff166324008a62308787876040518563ffffffff1660e01b8152600401613a6a9493929190615ac8565b6020604051808303816000875af1158015613a89573d6000803e3d6000fd5b505050506040513d601f19601f82011682018060405250810190613aad91906157f5565b905060008114613af457806040517f8c81362d000000000000000000000000000000000000000000000000000000008152600401613aeb9190614cf1565b60405180910390fd5b613afc612d56565b60095414613b36576040517fc9021e2f00000000000000000000000000000000000000000000000000000000815260040160405180910390fd5b6000613b4185612ccb565b905060007fffffffffffffffffffffffffffffffffffffffffffffffffffffffffffffffff8514613b725784613b74565b815b90506000613b828883613901565b905060008184613b9291906158bd565b9050600082600b54613ba491906158bd565b905081601060008b73ffffffffffffffffffffffffffffffffffffffff1673ffffffffffffffffffffffffffffffffffffffff16815260200190815260200160002060000181905550600a54601060008b73ffffffffffffffffffffffffffffffffffffffff1673ffffffffffffffffffffffffffffffffffffffff1681526020019081526020016000206001018190555080600b819055507f1a2a22cb034d26d1854bdc6666a5b91fe25efbbb5dcad3b0355478d6f5c362a18a8a858585604051613c74959493929190615cc1565b60405180910390a18296505050505050509392505050565b8173ffffffffffffffffffffffffffffffffffffffff166108fc829081150290604051600060405180830381858888f19350505050158015613cd2573d6000803e3d6000fd5b505050565b6000821480613ce65750600081145b613d25576040517f08c379a0000000000000000000000000000000000000000000000000000000008152600401613d1c90615d86565b60405180910390fd5b60006040518060200160405280613d3a612476565b81525090506000806000851115613d5f57849150613d588386612972565b9050613d6f565b613d6984846139bc565b91508390505b6000600560009054906101000a900473ffffffffffffffffffffffffffffffffffffffff1673ffffffffffffffffffffffffffffffffffffffff1663eabe7d913089866040518463ffffffff1660e01b8152600401613dd093929190615da6565b6020604051808303816000875af1158015613def573d6000803e3d6000fd5b505050506040513d601f19601f82011682018060405250810190613e1391906157f5565b905060008114613e5a57806040517f480f4247000000000000000000000000000000000000000000000000000000008152600401613e519190614cf1565b60405180910390fd5b613e62612d56565b60095414613e9c576040517f97b5cfcd00000000000000000000000000000000000000000000000000000000815260040160405180910390fd5b81613ea5612993565b1015613edd576040517f91240a1b00000000000000000000000000000000000000000000000000000000815260040160405180910390fd5b82600d54613eeb91906158bd565b600d8190555082600e60008973ffffffffffffffffffffffffffffffffffffffff1673ffffffffffffffffffffffffffffffffffffffff16815260200190815260200160002054613f3c91906158bd565b600e60008973ffffffffffffffffffffffffffffffffffffffff1673ffffffffffffffffffffffffffffffffffffffff16815260200190815260200160002081905550613f898783613c8c565b3073ffffffffffffffffffffffffffffffffffffffff168773ffffffffffffffffffffffffffffffffffffffff167fddf252ad1be2c89b69c2b068fc378daa952ba7f163c4a11628f55a4df523b3ef85604051613fe69190614cf1565b60405180910390a37fe5b754fb1abb7f01b499791d0b820ae3b6af3424ac1c59768edb53f4ec31a92987838560405161402193929190615b0d565b60405180910390a1600560009054906101000a900473ffffffffffffffffffffffffffffffffffffffff1673ffffffffffffffffffffffffffffffffffffffff166351dff989308985876040518563ffffffff1660e01b815260040161408a9493929190615ddd565b600060405180830381600087803b1580156140a457600080fd5b505af11580156140b8573d6000803e3d6000fd5b5050505050505050505050565b600081836140d39190615a0e565b905092915050565b600081836140e991906158f1565b905092915050565b6000600560009054906101000a900473ffffffffffffffffffffffffffffffffffffffff1673ffffffffffffffffffffffffffffffffffffffff16635fc7e71e30848888886040518663ffffffff1660e01b8152600401614156959493929190615b6d565b6020604051808303816000875af1158015614175573d6000803e3d6000fd5b505050506040513d601f19601f8201168201806040525081019061419991906157f5565b9050600081146141e057806040517f1429a2f20000000000000000000000000000000000000000000000000000000081526004016141d79190614cf1565b60405180910390fd5b6141e8612d56565b60095414614222576040517f80965b1b00000000000000000000000000000000000000000000000000000000815260040160405180910390fd5b61422a612d56565b8273ffffffffffffffffffffffffffffffffffffffff16636c540baf6040518163ffffffff1660e01b8152600401602060405180830381865afa158015614275573d6000803e3d6000fd5b505050506040513d601f19601f8201168201806040525081019061429991906157f5565b146142d0576040517f82379c6800000000000000000000000000000000000000000000000000000000815260040160405180910390fd5b8473ffffffffffffffffffffffffffffffffffffffff168473ffffffffffffffffffffffffffffffffffffffff161415614336576040517f6f46988400000000000000000000000000000000000000000000000000000000815260040160405180910390fd5b6000831415614371576040517fd29da7ef00000000000000000000000000000000000000000000000000000000815260040160405180910390fd5b7fffffffffffffffffffffffffffffffffffffffffffffffffffffffffffffffff8314156143cb576040517fb3058b7600000000000000000000000000000000000000000000000000000000815260040160405180910390fd5b60006143d8868686613a06565b9050600080600560009054906101000a900473ffffffffffffffffffffffffffffffffffffffff1673ffffffffffffffffffffffffffffffffffffffff1663c488847b3087866040518463ffffffff1660e01b815260040161443c939291906159a0565b6040805180830381865afa158015614458573d6000803e3d6000fd5b505050506040513d601f19601f8201168201806040525081019061447c9190615e22565b91509150600082146144c3576040517f08c379a00000000000000000000000000000000000000000000000000000000081526004016144ba90615ed4565b60405180910390fd5b808573ffffffffffffffffffffffffffffffffffffffff166370a08231896040518263ffffffff1660e01b81526004016144fd9190615ef4565b602060405180830381865afa15801561451a573d6000803e3d6000fd5b505050506040513d601f19601f8201168201806040525081019061453e91906157f5565b101561457f576040517f08c379a000000000000000000000000000000000000000000000000000000000815260040161457690615f5b565b60405180910390fd5b3073ffffffffffffffffffffffffffffffffffffffff168573ffffffffffffffffffffffffffffffffffffffff1614156145c4576145bf3089898461312e565b614687565b60008573ffffffffffffffffffffffffffffffffffffffff1663b2a02ff18a8a856040518463ffffffff1660e01b8152600401614603939291906159a0565b6020604051808303816000875af1158015614622573d6000803e3d6000fd5b505050506040513d601f19601f8201168201806040525081019061464691906157f5565b14614686576040517f08c379a000000000000000000000000000000000000000000000000000000000815260040161467d90615fc7565b60405180910390fd5b5b7f298637f684da70674f26509b10f07ec2fbc77a335ab1e7d6215a4b2484d8bb5288888588856040516146be959493929190615fe7565b60405180910390a15050505050505050565b6000670de0b6b3a76400006146e98484600001516140c5565b6146f39190615a97565b905092915050565b6000600560009054906101000a900473ffffffffffffffffffffffffffffffffffffffff1673ffffffffffffffffffffffffffffffffffffffff1663da3d454c3085856040518463ffffffff1660e01b815260040161475c93929190615da6565b6020604051808303816000875af115801561477b573d6000803e3d6000fd5b505050506040513d601f19601f8201168201806040525081019061479f91906157f5565b9050600081146147e657806040517f918db40f0000000000000000000000000000000000000000000000000000000081526004016147dd9190614cf1565b60405180910390fd5b6147ee612d56565b60095414614828576040517f3a36318400000000000000000000000000000000000000000000000000000000815260040160405180910390fd5b81614831612993565b1015614869576040517f48c2588100000000000000000000000000000000000000000000000000000000815260040160405180910390fd5b600061487484612ccb565b90506000838261488491906158f1565b9050600084600b5461489691906158f1565b905081601060008873ffffffffffffffffffffffffffffffffffffffff1673ffffffffffffffffffffffffffffffffffffffff16815260200190815260200160002060000181905550600a54601060008873ffffffffffffffffffffffffffffffffffffffff1673ffffffffffffffffffffffffffffffffffffffff1681526020019081526020016000206001018190555080600b819055506149398686613c8c565b7f13ed6866d4e1ee6da46f845c46d7e54120883d75c5ea9a2dacc1c4ca8984ab808686848460405161496e949392919061603a565b60405180910390a1505050505050565b60008060008061498c612d56565b600954146149d157806040517f38acf7990000000000000000000000000000000000000000000000000000000081526004016149c89190614cf1565b60405180910390fd5b6149db3386613901565b905080600c546149eb91906158f1565b915081600c819055507fa91e67c5ea634cd43a12c5a482724b03de01e85ca68702a53d0c2f45cb7c1dc5338284604051614a27939291906159d7565b60405180910390a1600081935093505050915091565b60008183614a4b9190615a97565b905092915050565b828054614a5f906153d5565b90600052602060002090601f016020900481019282614a815760008555614ac8565b82601f10614a9a57805160ff1916838001178555614ac8565b82800160010185558215614ac8579182015b82811115614ac7578251825591602001919060010190614aac565b5b509050614ad59190614aec565b5090565b6040518060200160405280600081525090565b5b80821115614b05576000816000905550600101614aed565b5090565b600081519050919050565b600082825260208201905092915050565b60005b83811015614b43578082015181840152602081019050614b28565b83811115614b52576000848401525b50505050565b6000601f19601f8301169050919050565b6000614b7482614b09565b614b7e8185614b14565b9350614b8e818560208601614b25565b614b9781614b58565b840191505092915050565b60006020820190508181036000830152614bbc8184614b69565b905092915050565b6000604051905090565b600080fd5b600080fd5b600073ffffffffffffffffffffffffffffffffffffffff82169050919050565b6000614c0382614bd8565b9050919050565b614c1381614bf8565b8114614c1e57600080fd5b50565b600081359050614c3081614c0a565b92915050565b6000819050919050565b614c4981614c36565b8114614c5457600080fd5b50565b600081359050614c6681614c40565b92915050565b60008060408385031215614c8357614c82614bce565b5b6000614c9185828601614c21565b9250506020614ca285828601614c57565b9150509250929050565b60008115159050919050565b614cc181614cac565b82525050565b6000602082019050614cdc6000830184614cb8565b92915050565b614ceb81614c36565b82525050565b6000602082019050614d066000830184614ce2565b92915050565b600060208284031215614d2257614d21614bce565b5b6000614d3084828501614c21565b91505092915050565b600080600060608486031215614d5257614d51614bce565b5b6000614d6086828701614c21565b9350506020614d7186828701614c21565b9250506040614d8286828701614c57565b9150509250925092565b6000614d9782614bd8565b9050919050565b614da781614d8c565b82525050565b6000602082019050614dc26000830184614d9e565b92915050565b600060ff82169050919050565b614dde81614dc8565b82525050565b6000602082019050614df96000830184614dd5565b92915050565b6000614e0a82614bf8565b9050919050565b614e1a81614dff565b8114614e2557600080fd5b50565b600081359050614e3781614e11565b92915050565b600060208284031215614e5357614e52614bce565b5b6000614e6184828501614e28565b91505092915050565b6000819050919050565b6000614e8f614e8a614e8584614bd8565b614e6a565b614bd8565b9050919050565b6000614ea182614e74565b9050919050565b6000614eb382614e96565b9050919050565b614ec381614ea8565b82525050565b6000602082019050614ede6000830184614eba565b92915050565b600060208284031215614efa57614ef9614bce565b5b6000614f0884828501614c57565b91505092915050565b6000614f1c82614bf8565b9050919050565b614f2c81614f11565b8114614f3757600080fd5b50565b600081359050614f4981614f23565b92915050565b600080fd5b600080fd5b7f4e487b7100000000000000000000000000000000000000000000000000000000600052604160045260246000fd5b614f9182614b58565b810181811067ffffffffffffffff82111715614fb057614faf614f59565b5b80604052505050565b6000614fc3614bc4565b9050614fcf8282614f88565b919050565b600067ffffffffffffffff821115614fef57614fee614f59565b5b614ff882614b58565b9050602081019050919050565b82818337600083830152505050565b600061502761502284614fd4565b614fb9565b90508281526020810184848401111561504357615042614f54565b5b61504e848285615005565b509392505050565b600082601f83011261506b5761506a614f4f565b5b813561507b848260208601615014565b91505092915050565b61508d81614dc8565b811461509857600080fd5b50565b6000813590506150aa81615084565b92915050565b60008060008060008060c087890312156150cd576150cc614bce565b5b60006150db89828a01614e28565b96505060206150ec89828a01614f3a565b95505060406150fd89828a01614c57565b945050606087013567ffffffffffffffff81111561511e5761511d614bd3565b5b61512a89828a01615056565b935050608087013567ffffffffffffffff81111561514b5761514a614bd3565b5b61515789828a01615056565b92505060a061516889828a0161509b565b9150509295509295509295565b600061518082614bf8565b9050919050565b61519081615175565b811461519b57600080fd5b50565b6000813590506151ad81615187565b92915050565b600080604083850312156151ca576151c9614bce565b5b60006151d885828601614c21565b92505060206151e98582860161519e565b9150509250929050565b6151fc81614d8c565b811461520757600080fd5b50565b600081359050615219816151f3565b92915050565b60006020828403121561523557615234614bce565b5b60006152438482850161520a565b91505092915050565b60006080820190506152616000830187614ce2565b61526e6020830186614ce2565b61527b6040830185614ce2565b6152886060830184614ce2565b95945050505050565b600080604083850312156152a8576152a7614bce565b5b60006152b685828601614c21565b92505060206152c785828601614c21565b9150509250929050565b6000602082840312156152e7576152e6614bce565b5b60006152f584828501614f3a565b91505092915050565b600061530982614e96565b9050919050565b615319816152fe565b82525050565b60006020820190506153346000830184615310565b92915050565b7f72652d656e746572656400000000000000000000000000000000000000000000600082015250565b6000615370600a83614b14565b915061537b8261533a565b602082019050919050565b6000602082019050818103600083015261539f81615363565b9050919050565b7f4e487b7100000000000000000000000000000000000000000000000000000000600052602260045260246000fd5b600060028204905060018216806153ed57607f821691505b60208210811415615401576154006153a6565b5b50919050565b61541081614cac565b811461541b57600080fd5b50565b60008151905061542d81615407565b92915050565b60006020828403121561544957615448614bce565b5b60006154578482850161541e565b91505092915050565b7f6d61726b6572206d6574686f642072657475726e65642066616c736500000000600082015250565b6000615496601c83614b14565b91506154a182615460565b602082019050919050565b600060208201905081810360008301526154c581615489565b9050919050565b60006040820190506154e16000830185614eba565b6154ee6020830184614eba565b9392505050565b7f6f6e6c792061646d696e206d617920696e697469616c697a6520746865206d6160008201527f726b657400000000000000000000000000000000000000000000000000000000602082015250565b6000615551602483614b14565b915061555c826154f5565b604082019050919050565b6000602082019050818103600083015261558081615544565b9050919050565b7f6d61726b6574206d6179206f6e6c7920626520696e697469616c697a6564206f60008201527f6e63650000000000000000000000000000000000000000000000000000000000602082015250565b60006155e3602383614b14565b91506155ee82615587565b604082019050919050565b60006020820190508181036000830152615612816155d6565b9050919050565b7f696e697469616c2065786368616e67652072617465206d75737420626520677260008201527f6561746572207468616e207a65726f2e00000000000000000000000000000000602082015250565b6000615675603083614b14565b915061568082615619565b604082019050919050565b600060208201905081810360008301526156a481615668565b9050919050565b7f73657474696e6720636f6d7074726f6c6c6572206661696c6564000000000000600082015250565b60006156e1601a83614b14565b91506156ec826156ab565b602082019050919050565b60006020820190508181036000830152615710816156d4565b9050919050565b7f73657474696e6720696e7465726573742072617465206d6f64656c206661696c60008201527f6564000000000000000000000000000000000000000000000000000000000000602082015250565b6000615773602283614b14565b915061577e82615717565b604082019050919050565b600060208201905081810360008301526157a281615766565b9050919050565b60006060820190506157be6000830186614ce2565b6157cb6020830185614ce2565b6157d86040830184614ce2565b949350505050565b6000815190506157ef81614c40565b92915050565b60006020828403121561580b5761580a614bce565b5b6000615819848285016157e0565b91505092915050565b7f626f72726f772072617465206973206162737572646c79206869676800000000600082015250565b6000615858601c83614b14565b915061586382615822565b602082019050919050565b600060208201905081810360008301526158878161584b565b9050919050565b7f4e487b7100000000000000000000000000000000000000000000000000000000600052601160045260246000fd5b60006158c882614c36565b91506158d383614c36565b9250828210156158e6576158e561588e565b5b828203905092915050565b60006158fc82614c36565b915061590783614c36565b9250827fffffffffffffffffffffffffffffffffffffffffffffffffffffffffffffffff0382111561593c5761593b61588e565b5b828201905092915050565b61595081614bf8565b82525050565b600061596182614e96565b9050919050565b61597181615956565b82525050565b600060408201905061598c6000830185615947565b6159996020830184615968565b9392505050565b60006060820190506159b56000830186615947565b6159c26020830185615947565b6159cf6040830184614ce2565b949350505050565b60006060820190506159ec6000830186615947565b6159f96020830185614ce2565b615a066040830184614ce2565b949350505050565b6000615a1982614c36565b9150615a2483614c36565b9250817fffffffffffffffffffffffffffffffffffffffffffffffffffffffffffffffff0483118215151615615a5d57615a5c61588e565b5b828202905092915050565b7f4e487b7100000000000000000000000000000000000000000000000000000000600052601260045260246000fd5b6000615aa282614c36565b9150615aad83614c36565b925082615abd57615abc615a68565b5b828204905092915050565b6000608082019050615add6000830187615947565b615aea6020830186615947565b615af76040830185615947565b615b046060830184614ce2565b95945050505050565b6000606082019050615b226000830186615968565b615b2f6020830185614ce2565b615b3c6040830184614ce2565b949350505050565b6000604082019050615b596000830185615310565b615b666020830184615310565b9392505050565b600060a082019050615b826000830188615947565b615b8f6020830187615947565b615b9c6040830186615947565b615ba96060830185615947565b615bb66080830184614ce2565b9695505050505050565b6000604082019050615bd56000830185614ce2565b615be26020830184614ce2565b9392505050565b7f73656e646572206d69736d617463680000000000000000000000000000000000600082015250565b6000615c1f600f83614b14565b9150615c2a82615be9565b602082019050919050565b60006020820190508181036000830152615c4e81615c12565b9050919050565b7f76616c7565206d69736d61746368000000000000000000000000000000000000600082015250565b6000615c8b600e83614b14565b9150615c9682615c55565b602082019050919050565b60006020820190508181036000830152615cba81615c7e565b9050919050565b600060a082019050615cd66000830188615947565b615ce36020830187615947565b615cf06040830186614ce2565b615cfd6060830185614ce2565b615d0a6080830184614ce2565b9695505050505050565b7f6f6e65206f662072656465656d546f6b656e73496e206f722072656465656d4160008201527f6d6f756e74496e206d757374206265207a65726f000000000000000000000000602082015250565b6000615d70603483614b14565b9150615d7b82615d14565b604082019050919050565b60006020820190508181036000830152615d9f81615d63565b9050919050565b6000606082019050615dbb6000830186615947565b615dc86020830185615968565b615dd56040830184614ce2565b949350505050565b6000608082019050615df26000830187615947565b615dff6020830186615968565b615e0c6040830185614ce2565b615e196060830184614ce2565b95945050505050565b60008060408385031215615e3957615e38614bce565b5b6000615e47858286016157e0565b9250506020615e58858286016157e0565b9150509250929050565b7f4c49515549444154455f434f4d5054524f4c4c45525f43414c43554c4154455f60008201527f414d4f554e545f5345495a455f4641494c454400000000000000000000000000602082015250565b6000615ebe603383614b14565b9150615ec982615e62565b604082019050919050565b60006020820190508181036000830152615eed81615eb1565b9050919050565b6000602082019050615f096000830184615947565b92915050565b7f4c49515549444154455f5345495a455f544f4f5f4d5543480000000000000000600082015250565b6000615f45601883614b14565b9150615f5082615f0f565b602082019050919050565b60006020820190508181036000830152615f7481615f38565b9050919050565b7f746f6b656e207365697a757265206661696c6564000000000000000000000000600082015250565b6000615fb1601483614b14565b9150615fbc82615f7b565b602082019050919050565b60006020820190508181036000830152615fe081615fa4565b9050919050565b600060a082019050615ffc6000830188615947565b6160096020830187615947565b6160166040830186614ce2565b6160236060830185615947565b6160306080830184614ce2565b9695505050505050565b600060808201905061604f6000830187615968565b61605c6020830186614ce2565b6160696040830185614ce2565b6160766060830184614ce2565b9594505050505056fea2646970667358221220aff9c9d22a98dce16050a9896f605b64fd5ef83b8ca468ea2df997eebc8266bf64736f6c634300080a0033",
  "linkReferences": {},
  "deployedLinkReferences": {}
}